{
  "abi": [
    {
      "type": "constructor",
      "inputs": [],
      "stateMutability": "nonpayable"
    },
    {
      "type": "function",
      "name": "acceptOwnership",
      "inputs": [],
      "outputs": [],
      "stateMutability": "nonpayable"
    },
    {
      "type": "function",
      "name": "addContract",
      "inputs": [
        {
          "name": "name",
          "type": "string",
          "internalType": "string"
        },
        {
          "name": "symbol",
          "type": "string",
          "internalType": "string"
        },
        {
          "name": "perpId",
          "type": "uint256",
          "internalType": "uint256"
        },
        {
          "name": "basePricePNS",
          "type": "uint256",
          "internalType": "uint256"
        },
        {
          "name": "priceDecimals",
          "type": "uint256",
          "internalType": "uint256"
        },
        {
          "name": "lotDecimals",
          "type": "uint256",
          "internalType": "uint256"
        },
        {
          "name": "takerFeePer100K",
          "type": "uint256",
          "internalType": "uint256"
        },
        {
          "name": "makerFeePer100K",
          "type": "uint256",
          "internalType": "uint256"
        },
        {
          "name": "initMarginFracHdths",
          "type": "uint256",
          "internalType": "uint256"
        },
        {
          "name": "maintMarginFracHdths",
          "type": "uint256",
          "internalType": "uint256"
        }
      ],
      "outputs": [],
      "stateMutability": "nonpayable"
    },
    {
      "type": "function",
      "name": "addressBlocked",
      "inputs": [
        {
          "name": "",
          "type": "address",
          "internalType": "address"
        }
      ],
      "outputs": [
        {
          "name": "",
          "type": "bool",
          "internalType": "bool"
        }
      ],
      "stateMutability": "view"
    },
    {
      "type": "function",
      "name": "adminCancelOrders",
      "inputs": [
        {
          "name": "signatures",
          "type": "tuple[]",
          "internalType": "struct OrderSignature[]",
          "components": [
            {
              "name": "perpId",
              "type": "uint256",
              "internalType": "uint256"
            },
            {
              "name": "orderId",
              "type": "uint256",
              "internalType": "uint256"
            }
          ]
        }
      ],
      "outputs": [],
      "stateMutability": "nonpayable"
    },
    {
      "type": "function",
      "name": "allowOrderForwarding",
      "inputs": [
        {
          "name": "allow",
          "type": "bool",
          "internalType": "bool"
        }
      ],
      "outputs": [],
      "stateMutability": "nonpayable"
    },
    {
      "type": "function",
      "name": "autoDeleverage",
      "inputs": [
        {
          "name": "adlDescs",
          "type": "tuple[]",
          "internalType": "struct AdlDesc[]",
          "components": [
            {
              "name": "perpId",
              "type": "uint256",
              "internalType": "uint256"
            },
            {
              "name": "posAccountId",
              "type": "uint256",
              "internalType": "uint256"
            },
            {
              "name": "sortedPositionIds",
              "type": "uint256[]",
              "internalType": "uint256[]"
            }
          ]
        },
        {
          "name": "revertOnFail",
          "type": "bool",
          "internalType": "bool"
        }
      ],
      "outputs": [],
      "stateMutability": "nonpayable"
    },
    {
      "type": "function",
      "name": "buyLiquidations",
      "inputs": [
        {
          "name": "liquidationDescs",
          "type": "tuple[]",
          "internalType": "struct BuyToLiquidateDesc[]",
          "components": [
            {
              "name": "perpId",
              "type": "uint256",
              "internalType": "uint256"
            },
            {
              "name": "posAccountId",
              "type": "uint256",
              "internalType": "uint256"
            },
            {
              "name": "lotLNS",
              "type": "uint256",
              "internalType": "uint256"
            },
            {
              "name": "leverageHdths",
              "type": "uint256",
              "internalType": "uint256"
            },
            {
              "name": "limitPricePNS",
              "type": "uint256",
              "internalType": "uint256"
            },
            {
              "name": "maxNegPnlCollatBPS",
              "type": "uint256",
              "internalType": "uint256"
            }
          ]
        },
        {
          "name": "revertOnFail",
          "type": "bool",
          "internalType": "bool"
        }
      ],
      "outputs": [],
      "stateMutability": "nonpayable"
    },
    {
      "type": "function",
      "name": "cancelDecreaseCollateralRequest",
      "inputs": [
        {
          "name": "perpId",
          "type": "uint256",
          "internalType": "uint256"
        }
      ],
      "outputs": [],
      "stateMutability": "nonpayable"
    },
    {
      "type": "function",
      "name": "clearInitUnwindContract",
      "inputs": [
        {
          "name": "perpId",
          "type": "uint256",
          "internalType": "uint256"
        }
      ],
      "outputs": [],
      "stateMutability": "nonpayable"
    },
    {
      "type": "function",
      "name": "clearOrderSlots",
      "inputs": [
        {
          "name": "perpId",
          "type": "uint256",
          "internalType": "uint256"
        },
        {
          "name": "orderIds",
          "type": "uint256[]",
          "internalType": "uint256[]"
        }
      ],
      "outputs": [],
      "stateMutability": "nonpayable"
    },
    {
      "type": "function",
      "name": "clearPrepareUnwindContract",
      "inputs": [
        {
          "name": "perpId",
          "type": "uint256",
          "internalType": "uint256"
        }
      ],
      "outputs": [],
      "stateMutability": "nonpayable"
    },
    {
      "type": "function",
      "name": "clearPricePointerSlots",
      "inputs": [
        {
          "name": "perpId",
          "type": "uint256",
          "internalType": "uint256"
        },
        {
          "name": "pricesONS",
          "type": "uint256[]",
          "internalType": "uint256[]"
        }
      ],
      "outputs": [],
      "stateMutability": "nonpayable"
    },
    {
      "type": "function",
      "name": "createAccount",
      "inputs": [
        {
          "name": "amountCNS",
          "type": "uint256",
          "internalType": "uint256"
        }
      ],
      "outputs": [
        {
          "name": "accountId",
          "type": "uint256",
          "internalType": "uint256"
        }
      ],
      "stateMutability": "nonpayable"
    },
    {
      "type": "function",
      "name": "declineDecreaseCollateralRequest",
      "inputs": [
        {
          "name": "perpId",
          "type": "uint256",
          "internalType": "uint256"
        },
        {
          "name": "accountId",
          "type": "uint256",
          "internalType": "uint256"
        },
        {
          "name": "reason",
          "type": "string",
          "internalType": "string"
        }
      ],
      "outputs": [],
      "stateMutability": "nonpayable"
    },
    {
      "type": "function",
      "name": "decreasePositionCollateral",
      "inputs": [
        {
          "name": "perpId",
          "type": "uint256",
          "internalType": "uint256"
        },
        {
          "name": "accountId",
          "type": "uint256",
          "internalType": "uint256"
        },
        {
          "name": "impactAdjPricePNS",
          "type": "uint32",
          "internalType": "uint32"
        },
        {
          "name": "borrowMarginFracHdths",
          "type": "uint16",
          "internalType": "uint16"
        },
        {
          "name": "positionType",
          "type": "uint8",
          "internalType": "enum PositionEnum"
        }
      ],
      "outputs": [],
      "stateMutability": "nonpayable"
    },
    {
      "type": "function",
      "name": "depositCollateral",
      "inputs": [
        {
          "name": "amountCNS",
          "type": "uint256",
          "internalType": "uint256"
        }
      ],
      "outputs": [],
      "stateMutability": "nonpayable"
    },
    {
      "type": "function",
      "name": "depositToProtocol",
      "inputs": [
        {
          "name": "amountCNS",
          "type": "uint256",
          "internalType": "uint256"
        }
      ],
      "outputs": [],
      "stateMutability": "nonpayable"
    },
    {
      "type": "function",
      "name": "execFwdPositionOps",
      "inputs": [
        {
          "name": "forwardedOrders",
          "type": "tuple[]",
          "internalType": "struct FwdOrderDesc[]",
          "components": [
            {
              "name": "accountId",
              "type": "uint256",
              "internalType": "uint256"
            },
            {
              "name": "feePer100K",
              "type": "uint256",
              "internalType": "uint256"
            },
            {
              "name": "orderDesc",
              "type": "tuple",
              "internalType": "struct OrderDesc",
              "components": [
                {
                  "name": "orderDescId",
                  "type": "uint256",
                  "internalType": "uint256"
                },
                {
                  "name": "perpId",
                  "type": "uint256",
                  "internalType": "uint256"
                },
                {
                  "name": "orderType",
                  "type": "uint8",
                  "internalType": "enum OrderDescEnum"
                },
                {
                  "name": "orderId",
                  "type": "uint256",
                  "internalType": "uint256"
                },
                {
                  "name": "pricePNS",
                  "type": "uint256",
                  "internalType": "uint256"
                },
                {
                  "name": "lotLNS",
                  "type": "uint256",
                  "internalType": "uint256"
                },
                {
                  "name": "expiryBlock",
                  "type": "uint256",
                  "internalType": "uint256"
                },
                {
                  "name": "postOnly",
                  "type": "bool",
                  "internalType": "bool"
                },
                {
                  "name": "fillOrKill",
                  "type": "bool",
                  "internalType": "bool"
                },
                {
                  "name": "immediateOrCancel",
                  "type": "bool",
                  "internalType": "bool"
                },
                {
                  "name": "maxMatches",
                  "type": "uint256",
                  "internalType": "uint256"
                },
                {
                  "name": "leverageHdths",
                  "type": "uint256",
                  "internalType": "uint256"
                },
                {
                  "name": "lastExecutionBlock",
                  "type": "uint256",
                  "internalType": "uint256"
                },
                {
                  "name": "amountCNS",
                  "type": "uint256",
                  "internalType": "uint256"
                },
                {
                  "name": "maxNegPnlCollatBPS",
                  "type": "uint256",
                  "internalType": "uint256"
                }
              ]
            },
            {
              "name": "execTriggerOrder",
              "type": "bool",
              "internalType": "bool"
            },
            {
              "name": "triggerPricePNS",
              "type": "uint256",
              "internalType": "uint256"
            },
            {
              "name": "triggerPriceCondition",
              "type": "uint8",
              "internalType": "enum TriggerPriceConditionEnum"
            },
            {
              "name": "triggerRequestId",
              "type": "uint256",
              "internalType": "uint256"
            },
            {
              "name": "triggerPositionId",
              "type": "uint256",
              "internalType": "uint256"
            }
          ]
        }
      ],
      "outputs": [
        {
          "name": "signatures",
          "type": "tuple[]",
          "internalType": "struct OrderSignature[]",
          "components": [
            {
              "name": "perpId",
              "type": "uint256",
              "internalType": "uint256"
            },
            {
              "name": "orderId",
              "type": "uint256",
              "internalType": "uint256"
            }
          ]
        }
      ],
      "stateMutability": "nonpayable"
    },
    {
      "type": "function",
      "name": "execFznAccountPosOps",
      "inputs": [
        {
          "name": "fznAccountCloseOrders",
          "type": "tuple[]",
          "internalType": "struct FznOrderDesc[]",
          "components": [
            {
              "name": "accountId",
              "type": "uint256",
              "internalType": "uint256"
            },
            {
              "name": "orderDesc",
              "type": "tuple",
              "internalType": "struct OrderDesc",
              "components": [
                {
                  "name": "orderDescId",
                  "type": "uint256",
                  "internalType": "uint256"
                },
                {
                  "name": "perpId",
                  "type": "uint256",
                  "internalType": "uint256"
                },
                {
                  "name": "orderType",
                  "type": "uint8",
                  "internalType": "enum OrderDescEnum"
                },
                {
                  "name": "orderId",
                  "type": "uint256",
                  "internalType": "uint256"
                },
                {
                  "name": "pricePNS",
                  "type": "uint256",
                  "internalType": "uint256"
                },
                {
                  "name": "lotLNS",
                  "type": "uint256",
                  "internalType": "uint256"
                },
                {
                  "name": "expiryBlock",
                  "type": "uint256",
                  "internalType": "uint256"
                },
                {
                  "name": "postOnly",
                  "type": "bool",
                  "internalType": "bool"
                },
                {
                  "name": "fillOrKill",
                  "type": "bool",
                  "internalType": "bool"
                },
                {
                  "name": "immediateOrCancel",
                  "type": "bool",
                  "internalType": "bool"
                },
                {
                  "name": "maxMatches",
                  "type": "uint256",
                  "internalType": "uint256"
                },
                {
                  "name": "leverageHdths",
                  "type": "uint256",
                  "internalType": "uint256"
                },
                {
                  "name": "lastExecutionBlock",
                  "type": "uint256",
                  "internalType": "uint256"
                },
                {
                  "name": "amountCNS",
                  "type": "uint256",
                  "internalType": "uint256"
                },
                {
                  "name": "maxNegPnlCollatBPS",
                  "type": "uint256",
                  "internalType": "uint256"
                }
              ]
            }
          ]
        }
      ],
      "outputs": [],
      "stateMutability": "nonpayable"
    },
    {
      "type": "function",
      "name": "execOrder",
      "inputs": [
        {
          "name": "orderDesc",
          "type": "tuple",
          "internalType": "struct OrderDesc",
          "components": [
            {
              "name": "orderDescId",
              "type": "uint256",
              "internalType": "uint256"
            },
            {
              "name": "perpId",
              "type": "uint256",
              "internalType": "uint256"
            },
            {
              "name": "orderType",
              "type": "uint8",
              "internalType": "enum OrderDescEnum"
            },
            {
              "name": "orderId",
              "type": "uint256",
              "internalType": "uint256"
            },
            {
              "name": "pricePNS",
              "type": "uint256",
              "internalType": "uint256"
            },
            {
              "name": "lotLNS",
              "type": "uint256",
              "internalType": "uint256"
            },
            {
              "name": "expiryBlock",
              "type": "uint256",
              "internalType": "uint256"
            },
            {
              "name": "postOnly",
              "type": "bool",
              "internalType": "bool"
            },
            {
              "name": "fillOrKill",
              "type": "bool",
              "internalType": "bool"
            },
            {
              "name": "immediateOrCancel",
              "type": "bool",
              "internalType": "bool"
            },
            {
              "name": "maxMatches",
              "type": "uint256",
              "internalType": "uint256"
            },
            {
              "name": "leverageHdths",
              "type": "uint256",
              "internalType": "uint256"
            },
            {
              "name": "lastExecutionBlock",
              "type": "uint256",
              "internalType": "uint256"
            },
            {
              "name": "amountCNS",
              "type": "uint256",
              "internalType": "uint256"
            },
            {
              "name": "maxNegPnlCollatBPS",
              "type": "uint256",
              "internalType": "uint256"
            }
          ]
        }
      ],
      "outputs": [
        {
          "name": "signature",
          "type": "tuple",
          "internalType": "struct OrderSignature",
          "components": [
            {
              "name": "perpId",
              "type": "uint256",
              "internalType": "uint256"
            },
            {
              "name": "orderId",
              "type": "uint256",
              "internalType": "uint256"
            }
          ]
        }
      ],
      "stateMutability": "nonpayable"
    },
    {
      "type": "function",
      "name": "execOrders",
      "inputs": [
        {
          "name": "orderDescs",
          "type": "tuple[]",
          "internalType": "struct OrderDesc[]",
          "components": [
            {
              "name": "orderDescId",
              "type": "uint256",
              "internalType": "uint256"
            },
            {
              "name": "perpId",
              "type": "uint256",
              "internalType": "uint256"
            },
            {
              "name": "orderType",
              "type": "uint8",
              "internalType": "enum OrderDescEnum"
            },
            {
              "name": "orderId",
              "type": "uint256",
              "internalType": "uint256"
            },
            {
              "name": "pricePNS",
              "type": "uint256",
              "internalType": "uint256"
            },
            {
              "name": "lotLNS",
              "type": "uint256",
              "internalType": "uint256"
            },
            {
              "name": "expiryBlock",
              "type": "uint256",
              "internalType": "uint256"
            },
            {
              "name": "postOnly",
              "type": "bool",
              "internalType": "bool"
            },
            {
              "name": "fillOrKill",
              "type": "bool",
              "internalType": "bool"
            },
            {
              "name": "immediateOrCancel",
              "type": "bool",
              "internalType": "bool"
            },
            {
              "name": "maxMatches",
              "type": "uint256",
              "internalType": "uint256"
            },
            {
              "name": "leverageHdths",
              "type": "uint256",
              "internalType": "uint256"
            },
            {
              "name": "lastExecutionBlock",
              "type": "uint256",
              "internalType": "uint256"
            },
            {
              "name": "amountCNS",
              "type": "uint256",
              "internalType": "uint256"
            },
            {
              "name": "maxNegPnlCollatBPS",
              "type": "uint256",
              "internalType": "uint256"
            }
          ]
        },
        {
          "name": "revertOnFail",
          "type": "bool",
          "internalType": "bool"
        }
      ],
      "outputs": [
        {
          "name": "signatures",
          "type": "tuple[]",
          "internalType": "struct OrderSignature[]",
          "components": [
            {
              "name": "perpId",
              "type": "uint256",
              "internalType": "uint256"
            },
            {
              "name": "orderId",
              "type": "uint256",
              "internalType": "uint256"
            }
          ]
        }
      ],
      "stateMutability": "nonpayable"
    },
    {
      "type": "function",
      "name": "execPerpOps",
      "inputs": [
        {
          "name": "operations",
          "type": "tuple[]",
          "internalType": "struct OpDesc[]",
          "components": [
            {
              "name": "opDescId",
              "type": "uint256",
              "internalType": "uint256"
            },
            {
              "name": "perpId",
              "type": "uint256",
              "internalType": "uint256"
            },
            {
              "name": "opType",
              "type": "uint8",
              "internalType": "enum OpDescEnum"
            },
            {
              "name": "pricePNS",
              "type": "uint32",
              "internalType": "uint32"
            },
            {
              "name": "fundingRatePct100k",
              "type": "int256",
              "internalType": "int256"
            },
            {
              "name": "allowOverwrite",
              "type": "bool",
              "internalType": "bool"
            },
            {
              "name": "unverifiedReport",
              "type": "bytes",
              "internalType": "bytes"
            }
          ]
        }
      ],
      "outputs": [],
      "stateMutability": "nonpayable"
    },
    {
      "type": "function",
      "name": "forceClose",
      "inputs": [
        {
          "name": "perpId",
          "type": "uint256",
          "internalType": "uint256"
        },
        {
          "name": "posAccountId",
          "type": "uint256",
          "internalType": "uint256"
        },
        {
          "name": "sortedPositionIds",
          "type": "uint256[]",
          "internalType": "uint256[]"
        },
        {
          "name": "revertOnFail",
          "type": "bool",
          "internalType": "bool"
        }
      ],
      "outputs": [
        {
          "name": "success",
          "type": "bool",
          "internalType": "bool"
        }
      ],
      "stateMutability": "nonpayable"
    },
    {
      "type": "function",
      "name": "forceResetWithdrawRateLimit",
      "inputs": [],
      "outputs": [],
      "stateMutability": "nonpayable"
    },
    {
      "type": "function",
      "name": "getAccountByAddr",
      "inputs": [
        {
          "name": "accountAddress",
          "type": "address",
          "internalType": "address"
        }
      ],
      "outputs": [
        {
          "name": "accountInfo",
          "type": "tuple",
          "internalType": "struct AccountInfo",
          "components": [
            {
              "name": "accountId",
              "type": "uint256",
              "internalType": "uint256"
            },
            {
              "name": "balanceCNS",
              "type": "uint256",
              "internalType": "uint256"
            },
            {
              "name": "lockedBalanceCNS",
              "type": "uint256",
              "internalType": "uint256"
            },
            {
              "name": "frozen",
              "type": "uint8",
              "internalType": "enum FreezeStatusEnum"
            },
            {
              "name": "accountAddr",
              "type": "address",
              "internalType": "address"
            },
            {
              "name": "positions",
              "type": "tuple",
              "internalType": "struct PositionBitMap",
              "components": [
                {
                  "name": "bank1",
                  "type": "uint256",
                  "internalType": "uint256"
                },
                {
                  "name": "bank2",
                  "type": "uint256",
                  "internalType": "uint256"
                },
                {
                  "name": "bank3",
                  "type": "uint256",
                  "internalType": "uint256"
                },
                {
                  "name": "bank4",
                  "type": "uint256",
                  "internalType": "uint256"
                }
              ]
            }
          ]
        }
      ],
      "stateMutability": "view"
    },
    {
      "type": "function",
      "name": "getAccountById",
      "inputs": [
        {
          "name": "accountId",
          "type": "uint256",
          "internalType": "uint256"
        }
      ],
      "outputs": [
        {
          "name": "accountInfo",
          "type": "tuple",
          "internalType": "struct AccountInfo",
          "components": [
            {
              "name": "accountId",
              "type": "uint256",
              "internalType": "uint256"
            },
            {
              "name": "balanceCNS",
              "type": "uint256",
              "internalType": "uint256"
            },
            {
              "name": "lockedBalanceCNS",
              "type": "uint256",
              "internalType": "uint256"
            },
            {
              "name": "frozen",
              "type": "uint8",
              "internalType": "enum FreezeStatusEnum"
            },
            {
              "name": "accountAddr",
              "type": "address",
              "internalType": "address"
            },
            {
              "name": "positions",
              "type": "tuple",
              "internalType": "struct PositionBitMap",
              "components": [
                {
                  "name": "bank1",
                  "type": "uint256",
                  "internalType": "uint256"
                },
                {
                  "name": "bank2",
                  "type": "uint256",
                  "internalType": "uint256"
                },
                {
                  "name": "bank3",
                  "type": "uint256",
                  "internalType": "uint256"
                },
                {
                  "name": "bank4",
                  "type": "uint256",
                  "internalType": "uint256"
                }
              ]
            }
          ]
        }
      ],
      "stateMutability": "view"
    },
    {
      "type": "function",
      "name": "getExchangeInfo",
      "inputs": [],
      "outputs": [
        {
          "name": "balanceCNS",
          "type": "uint256",
          "internalType": "uint256"
        },
        {
          "name": "protocolBalanceCNS",
          "type": "uint256",
          "internalType": "uint256"
        },
        {
          "name": "recycleBalanceCNS",
          "type": "uint256",
          "internalType": "uint256"
        },
        {
          "name": "collateralDecimals",
          "type": "uint256",
          "internalType": "uint256"
        },
        {
          "name": "collateralToken",
          "type": "address",
          "internalType": "address"
        },
        {
          "name": "verifierProxy",
          "type": "address",
          "internalType": "address"
        }
      ],
      "stateMutability": "view"
    },
    {
      "type": "function",
      "name": "getFundingInterval",
      "inputs": [],
      "outputs": [
        {
          "name": "fundingInterval",
          "type": "uint256",
          "internalType": "uint256"
        }
      ],
      "stateMutability": "pure"
    },
    {
      "type": "function",
      "name": "getFundingSumAtBlock",
      "inputs": [
        {
          "name": "perpId",
          "type": "uint256",
          "internalType": "uint256"
        },
        {
          "name": "blockNumber",
          "type": "uint256",
          "internalType": "uint256"
        }
      ],
      "outputs": [
        {
          "name": "fundingSumPNS",
          "type": "int48",
          "internalType": "int48"
        },
        {
          "name": "fundingEventBlock",
          "type": "uint256",
          "internalType": "uint256"
        }
      ],
      "stateMutability": "view"
    },
    {
      "type": "function",
      "name": "getLiquidationInfo",
      "inputs": [
        {
          "name": "perpId",
          "type": "uint256",
          "internalType": "uint256"
        }
      ],
      "outputs": [
        {
          "name": "liquidationInfo",
          "type": "tuple",
          "internalType": "struct LiquidationInfo",
          "components": [
            {
              "name": "liqInsAmtPer100K",
              "type": "uint256",
              "internalType": "uint256"
            },
            {
              "name": "liqUserAmtPer100K",
              "type": "uint256",
              "internalType": "uint256"
            },
            {
              "name": "liqProtocolAmtPer100K",
              "type": "uint256",
              "internalType": "uint256"
            },
            {
              "name": "btlPriceThreshPer100K",
              "type": "uint256",
              "internalType": "uint256"
            },
            {
              "name": "btlInsAmtPer100K",
              "type": "uint256",
              "internalType": "uint256"
            },
            {
              "name": "btlUserAmtPer100K",
              "type": "uint256",
              "internalType": "uint256"
            },
            {
              "name": "btlBuyerAmtPer100K",
              "type": "uint256",
              "internalType": "uint256"
            },
            {
              "name": "btlProtocolAmtPer100K",
              "type": "uint256",
              "internalType": "uint256"
            },
            {
              "name": "btlRestrictBuyers",
              "type": "bool",
              "internalType": "bool"
            }
          ]
        }
      ],
      "stateMutability": "view"
    },
    {
      "type": "function",
      "name": "getMakerFee",
      "inputs": [
        {
          "name": "perpId",
          "type": "uint256",
          "internalType": "uint256"
        }
      ],
      "outputs": [
        {
          "name": "",
          "type": "uint256",
          "internalType": "uint256"
        }
      ],
      "stateMutability": "view"
    },
    {
      "type": "function",
      "name": "getMarginFractions",
      "inputs": [
        {
          "name": "perpId",
          "type": "uint256",
          "internalType": "uint256"
        },
        {
          "name": "lotLNS",
          "type": "uint256",
          "internalType": "uint256"
        }
      ],
      "outputs": [
        {
          "name": "perpInitMarginFracHdths",
          "type": "uint256",
          "internalType": "uint256"
        },
        {
          "name": "perpMaintMarginFracHdths",
          "type": "uint256",
          "internalType": "uint256"
        },
        {
          "name": "dynamicInitMarginFracHdths",
          "type": "uint256",
          "internalType": "uint256"
        },
        {
          "name": "oiMaxLNS",
          "type": "uint256",
          "internalType": "uint256"
        },
        {
          "name": "unityDescentThreshHdths",
          "type": "uint256",
          "internalType": "uint256"
        },
        {
          "name": "overColDescentThreshHdths",
          "type": "uint256",
          "internalType": "uint256"
        }
      ],
      "stateMutability": "view"
    },
    {
      "type": "function",
      "name": "getMinAccountOpenCNS",
      "inputs": [],
      "outputs": [
        {
          "name": "minAccountOpenCNS",
          "type": "uint256",
          "internalType": "uint256"
        }
      ],
      "stateMutability": "view"
    },
    {
      "type": "function",
      "name": "getMinimumPostCNS",
      "inputs": [],
      "outputs": [
        {
          "name": "minimumPostCNS",
          "type": "uint256",
          "internalType": "uint256"
        }
      ],
      "stateMutability": "view"
    },
    {
      "type": "function",
      "name": "getMinimumSettleCNS",
      "inputs": [],
      "outputs": [
        {
          "name": "minimumSettleCNS",
          "type": "uint256",
          "internalType": "uint256"
        }
      ],
      "stateMutability": "view"
    },
    {
      "type": "function",
      "name": "getNextPriceAboveWithOrders",
      "inputs": [
        {
          "name": "perpId",
          "type": "uint256",
          "internalType": "uint256"
        },
        {
          "name": "priceONS",
          "type": "uint256",
          "internalType": "uint256"
        }
      ],
      "outputs": [
        {
          "name": "priceAboveONS",
          "type": "uint256",
          "internalType": "uint256"
        }
      ],
      "stateMutability": "view"
    },
    {
      "type": "function",
      "name": "getNextPriceBelowWithOrders",
      "inputs": [
        {
          "name": "perpId",
          "type": "uint256",
          "internalType": "uint256"
        },
        {
          "name": "priceONS",
          "type": "uint256",
          "internalType": "uint256"
        }
      ],
      "outputs": [
        {
          "name": "priceBelowONS",
          "type": "uint256",
          "internalType": "uint256"
        }
      ],
      "stateMutability": "view"
    },
    {
      "type": "function",
      "name": "getOrder",
      "inputs": [
        {
          "name": "perpId",
          "type": "uint256",
          "internalType": "uint256"
        },
        {
          "name": "orderId",
          "type": "uint256",
          "internalType": "uint256"
        }
      ],
      "outputs": [
        {
          "name": "order",
          "type": "tuple",
          "internalType": "struct Order",
          "components": [
            {
              "name": "accountId",
              "type": "uint32",
              "internalType": "uint32"
            },
            {
              "name": "orderType",
              "type": "uint8",
              "internalType": "enum OrderEnum"
            },
            {
              "name": "priceONS",
              "type": "uint24",
              "internalType": "uint24"
            },
            {
              "name": "lotLNS",
              "type": "uint40",
              "internalType": "uint40"
            },
            {
              "name": "recycleFeeRaw",
              "type": "uint16",
              "internalType": "uint16"
            },
            {
              "name": "expiryBlock",
              "type": "uint32",
              "internalType": "uint32"
            },
            {
              "name": "leverageHdths",
              "type": "uint16",
              "internalType": "uint16"
            },
            {
              "name": "orderId",
              "type": "uint16",
              "internalType": "uint16"
            },
            {
              "name": "prevOrderId",
              "type": "uint16",
              "internalType": "uint16"
            },
            {
              "name": "nextOrderId",
              "type": "uint16",
              "internalType": "uint16"
            },
            {
              "name": "maxNegPnlCollatBPS",
              "type": "uint16",
              "internalType": "uint16"
            }
          ]
        }
      ],
      "stateMutability": "view"
    },
    {
      "type": "function",
      "name": "getOrderIdIndex",
      "inputs": [
        {
          "name": "perpId",
          "type": "uint256",
          "internalType": "uint256"
        }
      ],
      "outputs": [
        {
          "name": "root",
          "type": "uint256",
          "internalType": "uint256"
        },
        {
          "name": "leaves",
          "type": "uint256[]",
          "internalType": "uint256[]"
        },
        {
          "name": "numOrders",
          "type": "uint256",
          "internalType": "uint256"
        }
      ],
      "stateMutability": "view"
    },
    {
      "type": "function",
      "name": "getOrderLocks",
      "inputs": [
        {
          "name": "accountId",
          "type": "uint256",
          "internalType": "uint256"
        }
      ],
      "outputs": [
        {
          "name": "orderLocks",
          "type": "tuple[]",
          "internalType": "struct OrderLock[]",
          "components": [
            {
              "name": "orderLockId",
              "type": "uint32",
              "internalType": "uint32"
            },
            {
              "name": "nextOrderLockId",
              "type": "uint32",
              "internalType": "uint32"
            },
            {
              "name": "prevOrderLockId",
              "type": "uint32",
              "internalType": "uint32"
            },
            {
              "name": "orderType",
              "type": "uint8",
              "internalType": "enum OrderEnum"
            },
            {
              "name": "lotLNS",
              "type": "uint40",
              "internalType": "uint40"
            },
            {
              "name": "amountCNS",
              "type": "uint80",
              "internalType": "uint80"
            }
          ]
        }
      ],
      "stateMutability": "view"
    },
    {
      "type": "function",
      "name": "getOrdersAtPriceLevel",
      "inputs": [
        {
          "name": "perpId",
          "type": "uint256",
          "internalType": "uint256"
        },
        {
          "name": "priceONS",
          "type": "uint256",
          "internalType": "uint256"
        },
        {
          "name": "pageStartOrderId",
          "type": "uint256",
          "internalType": "uint256"
        },
        {
          "name": "ordersPerPage",
          "type": "uint256",
          "internalType": "uint256"
        }
      ],
      "outputs": [
        {
          "name": "ordersAtPriceLevel",
          "type": "tuple[]",
          "internalType": "struct Order[]",
          "components": [
            {
              "name": "accountId",
              "type": "uint32",
              "internalType": "uint32"
            },
            {
              "name": "orderType",
              "type": "uint8",
              "internalType": "enum OrderEnum"
            },
            {
              "name": "priceONS",
              "type": "uint24",
              "internalType": "uint24"
            },
            {
              "name": "lotLNS",
              "type": "uint40",
              "internalType": "uint40"
            },
            {
              "name": "recycleFeeRaw",
              "type": "uint16",
              "internalType": "uint16"
            },
            {
              "name": "expiryBlock",
              "type": "uint32",
              "internalType": "uint32"
            },
            {
              "name": "leverageHdths",
              "type": "uint16",
              "internalType": "uint16"
            },
            {
              "name": "orderId",
              "type": "uint16",
              "internalType": "uint16"
            },
            {
              "name": "prevOrderId",
              "type": "uint16",
              "internalType": "uint16"
            },
            {
              "name": "nextOrderId",
              "type": "uint16",
              "internalType": "uint16"
            },
            {
              "name": "maxNegPnlCollatBPS",
              "type": "uint16",
              "internalType": "uint16"
            }
          ]
        },
        {
          "name": "numOrders",
          "type": "uint256",
          "internalType": "uint256"
        }
      ],
      "stateMutability": "view"
    },
    {
      "type": "function",
      "name": "getOwner",
      "inputs": [],
      "outputs": [
        {
          "name": "",
          "type": "address",
          "internalType": "address"
        }
      ],
      "stateMutability": "view"
    },
    {
      "type": "function",
      "name": "getPermissionedCancelParams",
      "inputs": [
        {
          "name": "perpId",
          "type": "uint256",
          "internalType": "uint256"
        }
      ],
      "outputs": [
        {
          "name": "permCancelMinOrders",
          "type": "uint256",
          "internalType": "uint256"
        },
        {
          "name": "permCancelSegment",
          "type": "uint256",
          "internalType": "uint256"
        }
      ],
      "stateMutability": "view"
    },
    {
      "type": "function",
      "name": "getPerpOrderLocks",
      "inputs": [
        {
          "name": "accountId",
          "type": "uint256",
          "internalType": "uint256"
        },
        {
          "name": "perpId",
          "type": "uint256",
          "internalType": "uint256"
        }
      ],
      "outputs": [
        {
          "name": "perpOrderLocks",
          "type": "tuple[]",
          "internalType": "struct OrderLock[]",
          "components": [
            {
              "name": "orderLockId",
              "type": "uint32",
              "internalType": "uint32"
            },
            {
              "name": "nextOrderLockId",
              "type": "uint32",
              "internalType": "uint32"
            },
            {
              "name": "prevOrderLockId",
              "type": "uint32",
              "internalType": "uint32"
            },
            {
              "name": "orderType",
              "type": "uint8",
              "internalType": "enum OrderEnum"
            },
            {
              "name": "lotLNS",
              "type": "uint40",
              "internalType": "uint40"
            },
            {
              "name": "amountCNS",
              "type": "uint80",
              "internalType": "uint80"
            }
          ]
        }
      ],
      "stateMutability": "view"
    },
    {
      "type": "function",
      "name": "getPerpetualInfo",
      "inputs": [
        {
          "name": "perpId",
          "type": "uint256",
          "internalType": "uint256"
        }
      ],
      "outputs": [
        {
          "name": "perpetualInfo",
          "type": "tuple",
          "internalType": "struct PerpetualInfo",
          "components": [
            {
              "name": "name",
              "type": "string",
              "internalType": "string"
            },
            {
              "name": "symbol",
              "type": "string",
              "internalType": "string"
            },
            {
              "name": "priceDecimals",
              "type": "uint256",
              "internalType": "uint256"
            },
            {
              "name": "lotDecimals",
              "type": "uint256",
              "internalType": "uint256"
            },
            {
              "name": "linkFeedId",
              "type": "bytes32",
              "internalType": "bytes32"
            },
            {
              "name": "priceTolPer100K",
              "type": "uint256",
              "internalType": "uint256"
            },
            {
              "name": "marginTol",
              "type": "uint256",
              "internalType": "uint256"
            },
            {
              "name": "marginTolDecimals",
              "type": "uint256",
              "internalType": "uint256"
            },
            {
              "name": "refPriceMaxAgeSec",
              "type": "uint256",
              "internalType": "uint256"
            },
            {
              "name": "positionBalanceCNS",
              "type": "uint256",
              "internalType": "uint256"
            },
            {
              "name": "insuranceBalanceCNS",
              "type": "uint256",
              "internalType": "uint256"
            },
            {
              "name": "markPNS",
              "type": "uint256",
              "internalType": "uint256"
            },
            {
              "name": "markTimestamp",
              "type": "uint256",
              "internalType": "uint256"
            },
            {
              "name": "lastPNS",
              "type": "uint256",
              "internalType": "uint256"
            },
            {
              "name": "lastTimestamp",
              "type": "uint256",
              "internalType": "uint256"
            },
            {
              "name": "oraclePNS",
              "type": "uint256",
              "internalType": "uint256"
            },
            {
              "name": "oracleTimestampSec",
              "type": "uint256",
              "internalType": "uint256"
            },
            {
              "name": "longOpenInterestLNS",
              "type": "uint256",
              "internalType": "uint256"
            },
            {
              "name": "shortOpenInterestLNS",
              "type": "uint256",
              "internalType": "uint256"
            },
            {
              "name": "fundingStartBlock",
              "type": "uint256",
              "internalType": "uint256"
            },
            {
              "name": "fundingRatePct100k",
              "type": "int16",
              "internalType": "int16"
            },
            {
              "name": "absFundingClampPctPer100K",
              "type": "uint256",
              "internalType": "uint256"
            },
            {
              "name": "status",
              "type": "uint8",
              "internalType": "enum PerpStatusEnum"
            },
            {
              "name": "basePricePNS",
              "type": "uint256",
              "internalType": "uint256"
            },
            {
              "name": "maxBidPriceONS",
              "type": "uint256",
              "internalType": "uint256"
            },
            {
              "name": "minBidPriceONS",
              "type": "uint256",
              "internalType": "uint256"
            },
            {
              "name": "maxAskPriceONS",
              "type": "uint256",
              "internalType": "uint256"
            },
            {
              "name": "minAskPriceONS",
              "type": "uint256",
              "internalType": "uint256"
            },
            {
              "name": "numOrders",
              "type": "uint256",
              "internalType": "uint256"
            },
            {
              "name": "ignOracle",
              "type": "bool",
              "internalType": "bool"
            },
            {
              "name": "fundingSumScalingExp",
              "type": "uint256",
              "internalType": "uint256"
            }
          ]
        }
      ],
      "stateMutability": "view"
    },
    {
      "type": "function",
      "name": "getPosition",
      "inputs": [
        {
          "name": "perpId",
          "type": "uint256",
          "internalType": "uint256"
        },
        {
          "name": "accountId",
          "type": "uint256",
          "internalType": "uint256"
        }
      ],
      "outputs": [
        {
          "name": "positionInfo",
          "type": "tuple",
          "internalType": "struct PositionInfo",
          "components": [
            {
              "name": "accountId",
              "type": "uint256",
              "internalType": "uint256"
            },
            {
              "name": "nextNodeId",
              "type": "uint256",
              "internalType": "uint256"
            },
            {
              "name": "prevNodeId",
              "type": "uint256",
              "internalType": "uint256"
            },
            {
              "name": "positionType",
              "type": "uint8",
              "internalType": "enum PositionEnum"
            },
            {
              "name": "depositCNS",
              "type": "uint256",
              "internalType": "uint256"
            },
            {
              "name": "pricePNS",
              "type": "uint256",
              "internalType": "uint256"
            },
            {
              "name": "lotLNS",
              "type": "uint256",
              "internalType": "uint256"
            },
            {
              "name": "entryBlock",
              "type": "uint256",
              "internalType": "uint256"
            },
            {
              "name": "pnlCNS",
              "type": "int256",
              "internalType": "int256"
            },
            {
              "name": "deltaPnlCNS",
              "type": "int256",
              "internalType": "int256"
            },
            {
              "name": "premiumPnlCNS",
              "type": "int256",
              "internalType": "int256"
            }
          ]
        },
        {
          "name": "markPricePNS",
          "type": "uint256",
          "internalType": "uint256"
        },
        {
          "name": "markPriceValid",
          "type": "bool",
          "internalType": "bool"
        }
      ],
      "stateMutability": "view"
    },
    {
      "type": "function",
      "name": "getPositionIds",
      "inputs": [
        {
          "name": "perpId",
          "type": "uint256",
          "internalType": "uint256"
        }
      ],
      "outputs": [
        {
          "name": "startNodeId",
          "type": "uint256",
          "internalType": "uint256"
        },
        {
          "name": "endNodeId",
          "type": "uint256",
          "internalType": "uint256"
        }
      ],
      "stateMutability": "view"
    },
    {
      "type": "function",
      "name": "getPositions",
      "inputs": [
        {
          "name": "perpId",
          "type": "uint256",
          "internalType": "uint256"
        },
        {
          "name": "pageStartPositionId",
          "type": "uint256",
          "internalType": "uint256"
        },
        {
          "name": "positionsPerPage",
          "type": "uint256",
          "internalType": "uint256"
        }
      ],
      "outputs": [
        {
          "name": "positions",
          "type": "tuple[]",
          "internalType": "struct PositionInfo[]",
          "components": [
            {
              "name": "accountId",
              "type": "uint256",
              "internalType": "uint256"
            },
            {
              "name": "nextNodeId",
              "type": "uint256",
              "internalType": "uint256"
            },
            {
              "name": "prevNodeId",
              "type": "uint256",
              "internalType": "uint256"
            },
            {
              "name": "positionType",
              "type": "uint8",
              "internalType": "enum PositionEnum"
            },
            {
              "name": "depositCNS",
              "type": "uint256",
              "internalType": "uint256"
            },
            {
              "name": "pricePNS",
              "type": "uint256",
              "internalType": "uint256"
            },
            {
              "name": "lotLNS",
              "type": "uint256",
              "internalType": "uint256"
            },
            {
              "name": "entryBlock",
              "type": "uint256",
              "internalType": "uint256"
            },
            {
              "name": "pnlCNS",
              "type": "int256",
              "internalType": "int256"
            },
            {
              "name": "deltaPnlCNS",
              "type": "int256",
              "internalType": "int256"
            },
            {
              "name": "premiumPnlCNS",
              "type": "int256",
              "internalType": "int256"
            }
          ]
        },
        {
          "name": "numPositions",
          "type": "uint256",
          "internalType": "uint256"
        },
        {
          "name": "markPricePNS",
          "type": "uint256",
          "internalType": "uint256"
        },
        {
          "name": "markPriceValid",
          "type": "bool",
          "internalType": "bool"
        }
      ],
      "stateMutability": "view"
    },
    {
      "type": "function",
      "name": "getPriceLevelOrderIds",
      "inputs": [
        {
          "name": "perpId",
          "type": "uint256",
          "internalType": "uint256"
        },
        {
          "name": "priceONS",
          "type": "uint256",
          "internalType": "uint256"
        }
      ],
      "outputs": [
        {
          "name": "startOrderId",
          "type": "uint256",
          "internalType": "uint256"
        },
        {
          "name": "endOrderId",
          "type": "uint256",
          "internalType": "uint256"
        }
      ],
      "stateMutability": "view"
    },
    {
      "type": "function",
      "name": "getProtocolBalanceCNS",
      "inputs": [],
      "outputs": [
        {
          "name": "protocolBalanceCNS",
          "type": "uint256",
          "internalType": "uint256"
        }
      ],
      "stateMutability": "view"
    },
    {
      "type": "function",
      "name": "getRecycleBalanceCNS",
      "inputs": [],
      "outputs": [
        {
          "name": "recycleBalanceCNS",
          "type": "uint256",
          "internalType": "uint256"
        }
      ],
      "stateMutability": "view"
    },
    {
      "type": "function",
      "name": "getRecycleFeeCNS",
      "inputs": [],
      "outputs": [
        {
          "name": "recycleFeeCNS",
          "type": "uint256",
          "internalType": "uint256"
        }
      ],
      "stateMutability": "view"
    },
    {
      "type": "function",
      "name": "getTakerFee",
      "inputs": [
        {
          "name": "perpId",
          "type": "uint256",
          "internalType": "uint256"
        }
      ],
      "outputs": [
        {
          "name": "",
          "type": "uint256",
          "internalType": "uint256"
        }
      ],
      "stateMutability": "view"
    },
    {
      "type": "function",
      "name": "getUnwindInfo",
      "inputs": [
        {
          "name": "perpId",
          "type": "uint256",
          "internalType": "uint256"
        }
      ],
      "outputs": [
        {
          "name": "status",
          "type": "uint8",
          "internalType": "enum PerpStatusEnum"
        },
        {
          "name": "unwindSumPositiveFmvCNS",
          "type": "uint256",
          "internalType": "uint256"
        },
        {
          "name": "unwindInitPosBalCNS",
          "type": "uint256",
          "internalType": "uint256"
        }
      ],
      "stateMutability": "view"
    },
    {
      "type": "function",
      "name": "getVolumeAtBookPrice",
      "inputs": [
        {
          "name": "perpId",
          "type": "uint256",
          "internalType": "uint256"
        },
        {
          "name": "priceONS",
          "type": "uint256",
          "internalType": "uint256"
        }
      ],
      "outputs": [
        {
          "name": "bids",
          "type": "uint256",
          "internalType": "uint256"
        },
        {
          "name": "expBids",
          "type": "uint256",
          "internalType": "uint256"
        },
        {
          "name": "asks",
          "type": "uint256",
          "internalType": "uint256"
        },
        {
          "name": "expAsks",
          "type": "uint256",
          "internalType": "uint256"
        }
      ],
      "stateMutability": "view"
    },
    {
      "type": "function",
      "name": "getWithdrawAllowanceData",
      "inputs": [
        {
          "name": "blockNumber",
          "type": "uint256",
          "internalType": "uint256"
        }
      ],
      "outputs": [
        {
          "name": "allowanceCNS",
          "type": "uint256",
          "internalType": "uint256"
        },
        {
          "name": "expiryBlock",
          "type": "uint256",
          "internalType": "uint256"
        },
        {
          "name": "lastAllowanceBlock",
          "type": "uint256",
          "internalType": "uint256"
        },
        {
          "name": "cnsPerBlock",
          "type": "uint256",
          "internalType": "uint256"
        }
      ],
      "stateMutability": "view"
    },
    {
      "type": "function",
      "name": "increasePositionCollateral",
      "inputs": [
        {
          "name": "perpId",
          "type": "uint256",
          "internalType": "uint256"
        },
        {
          "name": "amountCNS",
          "type": "uint256",
          "internalType": "uint256"
        }
      ],
      "outputs": [],
      "stateMutability": "nonpayable"
    },
    {
      "type": "function",
      "name": "initUnwindContract",
      "inputs": [
        {
          "name": "perpId",
          "type": "uint256",
          "internalType": "uint256"
        },
        {
          "name": "sumPositiveFmvCNS",
          "type": "uint256",
          "internalType": "uint256"
        }
      ],
      "outputs": [],
      "stateMutability": "nonpayable"
    },
    {
      "type": "function",
      "name": "initialize",
      "inputs": [
        {
          "name": "collateralToken",
          "type": "address",
          "internalType": "address"
        }
      ],
      "outputs": [],
      "stateMutability": "nonpayable"
    },
    {
      "type": "function",
      "name": "initializeV2",
      "inputs": [
        {
          "name": "perpIds",
          "type": "uint256[]",
          "internalType": "uint256[]"
        },
        {
          "name": "fundingSumScalingExps",
          "type": "uint256[]",
          "internalType": "uint256[]"
        }
      ],
      "outputs": [],
      "stateMutability": "nonpayable"
    },
    {
      "type": "function",
      "name": "isAdministrator",
      "inputs": [
        {
          "name": "anAddress",
          "type": "address",
          "internalType": "address"
        }
      ],
      "outputs": [
        {
          "name": "",
          "type": "bool",
          "internalType": "bool"
        }
      ],
      "stateMutability": "view"
    },
    {
      "type": "function",
      "name": "isHalted",
      "inputs": [],
      "outputs": [
        {
          "name": "halted",
          "type": "bool",
          "internalType": "bool"
        }
      ],
      "stateMutability": "view"
    },
    {
      "type": "function",
      "name": "isLiquidationBuyer",
      "inputs": [
        {
          "name": "anAddress",
          "type": "address",
          "internalType": "address"
        }
      ],
      "outputs": [
        {
          "name": "",
          "type": "bool",
          "internalType": "bool"
        }
      ],
      "stateMutability": "view"
    },
    {
      "type": "function",
      "name": "isPositionAdministrator",
      "inputs": [
        {
          "name": "anAddress",
          "type": "address",
          "internalType": "address"
        }
      ],
      "outputs": [
        {
          "name": "",
          "type": "bool",
          "internalType": "bool"
        }
      ],
      "stateMutability": "view"
    },
    {
      "type": "function",
      "name": "isPriceAdministrator",
      "inputs": [
        {
          "name": "anAddress",
          "type": "address",
          "internalType": "address"
        }
      ],
      "outputs": [
        {
          "name": "",
          "type": "bool",
          "internalType": "bool"
        }
      ],
      "stateMutability": "view"
    },
    {
      "type": "function",
      "name": "isToleranceAdministrator",
      "inputs": [
        {
          "name": "anAddress",
          "type": "address",
          "internalType": "address"
        }
      ],
      "outputs": [
        {
          "name": "",
          "type": "bool",
          "internalType": "bool"
        }
      ],
      "stateMutability": "view"
    },
    {
      "type": "function",
      "name": "liquidation",
      "inputs": [
        {
          "name": "liquidationDesc",
          "type": "tuple",
          "internalType": "struct LiquidationDesc",
          "components": [
            {
              "name": "perpId",
              "type": "uint256",
              "internalType": "uint256"
            },
            {
              "name": "posAccountId",
              "type": "uint256",
              "internalType": "uint256"
            },
            {
              "name": "lotLNS",
              "type": "uint256",
              "internalType": "uint256"
            },
            {
              "name": "userProceedsToPosition",
              "type": "bool",
              "internalType": "bool"
            }
          ]
        }
      ],
      "outputs": [],
      "stateMutability": "nonpayable"
    },
    {
      "type": "function",
      "name": "liquidations",
      "inputs": [
        {
          "name": "liquidationDescs",
          "type": "tuple[]",
          "internalType": "struct LiquidationDesc[]",
          "components": [
            {
              "name": "perpId",
              "type": "uint256",
              "internalType": "uint256"
            },
            {
              "name": "posAccountId",
              "type": "uint256",
              "internalType": "uint256"
            },
            {
              "name": "lotLNS",
              "type": "uint256",
              "internalType": "uint256"
            },
            {
              "name": "userProceedsToPosition",
              "type": "bool",
              "internalType": "bool"
            }
          ]
        },
        {
          "name": "revertOnFail",
          "type": "bool",
          "internalType": "bool"
        }
      ],
      "outputs": [],
      "stateMutability": "nonpayable"
    },
    {
      "type": "function",
      "name": "numberOfAccounts",
      "inputs": [],
      "outputs": [
        {
          "name": "numAccounts",
          "type": "uint256",
          "internalType": "uint256"
        }
      ],
      "stateMutability": "view"
    },
    {
      "type": "function",
      "name": "owner",
      "inputs": [],
      "outputs": [
        {
          "name": "",
          "type": "address",
          "internalType": "address"
        }
      ],
      "stateMutability": "view"
    },
    {
      "type": "function",
      "name": "pauseContract",
      "inputs": [
        {
          "name": "perpId",
          "type": "uint256",
          "internalType": "uint256"
        }
      ],
      "outputs": [],
      "stateMutability": "nonpayable"
    },
    {
      "type": "function",
      "name": "pauseContractByMonitor",
      "inputs": [
        {
          "name": "perpId",
          "type": "uint256",
          "internalType": "uint256"
        }
      ],
      "outputs": [],
      "stateMutability": "nonpayable"
    },
    {
      "type": "function",
      "name": "pendingOwner",
      "inputs": [],
      "outputs": [
        {
          "name": "",
          "type": "address",
          "internalType": "address"
        }
      ],
      "stateMutability": "view"
    },
    {
      "type": "function",
      "name": "prepareUnwindContract",
      "inputs": [
        {
          "name": "perpId",
          "type": "uint256",
          "internalType": "uint256"
        }
      ],
      "outputs": [],
      "stateMutability": "nonpayable"
    },
    {
      "type": "function",
      "name": "proxiableUUID",
      "inputs": [],
      "outputs": [
        {
          "name": "",
          "type": "bytes32",
          "internalType": "bytes32"
        }
      ],
      "stateMutability": "view"
    },
    {
      "type": "function",
      "name": "removeContract",
      "inputs": [
        {
          "name": "perpId",
          "type": "uint256",
          "internalType": "uint256"
        }
      ],
      "outputs": [],
      "stateMutability": "nonpayable"
    },
    {
      "type": "function",
      "name": "renounceOwnership",
      "inputs": [],
      "outputs": [],
      "stateMutability": "nonpayable"
    },
    {
      "type": "function",
      "name": "requestDecreasePositionCollateral",
      "inputs": [
        {
          "name": "perpId",
          "type": "uint256",
          "internalType": "uint256"
        },
        {
          "name": "amountCNS",
          "type": "uint256",
          "internalType": "uint256"
        },
        {
          "name": "clampToMaximum",
          "type": "bool",
          "internalType": "bool"
        }
      ],
      "outputs": [],
      "stateMutability": "nonpayable"
    },
    {
      "type": "function",
      "name": "setAddressBlockStatus",
      "inputs": [
        {
          "name": "addresses",
          "type": "address[]",
          "internalType": "address[]"
        },
        {
          "name": "blocked",
          "type": "bool",
          "internalType": "bool"
        }
      ],
      "outputs": [],
      "stateMutability": "nonpayable"
    },
    {
      "type": "function",
      "name": "setAddressWhitelisted",
      "inputs": [
        {
          "name": "addresses",
          "type": "address[]",
          "internalType": "address[]"
        },
        {
          "name": "whitelisted_",
          "type": "bool",
          "internalType": "bool"
        }
      ],
      "outputs": [],
      "stateMutability": "nonpayable"
    },
    {
      "type": "function",
      "name": "setAdministrator",
      "inputs": [
        {
          "name": "administrator",
          "type": "address",
          "internalType": "address"
        },
        {
          "name": "add",
          "type": "bool",
          "internalType": "bool"
        }
      ],
      "outputs": [],
      "stateMutability": "nonpayable"
    },
    {
      "type": "function",
      "name": "setBuyToLiquidateBuyerRestriction",
      "inputs": [
        {
          "name": "perpId",
          "type": "uint256",
          "internalType": "uint256"
        },
        {
          "name": "restrictBuyers",
          "type": "bool",
          "internalType": "bool"
        }
      ],
      "outputs": [],
      "stateMutability": "nonpayable"
    },
    {
      "type": "function",
      "name": "setBuyToLiquidateParams",
      "inputs": [
        {
          "name": "perpId",
          "type": "uint256",
          "internalType": "uint256"
        },
        {
          "name": "insAmtPer100K",
          "type": "uint256",
          "internalType": "uint256"
        },
        {
          "name": "userAmtPer100K",
          "type": "uint256",
          "internalType": "uint256"
        },
        {
          "name": "buyerAmtPer100K",
          "type": "uint256",
          "internalType": "uint256"
        }
      ],
      "outputs": [],
      "stateMutability": "nonpayable"
    },
    {
      "type": "function",
      "name": "setBuyToLiquidatePriceThreshold",
      "inputs": [
        {
          "name": "perpId",
          "type": "uint256",
          "internalType": "uint256"
        },
        {
          "name": "thresholdPer100K",
          "type": "uint256",
          "internalType": "uint256"
        }
      ],
      "outputs": [],
      "stateMutability": "nonpayable"
    },
    {
      "type": "function",
      "name": "setContractPaused",
      "inputs": [
        {
          "name": "perpId",
          "type": "uint256",
          "internalType": "uint256"
        },
        {
          "name": "paused",
          "type": "bool",
          "internalType": "bool"
        }
      ],
      "outputs": [],
      "stateMutability": "nonpayable"
    },
    {
      "type": "function",
      "name": "setDcpBorrowThreshold",
      "inputs": [
        {
          "name": "perpId",
          "type": "uint256",
          "internalType": "uint256"
        },
        {
          "name": "threshHdths",
          "type": "uint256",
          "internalType": "uint256"
        }
      ],
      "outputs": [],
      "stateMutability": "nonpayable"
    },
    {
      "type": "function",
      "name": "setExchangeHalted",
      "inputs": [
        {
          "name": "halted",
          "type": "bool",
          "internalType": "bool"
        }
      ],
      "outputs": [],
      "stateMutability": "nonpayable"
    },
    {
      "type": "function",
      "name": "setFeeParams",
      "inputs": [
        {
          "name": "perpId",
          "type": "uint256",
          "internalType": "uint256"
        },
        {
          "name": "insAmtPer100K",
          "type": "uint256",
          "internalType": "uint256"
        }
      ],
      "outputs": [],
      "stateMutability": "nonpayable"
    },
    {
      "type": "function",
      "name": "setFreezeStatus",
      "inputs": [
        {
          "name": "account",
          "type": "address",
          "internalType": "address"
        },
        {
          "name": "status",
          "type": "uint8",
          "internalType": "enum FreezeStatusEnum"
        }
      ],
      "outputs": [],
      "stateMutability": "nonpayable"
    },
    {
      "type": "function",
      "name": "setFrozen",
      "inputs": [
        {
          "name": "account",
          "type": "address",
          "internalType": "address"
        },
        {
          "name": "status",
          "type": "uint8",
          "internalType": "enum FreezeStatusEnum"
        }
      ],
      "outputs": [],
      "stateMutability": "nonpayable"
    },
    {
      "type": "function",
      "name": "setFundingClampPct",
      "inputs": [
        {
          "name": "perpId",
          "type": "uint256",
          "internalType": "uint256"
        },
        {
          "name": "absFundingClampPctPer100K",
          "type": "uint256",
          "internalType": "uint256"
        }
      ],
      "outputs": [],
      "stateMutability": "nonpayable"
    },
    {
      "type": "function",
      "name": "setFundingSum",
      "inputs": [
        {
          "name": "perpId",
          "type": "uint256",
          "internalType": "uint256"
        },
        {
          "name": "fundingRatePct100k",
          "type": "int256",
          "internalType": "int256"
        },
        {
          "name": "pricePNS",
          "type": "uint32",
          "internalType": "uint32"
        },
        {
          "name": "allowOverwrite",
          "type": "bool",
          "internalType": "bool"
        },
        {
          "name": "revertOnFail",
          "type": "bool",
          "internalType": "bool"
        }
      ],
      "outputs": [],
      "stateMutability": "nonpayable"
    },
    {
      "type": "function",
      "name": "setFundingSumScalingExp",
      "inputs": [
        {
          "name": "perpId",
          "type": "uint256",
          "internalType": "uint256"
        },
        {
          "name": "fundingSumScalingExp",
          "type": "uint256",
          "internalType": "uint256"
        }
      ],
      "outputs": [],
      "stateMutability": "nonpayable"
    },
    {
      "type": "function",
      "name": "setIgnOracle",
      "inputs": [
        {
          "name": "perpId",
          "type": "uint256",
          "internalType": "uint256"
        },
        {
          "name": "ignOracle",
          "type": "bool",
          "internalType": "bool"
        }
      ],
      "outputs": [],
      "stateMutability": "nonpayable"
    },
    {
      "type": "function",
      "name": "setInitialMarginFraction",
      "inputs": [
        {
          "name": "perpId",
          "type": "uint256",
          "internalType": "uint256"
        },
        {
          "name": "initMarginFracHdths",
          "type": "uint256",
          "internalType": "uint256"
        }
      ],
      "outputs": [],
      "stateMutability": "nonpayable"
    },
    {
      "type": "function",
      "name": "setLastForwardedDescId",
      "inputs": [
        {
          "name": "accountId",
          "type": "uint256",
          "internalType": "uint256"
        },
        {
          "name": "newDescId",
          "type": "uint256",
          "internalType": "uint256"
        }
      ],
      "outputs": [],
      "stateMutability": "nonpayable"
    },
    {
      "type": "function",
      "name": "setLastForwardedDescIdAsOwner",
      "inputs": [
        {
          "name": "accountId",
          "type": "uint256",
          "internalType": "uint256"
        },
        {
          "name": "newDescId",
          "type": "uint256",
          "internalType": "uint256"
        }
      ],
      "outputs": [],
      "stateMutability": "nonpayable"
    },
    {
      "type": "function",
      "name": "setLastTriggeredDescId",
      "inputs": [
        {
          "name": "accountId",
          "type": "uint256",
          "internalType": "uint256"
        },
        {
          "name": "newDescId",
          "type": "uint256",
          "internalType": "uint256"
        }
      ],
      "outputs": [],
      "stateMutability": "nonpayable"
    },
    {
      "type": "function",
      "name": "setLastTriggeredDescIdAsOwner",
      "inputs": [
        {
          "name": "accountId",
          "type": "uint256",
          "internalType": "uint256"
        },
        {
          "name": "newDescId",
          "type": "uint256",
          "internalType": "uint256"
        }
      ],
      "outputs": [],
      "stateMutability": "nonpayable"
    },
    {
      "type": "function",
      "name": "setLinkDsVerifier",
      "inputs": [
        {
          "name": "verifierProxy",
          "type": "address",
          "internalType": "address"
        }
      ],
      "outputs": [],
      "stateMutability": "nonpayable"
    },
    {
      "type": "function",
      "name": "setLiquidationBuyer",
      "inputs": [
        {
          "name": "liquidationBuyer",
          "type": "address",
          "internalType": "address"
        },
        {
          "name": "add",
          "type": "bool",
          "internalType": "bool"
        }
      ],
      "outputs": [],
      "stateMutability": "nonpayable"
    },
    {
      "type": "function",
      "name": "setLiquidationParams",
      "inputs": [
        {
          "name": "perpId",
          "type": "uint256",
          "internalType": "uint256"
        },
        {
          "name": "insAmtPer100K",
          "type": "uint256",
          "internalType": "uint256"
        },
        {
          "name": "userAmtPer100K",
          "type": "uint256",
          "internalType": "uint256"
        }
      ],
      "outputs": [],
      "stateMutability": "nonpayable"
    },
    {
      "type": "function",
      "name": "setMaintenanceMarginFraction",
      "inputs": [
        {
          "name": "perpId",
          "type": "uint256",
          "internalType": "uint256"
        },
        {
          "name": "maintMarginFracHdths",
          "type": "uint256",
          "internalType": "uint256"
        }
      ],
      "outputs": [],
      "stateMutability": "nonpayable"
    },
    {
      "type": "function",
      "name": "setMakerFee",
      "inputs": [
        {
          "name": "perpId",
          "type": "uint256",
          "internalType": "uint256"
        },
        {
          "name": "makerFeePer100K",
          "type": "uint256",
          "internalType": "uint256"
        }
      ],
      "outputs": [],
      "stateMutability": "nonpayable"
    },
    {
      "type": "function",
      "name": "setMarginTol",
      "inputs": [
        {
          "name": "perpId",
          "type": "uint256",
          "internalType": "uint256"
        },
        {
          "name": "tolerance",
          "type": "uint256",
          "internalType": "uint256"
        },
        {
          "name": "decimals",
          "type": "uint256",
          "internalType": "uint256"
        }
      ],
      "outputs": [],
      "stateMutability": "nonpayable"
    },
    {
      "type": "function",
      "name": "setMaxOpenInterest",
      "inputs": [
        {
          "name": "perpId",
          "type": "uint256",
          "internalType": "uint256"
        },
        {
          "name": "maxOpenInterestLNS",
          "type": "uint256",
          "internalType": "uint256"
        }
      ],
      "outputs": [],
      "stateMutability": "nonpayable"
    },
    {
      "type": "function",
      "name": "setMinAccountOpenAmount",
      "inputs": [
        {
          "name": "amountCNS",
          "type": "uint256",
          "internalType": "uint256"
        }
      ],
      "outputs": [],
      "stateMutability": "nonpayable"
    },
    {
      "type": "function",
      "name": "setMinPost",
      "inputs": [
        {
          "name": "minPostCNS",
          "type": "uint256",
          "internalType": "uint256"
        }
      ],
      "outputs": [],
      "stateMutability": "nonpayable"
    },
    {
      "type": "function",
      "name": "setMinSettle",
      "inputs": [
        {
          "name": "minSettleCNS",
          "type": "uint256",
          "internalType": "uint256"
        }
      ],
      "outputs": [],
      "stateMutability": "nonpayable"
    },
    {
      "type": "function",
      "name": "setMinWithdrawLimit",
      "inputs": [
        {
          "name": "limitCNS",
          "type": "uint256",
          "internalType": "uint256"
        }
      ],
      "outputs": [],
      "stateMutability": "nonpayable"
    },
    {
      "type": "function",
      "name": "setMonitorAdministrator",
      "inputs": [
        {
          "name": "monitorAdministrator",
          "type": "address",
          "internalType": "address"
        },
        {
          "name": "add",
          "type": "bool",
          "internalType": "bool"
        }
      ],
      "outputs": [],
      "stateMutability": "nonpayable"
    },
    {
      "type": "function",
      "name": "setOverCollatDescentThreshold",
      "inputs": [
        {
          "name": "perpId",
          "type": "uint256",
          "internalType": "uint256"
        },
        {
          "name": "threshHdths",
          "type": "uint256",
          "internalType": "uint256"
        }
      ],
      "outputs": [],
      "stateMutability": "nonpayable"
    },
    {
      "type": "function",
      "name": "setPermissionedCancelParams",
      "inputs": [
        {
          "name": "perpId",
          "type": "uint256",
          "internalType": "uint256"
        },
        {
          "name": "permCancelMinOrders",
          "type": "uint256",
          "internalType": "uint256"
        },
        {
          "name": "permCancelSegment",
          "type": "uint256",
          "internalType": "uint256"
        }
      ],
      "outputs": [],
      "stateMutability": "nonpayable"
    },
    {
      "type": "function",
      "name": "setPerpLinkDsFeedId",
      "inputs": [
        {
          "name": "perpId",
          "type": "uint256",
          "internalType": "uint256"
        },
        {
          "name": "feedId",
          "type": "bytes32",
          "internalType": "bytes32"
        }
      ],
      "outputs": [],
      "stateMutability": "nonpayable"
    },
    {
      "type": "function",
      "name": "setPositionAdministrator",
      "inputs": [
        {
          "name": "positionAdministrator",
          "type": "address",
          "internalType": "address"
        },
        {
          "name": "add",
          "type": "bool",
          "internalType": "bool"
        }
      ],
      "outputs": [],
      "stateMutability": "nonpayable"
    },
    {
      "type": "function",
      "name": "setPriceAdministrator",
      "inputs": [
        {
          "name": "priceAdministrator",
          "type": "address",
          "internalType": "address"
        },
        {
          "name": "add",
          "type": "bool",
          "internalType": "bool"
        }
      ],
      "outputs": [],
      "stateMutability": "nonpayable"
    },
    {
      "type": "function",
      "name": "setPriceMaxAge",
      "inputs": [
        {
          "name": "perpId",
          "type": "uint256",
          "internalType": "uint256"
        },
        {
          "name": "maxAgeSec",
          "type": "uint256",
          "internalType": "uint256"
        }
      ],
      "outputs": [],
      "stateMutability": "nonpayable"
    },
    {
      "type": "function",
      "name": "setPriceTolPer100K",
      "inputs": [
        {
          "name": "perpId",
          "type": "uint256",
          "internalType": "uint256"
        },
        {
          "name": "tolerancePer100K",
          "type": "uint256",
          "internalType": "uint256"
        }
      ],
      "outputs": [],
      "stateMutability": "nonpayable"
    },
    {
      "type": "function",
      "name": "setPriceTolPer100KByOwner",
      "inputs": [
        {
          "name": "perpId",
          "type": "uint256",
          "internalType": "uint256"
        },
        {
          "name": "tolerancePer100K",
          "type": "uint256",
          "internalType": "uint256"
        }
      ],
      "outputs": [],
      "stateMutability": "nonpayable"
    },
    {
      "type": "function",
      "name": "setRecycleFee",
      "inputs": [
        {
          "name": "recycleFeeCNS",
          "type": "uint256",
          "internalType": "uint256"
        }
      ],
      "outputs": [],
      "stateMutability": "nonpayable"
    },
    {
      "type": "function",
      "name": "setTakerFee",
      "inputs": [
        {
          "name": "perpId",
          "type": "uint256",
          "internalType": "uint256"
        },
        {
          "name": "takerFeePer100K",
          "type": "uint256",
          "internalType": "uint256"
        }
      ],
      "outputs": [],
      "stateMutability": "nonpayable"
    },
    {
      "type": "function",
      "name": "setThousandthsTvlWRLS",
      "inputs": [
        {
          "name": "thousandthsTvl",
          "type": "uint256",
          "internalType": "uint256"
        }
      ],
      "outputs": [],
      "stateMutability": "nonpayable"
    },
    {
      "type": "function",
      "name": "setToleranceAdministrator",
      "inputs": [
        {
          "name": "toleranceAdministrator",
          "type": "address",
          "internalType": "address"
        },
        {
          "name": "add",
          "type": "bool",
          "internalType": "bool"
        }
      ],
      "outputs": [],
      "stateMutability": "nonpayable"
    },
    {
      "type": "function",
      "name": "setUnityDescentThreshold",
      "inputs": [
        {
          "name": "perpId",
          "type": "uint256",
          "internalType": "uint256"
        },
        {
          "name": "threshHdths",
          "type": "uint256",
          "internalType": "uint256"
        }
      ],
      "outputs": [],
      "stateMutability": "nonpayable"
    },
    {
      "type": "function",
      "name": "setWhitelistingEnabled",
      "inputs": [
        {
          "name": "enabled",
          "type": "bool",
          "internalType": "bool"
        }
      ],
      "outputs": [],
      "stateMutability": "nonpayable"
    },
    {
      "type": "function",
      "name": "setWithdrawBypass",
      "inputs": [
        {
          "name": "addr",
          "type": "address",
          "internalType": "address"
        },
        {
          "name": "enabled",
          "type": "bool",
          "internalType": "bool"
        }
      ],
      "outputs": [],
      "stateMutability": "nonpayable"
    },
    {
      "type": "function",
      "name": "transferOwnership",
      "inputs": [
        {
          "name": "newOwner",
          "type": "address",
          "internalType": "address"
        }
      ],
      "outputs": [],
      "stateMutability": "nonpayable"
    },
    {
      "type": "function",
      "name": "triggerUnwindContract",
      "inputs": [
        {
          "name": "perpId",
          "type": "uint256",
          "internalType": "uint256"
        }
      ],
      "outputs": [],
      "stateMutability": "nonpayable"
    },
    {
      "type": "function",
      "name": "unwindContract",
      "inputs": [
        {
          "name": "perpId",
          "type": "uint256",
          "internalType": "uint256"
        },
        {
          "name": "maxPosToUnwind",
          "type": "uint256",
          "internalType": "uint256"
        },
        {
          "name": "allowWithoutPayment",
          "type": "bool",
          "internalType": "bool"
        }
      ],
      "outputs": [],
      "stateMutability": "nonpayable"
    },
    {
      "type": "function",
      "name": "unwindContractByOwner",
      "inputs": [
        {
          "name": "perpId",
          "type": "uint256",
          "internalType": "uint256"
        },
        {
          "name": "maxPosToUnwind",
          "type": "uint256",
          "internalType": "uint256"
        },
        {
          "name": "allowWithoutPayment",
          "type": "bool",
          "internalType": "bool"
        }
      ],
      "outputs": [],
      "stateMutability": "nonpayable"
    },
    {
      "type": "function",
      "name": "updateMarkPricePNS",
      "inputs": [
        {
          "name": "perpId",
          "type": "uint256",
          "internalType": "uint256"
        },
        {
          "name": "markPricePNS",
          "type": "uint32",
          "internalType": "uint32"
        }
      ],
      "outputs": [],
      "stateMutability": "nonpayable"
    },
    {
      "type": "function",
      "name": "updateMarkPricePNSByOwner",
      "inputs": [
        {
          "name": "perpId",
          "type": "uint256",
          "internalType": "uint256"
        },
        {
          "name": "markPricePNS",
          "type": "uint32",
          "internalType": "uint32"
        }
      ],
      "outputs": [],
      "stateMutability": "nonpayable"
    },
    {
      "type": "function",
      "name": "updateOraclePrice",
      "inputs": [
        {
          "name": "perpId",
          "type": "uint256",
          "internalType": "uint256"
        },
        {
          "name": "unverifiedReport",
          "type": "bytes",
          "internalType": "bytes"
        }
      ],
      "outputs": [],
      "stateMutability": "nonpayable"
    },
    {
      "type": "function",
      "name": "upgradeTo",
      "inputs": [
        {
          "name": "newImplementation",
          "type": "address",
          "internalType": "address"
        }
      ],
      "outputs": [],
      "stateMutability": "nonpayable"
    },
    {
      "type": "function",
      "name": "upgradeToAndCall",
      "inputs": [
        {
          "name": "newImplementation",
          "type": "address",
          "internalType": "address"
        },
        {
          "name": "data",
          "type": "bytes",
          "internalType": "bytes"
        }
      ],
      "outputs": [],
      "stateMutability": "payable"
    },
    {
      "type": "function",
      "name": "whitelisted",
      "inputs": [
        {
          "name": "",
          "type": "address",
          "internalType": "address"
        }
      ],
      "outputs": [
        {
          "name": "",
          "type": "bool",
          "internalType": "bool"
        }
      ],
      "stateMutability": "view"
    },
    {
      "type": "function",
      "name": "whitelistingEnabled",
      "inputs": [],
      "outputs": [
        {
          "name": "",
          "type": "bool",
          "internalType": "bool"
        }
      ],
      "stateMutability": "view"
    },
    {
      "type": "function",
      "name": "withdrawCollateral",
      "inputs": [
        {
          "name": "amountCNS",
          "type": "uint256",
          "internalType": "uint256"
        }
      ],
      "outputs": [],
      "stateMutability": "nonpayable"
    },
    {
      "type": "function",
      "name": "withdrawFromProtocol",
      "inputs": [
        {
          "name": "amountCNS",
          "type": "uint256",
          "internalType": "uint256"
        }
      ],
      "outputs": [],
      "stateMutability": "nonpayable"
    },
    {
      "type": "function",
      "name": "xferAcctToProtocol",
      "inputs": [
        {
          "name": "amountCNS",
          "type": "uint256",
          "internalType": "uint256"
        }
      ],
      "outputs": [],
      "stateMutability": "nonpayable"
    },
    {
      "type": "function",
      "name": "xferPerpInsToProtocol",
      "inputs": [
        {
          "name": "perpId",
          "type": "uint256",
          "internalType": "uint256"
        },
        {
          "name": "amountCNS",
          "type": "uint256",
          "internalType": "uint256"
        }
      ],
      "outputs": [],
      "stateMutability": "nonpayable"
    },
    {
      "type": "function",
      "name": "xferProtocolToAcct",
      "inputs": [
        {
          "name": "accountId",
          "type": "uint256",
          "internalType": "uint256"
        },
        {
          "name": "amountCNS",
          "type": "uint256",
          "internalType": "uint256"
        }
      ],
      "outputs": [],
      "stateMutability": "nonpayable"
    },
    {
      "type": "function",
      "name": "xferProtocolToPerp",
      "inputs": [
        {
          "name": "perpId",
          "type": "uint256",
          "internalType": "uint256"
        },
        {
          "name": "amountCNS",
          "type": "uint256",
          "internalType": "uint256"
        },
        {
          "name": "insurance",
          "type": "bool",
          "internalType": "bool"
        }
      ],
      "outputs": [],
      "stateMutability": "nonpayable"
    },
    {
      "type": "function",
      "name": "xferProtocolToRecycleBal",
      "inputs": [
        {
          "name": "amountCNS",
          "type": "uint256",
          "internalType": "uint256"
        }
      ],
      "outputs": [],
      "stateMutability": "nonpayable"
    },
    {
      "type": "event",
      "name": "AccountCreated",
      "inputs": [
        {
          "name": "account",
          "type": "address",
          "indexed": false,
          "internalType": "address"
        },
        {
          "name": "id",
          "type": "uint256",
          "indexed": false,
          "internalType": "uint256"
        }
      ],
      "anonymous": false
    },
    {
      "type": "event",
      "name": "AccountFreeze",
      "inputs": [
        {
          "name": "accountId",
          "type": "uint256",
          "indexed": false,
          "internalType": "uint256"
        },
        {
          "name": "status",
          "type": "uint8",
          "indexed": false,
          "internalType": "enum FreezeStatusEnum"
        }
      ],
      "anonymous": false
    },
    {
      "type": "event",
      "name": "AccountFrozen",
      "inputs": [
        {
          "name": "status",
          "type": "uint8",
          "indexed": false,
          "internalType": "enum FreezeStatusEnum"
        }
      ],
      "anonymous": false
    },
    {
      "type": "event",
      "name": "AccountLiquidationCredit",
      "inputs": [
        {
          "name": "perpId",
          "type": "uint256",
          "indexed": false,
          "internalType": "uint256"
        },
        {
          "name": "accountId",
          "type": "uint256",
          "indexed": false,
          "internalType": "uint256"
        },
        {
          "name": "startBalanceCNS",
          "type": "uint256",
          "indexed": false,
          "internalType": "uint256"
        },
        {
          "name": "endBalanceCNS",
          "type": "uint256",
          "indexed": false,
          "internalType": "uint256"
        }
      ],
      "anonymous": false
    },
    {
      "type": "event",
      "name": "AdminChanged",
      "inputs": [
        {
          "name": "previousAdmin",
          "type": "address",
          "indexed": false,
          "internalType": "address"
        },
        {
          "name": "newAdmin",
          "type": "address",
          "indexed": false,
          "internalType": "address"
        }
      ],
      "anonymous": false
    },
    {
      "type": "event",
      "name": "AdministratorUpdated",
      "inputs": [
        {
          "name": "administrator",
          "type": "address",
          "indexed": false,
          "internalType": "address"
        },
        {
          "name": "added",
          "type": "bool",
          "indexed": false,
          "internalType": "bool"
        }
      ],
      "anonymous": false
    },
    {
      "type": "event",
      "name": "AmountExceedsAvailableBalance",
      "inputs": [
        {
          "name": "amountCNS",
          "type": "uint256",
          "indexed": false,
          "internalType": "uint256"
        },
        {
          "name": "availableBalanceCNS",
          "type": "uint256",
          "indexed": false,
          "internalType": "uint256"
        },
        {
          "name": "balanceCNS",
          "type": "uint256",
          "indexed": false,
          "internalType": "uint256"
        }
      ],
      "anonymous": false
    },
    {
      "type": "event",
      "name": "BankruptcyPricePreventsDeleverage",
      "inputs": [
        {
          "name": "perpId",
          "type": "uint256",
          "indexed": false,
          "internalType": "uint256"
        },
        {
          "name": "accountId",
          "type": "uint256",
          "indexed": false,
          "internalType": "uint256"
        },
        {
          "name": "positionType",
          "type": "uint8",
          "indexed": false,
          "internalType": "enum PositionEnum"
        },
        {
          "name": "bankruptcyPricePNS",
          "type": "uint256",
          "indexed": false,
          "internalType": "uint256"
        },
        {
          "name": "markPricePNS",
          "type": "uint256",
          "indexed": false,
          "internalType": "uint256"
        }
      ],
      "anonymous": false
    },
    {
      "type": "event",
      "name": "BeaconUpgraded",
      "inputs": [
        {
          "name": "beacon",
          "type": "address",
          "indexed": true,
          "internalType": "address"
        }
      ],
      "anonymous": false
    },
    {
      "type": "event",
      "name": "BlockStatusChanged",
      "inputs": [
        {
          "name": "addr",
          "type": "address",
          "indexed": true,
          "internalType": "address"
        },
        {
          "name": "blocked",
          "type": "bool",
          "indexed": false,
          "internalType": "bool"
        }
      ],
      "anonymous": false
    },
    {
      "type": "event",
      "name": "BorrowMarginNotMetAfterDecCollateral",
      "inputs": [
        {
          "name": "perpId",
          "type": "uint256",
          "indexed": false,
          "internalType": "uint256"
        },
        {
          "name": "accountId",
          "type": "uint256",
          "indexed": false,
          "internalType": "uint256"
        },
        {
          "name": "bmrCNS",
          "type": "int256",
          "indexed": false,
          "internalType": "int256"
        },
        {
          "name": "fmvAfterCNS",
          "type": "int256",
          "indexed": false,
          "internalType": "int256"
        }
      ],
      "anonymous": false
    },
    {
      "type": "event",
      "name": "BuyToLiquidateBuyerRestricted",
      "inputs": [
        {
          "name": "perpId",
          "type": "uint256",
          "indexed": false,
          "internalType": "uint256"
        },
        {
          "name": "buyer",
          "type": "address",
          "indexed": false,
          "internalType": "address"
        }
      ],
      "anonymous": false
    },
    {
      "type": "event",
      "name": "BuyToLiquidateParamsUpdated",
      "inputs": [
        {
          "name": "perpId",
          "type": "uint256",
          "indexed": false,
          "internalType": "uint256"
        },
        {
          "name": "insAmtPer100K",
          "type": "uint256",
          "indexed": false,
          "internalType": "uint256"
        },
        {
          "name": "userAmtPer100K",
          "type": "uint256",
          "indexed": false,
          "internalType": "uint256"
        },
        {
          "name": "buyerAmtPer100K",
          "type": "uint256",
          "indexed": false,
          "internalType": "uint256"
        },
        {
          "name": "protAmtPer100K",
          "type": "uint256",
          "indexed": false,
          "internalType": "uint256"
        }
      ],
      "anonymous": false
    },
    {
      "type": "event",
      "name": "BuyToLiquidateRestrictionUpdated",
      "inputs": [
        {
          "name": "perpId",
          "type": "uint256",
          "indexed": false,
          "internalType": "uint256"
        },
        {
          "name": "restrictBuyers",
          "type": "bool",
          "indexed": false,
          "internalType": "bool"
        }
      ],
      "anonymous": false
    },
    {
      "type": "event",
      "name": "BuyToLiquidateSlippageExceeded",
      "inputs": [
        {
          "name": "perpId",
          "type": "uint256",
          "indexed": false,
          "internalType": "uint256"
        },
        {
          "name": "posAccountId",
          "type": "uint256",
          "indexed": false,
          "internalType": "uint256"
        },
        {
          "name": "positionType",
          "type": "uint8",
          "indexed": false,
          "internalType": "enum PositionEnum"
        },
        {
          "name": "markPricePNS",
          "type": "uint256",
          "indexed": false,
          "internalType": "uint256"
        },
        {
          "name": "limitPricePNS",
          "type": "uint256",
          "indexed": false,
          "internalType": "uint256"
        }
      ],
      "anonymous": false
    },
    {
      "type": "event",
      "name": "BuyToLiquidateThresholdUpdated",
      "inputs": [
        {
          "name": "perpId",
          "type": "uint256",
          "indexed": false,
          "internalType": "uint256"
        },
        {
          "name": "thresholdPer100K",
          "type": "uint256",
          "indexed": false,
          "internalType": "uint256"
        }
      ],
      "anonymous": false
    },
    {
      "type": "event",
      "name": "CancelExistingInvalidCloseOrders",
      "inputs": [
        {
          "name": "lockedLotLNS",
          "type": "uint256",
          "indexed": false,
          "internalType": "uint256"
        },
        {
          "name": "lockedPositionType",
          "type": "uint8",
          "indexed": false,
          "internalType": "enum PositionEnum"
        },
        {
          "name": "newPositionType",
          "type": "uint8",
          "indexed": false,
          "internalType": "enum PositionEnum"
        }
      ],
      "anonymous": false
    },
    {
      "type": "event",
      "name": "CannotAdjustEntryPriceToDecCollateral",
      "inputs": [
        {
          "name": "perpId",
          "type": "uint256",
          "indexed": false,
          "internalType": "uint256"
        },
        {
          "name": "accountId",
          "type": "uint256",
          "indexed": false,
          "internalType": "uint256"
        },
        {
          "name": "amountCNS",
          "type": "uint256",
          "indexed": false,
          "internalType": "uint256"
        },
        {
          "name": "adjustmentAmountCNS",
          "type": "uint256",
          "indexed": false,
          "internalType": "uint256"
        },
        {
          "name": "entryPricePNS",
          "type": "uint256",
          "indexed": false,
          "internalType": "uint256"
        },
        {
          "name": "adjustedEntryPricePNS",
          "type": "int256",
          "indexed": false,
          "internalType": "int256"
        },
        {
          "name": "positionType",
          "type": "uint8",
          "indexed": false,
          "internalType": "enum PositionEnum"
        }
      ],
      "anonymous": false
    },
    {
      "type": "event",
      "name": "CantBuyToLiquidate",
      "inputs": [
        {
          "name": "perpId",
          "type": "uint256",
          "indexed": false,
          "internalType": "uint256"
        },
        {
          "name": "posAccountId",
          "type": "uint256",
          "indexed": false,
          "internalType": "uint256"
        },
        {
          "name": "positionType",
          "type": "uint8",
          "indexed": false,
          "internalType": "enum PositionEnum"
        },
        {
          "name": "markPricePNS",
          "type": "uint256",
          "indexed": false,
          "internalType": "uint256"
        },
        {
          "name": "bsLiqPricePNS",
          "type": "uint256",
          "indexed": false,
          "internalType": "uint256"
        },
        {
          "name": "liqPricePNS",
          "type": "uint256",
          "indexed": false,
          "internalType": "uint256"
        },
        {
          "name": "bkptPricePNS",
          "type": "uint256",
          "indexed": false,
          "internalType": "uint256"
        }
      ],
      "anonymous": false
    },
    {
      "type": "event",
      "name": "CantChangeCloseOrder",
      "inputs": [
        {
          "name": "perpId",
          "type": "uint256",
          "indexed": false,
          "internalType": "uint256"
        },
        {
          "name": "orderId",
          "type": "uint256",
          "indexed": false,
          "internalType": "uint256"
        },
        {
          "name": "accountId",
          "type": "uint256",
          "indexed": false,
          "internalType": "uint256"
        }
      ],
      "anonymous": false
    },
    {
      "type": "event",
      "name": "CantDeleverageAgainstOpposingPositions",
      "inputs": [
        {
          "name": "perpId",
          "type": "uint256",
          "indexed": false,
          "internalType": "uint256"
        },
        {
          "name": "accountId",
          "type": "uint256",
          "indexed": false,
          "internalType": "uint256"
        },
        {
          "name": "forceClose",
          "type": "bool",
          "indexed": false,
          "internalType": "bool"
        },
        {
          "name": "positionType",
          "type": "uint8",
          "indexed": false,
          "internalType": "enum PositionEnum"
        },
        {
          "name": "deleveragePricePNS",
          "type": "uint256",
          "indexed": false,
          "internalType": "uint256"
        },
        {
          "name": "sortedPositionIds",
          "type": "uint256[]",
          "indexed": false,
          "internalType": "uint256[]"
        }
      ],
      "anonymous": false
    },
    {
      "type": "event",
      "name": "CantLiquidatePosAboveMMR",
      "inputs": [
        {
          "name": "perpId",
          "type": "uint256",
          "indexed": false,
          "internalType": "uint256"
        },
        {
          "name": "posAccountId",
          "type": "uint256",
          "indexed": false,
          "internalType": "uint256"
        },
        {
          "name": "positionType",
          "type": "uint8",
          "indexed": false,
          "internalType": "enum PositionEnum"
        },
        {
          "name": "markPricePNS",
          "type": "uint256",
          "indexed": false,
          "internalType": "uint256"
        },
        {
          "name": "liqPricePNS",
          "type": "uint256",
          "indexed": false,
          "internalType": "uint256"
        }
      ],
      "anonymous": false
    },
    {
      "type": "event",
      "name": "ChangeExpiredOrderNeedsNewExpiry",
      "inputs": [
        {
          "name": "perpId",
          "type": "uint256",
          "indexed": false,
          "internalType": "uint256"
        },
        {
          "name": "orderId",
          "type": "uint256",
          "indexed": false,
          "internalType": "uint256"
        },
        {
          "name": "accountId",
          "type": "uint256",
          "indexed": false,
          "internalType": "uint256"
        },
        {
          "name": "expiryBlock",
          "type": "uint256",
          "indexed": false,
          "internalType": "uint256"
        }
      ],
      "anonymous": false
    },
    {
      "type": "event",
      "name": "ClearingExpiredOrder",
      "inputs": [
        {
          "name": "perpId",
          "type": "uint256",
          "indexed": false,
          "internalType": "uint256"
        },
        {
          "name": "accountId",
          "type": "uint256",
          "indexed": false,
          "internalType": "uint256"
        },
        {
          "name": "orderId",
          "type": "uint256",
          "indexed": false,
          "internalType": "uint256"
        },
        {
          "name": "lockedBalanceCNS",
          "type": "uint256",
          "indexed": false,
          "internalType": "uint256"
        },
        {
          "name": "recyclerAccountId",
          "type": "uint256",
          "indexed": false,
          "internalType": "uint256"
        },
        {
          "name": "recyclerAmountCNS",
          "type": "int256",
          "indexed": false,
          "internalType": "int256"
        },
        {
          "name": "recyclerBalanceCNS",
          "type": "uint256",
          "indexed": false,
          "internalType": "uint256"
        }
      ],
      "anonymous": false
    },
    {
      "type": "event",
      "name": "ClearingFrozenAccountOrder",
      "inputs": [
        {
          "name": "perpId",
          "type": "uint256",
          "indexed": false,
          "internalType": "uint256"
        },
        {
          "name": "accountId",
          "type": "uint256",
          "indexed": false,
          "internalType": "uint256"
        },
        {
          "name": "orderId",
          "type": "uint256",
          "indexed": false,
          "internalType": "uint256"
        },
        {
          "name": "lockedBalanceCNS",
          "type": "uint256",
          "indexed": false,
          "internalType": "uint256"
        },
        {
          "name": "recyclerAccountId",
          "type": "uint256",
          "indexed": false,
          "internalType": "uint256"
        },
        {
          "name": "recyclerAmountCNS",
          "type": "int256",
          "indexed": false,
          "internalType": "int256"
        },
        {
          "name": "recyclerBalanceCNS",
          "type": "uint256",
          "indexed": false,
          "internalType": "uint256"
        }
      ],
      "anonymous": false
    },
    {
      "type": "event",
      "name": "ClearingInvalidCloseOrder",
      "inputs": [
        {
          "name": "perpId",
          "type": "uint256",
          "indexed": false,
          "internalType": "uint256"
        },
        {
          "name": "accountId",
          "type": "uint256",
          "indexed": false,
          "internalType": "uint256"
        },
        {
          "name": "orderId",
          "type": "uint256",
          "indexed": false,
          "internalType": "uint256"
        },
        {
          "name": "lockedBalanceCNS",
          "type": "uint256",
          "indexed": false,
          "internalType": "uint256"
        },
        {
          "name": "recyclerAccountId",
          "type": "uint256",
          "indexed": false,
          "internalType": "uint256"
        },
        {
          "name": "recyclerAmountCNS",
          "type": "int256",
          "indexed": false,
          "internalType": "int256"
        },
        {
          "name": "recyclerBalanceCNS",
          "type": "uint256",
          "indexed": false,
          "internalType": "uint256"
        }
      ],
      "anonymous": false
    },
    {
      "type": "event",
      "name": "ClearingRemainingOrderLockBeyondBalance",
      "inputs": [
        {
          "name": "perpId",
          "type": "uint256",
          "indexed": false,
          "internalType": "uint256"
        },
        {
          "name": "accountId",
          "type": "uint256",
          "indexed": false,
          "internalType": "uint256"
        },
        {
          "name": "orderId",
          "type": "uint256",
          "indexed": false,
          "internalType": "uint256"
        },
        {
          "name": "pricePNS",
          "type": "uint256",
          "indexed": false,
          "internalType": "uint256"
        },
        {
          "name": "remainingLotLNS",
          "type": "uint256",
          "indexed": false,
          "internalType": "uint256"
        },
        {
          "name": "lockedBalanceCNS",
          "type": "uint256",
          "indexed": false,
          "internalType": "uint256"
        },
        {
          "name": "excessiveLockedBalCNS",
          "type": "uint256",
          "indexed": false,
          "internalType": "uint256"
        },
        {
          "name": "recyclerAccountId",
          "type": "uint256",
          "indexed": false,
          "internalType": "uint256"
        },
        {
          "name": "recyclerAmountCNS",
          "type": "int256",
          "indexed": false,
          "internalType": "int256"
        },
        {
          "name": "recyclerBalanceCNS",
          "type": "uint256",
          "indexed": false,
          "internalType": "uint256"
        }
      ],
      "anonymous": false
    },
    {
      "type": "event",
      "name": "ClearingSelfMatchingOrder",
      "inputs": [
        {
          "name": "perpId",
          "type": "uint256",
          "indexed": false,
          "internalType": "uint256"
        },
        {
          "name": "accountId",
          "type": "uint256",
          "indexed": false,
          "internalType": "uint256"
        },
        {
          "name": "orderId",
          "type": "uint256",
          "indexed": false,
          "internalType": "uint256"
        },
        {
          "name": "lockedBalanceCNS",
          "type": "uint256",
          "indexed": false,
          "internalType": "uint256"
        },
        {
          "name": "recyclerAccountId",
          "type": "uint256",
          "indexed": false,
          "internalType": "uint256"
        },
        {
          "name": "recyclerAmountCNS",
          "type": "int256",
          "indexed": false,
          "internalType": "int256"
        },
        {
          "name": "recyclerBalanceCNS",
          "type": "uint256",
          "indexed": false,
          "internalType": "uint256"
        }
      ],
      "anonymous": false
    },
    {
      "type": "event",
      "name": "CloseOrderExceedsPosition",
      "inputs": [
        {
          "name": "posLotLNS",
          "type": "uint256",
          "indexed": false,
          "internalType": "uint256"
        },
        {
          "name": "orderLotLNS",
          "type": "uint256",
          "indexed": false,
          "internalType": "uint256"
        }
      ],
      "anonymous": false
    },
    {
      "type": "event",
      "name": "CloseOrderPositionMismatch",
      "inputs": [
        {
          "name": "positionType",
          "type": "uint8",
          "indexed": false,
          "internalType": "enum PositionEnum"
        },
        {
          "name": "orderType",
          "type": "uint8",
          "indexed": false,
          "internalType": "enum OrderEnum"
        }
      ],
      "anonymous": false
    },
    {
      "type": "event",
      "name": "CollateralDecreaseDeclined",
      "inputs": [
        {
          "name": "perpId",
          "type": "uint256",
          "indexed": false,
          "internalType": "uint256"
        },
        {
          "name": "accountId",
          "type": "uint256",
          "indexed": false,
          "internalType": "uint256"
        },
        {
          "name": "reason",
          "type": "string",
          "indexed": false,
          "internalType": "string"
        }
      ],
      "anonymous": false
    },
    {
      "type": "event",
      "name": "CollateralDecreaseRequestCancelled",
      "inputs": [
        {
          "name": "perpId",
          "type": "uint256",
          "indexed": false,
          "internalType": "uint256"
        },
        {
          "name": "accountId",
          "type": "uint256",
          "indexed": false,
          "internalType": "uint256"
        }
      ],
      "anonymous": false
    },
    {
      "type": "event",
      "name": "CollateralDecreaseRequestExpired",
      "inputs": [
        {
          "name": "perpId",
          "type": "uint256",
          "indexed": false,
          "internalType": "uint256"
        },
        {
          "name": "accountId",
          "type": "uint256",
          "indexed": false,
          "internalType": "uint256"
        },
        {
          "name": "expiryTS",
          "type": "uint256",
          "indexed": false,
          "internalType": "uint256"
        },
        {
          "name": "blockTS",
          "type": "uint256",
          "indexed": false,
          "internalType": "uint256"
        }
      ],
      "anonymous": false
    },
    {
      "type": "event",
      "name": "CollateralDecreaseRequested",
      "inputs": [
        {
          "name": "perpId",
          "type": "uint256",
          "indexed": false,
          "internalType": "uint256"
        },
        {
          "name": "accountId",
          "type": "uint256",
          "indexed": false,
          "internalType": "uint256"
        },
        {
          "name": "expiryTS",
          "type": "uint256",
          "indexed": false,
          "internalType": "uint256"
        },
        {
          "name": "amountCNS",
          "type": "uint256",
          "indexed": false,
          "internalType": "uint256"
        },
        {
          "name": "clampToMaximum",
          "type": "bool",
          "indexed": false,
          "internalType": "bool"
        },
        {
          "name": "positionType",
          "type": "uint8",
          "indexed": false,
          "internalType": "enum PositionEnum"
        },
        {
          "name": "entryPricePNS",
          "type": "uint256",
          "indexed": false,
          "internalType": "uint256"
        },
        {
          "name": "lotLNS",
          "type": "uint256",
          "indexed": false,
          "internalType": "uint256"
        }
      ],
      "anonymous": false
    },
    {
      "type": "event",
      "name": "CollateralDeposit",
      "inputs": [
        {
          "name": "accountId",
          "type": "uint256",
          "indexed": false,
          "internalType": "uint256"
        },
        {
          "name": "amountCNS",
          "type": "uint256",
          "indexed": false,
          "internalType": "uint256"
        },
        {
          "name": "balanceCNS",
          "type": "uint256",
          "indexed": false,
          "internalType": "uint256"
        }
      ],
      "anonymous": false
    },
    {
      "type": "event",
      "name": "CollateralWithdrawal",
      "inputs": [
        {
          "name": "accountId",
          "type": "uint256",
          "indexed": false,
          "internalType": "uint256"
        },
        {
          "name": "amountCNS",
          "type": "uint256",
          "indexed": false,
          "internalType": "uint256"
        },
        {
          "name": "balanceCNS",
          "type": "uint256",
          "indexed": false,
          "internalType": "uint256"
        }
      ],
      "anonymous": false
    },
    {
      "type": "event",
      "name": "ContractAdded",
      "inputs": [
        {
          "name": "perpId",
          "type": "uint256",
          "indexed": false,
          "internalType": "uint256"
        },
        {
          "name": "name",
          "type": "string",
          "indexed": false,
          "internalType": "string"
        },
        {
          "name": "symbol",
          "type": "string",
          "indexed": false,
          "internalType": "string"
        },
        {
          "name": "status",
          "type": "uint8",
          "indexed": false,
          "internalType": "enum PerpStatusEnum"
        },
        {
          "name": "basePricePNS",
          "type": "uint256",
          "indexed": false,
          "internalType": "uint256"
        },
        {
          "name": "priceDecimals",
          "type": "uint256",
          "indexed": false,
          "internalType": "uint256"
        },
        {
          "name": "lotDecimals",
          "type": "uint256",
          "indexed": false,
          "internalType": "uint256"
        },
        {
          "name": "takerFeePer100K",
          "type": "uint256",
          "indexed": false,
          "internalType": "uint256"
        },
        {
          "name": "makerFeePer100K",
          "type": "uint256",
          "indexed": false,
          "internalType": "uint256"
        },
        {
          "name": "initMarginFracHdths",
          "type": "uint256",
          "indexed": false,
          "internalType": "uint256"
        },
        {
          "name": "maintMarginFracHdths",
          "type": "uint256",
          "indexed": false,
          "internalType": "uint256"
        },
        {
          "name": "maxOpenInterestLNS",
          "type": "uint256",
          "indexed": false,
          "internalType": "uint256"
        },
        {
          "name": "unityDescentThreshHdths",
          "type": "uint256",
          "indexed": false,
          "internalType": "uint256"
        },
        {
          "name": "overColDescentThreshHdths",
          "type": "uint256",
          "indexed": false,
          "internalType": "uint256"
        },
        {
          "name": "dcpBorrowThreshHdths",
          "type": "uint256",
          "indexed": false,
          "internalType": "uint256"
        },
        {
          "name": "priceTolPer100K",
          "type": "uint256",
          "indexed": false,
          "internalType": "uint256"
        },
        {
          "name": "marginTol",
          "type": "uint256",
          "indexed": false,
          "internalType": "uint256"
        },
        {
          "name": "marginTolDecimals",
          "type": "uint256",
          "indexed": false,
          "internalType": "uint256"
        },
        {
          "name": "refPriceMaxAgeSec",
          "type": "uint256",
          "indexed": false,
          "internalType": "uint256"
        },
        {
          "name": "absFundingClampPctPer100K",
          "type": "uint256",
          "indexed": false,
          "internalType": "uint256"
        },
        {
          "name": "permCancelMinOrders",
          "type": "uint256",
          "indexed": false,
          "internalType": "uint256"
        },
        {
          "name": "permCancelSegment",
          "type": "uint256",
          "indexed": false,
          "internalType": "uint256"
        },
        {
          "name": "insAmtPer100K",
          "type": "uint256",
          "indexed": false,
          "internalType": "uint256"
        },
        {
          "name": "liqInsAmtPer100K",
          "type": "uint256",
          "indexed": false,
          "internalType": "uint256"
        },
        {
          "name": "liqUserAmtPer100K",
          "type": "uint256",
          "indexed": false,
          "internalType": "uint256"
        },
        {
          "name": "btlRestrictBuyers",
          "type": "bool",
          "indexed": false,
          "internalType": "bool"
        },
        {
          "name": "btlPriceThreshPer100K",
          "type": "uint256",
          "indexed": false,
          "internalType": "uint256"
        },
        {
          "name": "btlInsAmtPer100K",
          "type": "uint256",
          "indexed": false,
          "internalType": "uint256"
        },
        {
          "name": "btlUserAmtPer100K",
          "type": "uint256",
          "indexed": false,
          "internalType": "uint256"
        },
        {
          "name": "btlBuyerAmtPer100K",
          "type": "uint256",
          "indexed": false,
          "internalType": "uint256"
        },
        {
          "name": "numPerpetuals",
          "type": "uint256",
          "indexed": false,
          "internalType": "uint256"
        }
      ],
      "anonymous": false
    },
    {
      "type": "event",
      "name": "ContractLinkFeedUpdated",
      "inputs": [
        {
          "name": "perpId",
          "type": "uint256",
          "indexed": false,
          "internalType": "uint256"
        },
        {
          "name": "feedId",
          "type": "bytes32",
          "indexed": false,
          "internalType": "bytes32"
        }
      ],
      "anonymous": false
    },
    {
      "type": "event",
      "name": "ContractNotOperational",
      "inputs": [
        {
          "name": "perpId",
          "type": "uint256",
          "indexed": false,
          "internalType": "uint256"
        },
        {
          "name": "status",
          "type": "uint8",
          "indexed": false,
          "internalType": "enum PerpStatusEnum"
        }
      ],
      "anonymous": false
    },
    {
      "type": "event",
      "name": "ContractPaused",
      "inputs": [
        {
          "name": "perpId",
          "type": "uint256",
          "indexed": false,
          "internalType": "uint256"
        },
        {
          "name": "paused",
          "type": "bool",
          "indexed": false,
          "internalType": "bool"
        }
      ],
      "anonymous": false
    },
    {
      "type": "event",
      "name": "ContractRemoved",
      "inputs": [
        {
          "name": "perpId",
          "type": "uint256",
          "indexed": false,
          "internalType": "uint256"
        }
      ],
      "anonymous": false
    },
    {
      "type": "event",
      "name": "CrossesBook",
      "inputs": [
        {
          "name": "minAskOrMaxBidPNS",
          "type": "uint256",
          "indexed": false,
          "internalType": "uint256"
        },
        {
          "name": "maxOrdersChecked",
          "type": "bool",
          "indexed": false,
          "internalType": "bool"
        }
      ],
      "anonymous": false
    },
    {
      "type": "event",
      "name": "DcpBorrowThreshUpdated",
      "inputs": [
        {
          "name": "perpId",
          "type": "uint256",
          "indexed": false,
          "internalType": "uint256"
        },
        {
          "name": "threshHdths",
          "type": "uint256",
          "indexed": false,
          "internalType": "uint256"
        }
      ],
      "anonymous": false
    },
    {
      "type": "event",
      "name": "DecreaseCollateralBeyondMarkPrice",
      "inputs": [
        {
          "name": "perpId",
          "type": "uint256",
          "indexed": false,
          "internalType": "uint256"
        },
        {
          "name": "accountId",
          "type": "uint256",
          "indexed": false,
          "internalType": "uint256"
        },
        {
          "name": "positionType",
          "type": "uint8",
          "indexed": false,
          "internalType": "enum PositionEnum"
        },
        {
          "name": "impactAdjPricePNS",
          "type": "uint256",
          "indexed": false,
          "internalType": "uint256"
        },
        {
          "name": "markPricePNS",
          "type": "uint256",
          "indexed": false,
          "internalType": "uint256"
        }
      ],
      "anonymous": false
    },
    {
      "type": "event",
      "name": "DeleveragePositionListEmpty",
      "inputs": [
        {
          "name": "perpId",
          "type": "uint256",
          "indexed": false,
          "internalType": "uint256"
        },
        {
          "name": "accountId",
          "type": "uint256",
          "indexed": false,
          "internalType": "uint256"
        }
      ],
      "anonymous": false
    },
    {
      "type": "event",
      "name": "ExceedsLastExecutionBlock",
      "inputs": [
        {
          "name": "lastExecutionBlock",
          "type": "uint256",
          "indexed": false,
          "internalType": "uint256"
        }
      ],
      "anonymous": false
    },
    {
      "type": "event",
      "name": "ExchangeHalted",
      "inputs": [
        {
          "name": "halted",
          "type": "bool",
          "indexed": false,
          "internalType": "bool"
        }
      ],
      "anonymous": false
    },
    {
      "type": "event",
      "name": "ExchangeInitialized",
      "inputs": [
        {
          "name": "sender",
          "type": "address",
          "indexed": false,
          "internalType": "address"
        },
        {
          "name": "collateralToken",
          "type": "address",
          "indexed": false,
          "internalType": "address"
        },
        {
          "name": "collateralDecimals",
          "type": "uint256",
          "indexed": false,
          "internalType": "uint256"
        },
        {
          "name": "minAccountOpenCNS",
          "type": "uint256",
          "indexed": false,
          "internalType": "uint256"
        },
        {
          "name": "wrlsThousandthsTvl",
          "type": "uint256",
          "indexed": false,
          "internalType": "uint256"
        },
        {
          "name": "wrlsMinWithdrawLimitCNS",
          "type": "uint256",
          "indexed": false,
          "internalType": "uint256"
        },
        {
          "name": "recycleFeeCNS",
          "type": "uint256",
          "indexed": false,
          "internalType": "uint256"
        },
        {
          "name": "whitelistingEnabled",
          "type": "bool",
          "indexed": false,
          "internalType": "bool"
        }
      ],
      "anonymous": false
    },
    {
      "type": "event",
      "name": "FeeParamsUpdated",
      "inputs": [
        {
          "name": "perpId",
          "type": "uint256",
          "indexed": false,
          "internalType": "uint256"
        },
        {
          "name": "insAmtPer100K",
          "type": "uint256",
          "indexed": false,
          "internalType": "uint256"
        }
      ],
      "anonymous": false
    },
    {
      "type": "event",
      "name": "FundingClampPctUpdated",
      "inputs": [
        {
          "name": "perpId",
          "type": "uint256",
          "indexed": false,
          "internalType": "uint256"
        },
        {
          "name": "clampPctPer100k",
          "type": "uint256",
          "indexed": false,
          "internalType": "uint256"
        }
      ],
      "anonymous": false
    },
    {
      "type": "event",
      "name": "FundingEventCompleted",
      "inputs": [
        {
          "name": "perpId",
          "type": "uint256",
          "indexed": false,
          "internalType": "uint256"
        },
        {
          "name": "fundingEventBlock",
          "type": "uint256",
          "indexed": false,
          "internalType": "uint256"
        },
        {
          "name": "specifiedRatePct100k",
          "type": "int256",
          "indexed": false,
          "internalType": "int256"
        },
        {
          "name": "actualRatePct100k",
          "type": "int256",
          "indexed": false,
          "internalType": "int256"
        },
        {
          "name": "fundingPricePNS",
          "type": "uint256",
          "indexed": false,
          "internalType": "uint256"
        },
        {
          "name": "fundingPaymentPNS",
          "type": "int48",
          "indexed": false,
          "internalType": "int48"
        },
        {
          "name": "fundingSumPNS",
          "type": "int48",
          "indexed": false,
          "internalType": "int48"
        },
        {
          "name": "allowOverwrite",
          "type": "bool",
          "indexed": false,
          "internalType": "bool"
        }
      ],
      "anonymous": false
    },
    {
      "type": "event",
      "name": "FundingEventSetTooEarly",
      "inputs": [
        {
          "name": "perpId",
          "type": "uint256",
          "indexed": false,
          "internalType": "uint256"
        },
        {
          "name": "blockNumber",
          "type": "uint256",
          "indexed": false,
          "internalType": "uint256"
        },
        {
          "name": "fundingEventBlock",
          "type": "uint256",
          "indexed": false,
          "internalType": "uint256"
        }
      ],
      "anonymous": false
    },
    {
      "type": "event",
      "name": "FundingPriceExceedsTol",
      "inputs": [
        {
          "name": "perpId",
          "type": "uint256",
          "indexed": false,
          "internalType": "uint256"
        },
        {
          "name": "fundingPricePNS",
          "type": "uint256",
          "indexed": false,
          "internalType": "uint256"
        },
        {
          "name": "oraclePNS",
          "type": "uint256",
          "indexed": false,
          "internalType": "uint256"
        },
        {
          "name": "tolerancePer100k",
          "type": "uint256",
          "indexed": false,
          "internalType": "uint256"
        }
      ],
      "anonymous": false
    },
    {
      "type": "event",
      "name": "FundingSumAlreadySet",
      "inputs": [
        {
          "name": "perpId",
          "type": "uint256",
          "indexed": false,
          "internalType": "uint256"
        },
        {
          "name": "fundingEventBlock",
          "type": "uint256",
          "indexed": false,
          "internalType": "uint256"
        },
        {
          "name": "storageIndex",
          "type": "uint256",
          "indexed": false,
          "internalType": "uint256"
        },
        {
          "name": "fundingSumOffset",
          "type": "uint256",
          "indexed": false,
          "internalType": "uint256"
        }
      ],
      "anonymous": false
    },
    {
      "type": "event",
      "name": "FundingSumScalingExpUpdated",
      "inputs": [
        {
          "name": "perpId",
          "type": "uint256",
          "indexed": false,
          "internalType": "uint256"
        },
        {
          "name": "newExp",
          "type": "uint256",
          "indexed": false,
          "internalType": "uint256"
        }
      ],
      "anonymous": false
    },
    {
      "type": "event",
      "name": "IgnoreOracleUpdated",
      "inputs": [
        {
          "name": "perpId",
          "type": "uint256",
          "indexed": false,
          "internalType": "uint256"
        },
        {
          "name": "ignOracle",
          "type": "bool",
          "indexed": false,
          "internalType": "bool"
        }
      ],
      "anonymous": false
    },
    {
      "type": "event",
      "name": "ImmediateOrCancelExecuted",
      "inputs": [
        {
          "name": "unmatchedLotLNS",
          "type": "uint256",
          "indexed": false,
          "internalType": "uint256"
        },
        {
          "name": "totalLotLNS",
          "type": "uint256",
          "indexed": false,
          "internalType": "uint256"
        }
      ],
      "anonymous": false
    },
    {
      "type": "event",
      "name": "IncreasePositionCollateral",
      "inputs": [
        {
          "name": "perpId",
          "type": "uint256",
          "indexed": false,
          "internalType": "uint256"
        },
        {
          "name": "accountId",
          "type": "uint256",
          "indexed": false,
          "internalType": "uint256"
        },
        {
          "name": "positionDepositCNS",
          "type": "uint256",
          "indexed": false,
          "internalType": "uint256"
        },
        {
          "name": "amountCNS",
          "type": "uint256",
          "indexed": false,
          "internalType": "uint256"
        },
        {
          "name": "balanceCNS",
          "type": "uint256",
          "indexed": false,
          "internalType": "uint256"
        }
      ],
      "anonymous": false
    },
    {
      "type": "event",
      "name": "InitialMarginFractionUpdated",
      "inputs": [
        {
          "name": "perpId",
          "type": "uint256",
          "indexed": false,
          "internalType": "uint256"
        },
        {
          "name": "initMarginFracHdths",
          "type": "uint256",
          "indexed": false,
          "internalType": "uint256"
        }
      ],
      "anonymous": false
    },
    {
      "type": "event",
      "name": "Initialized",
      "inputs": [
        {
          "name": "version",
          "type": "uint8",
          "indexed": false,
          "internalType": "uint8"
        }
      ],
      "anonymous": false
    },
    {
      "type": "event",
      "name": "InsolventPositionCannotBeForcedClose",
      "inputs": [
        {
          "name": "perpId",
          "type": "uint256",
          "indexed": false,
          "internalType": "uint256"
        },
        {
          "name": "posAccountId",
          "type": "uint256",
          "indexed": false,
          "internalType": "uint256"
        },
        {
          "name": "positionType",
          "type": "uint8",
          "indexed": false,
          "internalType": "enum PositionEnum"
        },
        {
          "name": "bankruptcyPricePNS",
          "type": "uint256",
          "indexed": false,
          "internalType": "uint256"
        },
        {
          "name": "markPricePNS",
          "type": "uint256",
          "indexed": false,
          "internalType": "uint256"
        }
      ],
      "anonymous": false
    },
    {
      "type": "event",
      "name": "InsufficientFundsToDecCollateral",
      "inputs": [
        {
          "name": "perpId",
          "type": "uint256",
          "indexed": false,
          "internalType": "uint256"
        },
        {
          "name": "accountId",
          "type": "uint256",
          "indexed": false,
          "internalType": "uint256"
        },
        {
          "name": "amountCNS",
          "type": "uint256",
          "indexed": false,
          "internalType": "uint256"
        },
        {
          "name": "withdrawMaxCNS",
          "type": "uint256",
          "indexed": false,
          "internalType": "uint256"
        }
      ],
      "anonymous": false
    },
    {
      "type": "event",
      "name": "InsuficientFundsForRecycleFee",
      "inputs": [
        {
          "name": "perpId",
          "type": "uint256",
          "indexed": false,
          "internalType": "uint256"
        },
        {
          "name": "accountId",
          "type": "uint256",
          "indexed": false,
          "internalType": "uint256"
        },
        {
          "name": "balanceCNS",
          "type": "uint256",
          "indexed": false,
          "internalType": "uint256"
        },
        {
          "name": "lockedCNS",
          "type": "uint256",
          "indexed": false,
          "internalType": "uint256"
        },
        {
          "name": "recycleFeeCNS",
          "type": "uint256",
          "indexed": false,
          "internalType": "uint256"
        }
      ],
      "anonymous": false
    },
    {
      "type": "event",
      "name": "InsurancePaymentForSettlement",
      "inputs": [
        {
          "name": "perpId",
          "type": "uint256",
          "indexed": false,
          "internalType": "uint256"
        },
        {
          "name": "accountId",
          "type": "uint256",
          "indexed": false,
          "internalType": "uint256"
        },
        {
          "name": "insPaymentCNS",
          "type": "uint256",
          "indexed": false,
          "internalType": "uint256"
        }
      ],
      "anonymous": false
    },
    {
      "type": "event",
      "name": "InvalidAccountFrozenOrder",
      "inputs": [
        {
          "name": "orderType",
          "type": "uint8",
          "indexed": false,
          "internalType": "enum OrderDescEnum"
        },
        {
          "name": "immediateOrCancel",
          "type": "bool",
          "indexed": false,
          "internalType": "bool"
        }
      ],
      "anonymous": false
    },
    {
      "type": "event",
      "name": "InvalidBankruptcyPrice",
      "inputs": [
        {
          "name": "perpId",
          "type": "uint256",
          "indexed": false,
          "internalType": "uint256"
        },
        {
          "name": "accountId",
          "type": "uint256",
          "indexed": false,
          "internalType": "uint256"
        },
        {
          "name": "depositCNS",
          "type": "uint256",
          "indexed": false,
          "internalType": "uint256"
        },
        {
          "name": "posPricePNS",
          "type": "uint256",
          "indexed": false,
          "internalType": "uint256"
        },
        {
          "name": "liqLotLNS",
          "type": "uint256",
          "indexed": false,
          "internalType": "uint256"
        },
        {
          "name": "premiumPnlCNS",
          "type": "int256",
          "indexed": false,
          "internalType": "int256"
        }
      ],
      "anonymous": false
    },
    {
      "type": "event",
      "name": "InvalidExpiryBlock",
      "inputs": [
        {
          "name": "expiryBlock",
          "type": "uint256",
          "indexed": false,
          "internalType": "uint256"
        },
        {
          "name": "blockNumber",
          "type": "uint256",
          "indexed": false,
          "internalType": "uint256"
        }
      ],
      "anonymous": false
    },
    {
      "type": "event",
      "name": "InvalidLinkReportForContract",
      "inputs": [
        {
          "name": "perpId",
          "type": "uint256",
          "indexed": false,
          "internalType": "uint256"
        },
        {
          "name": "perpFeedId",
          "type": "bytes32",
          "indexed": false,
          "internalType": "bytes32"
        },
        {
          "name": "reportFeedId",
          "type": "bytes32",
          "indexed": false,
          "internalType": "bytes32"
        }
      ],
      "anonymous": false
    },
    {
      "type": "event",
      "name": "InvalidLinkReportVersion",
      "inputs": [
        {
          "name": "perpId",
          "type": "uint256",
          "indexed": false,
          "internalType": "uint256"
        },
        {
          "name": "reportVersion",
          "type": "uint256",
          "indexed": false,
          "internalType": "uint256"
        }
      ],
      "anonymous": false
    },
    {
      "type": "event",
      "name": "InvalidLiquidationPrice",
      "inputs": [
        {
          "name": "perpId",
          "type": "uint256",
          "indexed": false,
          "internalType": "uint256"
        },
        {
          "name": "accountId",
          "type": "uint256",
          "indexed": false,
          "internalType": "uint256"
        },
        {
          "name": "depositCNS",
          "type": "uint256",
          "indexed": false,
          "internalType": "uint256"
        },
        {
          "name": "posPricePNS",
          "type": "uint256",
          "indexed": false,
          "internalType": "uint256"
        },
        {
          "name": "liqLotLNS",
          "type": "uint256",
          "indexed": false,
          "internalType": "uint256"
        },
        {
          "name": "premiumPnlCNS",
          "type": "int256",
          "indexed": false,
          "internalType": "int256"
        }
      ],
      "anonymous": false
    },
    {
      "type": "event",
      "name": "InvalidOrderId",
      "inputs": [
        {
          "name": "orderId",
          "type": "uint256",
          "indexed": false,
          "internalType": "uint256"
        },
        {
          "name": "min",
          "type": "uint256",
          "indexed": false,
          "internalType": "uint256"
        },
        {
          "name": "max",
          "type": "uint256",
          "indexed": false,
          "internalType": "uint256"
        }
      ],
      "anonymous": false
    },
    {
      "type": "event",
      "name": "LastForwardedDescIdReset",
      "inputs": [
        {
          "name": "accountId",
          "type": "uint256",
          "indexed": false,
          "internalType": "uint256"
        },
        {
          "name": "newDescId",
          "type": "uint256",
          "indexed": false,
          "internalType": "uint256"
        }
      ],
      "anonymous": false
    },
    {
      "type": "event",
      "name": "LastTriggeredDescIdReset",
      "inputs": [
        {
          "name": "accountId",
          "type": "uint256",
          "indexed": false,
          "internalType": "uint256"
        },
        {
          "name": "newDescId",
          "type": "uint256",
          "indexed": false,
          "internalType": "uint256"
        }
      ],
      "anonymous": false
    },
    {
      "type": "event",
      "name": "LinkDatastreamConfigured",
      "inputs": [
        {
          "name": "verifierProxy",
          "type": "address",
          "indexed": false,
          "internalType": "address"
        }
      ],
      "anonymous": false
    },
    {
      "type": "event",
      "name": "LinkDsError",
      "inputs": [
        {
          "name": "perpId",
          "type": "uint256",
          "indexed": false,
          "internalType": "uint256"
        },
        {
          "name": "reason",
          "type": "string",
          "indexed": false,
          "internalType": "string"
        }
      ],
      "anonymous": false
    },
    {
      "type": "event",
      "name": "LinkDsError",
      "inputs": [
        {
          "name": "perpId",
          "type": "uint256",
          "indexed": false,
          "internalType": "uint256"
        },
        {
          "name": "lowLevelData",
          "type": "bytes",
          "indexed": false,
          "internalType": "bytes"
        }
      ],
      "anonymous": false
    },
    {
      "type": "event",
      "name": "LinkDsPanic",
      "inputs": [
        {
          "name": "perpId",
          "type": "uint256",
          "indexed": false,
          "internalType": "uint256"
        },
        {
          "name": "errorCode",
          "type": "uint256",
          "indexed": false,
          "internalType": "uint256"
        }
      ],
      "anonymous": false
    },
    {
      "type": "event",
      "name": "LinkPriceUpdated",
      "inputs": [
        {
          "name": "perpId",
          "type": "uint256",
          "indexed": false,
          "internalType": "uint256"
        },
        {
          "name": "oraclePricePNS",
          "type": "uint256",
          "indexed": false,
          "internalType": "uint256"
        },
        {
          "name": "timestamp",
          "type": "uint256",
          "indexed": false,
          "internalType": "uint256"
        }
      ],
      "anonymous": false
    },
    {
      "type": "event",
      "name": "LiquidationBuyerUpdated",
      "inputs": [
        {
          "name": "liquidationBuyer",
          "type": "address",
          "indexed": false,
          "internalType": "address"
        },
        {
          "name": "accountId",
          "type": "uint256",
          "indexed": false,
          "internalType": "uint256"
        },
        {
          "name": "added",
          "type": "bool",
          "indexed": false,
          "internalType": "bool"
        }
      ],
      "anonymous": false
    },
    {
      "type": "event",
      "name": "LiquidationParamsUpdated",
      "inputs": [
        {
          "name": "perpId",
          "type": "uint256",
          "indexed": false,
          "internalType": "uint256"
        },
        {
          "name": "insAmtPer100K",
          "type": "uint256",
          "indexed": false,
          "internalType": "uint256"
        },
        {
          "name": "liqAmtPer100K",
          "type": "uint256",
          "indexed": false,
          "internalType": "uint256"
        },
        {
          "name": "userAmtPer100K",
          "type": "uint256",
          "indexed": false,
          "internalType": "uint256"
        }
      ],
      "anonymous": false
    },
    {
      "type": "event",
      "name": "LotOutOfRange",
      "inputs": [
        {
          "name": "minLotLNS",
          "type": "uint256",
          "indexed": false,
          "internalType": "uint256"
        },
        {
          "name": "maxLotLNS",
          "type": "uint256",
          "indexed": false,
          "internalType": "uint256"
        }
      ],
      "anonymous": false
    },
    {
      "type": "event",
      "name": "MaintenanceMarginFractionUpdated",
      "inputs": [
        {
          "name": "perpId",
          "type": "uint256",
          "indexed": false,
          "internalType": "uint256"
        },
        {
          "name": "maintMarginFracHdths",
          "type": "uint256",
          "indexed": false,
          "internalType": "uint256"
        }
      ],
      "anonymous": false
    },
    {
      "type": "event",
      "name": "MakerFeeUpdated",
      "inputs": [
        {
          "name": "perpId",
          "type": "uint256",
          "indexed": false,
          "internalType": "uint256"
        },
        {
          "name": "makerFeePer100K",
          "type": "uint256",
          "indexed": false,
          "internalType": "uint256"
        }
      ],
      "anonymous": false
    },
    {
      "type": "event",
      "name": "MakerOrderFilled",
      "inputs": [
        {
          "name": "perpId",
          "type": "uint256",
          "indexed": false,
          "internalType": "uint256"
        },
        {
          "name": "accountId",
          "type": "uint256",
          "indexed": false,
          "internalType": "uint256"
        },
        {
          "name": "orderId",
          "type": "uint256",
          "indexed": false,
          "internalType": "uint256"
        },
        {
          "name": "pricePNS",
          "type": "uint256",
          "indexed": false,
          "internalType": "uint256"
        },
        {
          "name": "lotLNS",
          "type": "uint256",
          "indexed": false,
          "internalType": "uint256"
        },
        {
          "name": "feeCNS",
          "type": "uint256",
          "indexed": false,
          "internalType": "uint256"
        },
        {
          "name": "lockedBalanceCNS",
          "type": "uint256",
          "indexed": false,
          "internalType": "uint256"
        },
        {
          "name": "amountCNS",
          "type": "int256",
          "indexed": false,
          "internalType": "int256"
        },
        {
          "name": "balanceCNS",
          "type": "uint256",
          "indexed": false,
          "internalType": "uint256"
        }
      ],
      "anonymous": false
    },
    {
      "type": "event",
      "name": "MakerOrderSettlementFailed",
      "inputs": [
        {
          "name": "perpId",
          "type": "uint256",
          "indexed": false,
          "internalType": "uint256"
        },
        {
          "name": "accountId",
          "type": "uint256",
          "indexed": false,
          "internalType": "uint256"
        },
        {
          "name": "orderId",
          "type": "uint256",
          "indexed": false,
          "internalType": "uint256"
        },
        {
          "name": "orderType",
          "type": "uint8",
          "indexed": false,
          "internalType": "enum OrderEnum"
        },
        {
          "name": "pricePNS",
          "type": "uint256",
          "indexed": false,
          "internalType": "uint256"
        },
        {
          "name": "lotLNS",
          "type": "uint256",
          "indexed": false,
          "internalType": "uint256"
        },
        {
          "name": "maxNegPnlCollatBPS",
          "type": "uint256",
          "indexed": false,
          "internalType": "uint256"
        },
        {
          "name": "reason",
          "type": "uint256",
          "indexed": false,
          "internalType": "uint256"
        },
        {
          "name": "lockedBalanceCNS",
          "type": "uint256",
          "indexed": false,
          "internalType": "uint256"
        },
        {
          "name": "recyclerAccountId",
          "type": "uint256",
          "indexed": false,
          "internalType": "uint256"
        },
        {
          "name": "recyclerAmountCNS",
          "type": "int256",
          "indexed": false,
          "internalType": "int256"
        },
        {
          "name": "recyclerBalanceCNS",
          "type": "uint256",
          "indexed": false,
          "internalType": "uint256"
        }
      ],
      "anonymous": false
    },
    {
      "type": "event",
      "name": "MarginTolUpdated",
      "inputs": [
        {
          "name": "perpId",
          "type": "uint256",
          "indexed": false,
          "internalType": "uint256"
        },
        {
          "name": "tolerance",
          "type": "uint256",
          "indexed": false,
          "internalType": "uint256"
        },
        {
          "name": "decimals",
          "type": "uint256",
          "indexed": false,
          "internalType": "uint256"
        }
      ],
      "anonymous": false
    },
    {
      "type": "event",
      "name": "MarkExceedsTol",
      "inputs": [
        {
          "name": "perpId",
          "type": "uint256",
          "indexed": false,
          "internalType": "uint256"
        },
        {
          "name": "markPNS",
          "type": "uint256",
          "indexed": false,
          "internalType": "uint256"
        },
        {
          "name": "spotOraclePricePNS",
          "type": "uint256",
          "indexed": false,
          "internalType": "uint256"
        },
        {
          "name": "tolerancePer100k",
          "type": "uint256",
          "indexed": false,
          "internalType": "uint256"
        }
      ],
      "anonymous": false
    },
    {
      "type": "event",
      "name": "MarkPriceAgeExceedsMax",
      "inputs": [
        {
          "name": "perpId",
          "type": "uint256",
          "indexed": false,
          "internalType": "uint256"
        },
        {
          "name": "markTimestamp",
          "type": "uint256",
          "indexed": false,
          "internalType": "uint256"
        },
        {
          "name": "timestamp",
          "type": "uint256",
          "indexed": false,
          "internalType": "uint256"
        },
        {
          "name": "maxAgeSec",
          "type": "uint256",
          "indexed": false,
          "internalType": "uint256"
        }
      ],
      "anonymous": false
    },
    {
      "type": "event",
      "name": "MarkUpdated",
      "inputs": [
        {
          "name": "perpId",
          "type": "uint256",
          "indexed": false,
          "internalType": "uint256"
        },
        {
          "name": "pricePNS",
          "type": "uint256",
          "indexed": false,
          "internalType": "uint256"
        }
      ],
      "anonymous": false
    },
    {
      "type": "event",
      "name": "MaxMatchesReached",
      "inputs": [],
      "anonymous": false
    },
    {
      "type": "event",
      "name": "MaxOpenInterestUpdated",
      "inputs": [
        {
          "name": "perpId",
          "type": "uint256",
          "indexed": false,
          "internalType": "uint256"
        },
        {
          "name": "maxOpenInterestLNS",
          "type": "uint256",
          "indexed": false,
          "internalType": "uint256"
        }
      ],
      "anonymous": false
    },
    {
      "type": "event",
      "name": "MaximumAccountOrders",
      "inputs": [
        {
          "name": "perpId",
          "type": "uint256",
          "indexed": false,
          "internalType": "uint256"
        },
        {
          "name": "accountId",
          "type": "uint256",
          "indexed": false,
          "internalType": "uint256"
        }
      ],
      "anonymous": false
    },
    {
      "type": "event",
      "name": "MinAccountOpenAmountUpdated",
      "inputs": [
        {
          "name": "minAccountOpenCNS",
          "type": "uint256",
          "indexed": false,
          "internalType": "uint256"
        }
      ],
      "anonymous": false
    },
    {
      "type": "event",
      "name": "MinPostUpdated",
      "inputs": [
        {
          "name": "minPostCNS",
          "type": "uint256",
          "indexed": false,
          "internalType": "uint256"
        }
      ],
      "anonymous": false
    },
    {
      "type": "event",
      "name": "MinSettleUpdated",
      "inputs": [
        {
          "name": "minSettleCNS",
          "type": "uint256",
          "indexed": false,
          "internalType": "uint256"
        }
      ],
      "anonymous": false
    },
    {
      "type": "event",
      "name": "MonitorAdministratorUpdated",
      "inputs": [
        {
          "name": "monitorAdministrator",
          "type": "address",
          "indexed": false,
          "internalType": "address"
        },
        {
          "name": "added",
          "type": "bool",
          "indexed": false,
          "internalType": "bool"
        }
      ],
      "anonymous": false
    },
    {
      "type": "event",
      "name": "OracleAgeExceedsMax",
      "inputs": [
        {
          "name": "perpId",
          "type": "uint256",
          "indexed": false,
          "internalType": "uint256"
        },
        {
          "name": "oracleTimestamp",
          "type": "uint256",
          "indexed": false,
          "internalType": "uint256"
        },
        {
          "name": "timestamp",
          "type": "uint256",
          "indexed": false,
          "internalType": "uint256"
        },
        {
          "name": "maxAgeSec",
          "type": "uint256",
          "indexed": false,
          "internalType": "uint256"
        }
      ],
      "anonymous": false
    },
    {
      "type": "event",
      "name": "OracleDisabled",
      "inputs": [
        {
          "name": "perpId",
          "type": "uint256",
          "indexed": false,
          "internalType": "uint256"
        }
      ],
      "anonymous": false
    },
    {
      "type": "event",
      "name": "OrderBatchCompleted",
      "inputs": [
        {
          "name": "gasLeft",
          "type": "uint256",
          "indexed": false,
          "internalType": "uint256"
        }
      ],
      "anonymous": false
    },
    {
      "type": "event",
      "name": "OrderCancelled",
      "inputs": [
        {
          "name": "lockedBalanceCNS",
          "type": "uint256",
          "indexed": false,
          "internalType": "uint256"
        },
        {
          "name": "amountCNS",
          "type": "int256",
          "indexed": false,
          "internalType": "int256"
        },
        {
          "name": "balanceCNS",
          "type": "uint256",
          "indexed": false,
          "internalType": "uint256"
        }
      ],
      "anonymous": false
    },
    {
      "type": "event",
      "name": "OrderCancelledByAdmin",
      "inputs": [
        {
          "name": "perpId",
          "type": "uint256",
          "indexed": false,
          "internalType": "uint256"
        },
        {
          "name": "accountId",
          "type": "uint256",
          "indexed": false,
          "internalType": "uint256"
        },
        {
          "name": "orderId",
          "type": "uint256",
          "indexed": false,
          "internalType": "uint256"
        },
        {
          "name": "lockedBalanceCNS",
          "type": "uint256",
          "indexed": false,
          "internalType": "uint256"
        }
      ],
      "anonymous": false
    },
    {
      "type": "event",
      "name": "OrderCancelledByLiquidator",
      "inputs": [
        {
          "name": "perpId",
          "type": "uint256",
          "indexed": false,
          "internalType": "uint256"
        },
        {
          "name": "accountId",
          "type": "uint256",
          "indexed": false,
          "internalType": "uint256"
        },
        {
          "name": "orderId",
          "type": "uint256",
          "indexed": false,
          "internalType": "uint256"
        },
        {
          "name": "lockedBalanceCNS",
          "type": "uint256",
          "indexed": false,
          "internalType": "uint256"
        }
      ],
      "anonymous": false
    },
    {
      "type": "event",
      "name": "OrderChanged",
      "inputs": [
        {
          "name": "orderId",
          "type": "uint256",
          "indexed": false,
          "internalType": "uint256"
        },
        {
          "name": "pricePNS",
          "type": "uint256",
          "indexed": false,
          "internalType": "uint256"
        },
        {
          "name": "lotLNS",
          "type": "uint256",
          "indexed": false,
          "internalType": "uint256"
        },
        {
          "name": "expiryBlock",
          "type": "uint256",
          "indexed": false,
          "internalType": "uint256"
        },
        {
          "name": "lockedBalanceCNS",
          "type": "uint256",
          "indexed": false,
          "internalType": "uint256"
        },
        {
          "name": "balanceCNS",
          "type": "uint256",
          "indexed": false,
          "internalType": "uint256"
        }
      ],
      "anonymous": false
    },
    {
      "type": "event",
      "name": "OrderDescIdTooLow",
      "inputs": [
        {
          "name": "lastOrderDescId",
          "type": "uint256",
          "indexed": false,
          "internalType": "uint256"
        }
      ],
      "anonymous": false
    },
    {
      "type": "event",
      "name": "OrderDoesNotExist",
      "inputs": [
        {
          "name": "perpId",
          "type": "uint256",
          "indexed": false,
          "internalType": "uint256"
        },
        {
          "name": "orderId",
          "type": "uint256",
          "indexed": false,
          "internalType": "uint256"
        }
      ],
      "anonymous": false
    },
    {
      "type": "event",
      "name": "OrderForwardingNotAllowed",
      "inputs": [],
      "anonymous": false
    },
    {
      "type": "event",
      "name": "OrderForwardingUpdated",
      "inputs": [
        {
          "name": "accountId",
          "type": "uint256",
          "indexed": false,
          "internalType": "uint256"
        },
        {
          "name": "allowed",
          "type": "bool",
          "indexed": false,
          "internalType": "bool"
        }
      ],
      "anonymous": false
    },
    {
      "type": "event",
      "name": "OrderPlaced",
      "inputs": [
        {
          "name": "orderId",
          "type": "uint256",
          "indexed": false,
          "internalType": "uint256"
        },
        {
          "name": "lotLNS",
          "type": "uint256",
          "indexed": false,
          "internalType": "uint256"
        },
        {
          "name": "lockedBalanceCNS",
          "type": "uint256",
          "indexed": false,
          "internalType": "uint256"
        },
        {
          "name": "amountCNS",
          "type": "int256",
          "indexed": false,
          "internalType": "int256"
        },
        {
          "name": "balanceCNS",
          "type": "uint256",
          "indexed": false,
          "internalType": "uint256"
        }
      ],
      "anonymous": false
    },
    {
      "type": "event",
      "name": "OrderPostFailed",
      "inputs": [
        {
          "name": "reason",
          "type": "uint256",
          "indexed": false,
          "internalType": "uint256"
        }
      ],
      "anonymous": false
    },
    {
      "type": "event",
      "name": "OrderRequest",
      "inputs": [
        {
          "name": "perpId",
          "type": "uint256",
          "indexed": false,
          "internalType": "uint256"
        },
        {
          "name": "accountId",
          "type": "uint256",
          "indexed": false,
          "internalType": "uint256"
        },
        {
          "name": "orderDescId",
          "type": "uint256",
          "indexed": false,
          "internalType": "uint256"
        },
        {
          "name": "orderId",
          "type": "uint256",
          "indexed": false,
          "internalType": "uint256"
        },
        {
          "name": "orderType",
          "type": "uint8",
          "indexed": false,
          "internalType": "enum OrderDescEnum"
        },
        {
          "name": "pricePNS",
          "type": "uint256",
          "indexed": false,
          "internalType": "uint256"
        },
        {
          "name": "lotLNS",
          "type": "uint256",
          "indexed": false,
          "internalType": "uint256"
        },
        {
          "name": "expiryBlock",
          "type": "uint256",
          "indexed": false,
          "internalType": "uint256"
        },
        {
          "name": "postOnly",
          "type": "bool",
          "indexed": false,
          "internalType": "bool"
        },
        {
          "name": "fillOrKill",
          "type": "bool",
          "indexed": false,
          "internalType": "bool"
        },
        {
          "name": "immediateOrCancel",
          "type": "bool",
          "indexed": false,
          "internalType": "bool"
        },
        {
          "name": "maxMatches",
          "type": "uint256",
          "indexed": false,
          "internalType": "uint256"
        },
        {
          "name": "leverageHdths",
          "type": "uint256",
          "indexed": false,
          "internalType": "uint256"
        },
        {
          "name": "lastExecutionBlock",
          "type": "uint256",
          "indexed": false,
          "internalType": "uint256"
        },
        {
          "name": "amountCNS",
          "type": "uint256",
          "indexed": false,
          "internalType": "uint256"
        },
        {
          "name": "maxNegPnlCollatBPS",
          "type": "uint256",
          "indexed": false,
          "internalType": "uint256"
        },
        {
          "name": "gasLeft",
          "type": "uint256",
          "indexed": false,
          "internalType": "uint256"
        }
      ],
      "anonymous": false
    },
    {
      "type": "event",
      "name": "OrderSettlementImpliesInsolvent",
      "inputs": [
        {
          "name": "perpId",
          "type": "uint256",
          "indexed": false,
          "internalType": "uint256"
        },
        {
          "name": "accountId",
          "type": "uint256",
          "indexed": false,
          "internalType": "uint256"
        },
        {
          "name": "orderType",
          "type": "uint8",
          "indexed": false,
          "internalType": "enum OrderEnum"
        },
        {
          "name": "pricePNS",
          "type": "uint256",
          "indexed": false,
          "internalType": "uint256"
        },
        {
          "name": "lotLNS",
          "type": "uint256",
          "indexed": false,
          "internalType": "uint256"
        },
        {
          "name": "perpPositionBalCNS",
          "type": "uint256",
          "indexed": false,
          "internalType": "uint256"
        },
        {
          "name": "perpInsuranceBalCNS",
          "type": "uint256",
          "indexed": false,
          "internalType": "uint256"
        },
        {
          "name": "addedPosCollatReqCNS",
          "type": "uint256",
          "indexed": false,
          "internalType": "uint256"
        },
        {
          "name": "requestedAmountCNS",
          "type": "uint256",
          "indexed": false,
          "internalType": "uint256"
        }
      ],
      "anonymous": false
    },
    {
      "type": "event",
      "name": "OrderSizeExceedsAvailableSize",
      "inputs": [
        {
          "name": "orderLotLNS",
          "type": "uint256",
          "indexed": false,
          "internalType": "uint256"
        },
        {
          "name": "availableLotLNS",
          "type": "uint256",
          "indexed": false,
          "internalType": "uint256"
        },
        {
          "name": "positionLotLNS",
          "type": "uint256",
          "indexed": false,
          "internalType": "uint256"
        }
      ],
      "anonymous": false
    },
    {
      "type": "event",
      "name": "OverCollatDescentThreshUpdated",
      "inputs": [
        {
          "name": "perpId",
          "type": "uint256",
          "indexed": false,
          "internalType": "uint256"
        },
        {
          "name": "threshHdths",
          "type": "uint256",
          "indexed": false,
          "internalType": "uint256"
        }
      ],
      "anonymous": false
    },
    {
      "type": "event",
      "name": "OwnershipTransferStarted",
      "inputs": [
        {
          "name": "previousOwner",
          "type": "address",
          "indexed": true,
          "internalType": "address"
        },
        {
          "name": "newOwner",
          "type": "address",
          "indexed": true,
          "internalType": "address"
        }
      ],
      "anonymous": false
    },
    {
      "type": "event",
      "name": "OwnershipTransferred",
      "inputs": [
        {
          "name": "previousOwner",
          "type": "address",
          "indexed": true,
          "internalType": "address"
        },
        {
          "name": "newOwner",
          "type": "address",
          "indexed": true,
          "internalType": "address"
        }
      ],
      "anonymous": false
    },
    {
      "type": "event",
      "name": "PermissonedCancelParamsUpdated",
      "inputs": [
        {
          "name": "cancelMinOrders",
          "type": "uint256",
          "indexed": false,
          "internalType": "uint256"
        },
        {
          "name": "cancelSegment",
          "type": "uint256",
          "indexed": false,
          "internalType": "uint256"
        }
      ],
      "anonymous": false
    },
    {
      "type": "event",
      "name": "PerpPositionBalCreditPositiveSevere",
      "inputs": [
        {
          "name": "perpId",
          "type": "uint256",
          "indexed": false,
          "internalType": "uint256"
        },
        {
          "name": "accountId",
          "type": "uint256",
          "indexed": false,
          "internalType": "uint256"
        },
        {
          "name": "realizedPricePNS",
          "type": "uint256",
          "indexed": false,
          "internalType": "uint256"
        },
        {
          "name": "lotLNS",
          "type": "uint256",
          "indexed": false,
          "internalType": "uint256"
        },
        {
          "name": "userProceedsToPosition",
          "type": "bool",
          "indexed": false,
          "internalType": "bool"
        },
        {
          "name": "buyToLiquidate",
          "type": "bool",
          "indexed": false,
          "internalType": "bool"
        },
        {
          "name": "creditPerpBalCNS",
          "type": "int256",
          "indexed": false,
          "internalType": "int256"
        }
      ],
      "anonymous": false
    },
    {
      "type": "event",
      "name": "PositionAdministratorUpdated",
      "inputs": [
        {
          "name": "positionAdministrator",
          "type": "address",
          "indexed": false,
          "internalType": "address"
        },
        {
          "name": "added",
          "type": "bool",
          "indexed": false,
          "internalType": "bool"
        }
      ],
      "anonymous": false
    },
    {
      "type": "event",
      "name": "PositionClosed",
      "inputs": [
        {
          "name": "perpId",
          "type": "uint256",
          "indexed": false,
          "internalType": "uint256"
        },
        {
          "name": "accountId",
          "type": "uint256",
          "indexed": false,
          "internalType": "uint256"
        },
        {
          "name": "positionType",
          "type": "uint8",
          "indexed": false,
          "internalType": "enum PositionEnum"
        },
        {
          "name": "pricePNS",
          "type": "uint256",
          "indexed": false,
          "internalType": "uint256"
        },
        {
          "name": "deltaPnlCNS",
          "type": "int256",
          "indexed": false,
          "internalType": "int256"
        },
        {
          "name": "fundingCNS",
          "type": "int256",
          "indexed": false,
          "internalType": "int256"
        }
      ],
      "anonymous": false
    },
    {
      "type": "event",
      "name": "PositionCollateralDecreased",
      "inputs": [
        {
          "name": "perpId",
          "type": "uint256",
          "indexed": false,
          "internalType": "uint256"
        },
        {
          "name": "accountId",
          "type": "uint256",
          "indexed": false,
          "internalType": "uint256"
        },
        {
          "name": "positionType",
          "type": "uint8",
          "indexed": false,
          "internalType": "enum PositionEnum"
        },
        {
          "name": "markPricePNS",
          "type": "uint256",
          "indexed": false,
          "internalType": "uint256"
        },
        {
          "name": "impactAdjPricePNS",
          "type": "uint256",
          "indexed": false,
          "internalType": "uint256"
        },
        {
          "name": "startDepositCNS",
          "type": "uint256",
          "indexed": false,
          "internalType": "uint256"
        },
        {
          "name": "endDepositCNS",
          "type": "uint256",
          "indexed": false,
          "internalType": "uint256"
        },
        {
          "name": "startEntryPricePNS",
          "type": "uint256",
          "indexed": false,
          "internalType": "uint256"
        },
        {
          "name": "endEntryPricePNS",
          "type": "uint256",
          "indexed": false,
          "internalType": "uint256"
        },
        {
          "name": "effBmfHdths",
          "type": "uint256",
          "indexed": false,
          "internalType": "uint256"
        },
        {
          "name": "decreaseCNS",
          "type": "uint256",
          "indexed": false,
          "internalType": "uint256"
        },
        {
          "name": "balanceCNS",
          "type": "uint256",
          "indexed": false,
          "internalType": "uint256"
        }
      ],
      "anonymous": false
    },
    {
      "type": "event",
      "name": "PositionDecreased",
      "inputs": [
        {
          "name": "perpId",
          "type": "uint256",
          "indexed": false,
          "internalType": "uint256"
        },
        {
          "name": "accountId",
          "type": "uint256",
          "indexed": false,
          "internalType": "uint256"
        },
        {
          "name": "positionType",
          "type": "uint8",
          "indexed": false,
          "internalType": "enum PositionEnum"
        },
        {
          "name": "startDepositCNS",
          "type": "uint256",
          "indexed": false,
          "internalType": "uint256"
        },
        {
          "name": "endDepositCNS",
          "type": "uint256",
          "indexed": false,
          "internalType": "uint256"
        },
        {
          "name": "startLotLNS",
          "type": "uint256",
          "indexed": false,
          "internalType": "uint256"
        },
        {
          "name": "endLotLNS",
          "type": "uint256",
          "indexed": false,
          "internalType": "uint256"
        },
        {
          "name": "deltaPnlCNS",
          "type": "int256",
          "indexed": false,
          "internalType": "int256"
        },
        {
          "name": "fundingCNS",
          "type": "int256",
          "indexed": false,
          "internalType": "int256"
        }
      ],
      "anonymous": false
    },
    {
      "type": "event",
      "name": "PositionDeleveraged",
      "inputs": [
        {
          "name": "perpId",
          "type": "uint256",
          "indexed": false,
          "internalType": "uint256"
        },
        {
          "name": "accountId",
          "type": "uint256",
          "indexed": false,
          "internalType": "uint256"
        },
        {
          "name": "forceClose",
          "type": "bool",
          "indexed": false,
          "internalType": "bool"
        },
        {
          "name": "positionType",
          "type": "uint8",
          "indexed": false,
          "internalType": "enum PositionEnum"
        },
        {
          "name": "entryPricePNS",
          "type": "uint256",
          "indexed": false,
          "internalType": "uint256"
        },
        {
          "name": "markPricePNS",
          "type": "uint256",
          "indexed": false,
          "internalType": "uint256"
        },
        {
          "name": "deleveragePricePNS",
          "type": "uint256",
          "indexed": false,
          "internalType": "uint256"
        },
        {
          "name": "deltaPnlCNS",
          "type": "int256",
          "indexed": false,
          "internalType": "int256"
        },
        {
          "name": "fundingCNS",
          "type": "int256",
          "indexed": false,
          "internalType": "int256"
        },
        {
          "name": "startDepositCNS",
          "type": "uint256",
          "indexed": false,
          "internalType": "uint256"
        },
        {
          "name": "endDepositCNS",
          "type": "uint256",
          "indexed": false,
          "internalType": "uint256"
        },
        {
          "name": "startLotLNS",
          "type": "uint256",
          "indexed": false,
          "internalType": "uint256"
        },
        {
          "name": "endLotLNS",
          "type": "uint256",
          "indexed": false,
          "internalType": "uint256"
        },
        {
          "name": "amountCNS",
          "type": "uint256",
          "indexed": false,
          "internalType": "uint256"
        },
        {
          "name": "balanceCNS",
          "type": "uint256",
          "indexed": false,
          "internalType": "uint256"
        }
      ],
      "anonymous": false
    },
    {
      "type": "event",
      "name": "PositionDoesNotExist",
      "inputs": [
        {
          "name": "perpId",
          "type": "uint256",
          "indexed": false,
          "internalType": "uint256"
        },
        {
          "name": "accountId",
          "type": "uint256",
          "indexed": false,
          "internalType": "uint256"
        }
      ],
      "anonymous": false
    },
    {
      "type": "event",
      "name": "PositionIncreased",
      "inputs": [
        {
          "name": "perpId",
          "type": "uint256",
          "indexed": false,
          "internalType": "uint256"
        },
        {
          "name": "accountId",
          "type": "uint256",
          "indexed": false,
          "internalType": "uint256"
        },
        {
          "name": "positionType",
          "type": "uint8",
          "indexed": false,
          "internalType": "enum PositionEnum"
        },
        {
          "name": "leverageHdths",
          "type": "uint256",
          "indexed": false,
          "internalType": "uint256"
        },
        {
          "name": "startDepositCNS",
          "type": "uint256",
          "indexed": false,
          "internalType": "uint256"
        },
        {
          "name": "endDepositCNS",
          "type": "uint256",
          "indexed": false,
          "internalType": "uint256"
        },
        {
          "name": "pnlCollateralizedCNS",
          "type": "int256",
          "indexed": false,
          "internalType": "int256"
        },
        {
          "name": "premiumPnlSettledCNS",
          "type": "int256",
          "indexed": false,
          "internalType": "int256"
        },
        {
          "name": "maxNegPnlCollatBPS",
          "type": "uint256",
          "indexed": false,
          "internalType": "uint256"
        },
        {
          "name": "pricePNS",
          "type": "uint256",
          "indexed": false,
          "internalType": "uint256"
        },
        {
          "name": "startLotLNS",
          "type": "uint256",
          "indexed": false,
          "internalType": "uint256"
        },
        {
          "name": "endLotLNS",
          "type": "uint256",
          "indexed": false,
          "internalType": "uint256"
        },
        {
          "name": "insFeeCNS",
          "type": "uint256",
          "indexed": false,
          "internalType": "uint256"
        },
        {
          "name": "protFeeCNS",
          "type": "uint256",
          "indexed": false,
          "internalType": "uint256"
        }
      ],
      "anonymous": false
    },
    {
      "type": "event",
      "name": "PositionInverted",
      "inputs": [
        {
          "name": "perpId",
          "type": "uint256",
          "indexed": false,
          "internalType": "uint256"
        },
        {
          "name": "accountId",
          "type": "uint256",
          "indexed": false,
          "internalType": "uint256"
        },
        {
          "name": "positionType",
          "type": "uint8",
          "indexed": false,
          "internalType": "enum PositionEnum"
        },
        {
          "name": "leverageHdths",
          "type": "uint256",
          "indexed": false,
          "internalType": "uint256"
        },
        {
          "name": "startDepositCNS",
          "type": "uint256",
          "indexed": false,
          "internalType": "uint256"
        },
        {
          "name": "endDepositCNS",
          "type": "uint256",
          "indexed": false,
          "internalType": "uint256"
        },
        {
          "name": "pnlCollateralizedCNS",
          "type": "int256",
          "indexed": false,
          "internalType": "int256"
        },
        {
          "name": "pricePNS",
          "type": "uint256",
          "indexed": false,
          "internalType": "uint256"
        },
        {
          "name": "startLotLNS",
          "type": "uint256",
          "indexed": false,
          "internalType": "uint256"
        },
        {
          "name": "endLotLNS",
          "type": "uint256",
          "indexed": false,
          "internalType": "uint256"
        },
        {
          "name": "deltaPnlCNS",
          "type": "int256",
          "indexed": false,
          "internalType": "int256"
        },
        {
          "name": "fundingCNS",
          "type": "int256",
          "indexed": false,
          "internalType": "int256"
        },
        {
          "name": "insFeeCNS",
          "type": "uint256",
          "indexed": false,
          "internalType": "uint256"
        },
        {
          "name": "protFeeCNS",
          "type": "uint256",
          "indexed": false,
          "internalType": "uint256"
        }
      ],
      "anonymous": false
    },
    {
      "type": "event",
      "name": "PositionLiquidated",
      "inputs": [
        {
          "name": "perpId",
          "type": "uint256",
          "indexed": false,
          "internalType": "uint256"
        },
        {
          "name": "posAccountId",
          "type": "uint256",
          "indexed": false,
          "internalType": "uint256"
        },
        {
          "name": "positionType",
          "type": "uint8",
          "indexed": false,
          "internalType": "enum PositionEnum"
        },
        {
          "name": "markPricePNS",
          "type": "uint256",
          "indexed": false,
          "internalType": "uint256"
        },
        {
          "name": "liqPricePNS",
          "type": "uint256",
          "indexed": false,
          "internalType": "uint256"
        },
        {
          "name": "liqLotLNS",
          "type": "uint256",
          "indexed": false,
          "internalType": "uint256"
        },
        {
          "name": "posLotLNS",
          "type": "uint256",
          "indexed": false,
          "internalType": "uint256"
        },
        {
          "name": "deltaPnlCNS",
          "type": "int256",
          "indexed": false,
          "internalType": "int256"
        },
        {
          "name": "fundingCNS",
          "type": "int256",
          "indexed": false,
          "internalType": "int256"
        },
        {
          "name": "posAmountCNS",
          "type": "int256",
          "indexed": false,
          "internalType": "int256"
        },
        {
          "name": "posDepositCNS",
          "type": "uint256",
          "indexed": false,
          "internalType": "uint256"
        },
        {
          "name": "accAmountCNS",
          "type": "int256",
          "indexed": false,
          "internalType": "int256"
        },
        {
          "name": "accBalanceCNS",
          "type": "uint256",
          "indexed": false,
          "internalType": "uint256"
        },
        {
          "name": "onOrderBook",
          "type": "bool",
          "indexed": false,
          "internalType": "bool"
        }
      ],
      "anonymous": false
    },
    {
      "type": "event",
      "name": "PositionLiquidationCredit",
      "inputs": [
        {
          "name": "perpId",
          "type": "uint256",
          "indexed": false,
          "internalType": "uint256"
        },
        {
          "name": "accountId",
          "type": "uint256",
          "indexed": false,
          "internalType": "uint256"
        },
        {
          "name": "startDepositCNS",
          "type": "uint256",
          "indexed": false,
          "internalType": "uint256"
        },
        {
          "name": "endDepositCNS",
          "type": "uint256",
          "indexed": false,
          "internalType": "uint256"
        }
      ],
      "anonymous": false
    },
    {
      "type": "event",
      "name": "PositionOpened",
      "inputs": [
        {
          "name": "perpId",
          "type": "uint256",
          "indexed": false,
          "internalType": "uint256"
        },
        {
          "name": "accountId",
          "type": "uint256",
          "indexed": false,
          "internalType": "uint256"
        },
        {
          "name": "positionType",
          "type": "uint8",
          "indexed": false,
          "internalType": "enum PositionEnum"
        },
        {
          "name": "leverageHdths",
          "type": "uint256",
          "indexed": false,
          "internalType": "uint256"
        },
        {
          "name": "depositCNS",
          "type": "uint256",
          "indexed": false,
          "internalType": "uint256"
        },
        {
          "name": "pnlCollateralizedCNS",
          "type": "int256",
          "indexed": false,
          "internalType": "int256"
        },
        {
          "name": "pricePNS",
          "type": "uint256",
          "indexed": false,
          "internalType": "uint256"
        },
        {
          "name": "lotLNS",
          "type": "uint256",
          "indexed": false,
          "internalType": "uint256"
        },
        {
          "name": "insFeeCNS",
          "type": "uint256",
          "indexed": false,
          "internalType": "uint256"
        },
        {
          "name": "protFeeCNS",
          "type": "uint256",
          "indexed": false,
          "internalType": "uint256"
        }
      ],
      "anonymous": false
    },
    {
      "type": "event",
      "name": "PositionUnwound",
      "inputs": [
        {
          "name": "perpId",
          "type": "uint256",
          "indexed": false,
          "internalType": "uint256"
        },
        {
          "name": "accountId",
          "type": "uint256",
          "indexed": false,
          "internalType": "uint256"
        },
        {
          "name": "markPricePNS",
          "type": "uint256",
          "indexed": false,
          "internalType": "uint256"
        },
        {
          "name": "positionType",
          "type": "uint8",
          "indexed": false,
          "internalType": "enum PositionEnum"
        },
        {
          "name": "pricePNS",
          "type": "uint256",
          "indexed": false,
          "internalType": "uint256"
        },
        {
          "name": "lotLNS",
          "type": "uint256",
          "indexed": false,
          "internalType": "uint256"
        },
        {
          "name": "depositCNS",
          "type": "uint256",
          "indexed": false,
          "internalType": "uint256"
        },
        {
          "name": "positionFmvCNS",
          "type": "int256",
          "indexed": false,
          "internalType": "int256"
        },
        {
          "name": "paymentCNS",
          "type": "uint256",
          "indexed": false,
          "internalType": "uint256"
        },
        {
          "name": "balanceCNS",
          "type": "uint256",
          "indexed": false,
          "internalType": "uint256"
        }
      ],
      "anonymous": false
    },
    {
      "type": "event",
      "name": "PositionUnwoundWithoutPayment",
      "inputs": [
        {
          "name": "perpId",
          "type": "uint256",
          "indexed": false,
          "internalType": "uint256"
        },
        {
          "name": "accountId",
          "type": "uint256",
          "indexed": false,
          "internalType": "uint256"
        },
        {
          "name": "markPricePNS",
          "type": "uint256",
          "indexed": false,
          "internalType": "uint256"
        },
        {
          "name": "positionType",
          "type": "uint8",
          "indexed": false,
          "internalType": "enum PositionEnum"
        },
        {
          "name": "pricePNS",
          "type": "uint256",
          "indexed": false,
          "internalType": "uint256"
        },
        {
          "name": "lotLNS",
          "type": "uint256",
          "indexed": false,
          "internalType": "uint256"
        },
        {
          "name": "depositCNS",
          "type": "uint256",
          "indexed": false,
          "internalType": "uint256"
        },
        {
          "name": "positionFmvCNS",
          "type": "int256",
          "indexed": false,
          "internalType": "int256"
        },
        {
          "name": "amountOwedCNS",
          "type": "uint256",
          "indexed": false,
          "internalType": "uint256"
        }
      ],
      "anonymous": false
    },
    {
      "type": "event",
      "name": "PostOrderUnderMinimum",
      "inputs": [
        {
          "name": "orderAmountCNS",
          "type": "uint256",
          "indexed": false,
          "internalType": "uint256"
        },
        {
          "name": "minAmountCNS",
          "type": "uint256",
          "indexed": false,
          "internalType": "uint256"
        }
      ],
      "anonymous": false
    },
    {
      "type": "event",
      "name": "PriceAdministratorUpdated",
      "inputs": [
        {
          "name": "priceAdministrator",
          "type": "address",
          "indexed": false,
          "internalType": "address"
        },
        {
          "name": "added",
          "type": "bool",
          "indexed": false,
          "internalType": "bool"
        }
      ],
      "anonymous": false
    },
    {
      "type": "event",
      "name": "PriceMaxAgeUpdated",
      "inputs": [
        {
          "name": "perpId",
          "type": "uint256",
          "indexed": false,
          "internalType": "uint256"
        },
        {
          "name": "maxAgeSec",
          "type": "uint256",
          "indexed": false,
          "internalType": "uint256"
        }
      ],
      "anonymous": false
    },
    {
      "type": "event",
      "name": "PriceOutOfRange",
      "inputs": [
        {
          "name": "minPricePNS",
          "type": "uint256",
          "indexed": false,
          "internalType": "uint256"
        },
        {
          "name": "maxPricePNS",
          "type": "uint256",
          "indexed": false,
          "internalType": "uint256"
        }
      ],
      "anonymous": false
    },
    {
      "type": "event",
      "name": "PriceSetDuringTriggerExec",
      "inputs": [
        {
          "name": "triggerPricePNS",
          "type": "uint256",
          "indexed": false,
          "internalType": "uint256"
        }
      ],
      "anonymous": false
    },
    {
      "type": "event",
      "name": "PriceTolUpdated",
      "inputs": [
        {
          "name": "perpId",
          "type": "uint256",
          "indexed": false,
          "internalType": "uint256"
        },
        {
          "name": "tolPer100k",
          "type": "uint256",
          "indexed": false,
          "internalType": "uint256"
        }
      ],
      "anonymous": false
    },
    {
      "type": "event",
      "name": "ProtocolBalanceDeposit",
      "inputs": [
        {
          "name": "amountCNS",
          "type": "uint256",
          "indexed": false,
          "internalType": "uint256"
        }
      ],
      "anonymous": false
    },
    {
      "type": "event",
      "name": "ProtocolBalanceWithdraw",
      "inputs": [
        {
          "name": "amountCNS",
          "type": "uint256",
          "indexed": false,
          "internalType": "uint256"
        }
      ],
      "anonymous": false
    },
    {
      "type": "event",
      "name": "RecycleBalanceInsufficientSevere",
      "inputs": [
        {
          "name": "accountId",
          "type": "uint256",
          "indexed": false,
          "internalType": "uint256"
        },
        {
          "name": "perpId",
          "type": "uint256",
          "indexed": false,
          "internalType": "uint256"
        },
        {
          "name": "orderId",
          "type": "uint256",
          "indexed": false,
          "internalType": "uint256"
        },
        {
          "name": "recycleFeeCNS",
          "type": "uint256",
          "indexed": false,
          "internalType": "uint256"
        },
        {
          "name": "recycleBalanceCNS",
          "type": "uint256",
          "indexed": false,
          "internalType": "uint256"
        }
      ],
      "anonymous": false
    },
    {
      "type": "event",
      "name": "RecycleFeeToAccount",
      "inputs": [
        {
          "name": "accountId",
          "type": "uint256",
          "indexed": false,
          "internalType": "uint256"
        },
        {
          "name": "perpId",
          "type": "uint256",
          "indexed": false,
          "internalType": "uint256"
        },
        {
          "name": "orderId",
          "type": "uint256",
          "indexed": false,
          "internalType": "uint256"
        },
        {
          "name": "recycleFeeCNS",
          "type": "uint256",
          "indexed": false,
          "internalType": "uint256"
        },
        {
          "name": "recycleBalanceCNS",
          "type": "uint256",
          "indexed": false,
          "internalType": "uint256"
        }
      ],
      "anonymous": false
    },
    {
      "type": "event",
      "name": "RecycleFeeToProtocol",
      "inputs": [
        {
          "name": "perpId",
          "type": "uint256",
          "indexed": false,
          "internalType": "uint256"
        },
        {
          "name": "orderId",
          "type": "uint256",
          "indexed": false,
          "internalType": "uint256"
        },
        {
          "name": "recycleFeeCNS",
          "type": "uint256",
          "indexed": false,
          "internalType": "uint256"
        },
        {
          "name": "recycleBalanceCNS",
          "type": "uint256",
          "indexed": false,
          "internalType": "uint256"
        }
      ],
      "anonymous": false
    },
    {
      "type": "event",
      "name": "RecycleFeeUpdated",
      "inputs": [
        {
          "name": "recycleFeeCNS",
          "type": "uint256",
          "indexed": false,
          "internalType": "uint256"
        }
      ],
      "anonymous": false
    },
    {
      "type": "event",
      "name": "ReportAgeExceedsLastUpdate",
      "inputs": [
        {
          "name": "perpId",
          "type": "uint256",
          "indexed": false,
          "internalType": "uint256"
        },
        {
          "name": "lastUpdateTimestamp",
          "type": "uint256",
          "indexed": false,
          "internalType": "uint256"
        },
        {
          "name": "reportValidFromTimestamp",
          "type": "uint256",
          "indexed": false,
          "internalType": "uint256"
        }
      ],
      "anonymous": false
    },
    {
      "type": "event",
      "name": "ReportExpiresTooSoon",
      "inputs": [
        {
          "name": "perpId",
          "type": "uint256",
          "indexed": false,
          "internalType": "uint256"
        },
        {
          "name": "expiresAt",
          "type": "uint256",
          "indexed": false,
          "internalType": "uint256"
        },
        {
          "name": "minRequired",
          "type": "uint256",
          "indexed": false,
          "internalType": "uint256"
        }
      ],
      "anonymous": false
    },
    {
      "type": "event",
      "name": "ReportFromFuture",
      "inputs": [
        {
          "name": "perpId",
          "type": "uint256",
          "indexed": false,
          "internalType": "uint256"
        },
        {
          "name": "reportTimestamp",
          "type": "uint256",
          "indexed": false,
          "internalType": "uint256"
        },
        {
          "name": "blockTimestamp",
          "type": "uint256",
          "indexed": false,
          "internalType": "uint256"
        }
      ],
      "anonymous": false
    },
    {
      "type": "event",
      "name": "ReportPriceIsNegative",
      "inputs": [
        {
          "name": "perpId",
          "type": "uint256",
          "indexed": false,
          "internalType": "uint256"
        },
        {
          "name": "reportPrice",
          "type": "int256",
          "indexed": false,
          "internalType": "int256"
        }
      ],
      "anonymous": false
    },
    {
      "type": "event",
      "name": "TakerFeeUpdated",
      "inputs": [
        {
          "name": "perpId",
          "type": "uint256",
          "indexed": false,
          "internalType": "uint256"
        },
        {
          "name": "takerFeePer100K",
          "type": "uint256",
          "indexed": false,
          "internalType": "uint256"
        }
      ],
      "anonymous": false
    },
    {
      "type": "event",
      "name": "TakerOrderFilled",
      "inputs": [
        {
          "name": "entryPricePNS",
          "type": "uint256",
          "indexed": false,
          "internalType": "uint256"
        },
        {
          "name": "collatPricePNS",
          "type": "uint256",
          "indexed": false,
          "internalType": "uint256"
        },
        {
          "name": "pnlPricePNS",
          "type": "uint256",
          "indexed": false,
          "internalType": "uint256"
        },
        {
          "name": "lotLNS",
          "type": "uint256",
          "indexed": false,
          "internalType": "uint256"
        },
        {
          "name": "feeCNS",
          "type": "uint256",
          "indexed": false,
          "internalType": "uint256"
        },
        {
          "name": "amountCNS",
          "type": "int256",
          "indexed": false,
          "internalType": "int256"
        },
        {
          "name": "balanceCNS",
          "type": "uint256",
          "indexed": false,
          "internalType": "uint256"
        }
      ],
      "anonymous": false
    },
    {
      "type": "event",
      "name": "ToleranceAdministratorUpdated",
      "inputs": [
        {
          "name": "toleranceAdministrator",
          "type": "address",
          "indexed": false,
          "internalType": "address"
        },
        {
          "name": "added",
          "type": "bool",
          "indexed": false,
          "internalType": "bool"
        }
      ],
      "anonymous": false
    },
    {
      "type": "event",
      "name": "TransferAccountToProtocol",
      "inputs": [
        {
          "name": "accountId",
          "type": "uint256",
          "indexed": false,
          "internalType": "uint256"
        },
        {
          "name": "amountCNS",
          "type": "uint256",
          "indexed": false,
          "internalType": "uint256"
        },
        {
          "name": "balanceCNS",
          "type": "uint256",
          "indexed": false,
          "internalType": "uint256"
        }
      ],
      "anonymous": false
    },
    {
      "type": "event",
      "name": "TransferPerpInsToProtocol",
      "inputs": [
        {
          "name": "perpId",
          "type": "uint256",
          "indexed": false,
          "internalType": "uint256"
        },
        {
          "name": "amountCNS",
          "type": "uint256",
          "indexed": false,
          "internalType": "uint256"
        }
      ],
      "anonymous": false
    },
    {
      "type": "event",
      "name": "TransferPerpPosToProtocol",
      "inputs": [
        {
          "name": "perpId",
          "type": "uint256",
          "indexed": false,
          "internalType": "uint256"
        },
        {
          "name": "amountCNS",
          "type": "uint256",
          "indexed": false,
          "internalType": "uint256"
        }
      ],
      "anonymous": false
    },
    {
      "type": "event",
      "name": "TransferProtocolToAccount",
      "inputs": [
        {
          "name": "accountId",
          "type": "uint256",
          "indexed": false,
          "internalType": "uint256"
        },
        {
          "name": "amountCNS",
          "type": "uint256",
          "indexed": false,
          "internalType": "uint256"
        },
        {
          "name": "balanceCNS",
          "type": "uint256",
          "indexed": false,
          "internalType": "uint256"
        }
      ],
      "anonymous": false
    },
    {
      "type": "event",
      "name": "TransferProtocolToPerp",
      "inputs": [
        {
          "name": "perpId",
          "type": "uint256",
          "indexed": false,
          "internalType": "uint256"
        },
        {
          "name": "amountCNS",
          "type": "uint256",
          "indexed": false,
          "internalType": "uint256"
        },
        {
          "name": "toInsuranceFund",
          "type": "bool",
          "indexed": false,
          "internalType": "bool"
        }
      ],
      "anonymous": false
    },
    {
      "type": "event",
      "name": "TransferProtocolToRecycleBal",
      "inputs": [
        {
          "name": "amountCNS",
          "type": "uint256",
          "indexed": false,
          "internalType": "uint256"
        }
      ],
      "anonymous": false
    },
    {
      "type": "event",
      "name": "TriggerDescIdTooLow",
      "inputs": [
        {
          "name": "lastTriggerDescId",
          "type": "uint256",
          "indexed": false,
          "internalType": "uint256"
        }
      ],
      "anonymous": false
    },
    {
      "type": "event",
      "name": "TriggerOrderExecution",
      "inputs": [],
      "anonymous": false
    },
    {
      "type": "event",
      "name": "TriggerOrderRequest",
      "inputs": [
        {
          "name": "triggerPricePNS",
          "type": "uint256",
          "indexed": false,
          "internalType": "uint256"
        },
        {
          "name": "triggerPriceCondition",
          "type": "uint8",
          "indexed": false,
          "internalType": "enum TriggerPriceConditionEnum"
        },
        {
          "name": "triggerRequestId",
          "type": "uint256",
          "indexed": false,
          "internalType": "uint256"
        },
        {
          "name": "triggerPositionId",
          "type": "uint256",
          "indexed": false,
          "internalType": "uint256"
        }
      ],
      "anonymous": false
    },
    {
      "type": "event",
      "name": "UnableToCancelOrder",
      "inputs": [
        {
          "name": "perpId",
          "type": "uint256",
          "indexed": false,
          "internalType": "uint256"
        },
        {
          "name": "orderId",
          "type": "uint256",
          "indexed": false,
          "internalType": "uint256"
        }
      ],
      "anonymous": false
    },
    {
      "type": "event",
      "name": "UnityDescentThreshUpdated",
      "inputs": [
        {
          "name": "perpId",
          "type": "uint256",
          "indexed": false,
          "internalType": "uint256"
        },
        {
          "name": "threshHdths",
          "type": "uint256",
          "indexed": false,
          "internalType": "uint256"
        }
      ],
      "anonymous": false
    },
    {
      "type": "event",
      "name": "UnspecifiedCollateral",
      "inputs": [],
      "anonymous": false
    },
    {
      "type": "event",
      "name": "UnwindCompleted",
      "inputs": [
        {
          "name": "perpId",
          "type": "uint256",
          "indexed": false,
          "internalType": "uint256"
        },
        {
          "name": "positionsUnwound",
          "type": "uint256",
          "indexed": false,
          "internalType": "uint256"
        },
        {
          "name": "perpPositionBalanceCNS",
          "type": "uint256",
          "indexed": false,
          "internalType": "uint256"
        },
        {
          "name": "insuranceBalanceCNS",
          "type": "uint256",
          "indexed": false,
          "internalType": "uint256"
        }
      ],
      "anonymous": false
    },
    {
      "type": "event",
      "name": "UnwindContractTrigger",
      "inputs": [
        {
          "name": "perpId",
          "type": "uint256",
          "indexed": false,
          "internalType": "uint256"
        }
      ],
      "anonymous": false
    },
    {
      "type": "event",
      "name": "UnwindInitializationCleared",
      "inputs": [
        {
          "name": "perpId",
          "type": "uint256",
          "indexed": false,
          "internalType": "uint256"
        }
      ],
      "anonymous": false
    },
    {
      "type": "event",
      "name": "UnwindInitialized",
      "inputs": [
        {
          "name": "perpId",
          "type": "uint256",
          "indexed": false,
          "internalType": "uint256"
        },
        {
          "name": "sumPositiveFmvCNS",
          "type": "uint256",
          "indexed": false,
          "internalType": "uint256"
        }
      ],
      "anonymous": false
    },
    {
      "type": "event",
      "name": "UnwindInsufficientBalance",
      "inputs": [
        {
          "name": "perpId",
          "type": "uint256",
          "indexed": false,
          "internalType": "uint256"
        },
        {
          "name": "accountId",
          "type": "uint256",
          "indexed": false,
          "internalType": "uint256"
        },
        {
          "name": "perpPositionBalanceCNS",
          "type": "uint256",
          "indexed": false,
          "internalType": "uint256"
        },
        {
          "name": "paymentCNS",
          "type": "uint256",
          "indexed": false,
          "internalType": "uint256"
        }
      ],
      "anonymous": false
    },
    {
      "type": "event",
      "name": "UnwindIterationCompleted",
      "inputs": [
        {
          "name": "perpId",
          "type": "uint256",
          "indexed": false,
          "internalType": "uint256"
        },
        {
          "name": "positionsUnwound",
          "type": "uint256",
          "indexed": false,
          "internalType": "uint256"
        },
        {
          "name": "perpPositionBalanceCNS",
          "type": "uint256",
          "indexed": false,
          "internalType": "uint256"
        },
        {
          "name": "insuranceBalanceCNS",
          "type": "uint256",
          "indexed": false,
          "internalType": "uint256"
        }
      ],
      "anonymous": false
    },
    {
      "type": "event",
      "name": "UnwindPreparationCleared",
      "inputs": [
        {
          "name": "perpId",
          "type": "uint256",
          "indexed": false,
          "internalType": "uint256"
        }
      ],
      "anonymous": false
    },
    {
      "type": "event",
      "name": "UnwindPrepared",
      "inputs": [
        {
          "name": "perpId",
          "type": "uint256",
          "indexed": false,
          "internalType": "uint256"
        }
      ],
      "anonymous": false
    },
    {
      "type": "event",
      "name": "UnwindProcessInProgress",
      "inputs": [
        {
          "name": "perpId",
          "type": "uint256",
          "indexed": false,
          "internalType": "uint256"
        }
      ],
      "anonymous": false
    },
    {
      "type": "event",
      "name": "UpdateOracleFailed",
      "inputs": [
        {
          "name": "perpId",
          "type": "uint256",
          "indexed": false,
          "internalType": "uint256"
        }
      ],
      "anonymous": false
    },
    {
      "type": "event",
      "name": "Upgraded",
      "inputs": [
        {
          "name": "implementation",
          "type": "address",
          "indexed": true,
          "internalType": "address"
        }
      ],
      "anonymous": false
    },
    {
      "type": "event",
      "name": "ValueExceedsMaximum",
      "inputs": [
        {
          "name": "value",
          "type": "uint256",
          "indexed": false,
          "internalType": "uint256"
        },
        {
          "name": "maximum",
          "type": "uint256",
          "indexed": false,
          "internalType": "uint256"
        }
      ],
      "anonymous": false
    },
    {
      "type": "event",
      "name": "WRLSMinWithdrawLimitUpdated",
      "inputs": [
        {
          "name": "limitCNS",
          "type": "uint256",
          "indexed": false,
          "internalType": "uint256"
        }
      ],
      "anonymous": false
    },
    {
      "type": "event",
      "name": "WRLSThousandthsTvlUpdated",
      "inputs": [
        {
          "name": "thousandthsTvl",
          "type": "uint256",
          "indexed": false,
          "internalType": "uint256"
        }
      ],
      "anonymous": false
    },
    {
      "type": "event",
      "name": "WhitelistAddress",
      "inputs": [
        {
          "name": "addr",
          "type": "address",
          "indexed": true,
          "internalType": "address"
        },
        {
          "name": "whitelisted",
          "type": "bool",
          "indexed": false,
          "internalType": "bool"
        }
      ],
      "anonymous": false
    },
    {
      "type": "event",
      "name": "WhitelistingEnabledChanged",
      "inputs": [
        {
          "name": "enabled",
          "type": "bool",
          "indexed": false,
          "internalType": "bool"
        }
      ],
      "anonymous": false
    },
    {
      "type": "event",
      "name": "WithdrawRateLimitBypassSet",
      "inputs": [
        {
          "name": "addr",
          "type": "address",
          "indexed": true,
          "internalType": "address"
        },
        {
          "name": "enabled",
          "type": "bool",
          "indexed": false,
          "internalType": "bool"
        }
      ],
      "anonymous": false
    },
    {
      "type": "event",
      "name": "WithdrawRateLimitForceReset",
      "inputs": [
        {
          "name": "newExpiryBlock",
          "type": "uint256",
          "indexed": false,
          "internalType": "uint256"
        },
        {
          "name": "newLimitCNS",
          "type": "uint256",
          "indexed": false,
          "internalType": "uint256"
        },
        {
          "name": "perBlockCNS",
          "type": "uint256",
          "indexed": false,
          "internalType": "uint256"
        }
      ],
      "anonymous": false
    },
    {
      "type": "event",
      "name": "WithdrawRateLimitReset",
      "inputs": [
        {
          "name": "newExpiryBlock",
          "type": "uint256",
          "indexed": false,
          "internalType": "uint256"
        },
        {
          "name": "newLimitCNS",
          "type": "uint256",
          "indexed": false,
          "internalType": "uint256"
        },
        {
          "name": "perBlockCNS",
          "type": "uint256",
          "indexed": false,
          "internalType": "uint256"
        }
      ],
      "anonymous": false
    },
    {
      "type": "event",
      "name": "WrongAccountForOrder",
      "inputs": [
        {
          "name": "perpId",
          "type": "uint256",
          "indexed": false,
          "internalType": "uint256"
        },
        {
          "name": "orderId",
          "type": "uint256",
          "indexed": false,
          "internalType": "uint256"
        },
        {
          "name": "accountId",
          "type": "uint256",
          "indexed": false,
          "internalType": "uint256"
        }
      ],
      "anonymous": false
    }
  ],
  "bytecode": {
    "object": "0x60a080604052346100dc57306080525f549060ff8260081c1661008a575060ff80821603610050575b6040516201c6069081620000e18239608051818181615ba5015281816160100152616a080152f35b60ff90811916175f557f7f26b83ff96e1f2b6a682f133852f6798a09c465da95921460cefb3847402498602060405160ff8152a15f610028565b62461bcd60e51b815260206004820152602760248201527f496e697469616c697a61626c653a20636f6e747261637420697320696e697469604482015266616c697a696e6760c81b6064820152608490fd5b5f80fdfe610cc080604052600436101562000014575f80fd5b5f905f3560e01c908162092cce1462007b5a575080630189a2b71462007ad057806303cfe83c1462007a2457806305aca14114620079ee578063075367f614620079445780630a039fbd14620078fe5780630a2eb30114620078bd5780630d3e87a7146200789f5780630e517f4114620077df5780630f03e4c314620077b35780630f6795d914620077245780631201415614620076635780631217be6714620076225780631275d14c14620075ed57806312e8eb2c146200753c57806316a0659314620074a957806316a483ea146200748b578063171a5b81146200721f578063182b01f214620071d55780631973c61914620071975780631df87ade146200712957806320c801d21462007097578063229c24921462006ff9578063252c35941462006f6e5780632709b7461462006eda578063279289e91462006e4d5780632f32509b1462006d4657806332b9203b1462006c825780633659cfe614620069dd57806338ecd885146200690557806339435dac1462006875578063396d7e4714620068365780633a63dabe14620068185780633bf45a2f14620067d75780634119f93014620067a257806343559bbf146200676057806345c8c92414620066c55780634a9a4158146200663b5780634b8344fb14620065725780634d3282b414620064fb5780634d574c5614620064605780634d8dc98514620062ac5780634f1ef2861462005fc957806350ef5c351462005e5c5780635180d5a81462005c6157806352d1902d1462005b89578063540561191462005b0f578063541b04e91462005aad5780635495086a1462005a3d57806358087a7414620059b8578063586d92ca14620059265780635b0c29eb14620059025780635bf9264c146200589d5780635e1a3573146200579d5780635f40c1f7146200573957806360ad17fd14620055da5780636112fe2e14620054d057806361bd6f4414620053e4578063653a6bd7146200538d5780636728641b146200533c5780636825e9e514620052b35780636975215914620051735780636debf8fa146200511f578063715018a614620050b2578063751de4211462004edc578063768f68551462004e4157806379609c111462004cc65780637962f9101462004bc157806379ba50971462004b265780637cca3b0614620048f15780637d45678e146200484e5780637dd7e75914620048165780637ddbdc2a146200474e57806387c95058146200468c578063893d20e814620042425780638a92464014620045b65780638bc5b3c514620045425780638bcf1b2714620043ed5780638c03116414620043235780638c1c2cef146200426a5780638da5cb5b14620042425780638f3ffc8514620041ab57806392f54b3a14620038a35780639a6d7630146200384e5780639b170bd114620038145780639d2ec18814620037475780639e430eda14620035355780639fc8afd714620034a15780639fffdfe2146200347a578063a5e9c41114620033bb578063a87041d1146200337a578063a971b6d41462003353578063a9bd5cee1462003291578063ae0d44421462003250578063af37c07d146200315d578063b10824861462003096578063b216d0d2146200301a578063b5cd004e1462002f68578063b5fcf7621462002f3c578063b839a8c41462002e82578063ba53027d1462002e3e578063bad4a01f1462002dfc578063bbac6c951462002b40578063bbf979ac1462002a98578063be0783f51462002a24578063be70473d1462002944578063bed97b7114620028de578063c0a44efc1462002883578063c2852f381462002839578063c4d66de8146200257e578063c6efcd4314620024bc578063c7ff15841462002493578063cab1391514620022c2578063d0b17de1146200218a578063d360dd31146200211a578063d3b8c49d1462002071578063d541abc11462001fd9578063d6f34bd61462001f5e578063d780ece81462001ed3578063d8b442681462001e92578063d936547e1462001e51578063dbfbf7e81462001e10578063dd0a3e2b1462001d4d578063ddac1cde14620018c9578063dec92b6914620018a9578063e2e1cb5714620017fe578063e30c397814620017d5578063e548bb571462001724578063e5631c9e1462001659578063e68073c3146200159d578063e74e2c9b146200153a578063eaadbbef1462001513578063ebcf1656146200148b578063ec4cba831462001441578063ecdff22e1462001349578063ed6760fe1462001257578063edb1314e1462001222578063efb62904146200115a578063f28b98f314620010ba578063f2fde38b1462001044578063f769f0d31462000f8b578063fb05acb71462000978578063fb455f6b14620009075763fe37fe1214620006df575f80fd5b346200090457620006f036620080cc565b919081809381620007116200070682956200a6c6565b92600984016200bfe0565b508060108401915b620007435760408051888152602081018a90529081018690526060810187905280608081015b0390f35b825280602052604082205461ffff8160c81c169663ffffffff82169182855260d560205260ff604086205460a01c166200077d8162008010565b620008f95764ffffffffff8160401c169260ff8260201c1690620007a18262010513565b62000830575b5063ffffffff620007bc620007c79262010541565b9260781c166200fcac565b620007fc5715620007e6578791620007df9162008d7d565b9662000719565b96948591620007f59162008d7d565b9462000719565b97989097156200081a578891620008139162008d7d565b9762000719565b97958691620008299162008d7d565b9562000719565b86526012870160205260408620620008488262008010565b60028214905464ffffffffff8160b81c1691821515918262000890575b505015620008835780851115620007a757935063ffffffff620007a7565b5050509680915062000719565b9091508180620008dd575b8215620008ad575b50505f8062000865565b15915081620008c0575b505f80620008a3565b6001915060401c60ff16620008d58162008312565b145f620008b7565b915060ff8160401c16620008f18162008312565b15916200089b565b509680915062000719565b80fd5b503462000904576200091936620080cc565b919062ffffff83116200095e57602092600c6200093a62000941936200a6c6565b0162010402565b905f19821462000955575b50604051908152f35b90505f6200094c565b5060449163c6ebaaa160e01b825260045262ffffff602452fd5b503462000904576200098a366200815a565b60a09291925260c05233825260dc60205260ff6040832054161562000f7857620009b36200ab42565b62000f6957620009c560c0516200a6c6565b9160ff835460c01c1660058110158062000f555760028214158062000f47575b62000f275762000f135760030362000ec3575b6001600160501b03600384015416600484015460805260058401548454839163ffffffff601188015416925b8315158062000eb9575b1562000eac5783865260128801602052604086209380875260d5602052604087209084865462000ab362000a9e8d60ff8560b81c169060ff8660b01c169064ffffffffff8660b81c169063ffffffff8760981c16908760e01c9060ff8960401c169063ffffffff8b16906200bf55565b50506001600160501b038360481c166200c1f5565b8a918280831362000c3d575b9362000b819363ffffffff9362000b8e979362000b949a99975f1462000b9a57917f2ce44e296cf9f36d06b56fb77dfebb744f984a66a7a32a9c1982adde5719a10893916001600160501b0361012094886040519560c051875289602088015216604086015262000b3660ff8260401c1662008312565b60ff8160401c166060860152888160981c16608086015264ffffffffff8160b81c1660a086015260481c1660c084015260e0830152610100820152a15b9854169760118d0162013af6565b600560c051910162013c02565b62008e67565b62000a24565b610140927f8e75a224410b0b5b54b88738c69eb996a4225e1720432903a1b03693c3fcb6f894926001600160501b03808b541693896040519660c05188528a602089015216604087015262000bf560ff8260401c1662008312565b60ff8160401c166060870152898160981c16608087015264ffffffffff8160b81c1660a087015260481c1660c085015260e0840152610100830152610120820152a162000b73565b608051909450919250901562000ea55762000c6660805162000c60848a620087a4565b62008d3c565b80938b82115f1462000e67575060019060a0511562000cac5750938862000b9497969462000b819463ffffffff9462000b8e985b9397999a509397509350935062000abf565b969a9b9d9c50505050509450507f8c6452308f4aa5da3dd7582bf4f08c41c0bd9378806d96ce939fbddad72bf926925062000d0a9150604051918291878660c051859094939260609260808301968352602083015260408201520152565b0390a15b1562000d8a57600392909201805469ffffffffffffffffffff19166001600160501b0383811691909117918290556040805160c0518152602081019590955284019290925260501c1660608201527f2a562f7b66b9d232c3f7a19384fbcff970c9fec0f42ac7ef9ea592fbcb848d209080608081015b0390a180f35b60038301546040805160c05181526020810193909352820183905260501c6001600160501b0316606082018190529162000e04917fa9b78fd50db3a3e2b070cb8d415b5a3cd12f80614e74626415f2bcf20ae81d0c9080608081015b0390a160038401805469ffffffffffffffffffff191690556200c0bd565b8062000e3d575b50600581018290556004810182905560028101805469ffffffffffffffffffff19169055805460ff60c01b1916905580f35b60038201805469ffffffffffffffffffff60501b1916905562000e60906200c0bd565b5f62000e0b565b919294909a62000e7d8c8b9299989699620087ea565b9b62000e8a90866200b49e565b62000b949762000b8e9662000b819563ffffffff9562000c9a565b8a62000c66565b9394969550505062000d0e565b5086811062000a2e565b6001600160501b036003840162000ef582825460501c1669ffffffffffffffffffff60501b19835416835586620101e8565b54166005840155600360c01b60ff60c01b19845416178355620009f8565b634e487b7160e01b82526021600452602482fd5b6313295a4960e11b835260c05160045260448362000f458462007ff3565bfd5b5050816003821415620009e5565b634e487b7160e01b83526021600452602483fd5b630b15863d60e41b8252600482fd5b631d37e03560e31b825233600452602482fd5b5034620009045762000f9d36620080cc565b62000faa9291926200ab42565b62000f695762000fba336200b25f565b80835260d56020526040832060ff815460a01c1662000fd98162008010565b8062001025575062000fff62000fef866200a6c6565b9560ff875460c01c16906200b2b7565b508215620010165762001013939462010227565b80f35b631fccd51f60e01b8452600484fd5b63e0860e5f60e01b855260249085906200103f8162008010565b600452fd5b50346200090457602036600319011262000904576001600160a01b036200106a620080b5565b620010746200a717565b16806001600160a01b031960655416176065556001600160a01b03603354167f38d16b8cac22d99fc7c124b9cd0de2d3fa1faef420bfe791d8c362d765e227008380a380f35b5034620009045760203660031901126200090457600435620010db6200a717565b6309c3d8f080821162001140575060c954620010f66200ab26565b91612710613fff9104831b921b19161760c9557f8ad800de6b48db2a4430821a66e9ea34dee8c66fea63f8a83559bf91279cf77c6020620011366200b4f0565b604051908152a180f35b60649291630c8f0a6960e41b835260045281602452604452fd5b503462000904576200118760096200117236620082f7565b9291620011819491946200a717565b6200a6c6565b016200119483826200d935565b60028210801562001217575b620011f95791604091837fbb5907b6810f0c2966db8e0939fbf4a19724f4e58e2bfd1d15195fdf8b4908a2945468ff000000000000000083861b169068ff0000000000000000191617905582519182526020820152a180f35b630c8f0a6960e41b8452600482905260026024526009604452606484fd5b5060098211620011a0565b5034620009045780600319360112620009045760209060c95490506c1fffffffffffffffffffffffff6040519160701c168152f35b503462000904576200126936620080cc565b620012736200a717565b6200127e826200a6c6565b6001821080156200133e575b620013225760020160ff815460d81c16808311156200130b575080547fffffff00ffffffffffffffffffffffffffffffffffffffffffffffffffffffff1660e083901b60ff60e01b161790556040805192835260208301919091527fb0459c2e01b889e7e78bb7d1400cb3049a1d98ef3d6949439b173c5ffba92dd191a180f35b630ba8360160e41b85526004526024829052604484fd5b60648483630c8f0a6960e41b8252600452600160245281604452fd5b50606482116200128a565b5034620009045760603660031901126200090457600435906024356044356001600160401b0381116200143d5762001386903690600401620085ed565b93909333845260dc60205260ff604085205416156200142a57620013a96200ab42565b6200141b577f8197894e93a93f60bb4024782ca25f3402b91b549a53da47eae6287ce13d7073939462000d8491620013e1846200a6c6565b506004620013ef866200a770565b01848852602052866040812055604051948594855260208501526060604085015260608401916200a084565b630b15863d60e41b8452600484fd5b631d37e03560e31b845233600452602484fd5b8280fd5b503462000904576020366003190112620009045733815260e360205260ff604082205416156200147857620010136004356200a1ca565b636cfd9ee160e01b815233600452602490fd5b5034620009045760203660031901126200090457600435620014ac6200ab42565b62000f695760407f25cb41632994165977216ca86070cf4f14c696e259419044e9d2de44c5955c5c91620014e0336200b25f565b6004620014ed826200a770565b620014f8846200a6c6565b5083875201602052848381205582519182526020820152a180f35b50346200090457620010136200152936620080cc565b90620015346200a717565b6200a18f565b503462000904577f6bf5f38f4e94f47ae7a4d6e56dbf388c856f890b5f0f2808b66914710b0266ca60406200156f36620080cc565b620015796200a717565b6200158f8162001589846200a6c6565b6200d849565b82519182526020820152a180f35b50346200090457620015af366200815a565b90620015ba6200a717565b60c9546001600160701b0316818110620016455750916060917fe3bcf60a5994e7328c2ddfbbf2c18d6e57c1cc69502d1ee3900c1e1f08ca555d9362001600836200a6c6565b6200160b826200b36a565b81831562001634576200161e9162010204565b604051928352602083015215156040820152a180f35b6200163f91620101e8565b6200161e565b62fae2d560e21b8552600452602452604483fd5b50346200090457602036600319011262000904576004356200167a6200a717565b62001685816200a6c6565b805460ff8160c01c166005811015620017105780620016f4575091602091620016d963ffffffff7f398693be005c0e64e1ef16ed7453155535d078a14ebb77360c1409b8e6f63c209560c81c1683620101cc565b600160c01b60ff60c01b19825416179055604051908152a180f35b8462000f4560449286630d76efe360e41b845260045262007ff3565b634e487b7160e01b85526021600452602485fd5b50346200090457602036600319011262000904576004356001600160401b038111620017d15736602382011215620017d1578060040135906001600160401b0382116200143d573660248360061b830101116200143d5733835260da60205260ff60408420541615620017be576200179b6200ab42565b620017af579060246200101392016200a384565b630b15863d60e41b8352600483fd5b63a37849fb60e01b835233600452602483fd5b5080fd5b5034620009045780600319360112620009045760206001600160a01b0360655416604051908152f35b503462000904576200181036620080cc565b6200181a6200a717565b62001825826200a6c6565b600281015461ffff8160c81c16808410156200186d57857f9c6091bfb36035e2973fb3ad5c07d8c5d74d0981770feea276a41c4221246f0e604087876200158f81896200d87e565b6040516322b85af560e11b8152600481018690526024810185905260b89290921c61ffff908116604484015216606482015280608481015b0390fd5b50346200090457806003193601126200090457602060cd54604051908152f35b50346200090457620018db366200815a565b6101009291925261012052620018f06200a717565b620018fe610120516200a6c6565b9160ff835460c01c1660058110158062000f555760028214158062001d3f575b62001d205762000f135760030362001cd0575b6001600160501b03600384015416600484015460e05260058401548454839163ffffffff601188015416925b8315158062001cc6575b1562001cb95783865260128801602052604086209380875260d56020526040872090848654620019d762000a9e8d60ff8560b81c169060ff8660b01c169064ffffffffff8660b81c169063ffffffff8760981c16908760e01c9060ff8960401c169063ffffffff8b16906200bf55565b8a918280831362001ac9575b9362001a599363ffffffff9362000b8e979362001a679a99975f1462001a6d57917f2ce44e296cf9f36d06b56fb77dfebb744f984a66a7a32a9c1982adde5719a10893916001600160501b036101209488604051958751875289602088015216604086015262000b3660ff8260401c1662008312565b600561012051910162013c02565b6200195d565b610140927f8e75a224410b0b5b54b88738c69eb996a4225e1720432903a1b03693c3fcb6f894926001600160501b03808b54169389604051966101205188528a602089015216604087015262000bf560ff8260401c1662008312565b60e051909450919250901562001cb25762001aec60e05162000c60848a620087a4565b80938b82115f1462001c745750600190610100511562001b335750938862001a6797969462001a599463ffffffff9462000b8e985b9397999a5093975093509350620019e3565b969a9b9d9c50505050509450507f8c6452308f4aa5da3dd7582bf4f08c41c0bd9378806d96ce939fbddad72bf926925062001b929150604051918291878661012051859094939260609260808301968352602083015260408201520152565b0390a15b1562001c1257600392909201805469ffffffffffffffffffff19166001600160501b03838116919091179182905560408051610120518152602081019590955284019290925260501c1660608201527f2a562f7b66b9d232c3f7a19384fbcff970c9fec0f42ac7ef9ea592fbcb848d2090806080810162000d84565b6003830154604080516101205181526020810193909352820183905260501c6001600160501b0316606082018190529162000e04917fa9b78fd50db3a3e2b070cb8d415b5a3cd12f80614e74626415f2bcf20ae81d0c90806080810162000de6565b919294909a62001c8a8c8b9299989699620087ea565b9b62001c9790866200b49e565b62001a679762000b8e9662001a599563ffffffff9562001b21565b8a62001aec565b9394969550505062001b96565b5086811062001967565b6001600160501b036003840162001d0282825460501c1669ffffffffffffffffffff60501b19835416835586620101e8565b54166005840155600360c01b60ff60c01b1984541617835562001931565b6313295a4960e11b83526101205160045260448362000f458462007ff3565b50508160038214156200191e565b50346200090457604036600319011262000904577fe38e0dbe12c2dcb6ba8e96202e2cdd922095935e5ca1105ddf9e86c7f79df76662001d8c620080b5565b62001d966200812a565b9062001da16200a717565b811562001ded576001600160a01b038116845260dd60205260408420805460ff191660011790555b604080516001600160a01b0390921682529115156020820152908190810162000d84565b6001600160a01b038116845260dd60205260408420805460ff1916905562001dc9565b503462000904576020366003190112620009045760ff60406020926001600160a01b0362001e3d620080b5565b16815260dc84522054166040519015158152f35b503462000904576020366003190112620009045760ff60406020926001600160a01b0362001e7e620080b5565b16815260e084522054166040519015158152f35b503462000904576020366003190112620009045760ff60406020926001600160a01b0362001ebf620080b5565b16815260db84522054166040519015158152f35b503462000904576020366003190112620009045760043562001ef46200a717565b60018110801562001f53575b62001f37576020817fc6edc4969138bba547ff56e984b415e7a1ec1181d6199d6946c48e3a858906369260ce55604051908152a180f35b63034bd7dd60e31b8252600160045260fa602452604452606490fd5b5060fa811162001f00565b503462000904576020366003190112620009045760043562001f7f6200a717565b64e8d4a51000811162001fbe576020817f0fface2454d594caf83c2c1b1f8da428b41a8585fcf72713ea6ce39cd6cba9fc9260cd55604051908152a180f35b6395d41f3f60e01b825260045264e8d4a51000602452604490fd5b5034620009045762001feb36620081e4565b9092919233835260da60205260ff60408420541615620017be576200200f6200ab42565b620017af576103fc84116200205d5783835260d9602052604083209362002036856200b3e0565b6200204b57506009620010139394016200fc5a565b63b934a7fb60e01b8452600452602483fd5b63324f0d9160e21b83526004849052602483fd5b5034620009045760403660031901126200090457600435906001600160401b038211620009045736602383011215620009045781600401356001600160401b038111620017d1573660248260071b85010111620017d157620020d26200812a565b9033835260dc60205260ff604084205416156200210757620020f36200ab42565b620017af576024620010139394016200a2bd565b631d37e03560e31b835233600452602483fd5b50346200090457602036600319011262000904577fa9a3e53f31ef1464015e1b64897b819880bcc9787e25987d6d4336f3613ade2660206001600160a01b0362002163620080b5565b6200216d6200a717565b16806001600160a01b031960ca54161760ca55604051908152a180f35b50346200090457604036600319011262000904576004356001600160401b038111620017d157620021c0903690600401620081b1565b6024356001600160401b038111620022be57620021e2903690600401620081b1565b9091620021ee6200a717565b610102855460ff8160081c161580620022b0575b6200220d906200a24a565b61ffff19161785558181036200229b57845b8181106200225f578561ff001981541681557f7f26b83ff96e1f2b6a682f133852f6798a09c465da95921460cefb3847402498602060405160028152a180f35b80620022946200227360019385896200a12b565b35620022818387896200a12b565b35906200228e816200a6c6565b6200fb44565b016200221f565b633adf150f60e21b8552600452602452604483fd5b50600260ff82161062002202565b8380fd5b5034620009045760203660031901126200090457600435620022e36200d1b8565b620022ed6200ab42565b62000f695733825260df60205260ff604083205416620024805760ff60e154168062002468575b620024555760cd5481106200243f5733825260d660205260408220548062002429575060d7549060018201808311620024155763ffffffff8111620024065790602093620023f99260d75583815260d585528360406001818420019283546bffffffffffffffffffffffff80193360601b16911617845533815260d68852205563ffffffff8085161663ffffffff198254161790557f7325fb14450d3e5eb288c620b4ff1d6b43a41b33b4a4f143ae88cd4c12f99ea360405180620023f0863383602090939291936001600160a01b0360408201951681520152565b0390a16200dbf4565b6001609755604051908152f35b634e5bb58160e01b8452600484fd5b634e487b7160e01b84526011600452602484fd5b630c8c12bd60e31b835233600452602452604482fd5b630cfe73bb60e41b825233600452602452604490fd5b636f8bf18b60e11b825233600452602482fd5b5033825260e060205260ff6040832054161562002314565b6371fa9c9960e01b825233600452602482fd5b503462000904578060031936011262000904576020620024b26200ab42565b6040519015158152f35b50346200090457604036600319011262000904577f42d42feead688fc3d6ed9ec2f9d2082ee29949efea1263eb51fb2f61f1f35c55620024fb620080b5565b620025056200812a565b90620025106200a717565b81156200255b576001600160a01b038116845260e360205260408420805460ff19166001179055604080516001600160a01b0390921682529115156020820152908190810162000d84565b6001600160a01b038116845260e360205260408420805460ff1916905562001dc9565b50346200090457602036600319011262000904576200259c620080b5565b6001600160a01b0382549160ff8360081c1615928380946200282b575b801562002812575b620025cc906200a24a565b60ff19811660011785558362002800575b501690816001600160a01b031960cb54161760cb5560405163313ce56760e01b8152602081600481865afa8015620027f5578490620027b1575b60ff915016916006830362002795576305f5e10060cd55600160d7819055606460ce5564e8d4a5100060d35560e1805460ff1916909117905560c980547ffffffff8001fffffffffffffffffffffffffffffffffffffffffffffffffffff167b0140000000000000000000000000000000000000000000000000000017905583547f7b1f94d30e47df15616bc31716546ce84737fcf471dff8cd336c68fb810d7e6f9161010091620026da9060081c60ff16620026d4816200fbe7565b6200fbe7565b620026e5336200d682565b8554946200270960ff8760081c16620026fe816200fbe7565b620026d4816200fbe7565b600160975560cd5460ce5460d35490620027226200b293565b9260ff60e154169460405196338852602088015260408701526060860152608085015260a084015260c0830152151560e0820152a162002760575080f35b61ff00191681557f7f26b83ff96e1f2b6a682f133852f6798a09c465da95921460cefb3847402498602060405160018152a180f35b630f30f42960e01b845260045260248290526006604452606483fd5b506020813d602011620027ec575b81620027ce6020938362008553565b81010312620022be575160ff81168103620022be5760ff9062002617565b3d9150620027bf565b6040513d86823e3d90fd5b61ffff19166101011784555f620025dd565b50303b158015620025c1575060ff8116600114620025c1565b50600160ff821610620025b9565b503462000904576020366003190112620009045733815260da60205260ff604082205416156200287057620010136004356200a1ca565b63a37849fb60e01b815233600452602490fd5b503462000904576200289536620080cc565b620028a29291926200a717565b620028ad836200a6c6565b63ffffffff815460c81c16620028ca57926200101392936200fb44565b632f74f1cf60e21b83526004849052602483fd5b50346200090457806003193601126200090457620028fb6200a717565b8060cf558060d0558060d1558060d2557f4a1c1830c45941cc05cf110c5d7424a3e493f0e42be2522c05ab26c0221062cf6060604051838152836020820152836040820152a180f35b503462000904576200295636620082b7565b9033845260da60205260ff6040852054161562002a115790918215159190845b82811062002982578580f35b806001600160a01b03620029a46200299e60019487876200a12b565b6200a13c565b16875260e0602052620029c686604089209060ff801983541691151516179055565b6001600160a01b03620029df6200299e8387876200a12b565b167f33e0bf3ce98fac4118d5a0a8fe49e83b6acdfdef32871c9eca20e1528d7701ba6020604051888152a20162002976565b63a37849fb60e01b845233600452602484fd5b503462000904576020366003190112620009045760043562002a456200a717565b6309c3d8f080821162001140575060c954612710613fff920460d51b9160d51b19161760c9557f4151e59ddd8ffe35ce0b539f837d353ed0ff884e058b715910c7f4688a5da7366020620011366200b293565b503462000904576080366003190112620009045733815260dc60205260ff6040822054161562002b2d5762002acc6200ab42565b62002b1e5762002ade6004356200a6c6565b62002afd61ffff600283015460a81c1660ff835460c01c16906200b2b7565b5060643580151581036200143d57620010139160443590602435906200f6d4565b630b15863d60e41b8152600490fd5b631d37e03560e31b815233600452602490fd5b50346200090457604036600319011262000904576004356001600160401b038111620017d15736602382011215620017d1578060040135906001600160401b0382116200143d57602481019036602460c0850283010111620022be5762002ba66200812a565b9162002bb16200ab42565b62002ded5762002bc1336200b25f565b9182865260d560205260ff604087205460a01c1662002be08162008010565b8062002dd35750841562002dbf5781359262002bfc846200a6c6565b9060ff825460c01c169260ff600184015460d01c1690338a5260de60205260ff60408b205416948a5b8a81101562002dbb578062002d70575b62002c428a838b6200b2eb565b62002d6757896040890135801562002d5c57858062002d53575b62002cfb578a8a60a08101359261ffff841162002c9f57918160019695938c8c608062002c98989601359460206060860135950135926200dd19565b0162002c25565b5050509062002ce357907f95d41f3f44becfa47a91cf04138709af8e760c9060dcf6091505be37dce141886040600193815190815261ffff6020820152a162002c98565b6395d41f3f60e01b8d5260045261ffff60245260448cfd5b5062002d3b57604080518a8152336020820152600192917f4cd1188857d86056fa3ff56966c92f1f952217fe7328696137d42b1043a5d91c91a162002c98565b63099a231160e31b8c5260048990523360245260448cfd5b50881562002c5c565b505060019062002c98565b60019062002c98565b60c08102830160240197508735808a0362002d8d575b5062002c35565b9850925050925062002d9f866200a6c6565b9260ff845460c01c1660ff600186015460d01c16925f62002d86565b8b80f35b634e487b7160e01b86526032600452602486fd5b63e0860e5f60e01b875260249087906200103f8162008010565b630b15863d60e41b8552600485fd5b503462000904576020366003190112620009045762002e1a6200d1b8565b62002e246200ab42565b62002b1e5762002e366004356200dbf4565b600160975580f35b5034620009045762002e5036620080cc565b9033835260da60205260ff60408420541615620017be5762002e716200ab42565b620017af579062001013916200a18f565b5034620009045762002e9436620080cc565b62002e9e6200a717565b614e20811162002f2057816040916200158f62002edc7f29246c8aee392e4f61a964c88192adac4afc12ed286fcbd7698783763467475f956200a6c6565b80547fffffffffffffffffffffffff0000ffffffffffffffffffffffffffffffffffff16609084901b73ffff00000000000000000000000000000000000016179055565b60649291634dcc027160e11b8352600452602452614e20604452fd5b5034620009045780600319360112620009045760209060c95490506001600160701b0360405191168152f35b503462000904576020366003190112620009045760043562002f896200a717565b62002f94816200a6c6565b60ff815460c01c16600581101562003006576001810362002fea57507fc5ed7f880900879a894e28cc520c997b23650b24b94faf0b7a4e9621b09dec8b9160209160ff60c01b198154169055604051908152a180f35b8362000f4560449285637edd2a1d60e01b845260045262007ff3565b634e487b7160e01b84526021600452602484fd5b50346200090457608036600319011262000904576044356001600160401b038111620017d15762003050903690600401620081b1565b906200305b6200814a565b9233815260dc60205260ff6040822054161562002b2d576200307c6200ab42565b62002b1e576020620024b28585856024356004356200a151565b50346200090457620030a836620082b7565b9033845260da60205260ff6040852054161562002a115790918215159190845b828110620030d4578580f35b806001600160a01b03620030f06200299e60019487876200a12b565b16875260df6020526200311286604089209060ff801983541691151516179055565b6001600160a01b036200312b6200299e8387876200a12b565b167f78ba4d4e021eac2ff3a6a2337dc61ca2b49986705a2438b5764b9c18bd1c25fd6020604051888152a201620030c8565b503462000904576200316f36620080cc565b91906200317b6200a717565b62003186816200a6c6565b60018410801562003245575b620032295760020160ff815460d81c168085101562003212575080547fffff00ffffffffffffffffffffffffffffffffffffffffffffffffffffffffff1660e885901b60ff60e81b1617905560408051918252602082018490527fbe36b3b0b7a3a58d54c694996c6aadba93761ca8210af4d6b72115c02aa210e491a180f35b63291eed9d60e01b84526004859052602452604483fd5b60648385630c8f0a6960e41b8252600452600160245281604452fd5b506064841162003192565b503462000904576020366003190112620009045760ff60406020926001600160a01b036200327d620080b5565b16815260de84522054166040519015158152f35b50346200090457604036600319011262000904577f6259c67b83c17d274bef178edcf79755337c12fdc6de65b955b5ab3f95e82e05620032d0620080b5565b620032da6200812a565b90620032e56200a717565b811562003330576001600160a01b038116845260db60205260408420805460ff19166001179055604080516001600160a01b0390921682529115156020820152908190810162000d84565b6001600160a01b038116845260db60205260408420805460ff1916905562001dc9565b50346200090457620010136200336936620080cc565b90620033746200a717565b62008cf4565b503462000904576020366003190112620009045760ff60406020926001600160a01b03620033a7620080b5565b16815260dd84522054166040519015158152f35b50346200090457620033cd36620080cc565b620033d76200a717565b620033e2826200a6c6565b60ff815460c01c1660058110156200171057600181036200345e575091818360409360047f7101921841f3f86b1db94836f0b095d276833a7b6669c5d7628161978ae7e686960155780200000000000000000000000000000000000000000000000060ff60c01b1982541617905582519182526020820152a180f35b8462000f4560449286634d3d766360e01b845260045262007ff3565b503462000904578060031936011262000904576020620034996200b4ca565b604051908152f35b5034620009045760a03660031901126200090457620034bf620080a1565b90620034ca6200814a565b6084359081151582036200143d5733835260db60205260ff604084205416156200352257620034f86200ab42565b620017af5762001013929363ffffffff620035156004356200a6c6565b911690602435906200cc20565b636dfc4d6160e11b835233600452602483fd5b5034620009045760403660031901126200090457600435620035566200812a565b620035606200a717565b6200356b826200a6c6565b90815460ff8160c01c16936200358285826200dab7565b508215809581966200371f575b506200361f575b5050156200361757825b600581101562003006579161ffff6002837f2bf3500d8e3b78624f68716bdcfccb30df6b6ef393561a3ffa32e8d357ac7e439560ff60c01b1978ff000000000000000000000000000000000000000000000000604097549260c01b169116178155015460a81c16908251918252156020820152a180f35b6004620035a0565b600284015460f01c60ff16620036f9576001600160a01b0360ca541680158015620036ec575b620036cc575063ffffffff8260401c1615620036ba57505b63ffffffff8160c81c161562003675575b8062003596565b63ffffffff60c81b197cffffffff00000000000000000000000000000000000000000000000000620036a7436200dba3565b91505060c81b1691161782555f6200366e565b630c5eed9d60e11b8652600452602485fd5b6006850154631744ee4f60e31b8852600492909252602452604452606485fd5b5060068501541562003645565b63ffffffff8216156200370d57506200365d565b63136618cd60e01b8652600452602485fd5b905060058110156200373357155f6200358f565b634e487b7160e01b87526021600452602487fd5b503462000904576200375936620080cc565b620037636200a717565b6200376e826200a6c6565b620186a08211620037f95780547cffffffffffffffffffffffffffffffffffffffffffffffffffffffffff1660e883901b7fffffff0000000000000000000000000000000000000000000000000000000000161790556040805192835260208301919091527f95e1172237a02916c6d5aba284d04aa4e02e876b0c666387d62f03d0cd77719a91a180f35b6395d41f3f60e01b84526004829052620186a0602452604484fd5b503462000904576200382636620080cc565b919062ffffff83116200095e57602092600c6200384762000941936200a6c6565b016200d994565b503462000904577f672c0a156ee23d5a79ee89b233d6d30458115eabf152fb294cb8a894eadeeb1160406200388336620080cc565b6200388d6200a717565b6200158f816200389d846200a6c6565b6200d8c1565b34620041a757610140366003190112620041a7576004356001600160401b038111620041a757620038d9903690600401620085ed565b6024356001600160401b038111620041a757620038fb903690600401620085ed565b909160443592606435926084359060a43590610104356101243591620039206200a717565b6200392a6200d1b8565b6050871162004170576010811162004138576103fc89116200412557885f5260d960205260405f20966200395e886200b3e0565b6200411257600662003971868862008d7d565b11620040e757600788019a6001600160401b0382116200401f57620039978c546200861d565b601f8111620040a8575b505f90601f83116001146200403f57620039d392915f918362004033575b50508160011b915f199060031b1c19161790565b8a555b60088701956001600160401b0382116200401f57620039f687546200861d565b601f811162003fd6575b505f90601f831160011462003f6d5762003a3192915f918362003f615750508160011b915f199060031b1c19161790565b85555b60028601805461ffff60a81b191660a88a901b61ffff60a81b161781559360ff60c01b1987541687556006811162003f4a5786546006851162003f32577fffffffffffffffff0000ffffffffffffffffffffffffffffffffffffffffffff76ff0000000000000000000000000000000000000000000077ff00000000000000000000000000000000000000000000008760b81b169360b01b1691161717865562003ae160c435876200d620565b62003aef60e435876200d849565b8181101562003f1d579062003b0962003b1092876200d87e565b856200d7e8565b62003b1b8162009ff6565b80620f42400290620f424082040362003ed35762003b3a90856200d8c1565b81547fffff000000ffffffffffffffffffffffffffffffffffffffffffffffffffffff167d555f5a000000000000000000000000000000000000000000000000000000178255600a84018054600986019291901562003efd575b5063feffffff80871162003ee75750815463ffffffff871663ffffffff1990911617825584546001860180547affffffffffffffffffffffffffffffffffffffffffffffffffffff167f09000000640000000000000000000000000000000000000000000000000000001781557fffffffffffffffffffff00000000ffffffffffffffffffffffffffffffffffff909116743c138800000000000000000000000000000000000017865583547427100000000000000000000000000000000000000061ffff60981b1990911617845561d8ef9261ffff9062003c7785826200d935565b805468ff000000000000000019166802000000000000000017905586547cffffffffffffffffffffffffffffffffffffffffffffffffffffffffff16610c3560ec1b17875581547a010061a80061a80061a801731800823500823500000000000000007fffffffffff00000000000000000000000000000000000000ffffffffffffffff90911617825560d85462003d239062003d149062008e67565b978860d8555495549362009ff6565b9182620f42400292620f424084040362003ed35754956040519a8b9a8b5260208b016103e090526103e08b0162003d5a916200a0a4565b8a810360408c015262003d6d916200a0a4565b9762003d8460608b0160ff60c089901c1662008002565b60808a01528460b01c60ff1660a08a01528460b81c60ff1660c08a0152808360781c1660e08a0152808360881c166101008a0152808360b81c166101208a01528260c81c166101408901526101608801526101808701605a90526101a08701605f905260e81c60ff166101c08701526101e0860161138890526102008601606490526102208601600990526102408601603c9052610260860161271090526102808601526102a085016002905260e81c6102c08501528060401c62ffffff166102e08501528060581c62ffffff166103008501528060d01c60ff1615156103208501528060701c62ffffff166103408501528060881c62ffffff166103608501528060a01c62ffffff1661038085015260b81c62ffffff166103a08401526103c0830152037fd78b2274f0f8c5fb36f3464d4fc273e80ba45dde960a535eeacf3c1ae42c4e3c91a16001609755005b634e487b7160e01b5f52601160045260245ffd5b866395d41f3f60e01b5f5260045260245260445ffd5b5f1990555f8052600b850160205260405f20600181541790558862003b94565b6322e659c160e11b5f5260045260245260445ffd5b846395d41f3f60e01b5f52600452600660245260445ffd5b6395d41f3f60e01b5f52600452600660245260445ffd5b013590508c80620039bf565b601f19831691885f5260205f20925f5b81811062003fbd575090846001959493921062003fa3575b505050811b01855562003a34565b01355f19600384901b60f8161c191690558b808062003f95565b9193602060018192878701358155019501920162003f7d565b8281111562003a00576200400f90885f5260205f2090601f850160051c906020861062004016575b601f82910160051c0391016200a005565b8b62003a00565b5f915062003ffe565b634e487b7160e01b5f52604160045260245ffd5b013590508d80620039bf565b601f198316918d5f5260205f20925f5b8181106200408f575090846001959493921062004075575b505050811b018a55620039d6565b01355f19600384901b60f8161c191690558c808062004067565b919360206001819287870135815501950192016200404f565b82811115620039a157620040e0908d5f5260205f2090601f850160051c90602086106200401657601f82910160051c0391016200a005565b8c620039a1565b60848a86886040519263bc42e62760e01b845260048401526006602484015260448301526064820152fd5b8963c401953760e01b5f5260045260245ffd5b8863324f0d9160e21b5f5260045260245ffd5b604051631ffb247760e11b8152606060048201529081906200415f60648301828a6200a084565b906024830152601060448301520390fd5b60405163ab94bf3960e01b81526060600482015280886200419660648301828f6200a084565b906024830152605060448301520390fd5b5f80fd5b34620041a7576040366003190112620041a7576004356024356001600160401b038111620041a757620041e3903690600401620085cc565b335f5260db60205260ff60405f205416156200422f57620042036200ab42565b620042205781620042186200421e936200a6c6565b6200cfd5565b005b630b15863d60e41b5f5260045ffd5b636dfc4d6160e11b5f523360045260245ffd5b34620041a7575f366003190112620041a75760206001600160a01b0360335416604051908152f35b34620041a7576020366003190112620041a7576200428a6004356200a770565b8054908160f01c906200429d8262008e0e565b91600263ffffffff5f9560b01c169201915b8015158062004319575b1562004309575f528160205263ffffffff60405f20620042fd620042dd8762008e67565b96620042e98362008e76565b620042f582896200889d565b52866200889d565b505460201c16620042af565b604051806200073f86826200821b565b50818510620042b9565b34620041a7576200433436620080cc565b6200433e6200a717565b62004349826200a6c6565b600281015461ffff8160c81c168084108015620043db575b620043a4577f258cfea0edc89c1ba4ce7d75bd475712ab2a06ce19794e2193cbd64f182a3f78604086866200439781886200d7e8565b82519182526020820152a1005b60405163be5707cb60e01b8152600481018690526024810185905261ffff918216604482015260b89290921c166064820152608490fd5b5061ffff8260b81c1684111562004361565b34620041a7576020366003190112620041a7575f808080600435438110156200443b575b50906200073f91604051948594859094939260609260808301968352602083015260408201520152565b935050505060cf549060d1549160d25460d054908484115f14620044fb57505050905061217b810180821162003ed3579061085f810180911162003ed3576103e86200448d60ce5460cc5490620087a4565b0460d3548082115f14620044f357505b61217b810461217b81029181159282810461217b1484171562003ed357620044c591620087ea565b61085f82029282840461085f14171562003ed3576200073f92620044e99162008d7d565b925b909162004411565b90506200449d565b80841162004511575b6200073f929350620044eb565b6200073f9262004531836200452b620045389488620087ea565b620087a4565b9062008d7d565b9283925062004504565b34620041a7575f366003190112620041a75760c060cc5460c9546001600160701b03906c1fffffffffffffffffffffffff6001600160a01b0360cb5416916001600160a01b0360ca5416936040519586528116602086015260701c16604084015260066060840152608083015260a0820152f35b34620041a7576020366003190112620041a757600435620045d66200a717565b60c9546001600160701b031680821162004678575060cc5480821162004663577ffbebce9e66eea6596d62b805af61b4b1ea406128e73ffb928faa091b17d524f960208362004625816200d360565b62004630816200b36a565b6200463e8160cc54620087ea565b60cc556200465a816001600160a01b0360cb541633906200d516565b604051908152a1005b6303dc938760e61b5f5260045260245260445ffd5b62fae2d560e21b5f5260045260245260445ffd5b34620041a7576040366003190112620041a7577f184fbff1cd7a3d3af1fd538263d79328e135402c70c68de9b795ee4fcc0440bc620046ca620080b5565b620046d46200812a565b90620046df6200a717565b81156200472b576001600160a01b0381165f5260da60205260405f20600160ff198254161790555b604080516001600160a01b039092168252911515602082015290819081015b0390a1005b6001600160a01b0381165f5260da60205260405f2060ff19815416905562004707565b34620041a7576040366003190112620041a7577ffe982a540a46b78ba39fe94b2fec322414acda6ca69e165520017d474e0dee4860606200478e620080b5565b620047986200812a565b620047a26200a717565b620047ad826200b25f565b8115620047f3576001600160a01b0383165f5260de60205260405f20600160ff198254161790555b6001600160a01b0360405193168352602083015215156040820152a1005b6001600160a01b0383165f5260de60205260405f2060ff198154169055620047d5565b34620041a75760406200483f620048396200483136620080cc565b91906200a6c6565b6200d6f4565b82519160050b82526020820152f35b34620041a7576200485f36620080cc565b90335f5260dd60205260ff60405f20541615620048de57620048806200ab42565b6200422057614e208211620048c357807f29246c8aee392e4f61a964c88192adac4afc12ed286fcbd7698783763467475f926200439762002edc6040946200a6c6565b634dcc027160e11b5f52600452602452614e2060445260645ffd5b6338095ba560e21b5f523360045260245ffd5b34620041a7576020366003190112620041a757600435620049116200a717565b6200491c816200a6c6565b90600282015464ffffffffff8116159081159162004b11575b50801562004ae2575b62004ad05761ffff600983015460201c168062004aba577fc1c33d1bd4abb6d1a8ed08f6a49cdf51c1db8b81ce6810a713fcd0291cc63f97602083856001600160501b0360038201818154168062004a6d575b505460501c16908162004a1f575b5050805f5260d982525f601160408220828155826001820155826002820155826003820155826004820155826005820155826006820155620049e4600782016200a022565b620049f2600882016200a022565b82600982015582600a82015582600c820155015562004a1360d8546200a077565b60d855604051908152a1005b8162004a4f7f6cbcbbf194e245478b88cdee7b07dd6402cf492bcef0df03eae198637a072474936040936200c735565b62004a5a816200c0bd565b81519084825285820152a183806200499f565b60408162004a9d7f9adf439943034ba500551cd8e7417ea8cafa00933026f4e8e3612c01524d637793876200d6d8565b62004aa8816200c0bd565b81519087825288820152a18662004991565b9063e47393c360e01b5f5260045260245260445ffd5b631bb9ae6f60e11b5f5260045260245ffd5b5060ff825460c01c16600581101562004afd5715156200493e565b634e487b7160e01b5f52602160045260245ffd5b64ffffffffff915060281c1615158362004935565b34620041a7575f366003190112620041a757336001600160a01b03606554160362004b56576200421e336200d682565b60405162461bcd60e51b815260206004820152602960248201527f4f776e61626c6532537465703a2063616c6c6572206973206e6f74207468652060448201527f6e6577206f776e657200000000000000000000000000000000000000000000006064820152608490fd5b34620041a7576020366003190112620041a75762004bde6200813a565b62004be86200ab42565b620042205762004bf8336200b25f565b90815f5260d560205260405f209182549260ff8460a01c169362004c1c8562008010565b8462004ca8577f743a9ef374d6b3c905b8fd725a33cc63980a202108bfd3cbf65e94a23640a02e94507fffffffffffffffffffff00ffffffffffffffffffffffffffffffffffffffffff75ff00000000000000000000000000000000000000000085151560a81b1691161790556200472660405192839283909291602090604083019483521515910152565b63e0860e5f60e01b5f528462004cbe8162008010565b60045260245ffd5b34620041a75762004cd736620082f7565b62004ce16200a717565b60098110801562004e36575b62004e1a5762004cfd8162009ff6565b808311801562004e0c575b62004dd6575091620047267fca21b8a8b8d11b0faf46a19341a9e5fa3d668a48778efaff9fbec48fa21e5df09362004db9600162004d46856200a6c6565b0180547affffffffffffffffffffffffffffffffffffffffffffffffffffff1660d887901b7effffffff000000000000000000000000000000000000000000000000000000161760f884901b7fff0000000000000000000000000000000000000000000000000000000000000016179055565b604051938493846040919493926060820195825260208201520152565b905063ffffffff81101562004dff57915b6377b084bf60e11b5f5260045260245260445260645ffd5b5063ffffffff9162004de7565b5063ffffffff831162004d08565b633361596f60e11b5f526004526009602452602460445260645ffd5b506024811162004ced565b34620041a7576020366003190112620041a7576004356001600160401b038111620041a75736602382011215620041a75780600401356001600160401b038111620041a7573660248260091b84010111620041a757335f5260dc60205260ff60405f2054161562004ec95762004eb66200ab42565b620042205760246200421e920162009dae565b631d37e03560e31b5f523360045260245ffd5b34620041a75762004f0462004ef136620080cc565b919062004efd62009287565b506200a6c6565b815f526012810160205260405f20916040519262004f2284620084e3565b549263ffffffff84168152602081019163ffffffff8560201c16835260ff8560401c1694604083019562004f568162008312565b865260608301956001600160501b038260481c1687526080840163ffffffff8360981c16815260a085019164ffffffffff8460b81c16835260c086019360e01c845262004fa3886200bf0a565b5050509687159889620050a2575b926101a09a83869363ffffffff64ffffffffff81620050429f9e9d9b98620050138f839f9c8c859f8c8888806001600160501b0399519562004ff38762008312565b51169251169251169284549560ff808860b81c169760b01c16956200bf55565b9f919d909e51169551169551966200502b8862008312565b5116965116965116965116966040519d8e620084c6565b8d5260208d015260408c0152620050598162008312565b60608b015260808a015260a089015260c088015260e08701526101008601526101208501526101408401526200509360405180946200831d565b61016083015215610180820152f35b805463ffffffff16985062004fb1565b34620041a7575f366003190112620041a757620050ce6200a717565b6001600160a01b0319606554166065555f6001600160a01b036033546001600160a01b03198116603355167f8be0079c531659141344cd1fd0a4f28419497f9722a3daafe3b4186f6b6457e08280a3005b34620041a7577f8e37539629486a88c6a6083eb90030fb61cb856d56d96f53a326fda0d399ef3260406200515336620080cc565b6200515d6200a717565b62004397816200516d846200a6c6565b6200d620565b34620041a7576040366003190112620041a757600435620051936200812a565b6200519d6200a717565b620051a8826200a6c6565b916002830180549360ff8560f01c1680620052aa575b62005238575b507f8ac110193a47d8207dd88897368f2031dd31bfea6bcfd9a2b3ea6759e81c4e14937fff00ffffffffffffffffffffffffffffffffffffffffffffffffffffffffffff60ff60f01b85151560f01b1691161790556200472660405192839283909291602090604083019483521515910152565b6001600160a01b0360ca5416801580156200529d575b6200527e57505460401c63ffffffff16156200526b5784620051c4565b50630c5eed9d60e11b5f5260045260245ffd5b60068492015491631744ee4f60e31b5f5260045260245260445260645ffd5b506006820154156200524e565b508315620051be565b34620041a75760c0620052d46002620052cc36620080cc565b92906200a6c6565b015461ffff8160b81c169164ffffffffff8260501c168261ffff6200531660ff849660d81c16948560ff8560e01c1697889264ffffffffff8716908b6200d5f1565b9160405196875260c81c16602086015260408501526060840152608083015260a0820152f35b34620041a7576020366003190112620041a75760606200535e6004356200a6c6565b60ff815460c01c1690600560048201549101549062005381604051809462008002565b60208301526040820152f35b34620041a757620053a46009620052cc36620080cc565b0162ffffff8211620053ca57604091620053be916200bfe0565b82519182526020820152f35b5063c6ebaaa160e01b5f5260045262ffffff60245260445ffd5b34620041a7576020366003190112620041a757600435620054046200ab42565b620042205762005414336200b25f565b90815f5260d560205260405f209160ff835460a01c16620054358162008010565b60028114620054bb5750620047266001600160501b038462005479857f2687926b167b6633deaaa80c3d106be87c0530fbc9ecba972ef8da4a3f2c489b976200d230565b506200548685826200d4fd565b62005491856200c0bd565b5416604051938493849160409194936001600160501b039160608501968552602085015216910152565b63e0860e5f60e01b5f5262004cbe8162008010565b34620041a7576020366003190112620041a757600435620054f06200d1b8565b620054fa6200ab42565b62004220576200550a336200b25f565b90815f5260d560205260405f209160ff835460a01c166200552b8162008010565b80620054bb57506200553e82846200d230565b5060cc54808311620055c35750620055b96001600160501b037f8a087568cf2efa04e1e6c72c7f61b68a1ac013d6a33bd6e978e1ba2b4efc04d49462005584856200d360565b6200559085826200d4fd565b6200559e8560cc54620087ea565b60cc556200549185336001600160a01b0360cb54166200d516565b0390a16001609755005b90506303dc938760e61b5f5260045260245260445ffd5b34620041a757620055eb36620082f7565b91620055f66200a717565b62005601816200a6c6565b6200560d848462008d7d565b90620186a082116200570f57620186a08411620056f55760010180546affffff00000000000000001916604085901b6affffff000000000000000016178155620186a08511620056db5780546dffffff00000000000000000000001916605886901b6dffffff000000000000000000000016179055620186a090810390811162003ed3577f61c468e821b1662263e339e465b2b8aa3c36b504f804ffac4a19ad8eae3df813936200472691604051948594859094939260609260808301968352602083015260408201520152565b846395d41f3f60e01b5f52600452620186a060245260445ffd5b836395d41f3f60e01b5f52600452620186a060245260445ffd5b6084838686604051926334af053b60e21b8452600484015260248301525f60448301526064820152fd5b34620041a7576020366003190112620041a7577f4837c28a17fa53b7af0fe87d3e7cf2a681119d768391e182ed4dfd33497e288f6020620057796200813a565b620057836200a717565b151560ff1960e1541660ff82161760e155604051908152a1005b34620041a757620057b262004ef136620080cc565b61ffff821162005880576010915f520160205261016060405f2061ffff60405191620057de83620084c6565b5463ffffffff8116835260ff8160201c16620057fa8162008010565b602084015262ffffff8160281c16604084015264ffffffffff8160401c166060840152818160681c16608084015263ffffffff8160781c1660a0840152818160981c1660c0840152818160a81c1660e0840152818160b81c16610100840152818160c81c1661012084015260d81c166101408201526200587e6040518092620083b5565bf35b50630c8f0a6960e41b5f526004525f60245261ffff60445260645ffd5b34620041a7576020366003190112620041a7576004356001600160401b038111620041a757620058d2903690600401620081b1565b335f5260db60205260ff60405f205416156200422f57620058f26200ab42565b62004220576200421e9162009c60565b34620041a7575f366003190112620041a757602060ff60e154166040519015158152f35b34620041a7576200593736620080cc565b90620059426200a717565b6200594d816200a6c6565b6001600160501b03600382015460501c16838110620059a2577f6cbcbbf194e245478b88cdee7b07dd6402cf492bcef0df03eae198637a072474604084866200599781876200c735565b62004397816200c0bd565b839062fae2d560e21b5f5260045260245260445ffd5b34620041a7576020366003190112620041a7577fb405a09f729f41978995eba596767f10784a912a3e8d56a978e5e167c1b23d7d6020620059f86200813a565b62005a026200a717565b60c954811562005a35576001905b600160ff62005a1e6200ab38565b9316831b921b19161760c9556040519015158152a1005b5f9062005a10565b34620041a75760a0366003190112620041a75762005a5a620080a1565b60643561ffff81168103620041a757608435906002821015620041a757335f5260dc60205260ff60405f2054161562004ec95762005a976200ab42565b62004220576200421e9260243560043562009860565b34620041a7576040366003190112620041a75762005aca6200808d565b335f5260db60205260ff60405f205416156200422f5762005aea6200ab42565b62004220576200421e9063ffffffff62005b066004356200a6c6565b9116906200a97d565b34620041a7576020366003190112620041a7577f06d9a2e5d1f47e8b66c517104114f36514593b09c9b90cb622a6883e595d4bcd602060043562005b526200a717565b62005b5d816200c0bd565b62005b6b8160cc5462008d7d565b60cc556200465a816001600160a01b0360cb5416309033906200c0d5565b34620041a7575f366003190112620041a7576001600160a01b037f000000000000000000000000000000000000000000000000000000000000000016300362005bf65760206040517f360894a13ba1a3210667c828492db98dca3e2076cc3735a920a3ca505d382bbc8152f35b60405162461bcd60e51b815260206004820152603860248201527f555550535570677261646561626c653a206d757374206e6f742062652063616c60448201527f6c6564207468726f7567682064656c656761746563616c6c00000000000000006064820152608490fd5b34620041a75762005c723662008396565b62005c7f9391936200a717565b62005c8a826200a6c6565b62005ca18262005c9b878762008d7d565b62008d7d565b90620186a0821162005e2957620186a08511620056db5760010180547fffffffffffffffffffffffff000000ffffffffffffffffffffffffffffffffff16608886901b73ffffff000000000000000000000000000000000016178155620186a0861162005e0f5780547fffffffffffffffffff000000ffffffffffffffffffffffffffffffffffffffff1660a087901b76ffffff000000000000000000000000000000000000000016178155620186a0831162005df55780547fffffffffffff000000ffffffffffffffffffffffffffffffffffffffffffffff79ffffff0000000000000000000000000000000000000000000000808660b81b16169116179055620186a00390620186a0821162003ed3577f58735d184c71d18d22f8f2eb43be3e299cad7d465faac909163477072a58f9e99460a0946040519485526020850152604084015260608301526080820152a1005b826395d41f3f60e01b5f52600452620186a060245260445ffd5b856395d41f3f60e01b5f52600452620186a060245260445ffd5b5050604051631121702960e01b815260048101929092526024820192909252604481018390526064810191909152608490fd5b34620041a7576020366003190112620041a7575f61010060405162005e8181620084a9565b8281528260208201528260408201528260608201528260808201528260a08201528260c08201528260e08201520152600162005ebf6004356200a6c6565b015462ffffff8160401c1662ffffff8260581c169162005ee0838362008d7d565b620186a00392620186a0841162003ed35762ffffff8260881c1662ffffff8360a01c1662ffffff8460b81c169162005f1e8362005c9b848462008d7d565b620186a00393620186a0851162003ed357610120976040519162005f4283620084a9565b888352602083019081526040830191825260ff610100606085019462ffffff8b60701c1686526080810196875260a0810197885260c0810198895260e08101998a52019860d01c16151588526040519889525160208901525160408801525160608701525160808601525160a08501525160c08401525160e0830152511515610100820152f35b6040366003190112620041a75762005fe0620080b5565b6024356001600160401b038111620041a75762006002903690600401620085cc565b620060706001600160a01b037f0000000000000000000000000000000000000000000000000000000000000000166200603e8130141562008ee9565b6001600160a01b037f360894a13ba1a3210667c828492db98dca3e2076cc3735a920a3ca505d382bbc54161462008f5c565b6200607a6200a717565b7f4910fdfa16fed3260ed0e7147f7cc6da11a60208b5b9406d12a635614ffd91435460ff1615620060b157506200421e9062010fe7565b6040516352d1902d60e01b81526001600160a01b03831690602081600481855afa5f918162006272575b506200613d5760405162461bcd60e51b815260206004820152602e60248201527f45524331393637557067726164653a206e657720696d706c656d656e7461746960448201526d6f6e206973206e6f74205555505360901b6064820152608490fd5b7f360894a13ba1a3210667c828492db98dca3e2076cc3735a920a3ca505d382bbc036200621b576200616f8362010fe7565b7fbc7cd75a20ee27fd9adebab32041f755214dbc6bffa90cc0225b39da2e5c2d3b5f80a280511580159062006212575b620061a657005b6200421e915f8060405193620061be60608662008553565b602785527f416464726573733a206c6f772d6c6576656c2064656c65676174652063616c6c6020860152660819985a5b195960ca1b6040860152602081519101845af46200620b62015696565b916201a94e565b5060016200619f565b60405162461bcd60e51b815260206004820152602960248201527f45524331393637557067726164653a20756e737570706f727465642070726f786044820152681a58589b195555525160ba1b6064820152608490fd5b9091506020813d602011620062a3575b81620062916020938362008553565b81010312620041a757519085620060db565b3d915062006282565b34620041a7576101e0366003190112620041a757620062ca62008810565b50620062d56200ab42565b6200422057620062e5336200b25f565b805f5260d560205260405f209060ff825460a01c16620063058162008010565b8015158062006448575b620054bb57506024359062006324826200a6c6565b90604435936007851015620041a75760e43580151590818103620041a75750610104359485151595868103620041a75750610124359081151597888303620041a75760409862006436987f02d2bf39d2355aaa5486487e934403fd3ba3f88c73ab71938cee11931fddeb7b956102209550620063c05a948d519687528a60208801526004358e8801526064356060880152608087019062009da0565b60843560a086015260a43560c086015260c43560e08601526101008501526101208401526101408301526101443561016083015261016435610180830152610184356101a08301526101a4356101c08301526101c4356101e0830152610200820152a161ffff600284015460781c16926200ae44565b60208251918051835201516020820152f35b506044356007811015620041a757600414156200630f565b34620041a7576020366003190112620041a757600435620064806200a717565b64e8d4a5100081108015620064eb575b620064c6576020817f2407f52a609c844e44dbad3e5a8ec9347e6aa702684e124256f81ef7504b9d1b9260d355604051908152a1005b63747693eb60e11b5f5264e8d4a51000600452655af3107a400060245260445260645ffd5b50655af3107a4000811162006490565b34620041a7576200651a620065103662008396565b9291909162009622565b9060405190604082019260408352815180945260206060840192015f945b8086106200654e57505082935060208301520390f35b9092602061016082620065656001948851620083b5565b0194019501949062006538565b34620041a75762006583366200817f565b90335f5260da60205260ff60405f205416156200662857620065a46200ab42565b6200422057620065b48262008010565b811562006619577f287a1a0be47186fe812cf10628edc8c56638095124099fea05c3e3f59e3a0dc691620065ea6040926200b25f565b90815f5260d56020526200660181845f2062008d8b565b8251918252620066118162008010565b6020820152a1005b633f068f8760e11b5f5260045ffd5b63a37849fb60e01b5f523360045260245ffd5b34620041a757620066576200665036620082f7565b91620092da565b610c4051610c6051919290604051926080840194608085528351809652602060a0860194015f965b808810620066a157505084955060208501526040840152151560608301520390f35b9094602061016082620066b86001948a516200831d565b019601970196906200667f565b34620041a757620066d636620080cc565b90620066e16200a717565b620066ec816200a6c6565b620186a0831162005df557600101805470ffffff00000000000000000000000000001916607084901b70ffffff0000000000000000000000000000161790556040805191825260208201929092527f82af0435eb6aa1e7cd302eaf1f32e10e8d7bb8e96d1f724a6006fbaa4571890f9190a1005b34620041a7576200677136620082b7565b90335f5260dc60205260ff60405f2054161562004ec957620067926200ab42565b62004220576200421e926200916c565b34620041a7576020366003190112620041a757602061ffff6002620067c96004356200a6c6565b015460781c16604051908152f35b34620041a7576020366003190112620041a7576001600160a01b03620067fc620080b5565b165f5260df602052602060ff60405f2054166040519015158152f35b34620041a7575f366003190112620041a7576020620034996200b4f0565b34620041a7576020366003190112620041a757604060096200685a6004356200a6c6565b015460ff82519161ffff8160301c168352831c166020820152f35b34620041a7576040366003190112620041a7576004356001600160401b038111620041a75736602382011215620041a7578060040135906001600160401b038211620041a7573660246101e0840283010111620041a757620068d66200812a565b620068e06200ab42565b62004220576200073f926024620068f8930162009007565b60405191829182620080e3565b34620041a7576020366003190112620041a757620069256004356200a6c6565b600a81015490612020604051916200693e828462008553565b61010083526020830191601f1901368337600b81015f5b6101008110620069ba575050600961ffff91015460201c166040519260608401948452606060208501525180945260808301915f945b808610620069a157505082935060408301520390f35b909260208060019286518152019401950194906200698b565b806001915f528260205260405f2054620069d582886200889d565b520162006955565b34620041a7576020366003190112620041a757620069fa620080b5565b62006a366001600160a01b037f0000000000000000000000000000000000000000000000000000000000000000166200603e8130141562008ee9565b62006a406200a717565b60405190602062006a52818462008553565b5f8352808301601f1982013682377f4910fdfa16fed3260ed0e7147f7cc6da11a60208b5b9406d12a635614ffd91435460ff161562006a995750506200421e915062010fe7565b6001600160a01b03839293166040516352d1902d60e01b81528481600481855afa5f918162006c4d575b5062006b255760405162461bcd60e51b815260048101869052602e60248201527f45524331393637557067726164653a206e657720696d706c656d656e7461746960448201526d6f6e206973206e6f74205555505360901b6064820152608490fd5b7f360894a13ba1a3210667c828492db98dca3e2076cc3735a920a3ca505d382bbc0362006bf65762006b578362010fe7565b7fbc7cd75a20ee27fd9adebab32041f755214dbc6bffa90cc0225b39da2e5c2d3b5f80a283511580159062006bee575b62006b8e57005b5f80916200421e957f416464726573733a206c6f772d6c6576656c2064656c65676174652063616c6c6040519662006bc860608962008553565b60278852870152660819985a5b195960ca1b60408701525190845af46200620b62015696565b505f62006b87565b60405162461bcd60e51b815260048101859052602960248201527f45524331393637557067726164653a20756e737570706f727465642070726f786044820152681a58589b195555525160ba1b6064820152608490fd5b9091508581813d831162006c7a575b62006c68818362008553565b81010312620041a75751908762006ac3565b503d62006c5c565b34620041a7576040366003190112620041a7577ffff8b0b240abf69d0ca9160bd7dcc49339068496d45e0bf7aab7468fc6a6c2c760043562006cc36200812a565b9062006cce6200a717565b600162006cdb826200a6c6565b0180547fffffffffff00ffffffffffffffffffffffffffffffffffffffffffffffffffff7aff000000000000000000000000000000000000000000000000000085151560d01b1691161790556200472660405192839283909291602090604083019483521515910152565b34620041a75762006d5736620080cc565b62006d616200a717565b62006d6c826200a6c6565b60018210801562006e42575b62006e255760020160ff815460e01c168083101562006e0f5781547fffffffff00ffffffffffffffffffffffffffffffffffffffffffffffffffffff1660d884901b7bff0000000000000000000000000000000000000000000000000000001617825560408051858152602081018590527ff4b59dd9ee04b23a163fa42f622d424f19a1cc0f76d4455f900106cef0e3c5129190a1005b82630ba8360160e41b5f5260045260245260445ffd5b50630c8f0a6960e41b5f526004526001602452606460445260645ffd5b506064821162006d78565b34620041a7576020366003190112620041a75760043562006e6d6200a717565b6309c3d8f080821162006ec0575060c95460e391612710613fff9104831b921b19161760c9557fcd3426b08e2946f33fe401b723f71049867976631425553ecf95848fc4b088a960206200465a6200b4ca565b90630c8f0a6960e41b5f526004525f60245260445260645ffd5b34620041a75762006ef762006eef36620080cc565b91906200a770565b905f526003810160205260405f20549061ffff8260401c169062006f1b8262008e0e565b91600263ffffffff5f95169201915b8015158062006f64575b1562004309575f528160205263ffffffff60405f2062006f58620042dd8762008e67565b505460201c1662006f2a565b5081851062006f34565b34620041a7576040366003190112620041a75762006f8b620080b5565b7f8b91d2cd88f6e870c2beaa65e6299f6dee33511ff403ab0ffb32f926e3a9a28360206001600160a01b0362006fc06200812a565b9362006fcb6200a717565b1692835f5260d4825262006fee8160405f209060ff801983541691151516179055565b6040519015158152a2005b34620041a7576200700a36620080cc565b620070146200a717565b60c9546001600160701b031681811062004678575062007034826200a770565b9160ff835460a01c16620070488162008010565b60028114620054bb5750620047266001600160501b037f85b48f5618e9d5b21320fb47ad01cfbf4f739a3e7f7950a445c97099d578911e946200708b856200b36a565b6200549185826200b49e565b34620041a757620070a836620081e4565b90335f5260da60205260ff60405f205416156200662857620070c96200ab42565b62004220576103fc83116200711657825f5260d960205260405f2092620070f0846200b3e0565b62007104575060096200421e93016200b407565b63b934a7fb60e01b5f5260045260245ffd5b8263324f0d9160e21b5f5260045260245ffd5b34620041a7576020366003190112620041a757600435620071496200a717565b60c9546001600160701b031681811062004678577f3926c691232881614240a3ec84f5910abdac662ecb616cf8ab9b9fe44d932bc86020836200718c816200b36a565b6200465a816200b393565b34620041a7576020366003190112620041a75760406011620071bb6004356200a6c6565b015463ffffffff825191818116835260201c166020820152f35b34620041a7577f287a1a0be47186fe812cf10628edc8c56638095124099fea05c3e3f59e3a0dc66040620065ea6200720d366200817f565b9190620072196200a717565b6200b25f565b34620041a75762007230366200815a565b90916200723c6200ab42565b62004220576200724c336200b25f565b9162007258836200a770565b9060ff825460a01c166200726c8162008010565b80620054bb57506200727e836200a6c6565b6200729160ff825460c01c16856200b2b7565b5060028101546064620072d264ffffffffff808416818560281c168082115f146200748357505b169260ff64ffffffffff8260501c169160e81c16620087a4565b0490818110156200746a5750506001600160501b0386116200744c57601290855f520160205260405f209364ffffffffff855460b81c16156200743657607842019283421162003ed3577fd990ce6190d58ffb8c06ec564b7ebdac6a21afe5b067513aba6cbf478ccac6e9966101009663ffffffff64ffffffffff961694604051906200735f826200848d565b868252602082016001600160501b0385168152600460408401921515968784528b5f520160205263ffffffff8060405f209451161663ffffffff1984541617835551906dffffffffffffffffffff000000006eff000000000000000000000000000084549251151560701b169260201b16906effffffffffffffffffffff00000000191617179055549360ff8560401c16936040519788526020880152604087015260608601526080850152620074168162008312565b60a084015263ffffffff8160981c1660c084015260b81c1660e0820152a1005b836334a4033d60e11b5f5260045260245260445ffd5b856395d41f3f60e01b5f526004526001600160501b0360245260445ffd5b8563a086029960e01b5f5260045260245260445260645ffd5b9050620072b8565b34620041a7575f366003190112620041a7576020620034996200b293565b34620041a757620074ba36620080cc565b90620074c56200a717565b613a9882116200752157807f70df7db68793145153f083606826dfc0e51ef634e3d99f5a8ff74d7fd27405e69262004397620075036040946200a6c6565b600201805461ffff60981b1916609884901b61ffff60981b16179055565b631b71514f60e11b5f52600452602452613a9860445260645ffd5b34620041a7576020366003190112620041a7576200073f6200757262007561620080b5565b6200756b62008704565b506200b25f565b620075db600562007583836200a770565b805460ff8160a01c166001600160501b03600184015460601c9260405197620075ac8962008471565b8852818116602089015260501c166040870152620075ca8162008010565b606086015260808501520162008759565b60a0820152604051918291826200801b565b34620041a7576020366003190112620041a757602061ffff6002620076146004356200a6c6565b015460881c16604051908152f35b34620041a7576200763336620080cc565b335f5260da60205260ff60405f205416156200662857620076536200ab42565b62004220576200421e9162008cf4565b34620041a7576040366003190112620041a7577f44f632293c2bd117a0d277a1057b0a5495dfbd57d2e3636bb80f0912ee6d0ba9620076a1620080b5565b620076ab6200812a565b90620076b66200a717565b811562007701576001600160a01b0381165f5260dc60205260405f20600160ff19825416179055604080516001600160a01b0390921682529115156020820152908190810162004726565b6001600160a01b0381165f5260dc60205260405f2060ff19815416905562004707565b34620041a7576020366003190112620041a7576004356001600160401b038111620041a75736602382011215620041a7578060040135906001600160401b038211620041a7573660246102c0840283010111620041a757335f5260da60205260ff60405f2054161562006628576200779b6200ab42565b62004220576200073f916024620068f89201620088c6565b34620041a7575f366003190112620041a75760d7545f19810190811162003ed357602090604051908152f35b34620041a757620077f036620080cc565b620077fa6200a717565b61012c80821162007886577fd947284a0ec09f0204c4d87a28d7f12ae5979a8c58b1456b5aa2c5066f9732956040848462007835826200a6c6565b80547fffffffffffffffffffff0000ffffffffffffffffffffffffffffffffffffffff1660a083901b75ffff00000000000000000000000000000000000000001617905582519182526020820152a1005b916335d09a8f60e21b5f5260045260245260445260645ffd5b34620041a7575f366003190112620041a757602060405161217b8152f35b34620041a7576020366003190112620041a7576001600160a01b03620078e2620080b5565b165f5260da602052602060ff60405f2054166040519015158152f35b34620041a7576040366003190112620041a7576200421e6200791f6200808d565b620079296200a717565b63ffffffff6200793b6004356200a6c6565b9116906200a7e0565b34620041a7576020366003190112620041a757600435620079646200a717565b6200796f816200a6c6565b60ff815460c01c16600581101562004afd5760028103620079cf577fd92eee87539b24ad02a6f03980106354cd078a3eb9c2c4257685215063c61ecd602084845f6004820155600160c01b60ff60c01b19825416179055604051908152a1005b6313295a4960e11b5f526004839052620079e99062007ff3565b60445ffd5b34620041a7576020366003190112620041a7576200073f60043562007a1262008704565b50620075db600562007583836200a770565b34620041a7576040366003190112620041a75760043560243562007a476200a717565b62007a52826200a6c6565b60ff815460c01c16600581101562004afd578062007ab657506001600160a01b0360ca541680156200527e577f9c03c6796385c736172929a88c5f8c4fc7c287d6df80c75f290d4f18ca9ece726040858580600687015582519182526020820152a1005b630d76efe360e41b5f526004849052620079e99062007ff3565b34620041a7576020366003190112620041a75760043562007af06200a717565b60ff62007afd826200a6c6565b5460c01c16600581101562004afd576002810362007b42577f5fa123d2cd3b174872bde6224d3ecc37811a5b365b5c481672f7ff0cb5bfd6c4602083604051908152a1005b620079e9916313295a4960e11b5f5260045262007ff3565b34620041a7576020366003190112620041a7576103c08162007b7d5f9362008454565b60608152606060208201528260408201528260608201528260808201528260a08201528260c08201528260e08201528261010082015282610120820152826101408201528261016082015282610180820152826101a0820152826101c0820152826101e08201528261020082015282610220820152826102408201528261026082015282610280820152826102a0820152826102c0820152826102e08201528261030082015282610320820152826103408201528261036082015282610380820152826103a0820152015262007c556004356200a6c6565b805460068201549060018301549163ffffffff6003850154936001600160501b0360028701549560098801549462007cae60086040519a62007c978c62008454565b62007ca56007820162008658565b8c520162008658565b60208a015260ff8760b01c1660408a015260ff8760b81c1660608a0152608089015261ffff8660901c1660a0890152838360d81c1660c08901528260f81c60e089015261ffff8660a01c1661010089015281811661012089015260501c16610140870152818416610160870152818460201c166101808701528181166101a087015260201c166101c085015263ffffffff8260401c166101e085015263ffffffff8260601c1661020085015264ffffffffff831661022085015264ffffffffff8360281c1661024085015263ffffffff8260c81c166102608501528160801c60010b61028085015261ffff8360981c166102a0850152600560ff8360c01c16101562004afd5760ff61ffff9260c01c166102c085015263ffffffff81166102e085015262ffffff8160781c1661030085015262ffffff8160901c1661032085015262ffffff8160481c1661034085015262ffffff8160601c1661036085015260201c1661038083015260ff8160f01c1615156103a083015260f81c6103c08201526040518091602082526103c062007e7062007e5983516103e0602087015261040086019062007fcf565b6020840151858203601f1901604087015262007fcf565b916040810151606085015260608101516080850152608081015160a085015260a081015160c085015260c081015160e085015260e08101516101008501526101008101516101208501526101208101516101408501526101408101516101608501526101608101516101808501526101808101516101a08501526101a08101516101c08501526101c08101516101e08501526101e081015161020085015261020081015161022085015261022081015161024085015261024081015161026085015261026081015161028085015261028081015160010b6102a08501526102a08101516102c085015262007f6f6102c08201516102e086019062008002565b6102e08101516103008501526103008101516103208501526103208101516103408501526103408101516103608501526103608101516103808501526103808101516103a08501526103a081015115158285015201516103e08301520390f35b805180835260209291819084018484015e5f828201840152601f01601f1916010190565b600581101562004afd57602452565b90600582101562004afd5752565b6004111562004afd57565b919091610100606060a061012084019580518552602081015160208601526040810151604086015282810151620080528162008010565b838601526001600160a01b0360808201511660808601520151805160a0850152602081015160c0850152604081015160e08501520151910152565b6024359063ffffffff82168203620041a757565b6044359063ffffffff82168203620041a757565b600435906001600160a01b0382168203620041a757565b6040906003190112620041a7576004359060243590565b60206040818301928281528451809452019201905f5b818110620081075750505090565b8251805185526020908101518186015260409094019390920191600101620080f9565b602435908115158203620041a757565b600435908115158203620041a757565b606435908115158203620041a757565b6060906003190112620041a75760043590602435906044358015158103620041a75790565b6040906003190112620041a7576004356001600160a01b0381168103620041a757906024356004811015620041a75790565b9181601f84011215620041a7578235916001600160401b038311620041a7576020808501948460051b010111620041a757565b906040600319830112620041a75760043591602435906001600160401b038211620041a7576200821791600401620081b1565b9091565b60206040818301928281528451809452019201905f5b8181106200823f5750505090565b909192602060c06001926001600160501b0360a0885163ffffffff815116845263ffffffff86820151168685015263ffffffff604082015116604085015260608101516200828d8162008010565b606085015260808181015164ffffffffff169085015201511660a082015201940192910162008231565b6040600319820112620041a757600435906001600160401b038211620041a757620082e591600401620081b1565b90916024358015158103620041a75790565b6060906003190112620041a757600435906024359060443590565b6002111562004afd57565b610140809180518452602081015160208501526040810151604085015260608101516200834a8162008312565b60608501526080810151608085015260a081015160a085015260c081015160c085015260e081015160e08501526101008101516101008501526101208101516101208501520151910152565b6080906003190112620041a75760043590602435906044359060643590565b61ffff610140809263ffffffff81511685526020810151620083d78162008010565b602086015262ffffff604082015116604086015264ffffffffff606082015116606086015282608082015116608086015263ffffffff60a08201511660a08601528260c08201511660c08601528260e08201511660e086015282610100820151166101008601528261012082015116610120860152015116910152565b6103e081019081106001600160401b038211176200401f57604052565b60c081019081106001600160401b038211176200401f57604052565b606081019081106001600160401b038211176200401f57604052565b61012081019081106001600160401b038211176200401f57604052565b61016081019081106001600160401b038211176200401f57604052565b60e081019081106001600160401b038211176200401f57604052565b608081019081106001600160401b038211176200401f57604052565b604081019081106001600160401b038211176200401f57604052565b60a081019081106001600160401b038211176200401f57604052565b90601f801991011681019081106001600160401b038211176200401f57604052565b6001600160401b0381116200401f57601f01601f191660200190565b9291926200859f8262008575565b91620085af604051938462008553565b829481845281830111620041a7578281602093845f960137010152565b9080601f83011215620041a757816020620085ea9335910162008591565b90565b9181601f84011215620041a7578235916001600160401b038311620041a75760208381860195010111620041a757565b90600182811c921680156200864d575b60208310146200863957565b634e487b7160e01b5f52602260045260245ffd5b91607f16916200862d565b9060405191825f8254926200866d846200861d565b8084529360018116908115620086e0575060011462008698575b50620086969250038362008553565b565b90505f9291925260205f20905f915b818310620086c357505090602062008696928201015f62008687565b6020919350806001915483858901015201910190918492620086a7565b9050602092506200869694915060ff191682840152151560051b8201015f62008687565b60405190620087138262008471565b815f81525f60208201525f60408201525f60608201525f608082015260a0604051916200874083620084ff565b5f83525f60208401525f60408401525f60608401520152565b906040516200876881620084ff565b6060600382948054845260018101546020850152600281015460408501520154910152565b9060308202918083046030149015171562003ed357565b8181029291811591840414171562003ed357565b6102fc1981019190821162003ed357565b6101fc1981019190821162003ed357565b60fc1981019190821162003ed357565b9190820391821162003ed357565b6001600160401b0381116200401f5760051b60200190565b604051906200881f826200851b565b5f6020838281520152565b906200883682620087f8565b62008845604051918262008553565b828152809262008858601f1991620087f8565b01905f5b8281106200886957505050565b6020906040516200887a816200851b565b5f81525f83820152828285010152016200885c565b358015158103620041a75790565b8051821015620088b25760209160051b010190565b634e487b7160e01b5f52603260045260245ffd5b91620088d2826200882a565b80511562008cee578215620088b257839160408501606086013595620088f8876200a6c6565b925f5b8781101562008cb8578062008c7d575b8635906200891b85838c6200ab58565b815f5260d560205260405f2085620089376102208b016200888f565b6102408b01359490801562008c16578562008bdf5763ffffffff600185015460401c165f63ffffffff8281873516031660030b131562008ba457505b851515908162008b18575b845460ff8160a01c16620089928162008010565b8062008ad0575060a81c60ff161562008a9d571562008a8a577f4b33653917eefdb992cac4fb999fcecfc80848487b46a9f1fbe97ef541aafa195f80a1620089dc8335856200ae0b565b1562008a5257505050610260880135916002831015620041a75760807fd3b7d0aa2cb3540e154ebb47122cf86e0db24117323b827d28da43422fcd57d89160019460405191825262008a2e8162008312565b60208201526102808b013560408201526102a08b01356060820152a15b01620088fb565b600194509062008a6a929160208c0135928a6200af3f565b62008a7682896200889d565b5262008a8381886200889d565b5062008a4b565b62008a978335856200adb3565b620089dc565b5050505050600191507fcb7f793535461714e08fcb65e21b3379d2aedbf9c04354ade356a824dcefe9f55f80a162008a4b565b9350505050600194507fe0860e5ff8578b025fc8a7f42c449c575b7a19600e8d2b3fd6ab0ae6e2e084039250602091506040519062008b0f8162008010565b8152a162008a4b565b62008b2e63ffffffff60098d015416886200ac62565b62008b95576101808401358015158062008b8b575b62008b4f57506200897e565b92505050600194507f9f38a7d29e6c9e707bfe5fee47b29748083dc31546de0135d48ed99db5e190f0925060209150604051908152a162008a4b565b5043811062008b43565b50505050506001915062008a4b565b915050600194507f47313d3b2b870c5a3200f25c5f8d5ce9ea5d073955f16e6f70104ddca4be5fdc925060209150604051908152a162008a4b565b505050507f2b022c762977afd239365173c87fc0b706c64f8a7b328ca79b3465468eba835a6020600193604051908152a162008a4b565b63ffffffff600185015460201c165f63ffffffff8281873516031660030b131562008c42575062008973565b915050600194507f6be50b396ca4962b3810cd9e65b8160cd24180a1e7adbc2c795e8dd090891284925060209150604051908152a162008a4b565b6102c08102830196506040870193506060870135808a0362008ca1575b506200890b565b9850935062008cb0886200a6c6565b935f62008c9a565b5095505050509250507fc2813e86d911b51775079b03b9fcab443ec450bc1634cf75dd578874a0af7add60205a604051908152a1565b92509050565b6040907fa04001d82f77cdc968e0f2d5a478c76bb47ca32033001fe324c0f1bf89446ecd9262008d2f8162008d29846200a770565b6200ae0b565b82519182526020820152a1565b811562008d47570490565b634e487b7160e01b5f52601260045260245ffd5b600101908160011162003ed357565b62ffffff01908162ffffff1162003ed357565b9190820180921162003ed357565b9062008d978162008010565b7fffffffffffffffffffffff00ffffffffffffffffffffffffffffffffffffffff74ff000000000000000000000000000000000000000083549260a01b169116179055565b6040519062008deb8262008471565b5f60a0838281528260208201528260408201528260608201528260808201520152565b9062008e1a82620087f8565b62008e29604051918262008553565b828152809262008e3c601f1991620087f8565b01905f5b82811062008e4d57505050565b60209062008e5a62008ddc565b8282850101520162008e40565b5f19811462003ed35760010190565b9060405162008e858162008471565b60a06001600160501b0382945463ffffffff8116845263ffffffff8160201c16602085015263ffffffff8160401c16604085015260ff8160601c1662008ecb8162008010565b606085015264ffffffffff8160681c16608085015260901c16910152565b1562008ef157565b60405162461bcd60e51b815260206004820152602c60248201527f46756e6374696f6e206d7573742062652063616c6c6564207468726f7567682060448201527f64656c656761746563616c6c00000000000000000000000000000000000000006064820152608490fd5b1562008f6457565b60405162461bcd60e51b815260206004820152602c60248201527f46756e6374696f6e206d7573742062652063616c6c6564207468726f7567682060448201527f6163746976652070726f787900000000000000000000000000000000000000006064820152608490fd5b9062008fdb82620087f8565b62008fea604051918262008553565b828152809262008ffd601f1991620087f8565b0190602036910137565b9291909162009016336200b25f565b93845f5260d560205260405f209460ff865460a01c16620090378162008010565b80620054bb575062009049856200882a565b9586511562009163578515620088b2578260208101356200906a816200a6c6565b9161ffff600284015460781c16965f5b8a8110156200912b578b8a8a83620090cf575b928092620090b4620090c7936001968e8e8e8e620090ae8f8486916200ab58565b6200b082565b620090c083836200889d565b526200889d565b50016200907a565b5050506101e08102830197508b8a60208a0135808703620090f3575b508a6200908d565b955095508699509087818a93876200910c81996200a6c6565b600281015460781c61ffff169e50939b509298939450929150620090eb565b50985050505050505050507fc2813e86d911b51775079b03b9fcab443ec450bc1634cf75dd578874a0af7add60205a604051908152a1565b50919350505050565b9290918215620092815736849003605e190193803585811215620041a7578101928335956200919b876200a6c6565b9260ff845460c01c16925f5b888110156200927557806200922c575b620091c487868c6200b2eb565b62009223576040880135601e1989360301811215620041a7578801908135916001600160401b038311620041a757602001918060051b36038313620041a757886200921a916001948e60208e0135908c6200b599565b505b01620091a7565b6001906200921c565b96508660051b82013583811215620041a7578201968735808b0362009253575b50620091b7565b99509350935062009264886200a6c6565b9360ff855460c01c16935f6200924c565b50975050505050505050565b50915050565b604051906200929682620084c6565b5f610140838281528260208201528260408201528260608201528260808201528260a08201528260c08201528260e082015282610100820152826101208201520152565b9190925f610c60525f610c4052620092f35f936200a6c6565b610c20526011610c20510154936200930e610c20516200bf0a565b50505080610c6052158015610c40526200960d575b8062009606575063ffffffff8416915b8215620095fa5780151580620095ee575b5f610bc05215620095dd57610bc0529290925b62009365610bc051620087f8565b9162009375604051938462008553565b610bc0518352601f196200938c610bc051620087f8565b015f5b818110620095bd5750508294610c205154610c00525b610bc0518510620093b7575b50509050565b805f526012610c20510160205260405f209060405191620093d883620084e3565b5463ffffffff8116835263ffffffff8160201c166020840152620094a060ff8260401c16620094078162008312565b8060408601526001600160501b038360481c16606086015260808501610ca05263ffffffff8360981c16610ca0515260a085019264ffffffffff8160b81c16845260e01c60c08601526200945b8162008312565b63ffffffff60c08601511663ffffffff610ca05151169160ff610c005160b81c169260ff610c005160b01c169264ffffffffff87511692610c6051610c20516200bf55565b9263ffffffff8693929351169063ffffffff602088015116610c8052604087015190620094cd8262008312565b6001600160501b0360608901511664ffffffffff63ffffffff610ca05151169251169263ffffffff60c08b01511694604051610be05262009511610be051620084c6565b89610be051526020610be0510152610c80516040610be0510152620095368162008312565b6060610be05101526080610be051015260a0610be051015260c0610be051015260e0610be0510152610100610be0510152610120610be0510152610140610be051015262009599620095888762008e67565b96610be051620042f582896200889d565b5063ffffffff8360201c1614620095b7575163ffffffff16620093a5565b620093b1565b602090620095cd97939762009287565b828288010152019591956200938f565b50611388610bc05292909262009357565b50611388811062009344565b50606093505f92509050565b9162009333565b63ffffffff610c20515416610c605262009323565b91939092936060945f851562009855576200963d856200a6c6565b966200964d8760098a016200bfe0565b9490918215620098475750806200983f57505b918015158062009833575b15620098275791905b6200967f83620087f8565b906200968f604051928362008553565b838252601f19620096a085620087f8565b015f5b818110620098055750506010829901905b84811080620097fb575b15620097f057835f528160205260405f209360405194620096df86620084c6565b549163ffffffff8316865260ff8360201c16620096fc8162008010565b602087015262ffffff8360281c1680604088015264ffffffffff8460401c16606088015261ffff8460681c16608088015263ffffffff8460781c1660a088015261ffff8460981c1660c088015261ffff8460a81c1660e088015261ffff8460b81c1661010088015261ffff610120880194818160c81c16865260d81c166101408801528b8103620097c6575090620097a8826200979b8a949162008e67565b97620042f582896200889d565b5014620097bb575161ffff1692620096b4565b505050945050509050565b8a608491848e604051936324bfc58760e01b85526004850152602484015260448301526064820152fd5b975050505050509050565b50831515620096be565b602090620098169693959662009287565b8282870101520194939194620096a3565b50611388919062009674565b5061138881106200966b565b905062009660565b965050509550505091509190565b505f94509192505050565b9291936200986e846200a6c6565b906200988260ff835460c01c16866200b2b7565b506200988e836200a770565b9260ff845460a01c16620098a28162008010565b80620054bb57506004840196865f528760205260405f209263ffffffff845416801562009c375780421162009be55750825f526012850160205260405f209664ffffffffff885460b81c161562009b9f5760ff885460401c16620099068362008312565b620099118162008312565b82810362009b5e575061ffff906200993863ffffffff8060098a015416951694856200accf565b50169260018410801562009b49575b62009b125762009957866200bf0a565b929492909190851562009ad757505050620099728162008312565b80158062009acd575b801562009aac575b62009a4a5750620099f8620099b564ffffffffff8a5460b81c1688549060ff808360b81c169260b01c16908662011b34565b94620099f1600289015460ff8160e01c169060ff8160d81c169064ffffffffff8160501c169061ffff64ffffffffff82169160b81c166200d555565b9062011b8b565b9360648102908082046064149015171562003ed35762009a3d9862009a1f868c9362013ac3565b9654986001600160501b0360ff8b60701c169a60201c16986200c23c565b5f526020525f6040812055565b929350945092507fd70dcea04756ab23b8663cb4528ddd657c55ea6dbc95b4481b62b25d028633ab955060a0945060405193878552602085015262009a8f8162008312565b604084015260608301526080820152a15f526020525f6040812055565b5062009ab88162008312565b60018114801562009983575082841062009983565b508284116200997b565b60028a0154604051631f466abb60e21b815260a89190911c61ffff166004820152602481019390935260448301919091526064820152608490fd5b6084898561ffff60028a015460b81c1690604051926321b82b4d60e01b845260048401526024830152600160448301526064820152fd5b5061ffff600287015460b81c16841162009947565b604051633ea2c45d60e21b8152600481018b9052602481018690526084918462009b888162008312565b604483015262009b988162008312565b6064820152fd5b5050509150507f6948067a0ba575890268b9a7eaf592a5832287e4402201145ce0768a9d9533fc9250604080925051908482526020820152a15f526020525f6040812055565b604080518a8152602081019590955284015250504260608201527fb4cbbb4a79087ef85485ec777721c815de25aac9940c011694a831a77d30aa86945060809350915050a15f526020525f6040812055565b838963e2fd5a3560e01b5f5260045260245260445ffd5b3563ffffffff81168103620041a75790565b9091821562009d9b575f5b8381101562009281578060051b83013560de1984360301811215620041a75783019060208201359162009c9e836200a6c6565b9260408201356003811015620041a7576001810362009ce457505060019263ffffffff62009cd3606062009cdb940162009c4e565b16906200a9d2565b505b0162009c6b565b9091908062009d47575060c081013590601e1981360301821215620041a75701928335936001600160401b038511620041a757602001918436038313620041a75762009d3962009d4093600196369162008591565b916200d0dc565b5062009cdd565b60019491925060021462009d5e575b505062009cdd565b8162009d71606062009d93940162009c4e565b91608063ffffffff62009d8760a085016200888f565b9416920135906200c7d4565b5f8062009d56565b915050565b90600782101562004afd5752565b91811562009d9b5782602084019060408501359462009dcd866200a6c6565b935f5b8681101562009fc1578062009f86575b83359062009df086838b6200ab58565b6040860135916007831015620041a7575f60028414158062009f78575b801562009f61575b62009f09575060019250805f5260d56020528660405f209163ffffffff8584015460201c16928235935f63ffffffff82818816031660030b131562009ed2575060ff815460a01c169362009e698562008010565b841562009e925762009e89945062009e8290826200adb3565b8a6200b18d565b505b0162009dd0565b5050505060207fe0860e5ff8578b025fc8a7f42c449c575b7a19600e8d2b3fd6ab0ae6e2e08403916040519062009ec98162008010565b8152a162009e8b565b9150507f6be50b396ca4962b3810cd9e65b8160cd24180a1e7adbc2c795e8dd090891284925060209150604051908152a162009e8b565b9050620041a7577fcbb789ca59a70c9d9ac308b2f773480d433619886320ba81e8e871690fc220c3604060019362009f456101208a016200888f565b62009f538351809362009da0565b15156020820152a162009e8b565b5062009f7161012089016200888f565b1562009e15565b50505f600384141562009e0d565b600981901b83016020810195509350604084013580890362009faa575b5062009de0565b9750945062009fb9876200a6c6565b945f62009fa3565b50955050505050507fc2813e86d911b51775079b03b9fcab443ec450bc1634cf75dd578874a0af7add60205a604051908152a1565b604d811162003ed357600a0a90565b5f5b8281106200a01457505050565b5f828201556001016200a007565b6200a02e81546200861d565b90816200a039575050565b81601f5f93116001146200a04b575055565b818352602083206200a06a91601f0160051c841901906001016200a005565b8082528160208120915555565b801562003ed3575f190190565b908060209392818452848401375f828201840152601f01601f1916010190565b5f92918154916200a0b5836200861d565b80835292600181169081156200a10e57506001146200a0d357505050565b5f9081526020812093945091925b8383106200a0f3575060209250010190565b6001816020929493945483858701015201910191906200a0e1565b915050602093945060ff929192191683830152151560051b010190565b9190811015620088b25760051b0190565b356001600160a01b0381168103620041a75790565b939291906200a160856200a6c6565b946200a1758560ff885460c01c16836200b2eb565b6200a18557620085ea956200bab0565b5050505050505f90565b6040907fc0541f32f5c37f170acf579ae2de8be00385c7ab848fb4b1f19340fd41d588449262008d2f816200a1c4846200a770565b6200adb3565b6200a1d46200ab42565b62004220576200a1e4906200a6c6565b60ff815460c01c16600581101562004afd576004146200a2015750565b604061ffff60027f2bf3500d8e3b78624f68716bdcfccb30df6b6ef393561a3ffa32e8d357ac7e439360ff60c01b198154168155015460a81c16815190815260016020820152a1565b156200a25257565b60405162461bcd60e51b815260206004820152602e60248201527f496e697469616c697a61626c653a20636f6e747261637420697320616c72656160448201527f647920696e697469616c697a65640000000000000000000000000000000000006064820152608490fd5b909182156200a37f578135826200a2d4826200a6c6565b9160ff835460c01c16915f5b878110156200a37557806200a336575b6001906200a3008786866200b2eb565b6200a330576200a329876200a31860608b016200888f565b60408b013560208c01358a6200fa94565b016200a2e0565b6200a329565b95508560071b81019586358084036200a351575b506200a2f0565b9250925092506200a362816200a6c6565b92600160ff855460c01c1693906200a34a565b5050505050505050565b505050565b81156200a6c257809281356200a39a816200a6c6565b94600986019360ff875460c01c16600581101562004afd5715935f5b878110156200a6b757806200a667575b600190876020860135801580156200a65b575b6200a65357805f526007820160205260405f2063ffffffff815416156200a64a5780548d63ffffffff821692835f5260d56020528b8d60405f20946200a42863ffffffff8260781c166200fcac565b9182156200a641575b5081156200a623575b81156200a50c575b50156200a4cf576200a499866200a4c49561ffff60027f3669d8cc87cc659246c535cf34b73f019e2da2a48e04d14093701e877fb6eac69b976200a48c6200a4a09886986200fcea565b015460a81c16906200fe02565b9262010194565b6040519384938c859094939260609260808301968352602083015260408201520152565b0390a15b016200a3b6565b50505050507fa2f88eaf96334c482f1071c105643f009253e044dc7767b94cd01f787c7d92ad91506040908151908982526020820152a16200a4c8565b90505f90885461ffff8160301c1661ffff8260201c16116200a532575b50505f6200a442565b60ff8160401c166200a54a60ff8460201c1662010541565b156200a5bb5762ffffff808360781c169260901c1691801515806200a5b1575b6200a57d575b505050505b5f806200a529565b62ffffff93945082916200a59a6200a5a0946200453193620087ea565b62013ac3565b9160281c1611155f8080806200a570565b508215156200a56a565b62ffffff808360481c169260601c16821515806200a619575b6200a5e4575b505050506200a575565b62ffffff93945082916200a59a6200a601926200a60895620087ea565b90620087ea565b9160281c1610155f8080806200a5da565b508015156200a5d4565b905060ff855460a01c166200a6388162008010565b1515906200a43a565b91508f6200a431565b5050506200a4c8565b50506200a4c8565b5061ffff81116200a3d9565b92508260061b82019283358086036200a682575b506200a3c6565b94509450945095506200a695826200a6c6565b95600987019460ff885460c01c16600581101562004afd57159460016200a67b565b509650505050505050565b5050565b906103fc82116200a70457815f5260d960205260405f20916200a6e9836200b3e0565b156200a6f25750565b63264fcda560e11b5f5260045260245ffd5b5063324f0d9160e21b5f5260045260245ffd5b6001600160a01b036033541633036200a72c57565b606460405162461bcd60e51b815260206004820152602060248201527f4f776e61626c653a2063616c6c6572206973206e6f7420746865206f776e65726044820152fd5b906001821080156200a7d2575b6200a7b257815f5260d560205260405f2091600183015460601c156200a7a05750565b6305b58f2560e51b5f5260045260245ffd5b50630c8f0a6960e41b5f52600452600160245263ffffffff60445260645ffd5b5063ffffffff82116200a77d565b90915f926002830192835461ffff8160a81c169582549160ff8360c01c16600581101562004afd57600381036200a8245788633534376760e21b5f5260045260245ffd5b96979596949593946002146200a96a5760f01c60ff16159081806200a956575b6200a94b576200a861600163ffffffff600988015416886200ad1b565b6200a94257506200a8de575b5050805467ffffffffffffffff191663ffffffff8316174260201b63ffffffff60201b161790557f65ec400f2e8b22c7064f99991d01828c6a55acaa066b3fdba3bf5a491b1a6a4c905b92546040805160a89290921c61ffff1682526020820194909452600193819081015b0390a1565b61ffff63ffffffff8260401c169160901c16906200a8fe8282876201466a565b156200a90b57506200a86d565b6040516307311a2960e31b815261ffff93909316600484015260248301949094526044820193909352606481019290925250608490fd5b96505050505050565b505f96505050505050565b506200a9646001866201055a565b6200a844565b8363aa5493c360e01b5f5260045260245ffd5b91905f926002810193845461ffff8160a81c169160ff8454926200a9a7828560c01c16866200dab7565b5060f01c16159081806200a956576200a94b576200a861600163ffffffff600988015416886200ad1b565b91905f926002810193845461ffff8160a81c169060ff8454916200a9fc828460c01c16856200dab7565b5060f01c161580806200ab13575b6200a94b576200aa265f63ffffffff600988015416886200ad1b565b6200ab09576200aa82575b5050815467ffffffffffffffff191663ffffffff8416174260201b63ffffffff60201b1617909155507f65ec400f2e8b22c7064f99991d01828c6a55acaa066b3fdba3bf5a491b1a6a4c906200a8b7565b61ffff63ffffffff8260401c169160901c16906200aaa28282886201466a565b156200aaaf57506200aa31565b6200ab0392939697507f3988d14888f50c39e6b838927480e13c79fd6c5cfdfb08a1b02febe997a3571e959450604051948594859094939260609261ffff6080840197168352602083015260408201520152565b0390a190565b5091955050505050565b506200ab205f866201055a565b6200aa0a565b60e35b600e810180911162003ed35790565b6200ab296200ab26565b60018060c9546200ab526200ab38565b1c161490565b604083013592916007841015620041a7576101c0837f02d2bf39d2355aaa5486487e934403fd3ba3f88c73ab71938cee11931fddeb7b956200aba060e061022097016200888f565b6200abaf61010084016200888f565b906200abed6200abc361012086016200888f565b935a97604051998a5260208a0152853560408a0152606086013560608a0152608089019062009da0565b608084013560a088015260a084013560c088015260c084013560e08801521515610100870152151561012086015215156101408501526101408101356101608501526101608101356101808501526101808101356101a08501526101a08101358285015201356101e0830152610200820152a1565b91906200ac7a6200ac738262008d5b565b9162008d6a565b8382119384156200acc3575b50836200ac91575050565b7f9c6cd57b23ccacf841857c1eb7892bef39f27d0c1197bb0bf7646c90dc7fb8709160409182519182526020820152a1565b81945011925f6200ac86565b91906200ace06200ac738262008d5b565b908381119384156200ad10575b846200acf857505050565b630caa980960e21b5f5260045260245260445260645ffd5b82811194506200aced565b9291926200ad346200ad2d8362008d5b565b9262008d6a565b908083119485156200ada8575b856200ad4e575b50505050565b6200ad8e57507f9c6cd57b23ccacf841857c1eb7892bef39f27d0c1197bb0bf7646c90dc7fb8709160409182519182526020820152a15f8080806200ad48565b8290630caa980960e21b5f5260045260245260445260645ffd5b82821195506200ad41565b9190916001600160401b0383116200aded57600101805467ffffffff00000000191660209390931b63ffffffff60201b1692909217909155565b826395d41f3f60e01b5f526004526001600160401b0360245260445ffd5b9190916001600160401b0383116200aded57600101805463ffffffff60401b191660409390931b63ffffffff60401b1692909217909155565b9291906040516200ae55816200851b565b5f81525f6020820152806200ae6e60016004886201063e565b156200af1b5750604435906007821015620041a757600482146200af245760ff835460a01c166200ae9f8162008010565b80620054bb57506200aec7600161ffff600289015460a81c1660ff895460c01c16906200b2eb565b6200af1b57600582146200af0357506006146200aef1575060019160045f92620085ea9562010b2d565b60019250600490620085ea94620109de565b9491620085ea945060019391506101a435926201033e565b94505050505090565b94620085ea94506001939250606435915060243590620108d6565b9391939290925f936040516200af55816200851b565b5f81525f6020820152806200af6c5f86866201063e565b156200b01457506040840135906007821015620041a757600482146200b0625760ff835460a01c166200af9f8162008010565b806200b01f57506200afc68761ffff600287015460a81c1660ff875460c01c16906200b2eb565b6200b01457600582146200affc57506006146200afee575090620085ea946001939262010b2d565b90620085ea959350620109de565b969293620085ea9695506101a091500135926201033e565b965050505050505090565b945096505050507fe0860e5ff8578b025fc8a7f42c449c575b7a19600e8d2b3fd6ab0ae6e2e08403925060209150604051906200b05c8162008010565b8152a190565b969392915050620085ea94505f93506020606083013592013590620108d6565b9094939291946040516200b096816200851b565b5f81525f6020820152806200b0ad8786866201063e565b156200b01457506040840135906007821015620041a757600482146200b16f5760ff835460a01c166200b0e08162008010565b806200b12e57506200b1078761ffff600287015460a81c1660ff875460c01c16906200b2eb565b6200b01457600582146200affc57506006146200afee575090620085ea945f939262010b2d565b969550965050505050620054bb5760207fe0860e5ff8578b025fc8a7f42c449c575b7a19600e8d2b3fd6ab0ae6e2e0840391604051906200b05c8162008010565b969392915050620085ea9493506020606083013592013590620108d6565b9291906040516200b19e816200851b565b5f81525f6020820152806200b1b55f86886201063e565b156200af1b57506040840135906007821015620041a757600482146200b243576200b1f55f61ffff600289015460a81c1660ff895460c01c16906200b2eb565b6200af1b57600582146200b22c57506006146200b21e57505f8092600192620085ea9562010b2d565b915f92620085ea94620109de565b94915f9391506101a0620085ea950135926201033e565b94620085ea945f949350606081013592506020013590620108d6565b6001600160a01b031690815f5260d660205260405f20549182156200b2815750565b6303a0e27760e01b5f5260045260245ffd5b60c954613fff9060d51c16612710810290808204612710149015171562003ed35790565b91905f92600582101562004afd57600482036200b2d2575050565b63a532a27d60e01b5f52600452620079e9915062007ff3565b909291925f93600582101562004afd57600482036200b30957505050565b90919293506200b352577fa532a27d068a9d4b869c6cc37b1c8edd12d861261edcad20311cfc140d1190bc916200b34c6040928351928352602083019062008002565ba1600190565b620079e99163a532a27d60e01b5f5260045262007ff3565b6200b38260c954916001600160701b03831662010ed2565b906001600160701b0319161760c955565b7fffffffffffe0000000000000000000000000ffffffffffffffffffffffffffff6200b3d560c954926c1fffffffffffffffffffffffff8460701c1662010f67565b60701b91161760c955565b6002015461ffff8160b81c16151590816200b3f9575090565b61ffff915060c81c16151590565b91909181156200a37f5763ffffffff915f5b8181106200b428575050505050565b6200b4358183876200a12b565b356001811080156200b491575b6200b487576200b457906007810690620087ea565b938085146200b47c5750600190845f52600684016020525f60408120555b016200b419565b93506001906200b475565b506001906200b475565b508062ffffff106200b442565b906001600160501b036200b4b781928285541662010f67565b16166001600160501b0319825416179055565b60c95460e35b90613fff911c16612710810290808204612710149015171562003ed35790565b60c9546200b4d06200ab26565b908152602081019190915260a081019493926080926200b51d8162008312565b604083015260608201520152565b949392919085526020850152151560408401526200b5498162008312565b6060830152608082015260c060a08201528260c08201527f07ffffffffffffffffffffffffffffffffffffffffffffffffffffffffffffff8311620041a75760e09260051b809284830137010190565b939091929594955f9682156200ba59576012860190855f528160205260405f209064ffffffffff825460b81c16156200ba01576200b5d881896200c11f565b80156200b9f6578254938460401c60ff16906200b5f58262008312565b8a8215928154978860b01c60ff169860b81c60ff168160b81c64ffffffffff168094828c83878760e01c906200b62b95620110b4565b9283928160481c6001600160501b03169c8d9260981c63ffffffff16946200b65894866001958d6201110a565b998a156200b91357505050835f146200b90957878511155b156200b8a05750915f91905b8a8d89878d8d8189106200b7c0575b5050505050505050506200b6ab9064ffffffffff855460b81c16620087ea565b806200b7305750506200b70657927faad1caf83451874ebc06a35849e4a295d8bfa856d05d1fbac2876702c7d5074394926200b6fd9260ff620086969998965460401c165f604051978897886200b52b565b0390a16201188c565b9060ff620018a59493925460401c165f60405197889763155a395f60e31b8952600489016200b52b565b899b5084849597508196505f9350828a8a6200b752976001969c9d9e6201156f565b156200b7755750505050906200b768916201158a565b620086966001926201188c565b9460ff60e4965460401c1690604051956350e5550560e11b8752600487015260248601525f60448601526200b7aa8162008312565b6064850152608484015260a483015260c4820152fd5b976200b7d291819a969798996200a12b565b35805f528760205260405f209564ffffffffff875460b81c16156200b89057865460ff8160401c166200b8058162008312565b1589146200b87f57916200b83895939164ffffffffff5f969460b81c168881101587146200b87657508798899562011345565b156200b86b57906200b84a91620087ea565b9283156200b85f576001905b0191906200b67c565b8a8d89878d8d6200b68b565b93600191506200b856565b98899562011345565b50505050505093600191506200b856565b505050505093600191506200b856565b9d9b505050509450919250506200b8e857906200ab03917fb2f4de9c8b5c718fbc129fd73f1f19ba5c646e821e39464c1c0bdb4014b4ed6e959697604051958695866200b4fd565b90620018a59187604051958695632cbd37a760e21b8752600487016200b4fd565b878510156200b670565b995099509a9b9c5050975050505090509796976200b99a576040805195865260208601969096526001600160501b03169484019490945263ffffffff909316606083015264ffffffffff909216608082015260a08101919091527f2e92846d5b5d5dd9cf60dd19064afe4a911e6751cdad455cb26a600db66e963c908060c081016200ab03565b620018a594959650604051968796632e92846d60e01b8852600488019260a0946001600160501b0363ffffffff9264ffffffffff959a9998949a60c088019b885260208801521660408601521660608401521660808201520152565b505050505050505050565b949650505050509392936200ba43577f6948067a0ba575890268b9a7eaf592a5832287e4402201145ce0768a9d9533fc9160409182519182526020820152a190565b906334a4033d60e11b5f5260045260245260445ffd5b93945050509293506200ba9a577f64846a095feab375f007bd15ab65eefdf07957e365b3c7ee4711cd9dbdecabe79160409182519182526020820152a15f90565b906364846a0960e01b5f5260045260245260445ffd5b9295935f9681156200bec9576012850196845f528760205260405f2064ffffffffff815460b81c16156200be87576200baea82886200c11f565b9182156200be7a5781548860ff8260401c166200bb078162008312565b801592825460ff808260b01c169160b81c16906200bb625f6200bb3e848464ffffffffff8860b81c16809a8a8a60e01c91620110b4565b9363ffffffff6001600160501b038760481c169660981c1693858986898d6201110a565b9283156200bdf457505050835f146200bdeb578087115b156200bd7f575050905f905b8782106200bcb1575b505082939495969798999a5064ffffffffff6200bbb192935460b81c16620087ea565b806200bc2e57506200bc0357927faad1caf83451874ebc06a35849e4a295d8bfa856d05d1fbac2876702c7d5074394926200b6fd9260ff620086969998965460401c166001604051978897886200b52b565b9060ff620018a59493925460401c16600160405197889763155a395f60e31b8952600489016200b52b565b829a5083806200bc4e9597508296505f935089896001968d9e9d6201156f565b156200bc645750506200b768929394506201158a565b60e49360ff885460401c1690604051946350e5550560e11b865260048601526024850152600160448501526200bc9a8162008312565b606484015260848301528060a483015260c4820152fd5b90916200bcc08389896200a12b565b3590815f528d6020528b8760405f209364ffffffffff855460b81c16156200bd71578c855460ff8160401c166200bcf78162008312565b1588146200bd61576200bd2a9460019490939092839260b81c64ffffffffff168881106200b87657508798899562011345565b156200bd5657906200bd3c91620087ea565b9182156200bd50576001905b01906200bb85565b6200bb8e565b92600191506200bd48565b505050505092600191506200bd48565b50505092600191506200bd48565b97509c9a9b505050925050929394506200bdca57906200ab03917f2d77916ace43e6acd02840c860e1e53ff9192b11b1e4dd447dddbcd4b5a4a5c3959697604051958695866200b4fd565b90620018a591876040519586956316bbc8b560e11b8752600487016200b4fd565b8087106200bb79565b995099509a9c9e9d505050969850509150506200b99a576040805195865260208601969096526001600160501b03169484019490945263ffffffff909316606083015264ffffffffff909216608082015260a08101919091527f2e92846d5b5d5dd9cf60dd19064afe4a911e6751cdad455cb26a600db66e963c908060c081016200ab03565b5096975050505050505050565b509394505050929493506200ba43577f6948067a0ba575890268b9a7eaf592a5832287e4402201145ce0768a9d9533fc9160409182519182526020820152a190565b50509391509193506200ba9a577f64846a095feab375f007bd15ab65eefdf07957e365b3c7ee4711cd9dbdecabe79160409182519182526020820152a15f90565b5f9142915463ffffffff8160201c169161ffff8260a01c16915f8442116200bf40575b156200bf365750565b63ffffffff169450565b50826200bf4e8542620087ea565b116200bf2d565b929097966200bf66908397620118c0565b94819982979293436200bf7a9188620119c6565b5050956002015460f81c976200bf9091620087a4565b926200bf9c91620087a4565b946200bfa891620087a4565b936200bfb6928592620155b8565b956200bfc2916200c794565b906200bfce9362015441565b906200bfdb82846200c1f5565b929190565b6006906200bff3600784068094620087ea565b5f520160205260405f209080155f146200c01b5750549061ffff808360081c169260181c1690565b600181036200c0385750549061ffff808360281c169260381c1690565b600281036200c0555750549061ffff808360481c169260581c1690565b600381036200c0725750549061ffff808360681c169260781c1690565b600481036200c08f5750549061ffff808360881c169260981c1690565b6005036200c0aa57549061ffff808360a81c169260b81c1690565b549061ffff808360c81c169260d81c1690565b6200b38260c954916001600160701b03831662010f67565b9091926001600160a01b03620086969481604051956323b872dd60e01b60208801521660248601521660448401526064830152606482526200c11960848362008553565b62011a2b565b91906200c12c836200bf0a565b919295909386156200c140575b5050505050565b6200c19e57600201546040805160a89290921c61ffff16825260208201949094529283019190915260608201527f7d19aaecec937dccd460f6ff611aadbc7bfa5ef672ef8fb6cfaf12ea804ed4a090608090a15f808080806200c139565b60020154604051631f466abb60e21b815260a89190911c61ffff166004820152602481019390935260448301919091526064820152608490fd5b9060018201915f60018412911290801582169115161762003ed357565b9190915f838201938412911290801582169115161762003ed357565b905f19820191821360011662003ed357565b81810392915f13801582851316918412161762003ed357565b996200c28f9997939692989495919a89549163ffffffff8360981c16996200c2a483549d8e8d60ff808360b81c169260b01c169064ffffffffff8960b81c16908960e01c60ff8b60401c168d8b6200bf55565b50506001600160501b038660481c166200c1f5565b808912156200c6e857886200c2b9916200c223565b91816200c668575050955b604883901c6001600160501b0316808811156200c640576200c2e79088620087ea565b996200c3008d60ff808260b81c169160b01c1662008d7d565b6006036006811162003ed3576200c31b6200c32c9162009ff6565b64ffffffffff8660b81c16620087a4565b816200c33e60ff8760401c1662008312565b8c60ff8760401c16155f146200c620576200c365926200c35e9162013ac3565b906200c1f5565b9a5b5f8c13156200c5af5750506200c3898a63ffffffff600985015416906200ac62565b6200c5a0576200c3cf6200c3c65f9d5b60ff808260b81c169160b01c168d64ffffffffff8860b81c16908860e01c60ff8a60401c168c8a6200bf55565b50508d6200c1f5565b908082126200c4cf575b50509363ffffffff620086969c819995899560ff8a968f6200c4c99f9d906200c4307fa97e56d50498d7b8acf31641413f46438d6d7d3f6e6acf04c6e7995cab8b66b29e6001600160501b03936101809f62011bed565b6200c43c8a886200b49e565b54955416986040519a8b5260208b01526200c45c828260401c1662008312565b60401c166040890152606088015260808701526001600160501b038160481c1660a08701528c60c087015260981c1660e085015286610100850152610120840152610140830152610160820152a1835463ffffffff60981b1916911660981b63ffffffff60981b16178255565b62011d03565b5f82138015906200c52b575b156200c3d957989a5098505050505050507fa3cd1f19e02df00e3aa13cca19961f43eeedbfb5f34c064e278a6e2554a45088955060809450604051938452602084015260408301526060820152a1565b5060018301548060f81c6009811080156200c595575b62004e1a576200c5519062009ff6565b826200c56357505081155b156200c4db565b828411156200c585578263ffffffff818603935b60d81c16029102106200c55c565b8263ffffffff858203936200c577565b50602481116200c541565b50505050505050505050505050565b96509694505050959750507f5af9ac97cf247d243434484869b838e2197714f1588e5d33e67505161e003687985060e0975060ff9593604051978852602088015260408701526060860152608085015260a08401526200c614828260401c1662008312565b60401c1660c0820152a1565b6200c6329150916200c6399262013ac3565b826200c223565b9a6200c367565b506200c3cf6200c3c66200c661896001600160501b038760481c16620087ea565b9d6200c399565b8282999392116200c67c575b50506200c2c4565b97909197156200c6905750955f806200c674565b979b509799505050505050507f2d1899850ba9b9c9b74657311b57a098fafc67bacd47c2572b10b1d48158646595506200a8d99250604051948594859094939260609260808301968352602083015260408201520152565b509950505050505050509092507f2d1899850ba9b9c9b74657311b57a098fafc67bacd47c2572b10b1d481586465945060809350604051928352602083015260408201525f6060820152a1565b906001600160501b036200c75860036200869694019282845460501c1662010ed2565b825469ffffffffffffffffffff60501b1916911660501b69ffffffffffffffffffff60501b16179055565b600160ff1b811462003ed3575f0390565b81810292915f8212600160ff1b82141662003ed357818405149015171562003ed357565b811562008d4757600160ff1b81145f1983141662003ed3570590565b929190925f91600282015461ffff8160a81c169583549463ffffffff8660c81c166200c801818a620101cc565b6200c8145f60ff8960c01c168b6200db18565b6200b9f6576200c824436200dba3565b9391929098608f430180431162003ed35785116200cbd2576013890191848452826020526040842054916200c8598c62011d79565b9c15809d819e6200cbc5575b506200cb315760ff8960f01c16158080916200cb1e575b6200cb0d576200c8988663ffffffff60098f0154168d6200ad1b565b6200cb0d576200ca4a575b5061ffff8860981c166200c8b7816200c783565b8890828213156200ca2d575050975b6200c8d2898b6200c794565b9060f81c600503600581116200ca1957906200c8f26200c8f99262009ff6565b906200c7b8565b60050b99849187116200c9a0575b50927f9c0e05c2bbc786a75afe5fed63ff9274f7c690af8ea4e843e07f2a525295c1049c9a989694926040928b6101009e9c9a9896019a8b9165ffffffffffff806200c95e6200c957856200878d565b9462011d79565b9416831b921b191617179382526020522055604051978852602088015260408701526060860152608085015260a084015260050b60c08301521560e0820152a1565b5f19870191508682116200ca0557926040928b7f9c0e05c2bbc786a75afe5fed63ff9274f7c690af8ea4e843e07f2a525295c1049f9d9b9997956101009f9d9b9997946200c9ee916200d6f4565b509396989a509b9d509250929496989a9c6200c907565b634e487b7160e01b85526011600452602485fd5b634e487b7160e01b86526011600452602486fd5b80919a925089126200ca41575b506200c8c6565b98505f6200ca3a565b61ffff63ffffffff8260401c169160901c16906200ca6a82828d6201466a565b156200ca7757506200c8a3565b9a509a5050505094989750505050506200cad7577f2030ce993f9f888e4d2a20dcbf75ead5d3de6742ef5fa8e75a47849a41a4af579392916200a8d991604051948594859094939260609260808301968352602083015260408201520152565b90620018a591604051948594632030ce9960e01b8652600486019094939260609260808301968352602083015260408201520152565b505050505050505050505050505050565b506200cb2b868d6201055a565b6200c87c565b505050509450945096955050506200cb8f577fdd8c0c9dcb3ad98da85346fa23e456a8128ec3fc478eaacb4990e450880308cc9392916200a8d991604051948594859094939260609260808301968352602083015260408201520152565b90620018a59160405194859463dd8c0c9d60e01b8652600486019094939260609260808301968352602083015260408201520152565b9050831615155f6200c865565b5050604080519a8b524360208c01528a0192909252507fe0a0c6a40b4bf56f73bec44f57f213f583e95a0be298411ea97afbe135c07d82979650869550506060850193506200a8d992505050565b600281015481549560a882901c61ffff16959460c888901c63ffffffff16949092916200cc4e8689620101cc565b6200cc618160ff8b60c01c168a6200db18565b6200b9f6576200cc71436200dba3565b929097608f430180431162003ed35784116200cf6c576013880191835f528260205260405f20549c8d6200cca58c62011d79565b9c159c8d91826200cf5f575b50506200cf015760ff8860f01c16158080916200ceee575b6200cb0d576200cce58363ffffffff60098e0154168c6200ad1b565b6200cb0d576200ce62575b505061ffff8660981c166200cd05816200c783565b8690828213156200ce45575050955b6200cd2087896200c794565b9060f81c600503906005821162003ed3576200c8f26200cd409262009ff6565b60050b975f9185116200cde6575b50907f9c0e05c2bbc786a75afe5fed63ff9274f7c690af8ea4e843e07f2a525295c1049b886101009c9b9a9998979695949301986200cd986200cd91826200878d565b9162011d79565b9165ffffffffffff808c16831b921b19161717915f5260205260405f2055604051978852602088015260408701526060860152608085015260a084015260050b60c08301521560e0820152a1565b9a99989796959493929190505f1983019b838d1162003ed357876200ce307f9c0e05c2bbc786a75afe5fed63ff9274f7c690af8ea4e843e07f2a525295c1049e6101009e6200d6f4565b50929394959697985098999a9b509b6200cd4e565b809198925087126200ce59575b506200cd14565b96505f6200ce52565b61ffff63ffffffff8260401c169160901c16916200ce8283838c6201466a565b156200ce8f57506200ccf0565b99509950995050505050505094506200cad7577f2030ce993f9f888e4d2a20dcbf75ead5d3de6742ef5fa8e75a47849a41a4af579392916200a8d991604051948594859094939260609260808301968352602083015260408201520152565b506200cefb838c6201055a565b6200ccc9565b509750505095965097505050506200cb8f577fdd8c0c9dcb3ad98da85346fa23e456a8128ec3fc478eaacb4990e450880308cc9392916200a8d991604051948594859094939260609260808301968352602083015260408201520152565b16151590505f8f6200ccb1565b50975050975050505050506200cfbc57604080519182524360208301528101919091527fe0a0c6a40b4bf56f73bec44f57f213f583e95a0be298411ea97afbe135c07d829080606081016200a8d9565b63382831a960e21b5f526004524360245260445260645ffd5b90929160ff600283015460f01c166200d0aa5760016200cff791858462011f2d565b9490929091156200d09757805463ffffffff60401b1916604084901b63ffffffff60401b161781557f5e3f1c81da4dcfcb835cba6457aa389114f5d309917179746b46ac03953f56b29291905b80546fffffffff0000000000000000000000008760601b16906fffffffff00000000000000000000000019161790556200a8d9600195604051938493846040919493926060820195825260208201520152565b5063a8c2945f60e01b5f5260045260245ffd5b50509060207f36f8ddb481e1d66678af53feb8d0fdddc463c11ce08cda4e93ac2065d26634dd91604051908152a15f90565b9291905f9160ff600286015460f01c166200d184575f6200d0ff91838762011f2d565b9590939091156200d1525750805463ffffffff60401b1916604084901b63ffffffff60401b161781557f5e3f1c81da4dcfcb835cba6457aa389114f5d309917179746b46ac03953f56b29291906200d044565b9450507fa8c2945f7db53a36d192551c9b4c3ea4cbc53140f60d0dc8b1a8b58499958cdf9150602090604051908152a1565b507f36f8ddb481e1d66678af53feb8d0fdddc463c11ce08cda4e93ac2065d26634dd92935060209150604051908152a15f90565b6002609754146200d1ca576002609755565b60405162461bcd60e51b815260206004820152601f60248201527f5265656e7472616e637947756172643a207265656e7472616e742063616c6c006044820152606490fd5b906001600160501b03809116911603906001600160501b03821162003ed357565b9190915f9054906001600160501b038083169260501c168083116200d278575b5080841193846200d26057505050565b632e14f96160e21b5f5260045260245260445260645ffd5b6001600160501b0391506200d28e90836200d20f565b165f6200d250565b9290925f9054936001600160501b038086169560501c168086116200d340575b5081811193846200d2ca575b505050909150565b6200d325576040805191825260208201929092526001600160501b039094169084015290917fb853e5846ad52919c794f709695100094681c458cd1864d5217c6c897b6858b19080606081015b0390a181905f80806200d2c2565b849250632e14f96160e21b5f5260045260245260445260645ffd5b6001600160501b039192506200d35790866200d20f565b16905f6200d2b6565b335f5260d460205260ff60405f2054166200d4fa5760d1544311156200d4b25761217b430180431162003ed3578060d1556103e86200d3a560ce5460cc5490620087a4565b0460d3548082115f146200d4aa57505b61217b8104918260d05561085f430180431162003ed35760d25561217b830283159084810461217b1482171562003ed3576200d3f29084620087ea565b9361085f81029181830461085f14171562003ed3576200d4386200d458927fbed1e76d359c53e2dbafd4561fa97daac567d51974f6317c2f583ef17cddaa9d9662008d7d565b60cf55604051938493846040919493926060820195825260208201520152565b0390a15b60cf548082116200d47857906200d47391620087ea565b60cf55565b60d05460d1546040516356cb4a3d60e01b81526004810194909452602484019290925260448301526064820152608490fd5b90506200d3b5565b60d2548043116200d4c5575b506200d45c565b6200d4e36200d4d96200d4ec9243620087ea565b60d05490620087a4565b60cf5462008d7d565b60cf554360d2555f6200d4be565b50565b906001600160501b036200b4b781928285541662010ed2565b60405163a9059cbb60e01b60208201526001600160a01b0392909216602483015260448083019390935291815262008696916200c11960648362008553565b9392919060648102928184046064148215171562003ed357826200d57991620087a4565b938484106200d5e957826200d58e91620087a4565b938484106200d5d9575081116200d5a85750505050600190565b60648102908082046064149015171562003ed3576200d5c7926201251b565b818111156200d5d4575090565b905090565b90506200d5c79391508462012454565b505050505090565b949392916200d6009162008d7d565b60648102928184046064148215171562003ed357826200d57991620087a4565b9061271081116200d65b576002909101805470ffff000000000000000000000000000000191660789290921b61ffff60781b16919091179055565b61ffff600283015460a81c16630dbcc17f60e31b5f5260045260245261271060445260645ffd5b6001600160a01b0319606554166065556001600160a01b0380603354921691826001600160a01b0319821617603355167f8be0079c531659141344cd1fd0a4f28419497f9722a3daafe3b4186f6b6457e05f80a3565b6001600160501b036200b4b76003829301938285541662010ed2565b63ffffffff815460c81c16918281106200d7df579091906200d7169062012554565b9391939290929383926013829101915f52816020526200d73b60405f20549562011d79565b8516156200d76157505050906200d75965ffffffffffff926200878d565b1c1660050b91565b9194939092858511156200d7d557806200d7be5750506200d78860059161a76790620087ea565b9050600491815f528060205260405f2054935b61217a19810190811162003ed357946200d7b58462011d79565b9290926200d73b565b909392905f19810190811162003ed357926200d79b565b505f959350505050565b5050505f905f90565b9190916001831080156200d83d575b6200d81f57600201805461ffff60c81b191660c89390931b61ffff60c81b1692909217909155565b82630c8f0a6960e41b5f52600452600160245261271060445260645ffd5b5061271083116200d7f7565b9061271081116200d65b5790600261ffff62008696931691019061ffff60881b1961ffff60881b83549260881b169116179055565b9190916001831080156200d8b5575b6200d81f57600201805461ffff60b81b191660b89390931b61ffff60b81b1692909217909155565b5061271083116200d88d565b6001821080156200d926575b6200d90557600201906effffffffff0000000000000000000082549160501b16906effffffffff000000000000000000001916179055565b50630c8f0a6960e41b5f52600452600160245264ffffffffff60445260645ffd5b5064ffffffffff82116200d8cd565b906103e8811080156200d988575b6200d9695767ffff00000000000082549160301b169067ffff0000000000001916179055565b61ffff9063d24aa9ff60e01b5f526004526103e860245260445260645ffd5b5061ffff81116200d943565b908060081c9060ff811660ff81036200da87575b5060101c9060ff811660ff81036200da25575b505060ff81036200d9ce575b50505f1990565b6200d9db90825462012590565b60018101156200d9c757806002915f52600183016020526200da0160405f2054620125b6565b9060081b1791825f52016020526200da1d60405f2054620125b6565b9060081b1790565b6200da3f90835f526001850160205260405f205462012590565b9060018201156200d9bb57600292507effffffffffffffffffffffffffffffffffffffffffffffffffffffffffff00161791825f52016020526200da1d60405f2054620125b6565b6200daa190835f526002850160205260405f205462012590565b60018101156200d9a8579250905060ff19161790565b5f92916005811015908162004afd57600181149182156200db0a575b82156200daf7575b50506200dae55750565b633892657f60e01b5f5260045260245ffd5b90915062004afd576003145f806200dadb565b506002811491505f6200dad3565b9092915f936005811015908162004afd57600181149182156200db95575b82156200db82575b50506200db49575050565b909192506200dae55760207f3892657f1733e6fad09eddb45222f85d706fcdf18040658aae5eb4bd9ba497e691604051908152a1600190565b90915062004afd576003145f806200db3e565b506002811491505f6200db36565b6200dbae9062012554565b92908290600481036200dbdf5750506200dbcd5f9261a7679062008d7d565b925b61217b810180911162003ed35790565b6200dbed9194935062008e67565b916200dbcf565b906200dc00336200b25f565b91825f5260d560205260405f209260ff845460a01c166200dc218162008010565b80620054bb57506200dc43826001600160a01b0360cb5416309033906200c0d5565b6200dc4f82856200b49e565b60cc546200dc5e838262008d7d565b906001600160501b0382116200dcbe575060cc5592546040805194855260208501929092526001600160501b031690830152907f84b5adc99a7d46a960b87da6e4882021bab65d63c6d02c9bcfc52f02e710b1e39080606081016200a8d9565b8390632242001360e21b5f526004526024526001600160501b0360445260645ffd5b93909796959260c0959260e0860199865260208601526200dd018162008312565b60408501526060840152608083015260a08201520152565b949394610ac052610a405261084052610a8052610ae052610a80515f526012610ac0510160205260405f20610860528364ffffffffff610860515460b81c16156200f677576200dd7591610a805161086051610ac051620126f5565b6108a0526108c092909252919592909190156200f66f576200dda98662ffffff6001610ac051015460701c16848462012aab565b9086806200f661575b806200f653575b80156200f626575b156200f59557505050816200f4ea575b505060ff610860515460401c16610880525f610a00525f610a20525f610920526200de8361086051546200de206108c0516001600160501b038360481c1664ffffffffff8460b81c1662015902565b6200de2e819492946200c783565b610a00526200de7460ff8460401c1693610ac051549060ff808360b81c169260b01c16906108c0519063ffffffff8160981c169060e01c886108a051610ac0516200bf55565b6109c05261098052906200c1f5565b905f82126200f4925750806200de9d6200df44926200c783565b610a60525f610940526001610ac0510154610aa052620186a06200decd62ffffff610aa05160881c16836200c794565b0561096052610aa051620186a0906200deef9060a01c62ffffff16836200c794565b056109a0819052610a2052610aa051620186a0906200df179060b81c62ffffff16836200c794565b056109e0819052610960516109a0516200df3d92916200df37916200c1f5565b6200c1f5565b906200c223565b610940526200df5a6109e051610a60516200c1f5565b610a60528015806200f489575b6200f452575b6200dfc86001600160501b036200df9461096051826003610ac051015460501c1662018e0b565b166003610ac051019069ffffffffffffffffffff60501b1969ffffffffffffffffffff60501b83549260501b169116179055565b6200dfd6610a605162015923565b5f610a6051125f146200f3c3576200dff690610a8051610ac05162011bed565b610a80515f5260d560205260405f20906200e015610a20518362015933565b6109205260c9546200e0356001600160701b036109405190831662018e0b565b906001600160701b0319161760c95560ff610860515460401c166200e05a8162008312565b6200f3ab576200e0716108c051610ac051620159b0565b156200f380576200e0aa906200e091610a80516011610ac0510162013af6565b600561ffff6002610ac051015460a81c16910162013c02565b6200e1076200e0fd6002610ac0510154845f146200f36e5764ffffffffff8116905b60ff8160e01c169160ff8260d81c169164ffffffffff808260501c1692169061ffff6108c0519160b81c166200d5f1565b610ae05162011b8b565b5f6108005291156200f362575f610800525b610840515f5260d560205260405f20610900526001600160501b036109005154166107e052610840515f526012610ac0510160205260405f206108e0526200e16c6108c051610800516108e05162018e53565b6200e17a6108005162013e7e565b806200f35a575b6200f316575b6200e1928162008010565b806200ea2f57506200e1be905f836108c0516108a0516108a0516108005161090051610ac05162018ee5565b9092939184156200e4aa575b505050505b6001600160501b036109005154166107e051811015805f146200e494576200e1fb6107e05183620087ea565b905b6001600160ff1b0382116200e47a57156200e469575b5050600781036200e4365750610840515f908152610ac05160120160205260409020805460b81c64ffffffffff16156200e3ab57806001600160501b03807ff14b2e916a38315c52d00796f7301d83d24a889ea889ef230a501c9dcb524d20935460481c16916200e2886109e05182620159db565b546040805161084051610a4051825260208201529081019390935260481c166001600160501b0316606082015280608081010390a15b6200e2d461084051610a8051610a4051620116f5565b7f6fc9c0ea1c0531654320ba06740c802447dbdef7c26cf749c4f12553cdd958a96101c061086051546001600160501b0360405191610a40518352610a805160208401526200e3266108805162008312565b6108805160408401526108a05160608401526108a05160808401526108c05160a084015264ffffffffff8160b81c1660c08401526109805160e08401526109c051610100840152610a005161012084015260481c16610140820152610a2051610160820152610920516101808201525f6101a0820152a162008696610ac0516201188c565b50610840515f5260d56020527f66c4fd8d726a62e549cbf66bc9a8e005cb6e30b73e027b3d86c4df1388d2b16f60405f206200e40d6001600160501b03825416916200e4026109e05161084051610ac05162011bed565b6109e0519062015933565b6040805161084051610a405182526020820152908101929092526060820152608090a16200e2be565b620018a590604051918291633e3906a760e21b83526108c0516108a0516108005161084051610a40516004880162012e38565b6200e474906200c783565b6200e213565b8263e69a04b360e01b5f526004526107e05160245260445ffd5b6200e4a3826107e051620087ea565b906200e1fd565b839450926200e4bb91929362008d7d565b926200e4ca6108005162008010565b610800516200ea26575f935b61ffff6002610ac051015460a81c165f60c06040516200e4f681620084e3565b8281528260208201528260408201528260608201528260808201528260a082015201526001600160501b0382116200ea085764ffffffffff6108c051116200e9e957604051906200e54782620084e3565b5f82525f60208301526200e55b8762008312565b8660408301526001600160501b038316606083015263ffffffff6108a05116608083015264ffffffffff6108c0511660a083015263ffffffff431660c0830152610840515f526012610ac0510160205264ffffffffff60405f205460b81c166200e9d05750610ac0516011015460201c63ffffffff16806200e9515750917fc0150ebb43a9c2478aa9c69d27078da071ceafb70e2d822d7d39a533e04187289593916200e75461014096946200e61b610840516011610ac05101620169b9565b610840515f908152610ac05160120160209081526040909120825181548484015167ffffffffffffffff1990911663ffffffff92831617931b63ffffffff60201b169290921781559160c0905b6200e68360408201516200e67c8162008312565b856201ab1e565b6060810151845472ffffffffffffffffffff000000000000000000191660489190911b72ffffffffffffffffffff000000000000000000161784556080810151845463ffffffff60981b191690841660981b63ffffffff60981b1617845560a0810151845464ffffffffff60b81b191660b89190911b64ffffffffff60b81b16178455015182547bffffffffffffffffffffffffffffffffffffffffffffffffffffffff16911660e01b7fffffffff0000000000000000000000000000000000000000000000000000000016179055565b6200e769610840516011610ac05101620169dd565b6005610900510161ffff6002610ac051015460a81c1660fc8111155f146200e8a6576001901b81541790555b6200e7af6200e7a5848362008d7d565b610900516200d4fd565b6200e7be81610ac051620101e8565b6200e7e76200e7df6200e7d985610ac0515460e81c620087a4565b62013a95565b8094620087ea565b936200e7f3856200c0bd565b6200e80284610ac05162010204565b6200e80d8662008312565b856200e88e576200e8256108c051610ac0516201ab6e565b61ffff6002610ac051015460a81c16956040519687526108405160208801526200e84f8162008312565b60408701526060860152608085015260a08401526108a05160c08401526108c05160e0840152610100830152610120820152a160075f8080806200e1ca565b6200e8a06108c051610ac0516201ab4d565b6200e825565b6101fc81116200e8db576200e8bd600191620087da565b1b60066109005101908154179055600160fd1b81541790556200e795565b6102fc81116200e910576200e8f2600191620087c9565b1b60076109005101908154179055600160fe1b81541790556200e795565b6103fc8111156200e924575b50506200e795565b6200e931600191620087b8565b1b60086109005101908154179055600160ff1b81541790555f806200e91c565b63ffffffff81116200e9b657916200e75482847fc0150ebb43a9c2478aa9c69d27078da071ceafb70e2d822d7d39a533e041872899979560206101409a989601525f526012610ac051016020526200e9b06108405160405f20620169b9565b6200e61b565b6395d41f3f60e01b5f5260045263ffffffff60245260445ffd5b633f1ed2e160e21b5f526004526108405160245260445ffd5b6395d41f3f60e01b5f526108c05160045264ffffffffff60245260445ffd5b506395d41f3f60e01b5f526004526001600160501b0360245260445ffd5b6001936200e4d6565b6200ea3a8162008010565b600181036200ed8c57506200ea69815f846108c0516108a0516108a051610900516108e051610ac05162019574565b61070052610820526107c091909152610c40516106e05292949193909285600a81036200eb025761ffff6002610ac051015460a81c166003610ac051015490620018a56200eaba6108205162015923565b60405163063c641b60e41b815261ffff90931660048401526001600160501b03808516602485015260509490941c909316604483015260648201929092529081906084820190565b156200eb15575b50505050505b6200e1cf565b6200eb299192939495506109005162015933565b506200eb386108205162015923565b5f61082051125f146200ed77576200eb589061084051610ac05162011bed565b6200eb726200e7d961070051610ac0515460e81c620087a4565b6200eb818161070051620087ea565b916200eb8d836200c0bd565b6200eb9c82610ac05162010204565b6108e05154610720526200ebc36107c0516001600160501b036107205160481c166200c1f5565b945f86126200ed68577f2a077a58d72570ce2b985a210c9ad672373eb9bcc337d1dc62b8b75dd644cf27966101c0966200ec0660ff6107205160401c1662008312565b60ff6107205160401c16156200ec3f816108c0516108a05164ffffffffff6107205160b81c1663ffffffff6107205160981c166201b0fd565b610740526106c05250156200ed50576200ec606108c051610ac0516201ab6e565b6200ec9d61ffff6002610ac051015460a81c1643906107405190846106c0519160ff6107205160401c169061084051906011610ac051016201aef9565b61ffff6002610ac051015460a81c16966040519788526108405160208901526200ecd060ff6107205160401c1662008312565b60ff6107205160401c16604089015260608801526001600160501b036107205160481c16608088015260a087015260c086015260e08501526101008401526106c05161012084015264ffffffffff6107205160b81c16610140840152610740516101608401526101808301526101a0820152a160075f808080806200eb09565b6200ed626108c051610ac0516201ab4d565b6200ec60565b63b42b26c760e01b5f5260045ffd5b6200ed8690610ac051620101e8565b6200eb58565b6003906200ed9a8162008010565b036200f073576200edc9905f836108c0516108a0516108a0516108a051610900516108e051610ac05162019293565b6107a093909352610b20516106a052610b405161064052610680949094529491929084600a81036200ee1f5761ffff6002610ac051015460a81c166003610ac051015490620018a56200eaba6107a05162015923565b156200ee34575b509293506200e1cf92505050565b6101c094506200ee977f01a0596385c75b269e896ca6468a2be2edc8b2b5459f4e25ca0a75944390a10c966200ee6d6107a05162015923565b5f6107a051125f146200f05e576200ee8d9061084051610ac05162011bed565b6109005162015933565b506200eeb26200e7d96106a051610ac0515460e81c620087a4565b9164ffffffffff6200eec8846106a051620087ea565b946200eed4866200c0bd565b6200eee385610ac05162010204565b6108e051546106605260ff6106605160401c16966200ef028862008312565b876200f02f576200ef20836108e0515460b81c16610ac051620159b0565b6200ef3261064051610ac0516201ab4d565b6108e05154916200ef47826106805162008d7d565b906200ef8661ffff6002610ac051015460a81c168b155f146200f0285760015b43918561064051926108a0519261084051906011610ac051016201aef9565b610ac0516002015460a81c61ffff16996200f0215760015b6040519a8b526108405160208c01526200efb88162008312565b60408b015260608a01526001600160501b038360481c1660808a015260a089015260c08801526108a05160e088015260b81c16610100860152610640516101208601526101408501526101608401526101808301526101a0820152a16007805f8080806200ee26565b5f6200ef9e565b5f6200ef67565b6200f046836106605160b81c16610ac0516201596a565b6200f05861064051610ac0516201ab6e565b6200ef32565b6200f06d90610ac051620101e8565b6200ee8d565b506200f093906108c0516108a0516108a0516108e051610ac0516201919d565b610760949094525061078085905291929091600a85036200f10857610ac051600281015460039091015460405163063c641b60e41b81526107605160a89390931c61ffff1660048201526001600160501b03808316602483015260509290921c90911660448201526064810191909152608490fd5b61078051156200f11e575b506200eb0f92505050565b90919293506200f1396107605161084051610ac05162011bed565b6200f14b61076051610900516200b49e565b60ff6108e0515460401c16916200f1628362008312565b826200f2fe576200f17a6108c051610ac051620159b0565b84156200f22d57509060c0917f599b5f439ed4daf1f28ae8638e5439d3982e8001fb26dd8f70021b38672eb26f936200f1bd610840516011610ac0510162013af6565b6200f1dd61ffff6002610ac051015460a81c166005610900510162013c02565b61ffff6002610ac051015460a81c16926040519384526108405160208501526200f2078162008312565b60408401526108a0516060840152608083015260a0820152a15b6007905f80806200f113565b907fcd4a9f7ae1cc250eaa0be6bdb30d07efaf0faafb4ff0e76d8fe09a8373e43f859364ffffffffff610120946200f26e6108e05154956108e05162018ded565b6200f2806108c0516108e05162015a30565b8161ffff6002610ac051015460a81c16956108e05154926040519788526108405160208901526200f2b18162008312565b60408801526001600160501b038160481c1660608801526001600160501b038360481c16608088015260b81c1660a086015260b81c1660c084015260e0830152610100820152a16200f221565b6200f3106108c051610ac0516201596a565b6200f17a565b6108c0515f036108c05162003ed357836200f34d6200f35392610ac051549060ff808360b81c169260b01c16906108a05162011b34565b62011bac565b506200e187565b505f6200e181565b6001610800526200e119565b64ffffffffff8160281c16906200e0cc565b506200f393610a005161086051620159db565b6200f3a56108c0516108605162015a30565b6200e0aa565b6200f3bd6108c051610ac0516201596a565b6200e071565b806200f3d1575b506200dff6565b6200f3e090610ac051620101e8565b7fbee5185c13c42cac0d82b6c115c77d5e8dc2b2888c013d169e068e634f57f58e60e061ffff6002610ac051015460a81c16604051908152610a805160208201526108a05160408201526108c051606082015260016080820152600160a0820152610a605160c0820152a15f6200f3ca565b6200f4646109a051610a60516200c1f5565b610a60526200f47a6109a051610a00516200c1f5565b610a00525f610a20526200df6d565b5060016200df67565b60c49161ffff6002610ac051015460a81c169160405192630c62a44b60e11b84526004840152610a805160248401526200f4cc8162008312565b60448301526108c05160648301526108a051608483015260a4820152fd5b83156200f58857816108a05111155b6200ddd157915091506200f552577f1f008bb4cf7968d3043531816710a52872a7cd65b725fdf40176bbe0ff8215979060ff610860515460401c166200a8d96040519283926108a05190610a8051610a4051866200b4fd565b60ff610860515460401c16620018a56040519283926307c022ed60e21b84526108a05190610a8051610a4051600487016200b4fd565b816108a05110156200f4f9565b935093509493506200f5ee576200a8d97f244c695d1e05b510329d2a418fcf7f40a78e7e06283e8422153ba676d7dc8f9d939460ff610860515460401c16926040519485946108a05190610a8051610a4051886200dce0565b620018a58460ff610860515460401c169260405194859463244c695d60e01b86526108a05190610a8051610a4051600489016200dce0565b508615806200f645575b80156200ddc15750826108a05111156200ddc1565b506108a0518211156200f630565b50816108a05111156200ddb9565b506108a0518311156200ddb2565b505050505050565b505050506200f6b7577f6948067a0ba575890268b9a7eaf592a5832287e4402201145ce0768a9d9533fc60408051610a40518152610a80516020820152a1565b6334a4033d60e11b5f52610a4051600452610a805160245260445ffd5b6105c0526105a052906200f6ea60018362012e6b565b6200a6c2576105a0515f5260126105c0510160205260405f209164ffffffffff835460b81c16156200fa6c5760016200f72c916105a051856105c051620126f5565b959194156200fa63578315947f02d2bf39d2355aaa5486487e934403fd3ba3f88c73ab71938cee11931fddeb7b61022061ffff60026105c051015460a81c16885f146200fa5b5760035b6200f7a25a916040519384526105a05160208501525f60408501525f6060850152608084019062009da0565b8560a08301528760c08301525f60e08301525f6101008301525f61012083015260016101408301526103e86101608301525f6101808301525f6101a08301525f6101c08301525f6101e0830152610200820152a16200f8078685846105c05162012ef1565b936106e051948082116200f82e575b50505050505050505050620086966105c0516201188c565b6200f83991620087ea565b938487156200fa49576200f84d9162013ac3565b945b60ff895460401c1696816200fa3e575b81156200fa24575b506200f9d15750509282826200f8b67f6fc9c0ea1c0531654320ba06740c802447dbdef7c26cf749c4f12553cdd958a998966001600160501b03956101c099976105a0518a6105c05162012b35565b9195949096936105809a939a5261056052949397506200f8e86105a05161ffff60026105c051015460a81c166201158a565b7f5be6b2e974d9a72428e5cb9cf915a5f991d1c862db8cafc9a121bb99b091cb7460e06040518481528460208201528460408201528560608201525f60808201526105805160a08201528a60c0820152a161ffff60026105c051015460a81c16985495604051998a526105a05160208b01526200f9658162008312565b60408a01526060890152608088015260a087015264ffffffffff8360b81c1660c087015260e08601526101008501526105605161012085015260481c166101408301526105805161016083015261018082015260016101a0820152a15f8080808080808080806200f816565b60c49186918661ffff60026105c051015460a81c16936040519463fbe5086f60e01b865260048601526105a05160248601526200fa0e8162008312565b60448501526064840152608483015260a4820152fd5b9050806200fa34575b5f6200f867565b508482106200fa2d565b86841191506200f85f565b6200fa549162008d3c565b946200f84f565b60026200f776565b50505050505050565b61ffff60026105c051015460a81c166334a4033d60e11b5f526004526105a05160245260445ffd5b6105c0526105a052916200faa9818462012e6b565b6200a37f576105a0515f5260126105c0510160205260405f209264ffffffffff845460b81c16156200faea57906200f72c916105a051856105c051620126f5565b509150506200fa6c576105c05160020154604080516105a05160a89390931c61ffff16815260208101929092527f6948067a0ba575890268b9a7eaf592a5832287e4402201145ce0768a9d9533fc9190819081016200a8d9565b919091600482116200fbcb5760020180547effffffffffffffffffffffffffffffffffffffffffffffffffffffffffffff1660f883901b7fff00000000000000000000000000000000000000000000000000000000000000161790557fadcb9d4361f4e7a9b24f7e64233ca46ad439a4a73c432dc31165fbdefd6f83779160409162008d2f565b5090631c20e8bf60e31b5f52600452602452600460445260645ffd5b156200fbef57565b60405162461bcd60e51b815260206004820152602b60248201527f496e697469616c697a61626c653a20636f6e7472616374206973206e6f74206960448201527f6e697469616c697a696e670000000000000000000000000000000000000000006064820152608490fd5b909180156200a37f575f5b8181106200fc735750505050565b806200fc8360019284876200a12b565b358061ffff106200fca5575f52600784016020525f60408120555b016200fc65565b506200fc9e565b905f9180151590816200fcdf575b81156200fcd0575b506200fcca57565b60019150565b63ffffffff9150115f6200fcc2565b43811091506200fcba565b90805461ffff8160681c1690811580156200fd06575050505050565b612710830292830461271014171562003ed35760c95460701c6c1fffffffffffffffffffffffff16908183116200fda0575050916080918361ffff6200fd6d7f829714cd4c1b45d8cb7fc185e9a89690df638ae20633056021e186ef6ce2e0bf9662013d03565b926200fd79836200c0bd565b5460a81c16604051938452602084015260408301526060820152a15b5f808080806200c139565b60a093509161ffff7ff662aa6b6412ffe2a4e433dace098e96260a08fdaefdb023773e41f999b7c4ec9593604051945f8652602086015260a81c16604084015260608301526080820152a16200fd95565b61ffff16801562003ed3575f190190565b5f93918315620101735761ffff948585166303ff00008360101b1617906002840192825f528360205260405f209687549063ffffffff8216156201014d5750855460b01c63ffffffff1684036201011457506200fe6a63ffffffff885460201c168662013d53565b63ffffffff875460201c1680620100f5575b505b845460d01c63ffffffff168303620100b9576200fea663ffffffff885460401c168662013df1565b63ffffffff875460401c16806201009a575b505b6003850191815f52826020526200ff006200fedf60405f209a8b5460401c166200fdf1565b8a5469ffff0000000000000000191660409190911b61ffff60401b16178a55565b87546200ff1360ff8260601c1662013e7e565b156201007b5750506200ff346001600160501b03885460901c168662013ee3565b965b885463ffffffff81168514808062010068575b156200ffcf5750505062008696959697505f526020525f60408120555b5f526020525f60408120556200ff80815460f01c6200fdf1565b81547dffffffffffffffffffffffffffffffffffffffffffffffffffffffffffff1660f09190911b7fffff00000000000000000000000000000000000000000000000000000000000016179055565b9193509150156201002957505460201c63ffffffff16956303fcffff80881162010013575063ffffffff620086969596971663ffffffff198254161790556200ff66565b876395d41f3f60e01b5f5260045260245260445ffd5b968263ffffffff6200869697989960201c16146201004a575b50506200ff66565b63ffffffff62010060925460401c169062013e4e565b5f8062010042565b508563ffffffff8360201c16146200ff49565b64ffffffffff620100949160689a939a1c168a62013ea6565b6200ff36565b5f528360205260405f2063ffffffff60201b1981541690555f6200feb8565b8654602081811c63ffffffff165f9081529086905260409020805463ffffffff60401b191663ffffffff60401b9092169190911790556200feba565b5f528360205260405f2063ffffffff60401b1981541690555f6200fe7c565b604081811c63ffffffff165f908152602087905220805467ffffffff00000000191663ffffffff60201b9092169190911790556200fe7e565b905063ffffffff60018701541691638d5bba0f60e01b5f5260045260245260445260645ffd5b63ffffffff600183015416906369bc91ef60e11b5f5260045260245260445ffd5b906200869691815f5260078101602052620101c660405f20620101be60ff825460201c1662010541565b908362013f45565b620144b0565b9015620101d65750565b6364d572b360e01b5f5260045260245ffd5b6001600160501b036200b4b76003829301938285541662010f67565b906001600160501b036200c75860036200869694019282845460501c1662010f67565b929061ffff600285015460a81c169362010244600184846200d296565b6200c13957835f526012810160205260405f209064ffffffffff825460b81c16156201032757916001600160501b03808593620102b38560a09997620102ad7f577ed0a8f65f2feb5a407660b0a3009c2ee155a17d0e34947c58ecdd6c8b37719c9a886200d4fd565b620101e8565b6201030182620102ca8782855460481c1662010f67565b835472ffffffffffffffffffff0000000000000000001916911660481b72ffffffffffffffffffff00000000000000000016178255565b5460481c16915416926040519485526020850152604084015260608301526080820152a1565b84866334a4033d60e11b5f5260045260245260445ffd5b9392919261ffff600286015460a81c16946201035c8285856200d296565b6200f66f57845f526012810160205260405f209164ffffffffff835460b81c1615620103c65750916001600160501b03808593620102b38560a09997620102ad7f577ed0a8f65f2feb5a407660b0a3009c2ee155a17d0e34947c58ecdd6c8b37719c9a886200d4fd565b93505050506200ba43577f6948067a0ba575890268b9a7eaf592a5832287e4402201145ce0768a9d9533fc9160409182519182526020820152a1565b908060081c9060ff811680620104e3575b5060101c9060ff81168062010481575b505080620104325750505f1990565b6201043f90825462014542565b60018101156200d9c757806002915f52600183016020526201046560405f205462014568565b9060081b1791825f52016020526200da1d60405f205462014568565b6201049b90835f526001850160205260405f205462014542565b9060018201156201042357600292507effffffffffffffffffffffffffffffffffffffffffffffffffffffffffff00161791825f52016020526200da1d60405f205462014568565b620104fd90835f526002850160205260405f205462014542565b600181011562010413579250905060ff19161790565b6201051e8162008010565b600281149081156201052e575090565b600391506201053d8162008010565b1490565b6201054c8162008010565b80159081156201052e575090565b91825461ffff63ffffffff8260601c169160a01c16905f9381421162010627575b846201058957505050909150565b620105eb576200d31761ffff60027fa8ea47e93f284c6600be84b692d51af848f0cc9115e2c7d7d4048983348f9b2d959697015460a81c16926040519384934291859094939260609261ffff6080840197168352602083015260408201520152565b600285015460405163a8ea47e960e01b815260a89190911c61ffff16600482015260248101919091524260448201526064810191909152608490fd5b935081620106368242620087ea565b11936201057b565b91905f9261018082013580151580620108cc575b62010882575060408201356007811015620041a757600681036201071857506201068183606084013562014702565b620107125782608083013580620106ee575b50905060a082013580620106d0575b505060c001359081620106b8575b505050600190565b620106c3916201469c565b620085ea578080620106b0565b90620106dc9162012e6b565b620106e957815f620106a2565b505090565b63ffffffff60096201070494015416906200ad1b565b620106e9575f828162010693565b50505090565b60058103620107705750506101a001351562010735575050600190565b62010761577f1fccd51f56ecc3a71d5e32721dbf2bb0690bf050c6147a84fd5f83717d8c5d225f80a190565b631fccd51f60e01b5f5260045ffd5b6004036201079457509060606201078992013562014702565b620085ea5750600190565b8263ffffffff6009620107af9301541660808401356200ad1b565b620106e957620107c48260a083013562012e6b565b620106e957620107d861010082016200888f565b15806201086b575b62010850575b6101c001359061ffff8211620107fe57505050600190565b620108385760407f95d41f3f44becfa47a91cf04138709af8e760c9060dcf6091505be37dce1418891815190815261ffff6020820152a190565b6395d41f3f60e01b5f5260045261ffff60245260445ffd5b620108608260c08301356201469c565b15620107e657505090565b506201087b61012082016200888f565b15620107e0565b93505050620108ba5760207f9f38a7d29e6c9e707bfe5fee47b29748083dc31546de0135d48ed99db5e190f091604051908152a15f90565b634f9c53e960e11b5f5260045260245ffd5b5043811062010652565b9192835f526010830160205260405f209463ffffffff865416156201098c576201090b9063ffffffff8754168387866201476f565b1562010918575050505050565b620109708460096201096860609762010954867fe9805f82cb3729e97b234bb6bb4f90ea971e2c274201ff71818ebde153e1b0a69b89620147f1565b9790965f5260d560205260405f206200fe02565b950162010194565b60405192835260208301526040820152a15f808080806200c139565b9250509250620109c8577f69b92a906c4fe940cd3de572076c4a5181ddced80218575cc4959b1d8f6a6e3f9160409182519182526020820152a1565b9063069b92a960e41b5f5260045260245260445ffd5b9492909391604051620109f1816200851b565b5f81525f6020820152809561ffff600289015460a81c16606084013590815f5260108a0160205260405f209363ffffffff8554161562010aea5750835462010a438863ffffffff83168986866201476f565b62010add5760ff62010a599160201c1662010513565b62010a6d575050620086969596976201496a565b949850949250505093929362010ac2576200ab037fe03d6e5b9ada2bee571a0faed84b4da12ba5afc5c10f1c29d8fbbb6dcd7519d8939495604051938493846040919493926060820195825260208201520152565b84925063e03d6e5b60e01b5f5260045260245260445260645ffd5b5050505050505050915090565b9850969850949350505050620109c8577f69b92a906c4fe940cd3de572076c4a5181ddced80218575cc4959b1d8f6a6e3f9160409182519182526020820152a190565b94939192906040519362010b41856200851b565b5f85525f6020860152846040820135956007871015620041a75762010b668762008010565b60a08301359162010b778862010513565b62010d7e575b50610120830162010b8e816200888f565b801562010d68575b62010c90575062010ba78762010513565b62010c71575b5060405162010bbc816200851b565b5f81525f602082015297600981019163ffffffff8354169662010be560808601359889620087ea565b96829862010bf660e088016200888f565b1562010c41575b5050508662010c13575b50505050505050505090565b62010c2799508862010c36575b5062018db7565b5f808080808080808062010c07565b861497505f62010c20565b62010c679399506101c0870135908b8b6101408a0135926101608b0135928c8a62017001565b955f808062010bfd565b62010c7f8883868c6201524e565b62010bad5797505050505050505090565b9583985062010cc99199949561010093986101c062010cd1960135908b8b610140820135926080610160840135930135908c8c62017001565b96016200888f565b8062010d5e575b62010d3857505062010cea906200888f565b8062010d2e575b62010cfb57505090565b7f59468f520017226c0116472def96f905dbeff518444091b355de591a2161cdbe9160409182519182526020820152a190565b5081151562010cf1565b9061ffff60028693015460a81c1663578f7fed60e01b5f5260045260245260445260645ffd5b5084151562010cd8565b5062010d7861010085016200888f565b62010b96565b845f5260128a0160205260405f209064ffffffffff825460b81c1615158062010ea6575b62010e1457505460b81c64ffffffffff168083111562010b7d579795509750945050505062010dfe577f604559a5e01ca154dad1c02a9ef408530f8fa41f3506e6a57f7d2ac727e148229160409182519182526020820152a190565b9063604559a560e01b5f5260045260245260445ffd5b995096979550505050505062010e74577f189a4ff828fb1a93c81a2248c39ac499b67bf632ade3d5f89935821e8d1ec9989160ff60409254831c169082519162010e5e8162008312565b825262010e6b8162008010565b6020820152a190565b5463031349ff60e31b5f5260401c60ff1662010e908162008312565b60045262010e9e8162008010565b60245260445ffd5b5060ff825460401c1662010eba8162008312565b62010ec58a62008010565b1560028a14141562010da2565b919082811162010f1357808303926001600160501b03841162010ef3575050565b63733cc1d960e11b5f526004526024526001600160501b0360445260645ffd5b9050637509da4360e11b5f5260045260245260445ffd5b919082811162010f13578083039264ffffffffff841162010f49575050565b63733cc1d960e11b5f5260045260245264ffffffffff60445260645ffd5b919062010f75818462008d7d565b926001600160501b03841162010f89575050565b632242001360e21b5f526004526024526001600160501b0360445260645ffd5b919062010fb7818462008d7d565b9264ffffffffff841162010fc9575050565b632242001360e21b5f5260045260245264ffffffffff60445260645ffd5b803b1562011049576001600160a01b03166001600160a01b03197f360894a13ba1a3210667c828492db98dca3e2076cc3735a920a3ca505d382bbc5416177f360894a13ba1a3210667c828492db98dca3e2076cc3735a920a3ca505d382bbc55565b60405162461bcd60e51b815260206004820152602d60248201527f455243313936373a206e657720696d706c656d656e746174696f6e206973206e60448201527f6f74206120636f6e7472616374000000000000000000000000000000000000006064820152608490fd5b9291620110f290620110eb620110e2620110d6620085ea9960029699620118c0565b919093439089620119c6565b505095620087a4565b936200c794565b92015460f81c9262015441565b811562008d47570790565b94936201112a906201112462011131949998935f6200c223565b6200c223565b9362008d7d565b600603906006821162003ed3576201114d620111549262009ff6565b90620087a4565b926201116d6201116585846200c7b8565b9483620110ff565b620111a7575b505015620111965762011186916200c1f5565b5f8112620111915790565b505f90565b620111a1916200c223565b62011186565b8080620111fb575b15620111cd57505090620111c3906200c1d8565b905b5f8062011173565b159081620111f0575b5015620111c55790620111e9906200c211565b90620111c5565b5f9150125f620111d6565b505f8213620111af565b9594620111246201121d9498936201112a936200c223565b600603906006821162003ed3576201114d620112399262009ff6565b90620112526201124a83836200c7b8565b9282620110ff565b6201126b575b509015620111965762011186916200c1f5565b5f121562011288576201127e906200c1d8565b905b905f62011258565b9062011280565b9291949395620112ab620112b29297620111245f995f6200c223565b9462008d7d565b600603906006821162003ed3576201114d620112ce9262009ff6565b91620112e7620112df84836200c7b8565b9382620110ff565b6201131f575b50156201130d57620112ff916200c1f5565b905b8082126200d5d4575090565b62011318916200c223565b9062011301565b93505f80941262011332575b5f620112ed565b906201133e906200c211565b906201132b565b93969592949094610c80526201135f5f84838888620154d8565b9b94809a949a999399989298979197620115165750509487969464ffffffffff96946001600160501b036101e09c9b9a957f3b1e497992fc37fbf896b38202d19417ad54402fa8d8aed214d20f27c34bcabc9e958a98610c80515f5260d560205260405f209a61ffff600284015460a81c16610ca052620113f384549a620113ec81610c80518762011bed565b8d6200b49e565b60ff845460401c169e8f620114088162008312565b6201150457620114198385620159b0565b15620114e5575050610c8051620114339160110162013af6565b62011445610ca05160058b0162013c02565b54975416996040519b610ca0518d528c6020610c8051910152151560408d0152620114708162008312565b60608c015263ffffffff8560981c1660808c015260a08b015260c08a015260e08901526101008801526001600160501b038160481c166101208801526001600160501b038360481c1661014088015260b81c1661016086015260b81c166101808401526101a08301526101c0820152a1600190565b620114fe9250620114f7908462018ded565b8262015a30565b62011445565b6201151083856201596a565b62011419565b97509a5050965050505050600a9193501462011533575050505f90565b6084935060036001600160501b039101546040519363063c641b60e41b85526004850152818116602485015260501c1660448301526064820152fd5b949192966201135f9196949897610c805284838888620154d8565b90805f5260d560205260405f2092825f526003840160205260405f20549061ffff8260401c168015620116ed57620115c58196959662008fcf565b9363ffffffff5f94169660028701975b80151580620116e3575b156201161e5761ffff9562011603620115f88262008e67565b97831691896200889d565b525f528760205263ffffffff60405f205460201c16620115d5565b509350939195509362011631836200a6c6565b600981019260105f9201915b8781106201164f575050505050505050565b807fb52688454dfd5028443d05c10bc78a9ca263b7c7645d2e8bfef428d0e8b3b0476201167f600193856200889d565b51805f52856020526201169660405f208a6200fcea565b620116a3818a896200fe02565b90620116b0818a62010194565b620116d96040519283928d8d859094939260609260808301968352602083015260408201520152565b0390a1016201163d565b50838610620115df565b509350505050565b90929192805f5260d560205260405f2092825f526003840160205260405f20549161ffff8360401c169081156201188357620117348297969762008fcf565b9463ffffffff5f95169760028101985b8015158062011879575b156201178d5761ffff9662011772620117678262008e67565b988316918a6200889d565b525f528860205263ffffffff60405f205460201c1662011744565b50929691959397509350620117a2846200a6c6565b600981019360105f9201915b888110620117c157505050505050505050565b807fb52688454dfd5028443d05c10bc78a9ca263b7c7645d2e8bfef428d0e8b3b04789896201185b8a8a620118388b620118318c876201180460019d8f6200889d565b519586948593845f5260205260405f209080155f146201186557506201182b90836200fcea565b6200fe02565b9362010194565b604051948594859094939260609260808301968352602083015260408201520152565b0390a101620117ae565b620118719184620147f1565b50506200fe02565b508487106201174e565b50509350505050565b6002015464ffffffffff8082169160281c1690818103620118ab575050565b6395626a2760e01b5f5260045260245260445ffd5b90915f5f9280155f1462011947575050620f4240925b80620118e55750620f42409150565b60018103620118f75750620186a09150565b600281036201190857506127109150565b600381036201191957506103e89150565b6004810362011929575060649150565b60058103620119395750600a9150565b600603620086965760019150565b600181036201195e575050620186a0925b620118d6565b600281036201197357505061271092620118d6565b60038103620119885750506103e892620118d6565b600481036201199c575050606492620118d6565b60058103620119b0575050600a92620118d6565b90939060051901620119585760019350620118d6565b9091925f9280851062011a055793620119e6839495620119f1946200d6f4565b93909184956200d6f4565b809403620119fd575050565b0360050b9350565b849061ffff600285015460a81c16635d00a16960e01b5f5260045260245260445260645ffd5b906001600160a01b0362011a8b92165f806040519362011a4d60408662008553565b602085527f5361666545524332303a206c6f772d6c6576656c2063616c6c206661696c6564602086015260208151910182855af16200620b62015696565b805190811591821562011b0e575b50501562011aa357565b60405162461bcd60e51b815260206004820152602a60248201527f5361666545524332303a204552433230206f7065726174696f6e20646964206e60448201527f6f742073756363656564000000000000000000000000000000000000000000006064820152608490fd5b8192509060209181010312620041a757602001518015158103620041a7575f8062011a99565b91909262011b43818362008d7d565b916006831162011b765750506006036006811162003ed357620085ea9262011b6f6200452b9262009ff6565b92620087a4565b632f0a93cd60e21b5f5260045260245260445ffd5b9060018210158062011ba2575b156200d5d4575090565b5080821062011b98565b9060648202918083046064149015171562003ed357620085ea9162013ac3565b906001600160501b03809116911601906001600160501b03821162003ed357565b6003810180546001600160501b038116959493919086851162011c1a57505050620086969293506200d6d8565b6001600160501b0390605095929493951c166001600160501b0362011c40828962011bcc565b16821162011cb957506002606094939262011c817f24600c3aa8cc38cbdf9648ea5ebfea6227de49651807d1a2a58fe70ea24953cc979861ffff94620087ea565b845469ffffffffffffffffffff191690945562011c9f84826200c735565b015460a81c169160405192835260208301526040820152a1565b6002830154604051635b80bdb960e11b815260a89190911c61ffff1660048201526001600160501b0380891660248301529091166044820152606481019190915280608481010390fd5b9190916001600160501b03831162011d5b576001600160501b036200869692931672ffffffffffffffffffff0000000000000000001972ffffffffffffffffffff00000000000000000083549260481b169116179055565b826395d41f3f60e01b5f526004526001600160501b0360245260445ffd5b60f0018060f01162003ed3576001901b90565b81601f82011215620041a75780519062011da68262008575565b9262011db6604051948562008553565b82845260208383010111620041a757815f9260208093018386015e8301015290565b90602082820312620041a75781516001600160401b038111620041a757620085ea920162011d8c565b909162011e1b620085ea9360408452604084019062007fcf565b91602081840391015262007fcf565b519063ffffffff82168203620041a757565b519077ffffffffffffffffffffffffffffffffffffffffffffffff82168203620041a757565b51908160170b8203620041a757565b9081610120910312620041a75762011f246101006040519262011e9484620084a9565b8051845262011ea66020820162011e2a565b602085015262011eb96040820162011e2a565b604085015262011ecc6060820162011e3c565b606085015262011edf6080820162011e3c565b608085015262011ef260a0820162011e2a565b60a085015262011f0560c0820162011e62565b60c085015262011f1860e0820162011e62565b60e08501520162011e62565b61010082015290565b915f905f905f918151820160808360208301920312620041a75780603f84011215620041a75760405162011f61816200848d565b6080840190828211620041a75760208501905b8282106201242757505051906001600160401b038211620041a757602062011f9f9285010162011d8c565b805115620088b25761ff0080602083015160f01c161690805160011015620088b2576021015160f81c1760038103620123cd575060209160405162011fe5848262008553565b5f81528815620123a5575f9062012021926001600160a01b0360ca54169083604051809681958294637bf41d7760e11b84526004840162011e01565b03925af19081156201239a575f9162012373575b50925b8351956201204e84808701988701018862011e71565b516006890154908181036201230557505063ffffffff6040620120778688518901018a62011e71565b01511696428811620122955788549463ffffffff8660601c16808a11156201222f575060c0620120ad8289518a01018462011e71565b0151968760170b5f8112620121d1575063ffffffff9260a09282620120d6935101019062011e71565b01511690620120ed61ffff8660a01c164262008d7d565b8083106201215b575050505050620121499177ffffffffffffffffffffffffffffffffffffffffffffffff6201212d60ff620121359460b01c166201587d565b911662008d3c565b9463ffffffff60098596015416866200ad1b565b62012155575050600192565b93909150565b945094509495509690979550620121b7576040805192835263ffffffff9093166020830152918101919091527f7f93aebf261535cb0331009511ba8896f348b68b1e0d448196c002a6bfcbdb7a9080606081015b0390a1929190565b9250637f93aebf60e01b5f5260045260245260445260645ffd5b97505094505094955096909795506201221857916040917f4d8c851d919cf102ec02f76a35ca2f0b9e8ca3e9cd36ecc7128c03c7048e247a938351928352820152a1929190565b5090634d8c851d60e01b5f5260045260245260445ffd5b9550939a98505094959350966201227b57917fac23cd4bf85c84f3aa74c4752cbc1abc6ca3871a6e6b676f56bd64f992b700ae93916060936040519384528301526040820152a1929190565b508263ac23cd4b60e01b5f5260045260245260445260645ffd5b5094959350969150969450620122eb576040805192835263ffffffff909116602083015242908201527f560f753ea20ff5d3b404893dc8502570dec81bbc02626784a8f3d635f9c21b29908060608101620121af565b90632b07ba9f60e11b5f526004526024524260445260645ffd5b9450959650935096909795506201235957604080519283526020830193909352918101919091527fe9ab5ccfbd8b803e0bd519630f62d1a32b22e517a5bfcd78e8c860b36c98386b908060608101620121af565b925063e9ab5ccf60e01b5f5260045260245260445260645ffd5b6201239391503d805f833e6201238a818362008553565b81019062011dd8565b5f62012035565b6040513d5f823e3d90fd5b620123b19187620156ca565b9015620123bf579262012038565b509694505093509050929190565b9550505050509162012411577f09c9ec7d8ebb7546d7aa7fae159f14736cab80420326900e4b1ce60942f331d89160409182519182526020820152a15f905f905f90565b906309c9ec7d60e01b5f5260045260245260445ffd5b815181526020918201910162011f74565b156201244057565b634e487b7160e01b5f52600160045260245ffd5b9262012484620124a9936201247d86946201247681620124768860646200c223565b946200c223565b906200c794565b6201249082826200c7b8565b915f8212918262012505575b5050620124fa576200c1f5565b8160648293125f14620124d657131580620124ca575b620085ea9062012438565b506064811315620124bf565b620085ea91606413159081620124ee575b5062012438565b90508213155f620124e7565b6200df37906200c211565b620125119250620110ff565b15155f806201249c565b91620124846064926201247d6201253e956201247681620124768860016200c223565b806001131580620124ca57620085ea9062012438565b9061a7676201256a61217b9184068094620087ea565b92049061217b82029180830461217b148115171562003ed357620085ea90928462008d7d565b6001820180921162003ed357811c9081620125ac5750505f1990565b62004531620085ea925b905f916fffffffffffffffffffffffffffffffff811615620126c4575b6001600160401b03811615620126ad575b63ffffffff81161562012696575b61ffff8116156201267f575b60ff81161562012668575b600f81161562012651575b60038116156201263a575b600116156201262a57565b906001810180911162003ed35790565b916002810180911162003ed3579160021c6201261f565b916004810180911162003ed3579160041c62012614565b916008810180911162003ed3579160081c62012609565b916010810180911162003ed3579160101c620125fe565b916020810180911162003ed3579160201c620125f2565b916040810180911162003ed3579160401c620125e4565b60809250821c620125d3565b9192608093969594919661ffff60a085019816845260208401526200b51d8162008312565b93909192935f5f93549564ffffffffff8760b81c1681115f1462012aa4575064ffffffffff8660b81c16955b86958354906201274960ff8360b81c1660ff8460b01c168b63ffffffff8760981c1662011b34565b906201276360028701549261ffff8460c81c169062011bac565b906201277088886200c11f565b96871562012a8e578a9b508460b81c60ff168560b01c60ff168c8860e01c8960401c60ff16620127a095620110b4565b938560481c6001600160501b03168b8760b81c64ffffffffff1691620127c69262015902565b9390508660401c60ff16620127db9062008312565b8660401c60ff16159c8d91878460b81c60ff16928560b01c60ff1692888c60981c63ffffffff16916201280e9762011205565b998a15620129d0578c80620129c6575b8015620129b2575b6201292b5750808c868d60ff80620128549660b81c169460b01c16928763ffffffff8c60981c16916201128f565b978815620128685750505050505050600195565b9b969798999a9b620128df576040805160a89490941c61ffff168452602084019190915282015260989290921c63ffffffff1660608301526080820188905260a08201527f2e92846d5b5d5dd9cf60dd19064afe4a911e6751cdad455cb26a600db66e963c908060c081015b0390a1959493929190565b604051632e92846d60e01b815260a89390931c61ffff1660048401526024830152604482015260989290921c63ffffffff1660648301526084820188905260a48201528060c481010390fd5b999a9b9c9798925050919250620129815791620128d4888760ff947f2822c66c89ce366f8d2961ecb44375cdaf6fd59a220e83b68f12498108778f849661ffff60405197889760401c169260a81c1686620126d0565b60408051630a08b19b60e21b8152938493620018a5938b938a93901c60ff169160a81c61ffff1660048701620126d0565b508c1580156201282657508a891062012826565b508a89116201281e565b999a9b9c9798905062012a42576040805160a89490941c61ffff168452602084019190915282015260989290921c63ffffffff1660608301526080820188905260a08201527f0df65f0bfef22299d2332a74323c24d136c79b82d668afc82cfe8dfb0d75a2f2908060c08101620128d4565b604051630df65f0b60e01b815260a89390931c61ffff1660048401526024830152604482015260989290921c63ffffffff1660648301526084820188905260a48201528060c481010390fd5b505f9b8c9b9a508b995089985095505050505050565b9562012721565b90929190821562012b1d5783811062012b155762012adc916200e7d9915b85851562012b09576201114d91620087ea565b901562012aef5790620085ea9162008d7d565b8082111562012b0357620085ea91620087ea565b50505f90565b906201114d91620087ea565b505050505f90565b80841062012b155762012adc916200e7d99162012ac9565b9562012bb99192969594955f958454988862012b6a818c64ffffffffff6001600160501b038260481c169160b81c1662015902565b97909362012baf8a62012b7d8b6200c783565b9e60ff8160401c169e8f918a549360ff808660b81c169560b01c169363ffffffff8360981c169260e01c918d6200bf55565b9991909a6200c1f5565b9b5f8d1262012e01575062012bce8c6200c783565b8c60018801548060401c62ffffff1662012be990836200c794565b5f610ca052620186a09005610ca052610ca0515060581c62ffffff1662012c10916200c794565b620186a090059a8b9d8c610ca05162012c29916200c1f5565b62012c34916200c223565b9b87158062012df9575b62012dd5575b5062012c6a600389016001600160501b036200c758610ca05182845460501c1662018e0b565b62012c758262015923565b915f81121562012d5357505062012c8f9150848762011bed565b825f5260d560205260405f209362012ca88c8662015933565b9962012cc160c954916001600160701b03831662018e0b565b906001600160701b0319161760c95560ff825460401c1662012ce38162008312565b62012d415762012cf48387620159b0565b1562012d2557505061ffff60028462012d17600594601162008696980162013af6565b015460a81c16910162013c02565b9150915062008696925062012d3b8a82620159db565b62015a30565b62012d4d83876201596a565b62012cf4565b8262012d64575b5050505062012c8f565b7fbee5185c13c42cac0d82b6c115c77d5e8dc2b2888c013d169e068e634f57f58e9362012d9460e0948b620101e8565b61ffff60028b015460a81c16926040519384528860208501526040840152866060840152151560808301525f60a083015260c0820152a15f80808062012d5a565b909d5062012de88162012def936200c1f5565b9e6200c1f5565b9c5f9c5f62012c44565b508362012c3e565b848d8c8660c49461ffff60028d015460a81c169460405195630c62a44b60e11b8752600487015260248601526200fa0e8162008312565b9260a094919796959260c08501988552602085015262012e588162008010565b6040840152606083015260808201520152565b600181109291831562012ee0575b8362012e83575050565b62012ec057507f36bcd027a371ec05acd4f563a155f51be204511b55fb95d0451703d02e3ca185604080516001815264ffffffffff6020820152a1565b630793b30360e11b5f52600452600160245264ffffffffff60445260645ffd5b92508064ffffffffff109262012e79565b6106208190526105e0919091526107608390525f6106e0526103e89262012f1b916009016201696c565b906106a0526107c0525f6106c0525f6106c05280610720526002610620510154610640525b8015158062013a88575b1562013a40576105e05115158062013a49575b62013a4057505f610660525f610700525f610680525f6106605262012f8c6106a051600961062051016200bfe0565b50610600526107205161070052610680525b6107005115158062013a33575b8062013a26575b156201393f57610600515f526010610620510160205260405f20805463ffffffff81165f5260d560205260405f206107805260ff610780515460a01c1662012ffa8162008010565b15620130a557506201309c5f620130556001828561ffff7f86ad99b48b2565c9720e33335db58e8c7468d6af03a5e6238b20d4a562f5b8b4975460c81c166106005261ffff6106405160a81c1690600961062051016201ab88565b6040969492969591955196879661ffff6106405160a81c168893909796959260c0959260e08601998652602086015260408501526060840152608083015260a08201520152565b0390a162012f9e565b620130b963ffffffff8260781c166200fcac565b156201311457506201309c5f620130556001828561ffff7fb95e250f9f017dcb1bb1806916771df0c04a269e5f46d5db7519382a0f7bb477975460c81c166106005261ffff6106405160a81c1690600961062051016201ab88565b63ffffffff81166201317557506201309c5f620130556001828561ffff7f52d5291dc7b477ebda965d0693c67e6ccec5b3667b530305685465384756d3fd975460c81c166106005261ffff6106405160a81c1690600961062051016201ab88565b5f6201318760ff8360201c1662010513565b620138cf575b15620131e857506201309c5f620130556001828561ffff7fae6369c6e529c86dd87431d10e0db70657c834daa75356e1efd7c0ac79f934b7975460c81c166106005261ffff6106405160a81c1690600961062051016201ab88565b9064ffffffffff8260401c16806107a0526201320a60ff8460201c1662010513565b62013894575b6107005181118015610740526201388657620132cd815b600261062051015490620132906201328264ffffffffff841664ffffffffff8560281c168082115f146201387e57505b60ff8560e01c169060ff8660d81c169064ffffffffff8760501c16908661ffff8960b81c166200d5f1565b61ffff8860981c1662011b8b565b9061ffff808860d81c169360881c16916107a051906107c051906107c051906107c0519060ff8c60201c169063ffffffff8d166106205162015a6d565b610960519295939092869160061981016201373d57506107405115620136cc576201330a62013300876107c051620087a4565b6106605162008d7d565b610660526201331d8661070051620087ea565b610700525b62013330610680516200a077565b61068052610740511562013450575050509161012093918593620133926201338b63ffffffff7ff5f5aef063f495816b6982c44c70c97c8fbec2fa24b73487e6542ce02143121499168461ffff6106405160a81c16620147f1565b956200c1f5565b9261ffff835460c81c1661060052620133e6620133c561ffff8860a81c1661ffff6106405160a81c16610780516200fe02565b93620133d860ff825460201c1662010541565b906009610620510162013f45565b620133ff61ffff8760a81c1660096106205101620144b0565b61ffff60405196816106405160a81c16885263ffffffff8116602089015260a81c1660408701526107c0516060870152608086015260a085015260c084015260e0830152610100820152a162012f9e565b909491955060ff845460201c165f5f9061ffff8a60a81c16156201369e5761ffff8a60a81c166303ff00006106405160981c16175f526002610780510160205260405f209283549063ffffffff8216156201366657917ff5f5aef063f495816b6982c44c70c97c8fbec2fa24b73487e6542ce0214312149b9997959391620134df6101209c9a98969462013e7e565b15620135ef575050508062013507836001600160501b0362013511945460901c169262019df6565b6107805162013ee3565b5062013521816107805162019e42565b936001600160501b036107805154168511945b9462013543575b5050620133ff565b7f6d6191eb9e6651b10a6b278ab4d021e3c8b8810a0290234d29d74556915d5dcf91929450806201359960015f64ffffffffff610140955460401c169361ffff6106405160a81c1690600961062051016201ab88565b97916040959195949394519561ffff6106405160a81c168752602087015260408601526107c051606086015260808501528660a085015260c08401525f60e08401526101008301528a820152a1915f806201353b565b85906201365a620136609394999561ffff6106405160a81c165f526003610780510160205264ffffffffff6201362f858260405f209660681c1662010f2a565b825471ffffffffff000000000000000000000000001916911660681b64ffffffffff60681b16179055565b62013ea6565b62013534565b8b61ffff63ffffffff60016107805101541691638d5bba0f60e01b5f52816106405160a81c1660045260a81c1660245260445260645ffd5b63ffffffff6001610780510154166369bc91ef60e11b5f5261ffff6106405160a81c1660045260245260445ffd5b9450620136e462013300610700516107c051620087a4565b610660526201372d64ffffffffff620137076107005182885460401c1662010f2a565b86546cffffffffff00000000000000001916911660401b64ffffffffff60401b16178555565b61070051945f6107005262013322565b975050505050909150600d831462013838577f1c304023b27262393dcde9fe67af613bc45ee4f8c452b031dc393d074031157b926101809282549061ffff8260c81c1661060052610740515f14620138295761ffff90925b620137bb60015f60ff8660201c1697856106405160a81c1690600961062051016201ab88565b95939692979160409991995199856106405160a81c168b5260208b015260408a0152620137e88162008010565b60608901526107c051608089015260a088015260d81c1660c086015260e08501526101008401525f610120840152610140830152610160820152a162012f9e565b5061ffff610700519262013795565b6084610620515461ffff60405191631f466abb60e21b8352816106405160a81c16600484015263ffffffff8160201c16602484015242604484015260a01c166064820152fd5b905062013257565b620132cd6107005162013227565b63ffffffff83165f526012610620510160205264ffffffffff60405f205460b81c16818110620138c6575b5062013210565b90505f620138bf565b5063ffffffff81165f526012610620510160205260405f2064ffffffffff815460b81c1615151590811562013906575b506201318d565b60ff91505460401c166201391a8162008312565b6201392b60ff8360201c1662008010565b15600260ff8360201c161414155f620138ff565b610680516107005162013959610660516106e05162008d7d565b6106e05261070051610720510362013a10575b6106805115620139a357610700511562012f40576201399561076051600961062051016201696c565b6107c0526106a05262012f40565b9190507fb492fac0bb9e8c8d824bf2a4c19ec1efd3e98e987de34e127bc17eb2b5c0605e5f80a15b6106c051620139d657565b610620516106c051600191909101805467ffffffffffffffff191663ffffffff92909216919091174260201b63ffffffff60201b16179055565b6107c0516106c05261070051610720526201396c565b5061068051151562012fb2565b5061060051151562012fab565b919050620139cb565b50610760518062013a78575b8062012f5d57506107605115801562012f5d57506107c0516105e0511162012f5d565b506107c0516105e0511062013a55565b506107c051151562012f4a565b5f908062013aa1575090565b5f1981019150811162003ed357620186a090046001810180911162003ed35790565b908162013ad05750505f90565b5f19820191821162003ed35762013ae79162008d3c565b6001810180911162003ed35790565b906001820191815f528260205260405f2064ffffffffff815460b81c1662013b1e5750505050565b549063ffffffff808360201c16921663ffffffff82541684145f1462013be65762013b4a8183620169b9565b8062013bc7575b815460201c63ffffffff16840362013baa57508162013b7091620169dd565b8062013b8e575b505b5f526020525f60408120555f8080806200ad48565b5f528160205260405f2063ffffffff1981541690555f62013b77565b62013bc19291505f528360205260405f20620169dd565b62013b79565b805f528460205260405f2063ffffffff60201b19815416905562013b51565b825f528460205262013bfc8160405f20620169b9565b62013b51565b9060fc811162013c18576001901b198154169055565b6101fc811162013c6d5762013c2f600191620087da565b1b1960018201908154168091551562013c455750565b7fdfffffffffffffffffffffffffffffffffffffffffffffffffffffffffffffff8154169055565b6102fc811162013cc25762013c84600191620087c9565b1b1960028201908154168091551562013c9a5750565b7fbfffffffffffffffffffffffffffffffffffffffffffffffffffffffffffffff8154169055565b6103fc81111562013cd1575050565b62013cde600191620087b8565b1b1960038201908154168091551562013cf45750565b6001600160ff1b038154169055565b9062013d2560c954926c1fffffffffffffffffffffffff8460701c1662010ed2565b917fffffffffffe0000000000000000000000000ffffffffffffffffffffffffffff8360701b91161760c955565b906303fcffff80821162013dac57507fffffffffffff00000000ffffffffffffffffffffffffffffffffffffffffffff79ffffffff0000000000000000000000000000000000000000000083549260b01b169116179055565b906395d41f3f60e01b5f5260045260245260445ffd5b906303fcffff80821162013dac5750815463ffffffff60401b191660409190911b63ffffffff60401b16179055565b906303fcffff80821162013dac57507fffff00000000ffffffffffffffffffffffffffffffffffffffffffffffffffff7dffffffff000000000000000000000000000000000000000000000000000083549260d01b169116179055565b906303fcffff80821162013dac5750815467ffffffff00000000191660209190911b63ffffffff60201b16179055565b62013e898162008010565b801590811562013e97575090565b600191506201053d8162008010565b64ffffffffff62013ec2620086969382845460581c1662010f2a565b825464ffffffffff60581b1916911660581b64ffffffffff60581b16179055565b805460501c6001600160501b031692918084111562013f3d57808403935b6001600160501b03851162010ef3575050805469ffffffffffffffffffff60501b1916605084901b69ffffffffffffffffffff60501b16179055565b5f9362013f01565b9080548060281c9062ffffff821694859262013f6284876200bfe0565b9061ffff8560a81c168091149182620144a5575b5050620142d0575b50505050805461ffff8160b81c16908115808091620142c0575b1562014085575050505060069062013fb5600784068094620087ea565b5f520160205260405f2090600160ff1983541617825580155f1462013fe35750805464ffffffff0019169055565b6001810362013fff5750805468ffffffff000000000019169055565b600281036201401f575080546cffffffff00000000000000000019169055565b60038103620140435750805470ffffffff0000000000000000000000000019169055565b600481036201405d5750805463ffffffff60881b19169055565b6005036201407557805463ffffffff60a81b19169055565b805463ffffffff60c81b19169055565b929492156201420e5750508261ffff91826007955460c81c16620140ad8683068093620087ea565b5f526006850160205260405f2091600160ff1984541617835580155f14620141045750815462ffff00191660089190911b62ffff00161790555b5460c81c165f520160205260405f2061ffff60b81b198154169055565b60018103620141325750815466ffff0000000000191660289190911b66ffff000000000016179055620140e7565b6002810362014168575081546affff000000000000000000191660489190911b6affff00000000000000000016179055620140e7565b600381036201419c575081546effff00000000000000000000000000191660689190911b61ffff60681b16179055620140e7565b60048103620141c65750815461ffff60881b191660889190911b61ffff60881b16179055620140e7565b600503620141ee57815461ffff60a81b191660a89190911b61ffff60a81b16179055620140e7565b815461ffff60c81b191660c89190911b61ffff60c81b16179055620140e7565b60c81c61ffff168062014254575050826201423761ffff92836007965460b81c16908562016a32565b5460b81c165f520160205260405f2061ffff60c81b198154169055565b62008696949192506201428f90600761ffff9501935f528360205260405f209061ffff60c81b1961ffff60c81b83549260c81b169116179055565b5490828260c81c165f5260205260b81c1660405f209061ffff60b81b1961ffff60b81b83549260b81b169116179055565b5061ffff8260c81c161562013f98565b600386019260058701918160301c9261ffff841691825f5281602052600160ff60405f205492161b1916915f526020528060405f20551562014457575b505015620143ba57835462ffffff8160781c1683145f1462014383575090620143369162010402565b5f19810362014371575081547fffffffffffffffffffffff000000000000ffffffffffffffffffffffffffffff1682555b825f808062013f7e565b6201437d90836201912f565b62014367565b60901c62ffffff1682146201439b575b505062014367565b620143b291620143ab916200d994565b83620190de565b825f62014393565b835462ffffff8160481c1683145f1462014429575090620143db9162010402565b5f198114801562014416575b156201440a575081546effffffffffff0000000000000000001916825562014367565b6201437d9083620190a9565b5062ffffff835460781c168114620143e7565b60601c62ffffff1682146201444057505062014367565b620143b29162014450916200d994565b8362019055565b60ff9060381c16906004870190825f5281602052600160ff60405f205492161b191690825f526020528060405f20551562014494575b806201430d565b6001901b1982541682555f6201448d565b1490505f8062013f76565b5f828152600782016020526040902063ffffffff60781b9055811562014533576201450382620086969360081c90815f5260028401602052600160ff60405f2092161b1981541690556001830162019170565b6201451661ffff825460201c166200fdf1565b65ffff0000000082549160201b169065ffff000000001916179055565b6302f9530760e61b5f5260045ffd5b9061010003610100811162003ed3575f19901c16806201456257505f1990565b620085ea905b905f916fffffffffffffffffffffffffffffffff81116201465e575b6001600160401b03811162014647575b63ffffffff811162014630575b61ffff811162014619575b60ff811162014602575b600f8111620145eb575b60038111620145d4575b6001106201262a57565b916002810180911162003ed3579160021c620145ca565b916004810180911162003ed3579160041c620145c0565b916008810180911162003ed3579160081c620145b6565b916010810180911162003ed3579160101c620145ac565b916020810180911162003ed3579160201c620145a1565b916040810180911162003ed3579160401c62014594565b60809250821c62014584565b919080620146785750501590565b80620186a092938181115f14620146935703925b0291021090565b9003926201468c565b919091620146aa816200fcac565b9283620146b5575050565b620146ec5760407f8ecb05e775f8b004d0796e497a6b28cfe97a6f8acd115327138350b5a08347ed918151908152436020820152a1565b638ecb05e760e01b5f526004524360245260445ffd5b61ffff811192918362014713575050565b620147535760607fe99e76b7075a2c30a8d971cb3f247cba3e1995e4d12ff31053b190b2f71dcc7b916040519081525f602082015261ffff6040820152a1565b63e99e76b760e01b5f526004525f60245261ffff60445260645ffd5b91909294935f958203620147835750505050565b909192939450620147d757604080519283526020830193909352918101919091527f0ff65eacbb5b956c92957d3a4c76260d051566a34945c41b4e621bc895918ee790606090a16001905f8080806200ad48565b92506303fd97ab60e21b5f5260045260245260445260645ffd5b9291905f93825f5260d560205260405f2092825461ffff8160681c1690811580156201482c575b5050505050506001600160501b0390541690565b6127108394959699930293840461271014171562003ed35760c95460701c6c1fffffffffffffffffffffffff16808411620148f557505050917e106621f9f74b437219c51c8fded1d9faa8056f77fd0f3631d2ab8967a4d75d91620148e5846201489f6001600160501b03979662013d03565b90620148ac81886200b49e565b61ffff819a5460a81c16604051958695869160809361ffff91979695929760a08501988552602085015216604083015260608201520152565b0390a15b905f8080808062014818565b620149619192985061ffff937ff662aa6b6412ffe2a4e433dace098e96260a08fdaefdb023773e41f999b7c4ec956001600160501b03989760405196879660a81c1691869160809361ffff91979695929760a08501988552602085015216604083015260608201520152565b0390a1620148e9565b94939294610c2052610b4052610b2052610ba0525f5f610bc0525f610bc0526002610c20510154610c6052610b205154610c805263ffffffff610c805160781c16610b005260c083013590620149c3610b00516200fcac565b156201523157506001610bc05280156201518157610bc05190610b00525b5f9264ffffffffff610c805160401c16610ae05260a08101358015158062015173575b6201513f575b5063ffffffff6009610c205101541662ffffff610c805160281c16610b6052610b6051155f14620151275760805f925b83610ca05201359182151590816201511b575b50620150f2575b5050156200a6c25762014aa260ff610c605160e01c1660ff610c605160d81c1664ffffffffff610c605160501c1664ffffffffff610c605116610ae05161ffff610c605160b81c166200d5f1565b918015620150de575b80610c405215620150c8575b62014acb60ff610c805160201c1662010541565b610c00525f91610c405162014dee575b5050610bc05162014dcf575b62014b1a62ffffff610b605116610b20519067ffffff000000000082549160281b169067ffffff00000000001916179055565b62014b4f64ffffffffff610ae05116610b20519064ffffffffff60401b82549160401b169064ffffffffff60401b1916179055565b62014b9963ffffffff610b005116610b2051907fffffffffffffffffffffffffff00000000ffffffffffffffffffffffffffffff63ffffffff60781b83549260781b169116179055565b610bc05162014d88575b610c40511562014d4d5760ff610b20515460201c1661ffff610c805160a81c161562014d1f5761ffff610c805160a81c166303ff0000610c605160981c16175f526002610b40510160205260405f209081549063ffffffff82161562014ce35762014c0e9062013e7e565b1562014cb8578262014c647fbf5d27a683d1ce858f6095fde2cc9837ba595c533e97576c5ff3de4376ccbf3c9460c09462014c5d6001600160501b0362014c6e9660901c16610b405162013ee3565b5062019df6565b610b405162019e42565b61ffff610b20515460a81c16906001600160501b03610b4051541690604051928352610ca0516020840152610ae0516040840152610b00516060840152608083015260a0820152a1565b63086415b760e01b5f5261ffff610c605160a81c1660045261ffff610c805160a81c1660245260445ffd5b63ffffffff6001610b4051015416638d5bba0f60e01b5f5261ffff610c605160a81c1660045261ffff610c805160a81c1660245260445260645ffd5b63ffffffff6001610b40510154166369bc91ef60e11b5f5261ffff610c605160a81c1660045260245260445ffd5b507fbf5d27a683d1ce858f6095fde2cc9837ba595c533e97576c5ff3de4376ccbf3c60c06001600160501b03610b40515460501c1662014c6e565b610b205180547fffffffffff00000000ffffffffffffffffffffffffffffffffffffffffffffff168155610c0051610c205162014dc9929060090162019a73565b62014ba3565b62014de8610c0051610b20516009610c20510162013f45565b62014ae7565b62014e3a91925062014e0b9061ffff610c805160981c1662011b8b565b61ffff610c605160881c1690610ae05190610ca0519060ff610c805160201c1690610ba051610c205162016bc3565b919593949092610b8052610be0525092809362014e8283610b805186610be051610ae051610b6051610ca051610c005160ff610c805160201c16610ba051610c205162016dcf565b156200c1395761ffff610c805160a81c166303ff0000610c605160981c16175f526002610b40510160205260405f205463ffffffff81161562015096576001600160501b039060901c1691610b405154916001600160501b038360501c16938085101562015082575b505f93806001600160501b0385161162015063575b5080156201505b5762014f139162008d7d565b925b83831062014fe7575b5050106200a6c257600a610be0511462014f3a575b8062014adb565b6101207fb971bdbd8f44fbf3ba501ee287c2533eb61b09097d638c664566aac00bbb3e65916003610c20510154906001600160501b036040519261ffff610c605160a81c168452610ba051602085015262014f9e60ff610c805160201c1662008010565b60ff610c805160201c166040850152610ca0516060850152610ae051608085015281811660a085015260501c1660c083015260e0820152610b8051610100820152a15f62014f33565b620150385760408051848152602081018490526001600160501b0392909216908201527fb853e5846ad52919c794f709695100094681c458cd1864d5217c6c897b6858b190606090a15f8062014f1e565b906001600160501b0392632e14f96160e21b5f526004526024521660445260645ffd5b509262014f15565b6201507a9194506001600160501b038416620087ea565b925f62014f00565b6201508e9194620087ea565b925f62014eeb565b638d5bba0f60e01b5f5261ffff610c605160a81c1660045261ffff610c805160a81c16602452610ba05160445260645ffd5b61ffff610c805160981c1615610c405262014ab7565b5061ffff610c805160981c16821062014aab565b6001610bc081905294508492506201510b9082620087ea565b610b6052610ca0525f8062014a54565b90508214155f62014a4d565b60806201513882610b605162008d7d565b9262014a3a565b91509250610bc051610bc0511562015166575b610bc0526001928391610ae0525f62014a0a565b50610ae051811162015152565b50610ae05181141562014a04565b509050620151ed577fef9c486e607431362e32f87055ecc54107d0bde504cfbca8d6a59a6108b99ead604051806200a8d9610b0051610ba05161ffff610c805160a81c1661ffff610c605160a81c16859094939260609260808301968352602083015260408201520152565b6040516377ce243760e11b8152610b0051610ba051610c8051610c605161ffff60a891821c8116600487015291901c16602484015260448301526064820152608490fd5b908062015240575b50620149e1565b610b00525060015f62015239565b939190805f5260d5602052600360405f20019061ffff600287015460a81c1691825f5260205260405f205464ffffffffff8160581c169687156201543457601290835f520160205260ff60405f209160501c1690549260ff8460401c1692620152b78462008312565b8315831515036201536a575050505060b81c64ffffffffff1693808511156201536157620152e69085620087ea565b905b81811193841594620152fc57505050909150565b62015346576200d3177f1b7ba008cbebdd0330e64275c62765a671adbce08d86e7b894f0601a886b78cf939495604051938493846040919493926060820195825260208201520152565b84925063036f740160e31b5f5260045260245260445260645ffd5b505f90620152e8565b929597969194509250620153dc575050916060917f04d93c80531ebbd61ebd9906714391b8431ec4437abe44969d252210244128de935f14620153d4575f5b604051928352620153ba8162008312565b6020830152620153ca8162008312565b6040820152a15f90565b6001620153a9565b8460a49492935f146201542b575f915b60405194634298a83160e01b8652600486015260248501526044840152620154148162008312565b6064830152620154248162008312565b6084820152fd5b600191620153ec565b5050505050915050600190565b9190926006018060061162003ed3576201545f620154949162009ff6565b6200a59a5f841293845f14620154d1576201547a906200c783565b955b6201548d8362000c60838a620087a4565b96620087a4565b91620154a08162008312565b620154bb5715620154af575090565b620085ea91506200c783565b15620154cd57620085ea91506200c783565b5090565b956201547c565b9293916201553e91955f96549362015508876001600160501b038760481c1664ffffffffff8860b81c1662015902565b9490938596859989549260ff808560b81c169460b01c169263ffffffff8160981c169160ff8260e01c9260401c16908d6200bf55565b9491959085620155508298846200c1f5565b9415620155925750505050505f5b6001600160501b036201557f60038398015482808260501c16911662011bcc565b1681116201558a5750565b600a97509450565b5f8512620155a457505050506201555e565b600c9b509299505f98509096509450925050565b620f4240919381841193845f146201560657620155da926200452b91620087ea565b04915b620155e88162008312565b620155ff575b15620085ea57620085ea906200c783565b15620155ee565b6200452b906201561693620087ea565b0491620155dd565b5f60443d10620085ea576040513d600319016004823e8051913d60248401116001600160401b038411176201569057828201928351916001600160401b03831162015688573d84016003190185840160200111620156885750620085ea9291016020019062008553565b949350505050565b92915050565b3d15620156c5573d90620156aa8262008575565b91620156ba604051938462008553565b82523d5f602084013e565b606090565b92919092620157035f80936060966001600160a01b0360ca54169083604051809681958294637bf41d7760e11b84526004840162011e01565b03925af15f91816201585d575b506201585357505f60033d1162015842575b806308c379a014620157ea57634e487b71146201578c575b7f7d7f9345462f0c85c00b5c2083a2ddd2d72fb70e98d0ebed71562cba6feef687906201576662015696565b9062015785604051928392835260406020840152604083019062007fcf565b0390a19190565b5f8060233d11620157d8575b620157a457506201573a565b7fe526d22a15e94c788050d8c0ca8cddc836ce3580e3dbe7ac64afb9229c7d633e9160409182519182526020820152a19190565b5050602060045f3e5f51600162015798565b50620157f56201561e565b806201580257506201573a565b7fd83687e05ff302f677e5adcaeee1a4cb3c6473e57b9000d71f2c42ff6ada466c9162015785604051928392835260406020840152604083019062007fcf565b5060045f803e5f5160e01c62015722565b9293505050600191565b620158759192503d805f833e6201238a818362008553565b905f62015710565b6006810362015890575064e8d4a5100090565b60058103620158a457506509184e72a00090565b60048103620158b85750655af3107a400090565b60038103620158cd575066038d7ea4c6800090565b60028103620158e25750662386f26fc1000090565b600114620158f657670de0b6b3a764000090565b67016345785d8a000090565b828114939284156201591357505090565b62000c6090620085ea93620087a4565b5f81126201592e5790565b5f0390565b91906201594b906001600160501b0384541662018e0b565b825469ffffffffffffffffffff19166001600160501b03821617909255565b9064ffffffffff6201598b60026200869694019282845460281c1662010f2a565b825469ffffffffff00000000001916911660281b69ffffffffff000000000016179055565b64ffffffffff620159ca6002829301938285541662010f2a565b161664ffffffffff19825416179055565b6001600160501b03620159f9620086969382845460481c1662018e0b565b825472ffffffffffffffffffff0000000000000000001916911660481b72ffffffffffffffffffff00000000000000000016179055565b64ffffffffff62015a4c620086969382845460b81c1662010f2a565b825464ffffffffff60b81b1916911660b81b64ffffffffff60b81b16179055565b610ae0819052610ac0829052610aa092909252610a8093909352610a608790525f6107e0819052610a2081905261096081905261094081905292835260d5602090815260408085206109e0819052546001600160501b0316610a40526012909201905282206109208190529098979695929491939262015aef918a9062018e53565b9062015afb8962013e7e565b806201695f575b6201691d575b5062015b148162008010565b8062016068575050509062015b419291610aa05190610a605190610a8051886109e051610ae05162018ee5565b909392610a005292909383856107e052610a005195610a00511562015bed575b505050505b6001600160501b036109e051541691610a4051831015805f1462015bd75762015b93610a405185620087ea565b905b6001600160ff1b03821162015bbd571562015bae579291565b62015bb9906200c783565b9291565b8463e69a04b360e01b5f52600452610a405160245260445ffd5b62015be684610a4051620087ea565b9062015b95565b839496509262015bff91929362008d7d565b9162015c0b8162008010565b6201605f575f925b61ffff6002610ae051015460a81c165f60c060405162015c3381620084e3565b8281528260208201528260408201528260608201528260808201528260a082015201526001600160501b038411620160415764ffffffffff610a60511162016022576040519062015c8482620084e3565b5f82525f602083015262015c988662008312565b8560408301526001600160501b038516606083015263ffffffff610a805116608083015264ffffffffff610a60511660a083015263ffffffff431660c0830152610ac0515f526012610ae0510160205264ffffffffff60405f205460b81c16620160095750610ae0516011015460201c63ffffffff168062015fa5575091610140939162015da97fc0150ebb43a9c2478aa9c69d27078da071ceafb70e2d822d7d39a533e0418728969462015d57610ac0516011610ae05101620169b9565b610ac0515f908152610ae05160120160209081526040909120825181548484015167ffffffffffffffff1990911663ffffffff92831617931b63ffffffff60201b169290921781559160c0906200e668565b62015dbe610ac0516011610ae05101620169dd565b60056109e0510161ffff6002610ae051015460a81c1660fc8111155f1462015efa576001901b81541790555b62015e0462015dfa838562008d7d565b6109e0516200d4fd565b62015e1383610ae051620101e8565b62015e3662015e2e6200e7d984610ae0515460e81c620087a4565b8093620087ea565b9262015e42846200c0bd565b62015e5183610ae05162010204565b62015e5c8562008312565b8462015ee25762015e74610a6051610ae0516201ab6e565b61ffff6002610ae051015460a81c1694604051958652610ac051602087015262015e9e8162008312565b6040860152610aa0516060860152608085015260a0840152610a805160c0840152610a605160e0840152610100830152610120820152a16007915f80808062015b61565b62015ef4610a6051610ae0516201ab4d565b62015e74565b6101fc811162015f2f5762015f11600191620087da565b1b60066109e05101908154179055600160fd1b815417905562015dea565b6102fc811162015f645762015f46600191620087c9565b1b60076109e05101908154179055600160fe1b815417905562015dea565b6103fc81111562015f78575b505062015dea565b62015f85600191620087b8565b1b60086109e05101908154179055600160ff1b81541790555f8062015f70565b63ffffffff81116200e9b6579162015da98284610140979560207fc0150ebb43a9c2478aa9c69d27078da071ceafb70e2d822d7d39a533e04187289a989601525f526012610ae0510160205262016003610ac05160405f20620169b9565b62015d57565b633f1ed2e160e21b5f52600452610ac05160245260445ffd5b6395d41f3f60e01b5f52610a605160045264ffffffffff60245260445ffd5b836395d41f3f60e01b5f526004526001600160501b0360245260445ffd5b60019262015c13565b909192959650620160798162008010565b60018103620163835750505090620160b29181935f6109a052610aa05190610a605190610a80516109e05161092051610ae05162019574565b9195906109c097939752610980529394919291610c405195610980516109a052600a61098051145f146201610a5761ffff6002610ae051015460a81c166003610ae051015490620018a56200eaba6109c05162015923565b61098051156201612a575b5050505050906107e0526109a0519162015b66565b62016139906109e05162015933565b50620161486109c05162015923565b5f6109c051125f146201636e576201616890610ac051610ae05162011bed565b6201617f6200e7d986610ae0515460e81c620087a4565b620161c96201618f8288620087ea565b926201619b846200c0bd565b620161aa83610ae05162010204565b6109205154610880526001600160501b036108805160481c166200c1f5565b925f84126200ed68577f2a077a58d72570ce2b985a210c9ad672373eb9bcc337d1dc62b8b75dd644cf27956101c0956201620c60ff6108805160401c1662008312565b60ff6108805160401c16156201624581610a6051610a805164ffffffffff6108805160b81c1663ffffffff6108805160981c166201b0fd565b61084052610860525015620163565762016266610a6051610ae0516201ab6e565b61ffff6002610ae05101620162a582825460a81c16439061084051908b610860519160ff6108805160401c1690610ac051906011610ae051016201aef9565b5460a81c1695604051968752610ac0516020880152620162ce60ff6108805160401c1662008312565b60ff6108805160401c166040880152610aa05160608801526001600160501b036108805160481c16608088015260a087015260c086015260e08501526101008401526108605161012084015264ffffffffff6108805160b81c16610140840152610840516101608401526101808301526101a0820152a160076109a0525f8080808062016115565b62016368610a6051610ae0516201ab4d565b62016266565b6201637d90610ae051620101e8565b62016168565b91949091600390620163958162008010565b036201667b57620163c694505f6108c052610aa05191610a605191610a80516109e05161092051610ae05162019293565b61090093909352610b405161082052610800939093526108e0859052610b20516108c0869052939491929091600a03620164245761ffff6002610ae051015460a81c166003610ae051015490620018a56200eaba6109005162015923565b6108e0511562016442575b505050906107e0526108c0519162015b66565b7f01a0596385c75b269e896ca6468a2be2edc8b2b5459f4e25ca0a75944390a10c92620164a46101c0936201647a6109005162015923565b5f61090051125f1462016666576201649a90610ac051610ae05162011bed565b6109e05162015933565b50620164bc6200e7d986610ae0515460e81c620087a4565b620164c88187620087ea565b91620164d4836200c0bd565b620164e382610ae05162010204565b61092051549360ff8560401c1694620164fc8662008312565b856201663557506201652064ffffffffff610920515460b81c16610ae051620159b0565b6201653261082051610ae0516201ab4d565b64ffffffffff61092051546201654c610800518c62008d7d565b61ffff6002610ae051016201658c82825460a81c168b155f146201662e5760015b4391866108205192610a805192610ac051906011610ae051016201aef9565b5460a81c1697620166275760015b604051988952610ac05160208a0152620165b48162008312565b6040890152610aa05160608901526001600160501b038260481c16608089015260a08801526108005160c0880152610a805160e088015260b81c16610100860152610820516101208601526101408501526101608401526101808301526101a0820152a160076108c0525f80806201642f565b5f6201659a565b5f6201656d565b64ffffffffff6201664e9160b81c16610ae0516201596a565b6201666061082051610ae0516201ab6e565b62016532565b6201667590610ae051620101e8565b6201649a565b9092506201669d9150610aa05190610a6051908461092051610ae0516201919d565b6108a09490945250939491939185600a81036201670e57610ae051600281015460039091015460405163063c641b60e41b81526108a05160a89390931c61ffff1660048201526001600160501b03808316602483015260509290921c90911660448201526064810191909152608490fd5b156201672c575b50505050610940526108a051610a20529162015b66565b909192939450620167486108a051610ac051610ae05162011bed565b6201675a6108a0516109e0516200b49e565b60ff610920515460401c1693620167718562008312565b84620169055762016789610a6051610ae051620159b0565b8515620168325750917f599b5f439ed4daf1f28ae8638e5439d3982e8001fb26dd8f70021b38672eb26f939160c093620167cd610ac0516011610ae0510162013af6565b61ffff6002610ae05101620167ef82825460a81c1660056109e0510162013c02565b5460a81c1693604051948552610ac05160208601526201680f8162008312565b60408501526060840152608083015260a0820152a15b6007905f80808062016715565b9161012093915064ffffffffff7fcd4a9f7ae1cc250eaa0be6bdb30d07efaf0faafb4ff0e76d8fe09a8373e43f8595620168756109205154956109205162018ded565b62016887610a60516109205162015a30565b8161ffff6002610ae051015460a81c1695610920515492604051978852610ac0516020890152620168b88162008312565b60408801526001600160501b038160481c1660608801526001600160501b038360481c16608088015260b81c1660a086015260b81c1660c084015260e0830152610100820152a162016825565b62016917610a6051610ae0516201596a565b62016789565b620169316201695491610a605190620087ea565b6200f34d610ae05154610aa0519260ff808360b81c169260b01c16908962011b34565b610960525f62015b08565b50610a6051811162015b02565b919015620169a35763ffffffff62ffffff80845460601c165b1692541682155f146201699757505f90565b620085ea908362008d7d565b63ffffffff62ffffff80845460781c1662016985565b9063ffffffff81116200e9b657815463ffffffff191663ffffffff91909116179055565b91909163ffffffff831162016a175763ffffffff6200869692931663ffffffff60201b82549160201b169063ffffffff60201b1916179055565b826395d41f3f60e01b5f5260045263ffffffff60245260445ffd5b60069062016a45600784068094620087ea565b5f520160205260405f2090600160ff1983541617825580155f1462016a89575061ffff62008696921664ffff00000082549160181b169064ffff0000001916179055565b6001810362016abf575061ffff62008696921668ffff0000000000000082549160381b169068ffff000000000000001916179055565b6002810362016afd575061ffff6200869692166cffff000000000000000000000082549160581b16906cffff00000000000000000000001916179055565b6003810362016b2b575061ffff62008696921661ffff60781b82549160781b169061ffff60781b1916179055565b6004810362016b59575061ffff62008696921661ffff60981b1961ffff60981b83549260981b169116179055565b60050362016b855761ffff62008696921661ffff60b81b1961ffff60b81b83549260b81b169116179055565b61ffff6200869692167fffffff0000ffffffffffffffffffffffffffffffffffffffffffffffffffffff61ffff60d81b83549260d81b169116179055565b9395929490955f955f955f5f988a5f5260d560205260405f209a5f526012830160205260405f209162016bf887868562018e53565b62016c038162008010565b8062016c2957505050509062016c1d969798839262018fe6565b92959194859392909150565b909192945062016c398162008010565b6001810362016c665750505097829162016c55979899620198be565b969995988997969095509350505050565b60039192939599505f9b9894969a979b5062016c828162008010565b0362016dac5750509662016cf99160ff8883899a9b5f9754948b64ffffffffff8760b81c169889976001600160501b0362016cea8554948a8660b01c16809b819760b81c169c8d98899363ffffffff8860981c16918860e01c9160ff8a60401c16916200bf55565b939193505060481c166200c1f5565b5f81131562016d935762016d0d9062015923565b9c62016d2662016d379a8f9762016d2d985b50620087ea565b906201aa23565b509a90996201a9ed565b50509262016d4a8762011124886200c783565b905f8212918262016d71575b50501562016d6a57506005945b9192939495565b9462016d63565b6001600160501b0391925062016d879062015923565b915416105f8062016d56565b505f9c62016d2662016d379a8f9762016d2d9862016d1f565b9794509794505093809162016dc1956201919d565b925092949593505090929395565b939498919295969997909961ffff600286015460a81c16978115158062016f67575b62016f0057505062016e149288925f9262016e0b6200b4ca565b928d8b6201991e565b62016ef55782600962016e2c9201968886896201ac1f565b909682989262016e4d575b505050505050505062016e4957600190565b5f90565b5463ffffffff168162016ee35750505f945b62016eaa575050604080519384529315156020840152507fc0ed4041bfe51a7b847f46f096b9d2495866089371037e3efd436bd858f46edd92919050a15f8080808080808062016e37565b9160c4949186936040519563beb3942960e01b8752600487015260248601526044850152151560648401526084830152151560a4820152fd5b62016eee9162008d7d565b9462016e5f565b505050505050505f90565b97989450999850505091925062016f4557505050505060207f18a118a5bb122057e420b1bcf7903a57ebc749be0d1981d112c6e257e7bd5e8891604051908152a15f90565b918591620018a5936040519687966321b303f960e11b88526004880162012e38565b50600a82141562016df1565b9499939597909a9891929661ffff600287015460a81c16988115158062016ff5575b62016faf5750509162016e149391899362016e0b6200b4ca565b989995509a995050509293505062016f4557505050505060207f18a118a5bb122057e420b1bcf7903a57ebc749be0d1981d112c6e257e7bd5e8891604051908152a15f90565b50600a82141562016f95565b989695986107805261074052610640526107605261066052610300526105a0526107a052620170336106405162010541565b6106c0525f61056052612710811162018d9d57610560525b610780516002015464ffffffffff16610320526106e08190525f6102e081905261040052801590811562018d90575b5062018d83575b620170966106c051600961078051016201696c565b6101c0919091526107c0525f61062052610660516105e0819052610400526107805160020154610720525b6104005115158062018d76575b1562018d31576107605115156107605162018d37575b62018d31575f6106a0525f610680525f610700525f6106a052620171126101c051600961078051016200bfe0565b506101e0526105e051610680526106e051610700525b6106805115158062018d24575b8062018d17575b1562017b26576101e0515f526010610780510160205260405f2061020052610200515463ffffffff81165f5260d560205260405f206102405260ff610240515460a01c166201718b8162008010565b156201723d575061ffff610200515460c81c166101e0527f86ad99b48b2565c9720e33335db58e8c7468d6af03a5e6238b20d4a562f5b8b462017234620171ef6107a0516107405161ffff6107205160a81c1661020051600961078051016201ab88565b60408051610740516107205160a81c61ffff1682526020820194909452908101939093526060830152608082015260a081019290925260c082015290819060e0820190565b0390a162017128565b6201725163ffffffff8260781c166200fcac565b15620172b5575061ffff610200515460c81c166101e0527fb95e250f9f017dcb1bb1806916771df0c04a269e5f46d5db7519382a0f7bb47762017234620171ef6107a0516107405161ffff6107205160a81c1661020051600961078051016201ab88565b6107405163ffffffff82160362017324575061ffff610200515460c81c166101e0527f52d5291dc7b477ebda965d0693c67e6ccec5b3667b530305685465384756d3fd62017234620171ef6107a0516107405161ffff6107205160a81c1661020051600961078051016201ab88565b5f6201733660ff8360201c1662010513565b62017ab6575b15620173a0575061ffff610200515460c81c166101e0527fae6369c6e529c86dd87431d10e0db70657c834daa75356e1efd7c0ac79f934b762017234620171ef6107a0516107405161ffff6107205160a81c1661020051600961078051016201ab88565b64ffffffffff8160401c16806105c052620173c160ff8360201c1662010513565b62017a7b575b61068051811180156105805262017a6d5762017483815b600261078051015490620174466201743864ffffffffff841664ffffffffff8560281c168082115f146201387e575060ff8560e01c169060ff8660d81c169064ffffffffff8760501c16908661ffff8960b81c166200d5f1565b61ffff8760981c1662011b8b565b9061ffff808760d81c169360881c16916105c051906107c051906107c051906107c0519060ff8b60201c169063ffffffff8c166107805162015a6d565b610220839052610960516101809290925293919290919060061981016201792557505f610260526105805115620178ae5780620174d6620174cc620174e9936107c051620087a4565b6106a05162008d7d565b6106a052806102605261068051620087ea565b610680525b620174fc610700516200a077565b610700526105805115620176335750508161012091620175646201755663ffffffff7ff5f5aef063f495816b6982c44c70c97c8fbec2fa24b73487e6542ce02143121496166102005161ffff6107205160a81c16620147f1565b61018052610220516200c1f5565b9061ffff610200515460c81c166101e0526201759661ffff8460a81c1661ffff6107205160a81c16610240516200fe02565b90620175c1620175b060ff610200515460201c1662010541565b610200516009610780510162013f45565b620175da61ffff8560a81c1660096107805101620144b0565b61ffff60405194816107205160a81c16865263ffffffff8116602087015260a81c1660408501526107c051606085015261026051608085015260a084015260c083015260e082015261018051610100820152a162017128565b909160ff610200515460201c16610140525f610160525f610160525f61ffff8560a81c1615620178805761ffff8560a81c166303ff00006107205160981c16175f526002610240510160205260405f209081546101a05263ffffffff6101a05116156201784857917ff5f5aef063f495816b6982c44c70c97c8fbec2fa24b73487e6542ce0214312149593916101209593620176d26101405162013e7e565b15620177f3575080620176f8846001600160501b0362017702945460901c169262019df6565b6102405162013ee3565b5062017712826102405162019e42565b610160526001600160501b036102405154166101605111915b61016051926201773d575b50620175da565b9091507f6d6191eb9e6651b10a6b278ab4d021e3c8b8810a0290234d29d74556915d5dcf61014064ffffffffff610200515460401c166201779b6107a0516107405161ffff6107205160a81c1661020051600961078051016201ab88565b97916040959195949394519561ffff6107205160a81c168752602087015260408601526107c051606086015260808501528660a085015260c08401526107405160e084015261010083015288820152a1905f62017736565b9290620178429061ffff6107205160a81c165f52600361024051016020526201783760405f209164ffffffffff6201362f61026051826101a05160681c1662010f2a565b610260519062013ea6565b6201772b565b8561ffff63ffffffff60016102405101541691638d5bba0f60e01b5f52816107205160a81c1660045260a81c1660245260445260645ffd5b63ffffffff6001610240510154166369bc91ef60e11b5f5261ffff6107205160a81c1660045260245260445ffd5b50620178c5620174cc610680516107c051620087a4565b6106a0526201791264ffffffffff620178eb6106805182610200515460401c1662010f2a565b16610200519064ffffffffff60401b82549160401b169064ffffffffff60401b1916179055565b61068051610260525f61068052620174ee565b945092505050600d821462017a27577f1c304023b27262393dcde9fe67af613bc45ee4f8c452b031dc393d074031157b916101809161020051549061ffff8260c81c166101e052610580515f1462017a1b57905b61ffff60ff8260201c1693620179aa6107a05161074051846107205160a81c1661020051600961078051016201ab88565b95939692979160409991995199856107205160a81c168b5260208b015260408a0152620179d78162008010565b60608901526107c051608089015260a088015260d81c1660c086015260e085015261010084015261074051610120840152610140830152610160820152a162017128565b50610680519062017979565b6084610780515461ffff60405191631f466abb60e21b8352816107205160a81c16600484015263ffffffff8160201c16602484015242604484015260a01c166064820152fd5b6201748361068051620173de565b63ffffffff82165f526012610780510160205264ffffffffff60405f205460b81c1681811062017aad575b50620173c7565b90505f62017aa6565b5063ffffffff81165f526012610780510160205260405f2064ffffffffff815460b81c1615151590811562017aed575b506201733c565b60ff91505460401c1662017b018162008312565b62017b1260ff8360201c1662008010565b15600260ff8360201c161414155f62017ae6565b610700516106e052610680516104005262017b486106a0516102e05162008d7d565b6102e052610680516105e0510362018d01575b610700511562017b92576106805115620170c15762017b846106c051600961078051016201696c565b6107c0526101c052620170c1565b7fb492fac0bb9e8c8d824bf2a4c19ec1efd3e98e987de34e127bc17eb2b5c0605e5f80a15b6106205162018cc3575b610400519061040051610660511162017be3575b62008696610780516201188c565b62017bf56104005161066051620087ea565b6104e05262017c0b6104e0516102e05162008d3c565b62017c1d6104e0516102e05162013ac3565b6105405262017c2f6106405162010541565b5f610520521562018cb85761054051610520525b610740515f526012610780510160205260ff60405f205460401c1662017c698162008312565b5f6104805262018ca957610480525b62017cda62017cd0600261078051015462017c966106405162013e7e565b1562018ca1576104e051905b60ff8160e01c169160ff8260d81c169164ffffffffff8160501c169161ffff610320519260b81c166200d5f1565b6103005162011b8b565b610600525f610360525f5f5f915f61036052610740515f5260d560205260405f20610440526001600160501b0361044051541661050052610740515f526012610780510160205260405f206104a05262017d3f6104e051610640516104a05162018e53565b62017d4d6106405162013e7e565b8062018c99575b62018c58575b62017d658162008010565b806201839c57505062017d9b6105a05161056051610600516104e051610540516105205161064051610440516107805162018ee5565b80610360959493955284831562017f44575b5050505b6001600160501b036104405154169361050051851015805f1462017f2e5762017dde6105005187620087ea565b905b6001600160ff1b03821162017f145762017e289291901562017f0257945b61ffff600261078051015460a81c169462017e186200b4f0565b91610640516107405188620199da565b506007810362017ead575050907f5be6b2e974d9a72428e5cb9cf915a5f991d1c862db8cafc9a121bb99b091cb749162017ea4604051928392610360516104e0516104805161054051610520518893909796959260c0959260e08601998652602086015260408501526060840152608083015260a08201520152565b0390a162017bd5565b61010492506040519163b29d194960e01b835260048301526107405160248301526105205160448301526105405160648301526104805160848301526104e05160a48301526104005160c483015260e4820152fd5b62017f0d906200c783565b9462017dfe565b8663e69a04b360e01b5f526004526105005160245260445ffd5b62017f3d8661050051620087ea565b9062017de0565b8293509162017f54919262008d7d565b9062017f636106405162008010565b6106405162018393575f925b61ffff600261078051015460a81c165f60c060405162017f8f81620084e3565b8281528260208201528260408201528260608201528260808201528260a082015201526001600160501b038411620160415764ffffffffff6104e0511162018374576040519062017fe082620084e3565b5f82525f602083015262017ff48662008312565b8560408301526001600160501b038516606083015263ffffffff6105205116608083015264ffffffffff6104e0511660a083015263ffffffff431660c0830152610740515f526012610780510160205264ffffffffff60405f205460b81c166201835b5750610780516011015460201c63ffffffff1680620182f75750916101409391620181057fc0150ebb43a9c2478aa9c69d27078da071ceafb70e2d822d7d39a533e04187289694620180b36107405160116107805101620169b9565b610740515f9081526107805160120160209081526040909120825181548484015167ffffffffffffffff1990911663ffffffff92831617931b63ffffffff60201b169290921781559160c0906200e668565b6201811a6107405160116107805101620169dd565b6005610440510161ffff600261078051015460a81c1660fc8111155f146201824c576001901b81541790555b6201816062018156838562008d7d565b610440516200d4fd565b6201816f8361078051620101e8565b6201818a62015e2e6200e7d984610780515460e81c620087a4565b9262018196846200c0bd565b620181a5836107805162010204565b620181b08562008312565b846201823457620181c86104e051610780516201ab6e565b61ffff600261078051015460a81c1694604051958652610740516020870152620181f28162008312565b6040860152610600516060860152608085015260a08401526105205160c08401526104e05160e0840152610100830152610120820152a160075f808062017dad565b620182466104e051610780516201ab4d565b620181c8565b6101fc8111620182815762018263600191620087da565b1b60066104405101908154179055600160fd1b815417905562018146565b6102fc8111620182b65762018298600191620087c9565b1b60076104405101908154179055600160fe1b815417905562018146565b6103fc811115620182ca575b505062018146565b620182d7600191620087b8565b1b60086104405101908154179055600160ff1b81541790555f80620182c2565b63ffffffff81116200e9b65791620181058284610140979560207fc0150ebb43a9c2478aa9c69d27078da071ceafb70e2d822d7d39a533e04187289a989601525f5260126107805101602052620183556107405160405f20620169b9565b620180b3565b633f1ed2e160e21b5f526004526107405160245260445ffd5b6395d41f3f60e01b5f526104e05160045264ffffffffff60245260445ffd5b60019262017f6f565b620183a78162008010565b60018103620186b05750505f61046052620183e56105a05161056051610600516104e0516105405161052051610440516104a0516107805162019574565b61042091909152610c40516104c05261046086905294600a81036201842e5761ffff600261078051015460a81c16600361078051015490620018a56200eaba6104205162015923565b156201844c575b50505050610360526104c051906104605162017db1565b6201845b906104405162015933565b506201846a6104205162015923565b5f61042051125f146201869b576201848a90610740516107805162011bed565b620184a16200e7d985610780515460e81c620087a4565b90620184ec620184b28387620087ea565b91620184be836200c0bd565b620184cd846107805162010204565b6104a051546102c0526001600160501b036102c05160481c166200c1f5565b915f83126200ed68577f2a077a58d72570ce2b985a210c9ad672373eb9bcc337d1dc62b8b75dd644cf27946101c0946201852f60ff6102c05160401c1662008312565b6201856760ff6102c05160401c16156104e0516105205164ffffffffff6102c05160b81c1663ffffffff6102c05160981c166201b0fd565b6102a0526102c0519093915060401c60ff166201868357620185906104e051610780516201ab6e565b620185c961ffff600261078051015460a81c16439085896102a0519260ff6102c05160401c16906107405190601161078051016201aef9565b61ffff600261078051015460a81c1695604051968752610740516020880152620185fc60ff6102c05160401c1662008312565b60ff6102c05160401c1660408801526106005160608801526001600160501b036102c05160481c16608088015260a087015260c086015260e08501526105a05161010085015261012084015264ffffffffff6102c05160b81c166101408401526102a0516101608401526101808301526101a0820152a16007610460525f80808062018435565b620186956104e051610780516201ab4d565b62018590565b620186aa9061078051620101e8565b6201848a565b600390620186be8162008010565b03620189b257505f6103a052620186fc6105a05161056051610600516104e051610480516105405161052051610440516104a0516107805162019293565b61038093909352610b4051610280526103e0949094526103c0859052610b20516103a0869052949193909291600a036201875a5761ffff600261078051015460a81c16600361078051015490620018a56200eaba6103805162015923565b6103c051156201877c575b50505050610360526103e051906103a05162017db1565b7f01a0596385c75b269e896ca6468a2be2edc8b2b5459f4e25ca0a75944390a10c93620187de6101c094620187b46103805162015923565b5f61038051125f146201899d57620187d490610740516107805162011bed565b6104405162015933565b50620187f66200e7d987610780515460e81c620087a4565b90620188038288620087ea565b926201880f846200c0bd565b6201881e836107805162010204565b64ffffffffff6104a051549560ff8760401c16966201883d8862008312565b876201897157506201885c826104a0515460b81c1661078051620159b0565b6201886e61028051610780516201ab4d565b6104a051549062018883816103e05162008d7d565b620188c161ffff600261078051015460a81c168a155f146201896a5760015b439184610280519261052051926107405190601161078051016201aef9565b610780516002015460a81c61ffff1698620189635760015b604051998a526107405160208b0152620188f38162008312565b60408a01526106005160608a01526001600160501b038360481c1660808a015260a089015260c08801526105205160e088015260b81c16610100860152610280516101208601526101408501526101608401526101808301526101a0820152a160076103a0525f80808062018765565b5f620188d9565b5f620188a2565b82620189859160b81c16610780516201596a565b6201899761028051610780516201ab6e565b6201886e565b620189ac9061078051620101e8565b620187d4565b915050620189d7610600516104e05161054051610480516104a051610780516201919d565b61034094909452509394939192909185600a810362018a4a5761078051600281015460039091015460405163063c641b60e41b81526103405160a89390931c61ffff1660048201526001600160501b03808316602483015260509290921c90911660448201526064810191909152608490fd5b1562018a60575b50505091610340519062017db1565b909192945062018a7b61034051610740516107805162011bed565b62018a8d61034051610440516200b49e565b60ff6104a0515460401c169162018aa48362008312565b8262018c405762018abc6104e05161078051620159b0565b851562018b6f57509060c0917f599b5f439ed4daf1f28ae8638e5439d3982e8001fb26dd8f70021b38672eb26f9362018aff610740516011610780510162013af6565b62018b1f61ffff600261078051015460a81c166005610440510162013c02565b61ffff600261078051015460a81c169260405193845261074051602085015262018b498162008312565b6040840152610480516060840152608083015260a0820152a15b6007915f808062018a51565b907fcd4a9f7ae1cc250eaa0be6bdb30d07efaf0faafb4ff0e76d8fe09a8373e43f859364ffffffffff6101209462018bb06104a05154956104a05162018ded565b62018bc26104e0516104a05162015a30565b8161ffff600261078051015460a81c16956104a051549260405197885261074051602089015262018bf38162008312565b60408801526001600160501b038160481c1660608801526001600160501b038360481c16608088015260b81c1660a086015260b81c1660c084015260e0830152610100820152a162018b63565b62018c526104e051610780516201596a565b62018abc565b6104e0515f036104e05162003ed35762018c92906200f34d6107805154610600519260ff808360b81c169260b01c16906105405162011b34565b5062017d5a565b505f62017d54565b5f9062017ca2565b50610540516104805262017c78565b806105205262017c43565b6107805161062051600191909101805467ffffffffffffffff191663ffffffff92909216919091174260201b63ffffffff60201b1617905562017bc1565b6107c05161062052610680516105e05262017b5b565b506107005115156201713c565b506101e051151562017135565b62017bb7565b506106c0518062018d66575b80620170e457506106c051158015620170e457506107c0516107605111620170e4565b506107c051610760511062018d43565b506107c0511515620170ce565b6103e86106e05262017081565b6103e89150115f6201707a565b5061ffff600261078051015460781c16610560526201704b565b9062018de697949693959291610c4052610c6052610c8052610bc052610c2052610ba0525f610b80526201b1b7565b610b805190565b6001600160501b03620159f9620086969382845460481c1662010ed2565b91905f62018e198262015923565b91131562018e405762010f75818462008d7d565b6001600160501b03841162010f89575050565b62018e4c8184620087ea565b9262018e2d565b91909162018e618362010513565b1562018e6f57505050600290565b5464ffffffffff8160b81c169283155f1462018e8d57505050505f90565b62018e989062010541565b1562018eda5760ff5f915b60401c1662018eb28262008312565b62018ebd8162008312565b0362018eca575050600190565b1162018ed557600290565b600390565b60ff60019162018ea3565b95989492919796909362018ef98962010513565b62018fd25762018f2460ff9a62018f459386938a548e8160b01c169e8f9160b81c169586926201aa23565b9b91959094859962018f37889d62010541565b1562018fc9575f906201aa77565b9190988297838b158062018fbf575b62018f9a575b5050508862018f90575050506001600160501b0390541662018f828362005c9b868862008d7d565b1162018f8a57565b60019450565b9196509450925050565b62018fa5926201aaf6565b1562018fb5575b5f808362018f5a565b600e985062018fac565b505f811362018f54565b6001906201aa77565b50600698505f975087965086955050505050565b9794919593909692505f9762018ffd5f9762010513565b6201904157906201902194939291549160ff808460b81c169360b01c16916201aa23565b50919062018f828362005c9b866001600160501b03859954169462008d7d565b5050505050925050506006905f905f905f90565b9062ffffff811162019090576effffff00000000000000000000000082549160601b16906effffff0000000000000000000000001916179055565b6395d41f3f60e01b5f5260045262ffffff60245260445ffd5b9062ffffff811162019090576bffffff00000000000000000082549160481b16906bffffff0000000000000000001916179055565b9062ffffff811162019090577fffffffffffffffffffffff000000ffffffffffffffffffffffffffffffffffff74ffffff00000000000000000000000000000000000083549260901b169116179055565b9062ffffff8111620190905771ffffff00000000000000000000000000000082549160781b169071ffffff0000000000000000000000000000001916179055565b906001811b905f52600182016020525f1960405f2054145f146201919657198154169055565b8154179055565b9394929095915f965492620191ca876001600160501b038660481c1664ffffffffff8760b81c1662015902565b95909460ff8799620192098a899783825491868360b01c1696879360b81c1697889463ffffffff8260981c169260ff8360e01c9360401c16916200bf55565b98919a9099899a6201921d819d846200c1f5565b9a5f8c126201927557505050509062019239949392916201a9ed565b505092836001600160501b036201925e6003849a015482808260501c16911662011bcc565b1682116201926a575050565b600a99509096509250565b9c509c509c509c50505050505092505050600c94935f9392915f9190565b989796959498610ca052610c8052610c6052610c4052610c2052610ba052610bc052610be052610b80525f610b60525f610b00525f610b40525f610b2052610c805154610c00526201932e610ca051549160ff8360b81c169060ff8460b01c169064ffffffffff610c005160b81c169063ffffffff610c005160981c1690610c005160e01c9060ff610c005160401c1690610ca0516200bf55565b9283929192916201935084916001600160501b03610c005160481c166200c1f5565b5f8113156201956c57620193648162015923565b945b85610b60526201938764ffffffffff610c005160b81c16610ba051620087ea565b610b4052620193b3610bc051610be05160ff8760b81c1660ff8860b01c16610b4051610c20516201aa23565b9790919282610b2052839962019436620193e6610bc05160ff8b60b81c1660ff8c60b01c16610ba051610c20516201a9ed565b50509889610b00526201940260ff610c005160401c1662008312565b610c005160401c60ff16620195655760015b60ff808360b81c169260b01c1690610b405190610c405190610ca0516201aa77565b949098859b8a15806201955b575b62019532575b50896201950a5750505050505050620194686201946f91866200c223565b866200c1f5565b9262019483610b205162011124866200c783565b925f841280620194e9575b156201949a5750600596565b965f851280620194b2575b620194ac57565b600a9750565b50620194be8562015923565b6001600160501b03620194e16003610ca051015482808260501c16911662011bcc565b1610620194a5565b50620194f58462015923565b6001600160501b03610c60515416106201948e565b610b6094909452610b0093909352610b209290925295999298509096505f9550859493509150565b620195439087610b8051916201aaf6565b1562019551575b5f6201944a565b600e99506201954a565b505f871362019444565b5f62019414565b5f9462019366565b9185999294620196859997989695949294610ca0525f610c40525f97620196b2620195b98b5f9a5f9a610ca051549660ff8860b81c169160ff8960b01c16916201aa23565b509c909b8d988d610c405254610c80526201960e6201960663ffffffff610c805160981c16926200f34d60ff8960b81c1660ff8a60b01c1664ffffffffff610c805160b81c168762011b34565b809e62008d7d565b9e5f610c00526201964f60ff8760b81c1660ff8860b01c1664ffffffffff610c805160b81c16610c805160e01c60ff610c805160401c16610ca051620110b4565b976201966460ff610c805160401c1662008312565b60ff610c805160401c16159264ffffffffff610c805160b81c16906201b0fd565b909291610c60529160ff8560b81c16908360ff8760b01c169160ff610c805160401c16610ca0516201aa77565b90610c20529a610c2051610c0052610c20511580620198b4575b62019818575b5050505087988298610c00519b610c005115620196f0575050505050565b90919650620197229398506201970b9297509a939a6200c1f5565b6001600160501b03610c805160481c16906200c223565b946201972e866200c783565b5f821215620197e857620197549162019747916200c1f5565b935b62012476856200c783565b935f85129081620197c8575b50156201977657506003965f808080806200c139565b965f83128062019791575b156200fd9557600a97506200fd95565b506201979d8362015923565b6001600160501b03620197c06003610ca051015482808260501c16911662011bcc565b161062019781565b90506001600160501b03620197dd8662015923565b915416105f62019760565b93905f8113620197ff575b50620197549062019749565b62019810906201975492976200c1f5565b9590620197f3565b610c805160481c6001600160501b03169080821115620198ab576201983d91620087ea565b808c1315620198a25762019852908c6200c223565b905b5f821315620196d257836201987f9160ff80620198859760b81c169260b01c1690610c605162011b34565b6201aaf6565b1562019896575b5f808080620196d2565b600e610c00526201988c565b505f9062019854565b50505f6201983d565b505f8c13620196cc565b9490506001600160501b03959250620198ed93979691975f95549160ff808460b81c169360b01c16916201aa23565b509290945416620198ff838662008d7d565b1162019915575b92915f915f915f915f915f9190565b50600362019906565b50506201993390969596949291939462013e7e565b928315620199d25790620199479162008d7d565b915b159081620199c9575b5015620199be575f93845b6201996757505050565b919390929091156201998a57505063587d2a9760e01b5f5260045260245260445ffd5b916040907f587d2a97a31a5894b097ff75ad27cad3e726d27474d08c959bcb5e51c5244d0a929482519182526020820152a1565b81811093846201995d565b90505f62019952565b509162019949565b93909492969591620199ec9062013e7e565b96871562019a6b579062019a009162008d7d565b955b15908162019a62575b501562019a57575f94855b62019a215750505050565b90620018a591604051948594635e7f12af60e11b8652600486019094939260609260808301968352602083015260408201520152565b808510948562019a16565b90505f62019a0b565b509562019a02565b908054928360281c62ffffff81169462019a8e86866200bfe0565b9062019d885750916006939161ffff8094600388019060ff8160381c169060301c916001821b81541790555f526004880160205260405f20600160ff83161b8154179055165f5260058601602052600160ff60405f2092161b81541790555f1462019d1b57835462ffffff808260781c169160901c169080158062019d12575b1562019ce357505062019b2285856201912f565b62019b2e8585620190de565b5460a81c169162019b44600785068095620087ea565b5f520160205260405f2091600160ff1984541617835580155f1462019b8b5750815464ffffffff00191662ffff00600883901b161760189190911b64ffff00000016179055565b6001810362019bc85750815468ffffffff0000000000191666ffff0000000000602883901b161760389190911b68ffff0000000000000016179055565b6002810362019c11575081546cffffffff00000000000000000019166affff000000000000000000604883901b161760589190911b6cffff000000000000000000000016179055565b6003810362019c505750815470ffffffff00000000000000000000000000191661ffff60681b606883901b161760789190911b61ffff60781b16179055565b6004810362019c855750815463ffffffff60881b191661ffff60881b608883901b161760989190911b61ffff60981b16179055565b60050362019cb857815463ffffffff60a81b191661ffff60a81b60a883901b161760b89190911b61ffff60b81b16179055565b815463ffffffff60c81b191661ffff60c81b60c883901b161760d89190911b61ffff60d81b16179055565b86111562019cfe575062019cf885856201912f565b62019b2e565b85101562019b2e5762019cf88585620190de565b50811562019b0e565b835462ffffff808260481c169160601c169080158062019d7f575b1562019d5657505062019d4a8585620190a9565b62019cf8858562019055565b86111562019d6b575062019cf88585620190a9565b85101562019cf85762019cf8858562019055565b50811562019d36565b61ffff935062008696969492508062019dcf8562019dea9481945f5260078a0160205260a81c1660405f209061ffff60c81b1961ffff60c81b83549260c81b169116179055565b835461ffff60b81b1916911660b81b61ffff60b81b16178255565b5460a81c169162016a32565b9190916001600160501b03831162011d5b576001600160501b036200869692931669ffffffffffffffffffff60901b1969ffffffffffffffffffff60901b83549260901b169116179055565b919062019e6162008696916001600160501b03855460501c1662010f67565b835469ffffffffffffffffffff60501b1916605082901b69ffffffffffffffffffff60501b1617909355565b61ffff1661ffff811462003ed35760010190565b91909394925f9482156201a92d5762019eba8262013e7e565b9262019ec68362008010565b82159788156201a915575b61ffff938483166303ff00008560101b16175f526002870160205263ffffffff62019eff60405f2062008e76565b51166201a8ef5785156201a8e8575f5b86156201a8e0575f905b62019f2362008ddc565b506303fcffff808887166303ff00008960101b1617116201a8bc57506001600160501b0381116201a89f5764ffffffffff82116201a8835762019f668362010513565b156201a86e57806201a84a576001600160501b03905b64ffffffffff6040519362019f918562008471565b8988166303ff00008a60101b161785525f60208601525f6040860152606085019562019fbd8162008010565b86521660808401521660a0820152875460d01c63ffffffff166201a28857928798999a8686946201a1336201a150956001600160501b0360a060809a6201a2159e9f6002906201a03764ffffffffff9f6303ff00008b8e6201a029828216848660101b16178762013d53565b169160101b16178262013df1565b8c6303ff00008a8d169160101b16175f520160205260405f209363ffffffff808351161663ffffffff198654161785556201a09763ffffffff602084015116869063ffffffff60201b82549160201b169063ffffffff60201b1916179055565b604082810151865463ffffffff60401b1916911b63ffffffff60401b16178555516201a0c38162008010565b6201a0ce8162008010565b8454828e015165ffffffffffff60601b1990911660609290921b60ff60601b1691909117908e1660681b64ffffffffff60681b161784555b0151825469ffffffffffffffffffff60901b1916911660901b69ffffffffffffffffffff60901b16179055565b8a156201a28157505f925b166303ff00008560101b16176201ae77565b905f52600387016020526201a1ce60405f209463ffffffff808451161663ffffffff198754161786556201a1a963ffffffff602085015116879063ffffffff60201b82549160201b169063ffffffff60201b1916179055565b604083810151875469ffff000000000000000019169216901b61ffff60401b16178555565b606081015184546aff00000000000000000000191690151560501b60ff60501b161784550151825464ffffffffff60581b1916911660581b64ffffffffff60581b16179055565b6201a230575b62008696905b6200ff80815460f01c62019e8d565b9150620086966201a24f5f6001600160501b03855460501c1662010f67565b835469ffffffffffffffffffff60501b1916605082901b69ffffffffffffffffffff60501b161784559290506201a21b565b926201a13e565b9291906003880193855f528460205260405f20805463ffffffff8116155f146201a4e65750509288999a9b87608096946201a3f16201a428956001600160501b0360a06201a47d9e9f9a60028c64ffffffffff9f9d8e6303ff00008b8e63ffffffff6201a30d955460d01c165f52868601602052169160101b161760405f2062013e4e565b63ffffffff815460d01c1660408401528d6303ff00008a8d169160101b16175f520160205260405f209363ffffffff808351161663ffffffff198654161785556201a37d63ffffffff602084015116869063ffffffff60201b82549160201b169063ffffffff60201b1916179055565b604082810151865463ffffffff60401b1916911b63ffffffff60401b16178555516201a3a98162008010565b6201a3b48162008010565b8454828f015165ffffffffffff60601b1990911660609290921b60ff60601b1691909117908f1660681b64ffffffffff60681b161784556201a106565b6201a40b8d8386166303ff00008a60101b16179062013df1565b8b156201a4df57505f925b166303ff00008660101b16176201ae77565b915f526020526201a1ce60405f209463ffffffff808451161663ffffffff198754161786556201a1a963ffffffff602085015116879063ffffffff60201b82549160201b169063ffffffff60201b1916179055565b6201a48e575b62008696906201a221565b9150620086966201a4ad5f6001600160501b03855460501c1662010f67565b835469ffffffffffffffffffff60501b1916605082901b69ffffffffffffffffffff60501b161784559290506201a483565b926201a416565b6201a65f9497965063ffffffff919995926201a6428a9e9a9560028e6201a53f87602097881c16805f52838301885260405f20906040880152888154891c16888801528d6303ff00008c8c169160101b16179062013e4e565b868686015116806201a81f575b508888166303ff00008d60101b16175f5201845260405f209085808551161686198354161782556201a59e868686015116839063ffffffff60201b82549160201b169063ffffffff60201b1916179055565b604084810151835463ffffffff60401b191690881690911b63ffffffff60401b16178255516201a5ce8162008010565b6201a5d98162008010565b8154608085015165ffffffffffff60601b1990911660609290921b60ff60601b169190911760689190911b64ffffffffff60681b1617815560a0830151815469ffffffffffffffffffff60901b191660909190911b69ffffffffffffffffffff60901b16179055565b015116156201a800575b166303ff00008460101b16178662013e4e565b156201a6ea5750505062008696929394506201a6e4906201a6c96201a6925f6001600160501b03865460501c1662010f67565b845469ffffffffffffffffffff60501b1916605082901b69ffffffffffffffffffff60501b16178555965b825460401c1662019e8d565b61ffff60401b82549160401b169061ffff60401b1916179055565b6201a221565b839692965460ff8160501c16908915158215151415806201a7ec575b6201a7835750505082916201a77d64ffffffffff6201a75c6201a6c9946201a74f620086969a9b9c6201a6e4999060ff60501b825491151560501b169060ff60501b1916179055565b82875460581c1662010fa9565b855464ffffffffff60581b1916911660581b64ffffffffff60581b16178455565b6201a6bd565b60a4935064ffffffffff8a9163ffffffff60018a015416935f146201a7e3575f925b156201a7da575f935b60405195634298a83160e01b87526004870152602486015260581c166044840152620154148162008312565b6001936201a7ae565b6001926201a7a5565b5064ffffffffff8160581c1615156201a706565b6201a8198282166303ff00008760101b16178a62013df1565b6201a64c565b5f5281810186526201a8438c6303ff00008b8b169160101b161760405f2062013dc2565b5f6201a54c565b63a9c0cecd60e01b5f52826201a8608162008010565b60045260245260445260645ffd5b816201a84a576001600160501b039062019f7c565b506395d41f3f60e01b5f5260045264ffffffffff60245260445ffd5b6395d41f3f60e01b5f526004526001600160501b0360245260445ffd5b866303ff000089886395d41f3f60e01b5f52169160101b161760045260245260445ffd5b829062019f19565b5f62019f0f565b505063ffffffff6001860154169163feefcc0b60e01b5f5260045260245260445260645ffd5b97506201a9228362008010565b600283149762019ed1565b63ffffffff600185015416906369bc91ef60e11b5f5260045260245260445ffd5b919290156201a9b357508151156201a964575090565b3b156201a96e5790565b60405162461bcd60e51b815260206004820152601d60248201527f416464726573733a2063616c6c20746f206e6f6e2d636f6e74726163740000006044820152606490fd5b8251909150156201a9c75750805190602001fd5b60405162461bcd60e51b815260206004820152908190620018a590602483019062007fcf565b906201a9fe93929195949562011b34565b9160648302908382046064148415171562003ed3576201aa1e9162013ac3565b915f91565b906201aa359392919695949662011b34565b9060648202908282046064148315171562003ed3576201aa559162013ac3565b925f90806201aa62575091565b6201aa7491506200e7d99083620087a4565b91565b94939291925f946201aa8a5f976200bf0a565b5050509182155f146201aaa35750505050505050600d91565b6201aad06201aade969594936201aac66201aad7946201548d949c9a9c620118c0565b93908092620087a4565b93620087a4565b92620155b8565b5f81126201aae95750565b620085ea9192506200c783565b9091612710830292808404612710149015171562003ed3576201ab1991620087a4565b101590565b906201ab2a8162008312565b68ff000000000000000082549160401b169068ff00000000000000001916179055565b9064ffffffffff6201598b60026200869694019282845460281c1662010fa9565b64ffffffffff620159ca6002829301938285541662010fa9565b945f9485949080156201ac16575b156201abf357506200869663ffffffff9495966201abb584866200fcea565b835490620101c66201abe061ffff8460a81c16809981951698895f5260d560205260405f206200fe02565b95620101be60ff825460201c1662010541565b62008696955063ffffffff94506201ac0d908385620147f1565b9590966201abb5565b5080156201ab96565b9293919082156201ae205762ffffff80855460601c165b16906201ac458487846201b142565b156201ae13576201ac5782866200bfe0565b50915f5b6103e88110806201ae09575b156201adf557835f526007870160205260405f209363ffffffff855416156201addf57506201ac969062008e67565b83546201acac63ffffffff8260781c166200fcac565b156201adce57867fb95e250f9f017dcb1bb1806916771df0c04a269e5f46d5db7519382a0f7bb47760e08a6201ad2b61ffff6201ad6b9660c81c16996201acf58c828c620147f1565b929093826201ad228d82549063ffffffff82165f5260d560205261ffff60405f209260a81c16916200fe02565b98159162013f45565b549161ffff8360a81c169563ffffffff604051948c865216602085015286604085015260608401528b608084015260a083015260c0820152a188620144b0565b836201ac5b5792505083156201adbd5762ffffff80865460601c165b166201ad958588836201b142565b156201adaf576201ada781876200bfe0565b50926201ac5b565b955050505050505f915f9190565b62ffffff80865460781c166201ad87565b5050955050505050506001915f9190565b8363cf25731d60e01b5f5260045260245260445ffd5b935094505093506103e89150101591151592565b508315156201ac67565b5093505050505f915f9190565b62ffffff80855460781c166201ac36565b906201ae3d826201b168565b91939091845f1981146201ae70575090829162008696935f5260018201602052600160405f20911b815417905562019170565b9450505050565b9190915f60806040516201ae8b8162008537565b82815282602082015282604082015282606082015201526303fcffff80821162013dac575064ffffffffff82116201a883576040519264ffffffffff929163ffffffff166201aeda8562008537565b8085526020850152600160408501521515606084015216608082015290565b90959796949392916001820191815f528260205260405f209764ffffffffff895460b81c16156201b0e657506201af8295936201af639363ffffffff9693838b6201af5c9554938a8560201c16908185036201b031575b5050925050506201ab1e565b8662011d03565b845463ffffffff60981b1916911660981b63ffffffff60981b16178355565b64ffffffffff84116201b0155763ffffffff906201afc964ffffffffff62008696959616849064ffffffffff60b81b1964ffffffffff60b81b83549260b81b169116179055565b82547bffffffffffffffffffffffffffffffffffffffffffffffffffffffff16911660e01b7fffffffff0000000000000000000000000000000000000000000000000000000016179055565b836395d41f3f60e01b5f5260045264ffffffffff60245260445ffd5b6201b09c95836201b08f94548e808216931688145f146201b0a85750506201b05a8186620169b9565b5f528060205260405f2063ffffffff60201b1981541690555b815f526020526201b0888460405f20620169b9565b8d620169dd565b88198c54168c55620169dd565b5f80808b81806201af50565b918e6201b0e09360201c165f52836020526201b0c88160405f20620169b9565b5f52826020528d60405f20915460201c1690620169dd565b6201b073565b90506334a4033d60e11b5f5260045260245260445ffd5b92620045319062011b6f6201b11994936201548d838262008d7d565b916201b132826201b12b818662013ac3565b9462008d3c565b90156201b13e57508192565b9192565b909291925f93826201b15357505050565b9293509091156201b16357101590565b111590565b805480156201b1ac576201b17e600191620125b6565b91825f52016020526201b1a360405f2054196201b19d81151562012438565b620125b6565b808260081b1792565b505f19915f91508190565b6201b2a99291604051916201b1cc836200851b565b5f83525f602084015282610b80526201b1e8610c205162010541565b610ca0526201b2676002610c4051015461ffff6201b2436201b23460ff8460e01c1660ff8560d81c1664ffffffffff8660501c1664ffffffffff8716610bc051878960b81c166200d5f1565b610160610c8051013562011b8b565b9160881c1690610bc051906080610c8051013590610c20519086610c405162016bc3565b9194909793610c009a939a52610b605295929795610ba0519087610c0051610b6051610bc0518a6080610c80510135610ca051610c20518d610c405162016f73565b156201c5c3575060c954610be0819052613fff610b4081905260d59190911c16612710808202829004149015171562003ed357612710610b4051610be05160d51c1602906201b2fb610c205162013e7e565b6201c59f575b806201c58d575b50815f5260d560205260405f2090815460f01c5f610b005261ffff610b0052610b0051146201c50557906201b34291610ba051916200d296565b6201c3ef57610b00516002610c4051015460a81c165f610ac0525f610ae0525f610ac0525f610ae052815f5260d560205260405f20610b2052610b2051546001600160501b038160501c166001600160501b03821611806201c4d0575b156201c3f75750506201b3c5612710610b4051610be05160d51c1602610b20516200d4fd565b6201b3df612710610b4051610be05160d51c16026200b393565b6201b3f9612710610b4051610be05160d51c16026200c783565b610ae0526001610ac0525b6001600160501b03610b20515416610aa052610ac051156201c3ef57610b00516002610c4051015460a81c16916201b43b62008810565b506201b44d6001610c6051016201ae31565b610a808190525f19146201c3dc576201b4986201b476610b0051610c60515460201c1662019e8d565b610c60519065ffff0000000082549160201b169065ffff000000001916179055565b6201b4a262009287565b506001821080156201c3ce575b6200a7b257801580156201c3c1575b6201c3a8576001610bc0511080156201c396575b6201c37257610b4051610be05160d51c8116116201c34e5763ffffffff60c0610c80510135116201c32c57612710610160610c80510135116201c30b57610b00516101c0610c80510135116201c2e9576201b7246040516201b53481620084c6565b63ffffffff841681526201b54b610c205162008010565b610c2051602082015262ffffff8316604082015264ffffffffff610bc051166060820152610b4051610be05160d51c16608082015263ffffffff60c0610c805101351660a0820152610b0051610160610c805101351660c0820152610b0051610a80511660e08201525f6101008201525f610120820152610b00516101c0610c8051013516610140820152610a80515f526007610c60510160205260405f209063ffffffff808251161663ffffffff1983541617825560208101516201b6118162008010565b6201b61c8162008010565b82546040838101516060850151610b0051608087015160a088015160c089015160e08a01516101008b01516101208c0151610140909c015161ffff60d81b90871660d81b169b861660c81b61ffff60c81b1690861660b81b61ffff60b81b1691861660a81b61ffff60a81b1692861660981b61ffff60981b1660789490941b63ffffffff60781b169490951660681b61ffff60681b169590971b64ffffffffff60401b1660289690961b67ffffff00000000001660209990991b64ff00000000167fffffff00000000000000000000000000000000000000000000000000ffffffff909816979097179790971793909317919091179190911793909317919091171717179055565b610a80515f526007610c6051016020526201b74a610ca05160405f20610c605162019a73565b604051926201b759846200851b565b8352610a8051602084015282610b8052610a8051156201c28a57505f815f5260d560205260405f20906201b790610c205162013e7e565b156201c22d57506002610c405101549560208401515f9781156201c203576201b7bc610c205162013e7e565b916201b7cb610c205162008010565b610c20511580156201c1e7575b610b005182166303ff0000609885901c16175f908152600287016020526040902063ffffffff906201b80a9062008e76565b51166201c1b95783156201c1b257845b84156201c1aa575f905b6201b82e62008ddc565b506303fcffff80610b005186166303ff000063ffff00006cffffffffffffffffffffff00008a60981c16161617116201c16e57506001600160501b0381116201a89f5764ffffffffff82116201a883576201b88c610c205162010513565b156201c15957806201c12e576001600160501b03905b64ffffffffff604051936201b8b78562008471565b610b005187166303ff000063ffff00006cffffffffffffffffffffff00008b60981c1616161785525f60208601525f60408601526201b8f9610c205162008010565b610c205160608601521660808401521660a0820152865460d01c63ffffffff166201bc7b5760a0999896936201bac860209997947f5d5d31f82cb7d7cf1b09787031cd282c6accc62145d50de980d298bb340a9aba9d9e97946201baa76201bb59956201b98c610b005185166303ff000063ffff00006cffffffffffffffffffffff00008a60981c161616178b62013d53565b610b00516201b9aa9085166303ff0000609889901c16178b62013df1565b610b005184166303ff000063ffff00006cffffffffffffffffffffff00008960981c161616175f5260028a018e528f6001600160501b039060405f209263ffffffff808251161663ffffffff19855416178455602063ffffffff6201ba2e9183015116859063ffffffff60201b82549160201b169063ffffffff60201b1916179055565b604081810151855463ffffffff60401b1916911b63ffffffff60401b1617845560608101516201ba5e8162008010565b6201ba698162008010565b8454608083015165ffffffffffff60601b1990911660609290921b60ff60601b169190911760689190911b64ffffffffff60681b161784556201a106565b85156201bc73575f915b610b0051166303ff0000609886901c16176201ae77565b90610b00519060a81c165f5260038501895264ffffffffff608060405f209263ffffffff808251161663ffffffff198554161784556201bb2c63ffffffff8d83015116859063ffffffff60201b82549160201b169063ffffffff60201b1916179055565b610b0051604082810151865469ffff000000000000000019169216901b61ffff60401b161784556201a1ce565b6201bc58575b506201bb74906200ff80815460f01c62019e8d565b935b600a610b6051146201bbb1575b5050015190604051918252610bc05160208301526040820152610ae0516060820152610aa0516080820152a1565b7fb971bdbd8f44fbf3ba501ee287c2533eb61b09097d638c664566aac00bbb3e6591610120916001600160501b03610b00516002610c4051015460a81c16926003610c4051015490604051948552888501526201bc11610c205162008010565b610c205160408501526080610c805101356060850152610bc05160808501528181168a85015260501c1660c0830152610c005160e0830152610100820152a15f806201bb83565b8192506201bc6b906201bb749262019e42565b91906201bb5f565b5f916201bab1565b610b00518460a81c165f526003870160205260405f20805463ffffffff8116155f146201be0857505086936201bac860209997947f5d5d31f82cb7d7cf1b09787031cd282c6accc62145d50de980d298bb340a9aba9d9e97946201bdbd6201bddb9560a09f9e9c63ffffffff905460d01c165f5260028a018e526201bd29610b005185166303ff000063ffff00006cffffffffffffffffffffff00008a60981c1616161760405f2062013e4e565b63ffffffff8a5460d01c166040820152610b005184166303ff000063ffff00006cffffffffffffffffffffff00008960981c161616175f5260028a018e528f6001600160501b039060405f209263ffffffff808251161663ffffffff19855416178455602063ffffffff6201ba2e9183015116859063ffffffff60201b82549160201b169063ffffffff60201b1916179055565b610b00516201baa79083166303ff0000609887901c16178962013df1565b6201bded575b506201bb74906201a221565b8192506201be00906201bb749262019e42565b91906201bde1565b60206201bf27938a9f98959796939a6002906201be7263ffffffff8096861c16805f52838301865260405f20906040860152868154871c16868601528a6303ff000063ffff00006cffffffffffffffffffffff0000610b00518c169360981c161616179062013e4e565b848484015116806201c0ec575b50610b005186166303ff000060988b901c16175f9081529101835260409020815181548385015163ffffffff60201b90871660201b1691861686199091161767ffffffff0000000019161781556201bf0590604083810151825463ffffffff60401b191690871690911b63ffffffff60401b1617815560608301516201a5ce8162008010565b015116156201c0c8575b610b0051166303ff0000609885901c16178762013e4e565b156201bf85575050509160a09493916201bb74886201a6e46201bf6f6020977f5d5d31f82cb7d7cf1b09787031cd282c6accc62145d50de980d298bb340a9aba9b9c62019e42565b935b6201a6c9610b0051825460401c1662019e8d565b9091938093505460ff8160501c16908315158215151415806201c0b4575b6201c04457505050916201bb747f5d5d31f82cb7d7cf1b09787031cd282c6accc62145d50de980d298bb340a9aba97986201a6e4846201c00160a09a9997602099979060ff60501b825491151560501b169060ff60501b1916179055565b6201c03e64ffffffffff6201c01d5f82855460581c1662010fa9565b835464ffffffffff60581b1916911660581b64ffffffffff60581b16178255565b6201bf71565b9264ffffffffff60a49463ffffffff60018e015416935f146201c0ab575f925b156201c0a2575f935b60405195634298a83160e01b8752610b00519060a81c166004870152602486015260581c166044840152620154148162008312565b6001936201c06d565b6001926201c064565b5064ffffffffff8160581c1615156201bfa3565b610b00516201c0e69082166303ff0000609887901c16178e62013df1565b6201bf0f565b5f5281810184526201c127610b005187166303ff000063ffff00006cffffffffffffffffffffff00008d60981c1616161760405f2062013dc2565b5f6201be7f565b63a9c0cecd60e01b5f52610c20516201c1479062008010565b610c205160045260245260445260645ffd5b816201c12e576001600160501b03906201b8a2565b856303ff000063ffff00006cffffffffffffffffffffff0000886395d41f3f60e01b5f52610b0051169360981c1616161760045260245260445ffd5b5f906201b824565b5f6201b81a565b5063ffffffff6001860154169163feefcc0b60e01b5f52610b00519060a81c1660045260245260445260645ffd5b506201c1f6610c205162008010565b6002610c2051146201b7d8565b63ffffffff600185015416906369bc91ef60e11b5f52610b00519060a81c1660045260245260445ffd5b92907f5d5d31f82cb7d7cf1b09787031cd282c6accc62145d50de980d298bb340a9aba9596509160a0946201c283602094610b00516002610c4051015460a81c16610bc05191610c205191888801519162019ea1565b506201bb76565b60c49250610b00516002610c4051015460a81c169160405192635f4d015360e01b8452600484015260248301526201c2c5610c205162008010565b610c205160448301526064820152610bc0516084820152610ca051151560a4820152fd5b6395d41f3f60e01b5f526101c0610c80510135600452610b005160245260445ffd5b6395d41f3f60e01b5f52610160610c8051013560045261271060245260445ffd5b6395d41f3f60e01b5f5260c0610c8051013560045263ffffffff60245260445ffd5b6395d41f3f60e01b5f908152610b4051610be05160d51c8116600452602452604490fd5b630c8f0a6960e41b5f52610bc051600452600160245264ffffffffff60445260645ffd5b5064ffffffffff610bc051116201b4d2565b63c6ebaaa160e01b5f5260045262ffffff60245260445ffd5b5062ffffff81116201b4be565b5063ffffffff82116201b4af565b826313d2887b60e01b5f5260045260245ffd5b509192505050565b610ba0516201c4765760408051610b4051610be051948252602082018690526001600160501b038085169383019390935260509390931c909116606082015260d59290921c166127100260808201527fe45a99fff28c6d15925d1e2d85178b939f8809e353ffdd55bc03edb410aa24de908060a081010390a16201b404565b60405163e45a99ff60e01b8152610b4051610be051600483019490945260248201949094526001600160501b03828116604483015260509290921c909116606482015261271060d59290921c90921602608482015260a490fd5b50612710610b4051610be05160d51c16026001600160501b036201c4fc818460501c168285166200d20f565b1610156201b39f565b50509293505050610ba0516201c568577fbd608c77710b601b3c0b0f34d13295beb58c48631119b910d8d6067ad650d5b890610b00516002610c4051015460a81c166200a8d9604051928392836020909392919361ffff60408201951681520152565b610b00516002610c4051015460a81c1663bd608c7760e01b5f5260045260245260445ffd5b6201c5989162008d7d565b5f6201b308565b90506201c5bc86612710610b4051610be05160d51c160262008d7d565b906201b301565b94955050505050610b805256fea2646970667358221220a18a0b7addf47f20fd120521170a3acd22f3ac0ce8f6075d998e1f0b8c976faa64736f6c63430008220033",
    "linkReferences": {}
  },
  "methodIdentifiers": {
    "acceptOwnership()": "79ba5097",
    "addContract(string,string,uint256,uint256,uint256,uint256,uint256,uint256,uint256,uint256)": "92f54b3a",
    "addressBlocked(address)": "3bf45a2f",
    "adminCancelOrders((uint256,uint256)[])": "e548bb57",
    "allowOrderForwarding(bool)": "7962f910",
    "autoDeleverage((uint256,uint256,uint256[])[],bool)": "43559bbf",
    "buyLiquidations((uint256,uint256,uint256,uint256,uint256,uint256)[],bool)": "bbac6c95",
    "cancelDecreaseCollateralRequest(uint256)": "ebcf1656",
    "clearInitUnwindContract(uint256)": "075367f6",
    "clearOrderSlots(uint256,uint256[])": "d541abc1",
    "clearPrepareUnwindContract(uint256)": "b5cd004e",
    "clearPricePointerSlots(uint256,uint256[])": "20c801d2",
    "createAccount(uint256)": "cab13915",
    "declineDecreaseCollateralRequest(uint256,uint256,string)": "ecdff22e",
    "decreasePositionCollateral(uint256,uint256,uint32,uint16,uint8)": "5495086a",
    "depositCollateral(uint256)": "bad4a01f",
    "depositToProtocol(uint256)": "54056119",
    "execFwdPositionOps((uint256,uint256,(uint256,uint256,uint8,uint256,uint256,uint256,uint256,bool,bool,bool,uint256,uint256,uint256,uint256,uint256),bool,uint256,uint8,uint256,uint256)[])": "0f6795d9",
    "execFznAccountPosOps((uint256,(uint256,uint256,uint8,uint256,uint256,uint256,uint256,bool,bool,bool,uint256,uint256,uint256,uint256,uint256))[])": "768f6855",
    "execOrder((uint256,uint256,uint8,uint256,uint256,uint256,uint256,bool,bool,bool,uint256,uint256,uint256,uint256,uint256))": "4d8dc985",
    "execOrders((uint256,uint256,uint8,uint256,uint256,uint256,uint256,bool,bool,bool,uint256,uint256,uint256,uint256,uint256)[],bool)": "39435dac",
    "execPerpOps((uint256,uint256,uint8,uint32,int256,bool,bytes)[])": "5bf9264c",
    "forceClose(uint256,uint256,uint256[],bool)": "b216d0d2",
    "forceResetWithdrawRateLimit()": "bed97b71",
    "getAccountByAddr(address)": "12e8eb2c",
    "getAccountById(uint256)": "05aca141",
    "getExchangeInfo()": "8bc5b3c5",
    "getFundingInterval()": "0d3e87a7",
    "getFundingSumAtBlock(uint256,uint256)": "7dd7e759",
    "getLiquidationInfo(uint256)": "50ef5c35",
    "getMakerFee(uint256)": "1275d14c",
    "getMarginFractions(uint256,uint256)": "6825e9e5",
    "getMinAccountOpenCNS()": "dec92b69",
    "getMinimumPostCNS()": "9fffdfe2",
    "getMinimumSettleCNS()": "3a63dabe",
    "getNextPriceAboveWithOrders(uint256,uint256)": "9b170bd1",
    "getNextPriceBelowWithOrders(uint256,uint256)": "fb455f6b",
    "getOrder(uint256,uint256)": "5e1a3573",
    "getOrderIdIndex(uint256)": "38ecd885",
    "getOrderLocks(uint256)": "8c1c2cef",
    "getOrdersAtPriceLevel(uint256,uint256,uint256,uint256)": "4d3282b4",
    "getOwner()": "893d20e8",
    "getPermissionedCancelParams(uint256)": "396d7e47",
    "getPerpOrderLocks(uint256,uint256)": "2709b746",
    "getPerpetualInfo(uint256)": "00092cce",
    "getPosition(uint256,uint256)": "751de421",
    "getPositionIds(uint256)": "1973c619",
    "getPositions(uint256,uint256,uint256)": "4a9a4158",
    "getPriceLevelOrderIds(uint256,uint256)": "653a6bd7",
    "getProtocolBalanceCNS()": "b5fcf762",
    "getRecycleBalanceCNS()": "edb1314e",
    "getRecycleFeeCNS()": "16a483ea",
    "getTakerFee(uint256)": "4119f930",
    "getUnwindInfo(uint256)": "6728641b",
    "getVolumeAtBookPrice(uint256,uint256)": "fe37fe12",
    "getWithdrawAllowanceData(uint256)": "8bcf1b27",
    "increasePositionCollateral(uint256,uint256)": "f769f0d3",
    "initUnwindContract(uint256,uint256)": "a5e9c411",
    "initialize(address)": "c4d66de8",
    "initializeV2(uint256[],uint256[])": "d0b17de1",
    "isAdministrator(address)": "0a2eb301",
    "isHalted()": "c7ff1584",
    "isLiquidationBuyer(address)": "ae0d4442",
    "isPositionAdministrator(address)": "dbfbf7e8",
    "isPriceAdministrator(address)": "d8b44268",
    "isToleranceAdministrator(address)": "a87041d1",
    "liquidation((uint256,uint256,uint256,bool))": "bbf979ac",
    "liquidations((uint256,uint256,uint256,bool)[],bool)": "d3b8c49d",
    "numberOfAccounts()": "0f03e4c3",
    "owner()": "8da5cb5b",
    "pauseContract(uint256)": "c2852f38",
    "pauseContractByMonitor(uint256)": "ec4cba83",
    "pendingOwner()": "e30c3978",
    "prepareUnwindContract(uint256)": "e5631c9e",
    "proxiableUUID()": "52d1902d",
    "removeContract(uint256)": "7cca3b06",
    "renounceOwnership()": "715018a6",
    "requestDecreasePositionCollateral(uint256,uint256,bool)": "171a5b81",
    "setAddressBlockStatus(address[],bool)": "b1082486",
    "setAddressWhitelisted(address[],bool)": "be70473d",
    "setAdministrator(address,bool)": "87c95058",
    "setBuyToLiquidateBuyerRestriction(uint256,bool)": "32b9203b",
    "setBuyToLiquidateParams(uint256,uint256,uint256,uint256)": "5180d5a8",
    "setBuyToLiquidatePriceThreshold(uint256,uint256)": "45c8c924",
    "setContractPaused(uint256,bool)": "9e430eda",
    "setDcpBorrowThreshold(uint256,uint256)": "af37c07d",
    "setExchangeHalted(bool)": "58087a74",
    "setFeeParams(uint256,uint256)": "9d2ec188",
    "setFreezeStatus(address,uint8)": "182b01f2",
    "setFrozen(address,uint8)": "4b8344fb",
    "setFundingClampPct(uint256,uint256)": "16a06593",
    "setFundingSum(uint256,int256,uint32,bool,bool)": "9fc8afd7",
    "setFundingSumScalingExp(uint256,uint256)": "c0a44efc",
    "setIgnOracle(uint256,bool)": "69752159",
    "setInitialMarginFraction(uint256,uint256)": "e2e1cb57",
    "setLastForwardedDescId(uint256,uint256)": "ba53027d",
    "setLastForwardedDescIdAsOwner(uint256,uint256)": "eaadbbef",
    "setLastTriggeredDescId(uint256,uint256)": "1217be67",
    "setLastTriggeredDescIdAsOwner(uint256,uint256)": "a971b6d4",
    "setLinkDsVerifier(address)": "d360dd31",
    "setLiquidationBuyer(address,bool)": "7ddbdc2a",
    "setLiquidationParams(uint256,uint256,uint256)": "60ad17fd",
    "setMaintenanceMarginFraction(uint256,uint256)": "8c031164",
    "setMakerFee(uint256,uint256)": "e74e2c9b",
    "setMarginTol(uint256,uint256,uint256)": "79609c11",
    "setMaxOpenInterest(uint256,uint256)": "9a6d7630",
    "setMinAccountOpenAmount(uint256)": "d6f34bd6",
    "setMinPost(uint256)": "279289e9",
    "setMinSettle(uint256)": "f28b98f3",
    "setMinWithdrawLimit(uint256)": "4d574c56",
    "setMonitorAdministrator(address,bool)": "c6efcd43",
    "setOverCollatDescentThreshold(uint256,uint256)": "ed6760fe",
    "setPermissionedCancelParams(uint256,uint256,uint256)": "efb62904",
    "setPerpLinkDsFeedId(uint256,bytes32)": "03cfe83c",
    "setPositionAdministrator(address,bool)": "12014156",
    "setPriceAdministrator(address,bool)": "a9bd5cee",
    "setPriceMaxAge(uint256,uint256)": "0e517f41",
    "setPriceTolPer100K(uint256,uint256)": "7d45678e",
    "setPriceTolPer100KByOwner(uint256,uint256)": "b839a8c4",
    "setRecycleFee(uint256)": "be0783f5",
    "setTakerFee(uint256,uint256)": "6debf8fa",
    "setThousandthsTvlWRLS(uint256)": "d780ece8",
    "setToleranceAdministrator(address,bool)": "dd0a3e2b",
    "setUnityDescentThreshold(uint256,uint256)": "2f32509b",
    "setWhitelistingEnabled(bool)": "5f40c1f7",
    "setWithdrawBypass(address,bool)": "252c3594",
    "transferOwnership(address)": "f2fde38b",
    "triggerUnwindContract(uint256)": "0189a2b7",
    "unwindContract(uint256,uint256,bool)": "fb05acb7",
    "unwindContractByOwner(uint256,uint256,bool)": "ddac1cde",
    "updateMarkPricePNS(uint256,uint32)": "541b04e9",
    "updateMarkPricePNSByOwner(uint256,uint32)": "0a039fbd",
    "updateOraclePrice(uint256,bytes)": "8f3ffc85",
    "upgradeTo(address)": "3659cfe6",
    "upgradeToAndCall(address,bytes)": "4f1ef286",
    "whitelisted(address)": "d936547e",
    "whitelistingEnabled()": "5b0c29eb",
    "withdrawCollateral(uint256)": "6112fe2e",
    "withdrawFromProtocol(uint256)": "8a924640",
    "xferAcctToProtocol(uint256)": "61bd6f44",
    "xferPerpInsToProtocol(uint256,uint256)": "586d92ca",
    "xferProtocolToAcct(uint256,uint256)": "229c2492",
    "xferProtocolToPerp(uint256,uint256,bool)": "e68073c3",
    "xferProtocolToRecycleBal(uint256)": "1df87ade"
  },
  "id": 14
}