{
  "abi": [
    {
      "type": "constructor",
      "inputs": [],
      "stateMutability": "nonpayable"
    },
    {
      "type": "function",
      "name": "acceptOwnership",
      "inputs": [],
      "outputs": [],
      "stateMutability": "nonpayable"
    },
    {
      "type": "function",
      "name": "addContract",
      "inputs": [
        {
          "name": "name",
          "type": "string",
          "internalType": "string"
        },
        {
          "name": "symbol",
          "type": "string",
          "internalType": "string"
        },
        {
          "name": "perpId",
          "type": "uint256",
          "internalType": "uint256"
        },
        {
          "name": "basePricePNS",
          "type": "uint256",
          "internalType": "uint256"
        },
        {
          "name": "priceDecimals",
          "type": "uint256",
          "internalType": "uint256"
        },
        {
          "name": "lotDecimals",
          "type": "uint256",
          "internalType": "uint256"
        },
        {
          "name": "takerFeePer100K",
          "type": "uint256",
          "internalType": "uint256"
        },
        {
          "name": "makerFeePer100K",
          "type": "uint256",
          "internalType": "uint256"
        },
        {
          "name": "initMarginFracHdths",
          "type": "uint256",
          "internalType": "uint256"
        },
        {
          "name": "maintMarginFracHdths",
          "type": "uint256",
          "internalType": "uint256"
        }
      ],
      "outputs": [],
      "stateMutability": "nonpayable"
    },
    {
      "type": "function",
      "name": "addressBlocked",
      "inputs": [
        {
          "name": "",
          "type": "address",
          "internalType": "address"
        }
      ],
      "outputs": [
        {
          "name": "",
          "type": "bool",
          "internalType": "bool"
        }
      ],
      "stateMutability": "view"
    },
    {
      "type": "function",
      "name": "adminCancelOrders",
      "inputs": [
        {
          "name": "signatures",
          "type": "tuple[]",
          "internalType": "struct OrderSignature[]",
          "components": [
            {
              "name": "perpId",
              "type": "uint256",
              "internalType": "uint256"
            },
            {
              "name": "orderId",
              "type": "uint256",
              "internalType": "uint256"
            }
          ]
        }
      ],
      "outputs": [],
      "stateMutability": "nonpayable"
    },
    {
      "type": "function",
      "name": "allowOrderForwarding",
      "inputs": [
        {
          "name": "allow",
          "type": "bool",
          "internalType": "bool"
        }
      ],
      "outputs": [],
      "stateMutability": "nonpayable"
    },
    {
      "type": "function",
      "name": "autoDeleverage",
      "inputs": [
        {
          "name": "adlDescs",
          "type": "tuple[]",
          "internalType": "struct AdlDesc[]",
          "components": [
            {
              "name": "perpId",
              "type": "uint256",
              "internalType": "uint256"
            },
            {
              "name": "posAccountId",
              "type": "uint256",
              "internalType": "uint256"
            },
            {
              "name": "sortedPositionIds",
              "type": "uint256[]",
              "internalType": "uint256[]"
            }
          ]
        },
        {
          "name": "revertOnFail",
          "type": "bool",
          "internalType": "bool"
        }
      ],
      "outputs": [],
      "stateMutability": "nonpayable"
    },
    {
      "type": "function",
      "name": "buyLiquidations",
      "inputs": [
        {
          "name": "liquidationDescs",
          "type": "tuple[]",
          "internalType": "struct BuyToLiquidateDesc[]",
          "components": [
            {
              "name": "perpId",
              "type": "uint256",
              "internalType": "uint256"
            },
            {
              "name": "posAccountId",
              "type": "uint256",
              "internalType": "uint256"
            },
            {
              "name": "lotLNS",
              "type": "uint256",
              "internalType": "uint256"
            },
            {
              "name": "leverageHdths",
              "type": "uint256",
              "internalType": "uint256"
            },
            {
              "name": "limitPricePNS",
              "type": "uint256",
              "internalType": "uint256"
            },
            {
              "name": "maxNegPnlCollatBPS",
              "type": "uint256",
              "internalType": "uint256"
            }
          ]
        },
        {
          "name": "revertOnFail",
          "type": "bool",
          "internalType": "bool"
        }
      ],
      "outputs": [],
      "stateMutability": "nonpayable"
    },
    {
      "type": "function",
      "name": "cancelDecreaseCollateralRequest",
      "inputs": [
        {
          "name": "perpId",
          "type": "uint256",
          "internalType": "uint256"
        }
      ],
      "outputs": [],
      "stateMutability": "nonpayable"
    },
    {
      "type": "function",
      "name": "clearInitUnwindContract",
      "inputs": [
        {
          "name": "perpId",
          "type": "uint256",
          "internalType": "uint256"
        }
      ],
      "outputs": [],
      "stateMutability": "nonpayable"
    },
    {
      "type": "function",
      "name": "clearOrderSlots",
      "inputs": [
        {
          "name": "perpId",
          "type": "uint256",
          "internalType": "uint256"
        },
        {
          "name": "orderIds",
          "type": "uint256[]",
          "internalType": "uint256[]"
        }
      ],
      "outputs": [],
      "stateMutability": "nonpayable"
    },
    {
      "type": "function",
      "name": "clearPrepareUnwindContract",
      "inputs": [
        {
          "name": "perpId",
          "type": "uint256",
          "internalType": "uint256"
        }
      ],
      "outputs": [],
      "stateMutability": "nonpayable"
    },
    {
      "type": "function",
      "name": "clearPricePointerSlots",
      "inputs": [
        {
          "name": "perpId",
          "type": "uint256",
          "internalType": "uint256"
        },
        {
          "name": "pricesONS",
          "type": "uint256[]",
          "internalType": "uint256[]"
        }
      ],
      "outputs": [],
      "stateMutability": "nonpayable"
    },
    {
      "type": "function",
      "name": "createAccount",
      "inputs": [
        {
          "name": "amountCNS",
          "type": "uint256",
          "internalType": "uint256"
        }
      ],
      "outputs": [
        {
          "name": "accountId",
          "type": "uint256",
          "internalType": "uint256"
        }
      ],
      "stateMutability": "nonpayable"
    },
    {
      "type": "function",
      "name": "declineDecreaseCollateralRequest",
      "inputs": [
        {
          "name": "perpId",
          "type": "uint256",
          "internalType": "uint256"
        },
        {
          "name": "accountId",
          "type": "uint256",
          "internalType": "uint256"
        },
        {
          "name": "reason",
          "type": "string",
          "internalType": "string"
        }
      ],
      "outputs": [],
      "stateMutability": "nonpayable"
    },
    {
      "type": "function",
      "name": "decreasePositionCollateral",
      "inputs": [
        {
          "name": "perpId",
          "type": "uint256",
          "internalType": "uint256"
        },
        {
          "name": "accountId",
          "type": "uint256",
          "internalType": "uint256"
        },
        {
          "name": "impactAdjPricePNS",
          "type": "uint32",
          "internalType": "uint32"
        },
        {
          "name": "borrowMarginFracHdths",
          "type": "uint16",
          "internalType": "uint16"
        },
        {
          "name": "positionType",
          "type": "uint8",
          "internalType": "enum PositionEnum"
        }
      ],
      "outputs": [],
      "stateMutability": "nonpayable"
    },
    {
      "type": "function",
      "name": "depositCollateral",
      "inputs": [
        {
          "name": "amountCNS",
          "type": "uint256",
          "internalType": "uint256"
        }
      ],
      "outputs": [],
      "stateMutability": "nonpayable"
    },
    {
      "type": "function",
      "name": "depositToProtocol",
      "inputs": [
        {
          "name": "amountCNS",
          "type": "uint256",
          "internalType": "uint256"
        }
      ],
      "outputs": [],
      "stateMutability": "nonpayable"
    },
    {
      "type": "function",
      "name": "execFwdPositionOps",
      "inputs": [
        {
          "name": "forwardedOrders",
          "type": "tuple[]",
          "internalType": "struct FwdOrderDesc[]",
          "components": [
            {
              "name": "accountId",
              "type": "uint256",
              "internalType": "uint256"
            },
            {
              "name": "feePer100K",
              "type": "uint256",
              "internalType": "uint256"
            },
            {
              "name": "orderDesc",
              "type": "tuple",
              "internalType": "struct OrderDesc",
              "components": [
                {
                  "name": "orderDescId",
                  "type": "uint256",
                  "internalType": "uint256"
                },
                {
                  "name": "perpId",
                  "type": "uint256",
                  "internalType": "uint256"
                },
                {
                  "name": "orderType",
                  "type": "uint8",
                  "internalType": "enum OrderDescEnum"
                },
                {
                  "name": "orderId",
                  "type": "uint256",
                  "internalType": "uint256"
                },
                {
                  "name": "pricePNS",
                  "type": "uint256",
                  "internalType": "uint256"
                },
                {
                  "name": "lotLNS",
                  "type": "uint256",
                  "internalType": "uint256"
                },
                {
                  "name": "expiryBlock",
                  "type": "uint256",
                  "internalType": "uint256"
                },
                {
                  "name": "postOnly",
                  "type": "bool",
                  "internalType": "bool"
                },
                {
                  "name": "fillOrKill",
                  "type": "bool",
                  "internalType": "bool"
                },
                {
                  "name": "immediateOrCancel",
                  "type": "bool",
                  "internalType": "bool"
                },
                {
                  "name": "maxMatches",
                  "type": "uint256",
                  "internalType": "uint256"
                },
                {
                  "name": "leverageHdths",
                  "type": "uint256",
                  "internalType": "uint256"
                },
                {
                  "name": "lastExecutionBlock",
                  "type": "uint256",
                  "internalType": "uint256"
                },
                {
                  "name": "amountCNS",
                  "type": "uint256",
                  "internalType": "uint256"
                },
                {
                  "name": "maxNegPnlCollatBPS",
                  "type": "uint256",
                  "internalType": "uint256"
                }
              ]
            },
            {
              "name": "execTriggerOrder",
              "type": "bool",
              "internalType": "bool"
            },
            {
              "name": "triggerPricePNS",
              "type": "uint256",
              "internalType": "uint256"
            },
            {
              "name": "triggerPriceCondition",
              "type": "uint8",
              "internalType": "enum TriggerPriceConditionEnum"
            },
            {
              "name": "triggerRequestId",
              "type": "uint256",
              "internalType": "uint256"
            },
            {
              "name": "triggerPositionId",
              "type": "uint256",
              "internalType": "uint256"
            }
          ]
        }
      ],
      "outputs": [
        {
          "name": "signatures",
          "type": "tuple[]",
          "internalType": "struct OrderSignature[]",
          "components": [
            {
              "name": "perpId",
              "type": "uint256",
              "internalType": "uint256"
            },
            {
              "name": "orderId",
              "type": "uint256",
              "internalType": "uint256"
            }
          ]
        }
      ],
      "stateMutability": "nonpayable"
    },
    {
      "type": "function",
      "name": "execFznAccountPosOps",
      "inputs": [
        {
          "name": "fznAccountCloseOrders",
          "type": "tuple[]",
          "internalType": "struct FznOrderDesc[]",
          "components": [
            {
              "name": "accountId",
              "type": "uint256",
              "internalType": "uint256"
            },
            {
              "name": "orderDesc",
              "type": "tuple",
              "internalType": "struct OrderDesc",
              "components": [
                {
                  "name": "orderDescId",
                  "type": "uint256",
                  "internalType": "uint256"
                },
                {
                  "name": "perpId",
                  "type": "uint256",
                  "internalType": "uint256"
                },
                {
                  "name": "orderType",
                  "type": "uint8",
                  "internalType": "enum OrderDescEnum"
                },
                {
                  "name": "orderId",
                  "type": "uint256",
                  "internalType": "uint256"
                },
                {
                  "name": "pricePNS",
                  "type": "uint256",
                  "internalType": "uint256"
                },
                {
                  "name": "lotLNS",
                  "type": "uint256",
                  "internalType": "uint256"
                },
                {
                  "name": "expiryBlock",
                  "type": "uint256",
                  "internalType": "uint256"
                },
                {
                  "name": "postOnly",
                  "type": "bool",
                  "internalType": "bool"
                },
                {
                  "name": "fillOrKill",
                  "type": "bool",
                  "internalType": "bool"
                },
                {
                  "name": "immediateOrCancel",
                  "type": "bool",
                  "internalType": "bool"
                },
                {
                  "name": "maxMatches",
                  "type": "uint256",
                  "internalType": "uint256"
                },
                {
                  "name": "leverageHdths",
                  "type": "uint256",
                  "internalType": "uint256"
                },
                {
                  "name": "lastExecutionBlock",
                  "type": "uint256",
                  "internalType": "uint256"
                },
                {
                  "name": "amountCNS",
                  "type": "uint256",
                  "internalType": "uint256"
                },
                {
                  "name": "maxNegPnlCollatBPS",
                  "type": "uint256",
                  "internalType": "uint256"
                }
              ]
            }
          ]
        }
      ],
      "outputs": [],
      "stateMutability": "nonpayable"
    },
    {
      "type": "function",
      "name": "execOrder",
      "inputs": [
        {
          "name": "orderDesc",
          "type": "tuple",
          "internalType": "struct OrderDesc",
          "components": [
            {
              "name": "orderDescId",
              "type": "uint256",
              "internalType": "uint256"
            },
            {
              "name": "perpId",
              "type": "uint256",
              "internalType": "uint256"
            },
            {
              "name": "orderType",
              "type": "uint8",
              "internalType": "enum OrderDescEnum"
            },
            {
              "name": "orderId",
              "type": "uint256",
              "internalType": "uint256"
            },
            {
              "name": "pricePNS",
              "type": "uint256",
              "internalType": "uint256"
            },
            {
              "name": "lotLNS",
              "type": "uint256",
              "internalType": "uint256"
            },
            {
              "name": "expiryBlock",
              "type": "uint256",
              "internalType": "uint256"
            },
            {
              "name": "postOnly",
              "type": "bool",
              "internalType": "bool"
            },
            {
              "name": "fillOrKill",
              "type": "bool",
              "internalType": "bool"
            },
            {
              "name": "immediateOrCancel",
              "type": "bool",
              "internalType": "bool"
            },
            {
              "name": "maxMatches",
              "type": "uint256",
              "internalType": "uint256"
            },
            {
              "name": "leverageHdths",
              "type": "uint256",
              "internalType": "uint256"
            },
            {
              "name": "lastExecutionBlock",
              "type": "uint256",
              "internalType": "uint256"
            },
            {
              "name": "amountCNS",
              "type": "uint256",
              "internalType": "uint256"
            },
            {
              "name": "maxNegPnlCollatBPS",
              "type": "uint256",
              "internalType": "uint256"
            }
          ]
        }
      ],
      "outputs": [
        {
          "name": "signature",
          "type": "tuple",
          "internalType": "struct OrderSignature",
          "components": [
            {
              "name": "perpId",
              "type": "uint256",
              "internalType": "uint256"
            },
            {
              "name": "orderId",
              "type": "uint256",
              "internalType": "uint256"
            }
          ]
        }
      ],
      "stateMutability": "nonpayable"
    },
    {
      "type": "function",
      "name": "execOrders",
      "inputs": [
        {
          "name": "orderDescs",
          "type": "tuple[]",
          "internalType": "struct OrderDesc[]",
          "components": [
            {
              "name": "orderDescId",
              "type": "uint256",
              "internalType": "uint256"
            },
            {
              "name": "perpId",
              "type": "uint256",
              "internalType": "uint256"
            },
            {
              "name": "orderType",
              "type": "uint8",
              "internalType": "enum OrderDescEnum"
            },
            {
              "name": "orderId",
              "type": "uint256",
              "internalType": "uint256"
            },
            {
              "name": "pricePNS",
              "type": "uint256",
              "internalType": "uint256"
            },
            {
              "name": "lotLNS",
              "type": "uint256",
              "internalType": "uint256"
            },
            {
              "name": "expiryBlock",
              "type": "uint256",
              "internalType": "uint256"
            },
            {
              "name": "postOnly",
              "type": "bool",
              "internalType": "bool"
            },
            {
              "name": "fillOrKill",
              "type": "bool",
              "internalType": "bool"
            },
            {
              "name": "immediateOrCancel",
              "type": "bool",
              "internalType": "bool"
            },
            {
              "name": "maxMatches",
              "type": "uint256",
              "internalType": "uint256"
            },
            {
              "name": "leverageHdths",
              "type": "uint256",
              "internalType": "uint256"
            },
            {
              "name": "lastExecutionBlock",
              "type": "uint256",
              "internalType": "uint256"
            },
            {
              "name": "amountCNS",
              "type": "uint256",
              "internalType": "uint256"
            },
            {
              "name": "maxNegPnlCollatBPS",
              "type": "uint256",
              "internalType": "uint256"
            }
          ]
        },
        {
          "name": "revertOnFail",
          "type": "bool",
          "internalType": "bool"
        }
      ],
      "outputs": [
        {
          "name": "signatures",
          "type": "tuple[]",
          "internalType": "struct OrderSignature[]",
          "components": [
            {
              "name": "perpId",
              "type": "uint256",
              "internalType": "uint256"
            },
            {
              "name": "orderId",
              "type": "uint256",
              "internalType": "uint256"
            }
          ]
        }
      ],
      "stateMutability": "nonpayable"
    },
    {
      "type": "function",
      "name": "execPerpOps",
      "inputs": [
        {
          "name": "operations",
          "type": "tuple[]",
          "internalType": "struct OpDesc[]",
          "components": [
            {
              "name": "opDescId",
              "type": "uint256",
              "internalType": "uint256"
            },
            {
              "name": "perpId",
              "type": "uint256",
              "internalType": "uint256"
            },
            {
              "name": "opType",
              "type": "uint8",
              "internalType": "enum OpDescEnum"
            },
            {
              "name": "pricePNS",
              "type": "uint32",
              "internalType": "uint32"
            },
            {
              "name": "fundingRatePct100k",
              "type": "int256",
              "internalType": "int256"
            },
            {
              "name": "allowOverwrite",
              "type": "bool",
              "internalType": "bool"
            },
            {
              "name": "unverifiedReport",
              "type": "bytes",
              "internalType": "bytes"
            }
          ]
        }
      ],
      "outputs": [],
      "stateMutability": "nonpayable"
    },
    {
      "type": "function",
      "name": "forceClose",
      "inputs": [
        {
          "name": "perpId",
          "type": "uint256",
          "internalType": "uint256"
        },
        {
          "name": "posAccountId",
          "type": "uint256",
          "internalType": "uint256"
        },
        {
          "name": "sortedPositionIds",
          "type": "uint256[]",
          "internalType": "uint256[]"
        },
        {
          "name": "revertOnFail",
          "type": "bool",
          "internalType": "bool"
        }
      ],
      "outputs": [
        {
          "name": "success",
          "type": "bool",
          "internalType": "bool"
        }
      ],
      "stateMutability": "nonpayable"
    },
    {
      "type": "function",
      "name": "forceResetWithdrawRateLimit",
      "inputs": [],
      "outputs": [],
      "stateMutability": "nonpayable"
    },
    {
      "type": "function",
      "name": "getAccountByAddr",
      "inputs": [
        {
          "name": "accountAddress",
          "type": "address",
          "internalType": "address"
        }
      ],
      "outputs": [
        {
          "name": "accountInfo",
          "type": "tuple",
          "internalType": "struct AccountInfo",
          "components": [
            {
              "name": "accountId",
              "type": "uint256",
              "internalType": "uint256"
            },
            {
              "name": "balanceCNS",
              "type": "uint256",
              "internalType": "uint256"
            },
            {
              "name": "lockedBalanceCNS",
              "type": "uint256",
              "internalType": "uint256"
            },
            {
              "name": "frozen",
              "type": "uint8",
              "internalType": "enum FreezeStatusEnum"
            },
            {
              "name": "accountAddr",
              "type": "address",
              "internalType": "address"
            },
            {
              "name": "positions",
              "type": "tuple",
              "internalType": "struct PositionBitMap",
              "components": [
                {
                  "name": "bank1",
                  "type": "uint256",
                  "internalType": "uint256"
                },
                {
                  "name": "bank2",
                  "type": "uint256",
                  "internalType": "uint256"
                },
                {
                  "name": "bank3",
                  "type": "uint256",
                  "internalType": "uint256"
                },
                {
                  "name": "bank4",
                  "type": "uint256",
                  "internalType": "uint256"
                }
              ]
            }
          ]
        }
      ],
      "stateMutability": "view"
    },
    {
      "type": "function",
      "name": "getAccountById",
      "inputs": [
        {
          "name": "accountId",
          "type": "uint256",
          "internalType": "uint256"
        }
      ],
      "outputs": [
        {
          "name": "accountInfo",
          "type": "tuple",
          "internalType": "struct AccountInfo",
          "components": [
            {
              "name": "accountId",
              "type": "uint256",
              "internalType": "uint256"
            },
            {
              "name": "balanceCNS",
              "type": "uint256",
              "internalType": "uint256"
            },
            {
              "name": "lockedBalanceCNS",
              "type": "uint256",
              "internalType": "uint256"
            },
            {
              "name": "frozen",
              "type": "uint8",
              "internalType": "enum FreezeStatusEnum"
            },
            {
              "name": "accountAddr",
              "type": "address",
              "internalType": "address"
            },
            {
              "name": "positions",
              "type": "tuple",
              "internalType": "struct PositionBitMap",
              "components": [
                {
                  "name": "bank1",
                  "type": "uint256",
                  "internalType": "uint256"
                },
                {
                  "name": "bank2",
                  "type": "uint256",
                  "internalType": "uint256"
                },
                {
                  "name": "bank3",
                  "type": "uint256",
                  "internalType": "uint256"
                },
                {
                  "name": "bank4",
                  "type": "uint256",
                  "internalType": "uint256"
                }
              ]
            }
          ]
        }
      ],
      "stateMutability": "view"
    },
    {
      "type": "function",
      "name": "getExchangeInfo",
      "inputs": [],
      "outputs": [
        {
          "name": "balanceCNS",
          "type": "uint256",
          "internalType": "uint256"
        },
        {
          "name": "protocolBalanceCNS",
          "type": "uint256",
          "internalType": "uint256"
        },
        {
          "name": "recycleBalanceCNS",
          "type": "uint256",
          "internalType": "uint256"
        },
        {
          "name": "collateralDecimals",
          "type": "uint256",
          "internalType": "uint256"
        },
        {
          "name": "collateralToken",
          "type": "address",
          "internalType": "address"
        },
        {
          "name": "verifierProxy",
          "type": "address",
          "internalType": "address"
        }
      ],
      "stateMutability": "view"
    },
    {
      "type": "function",
      "name": "getFundingInterval",
      "inputs": [],
      "outputs": [
        {
          "name": "fundingInterval",
          "type": "uint256",
          "internalType": "uint256"
        }
      ],
      "stateMutability": "pure"
    },
    {
      "type": "function",
      "name": "getFundingSumAtBlock",
      "inputs": [
        {
          "name": "perpId",
          "type": "uint256",
          "internalType": "uint256"
        },
        {
          "name": "blockNumber",
          "type": "uint256",
          "internalType": "uint256"
        }
      ],
      "outputs": [
        {
          "name": "fundingSumPNS",
          "type": "int48",
          "internalType": "int48"
        },
        {
          "name": "fundingEventBlock",
          "type": "uint256",
          "internalType": "uint256"
        }
      ],
      "stateMutability": "view"
    },
    {
      "type": "function",
      "name": "getLiquidationInfo",
      "inputs": [
        {
          "name": "perpId",
          "type": "uint256",
          "internalType": "uint256"
        }
      ],
      "outputs": [
        {
          "name": "liquidationInfo",
          "type": "tuple",
          "internalType": "struct LiquidationInfo",
          "components": [
            {
              "name": "liqInsAmtPer100K",
              "type": "uint256",
              "internalType": "uint256"
            },
            {
              "name": "liqUserAmtPer100K",
              "type": "uint256",
              "internalType": "uint256"
            },
            {
              "name": "liqProtocolAmtPer100K",
              "type": "uint256",
              "internalType": "uint256"
            },
            {
              "name": "btlPriceThreshPer100K",
              "type": "uint256",
              "internalType": "uint256"
            },
            {
              "name": "btlInsAmtPer100K",
              "type": "uint256",
              "internalType": "uint256"
            },
            {
              "name": "btlUserAmtPer100K",
              "type": "uint256",
              "internalType": "uint256"
            },
            {
              "name": "btlBuyerAmtPer100K",
              "type": "uint256",
              "internalType": "uint256"
            },
            {
              "name": "btlProtocolAmtPer100K",
              "type": "uint256",
              "internalType": "uint256"
            },
            {
              "name": "btlRestrictBuyers",
              "type": "bool",
              "internalType": "bool"
            }
          ]
        }
      ],
      "stateMutability": "view"
    },
    {
      "type": "function",
      "name": "getMakerFee",
      "inputs": [
        {
          "name": "perpId",
          "type": "uint256",
          "internalType": "uint256"
        }
      ],
      "outputs": [
        {
          "name": "",
          "type": "uint256",
          "internalType": "uint256"
        }
      ],
      "stateMutability": "view"
    },
    {
      "type": "function",
      "name": "getMarginFractions",
      "inputs": [
        {
          "name": "perpId",
          "type": "uint256",
          "internalType": "uint256"
        },
        {
          "name": "lotLNS",
          "type": "uint256",
          "internalType": "uint256"
        }
      ],
      "outputs": [
        {
          "name": "perpInitMarginFracHdths",
          "type": "uint256",
          "internalType": "uint256"
        },
        {
          "name": "perpMaintMarginFracHdths",
          "type": "uint256",
          "internalType": "uint256"
        },
        {
          "name": "dynamicInitMarginFracHdths",
          "type": "uint256",
          "internalType": "uint256"
        },
        {
          "name": "oiMaxLNS",
          "type": "uint256",
          "internalType": "uint256"
        },
        {
          "name": "unityDescentThreshHdths",
          "type": "uint256",
          "internalType": "uint256"
        },
        {
          "name": "overColDescentThreshHdths",
          "type": "uint256",
          "internalType": "uint256"
        }
      ],
      "stateMutability": "view"
    },
    {
      "type": "function",
      "name": "getMinAccountOpenCNS",
      "inputs": [],
      "outputs": [
        {
          "name": "minAccountOpenCNS",
          "type": "uint256",
          "internalType": "uint256"
        }
      ],
      "stateMutability": "view"
    },
    {
      "type": "function",
      "name": "getMinimumPostCNS",
      "inputs": [],
      "outputs": [
        {
          "name": "minimumPostCNS",
          "type": "uint256",
          "internalType": "uint256"
        }
      ],
      "stateMutability": "view"
    },
    {
      "type": "function",
      "name": "getMinimumSettleCNS",
      "inputs": [],
      "outputs": [
        {
          "name": "minimumSettleCNS",
          "type": "uint256",
          "internalType": "uint256"
        }
      ],
      "stateMutability": "view"
    },
    {
      "type": "function",
      "name": "getNextPriceAboveWithOrders",
      "inputs": [
        {
          "name": "perpId",
          "type": "uint256",
          "internalType": "uint256"
        },
        {
          "name": "priceONS",
          "type": "uint256",
          "internalType": "uint256"
        }
      ],
      "outputs": [
        {
          "name": "priceAboveONS",
          "type": "uint256",
          "internalType": "uint256"
        }
      ],
      "stateMutability": "view"
    },
    {
      "type": "function",
      "name": "getNextPriceBelowWithOrders",
      "inputs": [
        {
          "name": "perpId",
          "type": "uint256",
          "internalType": "uint256"
        },
        {
          "name": "priceONS",
          "type": "uint256",
          "internalType": "uint256"
        }
      ],
      "outputs": [
        {
          "name": "priceBelowONS",
          "type": "uint256",
          "internalType": "uint256"
        }
      ],
      "stateMutability": "view"
    },
    {
      "type": "function",
      "name": "getOrder",
      "inputs": [
        {
          "name": "perpId",
          "type": "uint256",
          "internalType": "uint256"
        },
        {
          "name": "orderId",
          "type": "uint256",
          "internalType": "uint256"
        }
      ],
      "outputs": [
        {
          "name": "order",
          "type": "tuple",
          "internalType": "struct Order",
          "components": [
            {
              "name": "accountId",
              "type": "uint32",
              "internalType": "uint32"
            },
            {
              "name": "orderType",
              "type": "uint8",
              "internalType": "enum OrderEnum"
            },
            {
              "name": "priceONS",
              "type": "uint24",
              "internalType": "uint24"
            },
            {
              "name": "lotLNS",
              "type": "uint40",
              "internalType": "uint40"
            },
            {
              "name": "recycleFeeRaw",
              "type": "uint16",
              "internalType": "uint16"
            },
            {
              "name": "expiryBlock",
              "type": "uint32",
              "internalType": "uint32"
            },
            {
              "name": "leverageHdths",
              "type": "uint16",
              "internalType": "uint16"
            },
            {
              "name": "orderId",
              "type": "uint16",
              "internalType": "uint16"
            },
            {
              "name": "prevOrderId",
              "type": "uint16",
              "internalType": "uint16"
            },
            {
              "name": "nextOrderId",
              "type": "uint16",
              "internalType": "uint16"
            },
            {
              "name": "maxNegPnlCollatBPS",
              "type": "uint16",
              "internalType": "uint16"
            }
          ]
        }
      ],
      "stateMutability": "view"
    },
    {
      "type": "function",
      "name": "getOrderIdIndex",
      "inputs": [
        {
          "name": "perpId",
          "type": "uint256",
          "internalType": "uint256"
        }
      ],
      "outputs": [
        {
          "name": "root",
          "type": "uint256",
          "internalType": "uint256"
        },
        {
          "name": "leaves",
          "type": "uint256[]",
          "internalType": "uint256[]"
        },
        {
          "name": "numOrders",
          "type": "uint256",
          "internalType": "uint256"
        }
      ],
      "stateMutability": "view"
    },
    {
      "type": "function",
      "name": "getOrderLocks",
      "inputs": [
        {
          "name": "accountId",
          "type": "uint256",
          "internalType": "uint256"
        }
      ],
      "outputs": [
        {
          "name": "orderLocks",
          "type": "tuple[]",
          "internalType": "struct OrderLock[]",
          "components": [
            {
              "name": "orderLockId",
              "type": "uint32",
              "internalType": "uint32"
            },
            {
              "name": "nextOrderLockId",
              "type": "uint32",
              "internalType": "uint32"
            },
            {
              "name": "prevOrderLockId",
              "type": "uint32",
              "internalType": "uint32"
            },
            {
              "name": "orderType",
              "type": "uint8",
              "internalType": "enum OrderEnum"
            },
            {
              "name": "lotLNS",
              "type": "uint40",
              "internalType": "uint40"
            },
            {
              "name": "amountCNS",
              "type": "uint80",
              "internalType": "uint80"
            }
          ]
        }
      ],
      "stateMutability": "view"
    },
    {
      "type": "function",
      "name": "getOrdersAtPriceLevel",
      "inputs": [
        {
          "name": "perpId",
          "type": "uint256",
          "internalType": "uint256"
        },
        {
          "name": "priceONS",
          "type": "uint256",
          "internalType": "uint256"
        },
        {
          "name": "pageStartOrderId",
          "type": "uint256",
          "internalType": "uint256"
        },
        {
          "name": "ordersPerPage",
          "type": "uint256",
          "internalType": "uint256"
        }
      ],
      "outputs": [
        {
          "name": "ordersAtPriceLevel",
          "type": "tuple[]",
          "internalType": "struct Order[]",
          "components": [
            {
              "name": "accountId",
              "type": "uint32",
              "internalType": "uint32"
            },
            {
              "name": "orderType",
              "type": "uint8",
              "internalType": "enum OrderEnum"
            },
            {
              "name": "priceONS",
              "type": "uint24",
              "internalType": "uint24"
            },
            {
              "name": "lotLNS",
              "type": "uint40",
              "internalType": "uint40"
            },
            {
              "name": "recycleFeeRaw",
              "type": "uint16",
              "internalType": "uint16"
            },
            {
              "name": "expiryBlock",
              "type": "uint32",
              "internalType": "uint32"
            },
            {
              "name": "leverageHdths",
              "type": "uint16",
              "internalType": "uint16"
            },
            {
              "name": "orderId",
              "type": "uint16",
              "internalType": "uint16"
            },
            {
              "name": "prevOrderId",
              "type": "uint16",
              "internalType": "uint16"
            },
            {
              "name": "nextOrderId",
              "type": "uint16",
              "internalType": "uint16"
            },
            {
              "name": "maxNegPnlCollatBPS",
              "type": "uint16",
              "internalType": "uint16"
            }
          ]
        },
        {
          "name": "numOrders",
          "type": "uint256",
          "internalType": "uint256"
        }
      ],
      "stateMutability": "view"
    },
    {
      "type": "function",
      "name": "getOwner",
      "inputs": [],
      "outputs": [
        {
          "name": "",
          "type": "address",
          "internalType": "address"
        }
      ],
      "stateMutability": "view"
    },
    {
      "type": "function",
      "name": "getPermissionedCancelParams",
      "inputs": [
        {
          "name": "perpId",
          "type": "uint256",
          "internalType": "uint256"
        }
      ],
      "outputs": [
        {
          "name": "permCancelMinOrders",
          "type": "uint256",
          "internalType": "uint256"
        },
        {
          "name": "permCancelSegment",
          "type": "uint256",
          "internalType": "uint256"
        }
      ],
      "stateMutability": "view"
    },
    {
      "type": "function",
      "name": "getPerpOrderLocks",
      "inputs": [
        {
          "name": "accountId",
          "type": "uint256",
          "internalType": "uint256"
        },
        {
          "name": "perpId",
          "type": "uint256",
          "internalType": "uint256"
        }
      ],
      "outputs": [
        {
          "name": "perpOrderLocks",
          "type": "tuple[]",
          "internalType": "struct OrderLock[]",
          "components": [
            {
              "name": "orderLockId",
              "type": "uint32",
              "internalType": "uint32"
            },
            {
              "name": "nextOrderLockId",
              "type": "uint32",
              "internalType": "uint32"
            },
            {
              "name": "prevOrderLockId",
              "type": "uint32",
              "internalType": "uint32"
            },
            {
              "name": "orderType",
              "type": "uint8",
              "internalType": "enum OrderEnum"
            },
            {
              "name": "lotLNS",
              "type": "uint40",
              "internalType": "uint40"
            },
            {
              "name": "amountCNS",
              "type": "uint80",
              "internalType": "uint80"
            }
          ]
        }
      ],
      "stateMutability": "view"
    },
    {
      "type": "function",
      "name": "getPerpetualInfo",
      "inputs": [
        {
          "name": "perpId",
          "type": "uint256",
          "internalType": "uint256"
        }
      ],
      "outputs": [
        {
          "name": "perpetualInfo",
          "type": "tuple",
          "internalType": "struct PerpetualInfo",
          "components": [
            {
              "name": "name",
              "type": "string",
              "internalType": "string"
            },
            {
              "name": "symbol",
              "type": "string",
              "internalType": "string"
            },
            {
              "name": "priceDecimals",
              "type": "uint256",
              "internalType": "uint256"
            },
            {
              "name": "lotDecimals",
              "type": "uint256",
              "internalType": "uint256"
            },
            {
              "name": "linkFeedId",
              "type": "bytes32",
              "internalType": "bytes32"
            },
            {
              "name": "priceTolPer100K",
              "type": "uint256",
              "internalType": "uint256"
            },
            {
              "name": "marginTol",
              "type": "uint256",
              "internalType": "uint256"
            },
            {
              "name": "marginTolDecimals",
              "type": "uint256",
              "internalType": "uint256"
            },
            {
              "name": "refPriceMaxAgeSec",
              "type": "uint256",
              "internalType": "uint256"
            },
            {
              "name": "positionBalanceCNS",
              "type": "uint256",
              "internalType": "uint256"
            },
            {
              "name": "insuranceBalanceCNS",
              "type": "uint256",
              "internalType": "uint256"
            },
            {
              "name": "markPNS",
              "type": "uint256",
              "internalType": "uint256"
            },
            {
              "name": "markTimestamp",
              "type": "uint256",
              "internalType": "uint256"
            },
            {
              "name": "lastPNS",
              "type": "uint256",
              "internalType": "uint256"
            },
            {
              "name": "lastTimestamp",
              "type": "uint256",
              "internalType": "uint256"
            },
            {
              "name": "oraclePNS",
              "type": "uint256",
              "internalType": "uint256"
            },
            {
              "name": "oracleTimestampSec",
              "type": "uint256",
              "internalType": "uint256"
            },
            {
              "name": "longOpenInterestLNS",
              "type": "uint256",
              "internalType": "uint256"
            },
            {
              "name": "shortOpenInterestLNS",
              "type": "uint256",
              "internalType": "uint256"
            },
            {
              "name": "fundingStartBlock",
              "type": "uint256",
              "internalType": "uint256"
            },
            {
              "name": "fundingRatePct100k",
              "type": "int16",
              "internalType": "int16"
            },
            {
              "name": "absFundingClampPctPer100K",
              "type": "uint256",
              "internalType": "uint256"
            },
            {
              "name": "status",
              "type": "uint8",
              "internalType": "enum PerpStatusEnum"
            },
            {
              "name": "basePricePNS",
              "type": "uint256",
              "internalType": "uint256"
            },
            {
              "name": "maxBidPriceONS",
              "type": "uint256",
              "internalType": "uint256"
            },
            {
              "name": "minBidPriceONS",
              "type": "uint256",
              "internalType": "uint256"
            },
            {
              "name": "maxAskPriceONS",
              "type": "uint256",
              "internalType": "uint256"
            },
            {
              "name": "minAskPriceONS",
              "type": "uint256",
              "internalType": "uint256"
            },
            {
              "name": "numOrders",
              "type": "uint256",
              "internalType": "uint256"
            },
            {
              "name": "ignOracle",
              "type": "bool",
              "internalType": "bool"
            },
            {
              "name": "fundingSumScalingExp",
              "type": "uint256",
              "internalType": "uint256"
            }
          ]
        }
      ],
      "stateMutability": "view"
    },
    {
      "type": "function",
      "name": "getPosition",
      "inputs": [
        {
          "name": "perpId",
          "type": "uint256",
          "internalType": "uint256"
        },
        {
          "name": "accountId",
          "type": "uint256",
          "internalType": "uint256"
        }
      ],
      "outputs": [
        {
          "name": "positionInfo",
          "type": "tuple",
          "internalType": "struct PositionInfo",
          "components": [
            {
              "name": "accountId",
              "type": "uint256",
              "internalType": "uint256"
            },
            {
              "name": "nextNodeId",
              "type": "uint256",
              "internalType": "uint256"
            },
            {
              "name": "prevNodeId",
              "type": "uint256",
              "internalType": "uint256"
            },
            {
              "name": "positionType",
              "type": "uint8",
              "internalType": "enum PositionEnum"
            },
            {
              "name": "depositCNS",
              "type": "uint256",
              "internalType": "uint256"
            },
            {
              "name": "pricePNS",
              "type": "uint256",
              "internalType": "uint256"
            },
            {
              "name": "lotLNS",
              "type": "uint256",
              "internalType": "uint256"
            },
            {
              "name": "entryBlock",
              "type": "uint256",
              "internalType": "uint256"
            },
            {
              "name": "pnlCNS",
              "type": "int256",
              "internalType": "int256"
            },
            {
              "name": "deltaPnlCNS",
              "type": "int256",
              "internalType": "int256"
            },
            {
              "name": "premiumPnlCNS",
              "type": "int256",
              "internalType": "int256"
            },
            {
              "name": "priceResiduePNSQ16",
              "type": "uint256",
              "internalType": "uint256"
            }
          ]
        },
        {
          "name": "markPricePNS",
          "type": "uint256",
          "internalType": "uint256"
        },
        {
          "name": "markPriceValid",
          "type": "bool",
          "internalType": "bool"
        }
      ],
      "stateMutability": "view"
    },
    {
      "type": "function",
      "name": "getPositionIds",
      "inputs": [
        {
          "name": "perpId",
          "type": "uint256",
          "internalType": "uint256"
        }
      ],
      "outputs": [
        {
          "name": "startNodeId",
          "type": "uint256",
          "internalType": "uint256"
        },
        {
          "name": "endNodeId",
          "type": "uint256",
          "internalType": "uint256"
        }
      ],
      "stateMutability": "view"
    },
    {
      "type": "function",
      "name": "getPositions",
      "inputs": [
        {
          "name": "perpId",
          "type": "uint256",
          "internalType": "uint256"
        },
        {
          "name": "pageStartPositionId",
          "type": "uint256",
          "internalType": "uint256"
        },
        {
          "name": "positionsPerPage",
          "type": "uint256",
          "internalType": "uint256"
        }
      ],
      "outputs": [
        {
          "name": "positions",
          "type": "tuple[]",
          "internalType": "struct PositionInfo[]",
          "components": [
            {
              "name": "accountId",
              "type": "uint256",
              "internalType": "uint256"
            },
            {
              "name": "nextNodeId",
              "type": "uint256",
              "internalType": "uint256"
            },
            {
              "name": "prevNodeId",
              "type": "uint256",
              "internalType": "uint256"
            },
            {
              "name": "positionType",
              "type": "uint8",
              "internalType": "enum PositionEnum"
            },
            {
              "name": "depositCNS",
              "type": "uint256",
              "internalType": "uint256"
            },
            {
              "name": "pricePNS",
              "type": "uint256",
              "internalType": "uint256"
            },
            {
              "name": "lotLNS",
              "type": "uint256",
              "internalType": "uint256"
            },
            {
              "name": "entryBlock",
              "type": "uint256",
              "internalType": "uint256"
            },
            {
              "name": "pnlCNS",
              "type": "int256",
              "internalType": "int256"
            },
            {
              "name": "deltaPnlCNS",
              "type": "int256",
              "internalType": "int256"
            },
            {
              "name": "premiumPnlCNS",
              "type": "int256",
              "internalType": "int256"
            },
            {
              "name": "priceResiduePNSQ16",
              "type": "uint256",
              "internalType": "uint256"
            }
          ]
        },
        {
          "name": "numPositions",
          "type": "uint256",
          "internalType": "uint256"
        },
        {
          "name": "markPricePNS",
          "type": "uint256",
          "internalType": "uint256"
        },
        {
          "name": "markPriceValid",
          "type": "bool",
          "internalType": "bool"
        }
      ],
      "stateMutability": "view"
    },
    {
      "type": "function",
      "name": "getPriceLevelOrderIds",
      "inputs": [
        {
          "name": "perpId",
          "type": "uint256",
          "internalType": "uint256"
        },
        {
          "name": "priceONS",
          "type": "uint256",
          "internalType": "uint256"
        }
      ],
      "outputs": [
        {
          "name": "startOrderId",
          "type": "uint256",
          "internalType": "uint256"
        },
        {
          "name": "endOrderId",
          "type": "uint256",
          "internalType": "uint256"
        }
      ],
      "stateMutability": "view"
    },
    {
      "type": "function",
      "name": "getProtocolBalanceCNS",
      "inputs": [],
      "outputs": [
        {
          "name": "protocolBalanceCNS",
          "type": "uint256",
          "internalType": "uint256"
        }
      ],
      "stateMutability": "view"
    },
    {
      "type": "function",
      "name": "getRecycleBalanceCNS",
      "inputs": [],
      "outputs": [
        {
          "name": "recycleBalanceCNS",
          "type": "uint256",
          "internalType": "uint256"
        }
      ],
      "stateMutability": "view"
    },
    {
      "type": "function",
      "name": "getRecycleFeeCNS",
      "inputs": [],
      "outputs": [
        {
          "name": "recycleFeeCNS",
          "type": "uint256",
          "internalType": "uint256"
        }
      ],
      "stateMutability": "view"
    },
    {
      "type": "function",
      "name": "getTakerFee",
      "inputs": [
        {
          "name": "perpId",
          "type": "uint256",
          "internalType": "uint256"
        }
      ],
      "outputs": [
        {
          "name": "",
          "type": "uint256",
          "internalType": "uint256"
        }
      ],
      "stateMutability": "view"
    },
    {
      "type": "function",
      "name": "getUnwindInfo",
      "inputs": [
        {
          "name": "perpId",
          "type": "uint256",
          "internalType": "uint256"
        }
      ],
      "outputs": [
        {
          "name": "status",
          "type": "uint8",
          "internalType": "enum PerpStatusEnum"
        },
        {
          "name": "unwindSumPositiveFmvCNS",
          "type": "uint256",
          "internalType": "uint256"
        },
        {
          "name": "unwindInitPosBalCNS",
          "type": "uint256",
          "internalType": "uint256"
        }
      ],
      "stateMutability": "view"
    },
    {
      "type": "function",
      "name": "getVolumeAtBookPrice",
      "inputs": [
        {
          "name": "perpId",
          "type": "uint256",
          "internalType": "uint256"
        },
        {
          "name": "priceONS",
          "type": "uint256",
          "internalType": "uint256"
        }
      ],
      "outputs": [
        {
          "name": "bids",
          "type": "uint256",
          "internalType": "uint256"
        },
        {
          "name": "expBids",
          "type": "uint256",
          "internalType": "uint256"
        },
        {
          "name": "asks",
          "type": "uint256",
          "internalType": "uint256"
        },
        {
          "name": "expAsks",
          "type": "uint256",
          "internalType": "uint256"
        }
      ],
      "stateMutability": "view"
    },
    {
      "type": "function",
      "name": "getWithdrawAllowanceData",
      "inputs": [
        {
          "name": "blockNumber",
          "type": "uint256",
          "internalType": "uint256"
        }
      ],
      "outputs": [
        {
          "name": "allowanceCNS",
          "type": "uint256",
          "internalType": "uint256"
        },
        {
          "name": "expiryBlock",
          "type": "uint256",
          "internalType": "uint256"
        },
        {
          "name": "lastAllowanceBlock",
          "type": "uint256",
          "internalType": "uint256"
        },
        {
          "name": "cnsPerBlock",
          "type": "uint256",
          "internalType": "uint256"
        }
      ],
      "stateMutability": "view"
    },
    {
      "type": "function",
      "name": "increasePositionCollateral",
      "inputs": [
        {
          "name": "perpId",
          "type": "uint256",
          "internalType": "uint256"
        },
        {
          "name": "amountCNS",
          "type": "uint256",
          "internalType": "uint256"
        }
      ],
      "outputs": [],
      "stateMutability": "nonpayable"
    },
    {
      "type": "function",
      "name": "initUnwindContract",
      "inputs": [
        {
          "name": "perpId",
          "type": "uint256",
          "internalType": "uint256"
        },
        {
          "name": "sumPositiveFmvCNS",
          "type": "uint256",
          "internalType": "uint256"
        }
      ],
      "outputs": [],
      "stateMutability": "nonpayable"
    },
    {
      "type": "function",
      "name": "initialize",
      "inputs": [
        {
          "name": "collateralToken",
          "type": "address",
          "internalType": "address"
        }
      ],
      "outputs": [],
      "stateMutability": "nonpayable"
    },
    {
      "type": "function",
      "name": "initializeV2",
      "inputs": [
        {
          "name": "configs",
          "type": "tuple[]",
          "internalType": "struct Exchange.PerpScalingConfig[]",
          "components": [
            {
              "name": "perpId",
              "type": "uint256",
              "internalType": "uint256"
            },
            {
              "name": "fundingSumScalingExp",
              "type": "uint256",
              "internalType": "uint256"
            }
          ]
        },
        {
          "name": "residueTransfers",
          "type": "tuple[]",
          "internalType": "struct Exchange.ResidueTransfer[]",
          "components": [
            {
              "name": "perpId",
              "type": "uint256",
              "internalType": "uint256"
            },
            {
              "name": "residueAmountCNS",
              "type": "uint256",
              "internalType": "uint256"
            }
          ]
        }
      ],
      "outputs": [],
      "stateMutability": "nonpayable"
    },
    {
      "type": "function",
      "name": "isAdministrator",
      "inputs": [
        {
          "name": "anAddress",
          "type": "address",
          "internalType": "address"
        }
      ],
      "outputs": [
        {
          "name": "",
          "type": "bool",
          "internalType": "bool"
        }
      ],
      "stateMutability": "view"
    },
    {
      "type": "function",
      "name": "isHalted",
      "inputs": [],
      "outputs": [
        {
          "name": "halted",
          "type": "bool",
          "internalType": "bool"
        }
      ],
      "stateMutability": "view"
    },
    {
      "type": "function",
      "name": "isLiquidationBuyer",
      "inputs": [
        {
          "name": "anAddress",
          "type": "address",
          "internalType": "address"
        }
      ],
      "outputs": [
        {
          "name": "",
          "type": "bool",
          "internalType": "bool"
        }
      ],
      "stateMutability": "view"
    },
    {
      "type": "function",
      "name": "isPositionAdministrator",
      "inputs": [
        {
          "name": "anAddress",
          "type": "address",
          "internalType": "address"
        }
      ],
      "outputs": [
        {
          "name": "",
          "type": "bool",
          "internalType": "bool"
        }
      ],
      "stateMutability": "view"
    },
    {
      "type": "function",
      "name": "isPriceAdministrator",
      "inputs": [
        {
          "name": "anAddress",
          "type": "address",
          "internalType": "address"
        }
      ],
      "outputs": [
        {
          "name": "",
          "type": "bool",
          "internalType": "bool"
        }
      ],
      "stateMutability": "view"
    },
    {
      "type": "function",
      "name": "isToleranceAdministrator",
      "inputs": [
        {
          "name": "anAddress",
          "type": "address",
          "internalType": "address"
        }
      ],
      "outputs": [
        {
          "name": "",
          "type": "bool",
          "internalType": "bool"
        }
      ],
      "stateMutability": "view"
    },
    {
      "type": "function",
      "name": "liquidation",
      "inputs": [
        {
          "name": "liquidationDesc",
          "type": "tuple",
          "internalType": "struct LiquidationDesc",
          "components": [
            {
              "name": "perpId",
              "type": "uint256",
              "internalType": "uint256"
            },
            {
              "name": "posAccountId",
              "type": "uint256",
              "internalType": "uint256"
            },
            {
              "name": "lotLNS",
              "type": "uint256",
              "internalType": "uint256"
            },
            {
              "name": "userProceedsToPosition",
              "type": "bool",
              "internalType": "bool"
            }
          ]
        }
      ],
      "outputs": [],
      "stateMutability": "nonpayable"
    },
    {
      "type": "function",
      "name": "liquidations",
      "inputs": [
        {
          "name": "liquidationDescs",
          "type": "tuple[]",
          "internalType": "struct LiquidationDesc[]",
          "components": [
            {
              "name": "perpId",
              "type": "uint256",
              "internalType": "uint256"
            },
            {
              "name": "posAccountId",
              "type": "uint256",
              "internalType": "uint256"
            },
            {
              "name": "lotLNS",
              "type": "uint256",
              "internalType": "uint256"
            },
            {
              "name": "userProceedsToPosition",
              "type": "bool",
              "internalType": "bool"
            }
          ]
        },
        {
          "name": "revertOnFail",
          "type": "bool",
          "internalType": "bool"
        }
      ],
      "outputs": [],
      "stateMutability": "nonpayable"
    },
    {
      "type": "function",
      "name": "numberOfAccounts",
      "inputs": [],
      "outputs": [
        {
          "name": "numAccounts",
          "type": "uint256",
          "internalType": "uint256"
        }
      ],
      "stateMutability": "view"
    },
    {
      "type": "function",
      "name": "owner",
      "inputs": [],
      "outputs": [
        {
          "name": "",
          "type": "address",
          "internalType": "address"
        }
      ],
      "stateMutability": "view"
    },
    {
      "type": "function",
      "name": "pauseContract",
      "inputs": [
        {
          "name": "perpId",
          "type": "uint256",
          "internalType": "uint256"
        }
      ],
      "outputs": [],
      "stateMutability": "nonpayable"
    },
    {
      "type": "function",
      "name": "pauseContractByMonitor",
      "inputs": [
        {
          "name": "perpId",
          "type": "uint256",
          "internalType": "uint256"
        }
      ],
      "outputs": [],
      "stateMutability": "nonpayable"
    },
    {
      "type": "function",
      "name": "pendingOwner",
      "inputs": [],
      "outputs": [
        {
          "name": "",
          "type": "address",
          "internalType": "address"
        }
      ],
      "stateMutability": "view"
    },
    {
      "type": "function",
      "name": "prepareUnwindContract",
      "inputs": [
        {
          "name": "perpId",
          "type": "uint256",
          "internalType": "uint256"
        }
      ],
      "outputs": [],
      "stateMutability": "nonpayable"
    },
    {
      "type": "function",
      "name": "proxiableUUID",
      "inputs": [],
      "outputs": [
        {
          "name": "",
          "type": "bytes32",
          "internalType": "bytes32"
        }
      ],
      "stateMutability": "view"
    },
    {
      "type": "function",
      "name": "removeContract",
      "inputs": [
        {
          "name": "perpId",
          "type": "uint256",
          "internalType": "uint256"
        }
      ],
      "outputs": [],
      "stateMutability": "nonpayable"
    },
    {
      "type": "function",
      "name": "renounceOwnership",
      "inputs": [],
      "outputs": [],
      "stateMutability": "nonpayable"
    },
    {
      "type": "function",
      "name": "requestDecreasePositionCollateral",
      "inputs": [
        {
          "name": "perpId",
          "type": "uint256",
          "internalType": "uint256"
        },
        {
          "name": "amountCNS",
          "type": "uint256",
          "internalType": "uint256"
        },
        {
          "name": "clampToMaximum",
          "type": "bool",
          "internalType": "bool"
        }
      ],
      "outputs": [],
      "stateMutability": "nonpayable"
    },
    {
      "type": "function",
      "name": "setAddressBlockStatus",
      "inputs": [
        {
          "name": "addresses",
          "type": "address[]",
          "internalType": "address[]"
        },
        {
          "name": "blocked",
          "type": "bool",
          "internalType": "bool"
        }
      ],
      "outputs": [],
      "stateMutability": "nonpayable"
    },
    {
      "type": "function",
      "name": "setAddressWhitelisted",
      "inputs": [
        {
          "name": "addresses",
          "type": "address[]",
          "internalType": "address[]"
        },
        {
          "name": "whitelisted_",
          "type": "bool",
          "internalType": "bool"
        }
      ],
      "outputs": [],
      "stateMutability": "nonpayable"
    },
    {
      "type": "function",
      "name": "setAdministrator",
      "inputs": [
        {
          "name": "administrator",
          "type": "address",
          "internalType": "address"
        },
        {
          "name": "add",
          "type": "bool",
          "internalType": "bool"
        }
      ],
      "outputs": [],
      "stateMutability": "nonpayable"
    },
    {
      "type": "function",
      "name": "setBuyToLiquidateBuyerRestriction",
      "inputs": [
        {
          "name": "perpId",
          "type": "uint256",
          "internalType": "uint256"
        },
        {
          "name": "restrictBuyers",
          "type": "bool",
          "internalType": "bool"
        }
      ],
      "outputs": [],
      "stateMutability": "nonpayable"
    },
    {
      "type": "function",
      "name": "setBuyToLiquidateParams",
      "inputs": [
        {
          "name": "perpId",
          "type": "uint256",
          "internalType": "uint256"
        },
        {
          "name": "insAmtPer100K",
          "type": "uint256",
          "internalType": "uint256"
        },
        {
          "name": "userAmtPer100K",
          "type": "uint256",
          "internalType": "uint256"
        },
        {
          "name": "buyerAmtPer100K",
          "type": "uint256",
          "internalType": "uint256"
        }
      ],
      "outputs": [],
      "stateMutability": "nonpayable"
    },
    {
      "type": "function",
      "name": "setBuyToLiquidatePriceThreshold",
      "inputs": [
        {
          "name": "perpId",
          "type": "uint256",
          "internalType": "uint256"
        },
        {
          "name": "thresholdPer100K",
          "type": "uint256",
          "internalType": "uint256"
        }
      ],
      "outputs": [],
      "stateMutability": "nonpayable"
    },
    {
      "type": "function",
      "name": "setContractPaused",
      "inputs": [
        {
          "name": "perpId",
          "type": "uint256",
          "internalType": "uint256"
        },
        {
          "name": "paused",
          "type": "bool",
          "internalType": "bool"
        }
      ],
      "outputs": [],
      "stateMutability": "nonpayable"
    },
    {
      "type": "function",
      "name": "setDcpBorrowThreshold",
      "inputs": [
        {
          "name": "perpId",
          "type": "uint256",
          "internalType": "uint256"
        },
        {
          "name": "threshHdths",
          "type": "uint256",
          "internalType": "uint256"
        }
      ],
      "outputs": [],
      "stateMutability": "nonpayable"
    },
    {
      "type": "function",
      "name": "setExchangeHalted",
      "inputs": [
        {
          "name": "halted",
          "type": "bool",
          "internalType": "bool"
        }
      ],
      "outputs": [],
      "stateMutability": "nonpayable"
    },
    {
      "type": "function",
      "name": "setFeeParams",
      "inputs": [
        {
          "name": "perpId",
          "type": "uint256",
          "internalType": "uint256"
        },
        {
          "name": "insAmtPer100K",
          "type": "uint256",
          "internalType": "uint256"
        }
      ],
      "outputs": [],
      "stateMutability": "nonpayable"
    },
    {
      "type": "function",
      "name": "setFreezeStatus",
      "inputs": [
        {
          "name": "account",
          "type": "address",
          "internalType": "address"
        },
        {
          "name": "status",
          "type": "uint8",
          "internalType": "enum FreezeStatusEnum"
        }
      ],
      "outputs": [],
      "stateMutability": "nonpayable"
    },
    {
      "type": "function",
      "name": "setFrozen",
      "inputs": [
        {
          "name": "account",
          "type": "address",
          "internalType": "address"
        },
        {
          "name": "status",
          "type": "uint8",
          "internalType": "enum FreezeStatusEnum"
        }
      ],
      "outputs": [],
      "stateMutability": "nonpayable"
    },
    {
      "type": "function",
      "name": "setFundingClampPct",
      "inputs": [
        {
          "name": "perpId",
          "type": "uint256",
          "internalType": "uint256"
        },
        {
          "name": "absFundingClampPctPer100K",
          "type": "uint256",
          "internalType": "uint256"
        }
      ],
      "outputs": [],
      "stateMutability": "nonpayable"
    },
    {
      "type": "function",
      "name": "setFundingSum",
      "inputs": [
        {
          "name": "perpId",
          "type": "uint256",
          "internalType": "uint256"
        },
        {
          "name": "fundingRatePct100k",
          "type": "int256",
          "internalType": "int256"
        },
        {
          "name": "pricePNS",
          "type": "uint32",
          "internalType": "uint32"
        },
        {
          "name": "allowOverwrite",
          "type": "bool",
          "internalType": "bool"
        },
        {
          "name": "revertOnFail",
          "type": "bool",
          "internalType": "bool"
        }
      ],
      "outputs": [],
      "stateMutability": "nonpayable"
    },
    {
      "type": "function",
      "name": "setFundingSumScalingExp",
      "inputs": [
        {
          "name": "perpId",
          "type": "uint256",
          "internalType": "uint256"
        },
        {
          "name": "fundingSumScalingExp",
          "type": "uint256",
          "internalType": "uint256"
        }
      ],
      "outputs": [],
      "stateMutability": "nonpayable"
    },
    {
      "type": "function",
      "name": "setIgnOracle",
      "inputs": [
        {
          "name": "perpId",
          "type": "uint256",
          "internalType": "uint256"
        },
        {
          "name": "ignOracle",
          "type": "bool",
          "internalType": "bool"
        }
      ],
      "outputs": [],
      "stateMutability": "nonpayable"
    },
    {
      "type": "function",
      "name": "setInitialMarginFraction",
      "inputs": [
        {
          "name": "perpId",
          "type": "uint256",
          "internalType": "uint256"
        },
        {
          "name": "initMarginFracHdths",
          "type": "uint256",
          "internalType": "uint256"
        }
      ],
      "outputs": [],
      "stateMutability": "nonpayable"
    },
    {
      "type": "function",
      "name": "setLastForwardedDescId",
      "inputs": [
        {
          "name": "accountId",
          "type": "uint256",
          "internalType": "uint256"
        },
        {
          "name": "newDescId",
          "type": "uint256",
          "internalType": "uint256"
        }
      ],
      "outputs": [],
      "stateMutability": "nonpayable"
    },
    {
      "type": "function",
      "name": "setLastForwardedDescIdAsOwner",
      "inputs": [
        {
          "name": "accountId",
          "type": "uint256",
          "internalType": "uint256"
        },
        {
          "name": "newDescId",
          "type": "uint256",
          "internalType": "uint256"
        }
      ],
      "outputs": [],
      "stateMutability": "nonpayable"
    },
    {
      "type": "function",
      "name": "setLastTriggeredDescId",
      "inputs": [
        {
          "name": "accountId",
          "type": "uint256",
          "internalType": "uint256"
        },
        {
          "name": "newDescId",
          "type": "uint256",
          "internalType": "uint256"
        }
      ],
      "outputs": [],
      "stateMutability": "nonpayable"
    },
    {
      "type": "function",
      "name": "setLastTriggeredDescIdAsOwner",
      "inputs": [
        {
          "name": "accountId",
          "type": "uint256",
          "internalType": "uint256"
        },
        {
          "name": "newDescId",
          "type": "uint256",
          "internalType": "uint256"
        }
      ],
      "outputs": [],
      "stateMutability": "nonpayable"
    },
    {
      "type": "function",
      "name": "setLinkDsVerifier",
      "inputs": [
        {
          "name": "verifierProxy",
          "type": "address",
          "internalType": "address"
        }
      ],
      "outputs": [],
      "stateMutability": "nonpayable"
    },
    {
      "type": "function",
      "name": "setLiquidationBuyer",
      "inputs": [
        {
          "name": "liquidationBuyer",
          "type": "address",
          "internalType": "address"
        },
        {
          "name": "add",
          "type": "bool",
          "internalType": "bool"
        }
      ],
      "outputs": [],
      "stateMutability": "nonpayable"
    },
    {
      "type": "function",
      "name": "setLiquidationParams",
      "inputs": [
        {
          "name": "perpId",
          "type": "uint256",
          "internalType": "uint256"
        },
        {
          "name": "insAmtPer100K",
          "type": "uint256",
          "internalType": "uint256"
        },
        {
          "name": "userAmtPer100K",
          "type": "uint256",
          "internalType": "uint256"
        }
      ],
      "outputs": [],
      "stateMutability": "nonpayable"
    },
    {
      "type": "function",
      "name": "setMaintenanceMarginFraction",
      "inputs": [
        {
          "name": "perpId",
          "type": "uint256",
          "internalType": "uint256"
        },
        {
          "name": "maintMarginFracHdths",
          "type": "uint256",
          "internalType": "uint256"
        }
      ],
      "outputs": [],
      "stateMutability": "nonpayable"
    },
    {
      "type": "function",
      "name": "setMakerFee",
      "inputs": [
        {
          "name": "perpId",
          "type": "uint256",
          "internalType": "uint256"
        },
        {
          "name": "makerFeePer100K",
          "type": "uint256",
          "internalType": "uint256"
        }
      ],
      "outputs": [],
      "stateMutability": "nonpayable"
    },
    {
      "type": "function",
      "name": "setMarginTol",
      "inputs": [
        {
          "name": "perpId",
          "type": "uint256",
          "internalType": "uint256"
        },
        {
          "name": "tolerance",
          "type": "uint256",
          "internalType": "uint256"
        },
        {
          "name": "decimals",
          "type": "uint256",
          "internalType": "uint256"
        }
      ],
      "outputs": [],
      "stateMutability": "nonpayable"
    },
    {
      "type": "function",
      "name": "setMaxOpenInterest",
      "inputs": [
        {
          "name": "perpId",
          "type": "uint256",
          "internalType": "uint256"
        },
        {
          "name": "maxOpenInterestLNS",
          "type": "uint256",
          "internalType": "uint256"
        }
      ],
      "outputs": [],
      "stateMutability": "nonpayable"
    },
    {
      "type": "function",
      "name": "setMinAccountOpenAmount",
      "inputs": [
        {
          "name": "amountCNS",
          "type": "uint256",
          "internalType": "uint256"
        }
      ],
      "outputs": [],
      "stateMutability": "nonpayable"
    },
    {
      "type": "function",
      "name": "setMinPost",
      "inputs": [
        {
          "name": "minPostCNS",
          "type": "uint256",
          "internalType": "uint256"
        }
      ],
      "outputs": [],
      "stateMutability": "nonpayable"
    },
    {
      "type": "function",
      "name": "setMinSettle",
      "inputs": [
        {
          "name": "minSettleCNS",
          "type": "uint256",
          "internalType": "uint256"
        }
      ],
      "outputs": [],
      "stateMutability": "nonpayable"
    },
    {
      "type": "function",
      "name": "setMinWithdrawLimit",
      "inputs": [
        {
          "name": "limitCNS",
          "type": "uint256",
          "internalType": "uint256"
        }
      ],
      "outputs": [],
      "stateMutability": "nonpayable"
    },
    {
      "type": "function",
      "name": "setMonitorAdministrator",
      "inputs": [
        {
          "name": "monitorAdministrator",
          "type": "address",
          "internalType": "address"
        },
        {
          "name": "add",
          "type": "bool",
          "internalType": "bool"
        }
      ],
      "outputs": [],
      "stateMutability": "nonpayable"
    },
    {
      "type": "function",
      "name": "setOverCollatDescentThreshold",
      "inputs": [
        {
          "name": "perpId",
          "type": "uint256",
          "internalType": "uint256"
        },
        {
          "name": "threshHdths",
          "type": "uint256",
          "internalType": "uint256"
        }
      ],
      "outputs": [],
      "stateMutability": "nonpayable"
    },
    {
      "type": "function",
      "name": "setPermissionedCancelParams",
      "inputs": [
        {
          "name": "perpId",
          "type": "uint256",
          "internalType": "uint256"
        },
        {
          "name": "permCancelMinOrders",
          "type": "uint256",
          "internalType": "uint256"
        },
        {
          "name": "permCancelSegment",
          "type": "uint256",
          "internalType": "uint256"
        }
      ],
      "outputs": [],
      "stateMutability": "nonpayable"
    },
    {
      "type": "function",
      "name": "setPerpLinkDsFeedId",
      "inputs": [
        {
          "name": "perpId",
          "type": "uint256",
          "internalType": "uint256"
        },
        {
          "name": "feedId",
          "type": "bytes32",
          "internalType": "bytes32"
        }
      ],
      "outputs": [],
      "stateMutability": "nonpayable"
    },
    {
      "type": "function",
      "name": "setPositionAdministrator",
      "inputs": [
        {
          "name": "positionAdministrator",
          "type": "address",
          "internalType": "address"
        },
        {
          "name": "add",
          "type": "bool",
          "internalType": "bool"
        }
      ],
      "outputs": [],
      "stateMutability": "nonpayable"
    },
    {
      "type": "function",
      "name": "setPriceAdministrator",
      "inputs": [
        {
          "name": "priceAdministrator",
          "type": "address",
          "internalType": "address"
        },
        {
          "name": "add",
          "type": "bool",
          "internalType": "bool"
        }
      ],
      "outputs": [],
      "stateMutability": "nonpayable"
    },
    {
      "type": "function",
      "name": "setPriceMaxAge",
      "inputs": [
        {
          "name": "perpId",
          "type": "uint256",
          "internalType": "uint256"
        },
        {
          "name": "maxAgeSec",
          "type": "uint256",
          "internalType": "uint256"
        }
      ],
      "outputs": [],
      "stateMutability": "nonpayable"
    },
    {
      "type": "function",
      "name": "setPriceTolPer100K",
      "inputs": [
        {
          "name": "perpId",
          "type": "uint256",
          "internalType": "uint256"
        },
        {
          "name": "tolerancePer100K",
          "type": "uint256",
          "internalType": "uint256"
        }
      ],
      "outputs": [],
      "stateMutability": "nonpayable"
    },
    {
      "type": "function",
      "name": "setPriceTolPer100KByOwner",
      "inputs": [
        {
          "name": "perpId",
          "type": "uint256",
          "internalType": "uint256"
        },
        {
          "name": "tolerancePer100K",
          "type": "uint256",
          "internalType": "uint256"
        }
      ],
      "outputs": [],
      "stateMutability": "nonpayable"
    },
    {
      "type": "function",
      "name": "setRecycleFee",
      "inputs": [
        {
          "name": "recycleFeeCNS",
          "type": "uint256",
          "internalType": "uint256"
        }
      ],
      "outputs": [],
      "stateMutability": "nonpayable"
    },
    {
      "type": "function",
      "name": "setTakerFee",
      "inputs": [
        {
          "name": "perpId",
          "type": "uint256",
          "internalType": "uint256"
        },
        {
          "name": "takerFeePer100K",
          "type": "uint256",
          "internalType": "uint256"
        }
      ],
      "outputs": [],
      "stateMutability": "nonpayable"
    },
    {
      "type": "function",
      "name": "setThousandthsTvlWRLS",
      "inputs": [
        {
          "name": "thousandthsTvl",
          "type": "uint256",
          "internalType": "uint256"
        }
      ],
      "outputs": [],
      "stateMutability": "nonpayable"
    },
    {
      "type": "function",
      "name": "setToleranceAdministrator",
      "inputs": [
        {
          "name": "toleranceAdministrator",
          "type": "address",
          "internalType": "address"
        },
        {
          "name": "add",
          "type": "bool",
          "internalType": "bool"
        }
      ],
      "outputs": [],
      "stateMutability": "nonpayable"
    },
    {
      "type": "function",
      "name": "setUnityDescentThreshold",
      "inputs": [
        {
          "name": "perpId",
          "type": "uint256",
          "internalType": "uint256"
        },
        {
          "name": "threshHdths",
          "type": "uint256",
          "internalType": "uint256"
        }
      ],
      "outputs": [],
      "stateMutability": "nonpayable"
    },
    {
      "type": "function",
      "name": "setWhitelistingEnabled",
      "inputs": [
        {
          "name": "enabled",
          "type": "bool",
          "internalType": "bool"
        }
      ],
      "outputs": [],
      "stateMutability": "nonpayable"
    },
    {
      "type": "function",
      "name": "setWithdrawBypass",
      "inputs": [
        {
          "name": "addr",
          "type": "address",
          "internalType": "address"
        },
        {
          "name": "enabled",
          "type": "bool",
          "internalType": "bool"
        }
      ],
      "outputs": [],
      "stateMutability": "nonpayable"
    },
    {
      "type": "function",
      "name": "transferOwnership",
      "inputs": [
        {
          "name": "newOwner",
          "type": "address",
          "internalType": "address"
        }
      ],
      "outputs": [],
      "stateMutability": "nonpayable"
    },
    {
      "type": "function",
      "name": "triggerUnwindContract",
      "inputs": [
        {
          "name": "perpId",
          "type": "uint256",
          "internalType": "uint256"
        }
      ],
      "outputs": [],
      "stateMutability": "nonpayable"
    },
    {
      "type": "function",
      "name": "unwindContract",
      "inputs": [
        {
          "name": "perpId",
          "type": "uint256",
          "internalType": "uint256"
        },
        {
          "name": "maxPosToUnwind",
          "type": "uint256",
          "internalType": "uint256"
        },
        {
          "name": "allowWithoutPayment",
          "type": "bool",
          "internalType": "bool"
        }
      ],
      "outputs": [],
      "stateMutability": "nonpayable"
    },
    {
      "type": "function",
      "name": "unwindContractByOwner",
      "inputs": [
        {
          "name": "perpId",
          "type": "uint256",
          "internalType": "uint256"
        },
        {
          "name": "maxPosToUnwind",
          "type": "uint256",
          "internalType": "uint256"
        },
        {
          "name": "allowWithoutPayment",
          "type": "bool",
          "internalType": "bool"
        }
      ],
      "outputs": [],
      "stateMutability": "nonpayable"
    },
    {
      "type": "function",
      "name": "updateMarkPricePNS",
      "inputs": [
        {
          "name": "perpId",
          "type": "uint256",
          "internalType": "uint256"
        },
        {
          "name": "markPricePNS",
          "type": "uint32",
          "internalType": "uint32"
        }
      ],
      "outputs": [],
      "stateMutability": "nonpayable"
    },
    {
      "type": "function",
      "name": "updateMarkPricePNSByOwner",
      "inputs": [
        {
          "name": "perpId",
          "type": "uint256",
          "internalType": "uint256"
        },
        {
          "name": "markPricePNS",
          "type": "uint32",
          "internalType": "uint32"
        }
      ],
      "outputs": [],
      "stateMutability": "nonpayable"
    },
    {
      "type": "function",
      "name": "updateOraclePrice",
      "inputs": [
        {
          "name": "perpId",
          "type": "uint256",
          "internalType": "uint256"
        },
        {
          "name": "unverifiedReport",
          "type": "bytes",
          "internalType": "bytes"
        }
      ],
      "outputs": [],
      "stateMutability": "nonpayable"
    },
    {
      "type": "function",
      "name": "upgradeTo",
      "inputs": [
        {
          "name": "newImplementation",
          "type": "address",
          "internalType": "address"
        }
      ],
      "outputs": [],
      "stateMutability": "nonpayable"
    },
    {
      "type": "function",
      "name": "upgradeToAndCall",
      "inputs": [
        {
          "name": "newImplementation",
          "type": "address",
          "internalType": "address"
        },
        {
          "name": "data",
          "type": "bytes",
          "internalType": "bytes"
        }
      ],
      "outputs": [],
      "stateMutability": "payable"
    },
    {
      "type": "function",
      "name": "whitelisted",
      "inputs": [
        {
          "name": "",
          "type": "address",
          "internalType": "address"
        }
      ],
      "outputs": [
        {
          "name": "",
          "type": "bool",
          "internalType": "bool"
        }
      ],
      "stateMutability": "view"
    },
    {
      "type": "function",
      "name": "whitelistingEnabled",
      "inputs": [],
      "outputs": [
        {
          "name": "",
          "type": "bool",
          "internalType": "bool"
        }
      ],
      "stateMutability": "view"
    },
    {
      "type": "function",
      "name": "withdrawCollateral",
      "inputs": [
        {
          "name": "amountCNS",
          "type": "uint256",
          "internalType": "uint256"
        }
      ],
      "outputs": [],
      "stateMutability": "nonpayable"
    },
    {
      "type": "function",
      "name": "withdrawFromProtocol",
      "inputs": [
        {
          "name": "amountCNS",
          "type": "uint256",
          "internalType": "uint256"
        }
      ],
      "outputs": [],
      "stateMutability": "nonpayable"
    },
    {
      "type": "function",
      "name": "xferAcctToProtocol",
      "inputs": [
        {
          "name": "amountCNS",
          "type": "uint256",
          "internalType": "uint256"
        }
      ],
      "outputs": [],
      "stateMutability": "nonpayable"
    },
    {
      "type": "function",
      "name": "xferPerpInsToProtocol",
      "inputs": [
        {
          "name": "perpId",
          "type": "uint256",
          "internalType": "uint256"
        },
        {
          "name": "amountCNS",
          "type": "uint256",
          "internalType": "uint256"
        }
      ],
      "outputs": [],
      "stateMutability": "nonpayable"
    },
    {
      "type": "function",
      "name": "xferProtocolToAcct",
      "inputs": [
        {
          "name": "accountId",
          "type": "uint256",
          "internalType": "uint256"
        },
        {
          "name": "amountCNS",
          "type": "uint256",
          "internalType": "uint256"
        }
      ],
      "outputs": [],
      "stateMutability": "nonpayable"
    },
    {
      "type": "function",
      "name": "xferProtocolToPerp",
      "inputs": [
        {
          "name": "perpId",
          "type": "uint256",
          "internalType": "uint256"
        },
        {
          "name": "amountCNS",
          "type": "uint256",
          "internalType": "uint256"
        },
        {
          "name": "insurance",
          "type": "bool",
          "internalType": "bool"
        }
      ],
      "outputs": [],
      "stateMutability": "nonpayable"
    },
    {
      "type": "function",
      "name": "xferProtocolToRecycleBal",
      "inputs": [
        {
          "name": "amountCNS",
          "type": "uint256",
          "internalType": "uint256"
        }
      ],
      "outputs": [],
      "stateMutability": "nonpayable"
    },
    {
      "type": "event",
      "name": "AccountCreated",
      "inputs": [
        {
          "name": "account",
          "type": "address",
          "indexed": false,
          "internalType": "address"
        },
        {
          "name": "id",
          "type": "uint256",
          "indexed": false,
          "internalType": "uint256"
        }
      ],
      "anonymous": false
    },
    {
      "type": "event",
      "name": "AccountFreeze",
      "inputs": [
        {
          "name": "accountId",
          "type": "uint256",
          "indexed": false,
          "internalType": "uint256"
        },
        {
          "name": "status",
          "type": "uint8",
          "indexed": false,
          "internalType": "enum FreezeStatusEnum"
        }
      ],
      "anonymous": false
    },
    {
      "type": "event",
      "name": "AccountFrozen",
      "inputs": [
        {
          "name": "status",
          "type": "uint8",
          "indexed": false,
          "internalType": "enum FreezeStatusEnum"
        }
      ],
      "anonymous": false
    },
    {
      "type": "event",
      "name": "AccountLiquidationCredit",
      "inputs": [
        {
          "name": "perpId",
          "type": "uint256",
          "indexed": false,
          "internalType": "uint256"
        },
        {
          "name": "accountId",
          "type": "uint256",
          "indexed": false,
          "internalType": "uint256"
        },
        {
          "name": "startBalanceCNS",
          "type": "uint256",
          "indexed": false,
          "internalType": "uint256"
        },
        {
          "name": "endBalanceCNS",
          "type": "uint256",
          "indexed": false,
          "internalType": "uint256"
        }
      ],
      "anonymous": false
    },
    {
      "type": "event",
      "name": "AdminChanged",
      "inputs": [
        {
          "name": "previousAdmin",
          "type": "address",
          "indexed": false,
          "internalType": "address"
        },
        {
          "name": "newAdmin",
          "type": "address",
          "indexed": false,
          "internalType": "address"
        }
      ],
      "anonymous": false
    },
    {
      "type": "event",
      "name": "AdministratorUpdated",
      "inputs": [
        {
          "name": "administrator",
          "type": "address",
          "indexed": false,
          "internalType": "address"
        },
        {
          "name": "added",
          "type": "bool",
          "indexed": false,
          "internalType": "bool"
        }
      ],
      "anonymous": false
    },
    {
      "type": "event",
      "name": "AmountExceedsAvailableBalance",
      "inputs": [
        {
          "name": "amountCNS",
          "type": "uint256",
          "indexed": false,
          "internalType": "uint256"
        },
        {
          "name": "availableBalanceCNS",
          "type": "uint256",
          "indexed": false,
          "internalType": "uint256"
        },
        {
          "name": "balanceCNS",
          "type": "uint256",
          "indexed": false,
          "internalType": "uint256"
        }
      ],
      "anonymous": false
    },
    {
      "type": "event",
      "name": "BankruptcyPricePreventsDeleverage",
      "inputs": [
        {
          "name": "perpId",
          "type": "uint256",
          "indexed": false,
          "internalType": "uint256"
        },
        {
          "name": "accountId",
          "type": "uint256",
          "indexed": false,
          "internalType": "uint256"
        },
        {
          "name": "positionType",
          "type": "uint8",
          "indexed": false,
          "internalType": "enum PositionEnum"
        },
        {
          "name": "bankruptcyPricePNS",
          "type": "uint256",
          "indexed": false,
          "internalType": "uint256"
        },
        {
          "name": "markPricePNS",
          "type": "uint256",
          "indexed": false,
          "internalType": "uint256"
        }
      ],
      "anonymous": false
    },
    {
      "type": "event",
      "name": "BeaconUpgraded",
      "inputs": [
        {
          "name": "beacon",
          "type": "address",
          "indexed": true,
          "internalType": "address"
        }
      ],
      "anonymous": false
    },
    {
      "type": "event",
      "name": "BlockStatusChanged",
      "inputs": [
        {
          "name": "addr",
          "type": "address",
          "indexed": true,
          "internalType": "address"
        },
        {
          "name": "blocked",
          "type": "bool",
          "indexed": false,
          "internalType": "bool"
        }
      ],
      "anonymous": false
    },
    {
      "type": "event",
      "name": "BorrowMarginNotMetAfterDecCollateral",
      "inputs": [
        {
          "name": "perpId",
          "type": "uint256",
          "indexed": false,
          "internalType": "uint256"
        },
        {
          "name": "accountId",
          "type": "uint256",
          "indexed": false,
          "internalType": "uint256"
        },
        {
          "name": "bmrCNS",
          "type": "int256",
          "indexed": false,
          "internalType": "int256"
        },
        {
          "name": "fmvAfterCNS",
          "type": "int256",
          "indexed": false,
          "internalType": "int256"
        }
      ],
      "anonymous": false
    },
    {
      "type": "event",
      "name": "BuyToLiquidateBuyerRestricted",
      "inputs": [
        {
          "name": "perpId",
          "type": "uint256",
          "indexed": false,
          "internalType": "uint256"
        },
        {
          "name": "buyer",
          "type": "address",
          "indexed": false,
          "internalType": "address"
        }
      ],
      "anonymous": false
    },
    {
      "type": "event",
      "name": "BuyToLiquidateParamsUpdated",
      "inputs": [
        {
          "name": "perpId",
          "type": "uint256",
          "indexed": false,
          "internalType": "uint256"
        },
        {
          "name": "insAmtPer100K",
          "type": "uint256",
          "indexed": false,
          "internalType": "uint256"
        },
        {
          "name": "userAmtPer100K",
          "type": "uint256",
          "indexed": false,
          "internalType": "uint256"
        },
        {
          "name": "buyerAmtPer100K",
          "type": "uint256",
          "indexed": false,
          "internalType": "uint256"
        },
        {
          "name": "protAmtPer100K",
          "type": "uint256",
          "indexed": false,
          "internalType": "uint256"
        }
      ],
      "anonymous": false
    },
    {
      "type": "event",
      "name": "BuyToLiquidateRestrictionUpdated",
      "inputs": [
        {
          "name": "perpId",
          "type": "uint256",
          "indexed": false,
          "internalType": "uint256"
        },
        {
          "name": "restrictBuyers",
          "type": "bool",
          "indexed": false,
          "internalType": "bool"
        }
      ],
      "anonymous": false
    },
    {
      "type": "event",
      "name": "BuyToLiquidateSettled",
      "inputs": [
        {
          "name": "perpId",
          "type": "uint256",
          "indexed": false,
          "internalType": "uint256"
        },
        {
          "name": "accountId",
          "type": "uint256",
          "indexed": false,
          "internalType": "uint256"
        },
        {
          "name": "orderType",
          "type": "uint8",
          "indexed": false,
          "internalType": "enum OrderEnum"
        },
        {
          "name": "realizedPricePNS",
          "type": "uint256",
          "indexed": false,
          "internalType": "uint256"
        },
        {
          "name": "lotLNS",
          "type": "uint256",
          "indexed": false,
          "internalType": "uint256"
        },
        {
          "name": "amountCNS",
          "type": "int256",
          "indexed": false,
          "internalType": "int256"
        },
        {
          "name": "balanceCNS",
          "type": "uint256",
          "indexed": false,
          "internalType": "uint256"
        }
      ],
      "anonymous": false
    },
    {
      "type": "event",
      "name": "BuyToLiquidateSlippageExceeded",
      "inputs": [
        {
          "name": "perpId",
          "type": "uint256",
          "indexed": false,
          "internalType": "uint256"
        },
        {
          "name": "posAccountId",
          "type": "uint256",
          "indexed": false,
          "internalType": "uint256"
        },
        {
          "name": "positionType",
          "type": "uint8",
          "indexed": false,
          "internalType": "enum PositionEnum"
        },
        {
          "name": "markPricePNS",
          "type": "uint256",
          "indexed": false,
          "internalType": "uint256"
        },
        {
          "name": "limitPricePNS",
          "type": "uint256",
          "indexed": false,
          "internalType": "uint256"
        }
      ],
      "anonymous": false
    },
    {
      "type": "event",
      "name": "BuyToLiquidateStarted",
      "inputs": [
        {
          "name": "perpId",
          "type": "uint256",
          "indexed": false,
          "internalType": "uint256"
        },
        {
          "name": "posAccountId",
          "type": "uint256",
          "indexed": false,
          "internalType": "uint256"
        },
        {
          "name": "liquidatorId",
          "type": "uint256",
          "indexed": false,
          "internalType": "uint256"
        },
        {
          "name": "requestedLotLNS",
          "type": "uint256",
          "indexed": false,
          "internalType": "uint256"
        },
        {
          "name": "leverageHdths",
          "type": "uint256",
          "indexed": false,
          "internalType": "uint256"
        },
        {
          "name": "limitPricePNS",
          "type": "uint256",
          "indexed": false,
          "internalType": "uint256"
        },
        {
          "name": "maxNegPnlCollatBPS",
          "type": "uint256",
          "indexed": false,
          "internalType": "uint256"
        }
      ],
      "anonymous": false
    },
    {
      "type": "event",
      "name": "BuyToLiquidateThresholdUpdated",
      "inputs": [
        {
          "name": "perpId",
          "type": "uint256",
          "indexed": false,
          "internalType": "uint256"
        },
        {
          "name": "thresholdPer100K",
          "type": "uint256",
          "indexed": false,
          "internalType": "uint256"
        }
      ],
      "anonymous": false
    },
    {
      "type": "event",
      "name": "CancelExistingInvalidCloseOrders",
      "inputs": [
        {
          "name": "lockedLotLNS",
          "type": "uint256",
          "indexed": false,
          "internalType": "uint256"
        },
        {
          "name": "lockedPositionType",
          "type": "uint8",
          "indexed": false,
          "internalType": "enum PositionEnum"
        },
        {
          "name": "newPositionType",
          "type": "uint8",
          "indexed": false,
          "internalType": "enum PositionEnum"
        }
      ],
      "anonymous": false
    },
    {
      "type": "event",
      "name": "CannotAdjustEntryPriceToDecCollateral",
      "inputs": [
        {
          "name": "perpId",
          "type": "uint256",
          "indexed": false,
          "internalType": "uint256"
        },
        {
          "name": "accountId",
          "type": "uint256",
          "indexed": false,
          "internalType": "uint256"
        },
        {
          "name": "amountCNS",
          "type": "uint256",
          "indexed": false,
          "internalType": "uint256"
        },
        {
          "name": "adjustmentAmountCNS",
          "type": "uint256",
          "indexed": false,
          "internalType": "uint256"
        },
        {
          "name": "entryPricePNS",
          "type": "uint256",
          "indexed": false,
          "internalType": "uint256"
        },
        {
          "name": "adjustedEntryPricePNS",
          "type": "int256",
          "indexed": false,
          "internalType": "int256"
        },
        {
          "name": "positionType",
          "type": "uint8",
          "indexed": false,
          "internalType": "enum PositionEnum"
        }
      ],
      "anonymous": false
    },
    {
      "type": "event",
      "name": "CantBuyToLiquidate",
      "inputs": [
        {
          "name": "perpId",
          "type": "uint256",
          "indexed": false,
          "internalType": "uint256"
        },
        {
          "name": "posAccountId",
          "type": "uint256",
          "indexed": false,
          "internalType": "uint256"
        },
        {
          "name": "positionType",
          "type": "uint8",
          "indexed": false,
          "internalType": "enum PositionEnum"
        },
        {
          "name": "markPricePNS",
          "type": "uint256",
          "indexed": false,
          "internalType": "uint256"
        },
        {
          "name": "bsLiqPricePNS",
          "type": "uint256",
          "indexed": false,
          "internalType": "uint256"
        },
        {
          "name": "liqPricePNS",
          "type": "uint256",
          "indexed": false,
          "internalType": "uint256"
        },
        {
          "name": "bkptPricePNS",
          "type": "uint256",
          "indexed": false,
          "internalType": "uint256"
        }
      ],
      "anonymous": false
    },
    {
      "type": "event",
      "name": "CantChangeCloseOrder",
      "inputs": [
        {
          "name": "perpId",
          "type": "uint256",
          "indexed": false,
          "internalType": "uint256"
        },
        {
          "name": "orderId",
          "type": "uint256",
          "indexed": false,
          "internalType": "uint256"
        },
        {
          "name": "accountId",
          "type": "uint256",
          "indexed": false,
          "internalType": "uint256"
        }
      ],
      "anonymous": false
    },
    {
      "type": "event",
      "name": "CantDeleverageAgainstOpposingPositions",
      "inputs": [
        {
          "name": "perpId",
          "type": "uint256",
          "indexed": false,
          "internalType": "uint256"
        },
        {
          "name": "accountId",
          "type": "uint256",
          "indexed": false,
          "internalType": "uint256"
        },
        {
          "name": "forceClose",
          "type": "bool",
          "indexed": false,
          "internalType": "bool"
        },
        {
          "name": "positionType",
          "type": "uint8",
          "indexed": false,
          "internalType": "enum PositionEnum"
        },
        {
          "name": "deleveragePricePNS",
          "type": "uint256",
          "indexed": false,
          "internalType": "uint256"
        },
        {
          "name": "sortedPositionIds",
          "type": "uint256[]",
          "indexed": false,
          "internalType": "uint256[]"
        }
      ],
      "anonymous": false
    },
    {
      "type": "event",
      "name": "CantLiquidatePosAboveMMR",
      "inputs": [
        {
          "name": "perpId",
          "type": "uint256",
          "indexed": false,
          "internalType": "uint256"
        },
        {
          "name": "posAccountId",
          "type": "uint256",
          "indexed": false,
          "internalType": "uint256"
        },
        {
          "name": "positionType",
          "type": "uint8",
          "indexed": false,
          "internalType": "enum PositionEnum"
        },
        {
          "name": "markPricePNS",
          "type": "uint256",
          "indexed": false,
          "internalType": "uint256"
        },
        {
          "name": "liqPricePNS",
          "type": "uint256",
          "indexed": false,
          "internalType": "uint256"
        }
      ],
      "anonymous": false
    },
    {
      "type": "event",
      "name": "ChangeExpiredOrderNeedsNewExpiry",
      "inputs": [
        {
          "name": "perpId",
          "type": "uint256",
          "indexed": false,
          "internalType": "uint256"
        },
        {
          "name": "orderId",
          "type": "uint256",
          "indexed": false,
          "internalType": "uint256"
        },
        {
          "name": "accountId",
          "type": "uint256",
          "indexed": false,
          "internalType": "uint256"
        },
        {
          "name": "expiryBlock",
          "type": "uint256",
          "indexed": false,
          "internalType": "uint256"
        }
      ],
      "anonymous": false
    },
    {
      "type": "event",
      "name": "ClearingExpiredOrder",
      "inputs": [
        {
          "name": "perpId",
          "type": "uint256",
          "indexed": false,
          "internalType": "uint256"
        },
        {
          "name": "accountId",
          "type": "uint256",
          "indexed": false,
          "internalType": "uint256"
        },
        {
          "name": "orderId",
          "type": "uint256",
          "indexed": false,
          "internalType": "uint256"
        },
        {
          "name": "lockedBalanceCNS",
          "type": "uint256",
          "indexed": false,
          "internalType": "uint256"
        },
        {
          "name": "recyclerAccountId",
          "type": "uint256",
          "indexed": false,
          "internalType": "uint256"
        },
        {
          "name": "recyclerAmountCNS",
          "type": "int256",
          "indexed": false,
          "internalType": "int256"
        },
        {
          "name": "recyclerBalanceCNS",
          "type": "uint256",
          "indexed": false,
          "internalType": "uint256"
        }
      ],
      "anonymous": false
    },
    {
      "type": "event",
      "name": "ClearingFrozenAccountOrder",
      "inputs": [
        {
          "name": "perpId",
          "type": "uint256",
          "indexed": false,
          "internalType": "uint256"
        },
        {
          "name": "accountId",
          "type": "uint256",
          "indexed": false,
          "internalType": "uint256"
        },
        {
          "name": "orderId",
          "type": "uint256",
          "indexed": false,
          "internalType": "uint256"
        },
        {
          "name": "lockedBalanceCNS",
          "type": "uint256",
          "indexed": false,
          "internalType": "uint256"
        },
        {
          "name": "recyclerAccountId",
          "type": "uint256",
          "indexed": false,
          "internalType": "uint256"
        },
        {
          "name": "recyclerAmountCNS",
          "type": "int256",
          "indexed": false,
          "internalType": "int256"
        },
        {
          "name": "recyclerBalanceCNS",
          "type": "uint256",
          "indexed": false,
          "internalType": "uint256"
        }
      ],
      "anonymous": false
    },
    {
      "type": "event",
      "name": "ClearingInvalidCloseOrder",
      "inputs": [
        {
          "name": "perpId",
          "type": "uint256",
          "indexed": false,
          "internalType": "uint256"
        },
        {
          "name": "accountId",
          "type": "uint256",
          "indexed": false,
          "internalType": "uint256"
        },
        {
          "name": "orderId",
          "type": "uint256",
          "indexed": false,
          "internalType": "uint256"
        },
        {
          "name": "lockedBalanceCNS",
          "type": "uint256",
          "indexed": false,
          "internalType": "uint256"
        },
        {
          "name": "recyclerAccountId",
          "type": "uint256",
          "indexed": false,
          "internalType": "uint256"
        },
        {
          "name": "recyclerAmountCNS",
          "type": "int256",
          "indexed": false,
          "internalType": "int256"
        },
        {
          "name": "recyclerBalanceCNS",
          "type": "uint256",
          "indexed": false,
          "internalType": "uint256"
        }
      ],
      "anonymous": false
    },
    {
      "type": "event",
      "name": "ClearingRemainingOrderLockBeyondBalance",
      "inputs": [
        {
          "name": "perpId",
          "type": "uint256",
          "indexed": false,
          "internalType": "uint256"
        },
        {
          "name": "accountId",
          "type": "uint256",
          "indexed": false,
          "internalType": "uint256"
        },
        {
          "name": "orderId",
          "type": "uint256",
          "indexed": false,
          "internalType": "uint256"
        },
        {
          "name": "pricePNS",
          "type": "uint256",
          "indexed": false,
          "internalType": "uint256"
        },
        {
          "name": "remainingLotLNS",
          "type": "uint256",
          "indexed": false,
          "internalType": "uint256"
        },
        {
          "name": "lockedBalanceCNS",
          "type": "uint256",
          "indexed": false,
          "internalType": "uint256"
        },
        {
          "name": "excessiveLockedBalCNS",
          "type": "uint256",
          "indexed": false,
          "internalType": "uint256"
        },
        {
          "name": "recyclerAccountId",
          "type": "uint256",
          "indexed": false,
          "internalType": "uint256"
        },
        {
          "name": "recyclerAmountCNS",
          "type": "int256",
          "indexed": false,
          "internalType": "int256"
        },
        {
          "name": "recyclerBalanceCNS",
          "type": "uint256",
          "indexed": false,
          "internalType": "uint256"
        }
      ],
      "anonymous": false
    },
    {
      "type": "event",
      "name": "ClearingSelfMatchingOrder",
      "inputs": [
        {
          "name": "perpId",
          "type": "uint256",
          "indexed": false,
          "internalType": "uint256"
        },
        {
          "name": "accountId",
          "type": "uint256",
          "indexed": false,
          "internalType": "uint256"
        },
        {
          "name": "orderId",
          "type": "uint256",
          "indexed": false,
          "internalType": "uint256"
        },
        {
          "name": "lockedBalanceCNS",
          "type": "uint256",
          "indexed": false,
          "internalType": "uint256"
        },
        {
          "name": "recyclerAccountId",
          "type": "uint256",
          "indexed": false,
          "internalType": "uint256"
        },
        {
          "name": "recyclerAmountCNS",
          "type": "int256",
          "indexed": false,
          "internalType": "int256"
        },
        {
          "name": "recyclerBalanceCNS",
          "type": "uint256",
          "indexed": false,
          "internalType": "uint256"
        }
      ],
      "anonymous": false
    },
    {
      "type": "event",
      "name": "CloseOrderExceedsPosition",
      "inputs": [
        {
          "name": "posLotLNS",
          "type": "uint256",
          "indexed": false,
          "internalType": "uint256"
        },
        {
          "name": "orderLotLNS",
          "type": "uint256",
          "indexed": false,
          "internalType": "uint256"
        }
      ],
      "anonymous": false
    },
    {
      "type": "event",
      "name": "CloseOrderPositionMismatch",
      "inputs": [
        {
          "name": "positionType",
          "type": "uint8",
          "indexed": false,
          "internalType": "enum PositionEnum"
        },
        {
          "name": "orderType",
          "type": "uint8",
          "indexed": false,
          "internalType": "enum OrderEnum"
        }
      ],
      "anonymous": false
    },
    {
      "type": "event",
      "name": "CollateralDecreaseDeclined",
      "inputs": [
        {
          "name": "perpId",
          "type": "uint256",
          "indexed": false,
          "internalType": "uint256"
        },
        {
          "name": "accountId",
          "type": "uint256",
          "indexed": false,
          "internalType": "uint256"
        },
        {
          "name": "reason",
          "type": "string",
          "indexed": false,
          "internalType": "string"
        }
      ],
      "anonymous": false
    },
    {
      "type": "event",
      "name": "CollateralDecreaseRequestCancelled",
      "inputs": [
        {
          "name": "perpId",
          "type": "uint256",
          "indexed": false,
          "internalType": "uint256"
        },
        {
          "name": "accountId",
          "type": "uint256",
          "indexed": false,
          "internalType": "uint256"
        }
      ],
      "anonymous": false
    },
    {
      "type": "event",
      "name": "CollateralDecreaseRequestExpired",
      "inputs": [
        {
          "name": "perpId",
          "type": "uint256",
          "indexed": false,
          "internalType": "uint256"
        },
        {
          "name": "accountId",
          "type": "uint256",
          "indexed": false,
          "internalType": "uint256"
        },
        {
          "name": "expiryTS",
          "type": "uint256",
          "indexed": false,
          "internalType": "uint256"
        },
        {
          "name": "blockTS",
          "type": "uint256",
          "indexed": false,
          "internalType": "uint256"
        }
      ],
      "anonymous": false
    },
    {
      "type": "event",
      "name": "CollateralDecreaseRequested",
      "inputs": [
        {
          "name": "perpId",
          "type": "uint256",
          "indexed": false,
          "internalType": "uint256"
        },
        {
          "name": "accountId",
          "type": "uint256",
          "indexed": false,
          "internalType": "uint256"
        },
        {
          "name": "expiryTS",
          "type": "uint256",
          "indexed": false,
          "internalType": "uint256"
        },
        {
          "name": "amountCNS",
          "type": "uint256",
          "indexed": false,
          "internalType": "uint256"
        },
        {
          "name": "clampToMaximum",
          "type": "bool",
          "indexed": false,
          "internalType": "bool"
        },
        {
          "name": "positionType",
          "type": "uint8",
          "indexed": false,
          "internalType": "enum PositionEnum"
        },
        {
          "name": "entryPricePNS",
          "type": "uint256",
          "indexed": false,
          "internalType": "uint256"
        },
        {
          "name": "lotLNS",
          "type": "uint256",
          "indexed": false,
          "internalType": "uint256"
        }
      ],
      "anonymous": false
    },
    {
      "type": "event",
      "name": "CollateralDeposit",
      "inputs": [
        {
          "name": "accountId",
          "type": "uint256",
          "indexed": false,
          "internalType": "uint256"
        },
        {
          "name": "amountCNS",
          "type": "uint256",
          "indexed": false,
          "internalType": "uint256"
        },
        {
          "name": "balanceCNS",
          "type": "uint256",
          "indexed": false,
          "internalType": "uint256"
        }
      ],
      "anonymous": false
    },
    {
      "type": "event",
      "name": "CollateralWithdrawal",
      "inputs": [
        {
          "name": "accountId",
          "type": "uint256",
          "indexed": false,
          "internalType": "uint256"
        },
        {
          "name": "amountCNS",
          "type": "uint256",
          "indexed": false,
          "internalType": "uint256"
        },
        {
          "name": "balanceCNS",
          "type": "uint256",
          "indexed": false,
          "internalType": "uint256"
        }
      ],
      "anonymous": false
    },
    {
      "type": "event",
      "name": "ContractAdded",
      "inputs": [
        {
          "name": "perpId",
          "type": "uint256",
          "indexed": false,
          "internalType": "uint256"
        },
        {
          "name": "name",
          "type": "string",
          "indexed": false,
          "internalType": "string"
        },
        {
          "name": "symbol",
          "type": "string",
          "indexed": false,
          "internalType": "string"
        },
        {
          "name": "status",
          "type": "uint8",
          "indexed": false,
          "internalType": "enum PerpStatusEnum"
        },
        {
          "name": "basePricePNS",
          "type": "uint256",
          "indexed": false,
          "internalType": "uint256"
        },
        {
          "name": "priceDecimals",
          "type": "uint256",
          "indexed": false,
          "internalType": "uint256"
        },
        {
          "name": "lotDecimals",
          "type": "uint256",
          "indexed": false,
          "internalType": "uint256"
        },
        {
          "name": "takerFeePer100K",
          "type": "uint256",
          "indexed": false,
          "internalType": "uint256"
        },
        {
          "name": "makerFeePer100K",
          "type": "uint256",
          "indexed": false,
          "internalType": "uint256"
        },
        {
          "name": "initMarginFracHdths",
          "type": "uint256",
          "indexed": false,
          "internalType": "uint256"
        },
        {
          "name": "maintMarginFracHdths",
          "type": "uint256",
          "indexed": false,
          "internalType": "uint256"
        },
        {
          "name": "maxOpenInterestLNS",
          "type": "uint256",
          "indexed": false,
          "internalType": "uint256"
        },
        {
          "name": "unityDescentThreshHdths",
          "type": "uint256",
          "indexed": false,
          "internalType": "uint256"
        },
        {
          "name": "overColDescentThreshHdths",
          "type": "uint256",
          "indexed": false,
          "internalType": "uint256"
        },
        {
          "name": "dcpBorrowThreshHdths",
          "type": "uint256",
          "indexed": false,
          "internalType": "uint256"
        },
        {
          "name": "priceTolPer100K",
          "type": "uint256",
          "indexed": false,
          "internalType": "uint256"
        },
        {
          "name": "marginTol",
          "type": "uint256",
          "indexed": false,
          "internalType": "uint256"
        },
        {
          "name": "marginTolDecimals",
          "type": "uint256",
          "indexed": false,
          "internalType": "uint256"
        },
        {
          "name": "refPriceMaxAgeSec",
          "type": "uint256",
          "indexed": false,
          "internalType": "uint256"
        },
        {
          "name": "absFundingClampPctPer100K",
          "type": "uint256",
          "indexed": false,
          "internalType": "uint256"
        },
        {
          "name": "permCancelMinOrders",
          "type": "uint256",
          "indexed": false,
          "internalType": "uint256"
        },
        {
          "name": "permCancelSegment",
          "type": "uint256",
          "indexed": false,
          "internalType": "uint256"
        },
        {
          "name": "insAmtPer100K",
          "type": "uint256",
          "indexed": false,
          "internalType": "uint256"
        },
        {
          "name": "liqInsAmtPer100K",
          "type": "uint256",
          "indexed": false,
          "internalType": "uint256"
        },
        {
          "name": "liqUserAmtPer100K",
          "type": "uint256",
          "indexed": false,
          "internalType": "uint256"
        },
        {
          "name": "btlRestrictBuyers",
          "type": "bool",
          "indexed": false,
          "internalType": "bool"
        },
        {
          "name": "btlPriceThreshPer100K",
          "type": "uint256",
          "indexed": false,
          "internalType": "uint256"
        },
        {
          "name": "btlInsAmtPer100K",
          "type": "uint256",
          "indexed": false,
          "internalType": "uint256"
        },
        {
          "name": "btlUserAmtPer100K",
          "type": "uint256",
          "indexed": false,
          "internalType": "uint256"
        },
        {
          "name": "btlBuyerAmtPer100K",
          "type": "uint256",
          "indexed": false,
          "internalType": "uint256"
        },
        {
          "name": "numPerpetuals",
          "type": "uint256",
          "indexed": false,
          "internalType": "uint256"
        }
      ],
      "anonymous": false
    },
    {
      "type": "event",
      "name": "ContractLinkFeedUpdated",
      "inputs": [
        {
          "name": "perpId",
          "type": "uint256",
          "indexed": false,
          "internalType": "uint256"
        },
        {
          "name": "feedId",
          "type": "bytes32",
          "indexed": false,
          "internalType": "bytes32"
        }
      ],
      "anonymous": false
    },
    {
      "type": "event",
      "name": "ContractNotOperational",
      "inputs": [
        {
          "name": "perpId",
          "type": "uint256",
          "indexed": false,
          "internalType": "uint256"
        },
        {
          "name": "status",
          "type": "uint8",
          "indexed": false,
          "internalType": "enum PerpStatusEnum"
        }
      ],
      "anonymous": false
    },
    {
      "type": "event",
      "name": "ContractPaused",
      "inputs": [
        {
          "name": "perpId",
          "type": "uint256",
          "indexed": false,
          "internalType": "uint256"
        },
        {
          "name": "paused",
          "type": "bool",
          "indexed": false,
          "internalType": "bool"
        }
      ],
      "anonymous": false
    },
    {
      "type": "event",
      "name": "ContractRemoved",
      "inputs": [
        {
          "name": "perpId",
          "type": "uint256",
          "indexed": false,
          "internalType": "uint256"
        }
      ],
      "anonymous": false
    },
    {
      "type": "event",
      "name": "CrossesBook",
      "inputs": [
        {
          "name": "minAskOrMaxBidPNS",
          "type": "uint256",
          "indexed": false,
          "internalType": "uint256"
        },
        {
          "name": "maxOrdersChecked",
          "type": "bool",
          "indexed": false,
          "internalType": "bool"
        }
      ],
      "anonymous": false
    },
    {
      "type": "event",
      "name": "DcpBorrowThreshUpdated",
      "inputs": [
        {
          "name": "perpId",
          "type": "uint256",
          "indexed": false,
          "internalType": "uint256"
        },
        {
          "name": "threshHdths",
          "type": "uint256",
          "indexed": false,
          "internalType": "uint256"
        }
      ],
      "anonymous": false
    },
    {
      "type": "event",
      "name": "DecreaseCollateralBeyondMarkPrice",
      "inputs": [
        {
          "name": "perpId",
          "type": "uint256",
          "indexed": false,
          "internalType": "uint256"
        },
        {
          "name": "accountId",
          "type": "uint256",
          "indexed": false,
          "internalType": "uint256"
        },
        {
          "name": "positionType",
          "type": "uint8",
          "indexed": false,
          "internalType": "enum PositionEnum"
        },
        {
          "name": "impactAdjPricePNS",
          "type": "uint256",
          "indexed": false,
          "internalType": "uint256"
        },
        {
          "name": "markPricePNS",
          "type": "uint256",
          "indexed": false,
          "internalType": "uint256"
        }
      ],
      "anonymous": false
    },
    {
      "type": "event",
      "name": "DeleveragePositionListEmpty",
      "inputs": [
        {
          "name": "perpId",
          "type": "uint256",
          "indexed": false,
          "internalType": "uint256"
        },
        {
          "name": "accountId",
          "type": "uint256",
          "indexed": false,
          "internalType": "uint256"
        }
      ],
      "anonymous": false
    },
    {
      "type": "event",
      "name": "ExceedsLastExecutionBlock",
      "inputs": [
        {
          "name": "lastExecutionBlock",
          "type": "uint256",
          "indexed": false,
          "internalType": "uint256"
        }
      ],
      "anonymous": false
    },
    {
      "type": "event",
      "name": "ExchangeHalted",
      "inputs": [
        {
          "name": "halted",
          "type": "bool",
          "indexed": false,
          "internalType": "bool"
        }
      ],
      "anonymous": false
    },
    {
      "type": "event",
      "name": "ExchangeInitialized",
      "inputs": [
        {
          "name": "sender",
          "type": "address",
          "indexed": false,
          "internalType": "address"
        },
        {
          "name": "collateralToken",
          "type": "address",
          "indexed": false,
          "internalType": "address"
        },
        {
          "name": "collateralDecimals",
          "type": "uint256",
          "indexed": false,
          "internalType": "uint256"
        },
        {
          "name": "minAccountOpenCNS",
          "type": "uint256",
          "indexed": false,
          "internalType": "uint256"
        },
        {
          "name": "wrlsThousandthsTvl",
          "type": "uint256",
          "indexed": false,
          "internalType": "uint256"
        },
        {
          "name": "wrlsMinWithdrawLimitCNS",
          "type": "uint256",
          "indexed": false,
          "internalType": "uint256"
        },
        {
          "name": "recycleFeeCNS",
          "type": "uint256",
          "indexed": false,
          "internalType": "uint256"
        },
        {
          "name": "whitelistingEnabled",
          "type": "bool",
          "indexed": false,
          "internalType": "bool"
        }
      ],
      "anonymous": false
    },
    {
      "type": "event",
      "name": "FeeParamsUpdated",
      "inputs": [
        {
          "name": "perpId",
          "type": "uint256",
          "indexed": false,
          "internalType": "uint256"
        },
        {
          "name": "insAmtPer100K",
          "type": "uint256",
          "indexed": false,
          "internalType": "uint256"
        }
      ],
      "anonymous": false
    },
    {
      "type": "event",
      "name": "FundingClampPctUpdated",
      "inputs": [
        {
          "name": "perpId",
          "type": "uint256",
          "indexed": false,
          "internalType": "uint256"
        },
        {
          "name": "clampPctPer100k",
          "type": "uint256",
          "indexed": false,
          "internalType": "uint256"
        }
      ],
      "anonymous": false
    },
    {
      "type": "event",
      "name": "FundingEventCompleted",
      "inputs": [
        {
          "name": "perpId",
          "type": "uint256",
          "indexed": false,
          "internalType": "uint256"
        },
        {
          "name": "fundingEventBlock",
          "type": "uint256",
          "indexed": false,
          "internalType": "uint256"
        },
        {
          "name": "specifiedRatePct100k",
          "type": "int256",
          "indexed": false,
          "internalType": "int256"
        },
        {
          "name": "actualRatePct100k",
          "type": "int256",
          "indexed": false,
          "internalType": "int256"
        },
        {
          "name": "fundingPricePNS",
          "type": "uint256",
          "indexed": false,
          "internalType": "uint256"
        },
        {
          "name": "fundingPaymentPNS",
          "type": "int48",
          "indexed": false,
          "internalType": "int48"
        },
        {
          "name": "fundingSumPNS",
          "type": "int48",
          "indexed": false,
          "internalType": "int48"
        },
        {
          "name": "allowOverwrite",
          "type": "bool",
          "indexed": false,
          "internalType": "bool"
        }
      ],
      "anonymous": false
    },
    {
      "type": "event",
      "name": "FundingEventSetTooEarly",
      "inputs": [
        {
          "name": "perpId",
          "type": "uint256",
          "indexed": false,
          "internalType": "uint256"
        },
        {
          "name": "blockNumber",
          "type": "uint256",
          "indexed": false,
          "internalType": "uint256"
        },
        {
          "name": "fundingEventBlock",
          "type": "uint256",
          "indexed": false,
          "internalType": "uint256"
        }
      ],
      "anonymous": false
    },
    {
      "type": "event",
      "name": "FundingPriceExceedsTol",
      "inputs": [
        {
          "name": "perpId",
          "type": "uint256",
          "indexed": false,
          "internalType": "uint256"
        },
        {
          "name": "fundingPricePNS",
          "type": "uint256",
          "indexed": false,
          "internalType": "uint256"
        },
        {
          "name": "oraclePNS",
          "type": "uint256",
          "indexed": false,
          "internalType": "uint256"
        },
        {
          "name": "tolerancePer100k",
          "type": "uint256",
          "indexed": false,
          "internalType": "uint256"
        }
      ],
      "anonymous": false
    },
    {
      "type": "event",
      "name": "FundingSumAlreadySet",
      "inputs": [
        {
          "name": "perpId",
          "type": "uint256",
          "indexed": false,
          "internalType": "uint256"
        },
        {
          "name": "fundingEventBlock",
          "type": "uint256",
          "indexed": false,
          "internalType": "uint256"
        },
        {
          "name": "storageIndex",
          "type": "uint256",
          "indexed": false,
          "internalType": "uint256"
        },
        {
          "name": "fundingSumOffset",
          "type": "uint256",
          "indexed": false,
          "internalType": "uint256"
        }
      ],
      "anonymous": false
    },
    {
      "type": "event",
      "name": "FundingSumScalingExpUpdated",
      "inputs": [
        {
          "name": "perpId",
          "type": "uint256",
          "indexed": false,
          "internalType": "uint256"
        },
        {
          "name": "newExp",
          "type": "uint256",
          "indexed": false,
          "internalType": "uint256"
        }
      ],
      "anonymous": false
    },
    {
      "type": "event",
      "name": "IgnoreOracleUpdated",
      "inputs": [
        {
          "name": "perpId",
          "type": "uint256",
          "indexed": false,
          "internalType": "uint256"
        },
        {
          "name": "ignOracle",
          "type": "bool",
          "indexed": false,
          "internalType": "bool"
        }
      ],
      "anonymous": false
    },
    {
      "type": "event",
      "name": "ImmediateOrCancelExecuted",
      "inputs": [
        {
          "name": "unmatchedLotLNS",
          "type": "uint256",
          "indexed": false,
          "internalType": "uint256"
        },
        {
          "name": "totalLotLNS",
          "type": "uint256",
          "indexed": false,
          "internalType": "uint256"
        }
      ],
      "anonymous": false
    },
    {
      "type": "event",
      "name": "IncreasePositionCollateral",
      "inputs": [
        {
          "name": "perpId",
          "type": "uint256",
          "indexed": false,
          "internalType": "uint256"
        },
        {
          "name": "accountId",
          "type": "uint256",
          "indexed": false,
          "internalType": "uint256"
        },
        {
          "name": "positionDepositCNS",
          "type": "uint256",
          "indexed": false,
          "internalType": "uint256"
        },
        {
          "name": "amountCNS",
          "type": "uint256",
          "indexed": false,
          "internalType": "uint256"
        },
        {
          "name": "balanceCNS",
          "type": "uint256",
          "indexed": false,
          "internalType": "uint256"
        }
      ],
      "anonymous": false
    },
    {
      "type": "event",
      "name": "InitialMarginFractionUpdated",
      "inputs": [
        {
          "name": "perpId",
          "type": "uint256",
          "indexed": false,
          "internalType": "uint256"
        },
        {
          "name": "initMarginFracHdths",
          "type": "uint256",
          "indexed": false,
          "internalType": "uint256"
        }
      ],
      "anonymous": false
    },
    {
      "type": "event",
      "name": "Initialized",
      "inputs": [
        {
          "name": "version",
          "type": "uint8",
          "indexed": false,
          "internalType": "uint8"
        }
      ],
      "anonymous": false
    },
    {
      "type": "event",
      "name": "InsolventPositionCannotBeForcedClose",
      "inputs": [
        {
          "name": "perpId",
          "type": "uint256",
          "indexed": false,
          "internalType": "uint256"
        },
        {
          "name": "posAccountId",
          "type": "uint256",
          "indexed": false,
          "internalType": "uint256"
        },
        {
          "name": "positionType",
          "type": "uint8",
          "indexed": false,
          "internalType": "enum PositionEnum"
        },
        {
          "name": "bankruptcyPricePNS",
          "type": "uint256",
          "indexed": false,
          "internalType": "uint256"
        },
        {
          "name": "markPricePNS",
          "type": "uint256",
          "indexed": false,
          "internalType": "uint256"
        }
      ],
      "anonymous": false
    },
    {
      "type": "event",
      "name": "InsufficientFundsToDecCollateral",
      "inputs": [
        {
          "name": "perpId",
          "type": "uint256",
          "indexed": false,
          "internalType": "uint256"
        },
        {
          "name": "accountId",
          "type": "uint256",
          "indexed": false,
          "internalType": "uint256"
        },
        {
          "name": "amountCNS",
          "type": "uint256",
          "indexed": false,
          "internalType": "uint256"
        },
        {
          "name": "withdrawMaxCNS",
          "type": "uint256",
          "indexed": false,
          "internalType": "uint256"
        }
      ],
      "anonymous": false
    },
    {
      "type": "event",
      "name": "InsuficientFundsForRecycleFee",
      "inputs": [
        {
          "name": "perpId",
          "type": "uint256",
          "indexed": false,
          "internalType": "uint256"
        },
        {
          "name": "accountId",
          "type": "uint256",
          "indexed": false,
          "internalType": "uint256"
        },
        {
          "name": "balanceCNS",
          "type": "uint256",
          "indexed": false,
          "internalType": "uint256"
        },
        {
          "name": "lockedCNS",
          "type": "uint256",
          "indexed": false,
          "internalType": "uint256"
        },
        {
          "name": "recycleFeeCNS",
          "type": "uint256",
          "indexed": false,
          "internalType": "uint256"
        }
      ],
      "anonymous": false
    },
    {
      "type": "event",
      "name": "InsurancePaymentForSettlement",
      "inputs": [
        {
          "name": "perpId",
          "type": "uint256",
          "indexed": false,
          "internalType": "uint256"
        },
        {
          "name": "accountId",
          "type": "uint256",
          "indexed": false,
          "internalType": "uint256"
        },
        {
          "name": "insPaymentCNS",
          "type": "uint256",
          "indexed": false,
          "internalType": "uint256"
        }
      ],
      "anonymous": false
    },
    {
      "type": "event",
      "name": "InvalidAccountFrozenOrder",
      "inputs": [
        {
          "name": "orderType",
          "type": "uint8",
          "indexed": false,
          "internalType": "enum OrderDescEnum"
        },
        {
          "name": "immediateOrCancel",
          "type": "bool",
          "indexed": false,
          "internalType": "bool"
        }
      ],
      "anonymous": false
    },
    {
      "type": "event",
      "name": "InvalidBankruptcyPrice",
      "inputs": [
        {
          "name": "perpId",
          "type": "uint256",
          "indexed": false,
          "internalType": "uint256"
        },
        {
          "name": "accountId",
          "type": "uint256",
          "indexed": false,
          "internalType": "uint256"
        },
        {
          "name": "depositCNS",
          "type": "uint256",
          "indexed": false,
          "internalType": "uint256"
        },
        {
          "name": "posPricePNS",
          "type": "uint256",
          "indexed": false,
          "internalType": "uint256"
        },
        {
          "name": "liqLotLNS",
          "type": "uint256",
          "indexed": false,
          "internalType": "uint256"
        },
        {
          "name": "premiumPnlCNS",
          "type": "int256",
          "indexed": false,
          "internalType": "int256"
        }
      ],
      "anonymous": false
    },
    {
      "type": "event",
      "name": "InvalidExpiryBlock",
      "inputs": [
        {
          "name": "expiryBlock",
          "type": "uint256",
          "indexed": false,
          "internalType": "uint256"
        },
        {
          "name": "blockNumber",
          "type": "uint256",
          "indexed": false,
          "internalType": "uint256"
        }
      ],
      "anonymous": false
    },
    {
      "type": "event",
      "name": "InvalidLinkReportForContract",
      "inputs": [
        {
          "name": "perpId",
          "type": "uint256",
          "indexed": false,
          "internalType": "uint256"
        },
        {
          "name": "perpFeedId",
          "type": "bytes32",
          "indexed": false,
          "internalType": "bytes32"
        },
        {
          "name": "reportFeedId",
          "type": "bytes32",
          "indexed": false,
          "internalType": "bytes32"
        }
      ],
      "anonymous": false
    },
    {
      "type": "event",
      "name": "InvalidLinkReportVersion",
      "inputs": [
        {
          "name": "perpId",
          "type": "uint256",
          "indexed": false,
          "internalType": "uint256"
        },
        {
          "name": "reportVersion",
          "type": "uint256",
          "indexed": false,
          "internalType": "uint256"
        }
      ],
      "anonymous": false
    },
    {
      "type": "event",
      "name": "InvalidLiquidationPrice",
      "inputs": [
        {
          "name": "perpId",
          "type": "uint256",
          "indexed": false,
          "internalType": "uint256"
        },
        {
          "name": "accountId",
          "type": "uint256",
          "indexed": false,
          "internalType": "uint256"
        },
        {
          "name": "depositCNS",
          "type": "uint256",
          "indexed": false,
          "internalType": "uint256"
        },
        {
          "name": "posPricePNS",
          "type": "uint256",
          "indexed": false,
          "internalType": "uint256"
        },
        {
          "name": "liqLotLNS",
          "type": "uint256",
          "indexed": false,
          "internalType": "uint256"
        },
        {
          "name": "premiumPnlCNS",
          "type": "int256",
          "indexed": false,
          "internalType": "int256"
        }
      ],
      "anonymous": false
    },
    {
      "type": "event",
      "name": "InvalidOrderId",
      "inputs": [
        {
          "name": "orderId",
          "type": "uint256",
          "indexed": false,
          "internalType": "uint256"
        },
        {
          "name": "min",
          "type": "uint256",
          "indexed": false,
          "internalType": "uint256"
        },
        {
          "name": "max",
          "type": "uint256",
          "indexed": false,
          "internalType": "uint256"
        }
      ],
      "anonymous": false
    },
    {
      "type": "event",
      "name": "LastForwardedDescIdReset",
      "inputs": [
        {
          "name": "accountId",
          "type": "uint256",
          "indexed": false,
          "internalType": "uint256"
        },
        {
          "name": "newDescId",
          "type": "uint256",
          "indexed": false,
          "internalType": "uint256"
        }
      ],
      "anonymous": false
    },
    {
      "type": "event",
      "name": "LastTriggeredDescIdReset",
      "inputs": [
        {
          "name": "accountId",
          "type": "uint256",
          "indexed": false,
          "internalType": "uint256"
        },
        {
          "name": "newDescId",
          "type": "uint256",
          "indexed": false,
          "internalType": "uint256"
        }
      ],
      "anonymous": false
    },
    {
      "type": "event",
      "name": "LinkDatastreamConfigured",
      "inputs": [
        {
          "name": "verifierProxy",
          "type": "address",
          "indexed": false,
          "internalType": "address"
        }
      ],
      "anonymous": false
    },
    {
      "type": "event",
      "name": "LinkDsError",
      "inputs": [
        {
          "name": "perpId",
          "type": "uint256",
          "indexed": false,
          "internalType": "uint256"
        },
        {
          "name": "reason",
          "type": "string",
          "indexed": false,
          "internalType": "string"
        }
      ],
      "anonymous": false
    },
    {
      "type": "event",
      "name": "LinkDsError",
      "inputs": [
        {
          "name": "perpId",
          "type": "uint256",
          "indexed": false,
          "internalType": "uint256"
        },
        {
          "name": "lowLevelData",
          "type": "bytes",
          "indexed": false,
          "internalType": "bytes"
        }
      ],
      "anonymous": false
    },
    {
      "type": "event",
      "name": "LinkDsPanic",
      "inputs": [
        {
          "name": "perpId",
          "type": "uint256",
          "indexed": false,
          "internalType": "uint256"
        },
        {
          "name": "errorCode",
          "type": "uint256",
          "indexed": false,
          "internalType": "uint256"
        }
      ],
      "anonymous": false
    },
    {
      "type": "event",
      "name": "LinkPriceUpdated",
      "inputs": [
        {
          "name": "perpId",
          "type": "uint256",
          "indexed": false,
          "internalType": "uint256"
        },
        {
          "name": "oraclePricePNS",
          "type": "uint256",
          "indexed": false,
          "internalType": "uint256"
        },
        {
          "name": "timestamp",
          "type": "uint256",
          "indexed": false,
          "internalType": "uint256"
        }
      ],
      "anonymous": false
    },
    {
      "type": "event",
      "name": "LiquidationBuyerUpdated",
      "inputs": [
        {
          "name": "liquidationBuyer",
          "type": "address",
          "indexed": false,
          "internalType": "address"
        },
        {
          "name": "accountId",
          "type": "uint256",
          "indexed": false,
          "internalType": "uint256"
        },
        {
          "name": "added",
          "type": "bool",
          "indexed": false,
          "internalType": "bool"
        }
      ],
      "anonymous": false
    },
    {
      "type": "event",
      "name": "LiquidationParamsUpdated",
      "inputs": [
        {
          "name": "perpId",
          "type": "uint256",
          "indexed": false,
          "internalType": "uint256"
        },
        {
          "name": "insAmtPer100K",
          "type": "uint256",
          "indexed": false,
          "internalType": "uint256"
        },
        {
          "name": "liqAmtPer100K",
          "type": "uint256",
          "indexed": false,
          "internalType": "uint256"
        },
        {
          "name": "userAmtPer100K",
          "type": "uint256",
          "indexed": false,
          "internalType": "uint256"
        }
      ],
      "anonymous": false
    },
    {
      "type": "event",
      "name": "LotOutOfRange",
      "inputs": [
        {
          "name": "minLotLNS",
          "type": "uint256",
          "indexed": false,
          "internalType": "uint256"
        },
        {
          "name": "maxLotLNS",
          "type": "uint256",
          "indexed": false,
          "internalType": "uint256"
        }
      ],
      "anonymous": false
    },
    {
      "type": "event",
      "name": "MaintenanceMarginFractionUpdated",
      "inputs": [
        {
          "name": "perpId",
          "type": "uint256",
          "indexed": false,
          "internalType": "uint256"
        },
        {
          "name": "maintMarginFracHdths",
          "type": "uint256",
          "indexed": false,
          "internalType": "uint256"
        }
      ],
      "anonymous": false
    },
    {
      "type": "event",
      "name": "MakerFeeUpdated",
      "inputs": [
        {
          "name": "perpId",
          "type": "uint256",
          "indexed": false,
          "internalType": "uint256"
        },
        {
          "name": "makerFeePer100K",
          "type": "uint256",
          "indexed": false,
          "internalType": "uint256"
        }
      ],
      "anonymous": false
    },
    {
      "type": "event",
      "name": "MakerOrderFilled",
      "inputs": [
        {
          "name": "perpId",
          "type": "uint256",
          "indexed": false,
          "internalType": "uint256"
        },
        {
          "name": "accountId",
          "type": "uint256",
          "indexed": false,
          "internalType": "uint256"
        },
        {
          "name": "orderId",
          "type": "uint256",
          "indexed": false,
          "internalType": "uint256"
        },
        {
          "name": "pricePNS",
          "type": "uint256",
          "indexed": false,
          "internalType": "uint256"
        },
        {
          "name": "lotLNS",
          "type": "uint256",
          "indexed": false,
          "internalType": "uint256"
        },
        {
          "name": "feeCNS",
          "type": "uint256",
          "indexed": false,
          "internalType": "uint256"
        },
        {
          "name": "lockedBalanceCNS",
          "type": "uint256",
          "indexed": false,
          "internalType": "uint256"
        },
        {
          "name": "amountCNS",
          "type": "int256",
          "indexed": false,
          "internalType": "int256"
        },
        {
          "name": "balanceCNS",
          "type": "uint256",
          "indexed": false,
          "internalType": "uint256"
        }
      ],
      "anonymous": false
    },
    {
      "type": "event",
      "name": "MakerOrderSettlementFailed",
      "inputs": [
        {
          "name": "perpId",
          "type": "uint256",
          "indexed": false,
          "internalType": "uint256"
        },
        {
          "name": "accountId",
          "type": "uint256",
          "indexed": false,
          "internalType": "uint256"
        },
        {
          "name": "orderId",
          "type": "uint256",
          "indexed": false,
          "internalType": "uint256"
        },
        {
          "name": "orderType",
          "type": "uint8",
          "indexed": false,
          "internalType": "enum OrderEnum"
        },
        {
          "name": "pricePNS",
          "type": "uint256",
          "indexed": false,
          "internalType": "uint256"
        },
        {
          "name": "lotLNS",
          "type": "uint256",
          "indexed": false,
          "internalType": "uint256"
        },
        {
          "name": "maxNegPnlCollatBPS",
          "type": "uint256",
          "indexed": false,
          "internalType": "uint256"
        },
        {
          "name": "reason",
          "type": "uint256",
          "indexed": false,
          "internalType": "uint256"
        },
        {
          "name": "lockedBalanceCNS",
          "type": "uint256",
          "indexed": false,
          "internalType": "uint256"
        },
        {
          "name": "recyclerAccountId",
          "type": "uint256",
          "indexed": false,
          "internalType": "uint256"
        },
        {
          "name": "recyclerAmountCNS",
          "type": "int256",
          "indexed": false,
          "internalType": "int256"
        },
        {
          "name": "recyclerBalanceCNS",
          "type": "uint256",
          "indexed": false,
          "internalType": "uint256"
        }
      ],
      "anonymous": false
    },
    {
      "type": "event",
      "name": "MarginTolUpdated",
      "inputs": [
        {
          "name": "perpId",
          "type": "uint256",
          "indexed": false,
          "internalType": "uint256"
        },
        {
          "name": "tolerance",
          "type": "uint256",
          "indexed": false,
          "internalType": "uint256"
        },
        {
          "name": "decimals",
          "type": "uint256",
          "indexed": false,
          "internalType": "uint256"
        }
      ],
      "anonymous": false
    },
    {
      "type": "event",
      "name": "MarkExceedsTol",
      "inputs": [
        {
          "name": "perpId",
          "type": "uint256",
          "indexed": false,
          "internalType": "uint256"
        },
        {
          "name": "markPNS",
          "type": "uint256",
          "indexed": false,
          "internalType": "uint256"
        },
        {
          "name": "spotOraclePricePNS",
          "type": "uint256",
          "indexed": false,
          "internalType": "uint256"
        },
        {
          "name": "tolerancePer100k",
          "type": "uint256",
          "indexed": false,
          "internalType": "uint256"
        }
      ],
      "anonymous": false
    },
    {
      "type": "event",
      "name": "MarkPriceAgeExceedsMax",
      "inputs": [
        {
          "name": "perpId",
          "type": "uint256",
          "indexed": false,
          "internalType": "uint256"
        },
        {
          "name": "markTimestamp",
          "type": "uint256",
          "indexed": false,
          "internalType": "uint256"
        },
        {
          "name": "timestamp",
          "type": "uint256",
          "indexed": false,
          "internalType": "uint256"
        },
        {
          "name": "maxAgeSec",
          "type": "uint256",
          "indexed": false,
          "internalType": "uint256"
        }
      ],
      "anonymous": false
    },
    {
      "type": "event",
      "name": "MarkUpdated",
      "inputs": [
        {
          "name": "perpId",
          "type": "uint256",
          "indexed": false,
          "internalType": "uint256"
        },
        {
          "name": "pricePNS",
          "type": "uint256",
          "indexed": false,
          "internalType": "uint256"
        }
      ],
      "anonymous": false
    },
    {
      "type": "event",
      "name": "MaxMatchesReached",
      "inputs": [],
      "anonymous": false
    },
    {
      "type": "event",
      "name": "MaxOpenInterestUpdated",
      "inputs": [
        {
          "name": "perpId",
          "type": "uint256",
          "indexed": false,
          "internalType": "uint256"
        },
        {
          "name": "maxOpenInterestLNS",
          "type": "uint256",
          "indexed": false,
          "internalType": "uint256"
        }
      ],
      "anonymous": false
    },
    {
      "type": "event",
      "name": "MaximumAccountOrders",
      "inputs": [
        {
          "name": "perpId",
          "type": "uint256",
          "indexed": false,
          "internalType": "uint256"
        },
        {
          "name": "accountId",
          "type": "uint256",
          "indexed": false,
          "internalType": "uint256"
        }
      ],
      "anonymous": false
    },
    {
      "type": "event",
      "name": "MinAccountOpenAmountUpdated",
      "inputs": [
        {
          "name": "minAccountOpenCNS",
          "type": "uint256",
          "indexed": false,
          "internalType": "uint256"
        }
      ],
      "anonymous": false
    },
    {
      "type": "event",
      "name": "MinPostUpdated",
      "inputs": [
        {
          "name": "minPostCNS",
          "type": "uint256",
          "indexed": false,
          "internalType": "uint256"
        }
      ],
      "anonymous": false
    },
    {
      "type": "event",
      "name": "MinSettleUpdated",
      "inputs": [
        {
          "name": "minSettleCNS",
          "type": "uint256",
          "indexed": false,
          "internalType": "uint256"
        }
      ],
      "anonymous": false
    },
    {
      "type": "event",
      "name": "MonitorAdministratorUpdated",
      "inputs": [
        {
          "name": "monitorAdministrator",
          "type": "address",
          "indexed": false,
          "internalType": "address"
        },
        {
          "name": "added",
          "type": "bool",
          "indexed": false,
          "internalType": "bool"
        }
      ],
      "anonymous": false
    },
    {
      "type": "event",
      "name": "MonitorPauseAttempted",
      "inputs": [
        {
          "name": "perpId",
          "type": "uint256",
          "indexed": false,
          "internalType": "uint256"
        },
        {
          "name": "actualStatus",
          "type": "uint8",
          "indexed": false,
          "internalType": "enum PerpStatusEnum"
        },
        {
          "name": "transitioned",
          "type": "bool",
          "indexed": false,
          "internalType": "bool"
        }
      ],
      "anonymous": false
    },
    {
      "type": "event",
      "name": "OracleAgeExceedsMax",
      "inputs": [
        {
          "name": "perpId",
          "type": "uint256",
          "indexed": false,
          "internalType": "uint256"
        },
        {
          "name": "oracleTimestamp",
          "type": "uint256",
          "indexed": false,
          "internalType": "uint256"
        },
        {
          "name": "timestamp",
          "type": "uint256",
          "indexed": false,
          "internalType": "uint256"
        },
        {
          "name": "maxAgeSec",
          "type": "uint256",
          "indexed": false,
          "internalType": "uint256"
        }
      ],
      "anonymous": false
    },
    {
      "type": "event",
      "name": "OracleDisabled",
      "inputs": [
        {
          "name": "perpId",
          "type": "uint256",
          "indexed": false,
          "internalType": "uint256"
        }
      ],
      "anonymous": false
    },
    {
      "type": "event",
      "name": "OrderBatchCompleted",
      "inputs": [
        {
          "name": "gasLeft",
          "type": "uint256",
          "indexed": false,
          "internalType": "uint256"
        }
      ],
      "anonymous": false
    },
    {
      "type": "event",
      "name": "OrderCancelled",
      "inputs": [
        {
          "name": "lockedBalanceCNS",
          "type": "uint256",
          "indexed": false,
          "internalType": "uint256"
        },
        {
          "name": "amountCNS",
          "type": "int256",
          "indexed": false,
          "internalType": "int256"
        },
        {
          "name": "balanceCNS",
          "type": "uint256",
          "indexed": false,
          "internalType": "uint256"
        }
      ],
      "anonymous": false
    },
    {
      "type": "event",
      "name": "OrderCancelledByAdmin",
      "inputs": [
        {
          "name": "perpId",
          "type": "uint256",
          "indexed": false,
          "internalType": "uint256"
        },
        {
          "name": "accountId",
          "type": "uint256",
          "indexed": false,
          "internalType": "uint256"
        },
        {
          "name": "orderId",
          "type": "uint256",
          "indexed": false,
          "internalType": "uint256"
        },
        {
          "name": "lockedBalanceCNS",
          "type": "uint256",
          "indexed": false,
          "internalType": "uint256"
        }
      ],
      "anonymous": false
    },
    {
      "type": "event",
      "name": "OrderCancelledByLiquidator",
      "inputs": [
        {
          "name": "perpId",
          "type": "uint256",
          "indexed": false,
          "internalType": "uint256"
        },
        {
          "name": "accountId",
          "type": "uint256",
          "indexed": false,
          "internalType": "uint256"
        },
        {
          "name": "orderId",
          "type": "uint256",
          "indexed": false,
          "internalType": "uint256"
        },
        {
          "name": "lockedBalanceCNS",
          "type": "uint256",
          "indexed": false,
          "internalType": "uint256"
        }
      ],
      "anonymous": false
    },
    {
      "type": "event",
      "name": "OrderChanged",
      "inputs": [
        {
          "name": "orderId",
          "type": "uint256",
          "indexed": false,
          "internalType": "uint256"
        },
        {
          "name": "pricePNS",
          "type": "uint256",
          "indexed": false,
          "internalType": "uint256"
        },
        {
          "name": "lotLNS",
          "type": "uint256",
          "indexed": false,
          "internalType": "uint256"
        },
        {
          "name": "expiryBlock",
          "type": "uint256",
          "indexed": false,
          "internalType": "uint256"
        },
        {
          "name": "lockedBalanceCNS",
          "type": "uint256",
          "indexed": false,
          "internalType": "uint256"
        },
        {
          "name": "balanceCNS",
          "type": "uint256",
          "indexed": false,
          "internalType": "uint256"
        }
      ],
      "anonymous": false
    },
    {
      "type": "event",
      "name": "OrderDescIdTooLow",
      "inputs": [
        {
          "name": "lastOrderDescId",
          "type": "uint256",
          "indexed": false,
          "internalType": "uint256"
        }
      ],
      "anonymous": false
    },
    {
      "type": "event",
      "name": "OrderDoesNotExist",
      "inputs": [
        {
          "name": "perpId",
          "type": "uint256",
          "indexed": false,
          "internalType": "uint256"
        },
        {
          "name": "orderId",
          "type": "uint256",
          "indexed": false,
          "internalType": "uint256"
        }
      ],
      "anonymous": false
    },
    {
      "type": "event",
      "name": "OrderForwardingNotAllowed",
      "inputs": [],
      "anonymous": false
    },
    {
      "type": "event",
      "name": "OrderForwardingUpdated",
      "inputs": [
        {
          "name": "accountId",
          "type": "uint256",
          "indexed": false,
          "internalType": "uint256"
        },
        {
          "name": "allowed",
          "type": "bool",
          "indexed": false,
          "internalType": "bool"
        }
      ],
      "anonymous": false
    },
    {
      "type": "event",
      "name": "OrderPlaced",
      "inputs": [
        {
          "name": "orderId",
          "type": "uint256",
          "indexed": false,
          "internalType": "uint256"
        },
        {
          "name": "lotLNS",
          "type": "uint256",
          "indexed": false,
          "internalType": "uint256"
        },
        {
          "name": "lockedBalanceCNS",
          "type": "uint256",
          "indexed": false,
          "internalType": "uint256"
        },
        {
          "name": "amountCNS",
          "type": "int256",
          "indexed": false,
          "internalType": "int256"
        },
        {
          "name": "balanceCNS",
          "type": "uint256",
          "indexed": false,
          "internalType": "uint256"
        }
      ],
      "anonymous": false
    },
    {
      "type": "event",
      "name": "OrderPostFailed",
      "inputs": [
        {
          "name": "reason",
          "type": "uint256",
          "indexed": false,
          "internalType": "uint256"
        }
      ],
      "anonymous": false
    },
    {
      "type": "event",
      "name": "OrderRequest",
      "inputs": [
        {
          "name": "perpId",
          "type": "uint256",
          "indexed": false,
          "internalType": "uint256"
        },
        {
          "name": "accountId",
          "type": "uint256",
          "indexed": false,
          "internalType": "uint256"
        },
        {
          "name": "orderDescId",
          "type": "uint256",
          "indexed": false,
          "internalType": "uint256"
        },
        {
          "name": "orderId",
          "type": "uint256",
          "indexed": false,
          "internalType": "uint256"
        },
        {
          "name": "orderType",
          "type": "uint8",
          "indexed": false,
          "internalType": "enum OrderDescEnum"
        },
        {
          "name": "pricePNS",
          "type": "uint256",
          "indexed": false,
          "internalType": "uint256"
        },
        {
          "name": "lotLNS",
          "type": "uint256",
          "indexed": false,
          "internalType": "uint256"
        },
        {
          "name": "expiryBlock",
          "type": "uint256",
          "indexed": false,
          "internalType": "uint256"
        },
        {
          "name": "postOnly",
          "type": "bool",
          "indexed": false,
          "internalType": "bool"
        },
        {
          "name": "fillOrKill",
          "type": "bool",
          "indexed": false,
          "internalType": "bool"
        },
        {
          "name": "immediateOrCancel",
          "type": "bool",
          "indexed": false,
          "internalType": "bool"
        },
        {
          "name": "maxMatches",
          "type": "uint256",
          "indexed": false,
          "internalType": "uint256"
        },
        {
          "name": "leverageHdths",
          "type": "uint256",
          "indexed": false,
          "internalType": "uint256"
        },
        {
          "name": "lastExecutionBlock",
          "type": "uint256",
          "indexed": false,
          "internalType": "uint256"
        },
        {
          "name": "amountCNS",
          "type": "uint256",
          "indexed": false,
          "internalType": "uint256"
        },
        {
          "name": "maxNegPnlCollatBPS",
          "type": "uint256",
          "indexed": false,
          "internalType": "uint256"
        },
        {
          "name": "gasLeft",
          "type": "uint256",
          "indexed": false,
          "internalType": "uint256"
        }
      ],
      "anonymous": false
    },
    {
      "type": "event",
      "name": "OrderSettlementImpliesInsolvent",
      "inputs": [
        {
          "name": "perpId",
          "type": "uint256",
          "indexed": false,
          "internalType": "uint256"
        },
        {
          "name": "accountId",
          "type": "uint256",
          "indexed": false,
          "internalType": "uint256"
        },
        {
          "name": "orderType",
          "type": "uint8",
          "indexed": false,
          "internalType": "enum OrderEnum"
        },
        {
          "name": "pricePNS",
          "type": "uint256",
          "indexed": false,
          "internalType": "uint256"
        },
        {
          "name": "lotLNS",
          "type": "uint256",
          "indexed": false,
          "internalType": "uint256"
        },
        {
          "name": "perpPositionBalCNS",
          "type": "uint256",
          "indexed": false,
          "internalType": "uint256"
        },
        {
          "name": "perpInsuranceBalCNS",
          "type": "uint256",
          "indexed": false,
          "internalType": "uint256"
        },
        {
          "name": "addedPosCollatReqCNS",
          "type": "uint256",
          "indexed": false,
          "internalType": "uint256"
        },
        {
          "name": "requestedAmountCNS",
          "type": "uint256",
          "indexed": false,
          "internalType": "uint256"
        }
      ],
      "anonymous": false
    },
    {
      "type": "event",
      "name": "OrderSizeExceedsAvailableSize",
      "inputs": [
        {
          "name": "orderLotLNS",
          "type": "uint256",
          "indexed": false,
          "internalType": "uint256"
        },
        {
          "name": "availableLotLNS",
          "type": "uint256",
          "indexed": false,
          "internalType": "uint256"
        },
        {
          "name": "positionLotLNS",
          "type": "uint256",
          "indexed": false,
          "internalType": "uint256"
        }
      ],
      "anonymous": false
    },
    {
      "type": "event",
      "name": "OverCollatDescentThreshUpdated",
      "inputs": [
        {
          "name": "perpId",
          "type": "uint256",
          "indexed": false,
          "internalType": "uint256"
        },
        {
          "name": "threshHdths",
          "type": "uint256",
          "indexed": false,
          "internalType": "uint256"
        }
      ],
      "anonymous": false
    },
    {
      "type": "event",
      "name": "OwnershipTransferStarted",
      "inputs": [
        {
          "name": "previousOwner",
          "type": "address",
          "indexed": true,
          "internalType": "address"
        },
        {
          "name": "newOwner",
          "type": "address",
          "indexed": true,
          "internalType": "address"
        }
      ],
      "anonymous": false
    },
    {
      "type": "event",
      "name": "OwnershipTransferred",
      "inputs": [
        {
          "name": "previousOwner",
          "type": "address",
          "indexed": true,
          "internalType": "address"
        },
        {
          "name": "newOwner",
          "type": "address",
          "indexed": true,
          "internalType": "address"
        }
      ],
      "anonymous": false
    },
    {
      "type": "event",
      "name": "PermissonedCancelParamsUpdated",
      "inputs": [
        {
          "name": "cancelMinOrders",
          "type": "uint256",
          "indexed": false,
          "internalType": "uint256"
        },
        {
          "name": "cancelSegment",
          "type": "uint256",
          "indexed": false,
          "internalType": "uint256"
        }
      ],
      "anonymous": false
    },
    {
      "type": "event",
      "name": "PerpPositionBalCreditPositiveSevere",
      "inputs": [
        {
          "name": "perpId",
          "type": "uint256",
          "indexed": false,
          "internalType": "uint256"
        },
        {
          "name": "accountId",
          "type": "uint256",
          "indexed": false,
          "internalType": "uint256"
        },
        {
          "name": "realizedPricePNS",
          "type": "uint256",
          "indexed": false,
          "internalType": "uint256"
        },
        {
          "name": "lotLNS",
          "type": "uint256",
          "indexed": false,
          "internalType": "uint256"
        },
        {
          "name": "userProceedsToPosition",
          "type": "bool",
          "indexed": false,
          "internalType": "bool"
        },
        {
          "name": "buyToLiquidate",
          "type": "bool",
          "indexed": false,
          "internalType": "bool"
        },
        {
          "name": "creditPerpBalCNS",
          "type": "int256",
          "indexed": false,
          "internalType": "int256"
        }
      ],
      "anonymous": false
    },
    {
      "type": "event",
      "name": "PositionAdministratorUpdated",
      "inputs": [
        {
          "name": "positionAdministrator",
          "type": "address",
          "indexed": false,
          "internalType": "address"
        },
        {
          "name": "added",
          "type": "bool",
          "indexed": false,
          "internalType": "bool"
        }
      ],
      "anonymous": false
    },
    {
      "type": "event",
      "name": "PositionClosed",
      "inputs": [
        {
          "name": "perpId",
          "type": "uint256",
          "indexed": false,
          "internalType": "uint256"
        },
        {
          "name": "accountId",
          "type": "uint256",
          "indexed": false,
          "internalType": "uint256"
        },
        {
          "name": "positionType",
          "type": "uint8",
          "indexed": false,
          "internalType": "enum PositionEnum"
        },
        {
          "name": "pricePNS",
          "type": "uint256",
          "indexed": false,
          "internalType": "uint256"
        },
        {
          "name": "deltaPnlCNS",
          "type": "int256",
          "indexed": false,
          "internalType": "int256"
        },
        {
          "name": "fundingCNS",
          "type": "int256",
          "indexed": false,
          "internalType": "int256"
        }
      ],
      "anonymous": false
    },
    {
      "type": "event",
      "name": "PositionCollateralDecreased",
      "inputs": [
        {
          "name": "perpId",
          "type": "uint256",
          "indexed": false,
          "internalType": "uint256"
        },
        {
          "name": "accountId",
          "type": "uint256",
          "indexed": false,
          "internalType": "uint256"
        },
        {
          "name": "positionType",
          "type": "uint8",
          "indexed": false,
          "internalType": "enum PositionEnum"
        },
        {
          "name": "markPricePNS",
          "type": "uint256",
          "indexed": false,
          "internalType": "uint256"
        },
        {
          "name": "impactAdjPricePNS",
          "type": "uint256",
          "indexed": false,
          "internalType": "uint256"
        },
        {
          "name": "startDepositCNS",
          "type": "uint256",
          "indexed": false,
          "internalType": "uint256"
        },
        {
          "name": "endDepositCNS",
          "type": "uint256",
          "indexed": false,
          "internalType": "uint256"
        },
        {
          "name": "startEntryPricePNS",
          "type": "uint256",
          "indexed": false,
          "internalType": "uint256"
        },
        {
          "name": "endEntryPricePNS",
          "type": "uint256",
          "indexed": false,
          "internalType": "uint256"
        },
        {
          "name": "effBmfHdths",
          "type": "uint256",
          "indexed": false,
          "internalType": "uint256"
        },
        {
          "name": "decreaseCNS",
          "type": "uint256",
          "indexed": false,
          "internalType": "uint256"
        },
        {
          "name": "balanceCNS",
          "type": "uint256",
          "indexed": false,
          "internalType": "uint256"
        }
      ],
      "anonymous": false
    },
    {
      "type": "event",
      "name": "PositionDecreased",
      "inputs": [
        {
          "name": "perpId",
          "type": "uint256",
          "indexed": false,
          "internalType": "uint256"
        },
        {
          "name": "accountId",
          "type": "uint256",
          "indexed": false,
          "internalType": "uint256"
        },
        {
          "name": "positionType",
          "type": "uint8",
          "indexed": false,
          "internalType": "enum PositionEnum"
        },
        {
          "name": "startDepositCNS",
          "type": "uint256",
          "indexed": false,
          "internalType": "uint256"
        },
        {
          "name": "endDepositCNS",
          "type": "uint256",
          "indexed": false,
          "internalType": "uint256"
        },
        {
          "name": "startLotLNS",
          "type": "uint256",
          "indexed": false,
          "internalType": "uint256"
        },
        {
          "name": "endLotLNS",
          "type": "uint256",
          "indexed": false,
          "internalType": "uint256"
        },
        {
          "name": "deltaPnlCNS",
          "type": "int256",
          "indexed": false,
          "internalType": "int256"
        },
        {
          "name": "fundingCNS",
          "type": "int256",
          "indexed": false,
          "internalType": "int256"
        }
      ],
      "anonymous": false
    },
    {
      "type": "event",
      "name": "PositionDeleveraged",
      "inputs": [
        {
          "name": "perpId",
          "type": "uint256",
          "indexed": false,
          "internalType": "uint256"
        },
        {
          "name": "accountId",
          "type": "uint256",
          "indexed": false,
          "internalType": "uint256"
        },
        {
          "name": "forceClose",
          "type": "bool",
          "indexed": false,
          "internalType": "bool"
        },
        {
          "name": "positionType",
          "type": "uint8",
          "indexed": false,
          "internalType": "enum PositionEnum"
        },
        {
          "name": "entryPricePNS",
          "type": "uint256",
          "indexed": false,
          "internalType": "uint256"
        },
        {
          "name": "markPricePNS",
          "type": "uint256",
          "indexed": false,
          "internalType": "uint256"
        },
        {
          "name": "deleveragePricePNS",
          "type": "uint256",
          "indexed": false,
          "internalType": "uint256"
        },
        {
          "name": "deltaPnlCNS",
          "type": "int256",
          "indexed": false,
          "internalType": "int256"
        },
        {
          "name": "fundingCNS",
          "type": "int256",
          "indexed": false,
          "internalType": "int256"
        },
        {
          "name": "startDepositCNS",
          "type": "uint256",
          "indexed": false,
          "internalType": "uint256"
        },
        {
          "name": "endDepositCNS",
          "type": "uint256",
          "indexed": false,
          "internalType": "uint256"
        },
        {
          "name": "startLotLNS",
          "type": "uint256",
          "indexed": false,
          "internalType": "uint256"
        },
        {
          "name": "endLotLNS",
          "type": "uint256",
          "indexed": false,
          "internalType": "uint256"
        },
        {
          "name": "amountCNS",
          "type": "uint256",
          "indexed": false,
          "internalType": "uint256"
        },
        {
          "name": "balanceCNS",
          "type": "uint256",
          "indexed": false,
          "internalType": "uint256"
        }
      ],
      "anonymous": false
    },
    {
      "type": "event",
      "name": "PositionDeleveragedV2",
      "inputs": [
        {
          "name": "perpId",
          "type": "uint256",
          "indexed": false,
          "internalType": "uint256"
        },
        {
          "name": "accountId",
          "type": "uint256",
          "indexed": false,
          "internalType": "uint256"
        },
        {
          "name": "forceClose",
          "type": "bool",
          "indexed": false,
          "internalType": "bool"
        },
        {
          "name": "positionType",
          "type": "uint8",
          "indexed": false,
          "internalType": "enum PositionEnum"
        },
        {
          "name": "entryPricePNS",
          "type": "uint256",
          "indexed": false,
          "internalType": "uint256"
        },
        {
          "name": "markPricePNS",
          "type": "uint256",
          "indexed": false,
          "internalType": "uint256"
        },
        {
          "name": "deleveragePricePNS",
          "type": "uint256",
          "indexed": false,
          "internalType": "uint256"
        },
        {
          "name": "deltaPnlCNS",
          "type": "int256",
          "indexed": false,
          "internalType": "int256"
        },
        {
          "name": "fundingCNS",
          "type": "int256",
          "indexed": false,
          "internalType": "int256"
        },
        {
          "name": "startDepositCNS",
          "type": "uint256",
          "indexed": false,
          "internalType": "uint256"
        },
        {
          "name": "endDepositCNS",
          "type": "uint256",
          "indexed": false,
          "internalType": "uint256"
        },
        {
          "name": "startLotLNS",
          "type": "uint256",
          "indexed": false,
          "internalType": "uint256"
        },
        {
          "name": "endLotLNS",
          "type": "uint256",
          "indexed": false,
          "internalType": "uint256"
        },
        {
          "name": "amountCNS",
          "type": "uint256",
          "indexed": false,
          "internalType": "uint256"
        },
        {
          "name": "balanceCNS",
          "type": "uint256",
          "indexed": false,
          "internalType": "uint256"
        },
        {
          "name": "priceResiduePNSQ16",
          "type": "uint256",
          "indexed": false,
          "internalType": "uint256"
        }
      ],
      "anonymous": false
    },
    {
      "type": "event",
      "name": "PositionDoesNotExist",
      "inputs": [
        {
          "name": "perpId",
          "type": "uint256",
          "indexed": false,
          "internalType": "uint256"
        },
        {
          "name": "accountId",
          "type": "uint256",
          "indexed": false,
          "internalType": "uint256"
        }
      ],
      "anonymous": false
    },
    {
      "type": "event",
      "name": "PositionIncreased",
      "inputs": [
        {
          "name": "perpId",
          "type": "uint256",
          "indexed": false,
          "internalType": "uint256"
        },
        {
          "name": "accountId",
          "type": "uint256",
          "indexed": false,
          "internalType": "uint256"
        },
        {
          "name": "positionType",
          "type": "uint8",
          "indexed": false,
          "internalType": "enum PositionEnum"
        },
        {
          "name": "leverageHdths",
          "type": "uint256",
          "indexed": false,
          "internalType": "uint256"
        },
        {
          "name": "startDepositCNS",
          "type": "uint256",
          "indexed": false,
          "internalType": "uint256"
        },
        {
          "name": "endDepositCNS",
          "type": "uint256",
          "indexed": false,
          "internalType": "uint256"
        },
        {
          "name": "pnlCollateralizedCNS",
          "type": "int256",
          "indexed": false,
          "internalType": "int256"
        },
        {
          "name": "premiumPnlSettledCNS",
          "type": "int256",
          "indexed": false,
          "internalType": "int256"
        },
        {
          "name": "maxNegPnlCollatBPS",
          "type": "uint256",
          "indexed": false,
          "internalType": "uint256"
        },
        {
          "name": "pricePNS",
          "type": "uint256",
          "indexed": false,
          "internalType": "uint256"
        },
        {
          "name": "startLotLNS",
          "type": "uint256",
          "indexed": false,
          "internalType": "uint256"
        },
        {
          "name": "endLotLNS",
          "type": "uint256",
          "indexed": false,
          "internalType": "uint256"
        },
        {
          "name": "insFeeCNS",
          "type": "uint256",
          "indexed": false,
          "internalType": "uint256"
        },
        {
          "name": "protFeeCNS",
          "type": "uint256",
          "indexed": false,
          "internalType": "uint256"
        }
      ],
      "anonymous": false
    },
    {
      "type": "event",
      "name": "PositionIncreasedV2",
      "inputs": [
        {
          "name": "perpId",
          "type": "uint256",
          "indexed": false,
          "internalType": "uint256"
        },
        {
          "name": "accountId",
          "type": "uint256",
          "indexed": false,
          "internalType": "uint256"
        },
        {
          "name": "positionType",
          "type": "uint8",
          "indexed": false,
          "internalType": "enum PositionEnum"
        },
        {
          "name": "leverageHdths",
          "type": "uint256",
          "indexed": false,
          "internalType": "uint256"
        },
        {
          "name": "startDepositCNS",
          "type": "uint256",
          "indexed": false,
          "internalType": "uint256"
        },
        {
          "name": "endDepositCNS",
          "type": "uint256",
          "indexed": false,
          "internalType": "uint256"
        },
        {
          "name": "pnlCollateralizedCNS",
          "type": "int256",
          "indexed": false,
          "internalType": "int256"
        },
        {
          "name": "premiumPnlSettledCNS",
          "type": "int256",
          "indexed": false,
          "internalType": "int256"
        },
        {
          "name": "maxNegPnlCollatBPS",
          "type": "uint256",
          "indexed": false,
          "internalType": "uint256"
        },
        {
          "name": "pricePNS",
          "type": "uint256",
          "indexed": false,
          "internalType": "uint256"
        },
        {
          "name": "startLotLNS",
          "type": "uint256",
          "indexed": false,
          "internalType": "uint256"
        },
        {
          "name": "endLotLNS",
          "type": "uint256",
          "indexed": false,
          "internalType": "uint256"
        },
        {
          "name": "insFeeCNS",
          "type": "uint256",
          "indexed": false,
          "internalType": "uint256"
        },
        {
          "name": "protFeeCNS",
          "type": "uint256",
          "indexed": false,
          "internalType": "uint256"
        },
        {
          "name": "priceResiduePNSQ16",
          "type": "uint256",
          "indexed": false,
          "internalType": "uint256"
        }
      ],
      "anonymous": false
    },
    {
      "type": "event",
      "name": "PositionInverted",
      "inputs": [
        {
          "name": "perpId",
          "type": "uint256",
          "indexed": false,
          "internalType": "uint256"
        },
        {
          "name": "accountId",
          "type": "uint256",
          "indexed": false,
          "internalType": "uint256"
        },
        {
          "name": "positionType",
          "type": "uint8",
          "indexed": false,
          "internalType": "enum PositionEnum"
        },
        {
          "name": "leverageHdths",
          "type": "uint256",
          "indexed": false,
          "internalType": "uint256"
        },
        {
          "name": "startDepositCNS",
          "type": "uint256",
          "indexed": false,
          "internalType": "uint256"
        },
        {
          "name": "endDepositCNS",
          "type": "uint256",
          "indexed": false,
          "internalType": "uint256"
        },
        {
          "name": "pnlCollateralizedCNS",
          "type": "int256",
          "indexed": false,
          "internalType": "int256"
        },
        {
          "name": "pricePNS",
          "type": "uint256",
          "indexed": false,
          "internalType": "uint256"
        },
        {
          "name": "startLotLNS",
          "type": "uint256",
          "indexed": false,
          "internalType": "uint256"
        },
        {
          "name": "endLotLNS",
          "type": "uint256",
          "indexed": false,
          "internalType": "uint256"
        },
        {
          "name": "deltaPnlCNS",
          "type": "int256",
          "indexed": false,
          "internalType": "int256"
        },
        {
          "name": "fundingCNS",
          "type": "int256",
          "indexed": false,
          "internalType": "int256"
        },
        {
          "name": "insFeeCNS",
          "type": "uint256",
          "indexed": false,
          "internalType": "uint256"
        },
        {
          "name": "protFeeCNS",
          "type": "uint256",
          "indexed": false,
          "internalType": "uint256"
        }
      ],
      "anonymous": false
    },
    {
      "type": "event",
      "name": "PositionLiquidated",
      "inputs": [
        {
          "name": "perpId",
          "type": "uint256",
          "indexed": false,
          "internalType": "uint256"
        },
        {
          "name": "posAccountId",
          "type": "uint256",
          "indexed": false,
          "internalType": "uint256"
        },
        {
          "name": "positionType",
          "type": "uint8",
          "indexed": false,
          "internalType": "enum PositionEnum"
        },
        {
          "name": "markPricePNS",
          "type": "uint256",
          "indexed": false,
          "internalType": "uint256"
        },
        {
          "name": "liqPricePNS",
          "type": "uint256",
          "indexed": false,
          "internalType": "uint256"
        },
        {
          "name": "liqLotLNS",
          "type": "uint256",
          "indexed": false,
          "internalType": "uint256"
        },
        {
          "name": "posLotLNS",
          "type": "uint256",
          "indexed": false,
          "internalType": "uint256"
        },
        {
          "name": "deltaPnlCNS",
          "type": "int256",
          "indexed": false,
          "internalType": "int256"
        },
        {
          "name": "fundingCNS",
          "type": "int256",
          "indexed": false,
          "internalType": "int256"
        },
        {
          "name": "posAmountCNS",
          "type": "int256",
          "indexed": false,
          "internalType": "int256"
        },
        {
          "name": "posDepositCNS",
          "type": "uint256",
          "indexed": false,
          "internalType": "uint256"
        },
        {
          "name": "accAmountCNS",
          "type": "int256",
          "indexed": false,
          "internalType": "int256"
        },
        {
          "name": "accBalanceCNS",
          "type": "uint256",
          "indexed": false,
          "internalType": "uint256"
        },
        {
          "name": "onOrderBook",
          "type": "bool",
          "indexed": false,
          "internalType": "bool"
        }
      ],
      "anonymous": false
    },
    {
      "type": "event",
      "name": "PositionLiquidationCredit",
      "inputs": [
        {
          "name": "perpId",
          "type": "uint256",
          "indexed": false,
          "internalType": "uint256"
        },
        {
          "name": "accountId",
          "type": "uint256",
          "indexed": false,
          "internalType": "uint256"
        },
        {
          "name": "startDepositCNS",
          "type": "uint256",
          "indexed": false,
          "internalType": "uint256"
        },
        {
          "name": "endDepositCNS",
          "type": "uint256",
          "indexed": false,
          "internalType": "uint256"
        }
      ],
      "anonymous": false
    },
    {
      "type": "event",
      "name": "PositionOpened",
      "inputs": [
        {
          "name": "perpId",
          "type": "uint256",
          "indexed": false,
          "internalType": "uint256"
        },
        {
          "name": "accountId",
          "type": "uint256",
          "indexed": false,
          "internalType": "uint256"
        },
        {
          "name": "positionType",
          "type": "uint8",
          "indexed": false,
          "internalType": "enum PositionEnum"
        },
        {
          "name": "leverageHdths",
          "type": "uint256",
          "indexed": false,
          "internalType": "uint256"
        },
        {
          "name": "depositCNS",
          "type": "uint256",
          "indexed": false,
          "internalType": "uint256"
        },
        {
          "name": "pnlCollateralizedCNS",
          "type": "int256",
          "indexed": false,
          "internalType": "int256"
        },
        {
          "name": "pricePNS",
          "type": "uint256",
          "indexed": false,
          "internalType": "uint256"
        },
        {
          "name": "lotLNS",
          "type": "uint256",
          "indexed": false,
          "internalType": "uint256"
        },
        {
          "name": "insFeeCNS",
          "type": "uint256",
          "indexed": false,
          "internalType": "uint256"
        },
        {
          "name": "protFeeCNS",
          "type": "uint256",
          "indexed": false,
          "internalType": "uint256"
        }
      ],
      "anonymous": false
    },
    {
      "type": "event",
      "name": "PositionOpenedV2",
      "inputs": [
        {
          "name": "perpId",
          "type": "uint256",
          "indexed": false,
          "internalType": "uint256"
        },
        {
          "name": "accountId",
          "type": "uint256",
          "indexed": false,
          "internalType": "uint256"
        },
        {
          "name": "positionType",
          "type": "uint8",
          "indexed": false,
          "internalType": "enum PositionEnum"
        },
        {
          "name": "leverageHdths",
          "type": "uint256",
          "indexed": false,
          "internalType": "uint256"
        },
        {
          "name": "depositCNS",
          "type": "uint256",
          "indexed": false,
          "internalType": "uint256"
        },
        {
          "name": "pnlCollateralizedCNS",
          "type": "int256",
          "indexed": false,
          "internalType": "int256"
        },
        {
          "name": "pricePNS",
          "type": "uint256",
          "indexed": false,
          "internalType": "uint256"
        },
        {
          "name": "lotLNS",
          "type": "uint256",
          "indexed": false,
          "internalType": "uint256"
        },
        {
          "name": "insFeeCNS",
          "type": "uint256",
          "indexed": false,
          "internalType": "uint256"
        },
        {
          "name": "protFeeCNS",
          "type": "uint256",
          "indexed": false,
          "internalType": "uint256"
        },
        {
          "name": "priceResiduePNSQ16",
          "type": "uint256",
          "indexed": false,
          "internalType": "uint256"
        }
      ],
      "anonymous": false
    },
    {
      "type": "event",
      "name": "PositionUnwound",
      "inputs": [
        {
          "name": "perpId",
          "type": "uint256",
          "indexed": false,
          "internalType": "uint256"
        },
        {
          "name": "accountId",
          "type": "uint256",
          "indexed": false,
          "internalType": "uint256"
        },
        {
          "name": "markPricePNS",
          "type": "uint256",
          "indexed": false,
          "internalType": "uint256"
        },
        {
          "name": "positionType",
          "type": "uint8",
          "indexed": false,
          "internalType": "enum PositionEnum"
        },
        {
          "name": "pricePNS",
          "type": "uint256",
          "indexed": false,
          "internalType": "uint256"
        },
        {
          "name": "lotLNS",
          "type": "uint256",
          "indexed": false,
          "internalType": "uint256"
        },
        {
          "name": "depositCNS",
          "type": "uint256",
          "indexed": false,
          "internalType": "uint256"
        },
        {
          "name": "positionFmvCNS",
          "type": "int256",
          "indexed": false,
          "internalType": "int256"
        },
        {
          "name": "paymentCNS",
          "type": "uint256",
          "indexed": false,
          "internalType": "uint256"
        },
        {
          "name": "balanceCNS",
          "type": "uint256",
          "indexed": false,
          "internalType": "uint256"
        }
      ],
      "anonymous": false
    },
    {
      "type": "event",
      "name": "PositionUnwoundV2",
      "inputs": [
        {
          "name": "perpId",
          "type": "uint256",
          "indexed": false,
          "internalType": "uint256"
        },
        {
          "name": "accountId",
          "type": "uint256",
          "indexed": false,
          "internalType": "uint256"
        },
        {
          "name": "markPricePNS",
          "type": "uint256",
          "indexed": false,
          "internalType": "uint256"
        },
        {
          "name": "positionType",
          "type": "uint8",
          "indexed": false,
          "internalType": "enum PositionEnum"
        },
        {
          "name": "pricePNS",
          "type": "uint256",
          "indexed": false,
          "internalType": "uint256"
        },
        {
          "name": "lotLNS",
          "type": "uint256",
          "indexed": false,
          "internalType": "uint256"
        },
        {
          "name": "depositCNS",
          "type": "uint256",
          "indexed": false,
          "internalType": "uint256"
        },
        {
          "name": "positionFmvCNS",
          "type": "int256",
          "indexed": false,
          "internalType": "int256"
        },
        {
          "name": "paymentCNS",
          "type": "uint256",
          "indexed": false,
          "internalType": "uint256"
        },
        {
          "name": "balanceCNS",
          "type": "uint256",
          "indexed": false,
          "internalType": "uint256"
        },
        {
          "name": "priceResiduePNSQ16",
          "type": "uint256",
          "indexed": false,
          "internalType": "uint256"
        }
      ],
      "anonymous": false
    },
    {
      "type": "event",
      "name": "PositionUnwoundWithoutPayment",
      "inputs": [
        {
          "name": "perpId",
          "type": "uint256",
          "indexed": false,
          "internalType": "uint256"
        },
        {
          "name": "accountId",
          "type": "uint256",
          "indexed": false,
          "internalType": "uint256"
        },
        {
          "name": "markPricePNS",
          "type": "uint256",
          "indexed": false,
          "internalType": "uint256"
        },
        {
          "name": "positionType",
          "type": "uint8",
          "indexed": false,
          "internalType": "enum PositionEnum"
        },
        {
          "name": "pricePNS",
          "type": "uint256",
          "indexed": false,
          "internalType": "uint256"
        },
        {
          "name": "lotLNS",
          "type": "uint256",
          "indexed": false,
          "internalType": "uint256"
        },
        {
          "name": "depositCNS",
          "type": "uint256",
          "indexed": false,
          "internalType": "uint256"
        },
        {
          "name": "positionFmvCNS",
          "type": "int256",
          "indexed": false,
          "internalType": "int256"
        },
        {
          "name": "amountOwedCNS",
          "type": "uint256",
          "indexed": false,
          "internalType": "uint256"
        }
      ],
      "anonymous": false
    },
    {
      "type": "event",
      "name": "PositionUnwoundWithoutPaymentV2",
      "inputs": [
        {
          "name": "perpId",
          "type": "uint256",
          "indexed": false,
          "internalType": "uint256"
        },
        {
          "name": "accountId",
          "type": "uint256",
          "indexed": false,
          "internalType": "uint256"
        },
        {
          "name": "markPricePNS",
          "type": "uint256",
          "indexed": false,
          "internalType": "uint256"
        },
        {
          "name": "positionType",
          "type": "uint8",
          "indexed": false,
          "internalType": "enum PositionEnum"
        },
        {
          "name": "pricePNS",
          "type": "uint256",
          "indexed": false,
          "internalType": "uint256"
        },
        {
          "name": "lotLNS",
          "type": "uint256",
          "indexed": false,
          "internalType": "uint256"
        },
        {
          "name": "depositCNS",
          "type": "uint256",
          "indexed": false,
          "internalType": "uint256"
        },
        {
          "name": "positionFmvCNS",
          "type": "int256",
          "indexed": false,
          "internalType": "int256"
        },
        {
          "name": "amountOwedCNS",
          "type": "uint256",
          "indexed": false,
          "internalType": "uint256"
        },
        {
          "name": "priceResiduePNSQ16",
          "type": "uint256",
          "indexed": false,
          "internalType": "uint256"
        }
      ],
      "anonymous": false
    },
    {
      "type": "event",
      "name": "PostOrderUnderMinimum",
      "inputs": [
        {
          "name": "orderAmountCNS",
          "type": "uint256",
          "indexed": false,
          "internalType": "uint256"
        },
        {
          "name": "minAmountCNS",
          "type": "uint256",
          "indexed": false,
          "internalType": "uint256"
        }
      ],
      "anonymous": false
    },
    {
      "type": "event",
      "name": "PriceAdministratorUpdated",
      "inputs": [
        {
          "name": "priceAdministrator",
          "type": "address",
          "indexed": false,
          "internalType": "address"
        },
        {
          "name": "added",
          "type": "bool",
          "indexed": false,
          "internalType": "bool"
        }
      ],
      "anonymous": false
    },
    {
      "type": "event",
      "name": "PriceMaxAgeUpdated",
      "inputs": [
        {
          "name": "perpId",
          "type": "uint256",
          "indexed": false,
          "internalType": "uint256"
        },
        {
          "name": "maxAgeSec",
          "type": "uint256",
          "indexed": false,
          "internalType": "uint256"
        }
      ],
      "anonymous": false
    },
    {
      "type": "event",
      "name": "PriceOutOfRange",
      "inputs": [
        {
          "name": "minPricePNS",
          "type": "uint256",
          "indexed": false,
          "internalType": "uint256"
        },
        {
          "name": "maxPricePNS",
          "type": "uint256",
          "indexed": false,
          "internalType": "uint256"
        }
      ],
      "anonymous": false
    },
    {
      "type": "event",
      "name": "PriceSetDuringTriggerExec",
      "inputs": [
        {
          "name": "triggerPricePNS",
          "type": "uint256",
          "indexed": false,
          "internalType": "uint256"
        }
      ],
      "anonymous": false
    },
    {
      "type": "event",
      "name": "PriceTolUpdated",
      "inputs": [
        {
          "name": "perpId",
          "type": "uint256",
          "indexed": false,
          "internalType": "uint256"
        },
        {
          "name": "tolPer100k",
          "type": "uint256",
          "indexed": false,
          "internalType": "uint256"
        }
      ],
      "anonymous": false
    },
    {
      "type": "event",
      "name": "ProtocolBalanceDeposit",
      "inputs": [
        {
          "name": "amountCNS",
          "type": "uint256",
          "indexed": false,
          "internalType": "uint256"
        }
      ],
      "anonymous": false
    },
    {
      "type": "event",
      "name": "ProtocolBalanceWithdraw",
      "inputs": [
        {
          "name": "amountCNS",
          "type": "uint256",
          "indexed": false,
          "internalType": "uint256"
        }
      ],
      "anonymous": false
    },
    {
      "type": "event",
      "name": "RecycleBalanceInsufficientSevere",
      "inputs": [
        {
          "name": "accountId",
          "type": "uint256",
          "indexed": false,
          "internalType": "uint256"
        },
        {
          "name": "perpId",
          "type": "uint256",
          "indexed": false,
          "internalType": "uint256"
        },
        {
          "name": "orderId",
          "type": "uint256",
          "indexed": false,
          "internalType": "uint256"
        },
        {
          "name": "recycleFeeCNS",
          "type": "uint256",
          "indexed": false,
          "internalType": "uint256"
        },
        {
          "name": "recycleBalanceCNS",
          "type": "uint256",
          "indexed": false,
          "internalType": "uint256"
        }
      ],
      "anonymous": false
    },
    {
      "type": "event",
      "name": "RecycleFeeToAccount",
      "inputs": [
        {
          "name": "accountId",
          "type": "uint256",
          "indexed": false,
          "internalType": "uint256"
        },
        {
          "name": "perpId",
          "type": "uint256",
          "indexed": false,
          "internalType": "uint256"
        },
        {
          "name": "orderId",
          "type": "uint256",
          "indexed": false,
          "internalType": "uint256"
        },
        {
          "name": "recycleFeeCNS",
          "type": "uint256",
          "indexed": false,
          "internalType": "uint256"
        },
        {
          "name": "recycleBalanceCNS",
          "type": "uint256",
          "indexed": false,
          "internalType": "uint256"
        }
      ],
      "anonymous": false
    },
    {
      "type": "event",
      "name": "RecycleFeeToProtocol",
      "inputs": [
        {
          "name": "perpId",
          "type": "uint256",
          "indexed": false,
          "internalType": "uint256"
        },
        {
          "name": "orderId",
          "type": "uint256",
          "indexed": false,
          "internalType": "uint256"
        },
        {
          "name": "recycleFeeCNS",
          "type": "uint256",
          "indexed": false,
          "internalType": "uint256"
        },
        {
          "name": "recycleBalanceCNS",
          "type": "uint256",
          "indexed": false,
          "internalType": "uint256"
        }
      ],
      "anonymous": false
    },
    {
      "type": "event",
      "name": "RecycleFeeUpdated",
      "inputs": [
        {
          "name": "recycleFeeCNS",
          "type": "uint256",
          "indexed": false,
          "internalType": "uint256"
        }
      ],
      "anonymous": false
    },
    {
      "type": "event",
      "name": "ReportAgeExceedsLastUpdate",
      "inputs": [
        {
          "name": "perpId",
          "type": "uint256",
          "indexed": false,
          "internalType": "uint256"
        },
        {
          "name": "lastUpdateTimestamp",
          "type": "uint256",
          "indexed": false,
          "internalType": "uint256"
        },
        {
          "name": "reportValidFromTimestamp",
          "type": "uint256",
          "indexed": false,
          "internalType": "uint256"
        }
      ],
      "anonymous": false
    },
    {
      "type": "event",
      "name": "ReportExpiresTooSoon",
      "inputs": [
        {
          "name": "perpId",
          "type": "uint256",
          "indexed": false,
          "internalType": "uint256"
        },
        {
          "name": "expiresAt",
          "type": "uint256",
          "indexed": false,
          "internalType": "uint256"
        },
        {
          "name": "minRequired",
          "type": "uint256",
          "indexed": false,
          "internalType": "uint256"
        }
      ],
      "anonymous": false
    },
    {
      "type": "event",
      "name": "ReportFromFuture",
      "inputs": [
        {
          "name": "perpId",
          "type": "uint256",
          "indexed": false,
          "internalType": "uint256"
        },
        {
          "name": "reportTimestamp",
          "type": "uint256",
          "indexed": false,
          "internalType": "uint256"
        },
        {
          "name": "blockTimestamp",
          "type": "uint256",
          "indexed": false,
          "internalType": "uint256"
        }
      ],
      "anonymous": false
    },
    {
      "type": "event",
      "name": "ReportPriceIsNegative",
      "inputs": [
        {
          "name": "perpId",
          "type": "uint256",
          "indexed": false,
          "internalType": "uint256"
        },
        {
          "name": "reportPrice",
          "type": "int256",
          "indexed": false,
          "internalType": "int256"
        }
      ],
      "anonymous": false
    },
    {
      "type": "event",
      "name": "ResidueBalanceInsufficient",
      "inputs": [
        {
          "name": "perpId",
          "type": "uint256",
          "indexed": false,
          "internalType": "uint256"
        },
        {
          "name": "requestedAmountCNS",
          "type": "uint256",
          "indexed": false,
          "internalType": "uint256"
        },
        {
          "name": "positionBalanceCNS",
          "type": "uint256",
          "indexed": false,
          "internalType": "uint256"
        }
      ],
      "anonymous": false
    },
    {
      "type": "event",
      "name": "ResidueTransferred",
      "inputs": [
        {
          "name": "perpId",
          "type": "uint256",
          "indexed": false,
          "internalType": "uint256"
        },
        {
          "name": "residueAmountCNS",
          "type": "uint256",
          "indexed": false,
          "internalType": "uint256"
        },
        {
          "name": "positionBalanceCNS",
          "type": "uint256",
          "indexed": false,
          "internalType": "uint256"
        }
      ],
      "anonymous": false
    },
    {
      "type": "event",
      "name": "TakerFeeUpdated",
      "inputs": [
        {
          "name": "perpId",
          "type": "uint256",
          "indexed": false,
          "internalType": "uint256"
        },
        {
          "name": "takerFeePer100K",
          "type": "uint256",
          "indexed": false,
          "internalType": "uint256"
        }
      ],
      "anonymous": false
    },
    {
      "type": "event",
      "name": "TakerOrderFilled",
      "inputs": [
        {
          "name": "entryPricePNS",
          "type": "uint256",
          "indexed": false,
          "internalType": "uint256"
        },
        {
          "name": "collatPricePNS",
          "type": "uint256",
          "indexed": false,
          "internalType": "uint256"
        },
        {
          "name": "pnlPricePNS",
          "type": "uint256",
          "indexed": false,
          "internalType": "uint256"
        },
        {
          "name": "lotLNS",
          "type": "uint256",
          "indexed": false,
          "internalType": "uint256"
        },
        {
          "name": "feeCNS",
          "type": "uint256",
          "indexed": false,
          "internalType": "uint256"
        },
        {
          "name": "amountCNS",
          "type": "int256",
          "indexed": false,
          "internalType": "int256"
        },
        {
          "name": "balanceCNS",
          "type": "uint256",
          "indexed": false,
          "internalType": "uint256"
        }
      ],
      "anonymous": false
    },
    {
      "type": "event",
      "name": "ToleranceAdministratorUpdated",
      "inputs": [
        {
          "name": "toleranceAdministrator",
          "type": "address",
          "indexed": false,
          "internalType": "address"
        },
        {
          "name": "added",
          "type": "bool",
          "indexed": false,
          "internalType": "bool"
        }
      ],
      "anonymous": false
    },
    {
      "type": "event",
      "name": "TransferAccountToProtocol",
      "inputs": [
        {
          "name": "accountId",
          "type": "uint256",
          "indexed": false,
          "internalType": "uint256"
        },
        {
          "name": "amountCNS",
          "type": "uint256",
          "indexed": false,
          "internalType": "uint256"
        },
        {
          "name": "balanceCNS",
          "type": "uint256",
          "indexed": false,
          "internalType": "uint256"
        }
      ],
      "anonymous": false
    },
    {
      "type": "event",
      "name": "TransferPerpInsToProtocol",
      "inputs": [
        {
          "name": "perpId",
          "type": "uint256",
          "indexed": false,
          "internalType": "uint256"
        },
        {
          "name": "amountCNS",
          "type": "uint256",
          "indexed": false,
          "internalType": "uint256"
        }
      ],
      "anonymous": false
    },
    {
      "type": "event",
      "name": "TransferPerpPosToProtocol",
      "inputs": [
        {
          "name": "perpId",
          "type": "uint256",
          "indexed": false,
          "internalType": "uint256"
        },
        {
          "name": "amountCNS",
          "type": "uint256",
          "indexed": false,
          "internalType": "uint256"
        }
      ],
      "anonymous": false
    },
    {
      "type": "event",
      "name": "TransferProtocolToAccount",
      "inputs": [
        {
          "name": "accountId",
          "type": "uint256",
          "indexed": false,
          "internalType": "uint256"
        },
        {
          "name": "amountCNS",
          "type": "uint256",
          "indexed": false,
          "internalType": "uint256"
        },
        {
          "name": "balanceCNS",
          "type": "uint256",
          "indexed": false,
          "internalType": "uint256"
        }
      ],
      "anonymous": false
    },
    {
      "type": "event",
      "name": "TransferProtocolToPerp",
      "inputs": [
        {
          "name": "perpId",
          "type": "uint256",
          "indexed": false,
          "internalType": "uint256"
        },
        {
          "name": "amountCNS",
          "type": "uint256",
          "indexed": false,
          "internalType": "uint256"
        },
        {
          "name": "toInsuranceFund",
          "type": "bool",
          "indexed": false,
          "internalType": "bool"
        }
      ],
      "anonymous": false
    },
    {
      "type": "event",
      "name": "TransferProtocolToRecycleBal",
      "inputs": [
        {
          "name": "amountCNS",
          "type": "uint256",
          "indexed": false,
          "internalType": "uint256"
        }
      ],
      "anonymous": false
    },
    {
      "type": "event",
      "name": "TriggerDescIdTooLow",
      "inputs": [
        {
          "name": "lastTriggerDescId",
          "type": "uint256",
          "indexed": false,
          "internalType": "uint256"
        }
      ],
      "anonymous": false
    },
    {
      "type": "event",
      "name": "TriggerOrderExecution",
      "inputs": [],
      "anonymous": false
    },
    {
      "type": "event",
      "name": "TriggerOrderRequest",
      "inputs": [
        {
          "name": "triggerPricePNS",
          "type": "uint256",
          "indexed": false,
          "internalType": "uint256"
        },
        {
          "name": "triggerPriceCondition",
          "type": "uint8",
          "indexed": false,
          "internalType": "enum TriggerPriceConditionEnum"
        },
        {
          "name": "triggerRequestId",
          "type": "uint256",
          "indexed": false,
          "internalType": "uint256"
        },
        {
          "name": "triggerPositionId",
          "type": "uint256",
          "indexed": false,
          "internalType": "uint256"
        }
      ],
      "anonymous": false
    },
    {
      "type": "event",
      "name": "UnableToCancelOrder",
      "inputs": [
        {
          "name": "perpId",
          "type": "uint256",
          "indexed": false,
          "internalType": "uint256"
        },
        {
          "name": "orderId",
          "type": "uint256",
          "indexed": false,
          "internalType": "uint256"
        }
      ],
      "anonymous": false
    },
    {
      "type": "event",
      "name": "UnityDescentThreshUpdated",
      "inputs": [
        {
          "name": "perpId",
          "type": "uint256",
          "indexed": false,
          "internalType": "uint256"
        },
        {
          "name": "threshHdths",
          "type": "uint256",
          "indexed": false,
          "internalType": "uint256"
        }
      ],
      "anonymous": false
    },
    {
      "type": "event",
      "name": "UnspecifiedCollateral",
      "inputs": [],
      "anonymous": false
    },
    {
      "type": "event",
      "name": "UnwindCompleted",
      "inputs": [
        {
          "name": "perpId",
          "type": "uint256",
          "indexed": false,
          "internalType": "uint256"
        },
        {
          "name": "positionsUnwound",
          "type": "uint256",
          "indexed": false,
          "internalType": "uint256"
        },
        {
          "name": "perpPositionBalanceCNS",
          "type": "uint256",
          "indexed": false,
          "internalType": "uint256"
        },
        {
          "name": "insuranceBalanceCNS",
          "type": "uint256",
          "indexed": false,
          "internalType": "uint256"
        }
      ],
      "anonymous": false
    },
    {
      "type": "event",
      "name": "UnwindContractTrigger",
      "inputs": [
        {
          "name": "perpId",
          "type": "uint256",
          "indexed": false,
          "internalType": "uint256"
        }
      ],
      "anonymous": false
    },
    {
      "type": "event",
      "name": "UnwindInitializationCleared",
      "inputs": [
        {
          "name": "perpId",
          "type": "uint256",
          "indexed": false,
          "internalType": "uint256"
        }
      ],
      "anonymous": false
    },
    {
      "type": "event",
      "name": "UnwindInitialized",
      "inputs": [
        {
          "name": "perpId",
          "type": "uint256",
          "indexed": false,
          "internalType": "uint256"
        },
        {
          "name": "sumPositiveFmvCNS",
          "type": "uint256",
          "indexed": false,
          "internalType": "uint256"
        }
      ],
      "anonymous": false
    },
    {
      "type": "event",
      "name": "UnwindInsufficientBalance",
      "inputs": [
        {
          "name": "perpId",
          "type": "uint256",
          "indexed": false,
          "internalType": "uint256"
        },
        {
          "name": "accountId",
          "type": "uint256",
          "indexed": false,
          "internalType": "uint256"
        },
        {
          "name": "perpPositionBalanceCNS",
          "type": "uint256",
          "indexed": false,
          "internalType": "uint256"
        },
        {
          "name": "paymentCNS",
          "type": "uint256",
          "indexed": false,
          "internalType": "uint256"
        }
      ],
      "anonymous": false
    },
    {
      "type": "event",
      "name": "UnwindIterationCompleted",
      "inputs": [
        {
          "name": "perpId",
          "type": "uint256",
          "indexed": false,
          "internalType": "uint256"
        },
        {
          "name": "positionsUnwound",
          "type": "uint256",
          "indexed": false,
          "internalType": "uint256"
        },
        {
          "name": "perpPositionBalanceCNS",
          "type": "uint256",
          "indexed": false,
          "internalType": "uint256"
        },
        {
          "name": "insuranceBalanceCNS",
          "type": "uint256",
          "indexed": false,
          "internalType": "uint256"
        }
      ],
      "anonymous": false
    },
    {
      "type": "event",
      "name": "UnwindPreparationCleared",
      "inputs": [
        {
          "name": "perpId",
          "type": "uint256",
          "indexed": false,
          "internalType": "uint256"
        }
      ],
      "anonymous": false
    },
    {
      "type": "event",
      "name": "UnwindPrepared",
      "inputs": [
        {
          "name": "perpId",
          "type": "uint256",
          "indexed": false,
          "internalType": "uint256"
        }
      ],
      "anonymous": false
    },
    {
      "type": "event",
      "name": "UnwindProcessInProgress",
      "inputs": [
        {
          "name": "perpId",
          "type": "uint256",
          "indexed": false,
          "internalType": "uint256"
        }
      ],
      "anonymous": false
    },
    {
      "type": "event",
      "name": "UpdateOracleFailed",
      "inputs": [
        {
          "name": "perpId",
          "type": "uint256",
          "indexed": false,
          "internalType": "uint256"
        }
      ],
      "anonymous": false
    },
    {
      "type": "event",
      "name": "Upgraded",
      "inputs": [
        {
          "name": "implementation",
          "type": "address",
          "indexed": true,
          "internalType": "address"
        }
      ],
      "anonymous": false
    },
    {
      "type": "event",
      "name": "ValueExceedsMaximum",
      "inputs": [
        {
          "name": "value",
          "type": "uint256",
          "indexed": false,
          "internalType": "uint256"
        },
        {
          "name": "maximum",
          "type": "uint256",
          "indexed": false,
          "internalType": "uint256"
        }
      ],
      "anonymous": false
    },
    {
      "type": "event",
      "name": "WRLSMinWithdrawLimitUpdated",
      "inputs": [
        {
          "name": "limitCNS",
          "type": "uint256",
          "indexed": false,
          "internalType": "uint256"
        }
      ],
      "anonymous": false
    },
    {
      "type": "event",
      "name": "WRLSThousandthsTvlUpdated",
      "inputs": [
        {
          "name": "thousandthsTvl",
          "type": "uint256",
          "indexed": false,
          "internalType": "uint256"
        }
      ],
      "anonymous": false
    },
    {
      "type": "event",
      "name": "WhitelistAddress",
      "inputs": [
        {
          "name": "addr",
          "type": "address",
          "indexed": true,
          "internalType": "address"
        },
        {
          "name": "whitelisted",
          "type": "bool",
          "indexed": false,
          "internalType": "bool"
        }
      ],
      "anonymous": false
    },
    {
      "type": "event",
      "name": "WhitelistingEnabledChanged",
      "inputs": [
        {
          "name": "enabled",
          "type": "bool",
          "indexed": false,
          "internalType": "bool"
        }
      ],
      "anonymous": false
    },
    {
      "type": "event",
      "name": "WithdrawRateLimitBypassSet",
      "inputs": [
        {
          "name": "addr",
          "type": "address",
          "indexed": true,
          "internalType": "address"
        },
        {
          "name": "enabled",
          "type": "bool",
          "indexed": false,
          "internalType": "bool"
        }
      ],
      "anonymous": false
    },
    {
      "type": "event",
      "name": "WithdrawRateLimitForceReset",
      "inputs": [
        {
          "name": "newExpiryBlock",
          "type": "uint256",
          "indexed": false,
          "internalType": "uint256"
        },
        {
          "name": "newLimitCNS",
          "type": "uint256",
          "indexed": false,
          "internalType": "uint256"
        },
        {
          "name": "perBlockCNS",
          "type": "uint256",
          "indexed": false,
          "internalType": "uint256"
        }
      ],
      "anonymous": false
    },
    {
      "type": "event",
      "name": "WithdrawRateLimitReset",
      "inputs": [
        {
          "name": "newExpiryBlock",
          "type": "uint256",
          "indexed": false,
          "internalType": "uint256"
        },
        {
          "name": "newLimitCNS",
          "type": "uint256",
          "indexed": false,
          "internalType": "uint256"
        },
        {
          "name": "perBlockCNS",
          "type": "uint256",
          "indexed": false,
          "internalType": "uint256"
        }
      ],
      "anonymous": false
    },
    {
      "type": "event",
      "name": "WrongAccountForOrder",
      "inputs": [
        {
          "name": "perpId",
          "type": "uint256",
          "indexed": false,
          "internalType": "uint256"
        },
        {
          "name": "orderId",
          "type": "uint256",
          "indexed": false,
          "internalType": "uint256"
        },
        {
          "name": "accountId",
          "type": "uint256",
          "indexed": false,
          "internalType": "uint256"
        }
      ],
      "anonymous": false
    }
  ],
  "bytecode": {
    "object": "0x60a080604052346100dc57306080525f549060ff8260081c1661008a575060ff80821603610050575b6040516201d14b9081620000e18239608051818181615c95015281816161000152616af80152f35b60ff90811916175f557f7f26b83ff96e1f2b6a682f133852f6798a09c465da95921460cefb3847402498602060405160ff8152a15f610028565b62461bcd60e51b815260206004820152602760248201527f496e697469616c697a61626c653a20636f6e747261637420697320696e697469604482015266616c697a696e6760c81b6064820152608490fd5b5f80fdfe610ca080604052600436101562000014575f80fd5b5f905f3560e01c908162092cce1462007f2c575080630189a2b71462007ea257806303cfe83c1462007df657806305aca1411462007dc0578063065db3301462007aea578063075367f61462007a405780630a039fbd14620079fa5780630a2eb30114620079b95780630d3e87a7146200799b5780630e517f4114620078db5780630f03e4c314620078af5780630f6795d9146200782057806312014156146200775f5780631217be67146200771e5780631275d14c14620076e957806312e8eb2c146200763857806316a0659314620075a557806316a483ea1462007587578063171a5b81146200730f578063182b01f214620072c55780631973c61914620072875780631df87ade146200721957806320c801d21462007187578063229c249214620070e9578063252c3594146200705e5780632709b7461462006fca578063279289e91462006f3d5780632f32509b1462006e3657806332b9203b1462006d725780633659cfe61462006acd57806338ecd88514620069f557806339435dac1462006965578063396d7e4714620069265780633a63dabe14620069085780633bf45a2f14620068c75780634119f930146200689257806343559bbf146200685057806345c8c92414620067b55780634a9a4158146200672b5780634b8344fb14620066625780634d3282b414620065eb5780634d574c5614620065505780634d8dc985146200639c5780634f1ef28614620060b957806350ef5c351462005f4c5780635180d5a81462005d5157806352d1902d1462005c79578063540561191462005bff578063541b04e91462005b9d5780635495086a1462005b2d57806358087a741462005aa8578063586d92ca1462005a165780635b0c29eb14620059f25780635bf9264c146200598d5780635e1a357314620057c55780635f40c1f7146200576157806360ad17fd14620056025780636112fe2e14620054f857806361bd6f44146200540c578063653a6bd714620053b55780636728641b14620053645780636825e9e514620052db57806369752159146200519b5780636debf8fa1462005147578063715018a614620050da578063751de4211462004eed578063768f68551462004e5257806379609c111462004cd75780637962f9101462004bd257806379ba50971462004b375780637cca3b0614620049025780637d45678e146200485f5780637dd7e75914620048275780637ddbdc2a146200475f57806387c95058146200469d578063893d20e814620042535780638a92464014620045c75780638bc5b3c514620045535780638bcf1b2714620043fe5780638c03116414620043345780638c1c2cef146200427b5780638da5cb5b14620042535780638f3ffc8514620041bc57806392f54b3a14620038c85780639a6d763014620038735780639b170bd114620038395780639d2ec188146200376c5780639e430eda146200355a5780639fc8afd714620034c65780639fffdfe2146200349f578063a5e9c41114620033e0578063a87041d1146200339f578063a971b6d41462003378578063a9bd5cee14620032b6578063ae0d44421462003275578063af37c07d1462003182578063b108248614620030bb578063b216d0d2146200303f578063b5cd004e1462002f8d578063b5fcf7621462002f61578063b839a8c41462002ea7578063ba53027d1462002e63578063bad4a01f1462002e21578063bbac6c951462002b65578063bbf979ac1462002adf578063be0783f51462002a6b578063be70473d146200298b578063bed97b711462002925578063c0a44efc14620028ca578063c2852f381462002809578063c4d66de8146200254a578063c6efcd431462002488578063c7ff1584146200245f578063cab13915146200228e578063d360dd31146200221e578063d3b8c49d1462002175578063d541abc114620020dd578063d6f34bd61462002062578063d780ece81462001fd7578063d8b442681462001f96578063d936547e1462001f55578063dbfbf7e81462001f14578063dd0a3e2b1462001e51578063ddac1cde14620019b6578063dec92b691462001996578063e2e1cb5714620018eb578063e30c397814620018c2578063e548bb571462001834578063e5631c9e146200177d578063e68073c314620016c1578063e74e2c9b146200165e578063eaadbbef1462001637578063ebcf165614620015af578063ec4cba831462001483578063ecdff22e1462001385578063ed6760fe1462001293578063edb1314e146200125e578063efb629041462001196578063f28b98f314620010f6578063f2fde38b1462001080578063f769f0d31462000fb8578063fb05acb7146200099e578063fb455f6b146200092d5763fe37fe1214620006df575f80fd5b346200092a57620006f036620084d1565b919081809381620007116200070682956200abc2565b92600984016200c52f565b508060108401915b620007435760408051888152602081018a90529081018690526060810187905280608081015b0390f35b825280602052604082205461ffff8160c81c169663ffffffff82169182855260d560205260ff604086205460a01c166200077d81620083e2565b6200091f5764ffffffffff8160401c169260ff8260201c1690620007a18262010a74565b62000830575b5063ffffffff620007bc620007c79262010aa2565b9260781c16620101dd565b620007fc5715620007e6578791620007df9162009239565b9662000719565b96948591620007f59162009239565b9462000719565b97989097156200081a578891620008139162009239565b9762000719565b97958691620008299162009239565b9562000719565b865260128701602052604086206200084882620083e2565b60028214905464ffffffffff8160b81c1691821515918262000890575b505015620008835780851115620007a757935063ffffffff620007a7565b5050509680915062000719565b9091508180620008f0575b8215620008ad575b50505f8062000865565b15915081620008c0575b505f80620008a3565b60ff915060401c166002811015620008dc576001145f620008b7565b634e487b7160e01b88526021600452602488fd5b915060ff8160401c1660028110156200090b5715916200089b565b634e487b7160e01b8a52602160045260248afd5b509680915062000719565b80fd5b50346200092a576200093f36620084d1565b919062ffffff83116200098457602092600c6200096062000967936200abc2565b0162010963565b905f1982146200097b575b50604051908152f35b90505f62000972565b5060449163c6ebaaa160e01b825260045262ffffff602452fd5b50346200092a57620009b0366200855f565b60e05260c05260a05233815260dc60205260ff6040822054161562000fa557620009d96200b139565b62000f9657620009eb60a0516200abc2565b9060ff825460c01c1660058110158062000f825760028214158062000f74575b62000f545762000f405760030362000ef0575b906001600160501b03600382015416916004820154916005810154938154608052829063ffffffff601184015416915b8215158062000ee4575b1562000ed85782855260128401602052604085209280865260d56020526040862090845462000ae662000ad160ff60805160b81c1660ff60805160b01c1664ffffffffff8560b81c1661ffff8660881c1663ffffffff8760981c168d8860e01c9060ff8a60401c169063ffffffff60805116906200c4b5565b50506001600160401b038360481c166200c72c565b95889089908a891362000c85575b9362000bd396959362000bc09363ffffffff9362000bcd97549b61ffff8d60881c16925f1462000bd957917f4fa37f0ea2da4229663982f49120b61018ec1a6d0d2eea523dad9719a7dfef599391610140936001600160401b036040519460a05186528860208701528960805116604087015262000b7c6060870160ff8360401c1662008717565b898160981c16608087015264ffffffffff8160b81c1660a087015260481c1660c085015260e0840152610100830152610120820152a15b971696601189016201409e565b600560a0519101620141aa565b62009323565b62000a4e565b91610160927f04213fea4abae4cce19e63741cd5968e220f30dd7f5ffe9fc7b0913ed3994d0f94926001600160501b038a5416916001600160401b036040519560a05187528960208801528a60805116604088015262000c436060880160ff8360401c1662008717565b8a8160981c16608088015264ffffffffff8160b81c1660a088015260481c1660c086015260e0850152610100840152610120830152610140820152a162000bb3565b919050878b8d811562000ecd5762000ca89262000ca29162008c7f565b620091f8565b915b82918883111562000e96575060019260e0511562000ced57509362000bd396959362000bc09363ffffffff9362000bcd975b939750935093509395965062000af4565b955050505050935062000d4a919597507f8c6452308f4aa5da3dd7582bf4f08c41c0bd9378806d96ce939fbddad72bf92692949650604051918291868660a051859094939260609260808301968352602083015260408201520152565b0390a15b1562000db85790816001600160501b0360037f2a562f7b66b9d232c3f7a19384fbcff970c9fec0f42ac7ef9ea592fbcb848d209582806080971616831983830154161782820155015460501c16906040519260a0518452602084015260408301526060820152a180f35b60038301546040805160a05181526020810194909452830182905260501c6001600160501b0316606083018190529162000e3391907fa9b78fd50db3a3e2b070cb8d415b5a3cd12f80614e74626415f2bcf20ae81d0c9080608081015b0390a160038401805469ffffffffffffffffffff191690556200adae565b8062000e6c575b50600581018290556004810182905560028101805469ffffffffffffffffffff19169055805460ff60c01b1916905580f35b60038201805469ffffffffffffffffffff60501b1916905562000e8f906200adae565b5f62000e3a565b9362000bd397969463ffffffff9362000bcd979362000ec762000ebf8862000bc0999e62008cc5565b9c896200ba83565b62000cdc565b505050899162000caa565b93955091935062000d4e565b5060c051811062000a58565b6001600160501b036003830162000f2282825460501c1669ffffffffffffffffffff60501b1983541683558562010719565b54166005830155600360c01b60ff60c01b1983541617825562000a1e565b634e487b7160e01b82526021600452602482fd5b6313295a4960e11b835260a05160045260448362000f7284620083c5565bfd5b505081600382141562000a0b565b634e487b7160e01b83526021600452602483fd5b630b15863d60e41b8152600490fd5b631d37e03560e31b815233600452602490fd5b50346200092a5762000fca36620084d1565b62000fd79291926200b139565b620010715762000fe7336200b855565b80835260d56020526040832060ff815460a01c166200100681620083e2565b806200105257506200102c6200101c866200abc2565b9560ff875460c01c16906200b8ad565b508215620010435762001040939462010758565b80f35b631fccd51f60e01b8452600484fd5b63e0860e5f60e01b855260249085906200106c81620083e2565b600452fd5b630b15863d60e41b8252600482fd5b50346200092a5760203660031901126200092a576001600160a01b03620010a6620084ba565b620010b06200ac13565b16806001600160a01b031960655416176065556001600160a01b03603354167f38d16b8cac22d99fc7c124b9cd0de2d3fa1faef420bfe791d8c362d765e227008380a380f35b50346200092a5760203660031901126200092a57600435620011176200ac13565b6309c3d8f08082116200117c575060c954620011326200b11d565b91612710613fff9104831b921b19161760c9557f8ad800de6b48db2a4430821a66e9ea34dee8c66fea63f8a83559bf91279cf77c6020620011726200bac2565b604051908152a180f35b60649291630c8f0a6960e41b835260045281602452604452fd5b50346200092a57620011c36009620011ae36620086fc565b9291620011bd9491946200ac13565b6200abc2565b01620011d083826200defe565b60028210801562001253575b620012355791604091837fbb5907b6810f0c2966db8e0939fbf4a19724f4e58e2bfd1d15195fdf8b4908a2945468ff000000000000000083861b169068ff0000000000000000191617905582519182526020820152a180f35b630c8f0a6960e41b8452600482905260026024526009604452606484fd5b5060098211620011dc565b50346200092a57806003193601126200092a5760209060c95490506c1fffffffffffffffffffffffff6040519160701c168152f35b50346200092a57620012a536620084d1565b620012af6200ac13565b620012ba826200abc2565b6001821080156200137a575b6200135e5760020160ff815460d81c168083111562001347575080547fffffff00ffffffffffffffffffffffffffffffffffffffffffffffffffffffff1660e083901b60ff60e01b161790556040805192835260208301919091527fb0459c2e01b889e7e78bb7d1400cb3049a1d98ef3d6949439b173c5ffba92dd191a180f35b630ba8360160e41b85526004526024829052604484fd5b60648483630c8f0a6960e41b8252600452600160245281604452fd5b5060648211620012c6565b50346200092a5760603660031901126200092a57600435906024356044356001600160401b0381116200147f57620013c290369060040162008a01565b93909333845260dc60205260ff604085205416156200146c57620013e56200b139565b6200145d577f8197894e93a93f60bb4024782ca25f3402b91b549a53da47eae6287ce13d7073939462001457916200141d846200abc2565b5060046200142b866200ac6c565b01848852602052866040812055604051948594855260208501526060604085015260608401916200a670565b0390a180f35b630b15863d60e41b8452600484fd5b631d37e03560e31b845233600452602484fd5b8280fd5b50346200092a5760203660031901126200092a5760043533825260e360205260ff604083205416156200159c57620014ba6200b139565b6200107157620014ca816200abc2565b829060ff815460c01c1660058110156200158857917fcf3fd822380bbbd58d2963ba6984f53ab47660d73e9515246b4865cbf28919ba939160046060941462001536575b60ff6200152b915460c01c166040519384526020840190620083d4565b15156040820152a180f35b905060ff60c01b1981541681557f2bf3500d8e3b78624f68716bdcfccb30df6b6ef393561a3ffa32e8d357ac7e43604061ffff600284015460a81c16815190815260016020820152a16001906200150e565b634e487b7160e01b85526021600452602485fd5b636cfd9ee160e01b825233600452602482fd5b50346200092a5760203660031901126200092a57600435620015d06200b139565b620010715760407f25cb41632994165977216ca86070cf4f14c696e259419044e9d2de44c5955c5c9162001604336200b855565b600462001611826200ac6c565b6200161c846200abc2565b5083875201602052848381205582519182526020820152a180f35b50346200092a57620010406200164d36620084d1565b90620016586200ac13565b6200a77b565b50346200092a577f6bf5f38f4e94f47ae7a4d6e56dbf388c856f890b5f0f2808b66914710b0266ca60406200169336620084d1565b6200169d6200ac13565b620016b381620016ad846200abc2565b6200de12565b82519182526020820152a180f35b50346200092a57620016d3366200855f565b90620016de6200ac13565b60c9546001600160701b0316818110620017695750916060917fe3bcf60a5994e7328c2ddfbbf2c18d6e57c1cc69502d1ee3900c1e1f08ca555d9362001724836200abc2565b6200172f826200b960565b8183156200175857620017429162010735565b604051928352602083015215156040820152a180f35b620017639162010719565b62001742565b62fae2d560e21b8552600452602452604483fd5b50346200092a5760203660031901126200092a576004356200179e6200ac13565b620017a9816200abc2565b805460ff8160c01c16600581101562001588578062001818575091602091620017fd63ffffffff7f398693be005c0e64e1ef16ed7453155535d078a14ebb77360c1409b8e6f63c209560c81c1683620106fd565b600160c01b60ff60c01b19825416179055604051908152a180f35b8462000f7260449286630d76efe360e41b8452600452620083c5565b50346200092a5760203660031901126200092a576004356001600160401b038111620018be576200186a9036906004016200845f565b9033835260da60205260ff60408420541615620018ab576200188b6200b139565b6200189c579062001040916200a87d565b630b15863d60e41b8352600483fd5b63a37849fb60e01b835233600452602483fd5b5080fd5b50346200092a57806003193601126200092a5760206001600160a01b0360655416604051908152f35b50346200092a57620018fd36620084d1565b620019076200ac13565b62001912826200abc2565b600281015461ffff8160c81c16808410156200195a57857f9c6091bfb36035e2973fb3ad5c07d8c5d74d0981770feea276a41c4221246f0e60408787620016b381896200de47565b6040516322b85af560e11b8152600481018690526024810185905260b89290921c61ffff908116604484015216606482015280608481015b0390fd5b50346200092a57806003193601126200092a57602060cd54604051908152f35b50346200092a57620019c8366200855f565b610160526101405261012052620019de6200ac13565b620019ec610120516200abc2565b9060ff825460c01c1660058110158062000f825760028214158062001e43575b62001e245762000f405760030362001dd4575b906001600160501b0360038201541691600482015491600581015493815461010052829063ffffffff601184015416915b8215158062001dc7575b1562001dbb5782855260128401602052604085209280865260d56020526040862090845462001ad662000ad160ff6101005160b81c1660ff6101005160b01c1664ffffffffff8560b81c1661ffff8660881c1663ffffffff8760981c168d8860e01c9060ff8a60401c169063ffffffff6101005116906200c4b5565b95889089908a891362001bee575b9362001b7c96959362001b6e9363ffffffff9362000bcd97549b61ffff8d60881c16925f1462001b8257917f4fa37f0ea2da4229663982f49120b61018ec1a6d0d2eea523dad9719a7dfef599391610140936001600160401b0360405194610120518652886020870152896101005116604087015262000b7c6060870160ff8360401c1662008717565b6005610120519101620141aa565b62001a50565b91610160927f04213fea4abae4cce19e63741cd5968e220f30dd7f5ffe9fc7b0913ed3994d0f94926001600160501b038a5416916001600160401b03604051956101205187528960208801528a6101005116604088015262000c436060880160ff8360401c1662008717565b919050878b8d811562001db05762001c0b9262000ca29162008c7f565b915b82918883111562001d815750600192610160511562001c5157509362001b7c96959362001b6e9363ffffffff9362000bcd975b939750935093509395965062001ae4565b955050505050935062001caf919597507f8c6452308f4aa5da3dd7582bf4f08c41c0bd9378806d96ce939fbddad72bf92692949650604051918291868661012051859094939260609260808301968352602083015260408201520152565b0390a15b1562001d1e5790816001600160501b0360037f2a562f7b66b9d232c3f7a19384fbcff970c9fec0f42ac7ef9ea592fbcb848d209582806080971616831983830154161782820155015460501c169060405192610120518452602084015260408301526060820152a180f35b6003830154604080516101205181526020810194909452830182905260501c6001600160501b0316606083018190529162000e3391907fa9b78fd50db3a3e2b070cb8d415b5a3cd12f80614e74626415f2bcf20ae81d0c90806080810162000e15565b9362001b7c97969463ffffffff9362000bcd979362001daa62000ebf8862001b6e999e62008cc5565b62001c40565b505050899162001c0d565b93955091935062001cb3565b5061014051811062001a5a565b6001600160501b036003830162001e0682825460501c1669ffffffffffffffffffff60501b1983541683558562010719565b54166005830155600360c01b60ff60c01b1983541617825562001a1f565b6313295a4960e11b83526101205160045260448362000f7284620083c5565b505081600382141562001a0c565b50346200092a5760403660031901126200092a577fe38e0dbe12c2dcb6ba8e96202e2cdd922095935e5ca1105ddf9e86c7f79df76662001e90620084ba565b62001e9a6200852f565b9062001ea56200ac13565b811562001ef1576001600160a01b038116845260dd60205260408420805460ff191660011790555b604080516001600160a01b0390921682529115156020820152908190810162001457565b6001600160a01b038116845260dd60205260408420805460ff1916905562001ecd565b50346200092a5760203660031901126200092a5760ff60406020926001600160a01b0362001f41620084ba565b16815260dc84522054166040519015158152f35b50346200092a5760203660031901126200092a5760ff60406020926001600160a01b0362001f82620084ba565b16815260e084522054166040519015158152f35b50346200092a5760203660031901126200092a5760ff60406020926001600160a01b0362001fc3620084ba565b16815260db84522054166040519015158152f35b50346200092a5760203660031901126200092a5760043562001ff86200ac13565b60018110801562002057575b6200203b576020817fc6edc4969138bba547ff56e984b415e7a1ec1181d6199d6946c48e3a858906369260ce55604051908152a180f35b63034bd7dd60e31b8252600160045260fa602452604452606490fd5b5060fa811162002004565b50346200092a5760203660031901126200092a57600435620020836200ac13565b64e8d4a510008111620020c2576020817f0fface2454d594caf83c2c1b1f8da428b41a8585fcf72713ea6ce39cd6cba9fc9260cd55604051908152a180f35b6395d41f3f60e01b825260045264e8d4a51000602452604490fd5b50346200092a57620020ef36620085e9565b9092919233835260da60205260ff60408420541615620018ab57620021136200b139565b6200189c576103fc8411620021615783835260d960205260408320936200213a856200b9c5565b6200214f57506009620010409394016201018b565b63b934a7fb60e01b8452600452602483fd5b63324f0d9160e21b83526004849052602483fd5b50346200092a5760403660031901126200092a57600435906001600160401b0382116200092a57366023830112156200092a5781600401356001600160401b038111620018be573660248260071b85010111620018be57620021d66200852f565b9033835260dc60205260ff604084205416156200220b57620021f76200b139565b6200189c576024620010409394016200a7b6565b631d37e03560e31b835233600452602483fd5b50346200092a5760203660031901126200092a577fa9a3e53f31ef1464015e1b64897b819880bcc9787e25987d6d4336f3613ade2660206001600160a01b0362002267620084ba565b620022716200ac13565b16806001600160a01b031960ca54161760ca55604051908152a180f35b50346200092a5760203660031901126200092a57600435620022af6200d79d565b620022b96200b139565b620010715733825260df60205260ff6040832054166200244c5760ff60e154168062002434575b620024215760cd5481106200240b5733825260d6602052604082205480620023f5575060d7549060018201808311620023e15763ffffffff8111620023d25790602093620023c59260d75583815260d585528360406001818420019283546bffffffffffffffffffffffff80193360601b16911617845533815260d68852205563ffffffff8085161663ffffffff198254161790557f7325fb14450d3e5eb288c620b4ff1d6b43a41b33b4a4f143ae88cd4c12f99ea360405180620023bc863383602090939291936001600160a01b0360408201951681520152565b0390a16200e1bd565b6001609755604051908152f35b634e5bb58160e01b8452600484fd5b634e487b7160e01b84526011600452602484fd5b630c8c12bd60e31b835233600452602452604482fd5b630cfe73bb60e41b825233600452602452604490fd5b636f8bf18b60e11b825233600452602482fd5b5033825260e060205260ff60408320541615620022e0565b6371fa9c9960e01b825233600452602482fd5b50346200092a57806003193601126200092a5760206200247e6200b139565b6040519015158152f35b50346200092a5760403660031901126200092a577f42d42feead688fc3d6ed9ec2f9d2082ee29949efea1263eb51fb2f61f1f35c55620024c7620084ba565b620024d16200852f565b90620024dc6200ac13565b811562002527576001600160a01b038116845260e360205260408420805460ff19166001179055604080516001600160a01b0390921682529115156020820152908190810162001457565b6001600160a01b038116845260e360205260408420805460ff1916905562001ecd565b50346200092a5760203660031901126200092a5762002568620084ba565b6001600160a01b0382549160ff8360081c161592838094620027fb575b8015620027e2575b620025989062008ba1565b60ff198116600117855583620027d0575b501690816001600160a01b031960cb54161760cb5560405163313ce56760e01b8152602081600481865afa8015620027c55784906200277d575b60ff915016916006830362002761576305f5e10060cd55600160d7819055606460ce5564e8d4a5100060d35560e1805460ff1916909117905560c980547ffffffff8001fffffffffffffffffffffffffffffffffffffffffffffffffffff167b0140000000000000000000000000000000000000000000000000000017905583547f7b1f94d30e47df15616bc31716546ce84737fcf471dff8cd336c68fb810d7e6f9161010091620026a69060081c60ff16620026a08162010118565b62010118565b620026b1336200dc67565b855494620026d560ff8760081c16620026ca8162010118565b620026a08162010118565b600160975560cd5460ce5460d35490620026ee6200b889565b9260ff60e154169460405196338852602088015260408701526060860152608085015260a084015260c0830152151560e0820152a16200272c575080f35b61ff00191681557f7f26b83ff96e1f2b6a682f133852f6798a09c465da95921460cefb3847402498602060405160018152a180f35b630f30f42960e01b845260045260248290526006604452606483fd5b506020813d602011620027bc575b816200279a6020938362008967565b81010312620027b8575160ff81168103620027b85760ff90620025e3565b8380fd5b3d91506200278b565b6040513d86823e3d90fd5b61ffff19166101011784555f620025a9565b50303b1580156200258d575060ff81166001146200258d565b50600160ff82161062002585565b50346200092a5760203660031901126200092a5733815260da60205260ff60408220541615620028b7576200283d6200b139565b62000f96576200284f6004356200abc2565b60ff815460c01c16600581101562000f82576004146200286d575080f35b604061ffff60027f2bf3500d8e3b78624f68716bdcfccb30df6b6ef393561a3ffa32e8d357ac7e439360ff60c01b198154168155015460a81c16815190815260016020820152a180f35b63a37849fb60e01b815233600452602490fd5b50346200092a57620028dc36620084d1565b620028e99291926200ac13565b620028f4836200abc2565b63ffffffff815460c81c166200291157926200104092936200acdc565b632f74f1cf60e21b83526004849052602483fd5b50346200092a57806003193601126200092a57620029426200ac13565b8060cf558060d0558060d1558060d2557f4a1c1830c45941cc05cf110c5d7424a3e493f0e42be2522c05ab26c0221062cf6060604051838152836020820152836040820152a180f35b50346200092a576200299d36620086bc565b9033845260da60205260ff6040852054161562002a585790918215159190845b828110620029c9578580f35b806001600160a01b03620029eb620029e560019487876200a717565b6200a728565b16875260e060205262002a0d86604089209060ff801983541691151516179055565b6001600160a01b0362002a26620029e58387876200a717565b167f33e0bf3ce98fac4118d5a0a8fe49e83b6acdfdef32871c9eca20e1528d7701ba6020604051888152a201620029bd565b63a37849fb60e01b845233600452602484fd5b50346200092a5760203660031901126200092a5760043562002a8c6200ac13565b6309c3d8f08082116200117c575060c954612710613fff920460d51b9160d51b19161760c9557f4151e59ddd8ffe35ce0b539f837d353ed0ff884e058b715910c7f4688a5da7366020620011726200b889565b50346200092a5760803660031901126200092a5733815260dc60205260ff6040822054161562000fa55762002b136200b139565b62000f965762002b256004356200abc2565b62002b4461ffff600283015460a81c1660ff835460c01c16906200b8ad565b5060643580151581036200147f57620010409160443590602435906200fcf7565b50346200092a5760403660031901126200092a576004356001600160401b038111620018be5736602382011215620018be578060040135906001600160401b0382116200147f57602481019036602460c0850283010111620027b85762002bcb6200852f565b9162002bd66200b139565b62002e125762002be6336200b855565b9182865260d560205260ff604087205460a01c1662002c0581620083e2565b8062002df85750841562002de45781359262002c21846200abc2565b9060ff825460c01c169260ff600184015460d01c1690338a5260de60205260ff60408b205416948a5b8a81101562002de0578062002d95575b62002c678a838b6200b8e1565b62002d8c57896040890135801562002d8157858062002d78575b62002d20578a8a60a08101359261ffff841162002cc457918160019695938c8c608062002cbd989601359460206060860135950135926200e2e2565b0162002c4a565b5050509062002d0857907f95d41f3f44becfa47a91cf04138709af8e760c9060dcf6091505be37dce141886040600193815190815261ffff6020820152a162002cbd565b6395d41f3f60e01b8d5260045261ffff60245260448cfd5b5062002d6057604080518a8152336020820152600192917f4cd1188857d86056fa3ff56966c92f1f952217fe7328696137d42b1043a5d91c91a162002cbd565b63099a231160e31b8c5260048990523360245260448cfd5b50881562002c81565b505060019062002cbd565b60019062002cbd565b60c08102830160240197508735808a0362002db2575b5062002c5a565b9850925050925062002dc4866200abc2565b9260ff845460c01c1660ff600186015460d01c16925f62002dab565b8b80f35b634e487b7160e01b86526032600452602486fd5b63e0860e5f60e01b875260249087906200106c81620083e2565b630b15863d60e41b8552600485fd5b50346200092a5760203660031901126200092a5762002e3f6200d79d565b62002e496200b139565b62000f965762002e5b6004356200e1bd565b600160975580f35b50346200092a5762002e7536620084d1565b9033835260da60205260ff60408420541615620018ab5762002e966200b139565b6200189c579062001040916200a77b565b50346200092a5762002eb936620084d1565b62002ec36200ac13565b614e20811162002f455781604091620016b362002f017f29246c8aee392e4f61a964c88192adac4afc12ed286fcbd7698783763467475f956200abc2565b80547fffffffffffffffffffffffff0000ffffffffffffffffffffffffffffffffffff16609084901b73ffff00000000000000000000000000000000000016179055565b60649291634dcc027160e11b8352600452602452614e20604452fd5b50346200092a57806003193601126200092a5760209060c95490506001600160701b0360405191168152f35b50346200092a5760203660031901126200092a5760043562002fae6200ac13565b62002fb9816200abc2565b60ff815460c01c1660058110156200302b57600181036200300f57507fc5ed7f880900879a894e28cc520c997b23650b24b94faf0b7a4e9621b09dec8b9160209160ff60c01b198154169055604051908152a180f35b8362000f7260449285637edd2a1d60e01b8452600452620083c5565b634e487b7160e01b84526021600452602484fd5b50346200092a5760803660031901126200092a576044356001600160401b038111620018be5762003075903690600401620085b6565b90620030806200854f565b9233815260dc60205260ff6040822054161562000fa557620030a16200b139565b62000f965760206200247e8585856024356004356200a73d565b50346200092a57620030cd36620086bc565b9033845260da60205260ff6040852054161562002a585790918215159190845b828110620030f9578580f35b806001600160a01b0362003115620029e560019487876200a717565b16875260df6020526200313786604089209060ff801983541691151516179055565b6001600160a01b0362003150620029e58387876200a717565b167f78ba4d4e021eac2ff3a6a2337dc61ca2b49986705a2438b5764b9c18bd1c25fd6020604051888152a201620030ed565b50346200092a576200319436620084d1565b9190620031a06200ac13565b620031ab816200abc2565b6001841080156200326a575b6200324e5760020160ff815460d81c168085101562003237575080547fffff00ffffffffffffffffffffffffffffffffffffffffffffffffffffffffff1660e885901b60ff60e81b1617905560408051918252602082018490527fbe36b3b0b7a3a58d54c694996c6aadba93761ca8210af4d6b72115c02aa210e491a180f35b63291eed9d60e01b84526004859052602452604483fd5b60648385630c8f0a6960e41b8252600452600160245281604452fd5b5060648411620031b7565b50346200092a5760203660031901126200092a5760ff60406020926001600160a01b03620032a2620084ba565b16815260de84522054166040519015158152f35b50346200092a5760403660031901126200092a577f6259c67b83c17d274bef178edcf79755337c12fdc6de65b955b5ab3f95e82e05620032f5620084ba565b620032ff6200852f565b906200330a6200ac13565b811562003355576001600160a01b038116845260db60205260408420805460ff19166001179055604080516001600160a01b0390921682529115156020820152908190810162001457565b6001600160a01b038116845260db60205260408420805460ff1916905562001ecd565b50346200092a57620010406200338e36620084d1565b90620033996200ac13565b620091b0565b50346200092a5760203660031901126200092a5760ff60406020926001600160a01b03620033cc620084ba565b16815260dd84522054166040519015158152f35b50346200092a57620033f236620084d1565b620033fc6200ac13565b62003407826200abc2565b60ff815460c01c16600581101562001588576001810362003483575091818360409360047f7101921841f3f86b1db94836f0b095d276833a7b6669c5d7628161978ae7e686960155780200000000000000000000000000000000000000000000000060ff60c01b1982541617905582519182526020820152a180f35b8462000f7260449286634d3d766360e01b8452600452620083c5565b50346200092a57806003193601126200092a576020620034be6200ba9c565b604051908152f35b50346200092a5760a03660031901126200092a57620034e4620084a6565b90620034ef6200854f565b6084359081151582036200147f5733835260db60205260ff6040842054161562003547576200351d6200b139565b6200189c5762001040929363ffffffff6200353a6004356200abc2565b911690602435906200d205565b636dfc4d6160e11b835233600452602483fd5b50346200092a5760403660031901126200092a576004356200357b6200852f565b620035856200ac13565b62003590826200abc2565b90815460ff8160c01c1693620035a785826200e080565b5082158095819662003744575b5062003644575b5050156200363c57825b60058110156200302b579161ffff6002837f2bf3500d8e3b78624f68716bdcfccb30df6b6ef393561a3ffa32e8d357ac7e439560ff60c01b1978ff000000000000000000000000000000000000000000000000604097549260c01b169116178155015460a81c16908251918252156020820152a180f35b6004620035c5565b600284015460f01c60ff166200371e576001600160a01b0360ca54168015801562003711575b620036f1575063ffffffff8260401c1615620036df57505b63ffffffff8160c81c16156200369a575b80620035bb565b63ffffffff60c81b197cffffffff00000000000000000000000000000000000000000000000000620036cc436200e16c565b91505060c81b1691161782555f62003693565b630c5eed9d60e11b8652600452602485fd5b6006850154631744ee4f60e31b8852600492909252602452604452606485fd5b506006850154156200366a565b63ffffffff82161562003732575062003682565b63136618cd60e01b8652600452602485fd5b905060058110156200375857155f620035b4565b634e487b7160e01b87526021600452602487fd5b50346200092a576200377e36620084d1565b620037886200ac13565b62003793826200abc2565b620186a082116200381e5780547cffffffffffffffffffffffffffffffffffffffffffffffffffffffffff1660e883901b7fffffff0000000000000000000000000000000000000000000000000000000000161790556040805192835260208301919091527f95e1172237a02916c6d5aba284d04aa4e02e876b0c666387d62f03d0cd77719a91a180f35b6395d41f3f60e01b84526004829052620186a0602452604484fd5b50346200092a576200384b36620084d1565b919062ffffff83116200098457602092600c6200386c62000967936200abc2565b016200df5d565b50346200092a577f672c0a156ee23d5a79ee89b233d6d30458115eabf152fb294cb8a894eadeeb116040620038a836620084d1565b620038b26200ac13565b620016b381620038c2846200abc2565b6200de8a565b34620041b857610140366003190112620041b8576004356001600160401b038111620041b857620038fe90369060040162008a01565b6024356001600160401b038111620041b8576200392090369060040162008a01565b909160443592606435926084359060a43590610104356101243591620039456200ac13565b6200394f6200d79d565b6050871162004181576010811162004149576103fc89116200413657885f5260d960205260405f209662003983886200b9c5565b6200412357600662003996868862009239565b11620040f857600788019a6001600160401b0382116200403b57620039bc8c5462008a31565b601f8111620040c4575b505f90601f83116001146200405b57620039f892915f91836200404f575b50508160011b915f199060031b1c19161790565b8a555b60088701956001600160401b0382116200403b5762003a1b875462008a31565b601f811162003ffb575b505f90601f831160011462003f925762003a5692915f918362003f865750508160011b915f199060031b1c19161790565b85555b60028601805461ffff60a81b191660a88a901b61ffff60a81b161781559360ff60c01b1987541687556006811162003f6f5786546006851162003f57577fffffffffffffffff0000ffffffffffffffffffffffffffffffffffffffffffff76ff0000000000000000000000000000000000000000000077ff00000000000000000000000000000000000000000000008760b81b169360b01b1691161717865562003b0660c435876200dc05565b62003b1460e435876200de12565b8181101562003f42579062003b2e62003b3592876200de47565b856200ddb1565b62003b40816200a5e8565b80620f42400290620f424082040362003ef85762003b5f90856200de8a565b81547fffff000000ffffffffffffffffffffffffffffffffffffffffffffffffffffff167d555f5a000000000000000000000000000000000000000000000000000000178255600a84018054600986019291901562003f22575b5063feffffff80871162003f0c5750815463ffffffff871663ffffffff1990911617825584546001860180547affffffffffffffffffffffffffffffffffffffffffffffffffffff167f09000000640000000000000000000000000000000000000000000000000000001781557fffffffffffffffffffff00000000ffffffffffffffffffffffffffffffffffff909116743c138800000000000000000000000000000000000017865583547427100000000000000000000000000000000000000061ffff60981b1990911617845561d8ef9261ffff9062003c9c85826200defe565b805468ff000000000000000019166802000000000000000017905586547cffffffffffffffffffffffffffffffffffffffffffffffffffffffffff16610c3560ec1b17875581547a010061a80061a80061a801731800823500823500000000000000007fffffffffff00000000000000000000000000000000000000ffffffffffffffff90911617825560d85462003d489062003d399062009323565b978860d855549554936200a5e8565b9182620f42400292620f424084040362003ef85754956040519a8b9a8b5260208b016103e090526103e08b0162003d7f916200a690565b8a810360408c015262003d92916200a690565b9762003da960608b0160ff60c089901c16620083d4565b60808a01528460b01c60ff1660a08a01528460b81c60ff1660c08a0152808360781c1660e08a0152808360881c166101008a0152808360b81c166101208a01528260c81c166101408901526101608801526101808701605a90526101a08701605f905260e81c60ff166101c08701526101e0860161138890526102008601606490526102208601600990526102408601603c9052610260860161271090526102808601526102a085016002905260e81c6102c08501528060401c62ffffff166102e08501528060581c62ffffff166103008501528060d01c60ff1615156103208501528060701c62ffffff166103408501528060881c62ffffff166103608501528060a01c62ffffff1661038085015260b81c62ffffff166103a08401526103c0830152037fd78b2274f0f8c5fb36f3464d4fc273e80ba45dde960a535eeacf3c1ae42c4e3c91a16001609755005b634e487b7160e01b5f52601160045260245ffd5b866395d41f3f60e01b5f5260045260245260445ffd5b5f1990555f8052600b850160205260405f20600181541790558862003bb9565b6322e659c160e11b5f5260045260245260445ffd5b846395d41f3f60e01b5f52600452600660245260445ffd5b6395d41f3f60e01b5f52600452600660245260445ffd5b013590508c80620039e4565b601f19831691885f5260205f20925f5b81811062003fe2575090846001959493921062003fc8575b505050811b01855562003a59565b01355f19600384901b60f8161c191690558b808062003fba565b9193602060018192878701358155019501920162003fa2565b6200402990885f5260205f20601f850160051c8101916020861062004030575b601f0160051c01906200a5f7565b8b62003a25565b90915081906200401b565b634e487b7160e01b5f52604160045260245ffd5b013590508d80620039e4565b601f198316918d5f5260205f20925f5b818110620040ab575090846001959493921062004091575b505050811b018a55620039fb565b01355f19600384901b60f8161c191690558c808062004083565b919360206001819287870135815501950192016200406b565b620040f1908d5f5260205f20601f850160051c810191602086106200403057601f0160051c01906200a5f7565b8c620039c6565b60848a86886040519263bc42e62760e01b845260048401526006602484015260448301526064820152fd5b8963c401953760e01b5f5260045260245ffd5b8863324f0d9160e21b5f5260045260245ffd5b604051631ffb247760e11b8152606060048201529081906200417060648301828a6200a670565b906024830152601060448301520390fd5b60405163ab94bf3960e01b8152606060048201528088620041a760648301828f6200a670565b906024830152605060448301520390fd5b5f80fd5b34620041b8576040366003190112620041b8576004356024356001600160401b038111620041b857620041f4903690600401620089e0565b335f5260db60205260ff60405f205416156200424057620042146200b139565b620042315781620042296200422f936200abc2565b6200d5ba565b005b630b15863d60e41b5f5260045ffd5b636dfc4d6160e11b5f523360045260245ffd5b34620041b8575f366003190112620041b85760206001600160a01b0360335416604051908152f35b34620041b8576020366003190112620041b8576200429b6004356200ac6c565b8054908160f01c90620042ae82620092ca565b91600263ffffffff5f9560b01c169201915b801515806200432a575b156200431a575f528160205263ffffffff60405f206200430e620042ee8762009323565b96620042fa8362009332565b62004306828962008d78565b528662008d78565b505460201c16620042c0565b604051806200073f868262008620565b50818510620042ca565b34620041b8576200434536620084d1565b6200434f6200ac13565b6200435a826200abc2565b600281015461ffff8160c81c168084108015620043ec575b620043b5577f258cfea0edc89c1ba4ce7d75bd475712ab2a06ce19794e2193cbd64f182a3f7860408686620043a881886200ddb1565b82519182526020820152a1005b60405163be5707cb60e01b8152600481018690526024810185905261ffff918216604482015260b89290921c166064820152608490fd5b5061ffff8260b81c1684111562004372565b34620041b8576020366003190112620041b8575f808080600435438110156200444c575b50906200073f91604051948594859094939260609260808301968352602083015260408201520152565b935050505060cf549060d1549160d25460d054908484115f146200450c57505050905061217b810180821162003ef8579061085f810180911162003ef8576103e86200449e60ce5460cc549062008c7f565b0460d3548082115f146200450457505b61217b810461217b81029181159282810461217b1484171562003ef857620044d69162008cc5565b61085f82029282840461085f14171562003ef8576200073f92620044fa9162009239565b925b909162004422565b9050620044ae565b80841162004522575b6200073f929350620044fc565b6200073f9262004542836200453c62004549948862008cc5565b62008c7f565b9062009239565b9283925062004515565b34620041b8575f366003190112620041b85760c060cc5460c9546001600160701b03906c1fffffffffffffffffffffffff6001600160a01b0360cb5416916001600160a01b0360ca5416936040519586528116602086015260701c16604084015260066060840152608083015260a0820152f35b34620041b8576020366003190112620041b857600435620045e76200ac13565b60c9546001600160701b031680821162004689575060cc5480821162004674577ffbebce9e66eea6596d62b805af61b4b1ea406128e73ffb928faa091b17d524f960208362004636816200d945565b62004641816200b960565b6200464f8160cc5462008cc5565b60cc556200466b816001600160a01b0360cb541633906200dafb565b604051908152a1005b6303dc938760e61b5f5260045260245260445ffd5b62fae2d560e21b5f5260045260245260445ffd5b34620041b8576040366003190112620041b8577f184fbff1cd7a3d3af1fd538263d79328e135402c70c68de9b795ee4fcc0440bc620046db620084ba565b620046e56200852f565b90620046f06200ac13565b81156200473c576001600160a01b0381165f5260da60205260405f20600160ff198254161790555b604080516001600160a01b039092168252911515602082015290819081015b0390a1005b6001600160a01b0381165f5260da60205260405f2060ff19815416905562004718565b34620041b8576040366003190112620041b8577ffe982a540a46b78ba39fe94b2fec322414acda6ca69e165520017d474e0dee4860606200479f620084ba565b620047a96200852f565b620047b36200ac13565b620047be826200b855565b811562004804576001600160a01b0383165f5260de60205260405f20600160ff198254161790555b6001600160a01b0360405193168352602083015215156040820152a1005b6001600160a01b0383165f5260de60205260405f2060ff198154169055620047e6565b34620041b8576040620048506200484a6200484236620084d1565b91906200abc2565b6200dcbd565b82519160050b82526020820152f35b34620041b8576200487036620084d1565b90335f5260dd60205260ff60405f20541615620048ef57620048916200b139565b6200423157614e208211620048d457807f29246c8aee392e4f61a964c88192adac4afc12ed286fcbd7698783763467475f92620043a862002f016040946200abc2565b634dcc027160e11b5f52600452602452614e2060445260645ffd5b6338095ba560e21b5f523360045260245ffd5b34620041b8576020366003190112620041b857600435620049226200ac13565b6200492d816200abc2565b90600282015464ffffffffff8116159081159162004b22575b50801562004af3575b62004ae15761ffff600983015460201c168062004acb577fc1c33d1bd4abb6d1a8ed08f6a49cdf51c1db8b81ce6810a713fcd0291cc63f97602083856001600160501b0360038201818154168062004a7e575b505460501c16908162004a30575b5050805f5260d982525f601160408220828155826001820155826002820155826003820155826004820155826005820155826006820155620049f5600782016200a60f565b62004a03600882016200a60f565b82600982015582600a82015582600c820155015562004a2460d8546200a663565b60d855604051908152a1005b8162004a607f6cbcbbf194e245478b88cdee7b07dd6402cf492bcef0df03eae198637a072474936040936200cd0f565b62004a6b816200adae565b81519084825285820152a18380620049b0565b60408162004aae7f9adf439943034ba500551cd8e7417ea8cafa00933026f4e8e3612c01524d637793876200ad7f565b62004ab9816200adae565b81519087825288820152a186620049a2565b9063e47393c360e01b5f5260045260245260445ffd5b631bb9ae6f60e11b5f5260045260245ffd5b5060ff825460c01c16600581101562004b0e5715156200494f565b634e487b7160e01b5f52602160045260245ffd5b64ffffffffff915060281c1615158362004946565b34620041b8575f366003190112620041b857336001600160a01b03606554160362004b67576200422f336200dc67565b60405162461bcd60e51b815260206004820152602960248201527f4f776e61626c6532537465703a2063616c6c6572206973206e6f74207468652060448201527f6e6577206f776e657200000000000000000000000000000000000000000000006064820152608490fd5b34620041b8576020366003190112620041b85762004bef6200853f565b62004bf96200b139565b620042315762004c09336200b855565b90815f5260d560205260405f209182549260ff8460a01c169362004c2d85620083e2565b8462004cb9577f743a9ef374d6b3c905b8fd725a33cc63980a202108bfd3cbf65e94a23640a02e94507fffffffffffffffffffff00ffffffffffffffffffffffffffffffffffffffffff75ff00000000000000000000000000000000000000000085151560a81b1691161790556200473760405192839283909291602090604083019483521515910152565b63e0860e5f60e01b5f528462004ccf81620083e2565b60045260245ffd5b34620041b85762004ce836620086fc565b62004cf26200ac13565b60098110801562004e47575b62004e2b5762004d0e816200a5e8565b808311801562004e1d575b62004de7575091620047377fca21b8a8b8d11b0faf46a19341a9e5fa3d668a48778efaff9fbec48fa21e5df09362004dca600162004d57856200abc2565b0180547affffffffffffffffffffffffffffffffffffffffffffffffffffff1660d887901b7effffffff000000000000000000000000000000000000000000000000000000161760f884901b7fff0000000000000000000000000000000000000000000000000000000000000016179055565b604051938493846040919493926060820195825260208201520152565b905063ffffffff81101562004e1057915b6377b084bf60e11b5f5260045260245260445260645ffd5b5063ffffffff9162004df8565b5063ffffffff831162004d19565b633361596f60e11b5f526004526009602452602460445260645ffd5b506024811162004cfe565b34620041b8576020366003190112620041b8576004356001600160401b038111620041b85736602382011215620041b85780600401356001600160401b038111620041b8573660248260091b84010111620041b857335f5260dc60205260ff60405f2054161562004eda5762004ec76200b139565b620042315760246200422f92016200a3a0565b631d37e03560e31b5f523360045260245ffd5b34620041b85762004f1562004f0236620084d1565b919062004f0e62009743565b506200abc2565b815f526012810160205260405f20906040519162004f3383620088da565b549063ffffffff82168352602083019063ffffffff8360201c168252604084019362004f6660ff8560401c16866200979d565b60608101946001600160501b038560481c168652608082019363ffffffff8660981c16855260a083019564ffffffffff8160b81c16875260c084019060e01c815262004fb2856200c46a565b5050509687159889620050ca575b845194600286101562004b0e576200500e8a63ffffffff998a988c8a808a511691511661ffff885160401c169164ffffffffff8a51169385549660ff808960b81c169860b01c16966200c4b5565b99919790985116955116905191600283101562004b0e5751985163ffffffff16925164ffffffffff16935163ffffffff16946040519c6200504f8e620088f6565b8d5260208d015260408c01526200506a9060608c016200979d565b6001600160401b03871660808b015260a08a015260c089015260e088015261010087015261012086015261014085015260401c61ffff166101608401526040519283620050b79162008725565b610180830152156101a08201526101c090f35b865463ffffffff16985062004fc0565b34620041b8575f366003190112620041b857620050f66200ac13565b6001600160a01b0319606554166065555f6001600160a01b036033546001600160a01b03198116603355167f8be0079c531659141344cd1fd0a4f28419497f9722a3daafe3b4186f6b6457e08280a3005b34620041b8577f8e37539629486a88c6a6083eb90030fb61cb856d56d96f53a326fda0d399ef3260406200517b36620084d1565b620051856200ac13565b620043a88162005195846200abc2565b6200dc05565b34620041b8576040366003190112620041b857600435620051bb6200852f565b620051c56200ac13565b620051d0826200abc2565b916002830180549360ff8560f01c1680620052d2575b62005260575b507f8ac110193a47d8207dd88897368f2031dd31bfea6bcfd9a2b3ea6759e81c4e14937fff00ffffffffffffffffffffffffffffffffffffffffffffffffffffffffffff60ff60f01b85151560f01b1691161790556200473760405192839283909291602090604083019483521515910152565b6001600160a01b0360ca541680158015620052c5575b620052a657505460401c63ffffffff1615620052935784620051ec565b50630c5eed9d60e11b5f5260045260245ffd5b60068492015491631744ee4f60e31b5f5260045260245260445260645ffd5b5060068201541562005276565b508315620051e6565b34620041b85760c0620052fc6002620052f436620084d1565b92906200abc2565b015461ffff8160b81c169164ffffffffff8260501c168261ffff6200533e60ff849660d81c16948560ff8560e01c1697889264ffffffffff8716908b6200dbd6565b9160405196875260c81c16602086015260408501526060840152608083015260a0820152f35b34620041b8576020366003190112620041b8576060620053866004356200abc2565b60ff815460c01c16906005600482015491015490620053a96040518094620083d4565b60208301526040820152f35b34620041b857620053cc6009620052f436620084d1565b0162ffffff8211620053f257604091620053e6916200c52f565b82519182526020820152f35b5063c6ebaaa160e01b5f5260045262ffffff60245260445ffd5b34620041b8576020366003190112620041b8576004356200542c6200b139565b62004231576200543c336200b855565b90815f5260d560205260405f209160ff835460a01c166200545d81620083e2565b60028114620054e35750620047376001600160501b0384620054a1857f2687926b167b6633deaaa80c3d106be87c0530fbc9ecba972ef8da4a3f2c489b976200d815565b50620054ae85826200dae2565b620054b9856200adae565b5416604051938493849160409194936001600160501b039160608501968552602085015216910152565b63e0860e5f60e01b5f5262004ccf81620083e2565b34620041b8576020366003190112620041b857600435620055186200d79d565b620055226200b139565b620042315762005532336200b855565b90815f5260d560205260405f209160ff835460a01c166200555381620083e2565b80620054e357506200556682846200d815565b5060cc54808311620055eb5750620055e16001600160501b037f8a087568cf2efa04e1e6c72c7f61b68a1ac013d6a33bd6e978e1ba2b4efc04d494620055ac856200d945565b620055b885826200dae2565b620055c68560cc5462008cc5565b60cc55620054b985336001600160a01b0360cb54166200dafb565b0390a16001609755005b90506303dc938760e61b5f5260045260245260445ffd5b34620041b8576200561336620086fc565b916200561e6200ac13565b62005629816200abc2565b62005635848462009239565b90620186a082116200573757620186a084116200571d5760010180546affffff00000000000000001916604085901b6affffff000000000000000016178155620186a08511620057035780546dffffff00000000000000000000001916605886901b6dffffff000000000000000000000016179055620186a090810390811162003ef8577f61c468e821b1662263e339e465b2b8aa3c36b504f804ffac4a19ad8eae3df813936200473791604051948594859094939260609260808301968352602083015260408201520152565b846395d41f3f60e01b5f52600452620186a060245260445ffd5b836395d41f3f60e01b5f52600452620186a060245260445ffd5b6084838686604051926334af053b60e21b8452600484015260248301525f60448301526064820152fd5b34620041b8576020366003190112620041b8577f4837c28a17fa53b7af0fe87d3e7cf2a681119d768391e182ed4dfd33497e288f6020620057a16200853f565b620057ab6200ac13565b151560ff1960e1541660ff82161760e155604051908152a1005b34620041b857620057e6620057da36620084d1565b919062004f0e62009af8565b9061ffff811162005971575f5260100160205260405f20604051906200580c82620088bd565b5463ffffffff811682528060201c60ff16906200582982620083e2565b81602084015260408301928160281c62ffffff168452606081018260401c64ffffffffff168152608082018360681c61ffff16815260a083018460781c63ffffffff16815260c08401908560981c61ffff16825260e08501928660a81c61ffff1684526101008601948760b81c61ffff1686526101208701968860c81c61ffff16885261014081019860d81c61ffff1689525163ffffffff1699620058ce8a620083e2565b5162ffffff16905164ffffffffff16915161ffff16925163ffffffff16935161ffff16945161ffff16955161ffff16965161ffff16975161ffff16986040519a620059198c620088bd565b8b526200592681620083e2565b60208b015260408a01526060890152608088015260a087015260c086015260e085015261010084015261012083015261014082015260405190816200596b91620087c8565b61016090f35b630c8f0a6960e41b5f526004525f60245261ffff60445260645ffd5b34620041b8576020366003190112620041b8576004356001600160401b038111620041b857620059c2903690600401620085b6565b335f5260db60205260ff60405f205416156200424057620059e26200b139565b62004231576200422f916200a252565b34620041b8575f366003190112620041b857602060ff60e154166040519015158152f35b34620041b85762005a2736620084d1565b9062005a326200ac13565b62005a3d816200abc2565b6001600160501b03600382015460501c1683811062005a92577f6cbcbbf194e245478b88cdee7b07dd6402cf492bcef0df03eae198637a0724746040848662005a8781876200cd0f565b620043a8816200adae565b839062fae2d560e21b5f5260045260245260445ffd5b34620041b8576020366003190112620041b8577fb405a09f729f41978995eba596767f10784a912a3e8d56a978e5e167c1b23d7d602062005ae86200853f565b62005af26200ac13565b60c954811562005b25576001905b600160ff62005b0e6200b12f565b9316831b921b19161760c9556040519015158152a1005b5f9062005b00565b34620041b85760a0366003190112620041b85762005b4a620084a6565b60643561ffff81168103620041b857608435906002821015620041b857335f5260dc60205260ff60405f2054161562004eda5762005b876200b139565b62004231576200422f9260243560043562009e6e565b34620041b8576040366003190112620041b85762005bba62008492565b335f5260db60205260ff60405f20541615620042405762005bda6200b139565b62004231576200422f9063ffffffff62005bf66004356200abc2565b9116906200af74565b34620041b8576020366003190112620041b8577f06d9a2e5d1f47e8b66c517104114f36514593b09c9b90cb622a6883e595d4bcd602060043562005c426200ac13565b62005c4d816200adae565b62005c5b8160cc5462009239565b60cc556200466b816001600160a01b0360cb5416309033906200c60c565b34620041b8575f366003190112620041b8576001600160a01b037f000000000000000000000000000000000000000000000000000000000000000016300362005ce65760206040517f360894a13ba1a3210667c828492db98dca3e2076cc3735a920a3ca505d382bbc8152f35b60405162461bcd60e51b815260206004820152603860248201527f555550535570677261646561626c653a206d757374206e6f742062652063616c60448201527f6c6564207468726f7567682064656c656761746563616c6c00000000000000006064820152608490fd5b34620041b85762005d6236620087a9565b62005d6f9391936200ac13565b62005d7a826200abc2565b62005d918262005d8b878762009239565b62009239565b90620186a0821162005f1957620186a08511620057035760010180547fffffffffffffffffffffffff000000ffffffffffffffffffffffffffffffffff16608886901b73ffffff000000000000000000000000000000000016178155620186a0861162005eff5780547fffffffffffffffffff000000ffffffffffffffffffffffffffffffffffffffff1660a087901b76ffffff000000000000000000000000000000000000000016178155620186a0831162005ee55780547fffffffffffff000000ffffffffffffffffffffffffffffffffffffffffffffff79ffffff0000000000000000000000000000000000000000000000808660b81b16169116179055620186a00390620186a0821162003ef8577f58735d184c71d18d22f8f2eb43be3e299cad7d465faac909163477072a58f9e99460a0946040519485526020850152604084015260608301526080820152a1005b826395d41f3f60e01b5f52600452620186a060245260445ffd5b856395d41f3f60e01b5f52600452620186a060245260445ffd5b5050604051631121702960e01b815260048101929092526024820192909252604481018390526064810191909152608490fd5b34620041b8576020366003190112620041b8575f61010060405162005f7181620088a0565b8281528260208201528260408201528260608201528260808201528260a08201528260c08201528260e08201520152600162005faf6004356200abc2565b015462ffffff8160401c1662ffffff8260581c169162005fd0838362009239565b620186a00392620186a0841162003ef85762ffffff8260881c1662ffffff8360a01c1662ffffff8460b81c16916200600e8362005d8b848462009239565b620186a00393620186a0851162003ef85761012097604051916200603283620088a0565b888352602083019081526040830191825260ff610100606085019462ffffff8b60701c1686526080810196875260a0810197885260c0810198895260e08101998a52019860d01c16151588526040519889525160208901525160408801525160608701525160808601525160a08501525160c08401525160e0830152511515610100820152f35b6040366003190112620041b857620060d0620084ba565b6024356001600160401b038111620041b857620060f2903690600401620089e0565b620061606001600160a01b037f0000000000000000000000000000000000000000000000000000000000000000166200612e81301415620093a5565b6001600160a01b037f360894a13ba1a3210667c828492db98dca3e2076cc3735a920a3ca505d382bbc54161462009418565b6200616a6200ac13565b7f4910fdfa16fed3260ed0e7147f7cc6da11a60208b5b9406d12a635614ffd91435460ff1615620061a157506200422f9062011575565b6040516352d1902d60e01b81526001600160a01b03831690602081600481855afa5f918162006362575b506200622d5760405162461bcd60e51b815260206004820152602e60248201527f45524331393637557067726164653a206e657720696d706c656d656e7461746960448201526d6f6e206973206e6f74205555505360901b6064820152608490fd5b7f360894a13ba1a3210667c828492db98dca3e2076cc3735a920a3ca505d382bbc036200630b576200625f8362011575565b7fbc7cd75a20ee27fd9adebab32041f755214dbc6bffa90cc0225b39da2e5c2d3b5f80a280511580159062006302575b6200629657005b6200422f915f8060405193620062ae60608662008967565b602785527f416464726573733a206c6f772d6c6576656c2064656c65676174652063616c6c6020860152660819985a5b195960ca1b6040860152602081519101845af4620062fb62015dc7565b9162019446565b5060016200628f565b60405162461bcd60e51b815260206004820152602960248201527f45524331393637557067726164653a20756e737570706f727465642070726f786044820152681a58589b195555525160ba1b6064820152608490fd5b9091506020813d60201162006393575b81620063816020938362008967565b81010312620041b857519085620061cb565b3d915062006372565b34620041b8576101e0366003190112620041b857620063ba62008ceb565b50620063c56200b139565b6200423157620063d5336200b855565b805f5260d560205260405f209060ff825460a01c16620063f581620083e2565b8015158062006538575b620054e357506024359062006414826200abc2565b90604435936007851015620041b85760e43580151590818103620041b85750610104359485151595868103620041b85750610124359081151597888303620041b85760409862006526987f02d2bf39d2355aaa5486487e934403fd3ba3f88c73ab71938cee11931fddeb7b956102209550620064b05a948d519687528a60208801526004358e880152606435606088015260808701906200a392565b60843560a086015260a43560c086015260c43560e08601526101008501526101208401526101408301526101443561016083015261016435610180830152610184356101a08301526101a4356101c08301526101c4356101e0830152610200820152a161ffff600284015460781c16926200b43a565b60208251918051835201516020820152f35b506044356007811015620041b85760041415620063ff565b34620041b8576020366003190112620041b857600435620065706200ac13565b64e8d4a5100081108015620065db575b620065b6576020817f2407f52a609c844e44dbad3e5a8ec9347e6aa702684e124256f81ef7504b9d1b9260d355604051908152a1005b63747693eb60e11b5f5264e8d4a51000600452655af3107a400060245260445260645ffd5b50655af3107a4000811162006580565b34620041b8576200660a6200660036620087a9565b9291909162009b4b565b9060405190604082019260408352815180945260206060840192015f945b8086106200663e57505082935060208301520390f35b9092602061016082620066556001948851620087c8565b0194019501949062006628565b34620041b857620066733662008584565b90335f5260da60205260ff60405f205416156200671857620066946200b139565b6200423157620066a482620083e2565b811562006709577f287a1a0be47186fe812cf10628edc8c56638095124099fea05c3e3f59e3a0dc691620066da6040926200b855565b90815f5260d5602052620066f181845f2062009247565b82519182526200670181620083e2565b6020820152a1005b633f068f8760e11b5f5260045ffd5b63a37849fb60e01b5f523360045260245ffd5b34620041b857620067476200674036620086fc565b91620097aa565b610c4051610c6051919290604051926080840194608085528351809652602060a0860194015f965b8088106200679157505084955060208501526040840152151560608301520390f35b9094602061018082620067a86001948a5162008725565b019601970196906200676f565b34620041b857620067c636620084d1565b90620067d16200ac13565b620067dc816200abc2565b620186a0831162005ee557600101805470ffffff00000000000000000000000000001916607084901b70ffffff0000000000000000000000000000161790556040805191825260208201929092527f82af0435eb6aa1e7cd302eaf1f32e10e8d7bb8e96d1f724a6006fbaa4571890f9190a1005b34620041b8576200686136620086bc565b90335f5260dc60205260ff60405f2054161562004eda57620068826200b139565b62004231576200422f9262009628565b34620041b8576020366003190112620041b857602061ffff6002620068b96004356200abc2565b015460781c16604051908152f35b34620041b8576020366003190112620041b8576001600160a01b03620068ec620084ba565b165f5260df602052602060ff60405f2054166040519015158152f35b34620041b8575f366003190112620041b8576020620034be6200bac2565b34620041b8576020366003190112620041b857604060096200694a6004356200abc2565b015460ff82519161ffff8160301c168352831c166020820152f35b34620041b8576040366003190112620041b8576004356001600160401b038111620041b85736602382011215620041b8578060040135906001600160401b038211620041b8573660246101e0840283010111620041b857620069c66200852f565b620069d06200b139565b62004231576200073f926024620069e89301620094c3565b60405191829182620084e8565b34620041b8576020366003190112620041b85762006a156004356200abc2565b600a810154906120206040519162006a2e828462008967565b61010083526020830191601f1901368337600b81015f5b610100811062006aaa575050600961ffff91015460201c166040519260608401948452606060208501525180945260808301915f945b80861062006a9157505082935060408301520390f35b9092602080600192865181520194019501949062006a7b565b806001915f528260205260405f205462006ac5828862008d78565b520162006a45565b34620041b8576020366003190112620041b85762006aea620084ba565b62006b266001600160a01b037f0000000000000000000000000000000000000000000000000000000000000000166200612e81301415620093a5565b62006b306200ac13565b60405190602062006b42818462008967565b5f8352808301601f1982013682377f4910fdfa16fed3260ed0e7147f7cc6da11a60208b5b9406d12a635614ffd91435460ff161562006b895750506200422f915062011575565b6001600160a01b03839293166040516352d1902d60e01b81528481600481855afa5f918162006d3d575b5062006c155760405162461bcd60e51b815260048101869052602e60248201527f45524331393637557067726164653a206e657720696d706c656d656e7461746960448201526d6f6e206973206e6f74205555505360901b6064820152608490fd5b7f360894a13ba1a3210667c828492db98dca3e2076cc3735a920a3ca505d382bbc0362006ce65762006c478362011575565b7fbc7cd75a20ee27fd9adebab32041f755214dbc6bffa90cc0225b39da2e5c2d3b5f80a283511580159062006cde575b62006c7e57005b5f80916200422f957f416464726573733a206c6f772d6c6576656c2064656c65676174652063616c6c6040519662006cb860608962008967565b60278852870152660819985a5b195960ca1b60408701525190845af4620062fb62015dc7565b505f62006c77565b60405162461bcd60e51b815260048101859052602960248201527f45524331393637557067726164653a20756e737570706f727465642070726f786044820152681a58589b195555525160ba1b6064820152608490fd5b9091508581813d831162006d6a575b62006d58818362008967565b81010312620041b85751908762006bb3565b503d62006d4c565b34620041b8576040366003190112620041b8577ffff8b0b240abf69d0ca9160bd7dcc49339068496d45e0bf7aab7468fc6a6c2c760043562006db36200852f565b9062006dbe6200ac13565b600162006dcb826200abc2565b0180547fffffffffff00ffffffffffffffffffffffffffffffffffffffffffffffffffff7aff000000000000000000000000000000000000000000000000000085151560d01b1691161790556200473760405192839283909291602090604083019483521515910152565b34620041b85762006e4736620084d1565b62006e516200ac13565b62006e5c826200abc2565b60018210801562006f32575b62006f155760020160ff815460e01c168083101562006eff5781547fffffffff00ffffffffffffffffffffffffffffffffffffffffffffffffffffff1660d884901b7bff0000000000000000000000000000000000000000000000000000001617825560408051858152602081018590527ff4b59dd9ee04b23a163fa42f622d424f19a1cc0f76d4455f900106cef0e3c5129190a1005b82630ba8360160e41b5f5260045260245260445ffd5b50630c8f0a6960e41b5f526004526001602452606460445260645ffd5b506064821162006e68565b34620041b8576020366003190112620041b85760043562006f5d6200ac13565b6309c3d8f080821162006fb0575060c95460e391612710613fff9104831b921b19161760c9557fcd3426b08e2946f33fe401b723f71049867976631425553ecf95848fc4b088a960206200466b6200ba9c565b90630c8f0a6960e41b5f526004525f60245260445260645ffd5b34620041b85762006fe762006fdf36620084d1565b91906200ac6c565b905f526003810160205260405f20549061ffff8260401c16906200700b82620092ca565b91600263ffffffff5f95169201915b8015158062007054575b156200431a575f528160205263ffffffff60405f2062007048620042ee8762009323565b505460201c166200701a565b5081851062007024565b34620041b8576040366003190112620041b8576200707b620084ba565b7f8b91d2cd88f6e870c2beaa65e6299f6dee33511ff403ab0ffb32f926e3a9a28360206001600160a01b03620070b06200852f565b93620070bb6200ac13565b1692835f5260d48252620070de8160405f209060ff801983541691151516179055565b6040519015158152a2005b34620041b857620070fa36620084d1565b620071046200ac13565b60c9546001600160701b031681811062004689575062007124826200ac6c565b9160ff835460a01c166200713881620083e2565b60028114620054e35750620047376001600160501b037f85b48f5618e9d5b21320fb47ad01cfbf4f739a3e7f7950a445c97099d578911e946200717b856200b960565b620054b985826200ba83565b34620041b8576200719836620085e9565b90335f5260da60205260ff60405f205416156200671857620071b96200b139565b62004231576103fc83116200720657825f5260d960205260405f2092620071e0846200b9c5565b620071f4575060096200422f93016200b9ec565b63b934a7fb60e01b5f5260045260245ffd5b8263324f0d9160e21b5f5260045260245ffd5b34620041b8576020366003190112620041b857600435620072396200ac13565b60c9546001600160701b031681811062004689577f3926c691232881614240a3ec84f5910abdac662ecb616cf8ab9b9fe44d932bc86020836200727c816200b960565b6200466b816200b978565b34620041b8576020366003190112620041b85760406011620072ab6004356200abc2565b015463ffffffff825191818116835260201c166020820152f35b34620041b8577f287a1a0be47186fe812cf10628edc8c56638095124099fea05c3e3f59e3a0dc66040620066da620072fd3662008584565b9190620073096200ac13565b6200b855565b34620041b85762007320366200855f565b90916200732c6200b139565b62004231576200733c336200b855565b62007347816200ac6c565b9060ff825460a01c166200735b81620083e2565b80620054e357506200736d836200abc2565b6200738060ff825460c01c16856200b8ad565b5060028101546064620073c164ffffffffff808416818560281c168082115f146200757f57505b169260ff64ffffffffff8260501c169160e81c1662008c7f565b049081811015620075665750506001600160501b0386116200754857601290825f520160205260405f209164ffffffffff835460b81c161562007531576078420180421162003ef85763ffffffff16956040519660608801948886106001600160401b038711176200403b577fd990ce6190d58ffb8c06ec564b7ebdac6a21afe5b067513aba6cbf478ccac6e9986101009864ffffffffff97604052838252602082016001600160501b0386168152600460408401921515978884528b5f520160205263ffffffff8060405f209451161663ffffffff1984541617835551906dffffffffffffffffffff000000006eff000000000000000000000000000084549251151560701b169260201b16906effffffffffffffffffffff00000000191617179055549360405196875260208701526040860152606085015260808401526200751660a0840160ff8360401c1662008717565b63ffffffff8160981c1660c084015260b81c1660e0820152a1005b50826334a4033d60e11b5f5260045260245260445ffd5b856395d41f3f60e01b5f526004526001600160501b0360245260445ffd5b8563a086029960e01b5f5260045260245260445260645ffd5b9050620073a7565b34620041b8575f366003190112620041b8576020620034be6200b889565b34620041b857620075b636620084d1565b90620075c16200ac13565b613a9882116200761d57807f70df7db68793145153f083606826dfc0e51ef634e3d99f5a8ff74d7fd27405e692620043a8620075ff6040946200abc2565b600201805461ffff60981b1916609884901b61ffff60981b16179055565b631b71514f60e11b5f52600452602452613a9860445260645ffd5b34620041b8576020366003190112620041b8576200073f6200766e6200765d620084ba565b6200766762008b18565b506200b855565b620076d760056200767f836200ac6c565b805460ff8160a01c166001600160501b03600184015460601c9260405197620076a88962008884565b8852818116602089015260501c166040870152620076c681620083e2565b606086015260808501520162008b6d565b60a082015260405191829182620083ed565b34620041b8576020366003190112620041b857602061ffff6002620077106004356200abc2565b015460881c16604051908152f35b34620041b8576200772f36620084d1565b335f5260da60205260ff60405f2054161562006718576200774f6200b139565b62004231576200422f91620091b0565b34620041b8576040366003190112620041b8577f44f632293c2bd117a0d277a1057b0a5495dfbd57d2e3636bb80f0912ee6d0ba96200779d620084ba565b620077a76200852f565b90620077b26200ac13565b8115620077fd576001600160a01b0381165f5260dc60205260405f20600160ff19825416179055604080516001600160a01b0390921682529115156020820152908190810162004737565b6001600160a01b0381165f5260dc60205260405f2060ff19815416905562004718565b34620041b8576020366003190112620041b8576004356001600160401b038111620041b85736602382011215620041b8578060040135906001600160401b038211620041b8573660246102c0840283010111620041b857335f5260da60205260ff60405f205416156200671857620078976200b139565b62004231576200073f916024620069e8920162008d8d565b34620041b8575f366003190112620041b85760d7545f19810190811162003ef857602090604051908152f35b34620041b857620078ec36620084d1565b620078f66200ac13565b61012c80821162007982577fd947284a0ec09f0204c4d87a28d7f12ae5979a8c58b1456b5aa2c5066f9732956040848462007931826200abc2565b80547fffffffffffffffffffff0000ffffffffffffffffffffffffffffffffffffffff1660a083901b75ffff00000000000000000000000000000000000000001617905582519182526020820152a1005b916335d09a8f60e21b5f5260045260245260445260645ffd5b34620041b8575f366003190112620041b857602060405161217b8152f35b34620041b8576020366003190112620041b8576001600160a01b03620079de620084ba565b165f5260da602052602060ff60405f2054166040519015158152f35b34620041b8576040366003190112620041b8576200422f62007a1b62008492565b62007a256200ac13565b63ffffffff62007a376004356200abc2565b9116906200add7565b34620041b8576020366003190112620041b85760043562007a606200ac13565b62007a6b816200abc2565b60ff815460c01c16600581101562004b0e576002810362007acb577fd92eee87539b24ad02a6f03980106354cd078a3eb9c2c4257685215063c61ecd602084845f6004820155600160c01b60ff60c01b19825416179055604051908152a1005b6313295a4960e11b5f52600483905262007ae590620083c5565b60445ffd5b34620041b8576040366003190112620041b8576004356001600160401b038111620041b85762007b1f9036906004016200845f565b906024356001600160401b038111620041b85762007b429036906004016200845f565b9162007b4d6200ac13565b6101025f5460ff8160081c16158062007db2575b62007b6c9062008ba1565b61ffff1916175f556103fe841162007d9957617fc09360405162007b91868262008967565b853682375f5b82811062007d2557505050506005821162007d0d576040519262007bbc818562008967565b3684375f5b82811062007bff5761ff00195f54165f557f7f26b83ff96e1f2b6a682f133852f6798a09c465da95921460cefb3847402498602060405160028152a1005b62007c0c81848462008c30565b35602062007c1c83868662008c30565b013562007c2a828762008c55565b5162007cfa5790600192918362007c42838962008c55565b5262007c4e826200abc2565b9160038301926001600160501b0384541680841162007cad57506001600160501b037f5ea05cf9dabb3f18355e9f9abd6e540958c25d71644ade08c1c957e06e96e98994620054ae8562007ca2946200ad7f565b0390a15b0162007bc1565b6040805193845260208401949094526001600160501b0316928201929092527f19a55a94f55603626b8e33b7a9d56532132220840b0a2b1d2c7c42e0dbfd5ce2925060609150a162007ca6565b5063610f141960e11b5f5260045260245ffd5b50639db463fd60e01b5f52600452600560245260445ffd5b62007d3281848662008c30565b3562007d3e816200abc2565b9062007d4b818562008c55565b5162007d875760019291818462007d6762007d80948862008c55565b52602062007d7785898b62008c30565b0135916200acdc565b0162007b97565b63134b3b9960e31b5f5260045260245ffd5b836314891e3160e21b5f526004526103fe60245260445ffd5b50600260ff82161062007b61565b34620041b8576020366003190112620041b8576200073f60043562007de462008b18565b50620076d760056200767f836200ac6c565b34620041b8576040366003190112620041b85760043560243562007e196200ac13565b62007e24826200abc2565b60ff815460c01c16600581101562004b0e578062007e8857506001600160a01b0360ca54168015620052a6577f9c03c6796385c736172929a88c5f8c4fc7c287d6df80c75f290d4f18ca9ece726040858580600687015582519182526020820152a1005b630d76efe360e41b5f52600484905262007ae590620083c5565b34620041b8576020366003190112620041b85760043562007ec26200ac13565b60ff62007ecf826200abc2565b5460c01c16600581101562004b0e576002810362007f14577f5fa123d2cd3b174872bde6224d3ecc37811a5b365b5c481672f7ff0cb5bfd6c4602083604051908152a1005b62007ae5916313295a4960e11b5f52600452620083c5565b34620041b8576020366003190112620041b8576103c08162007f4f5f9362008867565b60608152606060208201528260408201528260608201528260808201528260a08201528260c08201528260e08201528261010082015282610120820152826101408201528261016082015282610180820152826101a0820152826101c0820152826101e08201528261020082015282610220820152826102408201528261026082015282610280820152826102a0820152826102c0820152826102e08201528261030082015282610320820152826103408201528261036082015282610380820152826103a08201520152620080276004356200abc2565b805460068201549060018301549163ffffffff6003850154936001600160501b036002870154956009880154946200808060086040519a620080698c62008867565b620080776007820162008a6c565b8c520162008a6c565b60208a015260ff8760b01c1660408a015260ff8760b81c1660608a0152608089015261ffff8660901c1660a0890152838360d81c1660c08901528260f81c60e089015261ffff8660a01c1661010089015281811661012089015260501c16610140870152818416610160870152818460201c166101808701528181166101a087015260201c166101c085015263ffffffff8260401c166101e085015263ffffffff8260601c1661020085015264ffffffffff831661022085015264ffffffffff8360281c1661024085015263ffffffff8260c81c166102608501528160801c60010b61028085015261ffff8360981c166102a0850152600560ff8360c01c16101562004b0e5760ff61ffff9260c01c166102c085015263ffffffff81166102e085015262ffffff8160781c1661030085015262ffffff8160901c1661032085015262ffffff8160481c1661034085015262ffffff8160601c1661036085015260201c1661038083015260ff8160f01c1615156103a083015260f81c6103c08201526040518091602082526103c0620082426200822b83516103e06020870152610400860190620083a1565b6020840151858203601f19016040870152620083a1565b916040810151606085015260608101516080850152608081015160a085015260a081015160c085015260c081015160e085015260e08101516101008501526101008101516101208501526101208101516101408501526101408101516101608501526101608101516101808501526101808101516101a08501526101a08101516101c08501526101c08101516101e08501526101e081015161020085015261020081015161022085015261022081015161024085015261024081015161026085015261026081015161028085015261028081015160010b6102a08501526102a08101516102c0850152620083416102c08201516102e0860190620083d4565b6102e08101516103008501526103008101516103208501526103208101516103408501526103408101516103608501526103608101516103808501526103808101516103a08501526103a081015115158285015201516103e08301520390f35b805180835260209291819084018484015e5f828201840152601f01601f1916010190565b600581101562004b0e57602452565b90600582101562004b0e5752565b6004111562004b0e57565b919091610100606060a0610120840195805185526020810151602086015260408101516040860152828101516200842481620083e2565b838601526001600160a01b0360808201511660808601520151805160a0850152602081015160c0850152604081015160e08501520151910152565b9181601f84011215620041b8578235916001600160401b038311620041b8576020808501948460061b010111620041b857565b6024359063ffffffff82168203620041b857565b6044359063ffffffff82168203620041b857565b600435906001600160a01b0382168203620041b857565b6040906003190112620041b8576004359060243590565b60206040818301928281528451809452019201905f5b8181106200850c5750505090565b8251805185526020908101518186015260409094019390920191600101620084fe565b602435908115158203620041b857565b600435908115158203620041b857565b606435908115158203620041b857565b6060906003190112620041b85760043590602435906044358015158103620041b85790565b6040906003190112620041b8576004356001600160a01b0381168103620041b857906024356004811015620041b85790565b9181601f84011215620041b8578235916001600160401b038311620041b8576020808501948460051b010111620041b857565b906040600319830112620041b85760043591602435906001600160401b038211620041b8576200861c91600401620085b6565b9091565b60206040818301928281528451809452019201905f5b818110620086445750505090565b909192602060c06001926001600160501b0360a0885163ffffffff815116845263ffffffff86820151168685015263ffffffff604082015116604085015260608101516200869281620083e2565b606085015260808181015164ffffffffff169085015201511660a082015201940192910162008636565b6040600319820112620041b857600435906001600160401b038211620041b857620086ea91600401620085b6565b90916024358015158103620041b85790565b6060906003190112620041b857600435906024359060443590565b90600282101562004b0e5752565b6101608091805184526020810151602085015260408101516040850152620087566060820151606086019062008717565b6080810151608085015260a081015160a085015260c081015160c085015260e081015160e08501526101008101516101008501526101208101516101208501526101408101516101408501520151910152565b6080906003190112620041b85760043590602435906044359060643590565b61ffff610140809263ffffffff81511685526020810151620087ea81620083e2565b602086015262ffffff604082015116604086015264ffffffffff606082015116606086015282608082015116608086015263ffffffff60a08201511660a08601528260c08201511660c08601528260e08201511660e086015282610100820151166101008601528261012082015116610120860152015116910152565b6103e081019081106001600160401b038211176200403b57604052565b60c081019081106001600160401b038211176200403b57604052565b61012081019081106001600160401b038211176200403b57604052565b61016081019081106001600160401b038211176200403b57604052565b60e081019081106001600160401b038211176200403b57604052565b61018081019081106001600160401b038211176200403b57604052565b608081019081106001600160401b038211176200403b57604052565b604081019081106001600160401b038211176200403b57604052565b60a081019081106001600160401b038211176200403b57604052565b90601f801991011681019081106001600160401b038211176200403b57604052565b6001600160401b0381116200403b57601f01601f191660200190565b929192620089b38262008989565b91620089c3604051938462008967565b829481845281830111620041b8578281602093845f960137010152565b9080601f83011215620041b857816020620089fe93359101620089a5565b90565b9181601f84011215620041b8578235916001600160401b038311620041b85760208381860195010111620041b857565b90600182811c9216801562008a61575b602083101462008a4d57565b634e487b7160e01b5f52602260045260245ffd5b91607f169162008a41565b9060405191825f82549262008a818462008a31565b808452936001811690811562008af4575060011462008aac575b5062008aaa9250038362008967565b565b90505f9291925260205f20905f915b81831062008ad757505090602062008aaa928201015f62008a9b565b602091935080600191548385890101520191019091849262008abb565b90506020925062008aaa94915060ff191682840152151560051b8201015f62008a9b565b6040519062008b278262008884565b815f81525f60208201525f60408201525f60608201525f608082015260a06040519162008b548362008913565b5f83525f60208401525f60408401525f60608401520152565b9060405162008b7c8162008913565b6060600382948054845260018101546020850152600281015460408501520154910152565b1562008ba957565b60405162461bcd60e51b815260206004820152602e60248201527f496e697469616c697a61626c653a20636f6e747261637420697320616c72656160448201527f647920696e697469616c697a65640000000000000000000000000000000000006064820152608490fd5b1562008c1c57565b634e487b7160e01b5f52600160045260245ffd5b919081101562008c415760061b0190565b634e487b7160e01b5f52603260045260245ffd5b906103fe81101562008c415760051b0190565b9060308202918083046030149015171562003ef857565b8181029291811591840414171562003ef857565b6102fc1981019190821162003ef857565b6101fc1981019190821162003ef857565b60fc1981019190821162003ef857565b9190820391821162003ef857565b6001600160401b0381116200403b5760051b60200190565b6040519062008cfa826200892f565b5f6020838281520152565b9062008d118262008cd3565b62008d20604051918262008967565b828152809262008d33601f199162008cd3565b01905f5b82811062008d4457505050565b60209060405162008d55816200892f565b5f81525f838201528282850101520162008d37565b358015158103620041b85790565b805182101562008c415760209160051b010190565b9162008d998262008d05565b805115620091aa57821562008c415783916040850160608601359562008dbf876200abc2565b925f5b8781101562009174578062009139575b86359062008de285838c6200b14f565b815f5260d560205260405f208562008dfe6102208b0162008d6a565b6102408b013594908015620090d257856200909b5763ffffffff600185015460401c165f63ffffffff8281873516031660030b13156200906057505b851515908162008fd4575b845460ff8160a01c1662008e5981620083e2565b8062008f8c575060a81c60ff161562008f59571562008f46577f4b33653917eefdb992cac4fb999fcecfc80848487b46a9f1fbe97ef541aafa195f80a162008ea38335856200b401565b1562008f0e57505050610260880135916006831015620041b85760807fd3b7d0aa2cb3540e154ebb47122cf86e0db24117323b827d28da43422fcd57d89160019460405191825260208201526102808b013560408201526102a08b01356060820152a15b0162008dc2565b600194509062008f26929160208c0135928a6200b535565b62008f32828962008d78565b5262008f3f818862008d78565b5062008f07565b62008f538335856200b3a9565b62008ea3565b5050505050600191507fcb7f793535461714e08fcb65e21b3379d2aedbf9c04354ade356a824dcefe9f55f80a162008f07565b9350505050600194507fe0860e5ff8578b025fc8a7f42c449c575b7a19600e8d2b3fd6ab0ae6e2e084039250602091506040519062008fcb81620083e2565b8152a162008f07565b62008fea63ffffffff60098d015416886200b259565b62009051576101808401358015158062009047575b6200900b575062008e45565b92505050600194507f9f38a7d29e6c9e707bfe5fee47b29748083dc31546de0135d48ed99db5e190f0925060209150604051908152a162008f07565b5043811062008fff565b50505050506001915062008f07565b915050600194507f47313d3b2b870c5a3200f25c5f8d5ce9ea5d073955f16e6f70104ddca4be5fdc925060209150604051908152a162008f07565b505050507f2b022c762977afd239365173c87fc0b706c64f8a7b328ca79b3465468eba835a6020600193604051908152a162008f07565b63ffffffff600185015460201c165f63ffffffff8281873516031660030b1315620090fe575062008e3a565b915050600194507f6be50b396ca4962b3810cd9e65b8160cd24180a1e7adbc2c795e8dd090891284925060209150604051908152a162008f07565b6102c08102830196506040870193506060870135808a036200915d575b5062008dd2565b985093506200916c886200abc2565b935f62009156565b5095505050509250507fc2813e86d911b51775079b03b9fcab443ec450bc1634cf75dd578874a0af7add60205a604051908152a1565b92509050565b6040907fa04001d82f77cdc968e0f2d5a478c76bb47ca32033001fe324c0f1bf89446ecd92620091eb81620091e5846200ac6c565b6200b401565b82519182526020820152a1565b811562009203570490565b634e487b7160e01b5f52601260045260245ffd5b600101908160011162003ef857565b62ffffff01908162ffffff1162003ef857565b9190820180921162003ef857565b906200925381620083e2565b7fffffffffffffffffffffff00ffffffffffffffffffffffffffffffffffffffff74ff000000000000000000000000000000000000000083549260a01b169116179055565b60405190620092a78262008884565b5f60a0838281528260208201528260408201528260608201528260808201520152565b90620092d68262008cd3565b620092e5604051918262008967565b8281528092620092f8601f199162008cd3565b01905f5b8281106200930957505050565b6020906200931662009298565b82828501015201620092fc565b5f19811462003ef85760010190565b90604051620093418162008884565b60a06001600160501b0382945463ffffffff8116845263ffffffff8160201c16602085015263ffffffff8160401c16604085015260ff8160601c166200938781620083e2565b606085015264ffffffffff8160681c16608085015260901c16910152565b15620093ad57565b60405162461bcd60e51b815260206004820152602c60248201527f46756e6374696f6e206d7573742062652063616c6c6564207468726f7567682060448201527f64656c656761746563616c6c00000000000000000000000000000000000000006064820152608490fd5b156200942057565b60405162461bcd60e51b815260206004820152602c60248201527f46756e6374696f6e206d7573742062652063616c6c6564207468726f7567682060448201527f6163746976652070726f787900000000000000000000000000000000000000006064820152608490fd5b90620094978262008cd3565b620094a6604051918262008967565b8281528092620094b9601f199162008cd3565b0190602036910137565b92919091620094d2336200b855565b93845f5260d560205260405f209460ff865460a01c16620094f381620083e2565b80620054e35750620095058562008d05565b958651156200961f57851562008c415782602081013562009526816200abc2565b9161ffff600284015460781c16965f5b8a811015620095e7578b8a8a836200958b575b9280926200957062009583936001968e8e8e8e6200956a8f8486916200b14f565b6200b678565b6200957c838362008d78565b5262008d78565b500162009536565b5050506101e08102830197508b8a60208a0135808703620095af575b508a62009549565b955095508699509087818a9387620095c881996200abc2565b600281015460781c61ffff169e50939b509298939450929150620095a7565b50985050505050505050507fc2813e86d911b51775079b03b9fcab443ec450bc1634cf75dd578874a0af7add60205a604051908152a1565b50919350505050565b92909182156200973d5736849003605e190193803585811215620041b85781019283359562009657876200abc2565b9260ff845460c01c16925f5b88811015620097315780620096e8575b6200968087868c6200b8e1565b620096df576040880135601e1989360301811215620041b8578801908135916001600160401b038311620041b857602001918060051b36038313620041b85788620096d6916001948e60208e0135908c6200bb6a565b505b0162009663565b600190620096d8565b96508660051b82013583811215620041b8578201968735808b036200970f575b5062009673565b99509350935062009720886200abc2565b9360ff855460c01c16935f62009708565b50975050505050505050565b50915050565b604051906200975282620088f6565b5f610160838281528260208201528260408201528260608201528260808201528260a08201528260c08201528260e08201528261010082015282610120820152826101408201520152565b600282101562004b0e5752565b9192905f610c60525f610c4052620097c35f936200abc2565b906011820154610be052620097d8826200c46a565b50505080610c6052158015610c405262009ae6575b8062009adf575063ffffffff610be05116935b841562009ad4578015158062009ac8575b5f610c20521562009ab957610c2052925b62009830610c205162008cd3565b6200983f604051918262008967565b610c20518152601f1962009856610c205162008cd3565b015f5b81811062009a9957505080948054925b610c205186106200987b575b50505050565b805f526012820160205260405f2090604051916200989983620088da565b5463ffffffff8116835263ffffffff8160201c166020840152620098c760ff8260401c16604085016200979d565b6001600160501b038160481c16606084015263ffffffff8160981c16608084015264ffffffffff8160b81c1660a084015260e01c60c08301526040820151600281101562004b0e576200995f9063ffffffff60c08501511663ffffffff6080860151169161ffff606087015160401c1660ff8a60b81c169360ff8b60b01c169364ffffffffff60a08a01511693610c60518b6200c4b5565b63ffffffff8593929351169263ffffffff602087015116610c8052604086015192600284101562004b0e5761ffff9460608801519463ffffffff60808a015116620099f864ffffffffff60a08c0151169263ffffffff60c08d01511694604051610c0052620099d1610c0051620088f6565b8b610c0051526020610c00510152610c80516040610c005101526060610c0051016200979d565b6001600160401b0387166080610c0051015260a0610c0051015260c0610c0051015260e0610c00510152610100610c00510152610120610c00510152610140610c0051015260401c16610160610c0051015262009a7262009a598862009323565b97610c005162009a6a828862008d78565b528562008d78565b5063ffffffff610be05160201c161462009a93575163ffffffff1662009869565b62009875565b60209062009aa997949762009743565b8282860101520195929562009859565b50611388610c20529262009822565b50611388811062009811565b50606093505f925050565b9362009800565b63ffffffff825416610c6052620097ed565b6040519062009b0782620088bd565b5f610140838281528260208201528260408201528260608201528260808201528260a08201528260c08201528260e082015282610100820152826101208201520152565b9390925f926060851562009e625762009b64876200abc2565b9162009b7487600985016200c52f565b610c805291821562009e5557508062009e4d57505b918015158062009e41575b1562009e355791955b62009ba88362008cd3565b9162009bb8604051938462008967565b838352601f1962009bc98562008cd3565b015f5b81811062009e1557505082975b8487108062009e0b575b1562009dce578088915f526010830160205260405f206040519062009c0882620088bd565b5463ffffffff8116825260ff8160201c1691602081019262009c2a81620083e2565b835262ffffff8260281c1660408201918183526060810164ffffffffff8560401c1681526080820161ffff8660681c16815260a083019063ffffffff8760781c16825260c084019261ffff8860981c16845260e085019461ffff8960a81c16865261010081019661ffff8a60b81c16885261012082019c8d61ffff8c60c81c16905261ffff61014084019b60d81c168b52810362009dd857505163ffffffff1698519662009cd888620083e2565b5162ffffff16905164ffffffffff16915161ffff16925163ffffffff16935161ffff16945161ffff16955161ffff16968b5161ffff16985161ffff1699604051610c6052610c605162009d2b90620088bd565b610c60515262009d3b81620083e2565b610c605160200152610c605160400152610c605160600152610c605160800152610c605160a00152610c605160c00152610c605160e00152610c60516101000152610c60516101200152610c605161014001528762009d9a9062009323565b97610c605162009dab828862008d78565b5262009db8908662008d78565b50610c80511462009dce575161ffff1662009bd9565b5050505050909150565b94505050505060849250899150868f604051936324bfc58760e01b85526004850152602484015260448301526064820152fd5b5080151562009be3565b60209062009e259a969a62009af8565b8282880101520198949862009bcc565b50611388919562009b9d565b50611388811062009b94565b905062009b89565b9597505050505091509190565b94505050925050905f90565b92919362009e7c846200abc2565b9062009e9060ff835460c01c16866200b8ad565b5062009e9c836200ac6c565b9260ff845460a01c1662009eb081620083e2565b80620054e357506004840196865f528760205260405f209263ffffffff84541680156200a229578042116200a1d75750825f526012850160205260405f209664ffffffffff885460b81c16156200a1915760ff885460401c16600283101562004b0e57600281101562004b0e578281036200a154575061ffff9062009f4463ffffffff8060098a015416951694856200b2c6565b5016926001841080156200a13f575b6200a1085762009f63866200c46a565b92949290919085156200a0cd575050508015806200a0c3575b80156200a0ad575b6200a04b575062009ff962009fb664ffffffffff8a5460b81c1688549060ff808360b81c169260b01c169086620120fd565b9462009ff2600289015460ff8160e01c169060ff8160d81c169064ffffffffff8160501c169061ffff64ffffffffff82169160b81c166200db3a565b9062012154565b9360648102908082046064149015171562003ef8576200a03e986200a020868c936201406b565b9654986001600160501b0360ff8b60701c169a60201c16986200c773565b5f526020525f6040812055565b91945094507fd70dcea04756ab23b8663cb4528ddd657c55ea6dbc95b4481b62b25d028633ab965060a095506200a095919250604051948886526020860152604085019062008717565b60608301526080820152a15f526020525f6040812055565b5060018114801562009f84575082841062009f84565b5082841162009f7c565b60028a0154604051631f466abb60e21b815260a89190911c61ffff166004820152602481019390935260448301919091526064820152608490fd5b6084898561ffff60028a015460b81c1690604051926321b82b4d60e01b845260048401526024830152600160448301526064820152fd5b5061ffff600287015460b81c16841162009f53565b604051633ea2c45d60e21b8152600481018b90526024810186905260849162000f72906200a186604484018762008717565b606483019062008717565b5050509150507f6948067a0ba575890268b9a7eaf592a5832287e4402201145ce0768a9d9533fc9250604080925051908482526020820152a15f526020525f6040812055565b604080518a8152602081019590955284015250504260608201527fb4cbbb4a79087ef85485ec777721c815de25aac9940c011694a831a77d30aa86945060809350915050a15f526020525f6040812055565b838963e2fd5a3560e01b5f5260045260245260445ffd5b3563ffffffff81168103620041b85790565b909182156200a38d575f5b838110156200973d578060051b83013560de1984360301811215620041b8578301906020820135916200a290836200abc2565b9260408201356003811015620041b857600181036200a2d657505060019263ffffffff6200a2c560606200a2cd94016200a240565b16906200afc9565b505b016200a25d565b909190806200a339575060c081013590601e1981360301821215620041b85701928335936001600160401b038511620041b857602001918436038313620041b8576200a32b6200a332936001963691620089a5565b916200d6c1565b506200a2cf565b6001949192506002146200a350575b50506200a2cf565b816200a36360606200a38594016200a240565b91608063ffffffff6200a37960a0850162008d6a565b9416920135906200cdae565b5f806200a348565b915050565b90600782101562004b0e5752565b9181156200a38d578260208401906040850135946200a3bf866200abc2565b935f5b868110156200a5b357806200a578575b8335906200a3e286838b6200b14f565b6040860135916007831015620041b8575f6002841415806200a56a575b80156200a553575b6200a4fb575060019250805f5260d56020528660405f209163ffffffff8584015460201c16928235935f63ffffffff82818816031660030b13156200a4c4575060ff815460a01c16936200a45b85620083e2565b84156200a484576200a47b94506200a47490826200b3a9565b8a6200b783565b505b016200a3c2565b5050505060207fe0860e5ff8578b025fc8a7f42c449c575b7a19600e8d2b3fd6ab0ae6e2e0840391604051906200a4bb81620083e2565b8152a16200a47d565b9150507f6be50b396ca4962b3810cd9e65b8160cd24180a1e7adbc2c795e8dd090891284925060209150604051908152a16200a47d565b9050620041b8577fcbb789ca59a70c9d9ac308b2f773480d433619886320ba81e8e871690fc220c360406001936200a5376101208a0162008d6a565b6200a545835180936200a392565b15156020820152a16200a47d565b506200a563610120890162008d6a565b156200a407565b50505f60038414156200a3ff565b600981901b8301602081019550935060408401358089036200a59c575b506200a3d2565b975094506200a5ab876200abc2565b945f6200a595565b50955050505050507fc2813e86d911b51775079b03b9fcab443ec450bc1634cf75dd578874a0af7add60205a604051908152a1565b604d811162003ef857600a0a90565b8181106200a603575050565b5f81556001016200a5f7565b6200a61b815462008a31565b90816200a626575050565b81601f5f93116001146200a638575055565b818352602083206200a65691601f0160051c8101906001016200a5f7565b8082528160208120915555565b801562003ef8575f190190565b908060209392818452848401375f828201840152601f01601f1916010190565b5f92918154916200a6a18362008a31565b80835292600181169081156200a6fa57506001146200a6bf57505050565b5f9081526020812093945091925b8383106200a6df575060209250010190565b6001816020929493945483858701015201910191906200a6cd565b915050602093945060ff929192191683830152151560051b010190565b919081101562008c415760051b0190565b356001600160a01b0381168103620041b85790565b939291906200a74c856200abc2565b946200a7618560ff885460c01c16836200b8e1565b6200a77157620089fe956200c05a565b5050505050505f90565b6040907fc0541f32f5c37f170acf579ae2de8be00385c7ab848fb4b1f19340fd41d5884492620091eb816200a7b0846200ac6c565b6200b3a9565b909182156200a878578135826200a7cd826200abc2565b9160ff835460c01c16915f5b878110156200a86e57806200a82f575b6001906200a7f98786866200b8e1565b6200a829576200a822876200a81160608b0162008d6a565b60408b013560208c01358a6201005f565b016200a7d9565b6200a822565b95508560071b81019586358084036200a84a575b506200a7e9565b9250925092506200a85b816200abc2565b92600160ff855460c01c1693906200a843565b5050505050505050565b505050565b81156200abbe57808135926200a893846200abc2565b93600985019260ff865460c01c16600581101562004b0e5715925f5b8181106200a8c1575050505050505050565b806200ab67575b6001906020840135801580156200ab5b575b6200ab5457805f526007880160205260405f209063ffffffff825416156200ab4c578154918b63ffffffff841691825f5260d56020528960405f20958d6200a92b63ffffffff8360781c16620101dd565b9182156200ab43575b82156200ab25575b82156200aa0d575b5050156200a9d1577f3669d8cc87cc659246c535cf34b73f019e2da2a48e04d14093701e877fb6eac69561ffff60026200a9c6956200a9896200a996968a966201021b565b015460a81c169062010333565b6200a9a2848d620106c5565b6040519384938b859094939260609260808301968352602083015260408201520152565b0390a15b016200a8af565b505050507fa2f88eaf96334c482f1071c105643f009253e044dc7767b94cd01f787c7d92ad91506040908151908882526020820152a16200a9ca565b9091505f915461ffff8160301c1661ffff8260201c16116200aa34575b50508d5f6200a944565b60ff8160401c166200aa4c60ff8460201c1662010aa2565b156200aabd5762ffffff808360781c169260901c1691801515806200aab3575b6200aa7f575b505050505b5f806200aa2a565b62ffffff93945082916200aa9c6200aaa294620045429362008cc5565b6201406b565b9160281c1611155f8080806200aa72565b508215156200aa6c565b62ffffff808360481c169260601c16821515806200ab1b575b6200aae6575b505050506200aa77565b62ffffff93945082916200aa9c6200ab03926200ab0a9562008cc5565b9062008cc5565b9160281c1610155f8080806200aadc565b508015156200aad6565b915060ff885460a01c166200ab3a81620083e2565b1515916200a93c565b8e92506200a934565b50506200a9ca565b506200a9ca565b5061ffff81116200a8da565b91506200ab7682828862008c30565b9182358085036200ab89575b506200a8c8565b93509350935094506200ab9c816200abc2565b94600986019360ff875460c01c16600581101562004b0e57159360016200ab82565b5050565b906103fc82116200ac0057815f5260d960205260405f20916200abe5836200b9c5565b156200abee5750565b63264fcda560e11b5f5260045260245ffd5b5063324f0d9160e21b5f5260045260245ffd5b6001600160a01b036033541633036200ac2857565b606460405162461bcd60e51b815260206004820152602060248201527f4f776e61626c653a2063616c6c6572206973206e6f7420746865206f776e65726044820152fd5b906001821080156200acce575b6200acae57815f5260d560205260405f2091600183015460601c156200ac9c5750565b6305b58f2560e51b5f5260045260245ffd5b50630c8f0a6960e41b5f52600452600160245263ffffffff60445260645ffd5b5063ffffffff82116200ac79565b919091600482116200ad635760020180547effffffffffffffffffffffffffffffffffffffffffffffffffffffffffffff1660f883901b7fff00000000000000000000000000000000000000000000000000000000000000161790557fadcb9d4361f4e7a9b24f7e64233ca46ad439a4a73c432dc31165fbdefd6f837791604091620091eb565b5090631c20e8bf60e31b5f52600452602452600460445260645ffd5b6001600160501b036200ad9b6003829301938285541662010abb565b16166001600160501b0319825416179055565b6200adc660c954916001600160701b03831662010b50565b906001600160701b0319161760c955565b90915f926002830192835461ffff8160a81c169582549160ff8360c01c16600581101562004b0e57600381036200ae1b5788633534376760e21b5f5260045260245ffd5b96979596949593946002146200af615760f01c60ff16159081806200af4d575b6200af42576200ae58600163ffffffff600988015416886200b312565b6200af3957506200aed5575b5050805467ffffffffffffffff191663ffffffff8316174260201b63ffffffff60201b161790557f65ec400f2e8b22c7064f99991d01828c6a55acaa066b3fdba3bf5a491b1a6a4c905b92546040805160a89290921c61ffff1682526020820194909452600193819081015b0390a1565b61ffff63ffffffff8260401c169160901c16906200aef582828762014c12565b156200af0257506200ae64565b6040516307311a2960e31b815261ffff93909316600484015260248301949094526044820193909352606481019290925250608490fd5b96505050505050565b505f96505050505050565b506200af5b60018662010c12565b6200ae3b565b8363aa5493c360e01b5f5260045260245ffd5b91905f926002810193845461ffff8160a81c169160ff8454926200af9e828560c01c16866200e080565b5060f01c16159081806200af4d576200af42576200ae58600163ffffffff600988015416886200b312565b91905f926002810193845461ffff8160a81c169060ff8454916200aff3828460c01c16856200e080565b5060f01c161580806200b10a575b6200af42576200b01d5f63ffffffff600988015416886200b312565b6200b100576200b079575b5050815467ffffffffffffffff191663ffffffff8416174260201b63ffffffff60201b1617909155507f65ec400f2e8b22c7064f99991d01828c6a55acaa066b3fdba3bf5a491b1a6a4c906200aeae565b61ffff63ffffffff8260401c169160901c16906200b09982828862014c12565b156200b0a657506200b028565b6200b0fa92939697507f3988d14888f50c39e6b838927480e13c79fd6c5cfdfb08a1b02febe997a3571e959450604051948594859094939260609261ffff6080840197168352602083015260408201520152565b0390a190565b5091955050505050565b506200b1175f8662010c12565b6200b001565b60e35b600e810180911162003ef85790565b6200b1206200b11d565b60018060c9546200b1496200b12f565b1c161490565b604083013592916007841015620041b8576101c0837f02d2bf39d2355aaa5486487e934403fd3ba3f88c73ab71938cee11931fddeb7b956200b19760e0610220970162008d6a565b6200b1a6610100840162008d6a565b906200b1e46200b1ba610120860162008d6a565b935a97604051998a5260208a0152853560408a0152606086013560608a015260808901906200a392565b608084013560a088015260a084013560c088015260c084013560e08801521515610100870152151561012086015215156101408501526101408101356101608501526101608101356101808501526101808101356101a08501526101a08101358285015201356101e0830152610200820152a1565b91906200b2716200b26a8262009217565b9162009226565b8382119384156200b2ba575b50836200b288575050565b7f9c6cd57b23ccacf841857c1eb7892bef39f27d0c1197bb0bf7646c90dc7fb8709160409182519182526020820152a1565b81945011925f6200b27d565b91906200b2d76200b26a8262009217565b908381119384156200b307575b846200b2ef57505050565b630caa980960e21b5f5260045260245260445260645ffd5b82811194506200b2e4565b9291926200b32b6200b3248362009217565b9262009226565b908083119485156200b39e575b856200b3445750505050565b6200b38457507f9c6cd57b23ccacf841857c1eb7892bef39f27d0c1197bb0bf7646c90dc7fb8709160409182519182526020820152a15f80808062009875565b8290630caa980960e21b5f5260045260245260445260645ffd5b82821195506200b338565b9190916001600160401b0383116200b3e357600101805467ffffffff00000000191660209390931b63ffffffff60201b1692909217909155565b826395d41f3f60e01b5f526004526001600160401b0360245260445ffd5b9190916001600160401b0383116200b3e357600101805463ffffffff60401b191660409390931b63ffffffff60401b1692909217909155565b9291906040516200b44b816200892f565b5f81525f6020820152806200b464600160048862010cf6565b156200b5115750604435906007821015620041b857600482146200b51a5760ff835460a01c166200b49581620083e2565b80620054e357506200b4bd600161ffff600289015460a81c1660ff895460c01c16906200b8e1565b6200b51157600582146200b4f957506006146200b4e7575060019160045f92620089fe95620111e5565b60019250600490620089fe9462011096565b9491620089fe945060019391506101a4359262010890565b94505050505090565b94620089fe9450600193925060643591506024359062010f8e565b9391939290925f936040516200b54b816200892f565b5f81525f6020820152806200b5625f868662010cf6565b156200b60a57506040840135906007821015620041b857600482146200b6585760ff835460a01c166200b59581620083e2565b806200b61557506200b5bc8761ffff600287015460a81c1660ff875460c01c16906200b8e1565b6200b60a57600582146200b5f257506006146200b5e4575090620089fe9460019392620111e5565b90620089fe95935062011096565b969293620089fe9695506101a0915001359262010890565b965050505050505090565b945096505050507fe0860e5ff8578b025fc8a7f42c449c575b7a19600e8d2b3fd6ab0ae6e2e08403925060209150604051906200b65281620083e2565b8152a190565b969392915050620089fe94505f9350602060608301359201359062010f8e565b9094939291946040516200b68c816200892f565b5f81525f6020820152806200b6a387868662010cf6565b156200b60a57506040840135906007821015620041b857600482146200b7655760ff835460a01c166200b6d681620083e2565b806200b72457506200b6fd8761ffff600287015460a81c1660ff875460c01c16906200b8e1565b6200b60a57600582146200b5f257506006146200b5e4575090620089fe945f9392620111e5565b969550965050505050620054e35760207fe0860e5ff8578b025fc8a7f42c449c575b7a19600e8d2b3fd6ab0ae6e2e0840391604051906200b65281620083e2565b969392915050620089fe949350602060608301359201359062010f8e565b9291906040516200b794816200892f565b5f81525f6020820152806200b7ab5f868862010cf6565b156200b51157506040840135906007821015620041b857600482146200b839576200b7eb5f61ffff600289015460a81c1660ff895460c01c16906200b8e1565b6200b51157600582146200b82257506006146200b81457505f8092600192620089fe95620111e5565b915f92620089fe9462011096565b94915f9391506101a0620089fe9501359262010890565b94620089fe945f94935060608101359250602001359062010f8e565b6001600160a01b031690815f5260d660205260405f20549182156200b8775750565b6303a0e27760e01b5f5260045260245ffd5b60c954613fff9060d51c16612710810290808204612710149015171562003ef85790565b91905f92600582101562004b0e57600482036200b8c8575050565b63a532a27d60e01b5f5260045262007ae59150620083c5565b909291925f93600582101562004b0e57600482036200b8ff57505050565b90919293506200b948577fa532a27d068a9d4b869c6cc37b1c8edd12d861261edcad20311cfc140d1190bc916200b94260409283519283526020830190620083d4565ba1600190565b62007ae59163a532a27d60e01b5f52600452620083c5565b6200adc660c954916001600160701b03831662010abb565b7fffffffffffe0000000000000000000000000ffffffffffffffffffffffffffff6200b9ba60c954926c1fffffffffffffffffffffffff8460701c1662010b50565b60701b91161760c955565b6002015461ffff8160b81c16151590816200b9de575090565b61ffff915060c81c16151590565b91909181156200a8785763ffffffff915f5b8181106200ba0d575050505050565b6200ba1a8183876200a717565b356001811080156200ba76575b6200ba6c576200ba3c90600781069062008cc5565b938085146200ba615750600190845f52600684016020525f60408120555b016200b9fe565b93506001906200ba5a565b506001906200ba5a565b508062ffffff106200ba27565b906001600160501b036200ad9b81928285541662010b50565b60c95460e35b90613fff911c16612710810290808204612710149015171562003ef85790565b60c9546200baa26200b11d565b916080936200baf491979695929760a085019885526020850152604084019062008717565b60608201520152565b9493916200bb1f93918652602086015215156040850152606084019062008717565b608082015260c060a08201528260c08201527f07ffffffffffffffffffffffffffffffffffffffffffffffffffffffffffffff8311620041b85760e09260051b809284830137010190565b9295935f9681156200c00357835f526012850160205260405f209664ffffffffff885460b81c16156200bfac576200bba381876200c656565b9788156200bfa05780549160ff8360401c16600281101562004b0e57808460ff6200bc2560016200bbfe8e8615610c80528054858160b01c1695869160b81c1696879264ffffffffff8260b81c169a8b9260e01c9162011642565b9363ffffffff6001600160401b038b60481c169a60981c16938588868d610c8051620116a4565b9687156200bed257505050610c80515f146200bec857848c11155b156200be5e5750995f9a5b868c106200bd8a575b839495969798999a9b5064ffffffffff6200bc769293945460b81c1662008cc5565b806200bcfb5750506200bcd157927faad1caf83451874ebc06a35849e4a295d8bfa856d05d1fbac2876702c7d5074394926200bcc89260ff62008aaa9998965460401c165f604051978897886200bafd565b0390a162011e0f565b9060ff620019929493925460401c165f60405197889763155a395f60e31b8952600489016200bafd565b839b5081965084819596505f93506001928a8a6200bd1c978e9f9e62011af6565b156200bd40575050506200bd339293945062011b0d565b62008aaa60019262011e0f565b6200bd7960e49560ff8a5460401c1690604051966350e5550560e11b8852600488015260248701525f6044870152606486019062008717565b608484015260a483015260c4820152fd5b6200bd978c88886200a717565b3590815f5260128b0160205260405f209164ffffffffff835460b81c16156200be5257825460ff8160401c16600281101562004b0e5715610c8051146200be45578c88866200be03948e64ffffffffff5f9660b81c168881101587146200be3c575087988995620118df565b156200be3157906200be159162008cc5565b9a8b156200be29576001905b019a6200bc4b565b508a6200bc54565b9b600191506200be21565b988995620118df565b50509b600191506200be21565b509b600191506200be21565b9b999a969798505092505091506200bea757906200b0fa917fb2f4de9c8b5c718fbc129fd73f1f19ba5c646e821e39464c1c0bdb4014b4ed6e959697604051958695866200bacf565b90620019929187604051958695632cbd37a760e21b8752600487016200bacf565b848c10156200bc40565b97509750989a9c9b50509597509150506200bf4d576040805195865260208601969096529484019490945263ffffffff909316606083015264ffffffffff909216608082015260a08101919091527f2e92846d5b5d5dd9cf60dd19064afe4a911e6751cdad455cb26a600db66e963c908060c081016200b0fa565b6200199294959650604051968796632e92846d60e01b8852600488019260a09463ffffffff9164ffffffffff94999897939960c087019a8752602087015260408601521660608401521660808201520152565b50959650505050505050565b9394505050929493506200bfed577f6948067a0ba575890268b9a7eaf592a5832287e4402201145ce0768a9d9533fc9160409182519182526020820152a190565b906334a4033d60e11b5f5260045260245260445ffd5b50509391509193506200c044577f64846a095feab375f007bd15ab65eefdf07957e365b3c7ee4711cd9dbdecabe79160409182519182526020820152a15f90565b906364846a0960e01b5f5260045260245260445ffd5b9295935f9681156200c003576012850196845f528760205260405f2064ffffffffff815460b81c16156200c428576200c09482886200c656565b9182156200c41b57815460ff8160401c16600281101562004b0e57808a911592825460ff808260b01c169160b81c16906200c10c5f6200c0e8848464ffffffffff8860b81c16809a8a8a60e01c9162011642565b9363ffffffff6001600160401b038760481c169660981c1693858986898d620116a4565b9283156200c39e57505050835f146200c395578087115b156200c329575050905f905b8782106200c25a575b505082939495969798999a5064ffffffffff6200c15b92935460b81c1662008cc5565b806200c1d857506200c1ad57927faad1caf83451874ebc06a35849e4a295d8bfa856d05d1fbac2876702c7d5074394926200bcc89260ff62008aaa9998965460401c166001604051978897886200bafd565b9060ff620019929493925460401c16600160405197889763155a395f60e31b8952600489016200bafd565b889a508095508294505f9150838089896001966200c1f9989b9c9d62011af6565b156200c20e57505050906200bd339162011b0d565b60e49460ff6200c248925460401c1690604051956350e5550560e11b87526004870152602486015260016044860152606485019062008717565b60848301528060a483015260c4820152fd5b90916200c2698389896200a717565b3590815f528d60205260405f209164ffffffffff835460b81c16156200c31d57825460ff8160401c1691600283101562004b0e578c8f93928b931588146200c30d576200c2d69460019490939092839260b81c64ffffffffff168881106200be3c575087988995620118df565b156200c30257906200c2e89162008cc5565b9182156200c2fc576001905b01906200c12f565b6200c138565b92600191506200c2f4565b505050505092600191506200c2f4565b5092600191506200c2f4565b97509c9a9b505050925050929394506200c37457906200b0fa917f2d77916ace43e6acd02840c860e1e53ff9192b11b1e4dd447dddbcd4b5a4a5c3959697604051958695866200bacf565b906200199291876040519586956316bbc8b560e11b8752600487016200bacf565b8087106200c123565b995099509a9c9e9d505050969850509150506200bf4d576040805195865260208601969096529484019490945263ffffffff909316606083015264ffffffffff909216608082015260a08101919091527f2e92846d5b5d5dd9cf60dd19064afe4a911e6751cdad455cb26a600db66e963c908060c081016200b0fa565b5096975050505050505050565b509394505050929493506200bfed577f6948067a0ba575890268b9a7eaf592a5832287e4402201145ce0768a9d9533fc9160409182519182526020820152a190565b5f9142915463ffffffff8160201c169161ffff8260a01c16915f8442116200c4a0575b156200c4965750565b63ffffffff169450565b50826200c4ae854262008cc5565b116200c48d565b936200c4ff8784976200c4ee936200c50d979660026200c506979c9f9e6200c4e2906200c5149f62011e43565b97909943908d62011f49565b50509a015460f81c9b868962015c4a565b9962008c7f565b926200cd6e565b9162015a06565b916200c52183826200c72c565b92909162008aaa8262011fae565b6006906200c54260078406809462008cc5565b5f520160205260405f209080155f146200c56a5750549061ffff808360081c169260181c1690565b600181036200c5875750549061ffff808360281c169260381c1690565b600281036200c5a45750549061ffff808360481c169260581c1690565b600381036200c5c15750549061ffff808360681c169260781c1690565b600481036200c5de5750549061ffff808360881c169260981c1690565b6005036200c5f957549061ffff808360a81c169260b81c1690565b549061ffff808360c81c169260d81c1690565b9091926001600160a01b0362008aaa9481604051956323b872dd60e01b60208801521660248601521660448401526064830152606482526200c65060848362008967565b62011ff4565b91906200c663836200c46a565b919295909386156200c677575b5050505050565b6200c6d557600201546040805160a89290921c61ffff16825260208201949094529283019190915260608201527f7d19aaecec937dccd460f6ff611aadbc7bfa5ef672ef8fb6cfaf12ea804ed4a090608090a15f808080806200c670565b60020154604051631f466abb60e21b815260a89190911c61ffff166004820152602481019390935260448301919091526064820152608490fd5b9060018201915f60018412911290801582169115161762003ef857565b9190915f838201938412911290801582169115161762003ef857565b905f19820191821360011662003ef857565b81810392915f13801582851316918412161762003ef857565b9490929693959199988a549063ffffffff8260981c169a8b916200c7e66200c7d18a549460ff8660b81c16908c8a60ff8960b01c16928a64ffffffffff8160b81c169361ffff8260881c169360ff8360e01c9360401c16916200c4b5565b50506001600160401b038660481c166200c72c565b808d12156200ccc3578c6200c7fb916200c75a565b91816200cc43575050965b604883901c6001600160401b0316610c808190525f908e908a11156200cc115750506200c837610c80518962008cc5565b9b6200c85060ff8460b81c1660ff8560b01c1662009239565b6006036006811162003ef8576200c86b6200c87c916200a5e8565b64ffffffffff8660b81c1662008c7f565b9c819d600260ff8760401c16101562004b0e575f9e60ff8760401c16155f146200cbf1576200c8b06200c8b792846201406b565b906200c72c565b9d8e5b13156200cb855750506200c8da8c63ffffffff600984015416906200b259565b6200cb76578b9a8d925f610c805260019d6200c93b918f916200c92f925b156200cb67575f905b60ff808460b81c169360b01c169164ffffffffff8a60b81c16918a60e01c8d60ff8d60401c16908b6200c4b5565b5050610c80516200c72c565b908082126200ca89575b505094889488946200c9cc61018099956001600160501b036200ca339f9d9663ffffffff9f9b63ffffffff989e7fa97e56d50498d7b8acf31641413f46438d6d7d3f6e6acf04c6e7995cab8b66b29f6200c99f92620121b6565b6200c9ab8a886200ba83565b54955416986040519a8b5260208b015260ff60408b019160401c1662008717565b606088015260808701526001600160401b038160481c1660a0870152610c805160c087015260981c1660e085015286610100850152610120840152610140830152610160820152a1845463ffffffff60981b1916911660981b63ffffffff60981b16178355565b156200ca7a5762008aaa906200ca4d610c805182620122cc565b805469ffffffffffffffffffff60481b19811670ffffffffffffffff000000000000000000909116179055565b610c805162008aaa91620122cc565b909192505f82138015906200caf2575b6200caa7578d92916200c945565b9897509899505050505050507fa3cd1f19e02df00e3aa13cca19961f43eeedbfb5f34c064e278a6e2554a45088955060809450604051938452602084015260408301526060820152a1565b5060018301548060f81c6009811080156200cb5c575b62004e2b576200cb18906200a5e8565b826200cb2a57505081155b156200ca99565b828411156200cb4c578263ffffffff818603935b60d81c16029102106200cb23565b8263ffffffff858203936200cb3e565b50602481116200cb08565b61ffff8860881c16906200c901565b50505050505050505050505050565b9650965050509590507f5af9ac97cf247d243434484869b838e2197714f1588e5d33e67505161e00368799506200cbee96975060e098949150604051978852602088015260408701526060860152608085015260a084015260ff60c084019160401c1662008717565ba1565b506200cc026200cc0991836201406b565b836200c75a565b9d8e6200c8ba565b926200c92f6200c93b91839f9e938f906200cc398e6001600160401b038b60481c1662008cc5565b610c80526200c8f8565b82829a9392116200cc57575b50506200c806565b98909198156200cc6b5750965f806200cc4f565b9750979a505050505050507f2d1899850ba9b9c9b74657311b57a098fafc67bacd47c2572b10b1d48158646595506200aed0929350604051948594859094939260609260808301968352602083015260408201520152565b50999a5050505050505050507f2d1899850ba9b9c9b74657311b57a098fafc67bacd47c2572b10b1d481586465945060809350604051928352602083015260408201525f6060820152a1565b906001600160501b036200cd32600362008aaa94019282845460501c1662010abb565b825469ffffffffffffffffffff60501b1916911660501b69ffffffffffffffffffff60501b16179055565b600160ff1b811462003ef8575f0390565b81810292915f8212600160ff1b82141662003ef857818405149015171562003ef857565b81156200920357600160ff1b81145f1983141662003ef8570590565b929190925f91600282015461ffff8160a81c169583549463ffffffff8660c81c166200cddb818a620106fd565b6200cdee5f60ff8960c01c168b6200e0e1565b6200d1fa576200cdfe436200e16c565b9391929098608f430180431162003ef85785116200d1ac576013890191848452826020526040842054916200ce338c6201233e565b9c15809d819e6200d19f575b506200d10b5760ff8960f01c16158080916200d0f8575b6200d0e7576200ce728663ffffffff60098f0154168d6200b312565b6200d0e7576200d024575b5061ffff8860981c166200ce91816200cd5d565b8890828213156200d007575050975b6200ceac898b6200cd6e565b9060f81c600503600581116200cff357906200cecc6200ced3926200a5e8565b906200cd92565b60050b99849187116200cf7a575b50927f9c0e05c2bbc786a75afe5fed63ff9274f7c690af8ea4e843e07f2a525295c1049c9a989694926040928b6101009e9c9a9896019a8b9165ffffffffffff806200cf386200cf318562008c68565b946201233e565b9416831b921b191617179382526020522055604051978852602088015260408701526060860152608085015260a084015260050b60c08301521560e0820152a1565b5f19870191508682116200cfdf57926040928b7f9c0e05c2bbc786a75afe5fed63ff9274f7c690af8ea4e843e07f2a525295c1049f9d9b9997956101009f9d9b9997946200cfc8916200dcbd565b509396989a509b9d509250929496989a9c6200cee1565b634e487b7160e01b85526011600452602485fd5b634e487b7160e01b86526011600452602486fd5b80919a925089126200d01b575b506200cea0565b98505f6200d014565b61ffff63ffffffff8260401c169160901c16906200d04482828d62014c12565b156200d05157506200ce7d565b9a509a5050505094989750505050506200d0b1577f2030ce993f9f888e4d2a20dcbf75ead5d3de6742ef5fa8e75a47849a41a4af579392916200aed091604051948594859094939260609260808301968352602083015260408201520152565b906200199291604051948594632030ce9960e01b8652600486019094939260609260808301968352602083015260408201520152565b505050505050505050505050505050565b506200d105868d62010c12565b6200ce56565b505050509450945096955050506200d169577fdd8c0c9dcb3ad98da85346fa23e456a8128ec3fc478eaacb4990e450880308cc9392916200aed091604051948594859094939260609260808301968352602083015260408201520152565b90620019929160405194859463dd8c0c9d60e01b8652600486019094939260609260808301968352602083015260408201520152565b9050831615155f6200ce3f565b5050604080519a8b524360208c01528a0192909252507fe0a0c6a40b4bf56f73bec44f57f213f583e95a0be298411ea97afbe135c07d82979650869550506060850193506200aed092505050565b505050505050505050565b600281015481549560a882901c61ffff16959460c888901c63ffffffff16949092916200d2338689620106fd565b6200d2468160ff8b60c01c168a6200e0e1565b6200d1fa576200d256436200e16c565b929097608f430180431162003ef85784116200d551576013880191835f528260205260405f20549c8d6200d28a8c6201233e565b9c159c8d91826200d544575b50506200d4e65760ff8860f01c16158080916200d4d3575b6200d0e7576200d2ca8363ffffffff60098e0154168c6200b312565b6200d0e7576200d447575b505061ffff8660981c166200d2ea816200cd5d565b8690828213156200d42a575050955b6200d30587896200cd6e565b9060f81c600503906005821162003ef8576200cecc6200d325926200a5e8565b60050b975f9185116200d3cb575b50907f9c0e05c2bbc786a75afe5fed63ff9274f7c690af8ea4e843e07f2a525295c1049b886101009c9b9a9998979695949301986200d37d6200d3768262008c68565b916201233e565b9165ffffffffffff808c16831b921b19161717915f5260205260405f2055604051978852602088015260408701526060860152608085015260a084015260050b60c08301521560e0820152a1565b9a99989796959493929190505f1983019b838d1162003ef857876200d4157f9c0e05c2bbc786a75afe5fed63ff9274f7c690af8ea4e843e07f2a525295c1049e6101009e6200dcbd565b50929394959697985098999a9b509b6200d333565b809198925087126200d43e575b506200d2f9565b96505f6200d437565b61ffff63ffffffff8260401c169160901c16916200d46783838c62014c12565b156200d47457506200d2d5565b99509950995050505050505094506200d0b1577f2030ce993f9f888e4d2a20dcbf75ead5d3de6742ef5fa8e75a47849a41a4af579392916200aed091604051948594859094939260609260808301968352602083015260408201520152565b506200d4e0838c62010c12565b6200d2ae565b509750505095965097505050506200d169577fdd8c0c9dcb3ad98da85346fa23e456a8128ec3fc478eaacb4990e450880308cc9392916200aed091604051948594859094939260609260808301968352602083015260408201520152565b16151590505f8f6200d296565b50975050975050505050506200d5a157604080519182524360208301528101919091527fe0a0c6a40b4bf56f73bec44f57f213f583e95a0be298411ea97afbe135c07d829080606081016200aed0565b63382831a960e21b5f526004524360245260445260645ffd5b90929160ff600283015460f01c166200d68f5760016200d5dc918584620124f2565b9490929091156200d67c57805463ffffffff60401b1916604084901b63ffffffff60401b161781557f5e3f1c81da4dcfcb835cba6457aa389114f5d309917179746b46ac03953f56b29291905b80546fffffffff0000000000000000000000008760601b16906fffffffff00000000000000000000000019161790556200aed0600195604051938493846040919493926060820195825260208201520152565b5063a8c2945f60e01b5f5260045260245ffd5b50509060207f36f8ddb481e1d66678af53feb8d0fdddc463c11ce08cda4e93ac2065d26634dd91604051908152a15f90565b9291905f9160ff600286015460f01c166200d769575f6200d6e4918387620124f2565b9590939091156200d7375750805463ffffffff60401b1916604084901b63ffffffff60401b161781557f5e3f1c81da4dcfcb835cba6457aa389114f5d309917179746b46ac03953f56b29291906200d629565b9450507fa8c2945f7db53a36d192551c9b4c3ea4cbc53140f60d0dc8b1a8b58499958cdf9150602090604051908152a1565b507f36f8ddb481e1d66678af53feb8d0fdddc463c11ce08cda4e93ac2065d26634dd92935060209150604051908152a15f90565b6002609754146200d7af576002609755565b60405162461bcd60e51b815260206004820152601f60248201527f5265656e7472616e637947756172643a207265656e7472616e742063616c6c006044820152606490fd5b906001600160501b03809116911603906001600160501b03821162003ef857565b9190915f9054906001600160501b038083169260501c168083116200d85d575b5080841193846200d84557505050565b632e14f96160e21b5f5260045260245260445260645ffd5b6001600160501b0391506200d87390836200d7f4565b165f6200d835565b9290925f9054936001600160501b038086169560501c168086116200d925575b5081811193846200d8af575b505050909150565b6200d90a576040805191825260208201929092526001600160501b039094169084015290917fb853e5846ad52919c794f709695100094681c458cd1864d5217c6c897b6858b19080606081015b0390a181905f80806200d8a7565b849250632e14f96160e21b5f5260045260245260445260645ffd5b6001600160501b039192506200d93c90866200d7f4565b16905f6200d89b565b335f5260d460205260ff60405f2054166200dadf5760d1544311156200da975761217b430180431162003ef8578060d1556103e86200d98a60ce5460cc549062008c7f565b0460d3548082115f146200da8f57505b61217b8104918260d05561085f430180431162003ef85760d25561217b830283159084810461217b1482171562003ef8576200d9d7908462008cc5565b9361085f81029181830461085f14171562003ef8576200da1d6200da3d927fbed1e76d359c53e2dbafd4561fa97daac567d51974f6317c2f583ef17cddaa9d9662009239565b60cf55604051938493846040919493926060820195825260208201520152565b0390a15b60cf548082116200da5d57906200da589162008cc5565b60cf55565b60d05460d1546040516356cb4a3d60e01b81526004810194909452602484019290925260448301526064820152608490fd5b90506200d99a565b60d2548043116200daaa575b506200da41565b6200dac86200dabe6200dad1924362008cc5565b60d0549062008c7f565b60cf5462009239565b60cf554360d2555f6200daa3565b50565b906001600160501b036200ad9b81928285541662010abb565b60405163a9059cbb60e01b60208201526001600160a01b0392909216602483015260448083019390935291815262008aaa916200c65060648362008967565b9392919060648102928184046064148215171562003ef857826200db5e9162008c7f565b938484106200dbce57826200db739162008c7f565b938484106200dbbe575081116200db8d5750505050600190565b60648102908082046064149015171562003ef8576200dbac9262012ace565b818111156200dbb9575090565b905090565b90506200dbac9391508462012a07565b505050505090565b949392916200dbe59162009239565b60648102928184046064148215171562003ef857826200db5e9162008c7f565b9061271081116200dc40576002909101805470ffff000000000000000000000000000000191660789290921b61ffff60781b16919091179055565b61ffff600283015460a81c16630dbcc17f60e31b5f5260045260245261271060445260645ffd5b6001600160a01b0319606554166065556001600160a01b0380603354921691826001600160a01b0319821617603355167f8be0079c531659141344cd1fd0a4f28419497f9722a3daafe3b4186f6b6457e05f80a3565b63ffffffff815460c81c16918281106200dda8579091906200dcdf9062012b07565b9391939290929383926013829101915f52816020526200dd0460405f2054956201233e565b8516156200dd2a57505050906200dd2265ffffffffffff9262008c68565b1c1660050b91565b9194939092858511156200dd9e57806200dd875750506200dd5160059161a7679062008cc5565b9050600491815f528060205260405f2054935b61217a19810190811162003ef857946200dd7e846201233e565b9290926200dd04565b909392905f19810190811162003ef857926200dd64565b505f959350505050565b5050505f905f90565b9190916001831080156200de06575b6200dde857600201805461ffff60c81b191660c89390931b61ffff60c81b1692909217909155565b82630c8f0a6960e41b5f52600452600160245261271060445260645ffd5b5061271083116200ddc0565b9061271081116200dc405790600261ffff62008aaa931691019061ffff60881b1961ffff60881b83549260881b169116179055565b9190916001831080156200de7e575b6200dde857600201805461ffff60b81b191660b89390931b61ffff60b81b1692909217909155565b5061271083116200de56565b6001821080156200deef575b6200dece57600201906effffffffff0000000000000000000082549160501b16906effffffffff000000000000000000001916179055565b50630c8f0a6960e41b5f52600452600160245264ffffffffff60445260645ffd5b5064ffffffffff82116200de96565b906103e8811080156200df51575b6200df325767ffff00000000000082549160301b169067ffff0000000000001916179055565b61ffff9063d24aa9ff60e01b5f526004526103e860245260445260645ffd5b5061ffff81116200df0c565b908060081c9060ff811660ff81036200e050575b5060101c9060ff811660ff81036200dfee575b505060ff81036200df97575b50505f1990565b6200dfa490825462012b43565b60018101156200df9057806002915f52600183016020526200dfca60405f205462012b69565b9060081b1791825f52016020526200dfe660405f205462012b69565b9060081b1790565b6200e00890835f526001850160205260405f205462012b43565b9060018201156200df8457600292507effffffffffffffffffffffffffffffffffffffffffffffffffffffffffff00161791825f52016020526200dfe660405f205462012b69565b6200e06a90835f526002850160205260405f205462012b43565b60018101156200df71579250905060ff19161790565b5f92916005811015908162004b0e57600181149182156200e0d3575b82156200e0c0575b50506200e0ae5750565b633892657f60e01b5f5260045260245ffd5b90915062004b0e576003145f806200e0a4565b506002811491505f6200e09c565b9092915f936005811015908162004b0e57600181149182156200e15e575b82156200e14b575b50506200e112575050565b909192506200e0ae5760207f3892657f1733e6fad09eddb45222f85d706fcdf18040658aae5eb4bd9ba497e691604051908152a1600190565b90915062004b0e576003145f806200e107565b506002811491505f6200e0ff565b6200e1779062012b07565b92908290600481036200e1a85750506200e1965f9261a7679062009239565b925b61217b810180911162003ef85790565b6200e1b69194935062009323565b916200e198565b906200e1c9336200b855565b91825f5260d560205260405f209260ff845460a01c166200e1ea81620083e2565b80620054e357506200e20c826001600160a01b0360cb5416309033906200c60c565b6200e21882856200ba83565b60cc546200e227838262009239565b906001600160501b0382116200e287575060cc5592546040805194855260208501929092526001600160501b031690830152907f84b5adc99a7d46a960b87da6e4882021bab65d63c6d02c9bcfc52f02e710b1e39080606081016200aed0565b8390632242001360e21b5f526004526024526001600160501b0360445260645ffd5b9390979695926200e2cf9060c0969360e087019a87526020870152604086019062008717565b6060840152608083015260a08201520152565b9794959697610b4052610a20526108e052610b0052610b00515f526012610b40510160205260405f206109005264ffffffffff610900515460b81c16156200fc9957816200e393917fa77d65693716101939aad03e17516ac9015bd4d1d7baab6959d9395fc609dc4960e0604051610a20518152610b005160208201526108e05160408201528360608201528760808201528860a08201528960c0820152a1610b005161090051610b405162012cac565b6109605261098092909252919591939192156200fc90576001610b405101936200e3c98762ffffff875460701c16848462013062565b9087806200fc82575b806200fc74575b80156200fc47575b156200fbb357505050816200fb06575b5050906200e4af9160ff610900515460401c16610940525f610a80525f610ac0525f610a00526109005154906200e443610980516001600160401b038460481c1664ffffffffff8560b81c1662016033565b6200e451819692966200cd5d565b610a80526200e4a060ff8560401c1694610b4051549060ff808360b81c169260b01c1690610980519061ffff8160881c169063ffffffff8160981c169060e01c8a61096051610b40516200c4b5565b6109c0526109a052906200c72c565b915f83126200faae57506200e5af826001600160501b03926200e4d66200e5e3956200cd5d565b610ae0525f610a405254610b20526200e573620186a06200e50362ffffff610b205160881c16846200cd6e565b0591620186a06200e52062ffffff610b205160a01c16836200cd6e565b05610a60819052610ac052610b2051620186a0906200e5489060b81c62ffffff16836200cd6e565b05610aa0819052610a60516200e56c91906200e5669086906200c72c565b6200c72c565b906200c75a565b610a40526200e589610aa051610ae0516200c72c565b610ae0528515806200faa5575b6200fa6e575b826003610b4051015460501c1662017808565b166003610b4051019069ffffffffffffffffffff60501b1969ffffffffffffffffffff60501b83549260501b169116179055565b6200e5f1610ae05162016054565b5f610ae051125f146200f9df576200e61190610b0051610b4051620121b6565b610b00515f5260d560205260405f206200e62f610ac0518262016064565b610a005260c9546200e64f6001600160701b03610a405190831662017808565b906001600160701b0319161760c95560ff610900515460401c1692600284101562004b0e576200e718936200f9c7576200e69061098051610b4051620160e1565b156200f99c576200e6c9906200e6b0610b00516011610b4051016201409e565b600561ffff6002610b4051015460a81c169101620141aa565b62009ff26002610b40510154845f146200f98a5764ffffffffff8116905b60ff8160e01c169160ff8260d81c169164ffffffffff808260501c1692169061ffff610980519160b81c166200dbd6565b6109e0525f61088052156200f97e575f610880525b5f6108a0526108e0515f5260d560205260405f20610860526001600160501b03610860515416610920526108e0515f526012610b40510160205260405f20610840526200e78561098051610880516108405162017850565b6200e7936108805162014426565b806200f976575b6200f92f575b6200e7ab81620083e2565b806200f08e57506200e7da905f6109e0516109805161096051610960516108805161086051610b4051620178e0565b909183156200eb28575b5050505b6001600160501b03610860515416610920518110156108a05150805f146200eb12576200e819610920518362008cc5565b905b6001600160ff1b0382116200eaf257156200eae057915b600781036200eaad57507f8bb45343b586b0a2e25de387c177d53762fbbb2da1e8324cdcb3157dd401249a9160e09160405191610a205183526108e05160208401526200e88261088051620083e2565b61088051604084015261096051606084015261098051608084015260a083015260c0820152a16108e0515f908152610b405160120160205260409020805460b81c64ffffffffff16156200ea2257806001600160401b03807ff14b2e916a38315c52d00796f7301d83d24a889ea889ef230a501c9dcb524d20935460481c16916200e911610aa051826201610c565b54604080516108e051610a2051825260208201529081019390935260481c166060820152608090a15b6200e9506108e051610b0051610a205162011c78565b7f6fc9c0ea1c0531654320ba06740c802447dbdef7c26cf749c4f12553cdd958a96101c061090051546001600160401b0360405191610a20518352610b005160208401526200e9a6604084016109405162008717565b6109605160608401526109605160808401526109805160a084015264ffffffffff8160b81c1660c08401526109a05160e08401526109c051610100840152610a805161012084015260481c16610140820152610ac051610160820152610a00516101808201525f6101a0820152a162008aaa610b405162011e0f565b506108e0515f5260d56020527f66c4fd8d726a62e549cbf66bc9a8e005cb6e30b73e027b3d86c4df1388d2b16f60405f206200ea846001600160501b03825416916200ea79610aa0516108e051610b4051620121b6565b610aa0519062016064565b604080516108e051610a205182526020820152908101929092526060820152608090a16200e93a565b6200199290604051918291633e3906a760e21b83526109805161096051610880516108e051610a205160048801620133f8565b6200eaeb906200cd5d565b916200e832565b8263e69a04b360e01b6108a051526004526109205160245260446108a051fd5b6200eb21826109205162008cc5565b906200e81b565b829350916200eb38919262009239565b906200eb4761088051620083e2565b610880516200f085575f905b61ffff6002610b4051015460a81c165f60c06040516200eb7381620088da565b8281528260208201528260408201528260608201528260808201528260a082015201526001600160401b0384116200f0675764ffffffffff61098051116200f048575f6108a052604051906200ebc982620088da565b5f82525f60208301526200ebe184604084016200979d565b6001600160501b038516606083015263ffffffff6109605116608083015264ffffffffff610980511660a083015263ffffffff431660c08301526108e0515f526012610b40510160205264ffffffffff60405f205460b81c166200f02f5750610b40516011015460201c63ffffffff16806200efdf57506200ec6d6108e0516011610b405101620170b7565b6108e0515f526012610b40510160205260405f2063ffffffff808351161663ffffffff198254161781556200ecc763ffffffff602084015116829063ffffffff60201b82549160201b169063ffffffff60201b1916179055565b604082015191600283101562004b0e5760c063ffffffff916200ecef6200edb4958562019597565b6060810151845469ffffffffffffffffffff60481b191660489190911b69ffffffffffffffffffff60481b161784556080810151845463ffffffff60981b191690841660981b63ffffffff60981b1617845560a0810151845464ffffffffff60b81b191660b89190911b64ffffffffff60b81b16178455015182547bffffffffffffffffffffffffffffffffffffffffffffffffffffffff16911660e01b7fffffffff0000000000000000000000000000000000000000000000000000000016179055565b6200edc96108e0516011610b405101620170db565b6005610860510161ffff6002610b4051015460a81c1660fc8111155f146200ef34576001901b81541790555b6200ee0f6200ee05828562009239565b610860516200dae2565b6200ee1e83610b405162010719565b6200ee476200ee3f6200ee3983610b40515460e81c62008c7f565b6201403d565b809262008cc5565b906200ee53826200adae565b6200ee6281610b405162010735565b600283101562004b0e577f04cc3d2fc73a9dca30eba1d05eca80b1b1216350243580027046f434fed4db189461016094846200ef1c576200eeaa61098051610b4051620195e6565b6200eed861ffff6002610b4051015460a81c16956040519687526108e0516020880152604087019062008717565b6109e0516060860152608085015260a08401526109605160c08401526109805160e08401526101008301526101208201525f610140820152a160075f80806200e7e4565b6200ef2e61098051610b4051620195c5565b6200eeaa565b6101fc81116200ef69576200ef4b60019162008cb5565b1b60066108605101908154179055600160fd1b81541790556200edf5565b6102fc81116200ef9e576200ef8060019162008ca4565b1b60076108605101908154179055600160fe1b81541790556200edf5565b6103fc8111156200efb2575b50506200edf5565b6200efbf60019162008c93565b1b60086108605101908154179055600160ff1b81541790555f806200efaa565b63ffffffff81116200f015578060208301525f526012610b4051016020526200f00f6108e05160405f20620170b7565b6200ec6d565b6395d41f3f60e01b5f5260045263ffffffff60245260445ffd5b633f1ed2e160e21b5f526004526108e05160245260445ffd5b6395d41f3f60e01b5f526109805160045264ffffffffff60245260445ffd5b836395d41f3f60e01b5f526004526001600160401b0360245260445ffd5b6001906200eb53565b6200f09981620083e2565b600181036200f3c157506200f0cb815f6109e0516109805161096051610960516108605161084051610b405162017ffb565b610b80516108c052610ba051610bc051610c005195969294939092909187600a81036200f1645761ffff6002610b4051015460a81c166003610b4051015490620019926200f11c6108c05162016054565b60405163063c641b60e41b815261ffff90931660048401526001600160501b03808516602485015260509490941c909316604483015260648201929092529081906084820190565b156200f179575b505050505050505b6200e7e8565b6200f18e919293949597506108605162016064565b506200f19d6108c05162016054565b5f6108c051125f146200f3ac576200f1bd906108e051610b4051620121b6565b6200f1d46200ee3987610b40515460e81c62008c7f565b6200f1e0818862008cc5565b906200f1ec826200adae565b6200f1fb81610b405162010735565b6200f2186108405154956001600160401b038760481c166200c72c565b935f85126200f39d57600260ff8760401c16101562004b0e5764ffffffffff867f99a74f70c224396b9ba5fcd5a6e5f480db23e7a25a2b16a8c133ec2efb3e646c986200f28f60ff6101e09a60401c16156109805161096051868660b81c1661ffff8760881c1663ffffffff8860981c1662019d7b565b99925095909260ff8560401c16155f146200f385576200f2b661098051610b4051620195e6565b6200f2ea8b888c8761ffff6002610b4051015460a81c1693439460ff8c60401c16906108e051906011610b40510162019bec565b61ffff6002610b4051015460a81c169a6040519b8c526108e05160208d01526200f31e60408d0160ff8860401c1662008717565b6109e05160608d01526001600160401b038660481c1660808d015260a08c015260c08b015260e08a015261010089015261012088015260b81c166101408601526101608501526101808401526101a08301526101c0820152a16007915f808080806200f16b565b6200f39761098051610b4051620195c5565b6200f2b6565b63b42b26c760e01b5f5260045ffd5b6200f3bb90610b405162010719565b6200f1bd565b6003906200f3cf81620083e2565b036200f68c576200f401905f6109e051610980516109605161096051610960516108605161084051610b405162017cf7565b61082093909352610b8051939490939092909187600a81036200f4485761ffff6002610b4051015460a81c166003610b4051015490620019926200f11c6108205162016054565b156200f45b57505050505050506200e7e8565b6200f49e919293949597506200f4746108205162016054565b5f61082051125f146200f677576200f494906108e051610b4051620121b6565b6108605162016064565b506200f4b66200ee3987610b40515460e81c62008c7f565b6200f4c2818862008cc5565b916200f4ce836200adae565b6200f4dd82610b405162010735565b61084051549560ff8760401c1694600286101562004b0e5764ffffffffff6101c0977f01a0596385c75b269e896ca6468a2be2edc8b2b5459f4e25ca0a75944390a10c9988155f146200f64e57506200f54382610840515460b81c16610b4051620160e1565b6200f55283610b4051620195c5565b6108405154906200f564818d62009239565b6200f59f61ffff6002610b4051015460a81c168b155f146200f64557866001915b84439361096051926108e051906011610b4051016201998d565b610b40516002015460a81c61ffff16996200f63a576200f5d560015b6040519b8c526108e05160208d015260408c019062008717565b6109e05160608b01526001600160401b038360481c1660808b015260a08a015260c08901526109605160e089015260b81c166101008701526101208601526101408501526101608401526101808301526101a0820152a16007915f808080806200f16b565b6200f5d55f6200f5bb565b865f916200f585565b826200f6629160b81c16610b40516201609b565b6200f67183610b4051620195e6565b6200f552565b6200f68690610b405162010719565b6200f494565b506200f6af6109e05161098051610960516109605161084051610b405162017bfa565b6107e0949094525061080085905291929091600a85036200f72457610b4051600281015460039091015460405163063c641b60e41b81526107e05160a89390931c61ffff1660048201526001600160501b03808316602483015260509290921c90911660448201526064810191909152608490fd5b61080051156200f73a575b506200f17392505050565b90919293506200f7556107e0516108e051610b4051620121b6565b6200f7676107e051610860516200ba83565b60ff610840515460401c1691600283101562004b0e57826200f917576200f79561098051610b4051620160e1565b84156200f84757509060c0917f599b5f439ed4daf1f28ae8638e5439d3982e8001fb26dd8f70021b38672eb26f936200f7d86108e0516011610b4051016201409e565b6200f7f861ffff6002610b4051015460a81c1660056108605101620141aa565b6200f82661ffff6002610b4051015460a81c16936040519485526108e0516020860152604085019062008717565b610960516060840152608083015260a0820152a15b6007905f80806200f72f565b907fcd4a9f7ae1cc250eaa0be6bdb30d07efaf0faafb4ff0e76d8fe09a8373e43f859364ffffffffff610120946200f888610840515495610840516201777b565b6200f89a6109805161084051620161a2565b8161ffff6002610b4051015460a81c16956200f8cf6108405154936040519889526108e05160208a0152604089019062008717565b6001600160401b038160481c1660608801526001600160401b038360481c16608088015260b81c1660a086015260b81c1660c084015260e0830152610100820152a16200f83b565b6200f92961098051610b40516201609b565b6200f795565b610980515f036109805162003ef8576200f96f906200f969610b4051546109e0519260ff808360b81c169260b01c169061096051620120fd565b62012175565b506200e7a0565b505f6200e79a565b6001610880526200e72d565b64ffffffffff8160281c16906200e6e7565b506200f9af610a8051610900516201610c565b6200f9c16109805161090051620161a2565b6200e6c9565b6200f9d961098051610b40516201609b565b6200e690565b806200f9ed575b506200e611565b6200f9fc90610b405162010719565b7fbee5185c13c42cac0d82b6c115c77d5e8dc2b2888c013d169e068e634f57f58e60e061ffff6002610b4051015460a81c16604051908152610b0051602082015261096051604082015261098051606082015260016080820152600160a0820152610ae05160c0820152a15f6200f9e6565b6200fa80610a6051610ae0516200c72c565b610ae0526200fa96610a6051610a80516200c72c565b610a80525f610ac0526200e59c565b5060016200e596565b60c490836200faed61ffff6002610b4051015460a81c169260405193630c62a44b60e11b85526004850152610b00516024850152604484019062008717565b61098051606483015261096051608483015260a4820152fd5b84156200fba657816109605111155b6200e3f1579350935050506200fb70577f1f008bb4cf7968d3043531816710a52872a7cd65b725fdf40176bbe0ff8215979060ff610900515460401c166200aed06040519283926109605190610b0051610a2051866200bacf565b60ff610900515460401c16620019926040519283926307c022ed60e21b84526109605190610b0051610a2051600487016200bacf565b816109605110156200fb15565b955095509695509150506200fc0f576200aed07f244c695d1e05b510329d2a418fcf7f40a78e7e06283e8422153ba676d7dc8f9d939460ff610900515460401c16926040519485946109605190610b0051610a2051886200e2a9565b620019928460ff610900515460401c169260405194859463244c695d60e01b86526109605190610b0051610a2051600489016200e2a9565b508715806200fc66575b80156200e3e15750826109605111156200e3e1565b50610960518211156200fc51565b50816109605111156200e3d9565b50610960518311156200e3d2565b50505050505050565b50925050506200fcda577f6948067a0ba575890268b9a7eaf592a5832287e4402201145ce0768a9d9533fc60408051610a20518152610b00516020820152a1565b6334a4033d60e11b5f52610a2051600452610b005160245260445ffd5b92906200fd066001846201342b565b6200987557805f526012840160205260405f209264ffffffffff845460b81c16156201003d5760016200fd3c9183868862012cac565b939594969196156200d1fa578515967f02d2bf39d2355aaa5486487e934403fd3ba3f88c73ab71938cee11931fddeb7b61022061ffff60028d015460a81c168a5f14620100355760035b6200fdaf5a916040519384528b60208501525f60408501525f606085015260808401906200a392565b8560a08301528760c08301525f60e08301525f6101008301525f61012083015260016101408301526103e86101608301525f6101808301525f6101a08301525f6101c08301525f6101e0830152610200820152a16200fe118885848d620134b1565b61076051948181116200fe35575b505050505050505050505062008aaa9062011e0f565b906200fe419162008cc5565b9384891562010023576200fe55916201406b565b965b60ff8a5460401c16988162010018575b81156200fffe575b506200ffb05750506200fe87908286868a8c620130ec565b9593989250939590988760028d015460a81c61ffff16906200fea99162011b0d565b604051838152836020820152836040820152846060820152608081015f90528960a08201528a60c082015260e07f5be6b2e974d9a72428e5cb9cf915a5f991d1c862db8cafc9a121bb99b091cb7491a160028c015460a81c61ffff169a54976040519b8c5260208c015260408b016200ff229162008717565b60608a0152608089015260a08801528360b81c64ffffffffff1660c088015260e087015261010086015261012085015260481c6001600160401b03166101408401526101608301526101808201526101a08101600190526101c07f6fc9c0ea1c0531654320ba06740c802447dbdef7c26cf749c4f12553cdd958a991a15f808080808080808080806200fe1f565b925092505060c4936200ffed8661ffff60028b015460a81c16956040519663fbe5086f60e01b885260048801526024870152604486019062008717565b6064840152608483015260a4820152fd5b9050806201000e575b5f6200fe6f565b5086821062010007565b88841191506200fe67565b6201002e91620091f8565b966200fe57565b60026200fd86565b5061ffff600285015460a81c166334a4033d60e11b5f5260045260245260445ffd5b939291926201006f81856201342b565b6200c67057815f526012850160205260405f209364ffffffffff855460b81c1615620100a457906200fd3c9183868862012cac565b509150929150620100f757600201546040805160a89290921c61ffff16825260208201929092527f6948067a0ba575890268b9a7eaf592a5832287e4402201145ce0768a9d9533fc91819081016200aed0565b600261ffff91015460a81c166334a4033d60e11b5f5260045260245260445ffd5b156201012057565b60405162461bcd60e51b815260206004820152602b60248201527f496e697469616c697a61626c653a20636f6e7472616374206973206e6f74206960448201527f6e697469616c697a696e670000000000000000000000000000000000000000006064820152608490fd5b909180156200a878575f5b818110620101a45750505050565b80620101b460019284876200a717565b358061ffff10620101d6575f52600784016020525f60408120555b0162010196565b50620101cf565b905f91801515908162010210575b811562010201575b50620101fb57565b60019150565b63ffffffff9150115f620101f3565b4381109150620101eb565b90805461ffff8160681c16908115801562010237575050505050565b612710830292830461271014171562003ef85760c95460701c6c1fffffffffffffffffffffffff1690818311620102d1575050916080918361ffff6201029e7f829714cd4c1b45d8cb7fc185e9a89690df638ae20633056021e186ef6ce2e0bf96620142ab565b92620102aa836200adae565b5460a81c16604051938452602084015260408301526060820152a15b5f808080806200c670565b60a093509161ffff7ff662aa6b6412ffe2a4e433dace098e96260a08fdaefdb023773e41f999b7c4ec9593604051945f8652602086015260a81c16604084015260608301526080820152a1620102c6565b61ffff16801562003ef8575f190190565b5f93918315620106a45761ffff948585166303ff00008360101b1617906002840192825f528360205260405f209687549063ffffffff8216156201067e5750855460b01c63ffffffff1684036201064557506201039b63ffffffff885460201c1686620142fb565b63ffffffff875460201c168062010626575b505b845460d01c63ffffffff168303620105ea57620103d763ffffffff885460401c168662014399565b63ffffffff875460401c1680620105cb575b505b6003850191815f5282602052620104316201041060405f209a8b5460401c1662010322565b8a5469ffff0000000000000000191660409190911b61ffff60401b16178a55565b87546201044460ff8260601c1662014426565b15620105ac575050620104656001600160501b03885460901c16866201448b565b965b885463ffffffff81168514808062010599575b15620105005750505062008aaa959697505f526020525f60408120555b5f526020525f6040812055620104b1815460f01c62010322565b81547dffffffffffffffffffffffffffffffffffffffffffffffffffffffffffff1660f09190911b7fffff00000000000000000000000000000000000000000000000000000000000016179055565b9193509150156201055a57505460201c63ffffffff16956303fcffff80881162010544575063ffffffff62008aaa9596971663ffffffff1982541617905562010497565b876395d41f3f60e01b5f5260045260245260445ffd5b968263ffffffff62008aaa97989960201c16146201057b575b505062010497565b63ffffffff62010591925460401c1690620143f6565b5f8062010573565b508563ffffffff8360201c16146201047a565b64ffffffffff620105c59160689a939a1c168a6201444e565b62010467565b5f528360205260405f2063ffffffff60201b1981541690555f620103e9565b8654602081811c63ffffffff165f9081529086905260409020805463ffffffff60401b191663ffffffff60401b909216919091179055620103eb565b5f528360205260405f2063ffffffff60401b1981541690555f620103ad565b604081811c63ffffffff165f908152602087905220805467ffffffff00000000191663ffffffff60201b909216919091179055620103af565b905063ffffffff60018701541691638d5bba0f60e01b5f5260045260245260445260645ffd5b63ffffffff600183015416906369bc91ef60e11b5f5260045260245260445ffd5b9062008aaa91815f5260078101602052620106f760405f20620106ef60ff825460201c1662010aa2565b9083620144ed565b62014a58565b9015620107075750565b6364d572b360e01b5f5260045260245ffd5b6001600160501b036200ad9b6003829301938285541662010b50565b906001600160501b036200cd32600362008aaa94019282845460501c1662010b50565b929061ffff600285015460a81c169362010775600184846200d87b565b6200c67057835f526012810160205260405f209064ffffffffff825460b81c16156201087957916001600160501b036001600160401b038593620107eb8560a09997620107e57f577ed0a8f65f2feb5a407660b0a3009c2ee155a17d0e34947c58ecdd6c8b37719c9a886200dae2565b62010719565b6201085383825460481c61ffff60401b76ffffffffffffffffffffffffffffff0000000000000000620108218a88851662010b92565b9216161716829069ffffffffffffffffffff60481b1969ffffffffffffffffffff60481b83549260481b169116179055565b5460481c16915416926040519485526020850152604084015260608301526080820152a1565b84866334a4033d60e11b5f5260045260245260445ffd5b9392919261ffff600286015460a81c1694620108ae8285856200d87b565b6201095b57845f526012810160205260405f209164ffffffffff835460b81c16156201091f5750916001600160501b036001600160401b038593620107eb8560a09997620107e57f577ed0a8f65f2feb5a407660b0a3009c2ee155a17d0e34947c58ecdd6c8b37719c9a886200dae2565b93505050506200bfed577f6948067a0ba575890268b9a7eaf592a5832287e4402201145ce0768a9d9533fc9160409182519182526020820152a1565b505050505050565b908060081c9060ff81168062010a44575b5060101c9060ff811680620109e2575b505080620109935750505f1990565b620109a090825462014aea565b60018101156200df9057806002915f5260018301602052620109c660405f205462014b10565b9060081b1791825f52016020526200dfe660405f205462014b10565b620109fc90835f526001850160205260405f205462014aea565b9060018201156201098457600292507effffffffffffffffffffffffffffffffffffffffffffffffffffffffffff00161791825f52016020526200dfe660405f205462014b10565b62010a5e90835f526002850160205260405f205462014aea565b600181011562010974579250905060ff19161790565b62010a7f81620083e2565b6002811490811562010a8f575090565b6003915062010a9e81620083e2565b1490565b62010aad81620083e2565b801590811562010a8f575090565b919082811162010afc57808303926001600160501b03841162010adc575050565b63733cc1d960e11b5f526004526024526001600160501b0360445260645ffd5b9050637509da4360e11b5f5260045260245260445ffd5b919082811162010afc578083039264ffffffffff841162010b32575050565b63733cc1d960e11b5f5260045260245264ffffffffff60445260645ffd5b919062010b5e818462009239565b926001600160501b03841162010b72575050565b632242001360e21b5f526004526024526001600160501b0360445260645ffd5b919062010ba0818462009239565b926001600160401b03841162010bb4575050565b632242001360e21b5f526004526024526001600160401b0360445260645ffd5b919062010be2818462009239565b9264ffffffffff841162010bf4575050565b632242001360e21b5f5260045260245264ffffffffff60445260645ffd5b91825461ffff63ffffffff8260601c169160a01c16905f9381421162010cdf575b8462010c4157505050909150565b62010ca3576200d8fc61ffff60027fa8ea47e93f284c6600be84b692d51af848f0cc9115e2c7d7d4048983348f9b2d959697015460a81c16926040519384934291859094939260609261ffff6080840197168352602083015260408201520152565b600285015460405163a8ea47e960e01b815260a89190911c61ffff16600482015260248101919091524260448201526064810191909152608490fd5b93508162010cee824262008cc5565b119362010c33565b91905f926101808201358015158062010f84575b62010f3a575060408201356007811015620041b8576006810362010dd0575062010d3983606084013562014caa565b62010dca578260808301358062010da6575b50905060a08201358062010d88575b505060c00135908162010d70575b505050600190565b62010d7b9162014c44565b620089fe57808062010d68565b9062010d94916201342b565b62010da157815f62010d5a565b505090565b63ffffffff600962010dbc94015416906200b312565b62010da1575f828162010d4b565b50505090565b6005810362010e285750506101a001351562010ded575050600190565b62010e19577f1fccd51f56ecc3a71d5e32721dbf2bb0690bf050c6147a84fd5f83717d8c5d225f80a190565b631fccd51f60e01b5f5260045ffd5b60040362010e4c575090606062010e4192013562014caa565b620089fe5750600190565b8263ffffffff600962010e679301541660808401356200b312565b62010da15762010e7c8260a08301356201342b565b62010da15762010e90610100820162008d6a565b158062010f23575b62010f08575b6101c001359061ffff821162010eb657505050600190565b62010ef05760407f95d41f3f44becfa47a91cf04138709af8e760c9060dcf6091505be37dce1418891815190815261ffff6020820152a190565b6395d41f3f60e01b5f5260045261ffff60245260445ffd5b62010f188260c083013562014c44565b1562010e9e57505090565b5062010f33610120820162008d6a565b1562010e98565b9350505062010f725760207f9f38a7d29e6c9e707bfe5fee47b29748083dc31546de0135d48ed99db5e190f091604051908152a15f90565b634f9c53e960e11b5f5260045260245ffd5b5043811062010d0a565b9192835f526010830160205260405f209463ffffffff86541615620110445762010fc39063ffffffff87541683878662014d17565b1562010fd0575050505050565b62011028846009620110206060976201100c867fe9805f82cb3729e97b234bb6bb4f90ea971e2c274201ff71818ebde153e1b0a69b8962014d99565b9790965f5260d560205260405f2062010333565b9501620106c5565b60405192835260208301526040820152a15f808080806200c670565b925050925062011080577f69b92a906c4fe940cd3de572076c4a5181ddced80218575cc4959b1d8f6a6e3f9160409182519182526020820152a1565b9063069b92a960e41b5f5260045260245260445ffd5b9492909391604051620110a9816200892f565b5f81525f6020820152809561ffff600289015460a81c16606084013590815f5260108a0160205260405f209363ffffffff85541615620111a257508354620110fb8863ffffffff831689868662014d17565b620111955760ff620111119160201c1662010a74565b6201112557505062008aaa95969762014f12565b94985094925050509392936201117a576200b0fa7fe03d6e5b9ada2bee571a0faed84b4da12ba5afc5c10f1c29d8fbbb6dcd7519d8939495604051938493846040919493926060820195825260208201520152565b84925063e03d6e5b60e01b5f5260045260245260445260645ffd5b5050505050505050915090565b985096985094935050505062011080577f69b92a906c4fe940cd3de572076c4a5181ddced80218575cc4959b1d8f6a6e3f9160409182519182526020820152a190565b949391929060405193620111f9856200892f565b5f85525f6020860152846040820135956007871015620041b8576201121e87620083e2565b60a0830135916201122f8862010a74565b62011436575b506101208301620112468162008d6a565b801562011420575b6201134857506201125f8762010a74565b62011329575b5060405162011274816200892f565b5f81525f602082015297600981019163ffffffff835416966201129d6080860135988962008cc5565b968298620112ae60e0880162008d6a565b15620112f9575b50505086620112cb575b50505050505050505090565b620112df995088620112ee575b5062017745565b5f8080808080808080620112bf565b861497505f620112d8565b6201131f9399506101c0870135908b8b6101408a0135926101608b0135928c8a62017708565b955f8080620112b5565b620113378883868c62015816565b620112655797505050505050505090565b95839850620113819199949561010093986101c062011389960135908b8b610140820135926080610160840135930135908c8c62017708565b960162008d6a565b8062011416575b620113f0575050620113a29062008d6a565b80620113e6575b620113b357505090565b7f59468f520017226c0116472def96f905dbeff518444091b355de591a2161cdbe9160409182519182526020820152a190565b50811515620113a9565b9061ffff60028693015460a81c1663578f7fed60e01b5f5260045260245260445260645ffd5b5084151562011390565b5062011430610100850162008d6a565b6201124e565b845f5260128a0160205260405f209064ffffffffff825460b81c161515806201155b575b620114cc57505460b81c64ffffffffff1680831115620112355797955097509450505050620114b6577f604559a5e01ca154dad1c02a9ef408530f8fa41f3506e6a57f7d2ac727e148229160409182519182526020820152a190565b9063604559a560e01b5f5260045260245260445ffd5b99509697955050505050506201152a577f189a4ff828fb1a93c81a2248c39ac499b67bf632ade3d5f89935821e8d1ec9989160ff60409254831c1690620115168351809362008717565b6201152181620083e2565b6020820152a190565b5463031349ff60e31b5f5260401c60ff16600281101562004b0e576004526201155381620083e2565b60245260445ffd5b506201156f8960ff845460401c16620157f6565b6201145a565b803b15620115d7576001600160a01b03166001600160a01b03197f360894a13ba1a3210667c828492db98dca3e2076cc3735a920a3ca505d382bbc5416177f360894a13ba1a3210667c828492db98dca3e2076cc3735a920a3ca505d382bbc55565b60405162461bcd60e51b815260206004820152602d60248201527f455243313936373a206e657720696d706c656d656e746174696f6e206973206e60448201527f6f74206120636f6e7472616374000000000000000000000000000000000000006064820152608490fd5b929162011680906201167962011670620116646201168d996002969962011e43565b91909343908962011f49565b50509562008c7f565b936200cd6e565b92015460f81c9262015a06565b9062008aaa8262011fae565b811562009203570790565b9493620116c490620116be620116cb949998935f6200c75a565b6200c75a565b9362009239565b600603906006821162003ef857620116e7620116ee926200a5e8565b9062008c7f565b9262011707620116ff85846200cd92565b948362011699565b62011741575b505015620117305762011720916200c72c565b5f81126201172b5790565b505f90565b6201173b916200c75a565b62011720565b808062011795575b1562011767575050906201175d906200c70f565b905b5f806201170d565b1590816201178a575b50156201175f579062011783906200c748565b906201175f565b5f9150125f62011770565b505f821362011749565b9594620116be620117b7949893620116c4936200c75a565b600603906006821162003ef857620116e7620117d3926200a5e8565b90620117ec620117e483836200cd92565b928262011699565b62011805575b509015620117305762011720916200c72c565b5f1215620118225762011818906200c70f565b905b905f620117f2565b906201181a565b9291949395620118456201184c9297620116be5f995f6200c75a565b9462009239565b600603906006821162003ef857620116e762011868926200a5e8565b91620118816201187984836200cd92565b938262011699565b620118b9575b5015620118a75762011899916200c72c565b905b8082126200dbb9575090565b620118b2916200c75a565b906201189b565b93505f809412620118cc575b5f62011887565b90620118d8906200c748565b90620118c5565b90929496939196620118f55f8883878662015a9c565b9794809a939a9992949997919762011a9d57508a809c9d505f5260d560205260405f209861ffff600283015460a81c169d620119358c85549f85620121b6565b620119418c8c6200ba83565b60ff845460401c1695600287101562004b0e578d928762011a8b57620119688386620160e1565b1562011a6a57505060116201197e92016201409e565b6201198d8c60058a01620141aa565b5496546001600160501b0316986040519b8c5260208c0152151560408b015260608a01620119bb9162008717565b8760981c63ffffffff1660808a015260a089015260c088015260e08701526101008601528360481c6001600160401b03166101208601528060481c6001600160401b03166101408601528360b81c64ffffffffff1661016086015260b81c64ffffffffff166101808501526101a08401526101c083015260881c61ffff166101e08201526102007fc93231d3a87dd7f9a93be23749816504b65b558dee3bb33ca82eab4867669faf91a1600190565b62011a85935062011a7e919250846201777b565b82620161a2565b6201198d565b62011a9783866201609b565b62011968565b9850995050505050505050600a9193501462011aba575050505f90565b6084935060036001600160501b039101546040519363063c641b60e41b85526004850152818116602485015260501c1660448301526064820152fd5b9197949093929596620118f5908883878662015a9c565b90805f5260d560205260405f2092825f526003840160205260405f20549061ffff8260401c16801562011c705762011b48819695966200948b565b9363ffffffff5f94169660028701975b8015158062011c66575b1562011ba15761ffff9562011b8662011b7b8262009323565b978316918962008d78565b525f528760205263ffffffff60405f205460201c1662011b58565b509350939195509362011bb4836200abc2565b600981019260105f9201915b87811062011bd2575050505050505050565b807fb52688454dfd5028443d05c10bc78a9ca263b7c7645d2e8bfef428d0e8b3b04762011c026001938562008d78565b51805f528560205262011c1960405f208a6201021b565b62011c26818a8962010333565b9062011c33818a620106c5565b62011c5c6040519283928d8d859094939260609260808301968352602083015260408201520152565b0390a10162011bc0565b5083861062011b62565b509350505050565b90929192805f5260d560205260405f2092825f526003840160205260405f20549161ffff8360401c1690811562011e065762011cb7829796976200948b565b9463ffffffff5f95169760028101985b8015158062011dfc575b1562011d105761ffff9662011cf562011cea8262009323565b988316918a62008d78565b525f528860205263ffffffff60405f205460201c1662011cc7565b5092969195939750935062011d25846200abc2565b600981019360105f9201915b88811062011d4457505050505050505050565b807fb52688454dfd5028443d05c10bc78a9ca263b7c7645d2e8bfef428d0e8b3b047898962011dde8a8a62011dbb8b62011db48c8762011d8760019d8f62008d78565b519586948593845f5260205260405f209080155f1462011de8575062011dae90836201021b565b62010333565b93620106c5565b604051948594859094939260609260808301968352602083015260408201520152565b0390a10162011d31565b62011df4918462014d99565b505062010333565b5084871062011cd1565b50509350505050565b6002015464ffffffffff8082169160281c169081810362011e2e575050565b6395626a2760e01b5f5260045260245260445ffd5b90915f5f9280155f1462011eca575050620f4240925b8062011e685750620f42409150565b6001810362011e7a5750620186a09150565b6002810362011e8b57506127109150565b6003810362011e9c57506103e89150565b6004810362011eac575060649150565b6005810362011ebc5750600a9150565b60060362008aaa5760019150565b6001810362011ee1575050620186a0925b62011e59565b6002810362011ef65750506127109262011e59565b6003810362011f0b5750506103e89262011e59565b6004810362011f1f57505060649262011e59565b6005810362011f33575050600a9262011e59565b9093906005190162011edb576001935062011e59565b9091925f9280851062011f88579362011f6983949562011f74946200dcbd565b93909184956200dcbd565b80940362011f80575050565b0360050b9350565b849061ffff600285015460a81c16635d00a16960e01b5f5260045260245260445260645ffd5b5f81121562011fe5576001600160401b0362011fca826200cd5d565b1162011fd35750565b635a13746d60e01b5f5260045260245ffd5b6001600160401b038162011fca565b906001600160a01b036201205492165f80604051936201201660408662008967565b602085527f5361666545524332303a206c6f772d6c6576656c2063616c6c206661696c6564602086015260208151910182855af1620062fb62015dc7565b8051908115918215620120d7575b5050156201206c57565b60405162461bcd60e51b815260206004820152602a60248201527f5361666545524332303a204552433230206f7065726174696f6e20646964206e60448201527f6f742073756363656564000000000000000000000000000000000000000000006064820152608490fd5b8192509060209181010312620041b857602001518015158103620041b8575f8062012062565b9190926201210c818362009239565b91600683116201213f5750506006036006811162003ef857620089fe92620121386200453c926200a5e8565b9262008c7f565b632f0a93cd60e21b5f5260045260245260445ffd5b906001821015806201216b575b156200dbb9575090565b5080821062012161565b9060648202918083046064149015171562003ef857620089fe916201406b565b906001600160501b03809116911601906001600160501b03821162003ef857565b6003810180546001600160501b0381169594939190868511620121e35750505062008aaa9293506200ad7f565b6001600160501b0390605095929493951c166001600160501b0362012209828962012195565b168211620122825750600260609493926201224a7f24600c3aa8cc38cbdf9648ea5ebfea6227de49651807d1a2a58fe70ea24953cc979861ffff9462008cc5565b845469ffffffffffffffffffff19169094556201226884826200cd0f565b015460a81c169160405192835260208301526040820152a1565b6002830154604051635b80bdb960e11b815260a89190911c61ffff1660048201526001600160501b0380891660248301529091166044820152606481019190915280608481010390fd5b9190916001600160401b0383116200b3e3576001600160501b0362008aaa929361ffff60401b76ffffffffffffffffffffffffffffff0000000000000000845460481c1616171669ffffffffffffffffffff60481b1969ffffffffffffffffffff60481b83549260481b169116179055565b60f0018060f01162003ef8576001901b90565b81601f82011215620041b8578051906201236b8262008989565b926201237b604051948562008967565b82845260208383010111620041b857815f9260208093018386015e8301015290565b90602082820312620041b85781516001600160401b038111620041b857620089fe920162012351565b9091620123e0620089fe93604084526040840190620083a1565b916020818403910152620083a1565b519063ffffffff82168203620041b857565b519077ffffffffffffffffffffffffffffffffffffffffffffffff82168203620041b857565b51908160170b8203620041b857565b9081610120910312620041b857620124e9610100604051926201245984620088a0565b805184526201246b60208201620123ef565b60208501526201247e60408201620123ef565b6040850152620124916060820162012401565b6060850152620124a46080820162012401565b6080850152620124b760a08201620123ef565b60a0850152620124ca60c0820162012427565b60c0850152620124dd60e0820162012427565b60e08501520162012427565b61010082015290565b91905f905f5f90845185019160808660208501940312620041b85782603f87011215620041b8576060926040516201252b858262008967565b6080880190828211620041b85760208901905b828210620129f657505051906001600160401b038211620041b8576020620125699289010162012351565b80511562008c415761ff0080602083015160f01c16169080516001101562008c41576021015160f81c17600381036201299a5750602095604051620125af888262008967565b5f8152891562012971575f90620125eb926001600160a01b0360ca54169083604051809681958294637bf41d7760e11b845260048401620123c6565b03925af190811562012966575f916201293f575b50935b84516201261788808801928801018262012436565b5160068a015490818103620128d057505063ffffffff6040620126408a89518a01018462012436565b015116974289116201285f5789549563ffffffff87821c16808b1115620127f857505060c0620126768289518a01018462012436565b0151968760170b5f81126201279a575063ffffffff9260a092826201269f935101019062012436565b01511690620126b661ffff8660a01c164262009239565b80831062012724575050505050620127129177ffffffffffffffffffffffffffffffffffffffffffffffff620126f660ff620126fe9460b01c1662015fae565b9116620091f8565b9463ffffffff60098596015416866200b312565b6201271e575050600192565b93909150565b94509450949550969097955062012780576040805192835263ffffffff9093166020830152918101919091527f7f93aebf261535cb0331009511ba8896f348b68b1e0d448196c002a6bfcbdb7a9080606081015b0390a1929190565b9250637f93aebf60e01b5f5260045260245260445260645ffd5b9750509450509495509690979550620127e157916040917f4d8c851d919cf102ec02f76a35ca2f0b9e8ca3e9cd36ecc7128c03c7048e247a938351928352820152a1929190565b5090634d8c851d60e01b5f5260045260245260445ffd5b959c9a50979895509299919550506201284557907fac23cd4bf85c84f3aa74c4752cbc1abc6ca3871a6e6b676f56bd64f992b700ae949392916040519384528301526040820152a1929190565b508263ac23cd4b60e01b5f5260045260245260445260645ffd5b505094959350969150969450620128b6576040805192835263ffffffff909116602083015242908201527f560f753ea20ff5d3b404893dc8502570dec81bbc02626784a8f3d635f9c21b2990806060810162012778565b90632b07ba9f60e11b5f526004526024524260445260645ffd5b955096975050935096909795506201292557604080519283526020830193909352918101919091527fe9ab5ccfbd8b803e0bd519630f62d1a32b22e517a5bfcd78e8c860b36c98386b90806060810162012778565b925063e9ab5ccf60e01b5f5260045260245260445260645ffd5b6201295f91503d805f833e62012956818362008967565b8101906201239d565b5f620125ff565b6040513d5f823e3d90fd5b6201297d918662015dfb565b90156201298b579362012602565b50965096945050509050929190565b965050505093915050620129e0577f09c9ec7d8ebb7546d7aa7fae159f14736cab80420326900e4b1ce60942f331d89160409182519182526020820152a15f905f905f90565b906309c9ec7d60e01b5f5260045260245260445ffd5b81518152602091820191016201253e565b9262012a3762012a5c9362012a30869462012a298162012a298860646200c75a565b946200c75a565b906200cd6e565b62012a4382826200cd92565b915f8212918262012ab8575b505062012aad576200c72c565b8160648293125f1462012a895713158062012a7d575b620089fe9062008c14565b50606481131562012a72565b620089fe9160641315908162012aa1575b5062008c14565b90508213155f62012a9a565b6200e566906200c748565b62012ac4925062011699565b15155f8062012a4f565b9162012a3760649262012a3062012af19562012a298162012a298860016200c75a565b80600113158062012a7d57620089fe9062008c14565b9061a76762012b1d61217b918406809462008cc5565b92049061217b82029180830461217b148115171562003ef857620089fe90928462009239565b6001820180921162003ef857811c908162012b5f5750505f1990565b62004542620089fe925b905f916fffffffffffffffffffffffffffffffff81161562012c77575b6001600160401b0381161562012c60575b63ffffffff81161562012c49575b61ffff81161562012c32575b60ff81161562012c1b575b600f81161562012c04575b600381161562012bed575b6001161562012bdd57565b906001810180911162003ef85790565b916002810180911162003ef8579160021c62012bd2565b916004810180911162003ef8579160041c62012bc7565b916008810180911162003ef8579160081c62012bbc565b916010810180911162003ef8579160101c62012bb1565b916020810180911162003ef8579160201c62012ba5565b916040810180911162003ef8579160401c62012b97565b60809250821c62012b86565b916080936200baf491979695929761ffff60a08601991685526020850152604084019062008717565b92939091935f5f93549164ffffffffff8360b81c1681115f146201305b575064ffffffffff8260b81c16915b8296865462012cff60ff8260b81c1660ff8360b01c168763ffffffff8760981c16620120fd565b9062012d1960028a01549261ffff8460c81c169062012175565b9862012d2688826200c656565b96871562013044575062012d589060ff8360b81c16908c60ff8560b01c16918860e01c9060ff8a60401c169062011642565b9262012d7c8b6001600160401b038760481c1664ffffffffff8860b81c1662016033565b929050600260ff8760401c16101562004b0e578b9a8660401c60ff16159c8d91878460b81c60ff16928560b01c60ff1692888c60981c63ffffffff169162012dc4976201179f565b998a1562012f86578c8062012f7c575b801562012f68575b62012ee15750808c868d60ff8062012e0a9660b81c169460b01c16928763ffffffff8c60981c169162011829565b97881562012e1e5750505050505050600195565b9b969798999a9b62012e95576040805160a89490941c61ffff168452602084019190915282015260989290921c63ffffffff1660608301526080820188905260a08201527f2e92846d5b5d5dd9cf60dd19064afe4a911e6751cdad455cb26a600db66e963c908060c081015b0390a1959493929190565b604051632e92846d60e01b815260a89390931c61ffff1660048401526024830152604482015260989290921c63ffffffff1660648301526084820188905260a48201528060c481010390fd5b999a9b9c979892505091925062012f37579162012e8a888760ff947f2822c66c89ce366f8d2961ecb44375cdaf6fd59a220e83b68f12498108778f849661ffff60405197889760401c169260a81c168662012c83565b60408051630a08b19b60e21b815293849362001992938b938a93901c60ff169160a81c61ffff166004870162012c83565b508c15801562012ddc57508a891062012ddc565b508a891162012dd4565b999a9b9c9798905062012ff8576040805160a89490941c61ffff168452602084019190915282015260989290921c63ffffffff1660608301526080820188905260a08201527f0df65f0bfef22299d2332a74323c24d136c79b82d668afc82cfe8dfb0d75a2f2908060c0810162012e8a565b604051630df65f0b60e01b815260a89390931c61ffff1660048401526024830152604482015260989290921c63ffffffff1660648301526084820188905260a48201528060c481010390fd5b5f9c8d9c50909a508b995089985095505050505050565b9162012cd8565b909291908215620130d457838110620130cc5762013093916200ee39915b858515620130c057620116e79162008cc5565b9015620130a65790620089fe9162009239565b80821115620130ba57620089fe9162008cc5565b50505f90565b90620116e79162008cc5565b505050505f90565b808410620130cc5762013093916200ee399162013080565b956201317691949295965f958054976201311e866001600160401b038b60481c1664ffffffffff8c60b81c1662016033565b9690926201312c886200cd5d565b9b6201316c60ff8d60401c169c8d858d8a54938b60ff808760b81c169660b01c169461ffff8360881c169363ffffffff8460981c169360e01c926200c4b5565b9991909a6200c72c565b9b5f8d12620133bd57506201318b8c6200cd5d565b8c60018801548060401c62ffffff16620131a690836200cd6e565b5f610c8052620186a09005610c8052610c80515060581c62ffffff16620131cd916200cd6e565b620186a090059a8b9d8c610c8051620131e6916200c72c565b620131f1916200c75a565b9b871580620133b5575b62013391575b5062013227600389016001600160501b036200cd32610c805182845460501c1662017808565b620132328262016054565b915f8112156201330f5750506201324c91508487620121b6565b825f5260d560205260405f2093620132658c8662016064565b996201327e60c954916001600160701b03831662017808565b906001600160701b0319161760c95560ff825460401c16600281101562004b0e57620132fd57620132b08387620160e1565b15620132e157505061ffff600284620132d3600594601162008aaa98016201409e565b015460a81c169101620141aa565b9150915062008aaa9250620132f78a826201610c565b620161a2565b6201330983876201609b565b620132b0565b8262013320575b505050506201324c565b7fbee5185c13c42cac0d82b6c115c77d5e8dc2b2888c013d169e068e634f57f58e936201335060e0948b62010719565b61ffff60028b015460a81c16926040519384528860208501526040840152866060840152151560808301525f60a083015260c0820152a15f80808062013316565b909d50620133a481620133ab936200c72c565b9e6200c72c565b9c5f9c5f62013201565b5083620131fb565b848d8c866200ffed60c49561ffff60028e015460a81c169560405196630c62a44b60e11b885260048801526024870152604486019062008717565b9260a094919796959260c0850198855260208501526201341881620083e2565b6040840152606083015260808201520152565b6001811092918315620134a0575b8362013443575050565b6201348057507f36bcd027a371ec05acd4f563a155f51be204511b55fb95d0451703d02e3ca185604080516001815264ffffffffff6020820152a1565b630793b30360e11b5f52600452600160245264ffffffffff60445260645ffd5b92508064ffffffffff109262013439565b6106a0819052610660919091526107e08390525f610760526103e892620134db916009016201706a565b9061072052610840525f610740525f61074052806107a05260026106a05101546106c0525b8015158062014030575b1562013fe8576106605115158062013ff1575b62013fe857505f6106e0525f610780525f610700525f6106e0526201354c6107205160096106a051016200c52f565b50610680526107a05161078052610700525b6107805115158062013fdb575b8062013fce575b1562013ee757610680515f5260106106a0510160205260405f20805463ffffffff81165f5260d560205260405f206108005260ff610800515460a01c16620135ba81620083e2565b156201366557506201365c5f620136156001828561ffff7f86ad99b48b2565c9720e33335db58e8c7468d6af03a5e6238b20d4a562f5b8b4975460c81c166106805261ffff6106c05160a81c169060096106a0510162019600565b6040969492969591955196879661ffff6106c05160a81c168893909796959260c0959260e08601998652602086015260408501526060840152608083015260a08201520152565b0390a16201355e565b6201367963ffffffff8260781c16620101dd565b15620136d457506201365c5f620136156001828561ffff7fb95e250f9f017dcb1bb1806916771df0c04a269e5f46d5db7519382a0f7bb477975460c81c166106805261ffff6106c05160a81c169060096106a0510162019600565b63ffffffff81166201373557506201365c5f620136156001828561ffff7f52d5291dc7b477ebda965d0693c67e6ccec5b3667b530305685465384756d3fd975460c81c166106805261ffff6106c05160a81c169060096106a0510162019600565b5f6201374760ff8360201c1662010a74565b62013e8f575b15620137a857506201365c5f620136156001828561ffff7fae6369c6e529c86dd87431d10e0db70657c834daa75356e1efd7c0ac79f934b7975460c81c166106805261ffff6106c05160a81c169060096106a0510162019600565b9064ffffffffff8260401c168061082052620137ca60ff8460201c1662010a74565b62013e54575b61078051811180156107c05262013e46576201388d815b60026106a051015490620138506201384264ffffffffff841664ffffffffff8560281c168082115f1462013e3e57505b60ff8560e01c169060ff8660d81c169064ffffffffff8760501c16908661ffff8960b81c166200dbd6565b61ffff8860981c1662012154565b9061ffff808860d81c169360881c1691610820519061084051906108405190610840519060ff8c60201c169063ffffffff8d166106a051620161df565b6109805192959390928691600619810162013cfd57506107c0511562013c8c57620138ca620138c0876108405162008c7f565b6106e05162009239565b6106e052620138dd866107805162008cc5565b610780525b620138f0610700516200a663565b610700526107c0511562013a10575050509161012093918593620139526201394b63ffffffff7ff5f5aef063f495816b6982c44c70c97c8fbec2fa24b73487e6542ce02143121499168461ffff6106c05160a81c1662014d99565b956200c72c565b9261ffff835460c81c1661068052620139a66201398561ffff8860a81c1661ffff6106c05160a81c166108005162010333565b936201399860ff825460201c1662010aa2565b9060096106a05101620144ed565b620139bf61ffff8760a81c1660096106a0510162014a58565b61ffff60405196816106c05160a81c16885263ffffffff8116602089015260a81c166040870152610840516060870152608086015260a085015260c084015260e0830152610100820152a16201355e565b909491955060ff845460201c165f5f9061ffff8a60a81c161562013c5e5761ffff8a60a81c166303ff00006106c05160981c16175f526002610800510160205260405f209283549063ffffffff82161562013c2657917ff5f5aef063f495816b6982c44c70c97c8fbec2fa24b73487e6542ce0214312149b999795939162013a9f6101209c9a98969462014426565b1562013baf575050508062013ac7836001600160501b0362013ad1945460901c169262018935565b610800516201448b565b5062013ae181610800516201899f565b936001600160501b036108005154168511945b9462013b03575b5050620139bf565b7f6d6191eb9e6651b10a6b278ab4d021e3c8b8810a0290234d29d74556915d5dcf919294508062013b5960015f64ffffffffff610140955460401c169361ffff6106c05160a81c169060096106a0510162019600565b97916040959195949394519561ffff6106c05160a81c1687526020870152604086015261084051606086015260808501528660a085015260c08401525f60e08401526101008301528a820152a1915f8062013afb565b859062013c1a62013c209394999561ffff6106c05160a81c165f526003610800510160205264ffffffffff62013bef858260405f209660681c1662010b13565b825471ffffffffff000000000000000000000000001916911660681b64ffffffffff60681b16179055565b6201444e565b62013af4565b8b61ffff63ffffffff60016108005101541691638d5bba0f60e01b5f52816106c05160a81c1660045260a81c1660245260445260645ffd5b63ffffffff6001610800510154166369bc91ef60e11b5f5261ffff6106c05160a81c1660045260245260445ffd5b945062013ca4620138c0610780516108405162008c7f565b6106e05262013ced64ffffffffff62013cc76107805182885460401c1662010b13565b86546cffffffffff00000000000000001916911660401b64ffffffffff60401b16178555565b61078051945f61078052620138e2565b975050505050909150600d831462013df8577f1c304023b27262393dcde9fe67af613bc45ee4f8c452b031dc393d074031157b926101809282549061ffff8260c81c16610680526107c0515f1462013de95761ffff90925b62013d7b60015f60ff8660201c1697856106c05160a81c169060096106a0510162019600565b95939692979160409991995199856106c05160a81c168b5260208b015260408a015262013da881620083e2565b606089015261084051608089015260a088015260d81c1660c086015260e08501526101008401525f610120840152610140830152610160820152a16201355e565b5061ffff610780519262013d55565b60846106a0515461ffff60405191631f466abb60e21b8352816106c05160a81c16600484015263ffffffff8160201c16602484015242604484015260a01c166064820152fd5b905062013817565b6201388d61078051620137e7565b63ffffffff83165f5260126106a0510160205264ffffffffff60405f205460b81c1681811062013e86575b50620137d0565b90505f62013e7f565b5063ffffffff81165f5260126106a0510160205260405f2064ffffffffff815460b81c1615151590811562013ec6575b506201374d565b62013ee0915060ff808460201c16915460401c16620157f6565b5f62013ebf565b610700516107805162013f016106e0516107605162009239565b61076052610780516107a0510362013fb8575b610700511562013f4b576107805115620135005762013f3d6107e05160096106a051016201706a565b610840526107205262013500565b9190507fb492fac0bb9e8c8d824bf2a4c19ec1efd3e98e987de34e127bc17eb2b5c0605e5f80a15b6107405162013f7e57565b6106a05161074051600191909101805467ffffffffffffffff191663ffffffff92909216919091174260201b63ffffffff60201b16179055565b6108405161074052610780516107a05262013f14565b5061070051151562013572565b506106805115156201356b565b91905062013f73565b506107e0518062014020575b806201351d57506107e0511580156201351d57506108405161066051116201351d565b5061084051610660511062013ffd565b506108405115156201350a565b5f908062014049575090565b5f1981019150811162003ef857620186a090046001810180911162003ef85790565b9081620140785750505f90565b5f19820191821162003ef8576201408f91620091f8565b6001810180911162003ef85790565b906001820191815f528260205260405f2064ffffffffff815460b81c16620140c65750505050565b549063ffffffff808360201c16921663ffffffff82541684145f146201418e57620140f28183620170b7565b806201416f575b815460201c63ffffffff168403620141525750816201411891620170db565b8062014136575b505b5f526020525f60408120555f80808062009875565b5f528160205260405f2063ffffffff1981541690555f6201411f565b620141699291505f528360205260405f20620170db565b62014121565b805f528460205260405f2063ffffffff60201b198154169055620140f9565b825f5284602052620141a48160405f20620170b7565b620140f9565b9060fc8111620141c0576001901b198154169055565b6101fc81116201421557620141d760019162008cb5565b1b19600182019081541680915515620141ed5750565b7fdfffffffffffffffffffffffffffffffffffffffffffffffffffffffffffffff8154169055565b6102fc81116201426a576201422c60019162008ca4565b1b19600282019081541680915515620142425750565b7fbfffffffffffffffffffffffffffffffffffffffffffffffffffffffffffffff8154169055565b6103fc81111562014279575050565b6201428660019162008c93565b1b196003820190815416809155156201429c5750565b6001600160ff1b038154169055565b90620142cd60c954926c1fffffffffffffffffffffffff8460701c1662010abb565b917fffffffffffe0000000000000000000000000ffffffffffffffffffffffffffff8360701b91161760c955565b906303fcffff8082116201435457507fffffffffffff00000000ffffffffffffffffffffffffffffffffffffffffffff79ffffffff0000000000000000000000000000000000000000000083549260b01b169116179055565b906395d41f3f60e01b5f5260045260245260445ffd5b906303fcffff808211620143545750815463ffffffff60401b191660409190911b63ffffffff60401b16179055565b906303fcffff8082116201435457507fffff00000000ffffffffffffffffffffffffffffffffffffffffffffffffffff7dffffffff000000000000000000000000000000000000000000000000000083549260d01b169116179055565b906303fcffff808211620143545750815467ffffffff00000000191660209190911b63ffffffff60201b16179055565b6201443181620083e2565b80159081156201443f575090565b6001915062010a9e81620083e2565b64ffffffffff6201446a62008aaa9382845460581c1662010b13565b825464ffffffffff60581b1916911660581b64ffffffffff60581b16179055565b805460501c6001600160501b0316929180841115620144e557808403935b6001600160501b03851162010adc575050805469ffffffffffffffffffff60501b1916605084901b69ffffffffffffffffffff60501b16179055565b5f93620144a9565b9080548060281c9062ffffff82169485926201450a84876200c52f565b9061ffff8560a81c16809114918262014a4d575b505062014878575b50505050805461ffff8160b81c1690811580809162014868575b156201462d57505050506006906201455d60078406809462008cc5565b5f520160205260405f2090600160ff1983541617825580155f146201458b5750805464ffffffff0019169055565b60018103620145a75750805468ffffffff000000000019169055565b60028103620145c7575080546cffffffff00000000000000000019169055565b60038103620145eb5750805470ffffffff0000000000000000000000000019169055565b60048103620146055750805463ffffffff60881b19169055565b6005036201461d57805463ffffffff60a81b19169055565b805463ffffffff60c81b19169055565b92949215620147b65750508261ffff91826007955460c81c1662014655868306809362008cc5565b5f526006850160205260405f2091600160ff1984541617835580155f14620146ac5750815462ffff00191660089190911b62ffff00161790555b5460c81c165f520160205260405f2061ffff60b81b198154169055565b60018103620146da5750815466ffff0000000000191660289190911b66ffff0000000000161790556201468f565b6002810362014710575081546affff000000000000000000191660489190911b6affff000000000000000000161790556201468f565b6003810362014744575081546effff00000000000000000000000000191660689190911b61ffff60681b161790556201468f565b600481036201476e5750815461ffff60881b191660889190911b61ffff60881b161790556201468f565b6005036201479657815461ffff60a81b191660a89190911b61ffff60a81b161790556201468f565b815461ffff60c81b191660c89190911b61ffff60c81b161790556201468f565b60c81c61ffff1680620147fc57505082620147df61ffff92836007965460b81c16908562017130565b5460b81c165f520160205260405f2061ffff60c81b198154169055565b62008aaa949192506201483790600761ffff9501935f528360205260405f209061ffff60c81b1961ffff60c81b83549260c81b169116179055565b5490828260c81c165f5260205260b81c1660405f209061ffff60b81b1961ffff60b81b83549260b81b169116179055565b5061ffff8260c81c161562014540565b600386019260058701918160301c9261ffff841691825f5281602052600160ff60405f205492161b1916915f526020528060405f205515620149ff575b5050156201496257835462ffffff8160781c1683145f146201492b575090620148de9162010963565b5f19810362014919575081547fffffffffffffffffffffff000000000000ffffffffffffffffffffffffffffff1682555b825f808062014526565b62014925908362017b8c565b6201490f565b60901c62ffffff16821462014943575b50506201490f565b6201495a9162014953916200df5d565b8362017b3b565b825f6201493b565b835462ffffff8160481c1683145f14620149d1575090620149839162010963565b5f1981148015620149be575b15620149b2575081546effffffffffff000000000000000000191682556201490f565b62014925908362017b06565b5062ffffff835460781c1681146201498f565b60601c62ffffff168214620149e85750506201490f565b6201495a91620149f8916200df5d565b8362017ab2565b60ff9060381c16906004870190825f5281602052600160ff60405f205492161b191690825f526020528060405f20551562014a3c575b80620148b5565b6001901b1982541682555f62014a35565b1490505f806201451e565b5f828152600782016020526040902063ffffffff60781b9055811562014adb5762014aab8262008aaa9360081c90815f5260028401602052600160ff60405f2092161b1981541690556001830162017bcd565b62014abe61ffff825460201c1662010322565b65ffff0000000082549160201b169065ffff000000001916179055565b6302f9530760e61b5f5260045ffd5b9061010003610100811162003ef8575f19901c168062014b0a57505f1990565b620089fe905b905f916fffffffffffffffffffffffffffffffff811162014c06575b6001600160401b03811162014bef575b63ffffffff811162014bd8575b61ffff811162014bc1575b60ff811162014baa575b600f811162014b93575b6003811162014b7c575b60011062012bdd57565b916002810180911162003ef8579160021c62014b72565b916004810180911162003ef8579160041c62014b68565b916008810180911162003ef8579160081c62014b5e565b916010810180911162003ef8579160101c62014b54565b916020810180911162003ef8579160201c62014b49565b916040810180911162003ef8579160401c62014b3c565b60809250821c62014b2c565b91908062014c205750501590565b80620186a092938181115f1462014c3b5703925b0291021090565b90039262014c34565b91909162014c5281620101dd565b928362014c5d575050565b62014c945760407f8ecb05e775f8b004d0796e497a6b28cfe97a6f8acd115327138350b5a08347ed918151908152436020820152a1565b638ecb05e760e01b5f526004524360245260445ffd5b61ffff811192918362014cbb575050565b62014cfb5760607fe99e76b7075a2c30a8d971cb3f247cba3e1995e4d12ff31053b190b2f71dcc7b916040519081525f602082015261ffff6040820152a1565b63e99e76b760e01b5f526004525f60245261ffff60445260645ffd5b91909294935f95820362014d2b5750505050565b90919293945062014d7f57604080519283526020830193909352918101919091527f0ff65eacbb5b956c92957d3a4c76260d051566a34945c41b4e621bc895918ee790606090a16001905f80808062009875565b92506303fd97ab60e21b5f5260045260245260445260645ffd5b9291905f93825f5260d560205260405f2092825461ffff8160681c16908115801562014dd4575b5050505050506001600160501b0390541690565b6127108394959699930293840461271014171562003ef85760c95460701c6c1fffffffffffffffffffffffff1680841162014e9d57505050917e106621f9f74b437219c51c8fded1d9faa8056f77fd0f3631d2ab8967a4d75d9162014e8d8462014e476001600160501b039796620142ab565b9062014e5481886200ba83565b61ffff819a5460a81c16604051958695869160809361ffff91979695929760a08501988552602085015216604083015260608201520152565b0390a15b905f8080808062014dc0565b62014f099192985061ffff937ff662aa6b6412ffe2a4e433dace098e96260a08fdaefdb023773e41f999b7c4ec956001600160501b03989760405196879660a81c1691869160809361ffff91979695929760a08501988552602085015216604083015260608201520152565b0390a162014e91565b94939294610c0052610b2052610b0052610b80525f5f610ba0525f610ba0526002610c00510154610c4052610b005154610c605263ffffffff610c605160781c16610ae05260c08301359062014f6b610ae051620101dd565b15620157d957506001610ba05280156201572957610ba05190610ae0525b5f9264ffffffffff610c605160401c16610ac05260a0810135801515806201571b575b620156e7575b5063ffffffff6009610c005101541662ffffff610c605160281c16610b4052610b4051155f14620156cf5760805f925b83610c80520135918215159081620156c3575b506201569a575b5050156200abbe576201504a60ff610c405160e01c1660ff610c405160d81c1664ffffffffff610c405160501c1664ffffffffff610c405116610ac05161ffff610c405160b81c166200dbd6565b91801562015686575b80610c20521562015670575b6201507360ff610c605160201c1662010aa2565b610be0525f91610c205162015396575b5050610ba05162015377575b620150c262ffffff610b405116610b00519067ffffff000000000082549160281b169067ffffff00000000001916179055565b620150f764ffffffffff610ac05116610b00519064ffffffffff60401b82549160401b169064ffffffffff60401b1916179055565b6201514163ffffffff610ae05116610b0051907fffffffffffffffffffffffffff00000000ffffffffffffffffffffffffffffff63ffffffff60781b83549260781b169116179055565b610ba05162015330575b610c205115620152f55760ff610b00515460201c1661ffff610c605160a81c1615620152c75761ffff610c605160a81c166303ff0000610c405160981c16175f526002610b20510160205260405f209081549063ffffffff8216156201528b57620151b69062014426565b156201526057826201520c7fbf5d27a683d1ce858f6095fde2cc9837ba595c533e97576c5ff3de4376ccbf3c9460c094620152056001600160501b03620152169660901c16610b20516201448b565b5062018935565b610b20516201899f565b61ffff610b00515460a81c16906001600160501b03610b2051541690604051928352610c80516020840152610ac0516040840152610ae0516060840152608083015260a0820152a1565b63086415b760e01b5f5261ffff610c405160a81c1660045261ffff610c605160a81c1660245260445ffd5b63ffffffff6001610b2051015416638d5bba0f60e01b5f5261ffff610c405160a81c1660045261ffff610c605160a81c1660245260445260645ffd5b63ffffffff6001610b20510154166369bc91ef60e11b5f5261ffff610c405160a81c1660045260245260445ffd5b507fbf5d27a683d1ce858f6095fde2cc9837ba595c533e97576c5ff3de4376ccbf3c60c06001600160501b03610b20515460501c1662015216565b610b005180547fffffffffff00000000ffffffffffffffffffffffffffffffffffffffffffffff168155610be051610c0051620153719290600901620185b2565b6201514b565b62015390610be051610b00516009610c005101620144ed565b6201508f565b620153e2919250620153b39061ffff610c605160981c1662012154565b61ffff610c405160881c1690610ac05190610c80519060ff610c605160201c1690610b8051610c0051620172c1565b919593949092610b6052610bc052509280936201542a83610b605186610bc051610ac051610b4051610c8051610be05160ff610c605160201c16610b8051610c0051620174d6565b156200c6705761ffff610c605160a81c166303ff0000610c405160981c16175f526002610b20510160205260405f205463ffffffff8116156201563e576001600160501b039060901c1691610b205154916001600160501b038360501c1693808510156201562a575b505f93806001600160501b038516116201560b575b5080156201560357620154bb9162009239565b925b8383106201558f575b5050106200abbe57600a610bc05114620154e2575b8062015083565b6101207fb971bdbd8f44fbf3ba501ee287c2533eb61b09097d638c664566aac00bbb3e65916003610c00510154906001600160501b036040519261ffff610c405160a81c168452610b805160208501526201554660ff610c605160201c16620083e2565b60ff610c605160201c166040850152610c80516060850152610ac051608085015281811660a085015260501c1660c083015260e0820152610b6051610100820152a15f620154db565b620155e05760408051848152602081018490526001600160501b0392909216908201527fb853e5846ad52919c794f709695100094681c458cd1864d5217c6c897b6858b190606090a15f80620154c6565b906001600160501b0392632e14f96160e21b5f526004526024521660445260645ffd5b5092620154bd565b620156229194506001600160501b03841662008cc5565b925f620154a8565b62015636919462008cc5565b925f62015493565b638d5bba0f60e01b5f5261ffff610c405160a81c1660045261ffff610c605160a81c16602452610b805160445260645ffd5b61ffff610c605160981c1615610c20526201505f565b5061ffff610c605160981c16821062015053565b6001610ba08190529450849250620156b3908262008cc5565b610b4052610c80525f8062014ffc565b90508214155f62014ff5565b6080620156e082610b405162009239565b9262014fe2565b91509250610ba051610ba051156201570e575b610ba0526001928391610ac0525f62014fb2565b50610ac0518111620156fa565b50610ac05181141562014fac565b50905062015795577fef9c486e607431362e32f87055ecc54107d0bde504cfbca8d6a59a6108b99ead604051806200aed0610ae051610b805161ffff610c605160a81c1661ffff610c405160a81c16859094939260609260808301968352602083015260408201520152565b6040516377ce243760e11b8152610ae051610b8051610c6051610c405161ffff60a891821c8116600487015291901c16602484015260448301526064820152608490fd5b9080620157e8575b5062014f89565b610ae0525060015f620157e1565b600281101562004b0e576002906201580e83620083e2565b159114141590565b939190805f5260d5602052600360405f20019061ffff600287015460a81c1691825f5260205260405f205464ffffffffff8160581c16968715620159f957601290835f520160205260ff60405f209160501c1690549260ff8460401c1692600284101562004b0e5783158315150362015931575050505060b81c64ffffffffff1693808511156201592857620158ad908562008cc5565b905b81811193841594620158c357505050909150565b6201590d576200d8fc7f1b7ba008cbebdd0330e64275c62765a671adbce08d86e7b894f0601a886b78cf939495604051938493846040919493926060820195825260208201520152565b84925063036f740160e31b5f5260045260245260445260645ffd5b505f90620158af565b929597969194509250620159a557505091620159946060927f04d93c80531ebbd61ebd9906714391b8431ec4437abe44969d252210244128de945f146201599957620159895f5b604051948552602085019062008717565b604083019062008717565ba15f90565b62015989600162015978565b83620159e562000f72928760a4965f14620159f0575f915b60405196634298a83160e01b8852600488015260248701526044860152606485019062008717565b608483019062008717565b600191620159bd565b5050505050915050600190565b9190926006018060061162003ef85762015a2462015a59916200a5e8565b6200aa9c5f841293845f1462015a955762015a3f906200cd5d565b955b62015a528362000ca2838a62008c7f565b9662008c7f565b91600281101562004b0e5762015a7f571562015a73575090565b620089fe91506200cd5d565b1562015a9157620089fe91506200cd5d565b5090565b9562015a41565b929362015b0a91955f96549162015acb876001600160401b038560481c1664ffffffffff8660b81c1662016033565b9490938596859989549260ff808560b81c169460b01c169261ffff8260881c16918c63ffffffff8260981c169260ff8360e01c9360401c16916200c4b5565b949195908562015b1c8298846200c72c565b941562015b5e5750505050505f5b6001600160501b0362015b4b60038398015482808260501c16911662012195565b16811162015b565750565b600a97509450565b5f851262015b70575050505062015b2a565b600c9b509299505f98509096509450925050565b94909192945f95600281101562004b0e571595861562015c2a57948060101b9080820462010000149015171562003ef857935b8060101b908082046201000014901517156200cff35762015bfb926200453c640f424000009593836200453c94891198895f1462015c1f57906200453c9162008cc5565b04921562015c1757905b5015620089fe57620089fe906200cd5d565b159062015c05565b6200453c9162008cc5565b508460101b9480860462010000149015171562003ef8575f949362015bb7565b949593909192600281101562004b0e571595861562015d2757801562015cfd575f19820191821162003ef8578160101b9180830462010000149015171562003ef85762015c979162009239565b935b8260101b9280840462010000149015171562003ef857640f42400000936200453c6200453c928562015cdc96891198895f1462015c1f57906200453c9162008cc5565b04911562015cf6575b15620089fe57620089fe906200cd5d565b1562015ce5565b508060101b90808204620100001490151762015c9757634e487b7160e01b5f52601160045260245ffd5b8160101b9180830462010000149015171562003ef85762015d489162009239565b9362015c99565b5f60443d10620089fe576040513d600319016004823e8051913d60248401116001600160401b0384111762015dc157828201928351916001600160401b03831162015db9573d8401600319018584016020011162015db95750620089fe9291016020019062008967565b949350505050565b92915050565b3d1562015df6573d9062015ddb8262008989565b9162015deb604051938462008967565b82523d5f602084013e565b606090565b9291909262015e345f80936060966001600160a01b0360ca54169083604051809681958294637bf41d7760e11b845260048401620123c6565b03925af15f918162015f8e575b5062015f8457505f60033d1162015f73575b806308c379a01462015f1b57634e487b711462015ebd575b7f7d7f9345462f0c85c00b5c2083a2ddd2d72fb70e98d0ebed71562cba6feef6879062015e9762015dc7565b9062015eb66040519283928352604060208401526040830190620083a1565b0390a19190565b5f8060233d1162015f09575b62015ed5575062015e6b565b7fe526d22a15e94c788050d8c0ca8cddc836ce3580e3dbe7ac64afb9229c7d633e9160409182519182526020820152a19190565b5050602060045f3e5f51600162015ec9565b5062015f2662015d4f565b8062015f33575062015e6b565b7fd83687e05ff302f677e5adcaeee1a4cb3c6473e57b9000d71f2c42ff6ada466c9162015eb66040519283928352604060208401526040830190620083a1565b5060045f803e5f5160e01c62015e53565b9293505050600191565b62015fa69192503d805f833e62012956818362008967565b905f62015e41565b6006810362015fc1575064e8d4a5100090565b6005810362015fd557506509184e72a00090565b6004810362015fe95750655af3107a400090565b6003810362015ffe575066038d7ea4c6800090565b60028103620160135750662386f26fc1000090565b6001146201602757670de0b6b3a764000090565b67016345785d8a000090565b828114939284156201604457505090565b62000ca290620089fe9362008c7f565b5f81126201605f5790565b5f0390565b91906201607c906001600160501b0384541662017808565b825469ffffffffffffffffffff19166001600160501b03821617909255565b9064ffffffffff620160bc600262008aaa94019282845460281c1662010b13565b825469ffffffffff00000000001916911660281b69ffffffffff000000000016179055565b64ffffffffff620160fb6002829301938285541662010b13565b161664ffffffffff19825416179055565b90815460481c6001600160401b038116915f620161298262016054565b9113156201618f576201613d818462009239565b925b6001600160401b03841162010bb4575050825469ffffffffffffffffffff60481b19166001600160501b0390921661ffff60401b919091161760481b69ffffffffffffffffffff60481b16179055565b6201619b818462008cc5565b926201613f565b64ffffffffff620161be62008aaa9382845460b81c1662010b13565b825464ffffffffff60b81b1916911660b81b64ffffffffff60b81b16179055565b9a989693929a999599979497610b4052610b2052610b0052610a6052610ae052610ac052610a20525f610880525f6109a0525f610980525f610960525f610aa0525f610880525f6109a0525f610980525f610960525f610b20515f5260d560205260405f20610a80526001600160501b03610a8051541694610b20515f526012610b40510160205260405f20916201627c610ac051898562017850565b620162878962014426565b806201705a575b62017017575b6201629f81620083e2565b80620167ce575050505090620162d191610a205191610b005190610ac05190610a605189610a8051610b4051620178e0565b610a40849052610880839052929590918390871562016370575b505050505b610a8051546001600160501b0316928084108015906201635d5762016316828662008cc5565b915b6001600160ff1b0383116201634157501562016332579291565b6201633d906200cd5d565b9291565b8563e69a04b360e01b610aa051526004526024526044610aa051fd5b62016369858362008cc5565b9162016318565b83949750926201638291929362009239565b916201638e81620083e2565b620167c5575f905b61ffff6002610b4051015460a81c166108a0525f60c0604051620163ba81620088da565b8281528260208201528260408201528260608201528260808201528260a082015201526001600160401b0383116200b3e35764ffffffffff610ac05111620167a6575f610aa0526040516201640f81620088da565b5f81525f60208201526201642783604083016200979d565b6001600160501b038416606082015263ffffffff610a605116608082015264ffffffffff610ac0511660a082015263ffffffff431660c0820152610b20515f526012610b40510160205264ffffffffff60405f205460b81c166201678957610b40516011015460201c63ffffffff1680620167535750620164b2610b20516011610b405101620170b7565b610b20515f526012610b40510160205260405f2063ffffffff808351161663ffffffff198254161781556201650c63ffffffff602084015116829063ffffffff60201b82549160201b169063ffffffff60201b1916179055565b604082015191600283101562004b0e5760c063ffffffff916200ecef62016534958562019597565b62016549610b20516011610b405101620170db565b6005610a80510161ffff6002610b4051015460a81c1660fc8111155f14620166a8576001901b81541790555b6201658f62016585828562009239565b610a80516200dae2565b6201659e83610b405162010719565b620165b96200ee3f6200ee3983610b40515460e81c62008c7f565b90620165c5826200adae565b620165d481610b405162010735565b600283101562004b0e577f04cc3d2fc73a9dca30eba1d05eca80b1b1216350243580027046f434fed4db1894610160948462016690576201661c610ac051610b4051620195e6565b6201664a61ffff6002610b4051015460a81c1695604051968752610b20516020880152604087019062008717565b610b00516060860152608085015260a0840152610a605160c0840152610ac05160e08401526101008301526101208201525f610140820152a16007925f808080620162eb565b620166a2610ac051610b4051620195c5565b6201661c565b6101fc8111620166dd57620166bf60019162008cb5565b1b6006610a805101908154179055600160fd1b815417905562016575565b6102fc81116201671257620166f460019162008ca4565b1b6007610a805101908154179055600160fe1b815417905562016575565b6103fc81111562016726575b505062016575565b6201673360019162008c93565b1b6008610a805101908154179055600160ff1b81541790555f806201671e565b63ffffffff81116200f015578060208301525f526012610b40510160205262016783610b205160405f20620170b7565b620164b2565b633f1ed2e160e21b5f526108a051600452610b205160245260445ffd5b6395d41f3f60e01b5f52610ac05160045264ffffffffff60245260445ffd5b60019062016396565b909192959750620167df81620083e2565b6001810362016aac575050509062016818915f6109c052610a205191610b005190610ac05190610a6051610a805188610b405162017ffb565b610b80516109e052610c005161094052610a00849052610ba051610bc0516109c086905291959294919291600a03620168755761ffff6002610b4051015460a81c166003610b4051015490620019926200f11c6109e05162016054565b610a00511562016899575b50505050509161094051610880526109c05192620162f0565b620168a890610a805162016064565b50620168b76109e05162016054565b5f6109e051125f1462016a9757620168d790610b2051610b4051620121b6565b620168ee6200ee3986610b40515460e81c62008c7f565b620168fa818762008cc5565b9162016906836200adae565b6201691582610b405162010735565b546201692f6001600160401b038260481c1694856200c72c565b905f82126200f39d5760ff8160401c1694600286101562004b0e577f99a74f70c224396b9ba5fcd5a6e5f480db23e7a25a2b16a8c133ec2efb3e646c976101e097620169a664ffffffffff8560b81c1694891590610ac0519087610a60519163ffffffff61ffff8260881c169160981c1662019d7b565b610860529690949091508962016a7f57620169c8610ac051610b4051620195e6565b62016a1e61ffff6002610b405101620169fe8d8b84845460a81c168b8943946108605193610b2051906011610b40510162019bec565b5460a81c169a6040519b8c52610b205160208d015260408c019062008717565b610b005160608b015260808a015260a089015260c088015260e0870152610a20516101008701526101208601526101408501526101608401526101808301526101a0820152610860516101c0820152a160076109c0525f8080808062016880565b62016a91610ac051610b4051620195c5565b620169c8565b62016aa690610b405162010719565b620168d7565b94969460039062016abd81620083e2565b0362016d8357509062016af292915f61090052610a205192610b005191610ac05191610a6051610a80518b610b405162017cf7565b610920939093526108e0879052610b80516109008890529599939690929190600a0362016b435761ffff6002610b4051015460a81c166003610b4051015490620019926200f11c6109205162016054565b6108e0511562016b64575b50505050505092610880526109005192620162f0565b62016ba19062016b776109205162016054565b5f61092051125f1462016d6e5762016b9790610b2051610b4051620121b6565b610a805162016064565b5062016bb96200ee3987610b40515460e81c62008c7f565b9062016bc6828862008cc5565b9262016bd2846200adae565b62016be183610b405162010735565b84549660ff8860401c1695600287101562004b0e578c8862016c5f6101c09a64ffffffffff947f01a0596385c75b269e896ca6468a2be2edc8b2b5459f4e25ca0a75944390a10c9d8c155f1462016d45575062016c4886825460b81c16610b4051620160e1565b62016c5787610b4051620195c5565b549362009239565b61ffff6002610b40510162016c9c82825460a81c168d155f1462016d3c57886001915b864393610a605192610b2051906011610b4051016201998d565b5460a81c169962016d315762016cc860015b6040519b8c52610b205160208d015260408c019062008717565b610b005160608b01526001600160401b038360481c1660808b015260a08a015260c0890152610a605160e089015260b81c166101008701526101208601526101408501526101608401526101808301526101a0820152a16007610900525f808080808062016b4e565b62016cc85f62016cae565b885f9162016c82565b8662016d599160b81c16610b40516201609b565b62016d6887610b4051620195e6565b62016c57565b62016d7d90610b405162010719565b62016b97565b959262016da2919250610b005190610ac051908486610b405162017bfa565b6108c094909452509395919490939186600a810362016e1557610b4051600281015460039091015460405163063c641b60e41b81526108c05160a89390931c61ffff1660048201526001600160501b03808316602483015260509290921c90911660448201526064810191909152608490fd5b1562016e34575b5050505050610960526108c0516109a05292620162f0565b9091929394955062016e516108c051610b2051610b4051620121b6565b62016e636108c051610a80516200ba83565b60ff815460401c1693600285101562004b0e578462016fff5762016e8e610ac051610b4051620160e1565b861562016f38575050907f599b5f439ed4daf1f28ae8638e5439d3982e8001fb26dd8f70021b38672eb26f9360c0939262016ed3610b20516011610b4051016201409e565b62016f1961ffff6002610b40510162016ef982825460a81c166005610a805101620141aa565b5460a81c1694604051958652610b20516020870152604086019062008717565b6060840152608083015260a0820152a15b6007905f8080808062016e1c565b819392506101209464ffffffffff809262016f787fcd4a9f7ae1cc250eaa0be6bdb30d07efaf0faafb4ff0e76d8fe09a8373e43f8599955491886201777b565b62016f87610ac05188620161a2565b62016fb761ffff6002610b4051015460a81c16975493604051988952610b205160208a0152604089019062008717565b6001600160401b038160481c1660608801526001600160401b038360481c16608088015260b81c1660a086015260b81c1660c084015260e0830152610100820152a162016f2a565b62017011610ac051610b40516201609b565b62016e8e565b620170506201702d610ac051610ae05162008cc5565b6200f969610b405154610b00519260ff808360b81c169260b01c16908b620120fd565b6109805262016294565b50610ac051610ae051116201628e565b919015620170a15763ffffffff62ffffff80845460601c165b1692541682155f146201709557505f90565b620089fe908362009239565b63ffffffff62ffffff80845460781c1662017083565b9063ffffffff81116200f01557815463ffffffff191663ffffffff91909116179055565b91909163ffffffff8311620171155763ffffffff62008aaa92931663ffffffff60201b82549160201b169063ffffffff60201b1916179055565b826395d41f3f60e01b5f5260045263ffffffff60245260445ffd5b6006906201714360078406809462008cc5565b5f520160205260405f2090600160ff1983541617825580155f1462017187575061ffff62008aaa921664ffff00000082549160181b169064ffff0000001916179055565b60018103620171bd575061ffff62008aaa921668ffff0000000000000082549160381b169068ffff000000000000001916179055565b60028103620171fb575061ffff62008aaa92166cffff000000000000000000000082549160581b16906cffff00000000000000000000001916179055565b6003810362017229575061ffff62008aaa921661ffff60781b82549160781b169061ffff60781b1916179055565b6004810362017257575061ffff62008aaa921661ffff60981b1961ffff60981b83549260981b169116179055565b600503620172835761ffff62008aaa921661ffff60b81b1961ffff60b81b83549260b81b169116179055565b61ffff62008aaa92167fffffff0000ffffffffffffffffffffffffffffffffffffffffffffffffffffff61ffff60d81b83549260d81b169116179055565b9395929490955f955f955f5f988a5f5260d560205260405f209a5f526012830160205260405f2091620172f687868562017850565b6201730181620083e2565b80620173275750505050906201731b969798839262017a43565b92959194859392909150565b90919294506201733781620083e2565b60018103620173645750505097829162017353979899620183fd565b969995988997969095509350505050565b60039192939599505f9b9894969a979b506201738081620083e2565b03620174b357505096620174009160ff8883899a9b8a5f98549564ffffffffff8760b81c169889976001600160401b03620173f18454948a8660b01c16809b819760b81c169c8d98899361ffff8860881c169163ffffffff8960981c16918960e01c9160ff8b60401c16916200c4b5565b939193505060481c166200c72c565b5f8113156201749a57620174149062016054565b9c6201742d6201743e9a8f9762017434985b5062008cc5565b906201951b565b509a9099620194e5565b5050926201745187620116be886200cd5d565b905f8212918262017478575b5050156201747157506005945b9192939495565b946201746a565b6001600160501b039192506201748e9062016054565b915416105f806201745d565b505f9c6201742d6201743e9a8f97620174349862017426565b97945097945050938091620174c89562017bfa565b925092949593505090929395565b939498919295969997909961ffff600286015460a81c1697811515806201766e575b620176075750506201751b9288925f92620175126200ba9c565b928d8b6201845d565b620175fc578260096201753392019688868962019697565b909682989262017554575b50505050505050506201755057600190565b5f90565b5463ffffffff1681620175ea5750505f945b620175b1575050604080519384529315156020840152507fc0ed4041bfe51a7b847f46f096b9d2495866089371037e3efd436bd858f46edd92919050a15f808080808080806201753e565b9160c4949186936040519563beb3942960e01b8752600487015260248601526044850152151560648401526084830152151560a4820152fd5b620175f59162009239565b9462017566565b505050505050505f90565b9798945099985050509192506201764c57505050505060207f18a118a5bb122057e420b1bcf7903a57ebc749be0d1981d112c6e257e7bd5e8891604051908152a15f90565b91859162001992936040519687966321b303f960e11b885260048801620133f8565b50600a821415620174f8565b9499939597909a9891929661ffff600287015460a81c169881151580620176fc575b620176b6575050916201751b93918993620175126200ba9c565b989995509a99505050929350506201764c57505050505060207f18a118a5bb122057e420b1bcf7903a57ebc749be0d1981d112c6e257e7bd5e8891604051908152a15f90565b50600a8214156201769c565b61084052610800526102c05261068052610700526106c0526105c0919091526107e0929092525f6104a0526201773e9162019ef5565b6104a05190565b906201777497949693959291610c2052610c4052610c6052610ba052610c0052610b80525f610b60526201bc8d565b610b605190565b90815460481c6001600160401b0381169182811162010afc57808303926001600160401b038411620177e8575050825469ffffffffffffffffffff60481b19166001600160501b0390921661ffff60401b919091161760481b69ffffffffffffffffffff60481b16179055565b63733cc1d960e11b5f526004526024526001600160401b0360445260645ffd5b91905f620178168262016054565b9113156201783d5762010b5e818462009239565b6001600160501b03841162010b72575050565b62017849818462008cc5565b926201782a565b9190916201785e8362010a74565b156201786c57505050600290565b5464ffffffffff8160b81c169283155f146201788a57505050505f90565b620178959062010aa2565b15620178d55760ff5f915b60401c16600282101562004b0e57600281101562004b0e5703620178c5575050600190565b11620178d057600290565b600390565b60ff600191620178a0565b939895919796909498620178f48962010a74565b62017a2e5784928a94926201791f9260ff999897548a8160b01c169a8b9160b81c169d8e926201951b565b9a91949092839862017932879c62010aa2565b1562017a25575f905b5f94620179495f986200c46a565b5050509182155f14620179e25750505050505050600d985b8297838b1580620179d8575b620179b3575b50505088620179a9575050506001600160501b039054166201799b8362005d8b868862009239565b11620179a357565b60019450565b9196509450925050565b620179be926201956f565b15620179ce575b5f808362017973565b600e9850620179c5565b505f81136201796d565b959e9562017a009594939291620179f99162011e43565b9062015b84565b5f811262017a10575b5062017961565b62017a1d9193506200cd5d565b915f62017a09565b6001906201793b565b505050505050925050506006905f905f905f90565b9794919593909692505f9762017a5a5f9762010a74565b62017a9e579062017a7e94939291549160ff808460b81c169360b01c16916201951b565b5091906201799b8362005d8b866001600160501b03859954169462009239565b5050505050925050506006905f905f905f90565b9062ffffff811162017aed576effffff00000000000000000000000082549160601b16906effffff0000000000000000000000001916179055565b6395d41f3f60e01b5f5260045262ffffff60245260445ffd5b9062ffffff811162017aed576bffffff00000000000000000082549160481b16906bffffff0000000000000000001916179055565b9062ffffff811162017aed577fffffffffffffffffffffff000000ffffffffffffffffffffffffffffffffffff74ffffff00000000000000000000000000000000000083549260901b169116179055565b9062ffffff811162017aed5771ffffff00000000000000000000000000000082549160781b169071ffffff0000000000000000000000000000001916179055565b906001811b905f52600182016020525f1960405f2054145f1462017bf357198154169055565b8154179055565b93949290955f96549062017c26876001600160401b038460481c1664ffffffffff8560b81c1662016033565b95909460ff879962017c6d88968b54838d868360b01c1696879360b81c16978461ffff8a9660881c169263ffffffff8260981c169260ff8360e01c9360401c16916200c4b5565b98919a9099899a62017c81819d846200c72c565b9a5f8c1262017cd957505050509062017c9d94939291620194e5565b505092836001600160501b0362017cc26003849a015482808260501c16911662012195565b16821162017cce575050565b600a99509096509250565b9c509c509c509c50505050505092505050600c94935f9392915f9190565b9895949698610c8052610c6052610c4052610c2052610c0052610be052610bc0525f610ba0525f610b60525f610b8052610c60515462017d7d610c8051549260ff8460b81c169060ff8560b01c169064ffffffffff8560b81c169061ffff8660881c169063ffffffff8760981c16908760e01c9060ff8960401c1690610c80516200c4b5565b929190938362017d9b86936001600160401b038660481c166200c72c565b915f83131562017fee5762017df58962017db58562016054565b995b8a610ba05262017dd564ffffffffff8960b81c16610be05162008cc5565b610b805260ff8460b81c1660ff8560b01c16610b8051610c00516201951b565b99919390988962017e1d869d60ff8760b81c1660ff8860b01c16610be051610c0051620194e5565b50509889610b6052600260ff8260401c16101562004b0e5760401c60ff1662017fe75760015b5f905f9662017e55610c80516200c46a565b5050509081155f1462017f8e5750505050600d985b859c8a158062017f84575b62017f5b575b508962017f38575050505050505062017e9962017ea091876200c75a565b876200c72c565b9262017eb185620116be866200cd5d565b925f84128062017f17575b1562017ec85750600597565b975f85128062017ee0575b62017eda57565b600a9850565b5062017eec8562016054565b6001600160501b0362017f0f6003610c8051015482808260501c16911662012195565b161062017ed3565b5062017f238462016054565b6001600160501b03610c405154161062017ebc565b610ba094909452610b6093909352969b939a5091985096505f9550859493509150565b62017f6c9087610bc051916201956f565b1562017f7a575b5f62017e7b565b600e995062017f73565b505f871362017e75565b9062017faf8260ff959e958062017fc2969560b81c169160b01c1662011e43565b929091610b805193610c20519362015b84565b5f811262017fd2575b5062017e6a565b62017fdf9196506200cd5d565b945f62017fcb565b5f62017e43565b62017df5895f9962017db7565b956201805681620180999a9b9794969599620180a89499610c80525f610c00525f610bc0525f610ba0525f610b80525f610bc0525f610ba0525f610b8052610c8051549660ff8860b81c16908760ff8a60b01c16916201951b565b509990918a9883610c005254610c60526200f96960ff8760b81c1660ff8860b01c1664ffffffffff610c605160b81c1663ffffffff610c605160981c16620120fd565b610c4052610c40519062009239565b610be0525f610b6052620180ec60ff8360b81c1660ff8460b01c1664ffffffffff610c605160b81c16610c605160e01c60ff610c605160401c16610c805162011642565b95600260ff610c605160401c16101562004b0e576201813d9160ff610c605160401c16159164ffffffffff610c605160b81c1661ffff610c605160881c1663ffffffff610c605160981c1662019d7b565b999293915f610c20525f610c2052815f9b6201815c610c80516200c46a565b5050509283155f14620183a95750505050600d610c20525b610c2051610b6052610c205115806201839f575b620182f9575b50505050859484610b605197610b605115620181aa5750505050565b90620181dd620181c66201822c9493610be09b979b516200c72c565b6001600160401b03610c605160481c16906200c75a565b610bc052620181ef610bc0516200cd5d565b610ba0525f811215620182cf576201820b90610ba0516200c72c565b610ba0525b6201821e610ba0516200cd5d565b610b8052610ba0516200c75a565b610ba0525f610ba051129081620182ac575b50156201825457506003935b5f80808062009875565b935f610b8051128062018272575b156201824a57600a94506201824a565b5062018281610b805162016054565b6001600160501b03620182a46003610c8051015482808260501c16911662012195565b161062018262565b90506001600160501b03620182c4610ba05162016054565b915416105f6201823e565b5f8113620182df575b5062018210565b620182ee90610bc0516200c72c565b610bc0525f620182d8565b6001600160401b03610c605160481c16610c405181115f146201839757610c4051620183259162008cc5565b808b13156201838e576201833a908b6200c75a565b915b5f83136201834c575b506201818e565b62018370946201836a9260ff808460b81c169360b01c1691620120fd565b6201956f565b1562018382575b5f8080808062018345565b600e610b605262018377565b505f916201833c565b505f62018325565b505f8a1362018188565b620183d893620183c660ff8860b81c1660ff8960b01c1662011e43565b610c605160401c60ff16929162015c4a565b5f8112620183e8575b5062018174565b620183f5919a506200cd5d565b985f620183e1565b9490506001600160501b039592506201842c93979691975f95549160ff808460b81c169360b01c16916201951b565b5092909454166201843e838662009239565b1162018454575b92915f915f915f915f915f9190565b50600362018445565b50506201847290969596949291939462014426565b928315620185115790620184869162009239565b915b15908162018508575b5015620184fd575f93845b620184a657505050565b91939092909115620184c957505063587d2a9760e01b5f5260045260245260445ffd5b916040907f587d2a97a31a5894b097ff75ad27cad3e726d27474d08c959bcb5e51c5244d0a929482519182526020820152a1565b81811093846201849c565b90505f62018491565b509162018488565b939094929695916201852b9062014426565b968715620185aa57906201853f9162009239565b955b159081620185a1575b501562018596575f94855b620185605750505050565b906200199291604051948594635e7f12af60e11b8652600486019094939260609260808301968352602083015260408201520152565b808510948562018555565b90505f6201854a565b509562018541565b908054928360281c62ffffff811694620185cd86866200c52f565b90620188c75750916006939161ffff8094600388019060ff8160381c169060301c916001821b81541790555f526004880160205260405f20600160ff83161b8154179055165f5260058601602052600160ff60405f2092161b81541790555f146201885a57835462ffffff808260781c169160901c169080158062018851575b156201882257505062018661858562017b8c565b6201866d858562017b3b565b5460a81c16916201868360078506809562008cc5565b5f520160205260405f2091600160ff1984541617835580155f14620186ca5750815464ffffffff00191662ffff00600883901b161760189190911b64ffff00000016179055565b60018103620187075750815468ffffffff0000000000191666ffff0000000000602883901b161760389190911b68ffff0000000000000016179055565b6002810362018750575081546cffffffff00000000000000000019166affff000000000000000000604883901b161760589190911b6cffff000000000000000000000016179055565b600381036201878f5750815470ffffffff00000000000000000000000000191661ffff60681b606883901b161760789190911b61ffff60781b16179055565b60048103620187c45750815463ffffffff60881b191661ffff60881b608883901b161760989190911b61ffff60981b16179055565b600503620187f757815463ffffffff60a81b191661ffff60a81b60a883901b161760b89190911b61ffff60b81b16179055565b815463ffffffff60c81b191661ffff60c81b60c883901b161760d89190911b61ffff60d81b16179055565b8611156201883d575062018837858562017b8c565b6201866d565b8510156201866d5762018837858562017b3b565b5081156201864d565b835462ffffff808260481c169160601c1690801580620188be575b156201889557505062018889858562017b06565b62018837858562017ab2565b861115620188aa575062018837858562017b06565b851015620188375762018837858562017ab2565b50811562018875565b61ffff935062008aaa96949250806201890e85620189299481945f5260078a0160205260a81c1660405f209061ffff60c81b1961ffff60c81b83549260c81b169116179055565b835461ffff60b81b1916911660b81b61ffff60b81b16178255565b5460a81c169162017130565b9190916001600160501b03831162018981576001600160501b0362008aaa92931669ffffffffffffffffffff60901b1969ffffffffffffffffffff60901b83549260901b169116179055565b826395d41f3f60e01b5f526004526001600160501b0360245260445ffd5b9190620189be62008aaa916001600160501b03855460501c1662010b50565b835469ffffffffffffffffffff60501b1916605082901b69ffffffffffffffffffff60501b1617909355565b61ffff1661ffff811462003ef85760010190565b929094935f958315620194255762018a168362014426565b9362018a2284620083e2565b831580156201940f575b61ffff938483166303ff00008560101b16175f526002880160205263ffffffff62018a5a60405f2062009332565b5116620193e9578615620193e1575f955b8715620193da575f5b62018a7e62009298565b506303fcffff808887166303ff00008960101b161711620193b657506001600160501b038811620193985764ffffffffff81116201937d5762018ac18262010a74565b156201935f57876201933a575b6001600160501b036040519862018ae58a62008884565b8887166303ff00008960101b16178a525f60208b01525f60408b015260608a019362018b1181620083e2565b845264ffffffffff60808b01931683521660a08901528963ffffffff815460d01c16155f1462018de25762018caa9362018c8d87946001600160501b0360a062018d6f9d62018c6064ffffffffff8f9899819f9d9a60809f908f6303ff00008d8462018b898260029716848660101b161786620142fb565b62018b9e828216848660101b16178662014399565b169160101b16175f520160205260405f209663ffffffff808651161663ffffffff1989541617885562018bf663ffffffff602087015116899063ffffffff60201b82549160201b169063ffffffff60201b1916179055565b604085810151895463ffffffff60401b1916911b63ffffffff60401b161788555162018c2281620083e2565b62018c2d81620083e2565b8754915165ffffffffffff60601b1990921660609190911b60ff60601b1617911660681b64ffffffffff60681b16178555565b0151825469ffffffffffffffffffff60901b1916911660901b69ffffffffffffffffffff60901b16179055565b8a1562018ddb57505f925b166303ff00008560101b1617620198ef565b905f526003870160205262018d2860405f209463ffffffff808451161663ffffffff1987541617865562018d0363ffffffff602085015116879063ffffffff60201b82549160201b169063ffffffff60201b1916179055565b604083810151875469ffff000000000000000019169216901b61ffff60401b16178555565b606081015184546aff00000000000000000000191690151560501b60ff60501b161784550151825464ffffffffff60581b1916911660581b64ffffffffff60581b16179055565b62018d8a575b62008aaa905b620104b1815460f01c620189ea565b915062008aaa62018da95f6001600160501b03855460501c1662010b50565b835469ffffffffffffffffffff60501b1916605082901b69ffffffffffffffffffff60501b1617845592905062018d75565b9262018c98565b60039098919697980195875f528660205260405f20805463ffffffff8116155f1462018fce575050938864ffffffffff979462018ed962018f10956001600160501b038f8b9762018f659f9e9b8e62018c609160809f8f9560a0966303ff00008d60029463ffffffff855460d01c165f5285850160205262018e71828216848660101b161760405f20620143f6565b63ffffffff855460d01c1660408b0152169160101b16175f520160205260405f209663ffffffff808651161663ffffffff1989541617885562018bf663ffffffff602087015116899063ffffffff60201b82549160201b169063ffffffff60201b1916179055565b62018ef38d8386166303ff00008a60101b16179062014399565b8b1562018fc757505f925b166303ff00008660101b1617620198ef565b915f5260205262018d2860405f209463ffffffff808451161663ffffffff1987541617865562018d0363ffffffff602085015116879063ffffffff60201b82549160201b169063ffffffff60201b1916179055565b62018f76575b62008aaa9062018d7b565b915062008aaa62018f955f6001600160501b03855460501c1662010b50565b835469ffffffffffffffffffff60501b1916605082901b69ffffffffffffffffffff60501b1617845592905062018f6b565b9262018efe565b6020919b969850926201912f8b9f9b95620190fe8f63ffffffff9660026201914c9b9f9d99928e62019036898e8e8e64ffffffffff998f1c16805f528787018f526040805f209401528c8f8f908554821c16910152166303ff00008460101b161790620143f6565b8a8a8a0151168062019310575b5060101b6303ff0000168b8d16175f908152910188526040902086518154888a015167ffffffff00000000198c1992909216928c169290921716908a1660201b63ffffffff60201b1617815593604087810151865463ffffffff60401b1916908b1690911b63ffffffff60401b1617855551620190c081620083e2565b620190cb81620083e2565b8454915165ffffffffffff60601b1990921660609190911b60ff60601b1617911660681b64ffffffffff60681b16178255565b60a0830151815469ffffffffffffffffffff60901b191660909190911b69ffffffffffffffffffff60901b16179055565b01511615620192f1575b166303ff00008460101b161787620143f6565b15620191d5575050505090620191cf62008aaa92620191b46201917d5f6001600160501b03865460501c1662010b50565b845469ffffffffffffffffffff60501b1916605082901b69ffffffffffffffffffff60501b16178555965b825460401c16620189ea565b61ffff60401b82549160401b169061ffff60401b1916179055565b62018d7b565b849793975460ff8160501c1690831515821515141580620192dd575b6201926d57505050620191cf926201926764ffffffffff62019246879562019239620191b49662008aaa9b9a9060ff60501b825491151560501b169060ff60501b1916179055565b82875460581c1662010bd4565b855464ffffffffff60581b1916911660581b64ffffffffff60581b16178455565b620191a8565b90620159e560a49464ffffffffff62000f729463ffffffff60018d015416945f14620192d4575f925b15620192cb575f945b60405197634298a83160e01b89526004890152602488015260581c166044860152606485019062008717565b6001946201929f565b60019262019296565b5064ffffffffff8160581c161515620191f1565b6201930a8282166303ff00008760101b16178b62014399565b62019139565b5f528282018a52620193338d8d166303ff00008360101b161760405f206201436a565b5f62019043565b63a9c0cecd60e01b5f5287826201935181620083e2565b60045260245260445260645ffd5b801562018ace5763a9c0cecd60e01b5f5287826201935181620083e2565b6395d41f3f60e01b5f5260045264ffffffffff60245260445ffd5b876395d41f3f60e01b5f526004526001600160501b0360245260445ffd5b866303ff000089886395d41f3f60e01b5f52169160101b161760045260245260445ffd5b8162018a74565b5f9562018a6b565b505063ffffffff6001870154169163feefcc0b60e01b5f5260045260245260445260645ffd5b506201941b84620083e2565b6002841462018a2c565b63ffffffff600186015416906369bc91ef60e11b5f5260045260245260445ffd5b91929015620194ab57508151156201945c575090565b3b15620194665790565b60405162461bcd60e51b815260206004820152601d60248201527f416464726573733a2063616c6c20746f206e6f6e2d636f6e74726163740000006044820152606490fd5b825190915015620194bf5750805190602001fd5b60405162461bcd60e51b81526020600482015290819062001992906024830190620083a1565b90620194f6939291959495620120fd565b9160648302908382046064148415171562003ef85762019516916201406b565b915f91565b906201952d93929196959496620120fd565b9060648202908282046064148315171562003ef8576201954d916201406b565b925f90806201955a575091565b6201956c91506200ee39908362008c7f565b91565b9091612710830292808404612710149015171562003ef857620195929162008c7f565b101590565b90600281101562004b0e5768ff000000000000000082549160401b169068ff00000000000000001916179055565b9064ffffffffff620160bc600262008aaa94019282845460281c1662010bd4565b64ffffffffff620160fb6002829301938285541662010bd4565b945f9485949080156201968e575b156201966b575062008aaa63ffffffff9495966201962d84866201021b565b835490620106f76201965861ffff8460a81c16809981951698895f5260d560205260405f2062010333565b95620106ef60ff825460201c1662010aa2565b62008aaa955063ffffffff94506201968590838562014d99565b9590966201962d565b5080156201960e565b929391908215620198985762ffffff80855460601c165b1690620196bd84878462019e80565b156201988b57620196cf82866200c52f565b50915f5b6103e881108062019881575b156201986d57835f526007870160205260405f209363ffffffff855416156201985757506201970e9062009323565b83546201972463ffffffff8260781c16620101dd565b156201984657867fb95e250f9f017dcb1bb1806916771df0c04a269e5f46d5db7519382a0f7bb47760e08a620197a361ffff620197e39660c81c16996201976d8c828c62014d99565b929093826201979a8d82549063ffffffff82165f5260d560205261ffff60405f209260a81c169162010333565b981591620144ed565b549161ffff8360a81c169563ffffffff604051948c865216602085015286604085015260608401528b608084015260a083015260c0820152a18862014a58565b83620196d3579250508315620198355762ffffff80865460601c165b166201980d85888362019e80565b1562019827576201981f81876200c52f565b5092620196d3565b955050505050505f915f9190565b62ffffff80865460781c16620197ff565b5050955050505050506001915f9190565b8363cf25731d60e01b5f5260045260245260445ffd5b935094505093506103e89150101591151592565b50831515620196df565b5093505050505f915f9190565b62ffffff80855460781c16620196ae565b90620198b58262019ea6565b91939091845f198114620198e8575090829162008aaa935f5260018201602052600160405f20911b815417905562017bcd565b9450505050565b9190915f608060405162019903816200894b565b82815282602082015282604082015282606082015201526303fcffff80821162014354575064ffffffffff821162019971576040519264ffffffffff929163ffffffff1662019952856200894b565b8085526020850152600160408501521515606084015216608082015290565b506395d41f3f60e01b5f5260045264ffffffffff60245260445ffd5b90959796949392916001820191815f528260205260405f209764ffffffffff895460b81c161562019bd557509081620199e29493925463ffffffff8160201c1680840362019b12575b50505050508562019597565b6001600160401b03811162019af557835469ffffffffffffffffffff60481b191660489190911b69ffffffffffffffffffff60481b1617835562019a469063ffffffff905b845463ffffffff60981b1916911660981b63ffffffff60981b16178355565b64ffffffffff841162019ad95763ffffffff9062019a8d64ffffffffff62008aaa959616849064ffffffffff60b81b1964ffffffffff60b81b83549260b81b169116179055565b82547bffffffffffffffffffffffffffffffffffffffffffffffffffffffff16911660e01b7fffffffff0000000000000000000000000000000000000000000000000000000016179055565b836395d41f3f60e01b5f5260045264ffffffffff60245260445ffd5b6395d41f3f60e01b5f526004526001600160401b0360245260445ffd5b62019b849462019b73928c5463ffffffff808216921687145f1462019b8f575062019b3e8186620170b7565b5f528060205260405f2063ffffffff60201b1981541690555b815f5260205262019b6c8460405f20620170b7565b8a620170db565b885463ffffffff19168955620170db565b5f80808080620199d6565b63ffffffff9060201c165f528160205262019bae8160405f20620170b7565b5f528060205262019bcf8c63ffffffff60405f20915460201c1690620170db565b62019b57565b90506334a4033d60e11b5f5260045260245260445ffd5b909698979592916001820191815f528260205260405f209864ffffffffff8a5460b81c161562019bd55750908162019c409493925463ffffffff8160201c1680840362019cb8575b50505050508662019597565b6001600160401b03821162019c9a5761ffff811162010ef057845469ffffffffffffffffffff60481b191660409190911b90911760481b69ffffffffffffffffffff60481b1617835562019a469063ffffffff9062019a27565b506395d41f3f60e01b5f526004526001600160401b0360245260445ffd5b62019d2a9462019d19928d5463ffffffff808216921687145f1462019d35575062019ce48186620170b7565b5f528060205260405f2063ffffffff60201b1981541690555b815f5260205262019d128460405f20620170b7565b8b620170db565b895463ffffffff19168a55620170db565b5f8080808062019c34565b63ffffffff9060201c165f528160205262019d548160405f20620170b7565b5f528060205262019d758d63ffffffff60405f20915460201c1690620170db565b62019cfd565b9091939295949561ffff831162019e675762019d98848662009239565b94878062019e5d575b1562019e3e575f19830192831162003ef85762019ddc94620121388262019dd2620045429462005d8b979862008c7f565b60101c9662008c7f565b9162019e1062019ded83856201406b565b9362019dfa8482620091f8565b951562019e32576200ab0384865b969762008c7f565b8060101b9080820462010000149015171562003ef85782620089fe91620091f8565b6200ab03848762019e08565b62019ddc94620121388262019dd2620045429462005d8b979862008c7f565b5083151562019da1565b826395d41f3f60e01b5f5260045261ffff60245260445ffd5b909291925f938262019e9157505050565b92935090911562019ea157101590565b111590565b8054801562019eea5762019ebc60019162012b69565b91825f520160205262019ee160405f20541962019edb81151562008c14565b62012b69565b808260081b1792565b505f19915f91508190565b9062019f046102c05162010aa2565b610720525f6106e05261271081116201bc73576106e0525b610840516002015464ffffffffff166102e0525f6102a08190526104605280158181156201bc66575b506201bc5c575b62019f6161072051600961084051016201706a565b61066091909152610820525f61022052610700516107c08190526104605261084051600201546107a0525b610460511515806201bc4f575b156201bc0957610680511515610680516201bc10575b6201bc09575f610760525f610780525f610740525f6107605262019fdd61066051600961084051016200c52f565b50610620526107c05161078052610740525b610780511515806201bbfc575b806201bbef575b156201a9d157610620515f526010610840510160205260405f206106a0526106a0515463ffffffff81165f5260d560205260405f206102005260ff610200515460a01c166201a05281620083e2565b156201a104575061ffff6106a0515460c81c16610620527f86ad99b48b2565c9720e33335db58e8c7468d6af03a5e6238b20d4a562f5b8b46201a0fb6201a0b66107e0516108005161ffff6107a05160a81c166106a0516009610840510162019600565b60408051610800516107a05160a81c61ffff1682526020820194909452908101939093526060830152608082015260a081019290925260c082015290819060e0820190565b0390a162019fef565b6201a11863ffffffff8260781c16620101dd565b156201a17c575061ffff6106a0515460c81c16610620527fb95e250f9f017dcb1bb1806916771df0c04a269e5f46d5db7519382a0f7bb4776201a0fb6201a0b66107e0516108005161ffff6107a05160a81c166106a0516009610840510162019600565b6108005163ffffffff8216036201a1eb575061ffff6106a0515460c81c16610620527f52d5291dc7b477ebda965d0693c67e6ccec5b3667b530305685465384756d3fd6201a0fb6201a0b66107e0516108005161ffff6107a05160a81c166106a0516009610840510162019600565b5f6201a1fd60ff8360201c1662010a74565b6201a979575b156201a267575061ffff6106a0515460c81c16610620527fae6369c6e529c86dd87431d10e0db70657c834daa75356e1efd7c0ac79f934b76201a0fb6201a0b66107e0516108005161ffff6107a05160a81c166106a0516009610840510162019600565b64ffffffffff8160401c166102805261028051610600526201a28f60ff8260201c1662010a74565b6201a939575b61078051610280511180156105e0526201a92b576201a357610280515b6002610840510154906201a31a6201a30c64ffffffffff841664ffffffffff8560281c168082115f1462013e3e575060ff8560e01c169060ff8660d81c169064ffffffffff8760501c16908661ffff8960b81c166200dbd6565b61ffff8660981c1662012154565b9061ffff808660d81c169360881c1691610600519061082051906108205190610820519060ff8a60201c169063ffffffff8b1661084051620161df565b61024052610980516101e09190915291819060061981016201a7e357506105e051156201a770576201a39e6201a394610280516108205162008c7f565b6107605162009239565b6107605261028051926201a3b9610280516107805162008cc5565b610780525b6201a3cc610740516200a663565b610740526105e051156201a50157505091610120916201a4327ff5f5aef063f495816b6982c44c70c97c8fbec2fa24b73487e6542ce021431214946201a42763ffffffff85166106a05161ffff6107a05160a81c1662014d99565b6101e052906200c72c565b9061ffff6106a0515460c81c16610620526201a46461ffff8460a81c1661ffff6107a05160a81c166102005162010333565b906201a48f6201a47e60ff6106a0515460201c1662010aa2565b6106a05160096108405101620144ed565b6201a4a861ffff8560a81c166009610840510162014a58565b61ffff60405194816107a05160a81c16865263ffffffff8116602087015260a81c16604085015261082051606085015260808401526102405160a084015260c083015260e08201526101e051610100820152a162019fef565b91509160ff6106a0515460201c166101c0525f6101a0525f6101a0525f61ffff8560a81c16156201a7425761ffff8560a81c166303ff00006107a05160981c16175f526002610200510160205260405f209081546101805263ffffffff6101805116156201a70a57917ff5f5aef063f495816b6982c44c70c97c8fbec2fa24b73487e6542ce02143121495939161012095936201a5a16101c05162014426565b156201a6c25750806201a5c7846001600160501b036201a5d1945460901c169262018935565b610200516201448b565b506201a5e182610200516201899f565b6101a0526001600160501b036102005154166101a05111915b6101a051926201a60c575b506201a4a8565b9091507f6d6191eb9e6651b10a6b278ab4d021e3c8b8810a0290234d29d74556915d5dcf61014064ffffffffff6106a0515460401c166201a66a6107e0516108005161ffff6107a05160a81c166106a0516009610840510162019600565b97916040959195949394519561ffff6107a05160a81c1687526020870152604086015261082051606086015260808501528660a085015260c08401526108005160e084015261010083015288820152a1905f6201a605565b9290826201a7049161ffff6107a05160a81c165f526003610200510160205262013c1a60405f209164ffffffffff62013bef85826101805160681c1662010b13565b6201a5fa565b8561ffff63ffffffff60016102005101541691638d5bba0f60e01b5f52816107a05160a81c1660045260a81c1660245260445260645ffd5b63ffffffff6001610200510154166369bc91ef60e11b5f5261ffff6107a05160a81c1660045260245260445ffd5b6201a7866201a394610780516108205162008c7f565b610760526201a7d364ffffffffff6201a7ac61078051826106a0515460401c1662010b13565b166106a0519064ffffffffff60401b82549160401b169064ffffffffff60401b1916179055565b61078051925f610780526201a3be565b9350505050600d81146201a8e5576101807f1c304023b27262393dcde9fe67af613bc45ee4f8c452b031dc393d074031157b916106a0515461ffff8160c81c16610620526105e0515f146201a8da5761028051905b61ffff60ff8260201c16936201a8696107e05161080051846107a05160a81c166106a0516009610840510162019600565b95939692979160409991995199856107a05160a81c168b5260208b015260408a01526201a89681620083e2565b606089015261082051608089015260a088015260d81c1660c086015260e085015261010084015261080051610120840152610140830152610160820152a162019fef565b61078051906201a838565b6084610840515461ffff60405191631f466abb60e21b8352816107a05160a81c16600484015263ffffffff8160201c16602484015242604484015260a01c166064820152fd5b6201a357610780516201a2b2565b63ffffffff81165f526012610840510160205264ffffffffff60405f205460b81c166102805181106201a96e575b506201a295565b610280525f6201a967565b5063ffffffff81165f526012610840510160205260405f2064ffffffffff815460b81c161515159081156201a9b0575b506201a203565b6201a9ca915060ff808460201c16915460401c16620157f6565b5f6201a9a9565b6107405161078051610460526201a9ef610760516102a05162009239565b6102a052610780516107c051036201bbd9575b61074051156201aa3957610780511562019f8c576201aa2b61072051600961084051016201706a565b610820526106605262019f8c565b507fb492fac0bb9e8c8d824bf2a4c19ec1efd3e98e987de34e127bc17eb2b5c0605e5f80a15b610220516201bb9b575b610460516104a0526104605161070051116201aa8e575b62008aaa6108405162011e0f565b6201aaa0610460516107005162008cc5565b610520526201aab6610520516102a051620091f8565b6201aac8610520516102a0516201406b565b610580526201aada6102c05162010aa2565b5f61056052156201bb905761058051610560525b610800515f526012610840510160205260ff60405f205460401c16600281101562004b0e575f6104c0526201bb81576104c0525b6201ab846201ab7a60026108405101546201ab406102c05162014426565b156201bb795761052051905b60ff8160e01c169160ff8260d81c169164ffffffffff8160501c169161ffff6102e0519260b81c166200dbd6565b6106c05162012154565b610420525f6102608190526103e081905261030081905261054081905261080051815260d560209081526040808320610640819052546001600160501b031661040052610840516012019091528120610500819052610520516102c0519293926201abef9262017850565b6201abfd6102c05162014426565b806201bb71575b6201bb30575b6201ac1581620083e2565b806201b26f57506201ac4a6105c0516106e051610420516105205161058051610560516102c0516106405161084051620178e0565b909492916105a05293909380610300526105a0516102605284156201ae11575b50505b6001600160501b0361064051541690610400518210156105405150805f146201adfb576201ac9f610400518462008cc5565b905b6001600160ff1b0382116201addb57156201adc957905b6201acef61ffff600261084051015460a81c16916103e051906201acdb6200bac2565b90610260516102c051610800518762018519565b50600785036201ad7457507f5be6b2e974d9a72428e5cb9cf915a5f991d1c862db8cafc9a121bb99b091cb749293506201ad6b60405192839261030051610520516104c05161058051610560518893909796959260c0959260e08601998652602086015260408501526060840152608083015260a08201520152565b0390a16201aa80565b61010490856040519163b29d194960e01b835260048301526108005160248301526105605160448301526105805160648301526104c05160848301526105205160a48301526104605160c483015260e4820152fd5b6201add4906200cd5d565b906201acb8565b8363e69a04b360e01b610540515260045261040051602452604461054051fd5b6201ae0a836104005162008cc5565b906201aca1565b909193506201ae24826105a05162009239565b906201ae336102c051620083e2565b6102c0516201b266575f905b61ffff600261084051015460a81c165f60c06040516201ae5f81620088da565b8281528260208201528260408201528260608201528260808201528260a082015201526001600160401b0384116200f0675764ffffffffff61052051116201b247575f61054052604051906201aeb582620088da565b5f82525f60208301526201aecd84604084016200979d565b6001600160501b038516606083015263ffffffff6105605116608083015264ffffffffff610520511660a083015263ffffffff431660c0830152610800515f526012610840510160205264ffffffffff60405f205460b81c166201b22e5750610840516011015460201c63ffffffff16806201b1f857506201af596108005160116108405101620170b7565b610800515f526012610840510160205260405f2063ffffffff808351161663ffffffff198254161781556201afb363ffffffff602084015116829063ffffffff60201b82549160201b169063ffffffff60201b1916179055565b604082015191600283101562004b0e5760c063ffffffff916200ecef6201afdb958562019597565b6201aff06108005160116108405101620170db565b6005610640510161ffff600261084051015460a81c1660fc8111155f146201b14d576001901b81541790555b6201b0366201b02c828562009239565b610640516200dae2565b6201b045836108405162010719565b6201b0606200ee3f6200ee3983610840515460e81c62008c7f565b906201b06c826200adae565b6201b07b816108405162010735565b600283101562004b0e577f04cc3d2fc73a9dca30eba1d05eca80b1b1216350243580027046f434fed4db189461016094846201b135576201b0c36105205161084051620195e6565b6201b0f161ffff600261084051015460a81c1695604051968752610800516020880152604087019062008717565b610420516060860152608085015260a08401526105605160c08401526105205160e08401526101008301526101208201525f610140820152a16007915f806201ac6a565b6201b1476105205161084051620195c5565b6201b0c3565b6101fc81116201b182576201b16460019162008cb5565b1b60066106405101908154179055600160fd1b81541790556201b01c565b6102fc81116201b1b7576201b19960019162008ca4565b1b60076106405101908154179055600160fe1b81541790556201b01c565b6103fc8111156201b1cb575b50506201b01c565b6201b1d860019162008c93565b1b60086106405101908154179055600160ff1b81541790555f806201b1c3565b63ffffffff81116200f015578060208301525f52601261084051016020526201b2286108005160405f20620170b7565b6201af59565b633f1ed2e160e21b5f526004526108005160245260445ffd5b6395d41f3f60e01b5f526105205160045264ffffffffff60245260445ffd5b6001906201ae3f565b6201b27a81620083e2565b600181036201b56757505f610480526201b2b76105c0516106e0516104205161052051610580516105605161064051610500516108405162017ffb565b610b805161044052610c00516104e052610ba051610bc0516104808690529194919291600a81036201b30d5761ffff600261084051015460a81c16600361084051015490620019926200f11c6104405162016054565b156201b32f575b50505050610300526104e0516102605261048051916201ac6d565b6201b33e906106405162016064565b506201b34d6104405162016054565b5f61044051125f146201b552576201b36d906108005161084051620121b6565b6201b3846200ee3985610840515460e81c62008c7f565b906201b391828662008cc5565b6201b39c816200adae565b6201b3ab836108405162010735565b6201b3c86105005154946001600160401b038660481c166200c72c565b925f84126200f39d57600260ff8660401c16101562004b0e577f99a74f70c224396b9ba5fcd5a6e5f480db23e7a25a2b16a8c133ec2efb3e646c9564ffffffffff866201b43f60ff6101e09960401c16156105205161056051858560b81c1661ffff8660881c1663ffffffff8760981c1662019d7b565b989192509460ff8460401c16155f146201b53a576201b4656105205161084051620195e6565b6201b4998a878b8661ffff600261084051015460a81c1693439460ff8b60401c169061080051906011610840510162019bec565b61ffff600261084051015460a81c16996040519a8b526108005160208c01526201b4cd60408c0160ff8760401c1662008717565b6104205160608c01526001600160401b038560481c1660808c015260a08b015260c08a015260e08901526105c05161010089015261012088015260b81c166101408601526101608501526101808401526101a08301526101c0820152a16007610480525f8080806201b314565b6201b54c6105205161084051620195c5565b6201b465565b6201b561906108405162010719565b6201b36d565b6003906201b57581620083e2565b036201b883575f6103a0526201b5b26105c0516106e05161042051610520516104c051610580516105605161064051610500516108405162017cf7565b92610380979591949796929652610360526103c0529092610b805192610b605150610ba05150806103a052600a81145f146201b6125761ffff600261084051015460a81c16600361084051015490620019926200f11c6103805162016054565b156201b634575b50505050610300526103c051610260526103a051916201ac6d565b6201b671906201b6476103805162016054565b5f61038051125f146201b86e576201b667906108005161084051620121b6565b6106405162016064565b506201b6896200ee3985610840515460e81c62008c7f565b6201b695818662008cc5565b906201b6a1826200adae565b6201b6b0816108405162010735565b610500515492600260ff8560401c16101562004b0e577f01a0596385c75b269e896ca6468a2be2edc8b2b5459f4e25ca0a75944390a10c956101c09560ff8660401c16155f146201b840576201b71864ffffffffff610500515460b81c1661084051620160e1565b6201b7278161084051620195c5565b64ffffffffff61050051546201b744610360516103c05162009239565b6201b78561ffff600261084051015460a81c1660ff8b60401c16155f146201b83757856001915b84439361056051926108005190601161084051016201998d565b610840516002015460a81c61ffff169860401c60ff166201b82c576201b7c160015b6040519a8b526108005160208c015260408b019062008717565b6104205160608a01526001600160401b038260481c1660808a015260a08901526103605160c08901526105605160e089015260b81c166101008701526101208601526101408501526101608401526101808301526101a0820152a160076103a0525f8080806201b619565b6201b7c15f6201b7a7565b855f916201b76b565b6201b85964ffffffffff8760b81c16610840516201609b565b6201b8688161084051620195e6565b6201b727565b6201b87d906108405162010719565b6201b667565b90506201b8a76104205161052051610580516104c051610500516108405162017bfa565b610340949094525061032085905293949391929091600a86036201b91f5761084051600281015460039091015460405163063c641b60e41b81526103405160a89390931c61ffff1660048201526001600160501b03808316602483015260509290921c90911660448201526064810191909152608490fd5b61032051156201b93b575b5050506103e052610340516201ac6d565b90919294506201b956610340516108005161084051620121b6565b6201b96861034051610640516200ba83565b60ff610500515460401c1691600283101562004b0e57826201bb18576201b9966105205161084051620160e1565b85156201ba4857509060c0917f599b5f439ed4daf1f28ae8638e5439d3982e8001fb26dd8f70021b38672eb26f936201b9d961080051601161084051016201409e565b6201b9f961ffff600261084051015460a81c1660056106405101620141aa565b6201ba2761ffff600261084051015460a81c1693604051948552610800516020860152604085019062008717565b6104c0516060840152608083015260a0820152a15b6007915f80806201b92a565b907fcd4a9f7ae1cc250eaa0be6bdb30d07efaf0faafb4ff0e76d8fe09a8373e43f859364ffffffffff610120946201ba89610500515495610500516201777b565b6201ba9b6105205161050051620161a2565b8161ffff600261084051015460a81c16956201bad06105005154936040519889526108005160208a0152604089019062008717565b6001600160401b038160481c1660608801526001600160401b038360481c16608088015260b81c1660a086015260b81c1660c084015260e0830152610100820152a16201ba3c565b6201bb2a61052051610840516201609b565b6201b996565b610520515f036105205162003ef8576201bb6a906200f9696108405154610420519260ff808360b81c169260b01c169061058051620120fd565b506201ac0a565b505f6201ac04565b5f906201ab4c565b50610580516104c0526201ab22565b80610560526201aaee565b6108405161022051600191909101805467ffffffffffffffff191663ffffffff92909216919091174260201b63ffffffff60201b161790556201aa69565b6108205161022052610780516107c0526201aa02565b506107405115156201a003565b5061062051151562019ffc565b506201aa5f565b5061072051806201bc3f575b8062019faf57506107205115801562019faf575061082051610680511162019faf565b506108205161068051106201bc1c565b5061082051151562019f99565b506103e862019f4c565b6103e89150115f62019f45565b5061ffff600261084051015460781c166106e05262019f1c565b6201bd7f9291604051916201bca2836200892f565b5f83525f602084015282610b60526201bcbe610c005162010aa2565b610c80526201bd3d6002610c2051015461ffff6201bd196201bd0a60ff8460e01c1660ff8560d81c1664ffffffffff8660501c1664ffffffffff8716610ba051878960b81c166200dbd6565b610160610c6051013562012154565b9160881c1690610ba051906080610c6051013590610c00519086610c2051620172c1565b9194909793610be09a939a52610b405295929795610b80519087610be051610b4051610ba0518a6080610c60510135610c8051610c00518d610c20516201767a565b156201d108575060c954610bc0819052613fff610b2081905260d59190911c16612710808202829004149015171562003ef857612710610b2051610bc05160d51c1602906201bdd1610c005162014426565b6201d0e4575b806201d0d2575b50815f5260d560205260405f2090815460f01c5f610ae05261ffff610ae052610ae051146201d04a57906201be1891610b8051916200d87b565b6201cf3457610ae0516002610c2051015460a81c165f610aa0525f610ac0525f610aa0525f610ac052815f5260d560205260405f20610b0052610b0051546001600160501b038160501c166001600160501b03821611806201d015575b156201cf3c5750506201be9b612710610b2051610bc05160d51c1602610b00516200dae2565b6201beb5612710610b2051610bc05160d51c16026200b978565b6201becf612710610b2051610bc05160d51c16026200cd5d565b610ac0526001610aa0525b6001600160501b03610b00515416610a8052610aa051156201cf3457610ae0516002610c2051015460a81c16916201bf1162008ceb565b506201bf236001610c405101620198a9565b610a608190525f19146201cf21576201bf6e6201bf4c610ae051610c40515460201c16620189ea565b610c40519065ffff0000000082549160201b169065ffff000000001916179055565b6201bf7862009af8565b506001821080156201cf13575b6200acae57801580156201cf06575b6201ceed576001610ba0511080156201cedb575b6201ceb757610b2051610bc05160d51c8116116201ce935763ffffffff60c0610c60510135116201ce7157612710610160610c60510135116201ce5057610ae0516101c0610c60510135116201ce2e576201c1fa6040516201c00a81620088bd565b63ffffffff841681526201c021610c0051620083e2565b610c0051602082015262ffffff8316604082015264ffffffffff610ba051166060820152610b2051610bc05160d51c16608082015263ffffffff60c0610c605101351660a0820152610ae051610160610c605101351660c0820152610ae051610a60511660e08201525f6101008201525f610120820152610ae0516101c0610c6051013516610140820152610a60515f526007610c40510160205260405f209063ffffffff808251161663ffffffff1983541617825560208101516201c0e781620083e2565b6201c0f281620083e2565b82546040838101516060850151610ae051608087015160a088015160c089015160e08a01516101008b01516101208c0151610140909c015161ffff60d81b90871660d81b169b861660c81b61ffff60c81b1690861660b81b61ffff60b81b1691861660a81b61ffff60a81b1692861660981b61ffff60981b1660789490941b63ffffffff60781b169490951660681b61ffff60681b169590971b64ffffffffff60401b1660289690961b67ffffff00000000001660209990991b64ff00000000167fffffff00000000000000000000000000000000000000000000000000ffffffff909816979097179790971793909317919091179190911793909317919091171717179055565b610a60515f526007610c4051016020526201c220610c805160405f20610c4051620185b2565b604051926201c22f846200892f565b8352610a6051602084015282610b6052610a6051156201cdcf57505f815f5260d560205260405f20906201c266610c005162014426565b156201cd7257506002610c205101549560208401515f9781156201cd48576201c292610c005162014426565b916201c2a1610c0051620083e2565b610c00511580156201cd2c575b610ae05182166303ff0000609885901c16175f908152600287016020526040902063ffffffff906201c2e09062009332565b51166201ccfe5783156201ccf757845b84156201ccef575f905b6201c30462009298565b506303fcffff80610ae05186166303ff000063ffff00006cffffffffffffffffffffff00008a60981c16161617116201ccb357506001600160501b0381116201cc965764ffffffffff821162019971576201c362610c005162010a74565b156201cc8157806201cc56576001600160501b03905b64ffffffffff604051936201c38d8562008884565b610ae05187166303ff000063ffff00006cffffffffffffffffffffff00008b60981c1616161785525f60208601525f60408601526201c3cf610c0051620083e2565b610c005160608601521660808401521660a0820152865460d01c63ffffffff166201c7515760a0999896936201c59e60209997947f5d5d31f82cb7d7cf1b09787031cd282c6accc62145d50de980d298bb340a9aba9d9e97946201c57d6201c62f956201c462610ae05185166303ff000063ffff00006cffffffffffffffffffffff00008a60981c161616178b620142fb565b610ae0516201c4809085166303ff0000609889901c16178b62014399565b610ae05184166303ff000063ffff00006cffffffffffffffffffffff00008960981c161616175f5260028a018e528f6001600160501b039060405f209263ffffffff808251161663ffffffff19855416178455602063ffffffff6201c5049183015116859063ffffffff60201b82549160201b169063ffffffff60201b1916179055565b604081810151855463ffffffff60401b1916911b63ffffffff60401b1617845560608101516201c53481620083e2565b6201c53f81620083e2565b8454608083015165ffffffffffff60601b1990911660609290921b60ff60601b169190911760689190911b64ffffffffff60681b1617845562018c60565b85156201c749575f915b610ae051166303ff0000609886901c1617620198ef565b90610ae0519060a81c165f5260038501895264ffffffffff608060405f209263ffffffff808251161663ffffffff198554161784556201c60263ffffffff8d83015116859063ffffffff60201b82549160201b169063ffffffff60201b1916179055565b610ae051604082810151865469ffff000000000000000019169216901b61ffff60401b1617845562018d28565b6201c72e575b506201c64a90620104b1815460f01c620189ea565b935b600a610b4051146201c687575b5050015190604051918252610ba05160208301526040820152610ac0516060820152610a80516080820152a1565b7fb971bdbd8f44fbf3ba501ee287c2533eb61b09097d638c664566aac00bbb3e6591610120916001600160501b03610ae0516002610c2051015460a81c16926003610c2051015490604051948552888501526201c6e7610c0051620083e2565b610c005160408501526080610c605101356060850152610ba05160808501528181168a85015260501c1660c0830152610be05160e0830152610100820152a15f806201c659565b8192506201c741906201c64a926201899f565b91906201c635565b5f916201c587565b610ae0518460a81c165f526003870160205260405f20805463ffffffff8116155f146201c8de57505086936201c59e60209997947f5d5d31f82cb7d7cf1b09787031cd282c6accc62145d50de980d298bb340a9aba9d9e97946201c8936201c8b19560a09f9e9c63ffffffff905460d01c165f5260028a018e526201c7ff610ae05185166303ff000063ffff00006cffffffffffffffffffffff00008a60981c1616161760405f20620143f6565b63ffffffff8a5460d01c166040820152610ae05184166303ff000063ffff00006cffffffffffffffffffffff00008960981c161616175f5260028a018e528f6001600160501b039060405f209263ffffffff808251161663ffffffff19855416178455602063ffffffff6201c5049183015116859063ffffffff60201b82549160201b169063ffffffff60201b1916179055565b610ae0516201c57d9083166303ff0000609887901c16178962014399565b6201c8c3575b506201c64a9062018d7b565b8192506201c8d6906201c64a926201899f565b91906201c8b7565b60206201ca46938a9f98959796939a6002906201c94863ffffffff8096861c16805f52838301865260405f20906040860152868154871c16868601528a6303ff000063ffff00006cffffffffffffffffffffff0000610ae0518c169360981c1616161790620143f6565b848484015116806201cc14575b50610ae05186166303ff000060988b901c16175f9081529101835260409020815181548385015163ffffffff60201b90871660201b1691861686199091161767ffffffff0000000019161781556201ca2490604083810151825463ffffffff60401b191690871690911b63ffffffff60401b1617815560608301516201c9db81620083e2565b6201c9e681620083e2565b8154608085015165ffffffffffff60601b1990911660609290921b60ff60601b169190911760689190911b64ffffffffff60681b16178155620190fe565b015116156201cbf0575b610ae051166303ff0000609885901c161787620143f6565b156201caa4575050509160a09493916201c64a88620191cf6201ca8e6020977f5d5d31f82cb7d7cf1b09787031cd282c6accc62145d50de980d298bb340a9aba9b9c6201899f565b935b620191b4610ae051825460401c16620189ea565b9091938093505460ff8160501c16908315158215151415806201cbdc575b6201cb6357505050916201c64a7f5d5d31f82cb7d7cf1b09787031cd282c6accc62145d50de980d298bb340a9aba9798620191cf846201cb2060a09a9997602099979060ff60501b825491151560501b169060ff60501b1916179055565b6201cb5d64ffffffffff6201cb3c5f82855460581c1662010bd4565b835464ffffffffff60581b1916911660581b64ffffffffff60581b16178255565b6201ca90565b90620159e560a49464ffffffffff62000f729463ffffffff8f6001015416945f146201cbd3575f925b156201cbca575f945b60405197634298a83160e01b8952610ae0519060a81c166004890152602488015260581c166044860152606485019062008717565b6001946201cb95565b6001926201cb8c565b5064ffffffffff8160581c1615156201cac2565b610ae0516201cc0e9082166303ff0000609887901c16178e62014399565b6201ca2e565b5f5281810184526201cc4f610ae05187166303ff000063ffff00006cffffffffffffffffffffff00008d60981c1616161760405f206201436a565b5f6201c955565b63a9c0cecd60e01b5f52610c00516201cc6f90620083e2565b610c005160045260245260445260645ffd5b816201cc56576001600160501b03906201c378565b6395d41f3f60e01b5f526004526001600160501b0360245260445ffd5b856303ff000063ffff00006cffffffffffffffffffffff0000886395d41f3f60e01b5f52610ae051169360981c1616161760045260245260445ffd5b5f906201c2fa565b5f6201c2f0565b5063ffffffff6001860154169163feefcc0b60e01b5f52610ae0519060a81c1660045260245260445260645ffd5b506201cd3b610c0051620083e2565b6002610c0051146201c2ae565b63ffffffff600185015416906369bc91ef60e11b5f52610ae0519060a81c1660045260245260445ffd5b92907f5d5d31f82cb7d7cf1b09787031cd282c6accc62145d50de980d298bb340a9aba9596509160a0946201cdc8602094610ae0516002610c2051015460a81c16610ba05191610c0051918888015191620189fe565b506201c64c565b60c49250610ae0516002610c2051015460a81c169160405192635f4d015360e01b8452600484015260248301526201ce0a610c0051620083e2565b610c005160448301526064820152610ba0516084820152610c8051151560a4820152fd5b6395d41f3f60e01b5f526101c0610c60510135600452610ae05160245260445ffd5b6395d41f3f60e01b5f52610160610c6051013560045261271060245260445ffd5b6395d41f3f60e01b5f5260c0610c6051013560045263ffffffff60245260445ffd5b6395d41f3f60e01b5f908152610b2051610bc05160d51c8116600452602452604490fd5b630c8f0a6960e41b5f52610ba051600452600160245264ffffffffff60445260645ffd5b5064ffffffffff610ba051116201bfa8565b63c6ebaaa160e01b5f5260045262ffffff60245260445ffd5b5062ffffff81116201bf94565b5063ffffffff82116201bf85565b826313d2887b60e01b5f5260045260245ffd5b509192505050565b610b80516201cfbb5760408051610b2051610bc051948252602082018690526001600160501b038085169383019390935260509390931c909116606082015260d59290921c166127100260808201527fe45a99fff28c6d15925d1e2d85178b939f8809e353ffdd55bc03edb410aa24de908060a081010390a16201beda565b60405163e45a99ff60e01b8152610b2051610bc051600483019490945260248201949094526001600160501b03828116604483015260509290921c909116606482015261271060d59290921c90921602608482015260a490fd5b50612710610b2051610bc05160d51c16026001600160501b036201d041818460501c168285166200d7f4565b1610156201be75565b50509293505050610b80516201d0ad577fbd608c77710b601b3c0b0f34d13295beb58c48631119b910d8d6067ad650d5b890610ae0516002610c2051015460a81c166200aed0604051928392836020909392919361ffff60408201951681520152565b610ae0516002610c2051015460a81c1663bd608c7760e01b5f5260045260245260445ffd5b6201d0dd9162009239565b5f6201bdde565b90506201d10186612710610b2051610bc05160d51c160262009239565b906201bdd7565b94955050505050610b605256fea2646970667358221220a5c84f82db4f117c47f316751083de53c9501159d945e976bd4a907d9258c0f464736f6c634300081e0033",
    "linkReferences": {}
  },
  "methodIdentifiers": {
    "acceptOwnership()": "79ba5097",
    "addContract(string,string,uint256,uint256,uint256,uint256,uint256,uint256,uint256,uint256)": "92f54b3a",
    "addressBlocked(address)": "3bf45a2f",
    "adminCancelOrders((uint256,uint256)[])": "e548bb57",
    "allowOrderForwarding(bool)": "7962f910",
    "autoDeleverage((uint256,uint256,uint256[])[],bool)": "43559bbf",
    "buyLiquidations((uint256,uint256,uint256,uint256,uint256,uint256)[],bool)": "bbac6c95",
    "cancelDecreaseCollateralRequest(uint256)": "ebcf1656",
    "clearInitUnwindContract(uint256)": "075367f6",
    "clearOrderSlots(uint256,uint256[])": "d541abc1",
    "clearPrepareUnwindContract(uint256)": "b5cd004e",
    "clearPricePointerSlots(uint256,uint256[])": "20c801d2",
    "createAccount(uint256)": "cab13915",
    "declineDecreaseCollateralRequest(uint256,uint256,string)": "ecdff22e",
    "decreasePositionCollateral(uint256,uint256,uint32,uint16,uint8)": "5495086a",
    "depositCollateral(uint256)": "bad4a01f",
    "depositToProtocol(uint256)": "54056119",
    "execFwdPositionOps((uint256,uint256,(uint256,uint256,uint8,uint256,uint256,uint256,uint256,bool,bool,bool,uint256,uint256,uint256,uint256,uint256),bool,uint256,uint8,uint256,uint256)[])": "0f6795d9",
    "execFznAccountPosOps((uint256,(uint256,uint256,uint8,uint256,uint256,uint256,uint256,bool,bool,bool,uint256,uint256,uint256,uint256,uint256))[])": "768f6855",
    "execOrder((uint256,uint256,uint8,uint256,uint256,uint256,uint256,bool,bool,bool,uint256,uint256,uint256,uint256,uint256))": "4d8dc985",
    "execOrders((uint256,uint256,uint8,uint256,uint256,uint256,uint256,bool,bool,bool,uint256,uint256,uint256,uint256,uint256)[],bool)": "39435dac",
    "execPerpOps((uint256,uint256,uint8,uint32,int256,bool,bytes)[])": "5bf9264c",
    "forceClose(uint256,uint256,uint256[],bool)": "b216d0d2",
    "forceResetWithdrawRateLimit()": "bed97b71",
    "getAccountByAddr(address)": "12e8eb2c",
    "getAccountById(uint256)": "05aca141",
    "getExchangeInfo()": "8bc5b3c5",
    "getFundingInterval()": "0d3e87a7",
    "getFundingSumAtBlock(uint256,uint256)": "7dd7e759",
    "getLiquidationInfo(uint256)": "50ef5c35",
    "getMakerFee(uint256)": "1275d14c",
    "getMarginFractions(uint256,uint256)": "6825e9e5",
    "getMinAccountOpenCNS()": "dec92b69",
    "getMinimumPostCNS()": "9fffdfe2",
    "getMinimumSettleCNS()": "3a63dabe",
    "getNextPriceAboveWithOrders(uint256,uint256)": "9b170bd1",
    "getNextPriceBelowWithOrders(uint256,uint256)": "fb455f6b",
    "getOrder(uint256,uint256)": "5e1a3573",
    "getOrderIdIndex(uint256)": "38ecd885",
    "getOrderLocks(uint256)": "8c1c2cef",
    "getOrdersAtPriceLevel(uint256,uint256,uint256,uint256)": "4d3282b4",
    "getOwner()": "893d20e8",
    "getPermissionedCancelParams(uint256)": "396d7e47",
    "getPerpOrderLocks(uint256,uint256)": "2709b746",
    "getPerpetualInfo(uint256)": "00092cce",
    "getPosition(uint256,uint256)": "751de421",
    "getPositionIds(uint256)": "1973c619",
    "getPositions(uint256,uint256,uint256)": "4a9a4158",
    "getPriceLevelOrderIds(uint256,uint256)": "653a6bd7",
    "getProtocolBalanceCNS()": "b5fcf762",
    "getRecycleBalanceCNS()": "edb1314e",
    "getRecycleFeeCNS()": "16a483ea",
    "getTakerFee(uint256)": "4119f930",
    "getUnwindInfo(uint256)": "6728641b",
    "getVolumeAtBookPrice(uint256,uint256)": "fe37fe12",
    "getWithdrawAllowanceData(uint256)": "8bcf1b27",
    "increasePositionCollateral(uint256,uint256)": "f769f0d3",
    "initUnwindContract(uint256,uint256)": "a5e9c411",
    "initialize(address)": "c4d66de8",
    "initializeV2((uint256,uint256)[],(uint256,uint256)[])": "065db330",
    "isAdministrator(address)": "0a2eb301",
    "isHalted()": "c7ff1584",
    "isLiquidationBuyer(address)": "ae0d4442",
    "isPositionAdministrator(address)": "dbfbf7e8",
    "isPriceAdministrator(address)": "d8b44268",
    "isToleranceAdministrator(address)": "a87041d1",
    "liquidation((uint256,uint256,uint256,bool))": "bbf979ac",
    "liquidations((uint256,uint256,uint256,bool)[],bool)": "d3b8c49d",
    "numberOfAccounts()": "0f03e4c3",
    "owner()": "8da5cb5b",
    "pauseContract(uint256)": "c2852f38",
    "pauseContractByMonitor(uint256)": "ec4cba83",
    "pendingOwner()": "e30c3978",
    "prepareUnwindContract(uint256)": "e5631c9e",
    "proxiableUUID()": "52d1902d",
    "removeContract(uint256)": "7cca3b06",
    "renounceOwnership()": "715018a6",
    "requestDecreasePositionCollateral(uint256,uint256,bool)": "171a5b81",
    "setAddressBlockStatus(address[],bool)": "b1082486",
    "setAddressWhitelisted(address[],bool)": "be70473d",
    "setAdministrator(address,bool)": "87c95058",
    "setBuyToLiquidateBuyerRestriction(uint256,bool)": "32b9203b",
    "setBuyToLiquidateParams(uint256,uint256,uint256,uint256)": "5180d5a8",
    "setBuyToLiquidatePriceThreshold(uint256,uint256)": "45c8c924",
    "setContractPaused(uint256,bool)": "9e430eda",
    "setDcpBorrowThreshold(uint256,uint256)": "af37c07d",
    "setExchangeHalted(bool)": "58087a74",
    "setFeeParams(uint256,uint256)": "9d2ec188",
    "setFreezeStatus(address,uint8)": "182b01f2",
    "setFrozen(address,uint8)": "4b8344fb",
    "setFundingClampPct(uint256,uint256)": "16a06593",
    "setFundingSum(uint256,int256,uint32,bool,bool)": "9fc8afd7",
    "setFundingSumScalingExp(uint256,uint256)": "c0a44efc",
    "setIgnOracle(uint256,bool)": "69752159",
    "setInitialMarginFraction(uint256,uint256)": "e2e1cb57",
    "setLastForwardedDescId(uint256,uint256)": "ba53027d",
    "setLastForwardedDescIdAsOwner(uint256,uint256)": "eaadbbef",
    "setLastTriggeredDescId(uint256,uint256)": "1217be67",
    "setLastTriggeredDescIdAsOwner(uint256,uint256)": "a971b6d4",
    "setLinkDsVerifier(address)": "d360dd31",
    "setLiquidationBuyer(address,bool)": "7ddbdc2a",
    "setLiquidationParams(uint256,uint256,uint256)": "60ad17fd",
    "setMaintenanceMarginFraction(uint256,uint256)": "8c031164",
    "setMakerFee(uint256,uint256)": "e74e2c9b",
    "setMarginTol(uint256,uint256,uint256)": "79609c11",
    "setMaxOpenInterest(uint256,uint256)": "9a6d7630",
    "setMinAccountOpenAmount(uint256)": "d6f34bd6",
    "setMinPost(uint256)": "279289e9",
    "setMinSettle(uint256)": "f28b98f3",
    "setMinWithdrawLimit(uint256)": "4d574c56",
    "setMonitorAdministrator(address,bool)": "c6efcd43",
    "setOverCollatDescentThreshold(uint256,uint256)": "ed6760fe",
    "setPermissionedCancelParams(uint256,uint256,uint256)": "efb62904",
    "setPerpLinkDsFeedId(uint256,bytes32)": "03cfe83c",
    "setPositionAdministrator(address,bool)": "12014156",
    "setPriceAdministrator(address,bool)": "a9bd5cee",
    "setPriceMaxAge(uint256,uint256)": "0e517f41",
    "setPriceTolPer100K(uint256,uint256)": "7d45678e",
    "setPriceTolPer100KByOwner(uint256,uint256)": "b839a8c4",
    "setRecycleFee(uint256)": "be0783f5",
    "setTakerFee(uint256,uint256)": "6debf8fa",
    "setThousandthsTvlWRLS(uint256)": "d780ece8",
    "setToleranceAdministrator(address,bool)": "dd0a3e2b",
    "setUnityDescentThreshold(uint256,uint256)": "2f32509b",
    "setWhitelistingEnabled(bool)": "5f40c1f7",
    "setWithdrawBypass(address,bool)": "252c3594",
    "transferOwnership(address)": "f2fde38b",
    "triggerUnwindContract(uint256)": "0189a2b7",
    "unwindContract(uint256,uint256,bool)": "fb05acb7",
    "unwindContractByOwner(uint256,uint256,bool)": "ddac1cde",
    "updateMarkPricePNS(uint256,uint32)": "541b04e9",
    "updateMarkPricePNSByOwner(uint256,uint32)": "0a039fbd",
    "updateOraclePrice(uint256,bytes)": "8f3ffc85",
    "upgradeTo(address)": "3659cfe6",
    "upgradeToAndCall(address,bytes)": "4f1ef286",
    "whitelisted(address)": "d936547e",
    "whitelistingEnabled()": "5b0c29eb",
    "withdrawCollateral(uint256)": "6112fe2e",
    "withdrawFromProtocol(uint256)": "8a924640",
    "xferAcctToProtocol(uint256)": "61bd6f44",
    "xferPerpInsToProtocol(uint256,uint256)": "586d92ca",
    "xferProtocolToAcct(uint256,uint256)": "229c2492",
    "xferProtocolToPerp(uint256,uint256,bool)": "e68073c3",
    "xferProtocolToRecycleBal(uint256)": "1df87ade"
  },
  "id": 14
}